{"abi":[{"type":"function","name":"applyPolicy","inputs":[{"name":"contractAddress","type":"address","internalType":"address"},{"name":"policyIds","type":"uint256[]","internalType":"uint256[]"}],"outputs":[],"stateMutability":"nonpayable"},{"type":"function","name":"cementPolicy","inputs":[{"name":"policyId","type":"uint256","internalType":"uint256"}],"outputs":[],"stateMutability":"nonpayable"},{"type":"function","name":"closePolicy","inputs":[{"name":"policyId","type":"uint256","internalType":"uint256"}],"outputs":[],"stateMutability":"nonpayable"},{"type":"function","name":"createPolicy","inputs":[{"name":"policyType","type":"uint8","internalType":"enum PolicyType"},{"name":"policyName","type":"string","internalType":"string"},{"name":"policyDescription","type":"string","internalType":"string"}],"outputs":[{"name":"","type":"uint256","internalType":"uint256"}],"stateMutability":"nonpayable"},{"type":"function","name":"deletePolicy","inputs":[{"name":"policyId","type":"uint256","internalType":"uint256"}],"outputs":[],"stateMutability":"nonpayable"},{"type":"function","name":"disablePolicy","inputs":[{"name":"policyId","type":"uint256","internalType":"uint256"}],"outputs":[],"stateMutability":"nonpayable"},{"type":"function","name":"getAppliedPolicyIds","inputs":[{"name":"contractAddress","type":"address","internalType":"address"}],"outputs":[{"name":"","type":"uint256[]","internalType":"uint256[]"}],"stateMutability":"view"},{"type":"function","name":"getPolicy","inputs":[{"name":"policyId","type":"uint256","internalType":"uint256"}],"outputs":[{"name":"callingFunctions","type":"bytes4[]","internalType":"bytes4[]"},{"name":"ruleIds","type":"uint256[][]","internalType":"uint256[][]"}],"stateMutability":"view"},{"type":"function","name":"getPolicyMetadata","inputs":[{"name":"_policyId","type":"uint256","internalType":"uint256"}],"outputs":[{"name":"","type":"tuple","internalType":"struct PolicyMetadata","components":[{"name":"policyName","type":"string","internalType":"string"},{"name":"policyDescription","type":"string","internalType":"string"}]}],"stateMutability":"view"},{"type":"function","name":"isCementedPolicy","inputs":[{"name":"_policyId","type":"uint256","internalType":"uint256"}],"outputs":[{"name":"","type":"bool","internalType":"bool"}],"stateMutability":"view"},{"type":"function","name":"isClosedPolicy","inputs":[{"name":"policyId","type":"uint256","internalType":"uint256"}],"outputs":[{"name":"","type":"bool","internalType":"bool"}],"stateMutability":"view"},{"type":"function","name":"isDisabledPolicy","inputs":[{"name":"policyId","type":"uint256","internalType":"uint256"}],"outputs":[{"name":"","type":"bool","internalType":"bool"}],"stateMutability":"view"},{"type":"function","name":"openPolicy","inputs":[{"name":"policyId","type":"uint256","internalType":"uint256"}],"outputs":[],"stateMutability":"nonpayable"},{"type":"function","name":"unapplyPolicy","inputs":[{"name":"_contractAddress","type":"address","internalType":"address"},{"name":"_policyIds","type":"uint256[]","internalType":"uint256[]"}],"outputs":[],"stateMutability":"nonpayable"},{"type":"function","name":"updatePolicy","inputs":[{"name":"policyId","type":"uint256","internalType":"uint256"},{"name":"callingFunctions","type":"bytes4[]","internalType":"bytes4[]"},{"name":"ruleIds","type":"uint256[][]","internalType":"uint256[][]"},{"name":"policyType","type":"uint8","internalType":"enum PolicyType"},{"name":"policyName","type":"string","internalType":"string"},{"name":"policyDescription","type":"string","internalType":"string"}],"outputs":[{"name":"","type":"uint256","internalType":"uint256"}],"stateMutability":"nonpayable"},{"type":"function","name":"version","inputs":[],"outputs":[{"name":"","type":"string","internalType":"string"}],"stateMutability":"view"},{"type":"event","name":"ForeignCallDeleted","inputs":[{"name":"policyId","type":"uint256","indexed":true,"internalType":"uint256"},{"name":"foreignCallId","type":"uint256","indexed":true,"internalType":"uint256"}],"anonymous":false},{"type":"event","name":"PolicyApplied","inputs":[{"name":"policyIds","type":"uint256[]","indexed":false,"internalType":"uint256[]"},{"name":"callingContract","type":"address","indexed":true,"internalType":"address"}],"anonymous":false},{"type":"event","name":"PolicyCemented","inputs":[{"name":"policyId","type":"uint256","indexed":true,"internalType":"uint256"}],"anonymous":false},{"type":"event","name":"PolicyClosed","inputs":[{"name":"policyId","type":"uint256","indexed":true,"internalType":"uint256"}],"anonymous":false},{"type":"event","name":"PolicyCreated","inputs":[{"name":"policyId","type":"uint256","indexed":true,"internalType":"uint256"}],"anonymous":false},{"type":"event","name":"PolicyDeleted","inputs":[{"name":"policyId","type":"uint256","indexed":true,"internalType":"uint256"}],"anonymous":false},{"type":"event","name":"PolicyDisabled","inputs":[{"name":"policyId","type":"uint256","indexed":true,"internalType":"uint256"}],"anonymous":false},{"type":"event","name":"PolicyOpened","inputs":[{"name":"policyId","type":"uint256","indexed":true,"internalType":"uint256"}],"anonymous":false},{"type":"event","name":"PolicyUnapplied","inputs":[{"name":"policyIds","type":"uint256[]","indexed":false,"internalType":"uint256[]"},{"name":"callingContract","type":"address","indexed":true,"internalType":"address"}],"anonymous":false},{"type":"event","name":"PolicyUpdated","inputs":[{"name":"policyId","type":"uint256","indexed":true,"internalType":"uint256"}],"anonymous":false},{"type":"event","name":"TrackerDeleted","inputs":[{"name":"policyId","type":"uint256","indexed":true,"internalType":"uint256"},{"name":"trackerId","type":"uint256","indexed":true,"internalType":"uint256"}],"anonymous":false}],"bytecode":{"object":"0x6080604052348015600e575f5ffd5b506147968061001c5f395ff3fe608060405234801561000f575f5ffd5b50600436106100fb575f3560e01c80638cf7a29311610093578063d46a37c411610063578063d46a37c41461025d578063e374902314610270578063f7b570f614610290578063fed27c8f146102a3575f5ffd5b80638cf7a293146101f65780639228303f1461021657806395953fba14610229578063cc486bc51461024a575f5ffd5b80635239f98c116100ce5780635239f98c1461017457806354fd4d5014610187578063696ef703146101d0578063798d6c7b146101e3575f5ffd5b80632b07fce3146100ff5780632b0e44401461012957806330ab6a0a1461013e5780634f10689b14610151575b5f5ffd5b61011261010d366004613df7565b6102b6565b604051610120929190613e0e565b60405180910390f35b61013c610137366004613df7565b61062f565b005b61013c61014c366004613df7565b6107c6565b61016461015f366004613df7565b6108de565b6040519015158152602001610120565b61013c610182366004613f86565b610919565b6101c36040518060400160405280600681526020017f76302e352e30000000000000000000000000000000000000000000000000000081525081565b6040516101209190614021565b6101646101de366004613df7565b610e9b565b61013c6101f1366004613df7565b610ea3565b610209610204366004613df7565b610fbb565b604051610120919061403a565b61013c610224366004613f86565b611115565b61023c6102373660046140e5565b611632565b604051908152602001610120565b61023c610258366004614165565b6117ee565b61013c61026b366004613df7565b6118a9565b61028361027e366004614250565b611a06565b6040516101209190614269565b61016461029e366004613df7565b611a85565b61013c6102b1366004613df7565b611aac565b6060805f6102c26120c4565b5f8581526001918201602052604090206002810154910191501561037e57600181015467ffffffffffffffff8111156102fd576102fd6142ab565b604051908082528060200260200182016040528015610326578160200160208202803683370190505b50600182015490935067ffffffffffffffff811115610347576103476142ab565b60405190808252806020026020018201604052801561037a57816020015b60608152602001906001900390816103655790505b5091505b5f5b6001820154811015610628578160010181815481106103a1576103a16142d8565b905f5260205f2090600891828204019190066004029054906101000a900460e01b8482815181106103d4576103d46142d8565b7fffffffff000000000000000000000000000000000000000000000000000000009092166020928302919091019091015260018201805483915f918490811061041f5761041f6142d8565b5f918252602080832060088304015460079092166004026101000a90910460e01b7fffffffff0000000000000000000000000000000000000000000000000000000016835282019290925260400190205467ffffffffffffffff811115610488576104886142ab565b6040519080825280602002602001820160405280156104b1578160200160208202803683370190505b508382815181106104c4576104c46142d8565b60209081029190910101525f5b825f015f8460010184815481106104ea576104ea6142d8565b5f918252602080832060088304015460079092166004026101000a90910460e01b7fffffffff0000000000000000000000000000000000000000000000000000000016835282019290925260400190205481101561061f57825f015f84600101848154811061055b5761055b6142d8565b905f5260205f2090600891828204019190066004029054906101000a900460e01b7bffffffffffffffffffffffffffffffffffffffffffffffffffffffff19167bffffffffffffffffffffffffffffffffffffffffffffffffffffffff191681526020019081526020015f2081815481106105d8576105d86142d8565b905f5260205f2001548483815181106105f3576105f36142d8565b6020026020010151828151811061060c5761060c6142d8565b60209081029190910101526001016104d1565b50600101610380565b5050915091565b60405160248101829052336044820181905282915f9081906106ec907f901cee1100000000000000000000000000000000000000000000000000000000906064015b604080517fffffffffffffffffffffffffffffffffffffffffffffffffffffffffffffffe08184030181529190526020810180517bffffffffffffffffffffffffffffffffffffffffffffffffffffffff167f901cee11000000000000000000000000000000000000000000000000000000001790526120f7565b915091505f821561078157600482511061070b5750602081015161070e565b505f5b8061078157604080518082018252601881527f4e6f7420417574686f72697a656420546f20506f6c6963790000000000000000602082015290517f08c379a00000000000000000000000000000000000000000000000000000000081526107789190600401614021565b60405180910390fd5b61078a866121b8565b610794865f61224a565b60405186907f524fcc256039a8ee7fd3d614ec713bd4a9159d02d7261ae80028fc15b45c4848905f90a2505050505050565b60405160248101829052336044820181905282915f90819061080c907f901cee110000000000000000000000000000000000000000000000000000000090606401610671565b915091505f821561089857600482511061082b5750602081015161082e565b505f5b8061089857604080518082018252601881527f4e6f7420417574686f72697a656420546f20506f6c6963790000000000000000602082015290517f08c379a00000000000000000000000000000000000000000000000000000000081526107789190600401614021565b6108a1866121b8565b6108ac86600261224a565b60405186907faed86353bce2e7a37fbb57488f79d0a22f46359b908581f14d7106e2b67fd0e1905f90a2505050505050565b5f805b6108e96120c4565b5f848152600191909101602052604090206003015460ff16600281111561091257610912614305565b1492915050565b60405173ffffffffffffffffffffffffffffffffffffffff84166024820152336044820181905284915f9081906109eb907f70aca09200000000000000000000000000000000000000000000000000000000906064015b604080517fffffffffffffffffffffffffffffffffffffffffffffffffffffffffffffffe08184030181529190526020810180517bffffffffffffffffffffffffffffffffffffffffffffffffffffffff167f70aca092000000000000000000000000000000000000000000000000000000001790526120f7565b915091505f8215610a77576004825110610a0a57506020810151610a0d565b505f5b80610a7757604080518082018252601a81527f4e6f742043616c6c696e6720436f6e74726163742041646d696e000000000000602082015290517f08c379a00000000000000000000000000000000000000000000000000000000081526107789190600401614021565b73ffffffffffffffffffffffffffffffffffffffff8816610af757604080518082018252601c81527f5a65726f20416464726573732043616e6e6f742042652041646d696e00000000602082015290517f08c379a00000000000000000000000000000000000000000000000000000000081526107789190600401614021565b5f610b00612497565b73ffffffffffffffffffffffffffffffffffffffff8a165f9081526020828152604080832080548251818502810185019093528083529495509293909291830182828015610b6b57602002820191905f5260205f20905b815481526020019060010190808311610b57575b5050505073ffffffffffffffffffffffffffffffffffffffff8c165f908152602085905260408120929350610ba1929150613bc0565b5f805b8251811015610c64575f9150815b8a811015610bff578b8b82818110610bcc57610bcc6142d8565b90506020020135848381518110610be557610be56142d8565b602002602001015103610bf757600192505b600101610bb2565b5081610c5c5773ffffffffffffffffffffffffffffffffffffffff8c165f9081526020859052604090208351849083908110610c3d57610c3d6142d8565b60209081029190910181015182546001810184555f9384529190922001555b600101610ba4565b505f5b89811015610e3d575f846001015f8d8d85818110610c8757610c876142d8565b9050602002013581526020019081526020015f20805480602002602001604051908101604052809291908181526020018280548015610cfa57602002820191905f5260205f20905b815473ffffffffffffffffffffffffffffffffffffffff168152600190910190602001808311610ccf575b50505050509050846001015f8d8d85818110610d1857610d186142d8565b9050602002013581526020019081526020015f205f610d379190613bc0565b5f5b8151811015610e33578d73ffffffffffffffffffffffffffffffffffffffff16828281518110610d6b57610d6b6142d8565b602002602001015173ffffffffffffffffffffffffffffffffffffffff1614610e2b57856001015f8e8e86818110610da557610da56142d8565b9050602002013581526020019081526020015f20828281518110610dcb57610dcb6142d8565b60209081029190910181015182546001810184555f938452919092200180547fffffffffffffffffffffffff00000000000000000000000000000000000000001673ffffffffffffffffffffffffffffffffffffffff9092169190911790555b600101610d39565b5050600101610c67565b508a73ffffffffffffffffffffffffffffffffffffffff167fcca48239a70eb9b3cebd3ea981ec0ca547a1eac614fb9ef7c80422484582c10b8b8b604051610e86929190614332565b60405180910390a25050505050505050505050565b5f60026108e1565b60405160248101829052336044820181905282915f908190610ee9907f901cee110000000000000000000000000000000000000000000000000000000090606401610671565b915091505f8215610f75576004825110610f0857506020810151610f0b565b505f5b80610f7557604080518082018252601881527f4e6f7420417574686f72697a656420546f20506f6c6963790000000000000000602082015290517f08c379a00000000000000000000000000000000000000000000000000000000081526107789190600401614021565b610f7e866121b8565b610f8986600161224a565b60405186907fe9a53e8109d105e8132e423c8a8489a6c054acbfff3373248be4938a857143d9905f90a2505050505050565b6040805180820190915260608082526020820152610fd76124c4565b5f8381526020919091526040908190208151808301909252805482908290610ffe90614382565b80601f016020809104026020016040519081016040528092919081815260200182805461102a90614382565b80156110755780601f1061104c57610100808354040283529160200191611075565b820191905f5260205f20905b81548152906001019060200180831161105857829003601f168201915b5050505050815260200160018201805461108e90614382565b80601f01602080910402602001604051908101604052809291908181526020018280546110ba90614382565b80156111055780601f106110dc57610100808354040283529160200191611105565b820191905f5260205f20905b8154815290600101906020018083116110e857829003601f168201915b5050505050815250509050919050565b60405173ffffffffffffffffffffffffffffffffffffffff84166024820152336044820181905284915f908190611170907f70aca0920000000000000000000000000000000000000000000000000000000090606401610970565b915091505f82156111fc57600482511061118f57506020810151611192565b505f5b806111fc57604080518082018252601a81527f4e6f742043616c6c696e6720436f6e74726163742041646d696e000000000000602082015290517f08c379a00000000000000000000000000000000000000000000000000000000081526107789190600401614021565b73ffffffffffffffffffffffffffffffffffffffff881661127c57604080518082018252601c81527f5a65726f20416464726573732043616e6e6f742042652041646d696e00000000602082015290517f08c379a00000000000000000000000000000000000000000000000000000000081526107789190600401614021565b5f611285612497565b905061271088889050106040518060600160405280602a81526020016146b5602a9139906112e0576040517f08c379a00000000000000000000000000000000000000000000000000000000081526004016107789190614021565b505f5b87811015611453575f6112f46120c4565b6001015f8b8b8581811061130a5761130a6142d8565b9050602002013581526020019081526020015f209050805f015f9054906101000a900460ff166040518060400160405280601581526020017f506f6c69637920646f6573206e6f7420657869737400000000000000000000008152509061139e576040517f08c379a00000000000000000000000000000000000000000000000000000000081526004016107789190614021565b506113c08a8a848181106113b4576113b46142d8565b905060200201356121b8565b5f600382015460ff1660028111156113da576113da614305565b0361144a57335f90815260048201602090815260409182902054825160608101909352603980845260ff90911692916147289083013990611448576040517f08c379a00000000000000000000000000000000000000000000000000000000081526004016107789190614021565b505b506001016112e3565b508667ffffffffffffffff81111561146d5761146d6142ab565b604051908082528060200260200182016040528015611496578160200160208202803683370190505b5073ffffffffffffffffffffffffffffffffffffffff8a165f9081526020838152604090912082516114ce9391929190910190613bdb565b505f5b878110156115d6578888828181106114eb576114eb6142d8565b90506020020135825f015f8c73ffffffffffffffffffffffffffffffffffffffff1673ffffffffffffffffffffffffffffffffffffffff1681526020019081526020015f208281548110611541576115416142d8565b905f5260205f200181905550816001015f8a8a84818110611564576115646142d8565b60209081029290920135835250818101929092526040015f9081208054600180820183559183529290912090910180547fffffffffffffffffffffffff00000000000000000000000000000000000000001673ffffffffffffffffffffffffffffffffffffffff8d16179055016114d1565b508873ffffffffffffffffffffffffffffffffffffffff167f12152a04e6faa55f635c036c0cb901dff565d19cd5703f5076adda8206cdb7c6898960405161161f929190614332565b60405180910390a2505050505050505050565b5f600386600281111561164757611647614305565b60ff16106040518060400160405280601581526020017f506f6c6963795479706520697320696e76616c69640000000000000000000000815250906116b9576040517f08c379a00000000000000000000000000000000000000000000000000000000081526004016107789190614021565b505f6116c36120c4565b805460019081018083555f8181528284016020526040902080547fffffffffffffffffffffffffffffffffffffffffffffffffffffffffffffff00908116841782556003909101805494955091938b9391169083600281111561172857611728614305565b02179055506040517f1929cb64000000000000000000000000000000000000000000000000000000008152600481018290523360248201523090631929cb64906044016020604051808303815f875af1158015611787573d5f5f3e3d5ffd5b505050506040513d601f19601f820116820180604052508101906117ab91906143d3565b506117b981888888886124f1565b60405181907fde5ef345cecbaaffdfbe2454b7947aa14037bac2f45e4fc98976f8bffea38623905f90a2979650505050505050565b5f6117f98b3361253a565b6118028b6121b8565b61180a6120c4565b5f8c8152600191909101602052604090205460ff1661188857604080518082018252601581527f506f6c69637920646f6573206e6f742065786973740000000000000000000000602082015290517f08c379a00000000000000000000000000000000000000000000000000000000081526107789190600401614021565b61189a8b8b8b8b8b8b8b8b8b8b61261e565b9b9a5050505050505050505050565b60405160248101829052336044820181905282915f9081906118ef907f901cee110000000000000000000000000000000000000000000000000000000090606401610671565b915091505f821561197b57600482511061190e57506020810151611911565b505f5b8061197b57604080518082018252601881527f4e6f7420417574686f72697a656420546f20506f6c6963790000000000000000602082015290517f08c379a00000000000000000000000000000000000000000000000000000000081526107789190600401614021565b611984866121b8565b600161198e6120c4565b5f88815260019190910160205260408082206003018054931515610100027fffffffffffffffffffffffffffffffffffffffffffffffffffffffffffff00ff90941693909317909255905187917fbaf00585ebbdf781652a166975bf4579319799593ec61cfadd690ea9833c3fc891a2505050505050565b6060611a10612497565b73ffffffffffffffffffffffffffffffffffffffff83165f908152602091825260409081902080548251818502810185019093528083529192909190830182828015611a7957602002820191905f5260205f20905b815481526020019060010190808311611a65575b50505050509050919050565b5f611a8e6120c4565b5f928352600101602052506040902060030154610100900460ff1690565b60405160248101829052336044820181905282915f908190611af2907f901cee110000000000000000000000000000000000000000000000000000000090606401610671565b915091505f8215611b7e576004825110611b1157506020810151611b14565b505f5b80611b7e57604080518082018252601881527f4e6f7420417574686f72697a656420546f20506f6c6963790000000000000000602082015290517f08c379a00000000000000000000000000000000000000000000000000000000081526107789190600401614021565b611b87866121b8565b5f611b906120c4565b5f8881526001919091016020526040812080547fffffffffffffffffffffffffffffffffffffffffffffffffffffffffffffff001681559150611bd1612a0f565b5f898152602091909152604081205491505b818111611cf257611bf2612a0f565b5f8a81526001919091016020908152604080832084845290915290205460ff1615611ce057611c1f612a0f565b5f8a8152600191820160209081526040808320858452909152812080547fffffffffffffffffffffffffffffffffffffffffffffffffffffffffffffff0016815591820181611c6e8282613bc0565b600182015f611c7d8282613bc0565b611c8a600183015f613c24565b611c97600283015f613c46565b50611ca79050600483015f613c61565b611cb4600583015f613c61565b611cc1600683015f613c61565b611cce600783015f613c7c565b611cdb600883015f613c7c565b505050505b80611cea81614417565b915050611be3565b505f611cfc612a3c565b5f8a8152602091909152604081205491505b818111611e2157611d1d612a3c565b5f8b81526001919091016020908152604080832084845290915290205460ff1615611e0f57611d4a612a3c565b5f8b8152600191820160209081526040808320858452909152812080547fffffffffffff0000000000000000000000000000000000000000000000000000168155918201819055611d9e6002830182613c24565b611dab600383015f613c9a565b611db8600483015f613c9a565b5060050180547fffffffffffffffffffffffffffffffffffffffffffffffffffffffff0000000016905560405181908b907f19d0bd0cc4d63f9108c93b0abfd7408498ecbc73713f6bb3a2862d9b9d1983d8905f90a35b80611e1981614417565b915050611d0e565b505f611e2b612a69565b5f8b81526020829052604090205490915060015b818111611f08575f8c8152600184016020908152604080832084845290915290205460ff1615611ef657611e71612a69565b5f8d8152600191820160209081526040808320858452909152812080547fffffffffffffffffffffffffffffffffffffffffffffffffffffffff0000000016815591611ebf90830182613cb8565b600282015f90555050808c7ed9d817df2d853a886f2cbe7a671a676890264711abbb9d2c3ee79fb1bb653a60405160405180910390a35b80611f0081614417565b915050611e3f565b505f85600101600101805480602002602001604051908101604052809291908181526020018280548015611f9a57602002820191905f5260205f20905f905b82829054906101000a900460e01b7bffffffffffffffffffffffffffffffffffffffffffffffffffffffff191681526020019060040190602082600301049283019260010382029150808411611f475790505b509394505f93505050505b815181101561208b57866001015f015f838381518110611fc757611fc76142d8565b60200260200101517bffffffffffffffffffffffffffffffffffffffffffffffffffffffff19167bffffffffffffffffffffffffffffffffffffffffffffffffffffffff191681526020019081526020015f205f6120259190613bc0565b600287018054806120385761203861444e565b5f8281526020902060087fffffffffffffffffffffffffffffffffffffffffffffffffffffffffffffffff90920191820401805463ffffffff600460078516026101000a02191690559055600101611fa5565b506040518c907f433ab09ab993382af577c4a70f77dcc7cf149b5b52eb40d19b869664bfb5496d905f90a2505050505050505050505050565b5f806120f160017ff9dbd639dd2ea165d77dd4c51dec420100d51ceacf023b1c40faa045ba8f9a6561447b565b92915050565b5f60605f612103612a96565b7fffffffff0000000000000000000000000000000000000000000000000000000086165f908152602082905260409081902054905191925073ffffffffffffffffffffffffffffffffffffffff1690819061215f90879061448e565b5f60405180830381855af49150503d805f8114612197576040519150601f19603f3d011682016040523d82523d5f602084013e61219c565b606091505b509094509250836121af57825160208401fd5b50509250929050565b6121c06120c4565b5f8281526001919091016020526040902060030154610100900460ff161561224757604080518082018252601f81527f4e6f7420616c6c6f77656420666f722063656d656e74656420706f6c69637900602082015290517f08c379a00000000000000000000000000000000000000000000000000000000081526107789190600401614021565b50565b5f6122536120c4565b5f848152600191820160205260408120909101915082600281111561227a5761227a614305565b03612468575f612288612497565b90505f5b5f85815260018301602052604090205481101561244d575f85815260018301602052604081208054839081106122c4576122c46142d8565b5f91825260208083209091015473ffffffffffffffffffffffffffffffffffffffff16808352908590526040822054909250905b818110156124425773ffffffffffffffffffffffffffffffffffffffff83165f908152602086905260409020805489919083908110612339576123396142d8565b905f5260205f2001540361243a57805b61235460018461447b565b8110156123ee5773ffffffffffffffffffffffffffffffffffffffff84165f90815260208790526040902061238a8260016144a4565b8154811061239a5761239a6142d8565b5f91825260208083209091015473ffffffffffffffffffffffffffffffffffffffff871683529088905260409091208054839081106123db576123db6142d8565b5f91825260209091200155600101612349565b5073ffffffffffffffffffffffffffffffffffffffff83165f9081526020869052604090208054806124225761242261444e565b600190038181905f5260205f20015f90559055612442565b6001016122f8565b50505060010161228c565b505f848152600182016020526040812061246691613bc0565b505b81816002015f6101000a81548160ff0219169083600281111561248d5761248d614305565b0217905550505050565b5f806120f160017f1544053a94493269e0aa160e5aa5b54d19ee6492c78b8bd3af283b912c78cdeb61447b565b5f806120f160017f63f3d299b5e5eaa88e38f63d9fdd88083599db769ec9e20669cb4ec11339fadf61447b565b5f6124fa6124c4565b5f8781526020829052604090209091506125158587836144fb565b505f8681526020829052604090206001016125318385836144fb565b50505050505050565b6040516024810183905273ffffffffffffffffffffffffffffffffffffffff821660448201525f908190612592907f901cee110000000000000000000000000000000000000000000000000000000090606401610671565b915091505f82156126175760048251106125ad575060208101515b8061261757604080518082018252601881527f4e6f7420417574686f72697a656420546f20506f6c6963790000000000000000602082015290517f08c379a00000000000000000000000000000000000000000000000000000000081526107789190600401614021565b5050505050565b5f600386600281111561263357612633614305565b60ff16106040518060400160405280601581526020017f506f6c6963795479706520697320696e76616c69640000000000000000000000815250906126a5576040517f08c379a00000000000000000000000000000000000000000000000000000000081526004016107789190614021565b5060408051808201909152601381527f506f6c696379496420697320696e76616c69640000000000000000000000000060208201528b612712576040517f08c379a00000000000000000000000000000000000000000000000000000000081526004016107789190614021565b5061271d8a8a612ac3565b5f6127266120c4565b5f8d81526001918201602052604090200190506127438c8861224a565b6127508c878787876124f1565b5f816001018054806020026020016040519081016040528092919081815260200182805480156127de57602002820191905f5260205f20905f905b82829054906101000a900460e01b7bffffffffffffffffffffffffffffffffffffffffffffffffffffffff19168152602001906004019060208260030104928301926001038202915080841161278b5790505b509394505f93505050505b81518110156128cc57825f015f838381518110612808576128086142d8565b60200260200101517bffffffffffffffffffffffffffffffffffffffffffffffffffffffff19167bffffffffffffffffffffffffffffffffffffffffffffffffffffffff191681526020019081526020015f205f6128669190613bc0565b826001018054806128795761287961444e565b5f8281526020902060087fffffffffffffffffffffffffffffffffffffffffffffffffffffffffffffffff90920191820401805463ffffffff600460078516026101000a021916905590556001016127e9565b5060408051808201909152601881527f4d61782072756c657320636f756e7420726561636865642e000000000000000060208201526127108a1061293d576040517f08c379a00000000000000000000000000000000000000000000000000000000081526004016107789190614021565b5060408051808201909152601e81527f4d61782063616c6c696e672066756e6374696f6e7320726561636865642e000060208201526127108c106129ae576040517f08c379a00000000000000000000000000000000000000000000000000000000081526004016107789190614021565b5088156129c8576129c38d8d8d8d8d87612b3d565b6129d4565b6129d48d8d8d85612d0f565b6040518d907f912ce63c438aca9d2f50d1d12de5b42efbcc84ce223b08122e8c2e3c000ca1f8905f90a2509a9b9a5050505050505050505050565b5f806120f160017f5c91f63a4ffcbd372b8ec622fd1fcaaa601b66330afdb30e5c292dd9123f20b061447b565b5f806120f160017f1f3305601ed940efccf797d76856e5fe70659a8a6905d64c9f236321df91e71861447b565b5f806120f160017f438102ff677bc3f21830c58117a05d6b953b31e3ea339da3f17957cd3941a69061447b565b5f806120f160017fbe498a3b14fd79a48c3c9af86ff14271ed497d09071013334028d28e7791db2061447b565b81612ace8282612e08565b15612b3857604080518082018252601681527f4475706c696361746573206e6f7420616c6c6f77656400000000000000000000602082015290517f08c379a00000000000000000000000000000000000000000000000000000000081526107789190600401614021565b505050565b818414612ba957604080518082018252601981527f496e76616c69642072756c65206172726179206c656e67746800000000000000602082015290517f08c379a00000000000000000000000000000000000000000000000000000000081526107789190600401614021565b5f5b8481101561253157612be387878784818110612bc957612bc96142d8565b9050602002016020810190612bde9190614611565b612e73565b612c4c57604080518082018252601181527f496e76616c6964205369676e6174757265000000000000000000000000000000602082015290517f08c379a00000000000000000000000000000000000000000000000000000000081526107789190600401614021565b81600101868683818110612c6257612c626142d8565b9050602002016020810190612c779190614611565b81546001810183555f92835260209092206008830401805463ffffffff60079094166004026101000a938402191660e09290921c92909202179055612d0787878784818110612cc857612cc86142d8565b9050602002016020810190612cdd9190614611565b868685818110612cef57612cef6142d8565b9050602002810190612d019190614650565b86612ebe565b600101612bab565b5f5b8281101561261757612d2f85858584818110612bc957612bc96142d8565b612d9857604080518082018252601181527f496e76616c6964205369676e6174757265000000000000000000000000000000602082015290517f08c379a00000000000000000000000000000000000000000000000000000000081526107789190600401614021565b81600101848483818110612dae57612dae6142d8565b9050602002016020810190612dc39190614611565b8154600180820184555f93845260209093206008820401805463ffffffff60079093166004026101000a928302191660e09390931c9190910291909117905501612d11565b5f6002831015612e1957505f6120f1565b5f5b60018403811015612e6c5760208102830135600182015b85811015612e5b5760208102850135808303612e52576001945050612e5b565b50600101612e32565b50505f8211612e6c57600101612e1b565b5092915050565b5f612e7c613964565b5f938452602090815260408085207fffffffff000000000000000000000000000000000000000000000000000000009490941685529290525090205460ff1690565b5f5b8281101561395c575f612ed1612a0f565b5f8881526001919091016020526040812090868685818110612ef557612ef56142d8565b602090810292909201358352508181019290925260409081015f2081518083018352815460ff161515815282516001830180546101008188028401810190965260e083018181529396949594870194929391928492918491840182828015612f7a57602002820191905f5260205f20905b815481526020019060010190808311612f66575b50505050508152602001600182016040518060600160405290815f8201805480602002602001604051908101604052809291908181526020018280548015612fdf57602002820191905f5260205f20905b815481526020019060010190808311612fcb575b505050505081526020016001820180548060200260200160405190810160405280929190818152602001828054801561306457602002820191905f5260205f20905f905b82829054906101000a900460ff16600781111561304257613042614305565b8152602060019283018181049485019490930390920291018084116130235790505b5050505050815260200160028201805480602002602001604051908101604052809291908181526020015f905b82821015613139578382905f5260205f200180546130ae90614382565b80601f01602080910402602001604051908101604052809291908181526020018280546130da90614382565b80156131255780601f106130fc57610100808354040283529160200191613125565b820191905f5260205f20905b81548152906001019060200180831161310857829003601f168201915b505050505081526020019060010190613091565b5050505081525050815260200160048201805480602002602001604051908101604052809291908181526020015f905b82821015613206575f8481526020902060408051606081019091529083018054829060ff16600781111561319f5761319f614305565b60078111156131b0576131b0614305565b8152905461010081046fffffffffffffffffffffffffffffffff166020808401919091527101000000000000000000000000000000000090910460ff166040909201919091529082526001929092019101613169565b50505050815260200160058201805480602002602001604051908101604052809291908181526020015f905b828210156132cf575f8481526020902060408051606081019091529083018054829060ff16600781111561326857613268614305565b600781111561327957613279614305565b8152905461010081046fffffffffffffffffffffffffffffffff166020808401919091527101000000000000000000000000000000000090910460ff166040909201919091529082526001929092019101613232565b50505050815260200160068201805480602002602001604051908101604052809291908181526020015f905b82821015613398575f8481526020902060408051606081019091529083018054829060ff16600781111561333157613331614305565b600781111561334257613342614305565b8152905461010081046fffffffffffffffffffffffffffffffff166020808401919091527101000000000000000000000000000000000090910460ff1660409092019190915290825260019290920191016132fb565b50505050815260200160078201805480602002602001604051908101604052809291908181526020015f905b828210156135fd575f84815260209081902060408051610100808201835260058702909301805460ff80821615158452948104851615159583019590955290939092918401916201000090910416600281111561342357613423614305565b600281111561343457613434614305565b815281546020909101906301000000900460ff16600781111561345957613459614305565b600781111561346a5761346a614305565b815260200160018201805461347e90614382565b80601f01602080910402602001604051908101604052809291908181526020018280546134aa90614382565b80156134f55780601f106134cc576101008083540402835291602001916134f5565b820191905f5260205f20905b8154815290600101906020018083116134d857829003601f168201915b505050505081526020016002820154815260200160038201805461351890614382565b80601f016020809104026020016040519081016040528092919081815260200182805461354490614382565b801561358f5780601f106135665761010080835404028352916020019161358f565b820191905f5260205f20905b81548152906001019060200180831161357257829003601f168201915b50505050508152602001600482018054806020026020016040519081016040528092919081815260200182805480156135e557602002820191905f5260205f20905b8154815260200190600101908083116135d1575b505050505081525050815260200190600101906133c4565b50505050815260200160088201805480602002602001604051908101604052809291908181526020015f905b82821015613862575f84815260209081902060408051610100808201835260058702909301805460ff80821615158452948104851615159583019590955290939092918401916201000090910416600281111561368857613688614305565b600281111561369957613699614305565b815281546020909101906301000000900460ff1660078111156136be576136be614305565b60078111156136cf576136cf614305565b81526020016001820180546136e390614382565b80601f016020809104026020016040519081016040528092919081815260200182805461370f90614382565b801561375a5780601f106137315761010080835404028352916020019161375a565b820191905f5260205f20905b81548152906001019060200180831161373d57829003601f168201915b505050505081526020016002820154815260200160038201805461377d90614382565b80601f01602080910402602001604051908101604052809291908181526020018280546137a990614382565b80156137f45780601f106137cb576101008083540402835291602001916137f4565b820191905f5260205f20905b8154815290600101906020018083116137d757829003601f168201915b505050505081526020016004820180548060200260200160405190810160405280929190818152602001828054801561384a57602002820191905f5260205f20905b815481526020019060010190808311613836575b50505050508152505081526020019060010190613629565b5050509152505090525080519091506138da57604080518082018252600c81527f496e76616c69642052756c650000000000000000000000000000000000000000602082015290517f08c379a00000000000000000000000000000000000000000000000000000000081526107789190600401614021565b6138ec87826020015160400151613991565b7fffffffff0000000000000000000000000000000000000000000000000000000086165f90815260208490526040902085858481811061392e5761392e6142d8565b8354600180820186555f95865260209586902092909502939093013592019190915550919091019050612ec0565b505050505050565b5f806120f160017fdc82e9666de28bef254c770aa394fdb200d98373b70390c27adec32819f8f26661447b565b6127108151106040518060400160405280601a81526020017f4d617820706c61636520686f6c6465727320726561636865642e00000000000081525090613a05576040517f08c379a00000000000000000000000000000000000000000000000000000000081526004016107789190614021565b505f5b8151811015612b3857613a38828281518110613a2657613a266142d8565b60200260200101516040015160011690565b15613acd57613a7683838381518110613a5357613a536142d8565b6020026020010151602001516fffffffffffffffffffffffffffffffff16613b8d565b6040518060600160405280602781526020016147016027913990613ac7576040517f08c379a00000000000000000000000000000000000000000000000000000000081526004016107789190614021565b50613b85565b613af4828281518110613ae257613ae26142d8565b60200260200101516040015160021690565b15613b8557613b3283838381518110613b0f57613b0f6142d8565b6020026020010151602001516fffffffffffffffffffffffffffffffff16613bb7565b6040518060600160405280602281526020016146df6022913990613b83576040517f08c379a00000000000000000000000000000000000000000000000000000000081526004016107789190614021565b505b600101613a08565b5f613b96612a3c565b5f938452600101602090815260408085209385529290525090205460ff1690565b5f613b96612a69565b5080545f8255905f5260205f20908101906122479190613ceb565b828054828255905f5260205f20908101928215613c14579160200282015b82811115613c14578251825591602001919060010190613bf9565b50613c20929150613ceb565b5090565b5080545f8255601f0160209004905f5260205f20908101906122479190613ceb565b5080545f8255905f5260205f20908101906122479190613cff565b5080545f8255905f5260205f20908101906122479190613d1b565b5080545f8255600502905f5260205f20908101906122479190613d52565b5080545f8255600202905f5260205f20908101906122479190613dba565b508054613cc490614382565b5f825580601f10613cd3575050565b601f0160209004905f5260205f209081019061224791905b5b80821115613c20575f8155600101613cec565b80821115613c20575f613d128282613cb8565b50600101613cff565b5b80821115613c205780547fffffffffffffffffffffffffffff000000000000000000000000000000000000168155600101613d1c565b80821115613c205780547fffffffffffffffffffffffffffffffffffffffffffffffffffffffff000000001681555f613d8e6001830182613cb8565b600282015f9055600382015f613da49190613cb8565b613db1600483015f613bc0565b50600501613d52565b5b80821115613c205780547fffffffffffffffffffffffffffffffffffffffffffffffffffffffffffffff001681555f6001820155600201613dbb565b5f60208284031215613e07575f5ffd5b5035919050565b604080825283519082018190525f9060208501906060840190835b81811015613e695783517fffffffff0000000000000000000000000000000000000000000000000000000016835260209384019390920191600101613e29565b50508381036020850152809150845180825260208201925060208160051b830101602087015f5b83811015613f08578483037fffffffffffffffffffffffffffffffffffffffffffffffffffffffffffffffe0018652815180518085526020918201918501905f5b81811015613eef578351835260209384019390920191600101613ed1565b5050602097880197909450929092019150600101613e90565b509098975050505050505050565b803573ffffffffffffffffffffffffffffffffffffffff81168114613f39575f5ffd5b919050565b5f5f83601f840112613f4e575f5ffd5b50813567ffffffffffffffff811115613f65575f5ffd5b6020830191508360208260051b8501011115613f7f575f5ffd5b9250929050565b5f5f5f60408486031215613f98575f5ffd5b613fa184613f16565b9250602084013567ffffffffffffffff811115613fbc575f5ffd5b613fc886828701613f3e565b9497909650939450505050565b5f81518084528060208401602086015e5f6020828601015260207fffffffffffffffffffffffffffffffffffffffffffffffffffffffffffffffe0601f83011685010191505092915050565b602081525f6140336020830184613fd5565b9392505050565b602081525f8251604060208401526140556060840182613fd5565b905060208401517fffffffffffffffffffffffffffffffffffffffffffffffffffffffffffffffe08483030160408501526140908282613fd5565b95945050505050565b803560038110613f39575f5ffd5b5f5f83601f8401126140b7575f5ffd5b50813567ffffffffffffffff8111156140ce575f5ffd5b602083019150836020828501011115613f7f575f5ffd5b5f5f5f5f5f606086880312156140f9575f5ffd5b61410286614099565b9450602086013567ffffffffffffffff81111561411d575f5ffd5b614129888289016140a7565b909550935050604086013567ffffffffffffffff811115614148575f5ffd5b614154888289016140a7565b969995985093965092949392505050565b5f5f5f5f5f5f5f5f5f5f60c08b8d03121561417e575f5ffd5b8a35995060208b013567ffffffffffffffff81111561419b575f5ffd5b6141a78d828e01613f3e565b909a5098505060408b013567ffffffffffffffff8111156141c6575f5ffd5b6141d28d828e01613f3e565b90985096506141e5905060608c01614099565b945060808b013567ffffffffffffffff811115614200575f5ffd5b61420c8d828e016140a7565b90955093505060a08b013567ffffffffffffffff81111561422b575f5ffd5b6142378d828e016140a7565b915080935050809150509295989b9194979a5092959850565b5f60208284031215614260575f5ffd5b61403382613f16565b602080825282518282018190525f918401906040840190835b818110156142a0578351835260209384019390920191600101614282565b509095945050505050565b7f4e487b71000000000000000000000000000000000000000000000000000000005f52604160045260245ffd5b7f4e487b71000000000000000000000000000000000000000000000000000000005f52603260045260245ffd5b7f4e487b71000000000000000000000000000000000000000000000000000000005f52602160045260245ffd5b602081528160208201525f7f07ffffffffffffffffffffffffffffffffffffffffffffffffffffffffffffff831115614369575f5ffd5b8260051b80856040850137919091016040019392505050565b600181811c9082168061439657607f821691505b6020821081036143cd577f4e487b71000000000000000000000000000000000000000000000000000000005f52602260045260245ffd5b50919050565b5f602082840312156143e3575f5ffd5b5051919050565b7f4e487b71000000000000000000000000000000000000000000000000000000005f52601160045260245ffd5b5f7fffffffffffffffffffffffffffffffffffffffffffffffffffffffffffffffff8203614447576144476143ea565b5060010190565b7f4e487b71000000000000000000000000000000000000000000000000000000005f52603160045260245ffd5b818103818111156120f1576120f16143ea565b5f82518060208501845e5f920191825250919050565b808201808211156120f1576120f16143ea565b601f821115612b3857805f5260205f20601f840160051c810160208510156144dc5750805b601f840160051c820191505b81811015612617575f81556001016144e8565b67ffffffffffffffff831115614513576145136142ab565b614527836145218354614382565b836144b7565b5f601f841160018114614577575f85156145415750838201355b7fffffffffffffffffffffffffffffffffffffffffffffffffffffffffffffffff600387901b1c1916600186901b178355612617565b5f838152602081207fffffffffffffffffffffffffffffffffffffffffffffffffffffffffffffffe08716915b828110156145c457868501358255602094850194600190920191016145a4565b50868210156145ff577fffffffffffffffffffffffffffffffffffffffffffffffffffffffffffffffff60f88860031b161c19848701351681555b505060018560011b0183555050505050565b5f60208284031215614621575f5ffd5b81357fffffffff0000000000000000000000000000000000000000000000000000000081168114614033575f5ffd5b5f5f83357fffffffffffffffffffffffffffffffffffffffffffffffffffffffffffffffe1843603018112614683575f5ffd5b83018035915067ffffffffffffffff82111561469d575f5ffd5b6020019150600581901b3603821315613f7f575f5ffdfe4d617820706f6c69636965732070657220636f6e7472616374206164647265737320726561636865642e547261636b6572207265666572656e63656420696e2072756c65206e6f7420736574466f726569676e2043616c6c207265666572656e63656420696e2072756c65206e6f74207365744f6e6c7920766572696669656420706f6c69637920737562736372696265722063616e206170706c7920636c6f73656420706f6c6963696573a2646970667358221220cec180abd2b2108a1bec7eb0b41e5c75099cdf1151fe2166d8accd6d9bbbc3b264736f6c634300081c0033","linkReferences":{}},"methodIdentifiers":{"applyPolicy(address,uint256[])":"9228303f","cementPolicy(uint256)":"d46a37c4","closePolicy(uint256)":"2b0e4440","createPolicy(uint8,string,string)":"95953fba","deletePolicy(uint256)":"fed27c8f","disablePolicy(uint256)":"30ab6a0a","getAppliedPolicyIds(address)":"e3749023","getPolicy(uint256)":"2b07fce3","getPolicyMetadata(uint256)":"8cf7a293","isCementedPolicy(uint256)":"f7b570f6","isClosedPolicy(uint256)":"4f10689b","isDisabledPolicy(uint256)":"696ef703","openPolicy(uint256)":"798d6c7b","unapplyPolicy(address,uint256[])":"5239f98c","updatePolicy(uint256,bytes4[],uint256[][],uint8,string,string)":"cc486bc5","version()":"54fd4d50"},"id":73}