{"abi":[{"type":"function","name":"addClosedPolicySubscriber","inputs":[{"name":"policyId","type":"uint256","internalType":"uint256"},{"name":"subscriber","type":"address","internalType":"address"}],"outputs":[],"stateMutability":"nonpayable"},{"type":"function","name":"createCallingFunction","inputs":[{"name":"policyId","type":"uint256","internalType":"uint256"},{"name":"functionSignature","type":"bytes4","internalType":"bytes4"},{"name":"pTypes","type":"uint8[]","internalType":"enum ParamTypes[]"},{"name":"callingFunctionName","type":"string","internalType":"string"},{"name":"encodedValues","type":"string","internalType":"string"}],"outputs":[{"name":"","type":"uint256","internalType":"uint256"}],"stateMutability":"nonpayable"},{"type":"function","name":"createTracker","inputs":[{"name":"policyId","type":"uint256","internalType":"uint256"},{"name":"tracker","type":"tuple","internalType":"struct Trackers","components":[{"name":"set","type":"bool","internalType":"bool"},{"name":"pType","type":"uint8","internalType":"enum ParamTypes"},{"name":"mapped","type":"bool","internalType":"bool"},{"name":"trackerKeyType","type":"uint8","internalType":"enum ParamTypes"},{"name":"trackerValue","type":"bytes","internalType":"bytes"},{"name":"trackerIndex","type":"uint256","internalType":"uint256"}]},{"name":"trackerName","type":"string","internalType":"string"},{"name":"trackerKeys","type":"bytes[]","internalType":"bytes[]"},{"name":"trackerValues","type":"bytes[]","internalType":"bytes[]"}],"outputs":[{"name":"","type":"uint256","internalType":"uint256"}],"stateMutability":"nonpayable"},{"type":"function","name":"createTracker","inputs":[{"name":"policyId","type":"uint256","internalType":"uint256"},{"name":"tracker","type":"tuple","internalType":"struct Trackers","components":[{"name":"set","type":"bool","internalType":"bool"},{"name":"pType","type":"uint8","internalType":"enum ParamTypes"},{"name":"mapped","type":"bool","internalType":"bool"},{"name":"trackerKeyType","type":"uint8","internalType":"enum ParamTypes"},{"name":"trackerValue","type":"bytes","internalType":"bytes"},{"name":"trackerIndex","type":"uint256","internalType":"uint256"}]},{"name":"trackerName","type":"string","internalType":"string"}],"outputs":[{"name":"","type":"uint256","internalType":"uint256"}],"stateMutability":"nonpayable"},{"type":"function","name":"deleteCallingFunction","inputs":[{"name":"policyId","type":"uint256","internalType":"uint256"},{"name":"callingFunctionId","type":"uint256","internalType":"uint256"}],"outputs":[],"stateMutability":"nonpayable"},{"type":"function","name":"deleteTracker","inputs":[{"name":"policyId","type":"uint256","internalType":"uint256"},{"name":"trackerIndex","type":"uint256","internalType":"uint256"}],"outputs":[],"stateMutability":"nonpayable"},{"type":"function","name":"getAllCallingFunctions","inputs":[{"name":"policyId","type":"uint256","internalType":"uint256"}],"outputs":[{"name":"","type":"tuple[]","internalType":"struct CallingFunctionStorageSet[]","components":[{"name":"set","type":"bool","internalType":"bool"},{"name":"signature","type":"bytes4","internalType":"bytes4"},{"name":"parameterTypes","type":"uint8[]","internalType":"enum ParamTypes[]"}]}],"stateMutability":"view"},{"type":"function","name":"getAllTrackers","inputs":[{"name":"policyId","type":"uint256","internalType":"uint256"}],"outputs":[{"name":"","type":"tuple[]","internalType":"struct Trackers[]","components":[{"name":"set","type":"bool","internalType":"bool"},{"name":"pType","type":"uint8","internalType":"enum ParamTypes"},{"name":"mapped","type":"bool","internalType":"bool"},{"name":"trackerKeyType","type":"uint8","internalType":"enum ParamTypes"},{"name":"trackerValue","type":"bytes","internalType":"bytes"},{"name":"trackerIndex","type":"uint256","internalType":"uint256"}]}],"stateMutability":"view"},{"type":"function","name":"getCallingFunction","inputs":[{"name":"policyId","type":"uint256","internalType":"uint256"},{"name":"callingFunctionId","type":"uint256","internalType":"uint256"}],"outputs":[{"name":"","type":"tuple","internalType":"struct CallingFunctionStorageSet","components":[{"name":"set","type":"bool","internalType":"bool"},{"name":"signature","type":"bytes4","internalType":"bytes4"},{"name":"parameterTypes","type":"uint8[]","internalType":"enum ParamTypes[]"}]}],"stateMutability":"view"},{"type":"function","name":"getCallingFunctionMetadata","inputs":[{"name":"policyId","type":"uint256","internalType":"uint256"},{"name":"callingFunctionId","type":"uint256","internalType":"uint256"}],"outputs":[{"name":"","type":"tuple","internalType":"struct CallingFunctionHashMapping","components":[{"name":"callingFunction","type":"string","internalType":"string"},{"name":"signature","type":"bytes4","internalType":"bytes4"},{"name":"encodedValues","type":"string","internalType":"string"}]}],"stateMutability":"view"},{"type":"function","name":"getMappedTrackerValue","inputs":[{"name":"policyId","type":"uint256","internalType":"uint256"},{"name":"index","type":"uint256","internalType":"uint256"},{"name":"trackerKey","type":"bytes","internalType":"bytes"}],"outputs":[{"name":"","type":"bytes","internalType":"bytes"}],"stateMutability":"view"},{"type":"function","name":"getTracker","inputs":[{"name":"policyId","type":"uint256","internalType":"uint256"},{"name":"index","type":"uint256","internalType":"uint256"}],"outputs":[{"name":"","type":"tuple","internalType":"struct Trackers","components":[{"name":"set","type":"bool","internalType":"bool"},{"name":"pType","type":"uint8","internalType":"enum ParamTypes"},{"name":"mapped","type":"bool","internalType":"bool"},{"name":"trackerKeyType","type":"uint8","internalType":"enum ParamTypes"},{"name":"trackerValue","type":"bytes","internalType":"bytes"},{"name":"trackerIndex","type":"uint256","internalType":"uint256"}]}],"stateMutability":"view"},{"type":"function","name":"getTrackerMetadata","inputs":[{"name":"policyId","type":"uint256","internalType":"uint256"},{"name":"trackerId","type":"uint256","internalType":"uint256"}],"outputs":[{"name":"","type":"tuple","internalType":"struct TrackerMetadataStruct","components":[{"name":"trackerName","type":"string","internalType":"string"},{"name":"initialValue","type":"bytes","internalType":"bytes"},{"name":"initialKeys","type":"bytes[]","internalType":"bytes[]"},{"name":"initialValues","type":"bytes[]","internalType":"bytes[]"}]}],"stateMutability":"view"},{"type":"function","name":"isClosedPolicySubscriber","inputs":[{"name":"policyId","type":"uint256","internalType":"uint256"},{"name":"subscriber","type":"address","internalType":"address"}],"outputs":[{"name":"","type":"bool","internalType":"bool"}],"stateMutability":"view"},{"type":"function","name":"removeClosedPolicySubscriber","inputs":[{"name":"policyId","type":"uint256","internalType":"uint256"},{"name":"subscriber","type":"address","internalType":"address"}],"outputs":[],"stateMutability":"nonpayable"},{"type":"function","name":"updateCallingFunction","inputs":[{"name":"policyId","type":"uint256","internalType":"uint256"},{"name":"callingFunctionID","type":"uint256","internalType":"uint256"},{"name":"functionSignature","type":"bytes4","internalType":"bytes4"},{"name":"pTypes","type":"uint8[]","internalType":"enum ParamTypes[]"}],"outputs":[{"name":"","type":"uint256","internalType":"uint256"}],"stateMutability":"nonpayable"},{"type":"function","name":"updateTracker","inputs":[{"name":"_policyId","type":"uint256","internalType":"uint256"},{"name":"_trackerIndex","type":"uint256","internalType":"uint256"},{"name":"_tracker","type":"tuple","internalType":"struct Trackers","components":[{"name":"set","type":"bool","internalType":"bool"},{"name":"pType","type":"uint8","internalType":"enum ParamTypes"},{"name":"mapped","type":"bool","internalType":"bool"},{"name":"trackerKeyType","type":"uint8","internalType":"enum ParamTypes"},{"name":"trackerValue","type":"bytes","internalType":"bytes"},{"name":"trackerIndex","type":"uint256","internalType":"uint256"}]},{"name":"_trackerKey","type":"bytes","internalType":"bytes"},{"name":"_trackerValue","type":"bytes","internalType":"bytes"}],"outputs":[],"stateMutability":"nonpayable"},{"type":"function","name":"updateTracker","inputs":[{"name":"policyId","type":"uint256","internalType":"uint256"},{"name":"trackerIndex","type":"uint256","internalType":"uint256"},{"name":"tracker","type":"tuple","internalType":"struct Trackers","components":[{"name":"set","type":"bool","internalType":"bool"},{"name":"pType","type":"uint8","internalType":"enum ParamTypes"},{"name":"mapped","type":"bool","internalType":"bool"},{"name":"trackerKeyType","type":"uint8","internalType":"enum ParamTypes"},{"name":"trackerValue","type":"bytes","internalType":"bytes"},{"name":"trackerIndex","type":"uint256","internalType":"uint256"}]}],"outputs":[],"stateMutability":"nonpayable"},{"type":"event","name":"AssociatedRuleDeleted","inputs":[{"name":"policyId","type":"uint256","indexed":true,"internalType":"uint256"},{"name":"foreignCallId","type":"uint256","indexed":true,"internalType":"uint256"}],"anonymous":false},{"type":"event","name":"CallingFunctionCreated","inputs":[{"name":"policyId","type":"uint256","indexed":true,"internalType":"uint256"},{"name":"callingFunctionId","type":"uint256","indexed":true,"internalType":"uint256"}],"anonymous":false},{"type":"event","name":"CallingFunctionDeleted","inputs":[{"name":"policyId","type":"uint256","indexed":true,"internalType":"uint256"},{"name":"callingFunctionId","type":"uint256","indexed":true,"internalType":"uint256"}],"anonymous":false},{"type":"event","name":"CallingFunctionUpdated","inputs":[{"name":"policyId","type":"uint256","indexed":true,"internalType":"uint256"},{"name":"callingFunctionId","type":"uint256","indexed":true,"internalType":"uint256"}],"anonymous":false},{"type":"event","name":"PolicySubsciberAdded","inputs":[{"name":"policyId","type":"uint256","indexed":true,"internalType":"uint256"},{"name":"subscriber","type":"address","indexed":true,"internalType":"address"}],"anonymous":false},{"type":"event","name":"PolicySubsciberRemoved","inputs":[{"name":"policyId","type":"uint256","indexed":true,"internalType":"uint256"},{"name":"subscriber","type":"address","indexed":true,"internalType":"address"}],"anonymous":false},{"type":"event","name":"TrackerCreated","inputs":[{"name":"policyId","type":"uint256","indexed":true,"internalType":"uint256"},{"name":"trackerId","type":"uint256","indexed":true,"internalType":"uint256"}],"anonymous":false},{"type":"event","name":"TrackerDeleted","inputs":[{"name":"policyId","type":"uint256","indexed":true,"internalType":"uint256"},{"name":"trackerId","type":"uint256","indexed":true,"internalType":"uint256"}],"anonymous":false},{"type":"event","name":"TrackerUpdated","inputs":[{"name":"policyId","type":"uint256","indexed":true,"internalType":"uint256"},{"name":"trackerId","type":"uint256","indexed":true,"internalType":"uint256"}],"anonymous":false}],"bytecode":{"object":"0x6080604052348015600e575f5ffd5b506142bd8061001c5f395ff3fe608060405234801561000f575f5ffd5b506004361061012f575f3560e01c80637374c994116100ad578063bfc852361161007d578063f3e7dfc311610063578063f3e7dfc3146102c3578063f479c994146102e3578063febf8f92146102f6575f5ffd5b8063bfc8523614610283578063eeeb6047146102a3575f5ffd5b80637374c9941461022a5780639f9fa7191461023d578063a82c9e071461025d578063b095587814610270575f5ffd5b80634c957ad91161010257806356f3b05f116100e857806356f3b05f146101d757806372a340d7146101f757806372cb754c14610217575f5ffd5b80634c957ad9146101a157806356f39ae3146101c4575f5ffd5b80630b5f5723146101335780632711fe6b146101595780633bf073141461016e5780633fafdf6e1461018e575b5f5ffd5b6101466101413660046131dc565b610309565b6040519081526020015b60405180910390f35b61016c6101673660046132ae565b61042a565b005b61018161017c3660046132f4565b610559565b60405161015091906133d8565b61016c61019c3660046132f4565b61087c565b6101b46101af3660046132ae565b610bb6565b6040519015158152602001610150565b6101466101d236600461362a565b610bfc565b6101ea6101e5366004613687565b610eb6565b604051610150919061376a565b61020a6102053660046132f4565b611122565b60405161015091906137eb565b610146610225366004613804565b6112a9565b61016c6102383660046132ae565b61132b565b61025061024b366004613904565b611452565b6040516101509190613950565b61016c61026b3660046132f4565b6115b0565b61014661027e366004613962565b611653565b6102966102913660046132f4565b611748565b6040516101509190613a88565b6102b66102b13660046132f4565b61184c565b6040516101509190613a9a565b6102d66102d1366004613687565b6119e0565b6040516101509190613b1c565b61016c6102f1366004613b91565b611bac565b61016c610304366004613c3d565b611c4e565b5f6103148933611cb2565b61031d89611e10565b61032688611e9f565b838214610382576040518060600160405280603181526020016141a1603191396040517f08c379a00000000000000000000000000000000000000000000000000000000081526004016103799190613950565b60405180910390fd5b5f61038b612133565b5f8b8152602091909152604090205490506103a58a612160565b90505f5b8581101561040c576104048b838c8a8a868181106103c9576103c9613c7f565b90506020028101906103db9190613cac565b8a8a888181106103ed576103ed613c7f565b90506020028101906103ff9190613cac565b612192565b6001016103a9565b5061041d8a828a8a8a8a8a8a6121b6565b9998505050505050505050565b6104348233611cb2565b61043d82611e10565b73ffffffffffffffffffffffffffffffffffffffff81166104bd57604080518082018252601c81527f5a65726f20416464726573732043616e6e6f742042652041646d696e00000000602082015290517f08c379a00000000000000000000000000000000000000000000000000000000081526103799190600401613950565b60016104c7612374565b5f8481526001919091016020908152604080832073ffffffffffffffffffffffffffffffffffffffff8616808552600590910190925280832080547fffffffffffffffffffffffffffffffffffffffffffffffffffffffffffffff001694151594909417909355915184917f790a3138425334d31f4463869c596f58d51e891ecb665b5090fa0ae9ed8b6fd291a35050565b6105846040518060800160405280606081526020016060815260200160608152602001606081525090565b61058c6123a1565b5f848152602091825260408082208583529092528190208151608081019092528054829082906105bb90613d0d565b80601f01602080910402602001604051908101604052809291908181526020018280546105e790613d0d565b80156106325780601f1061060957610100808354040283529160200191610632565b820191905f5260205f20905b81548152906001019060200180831161061557829003601f168201915b5050505050815260200160018201805461064b90613d0d565b80601f016020809104026020016040519081016040528092919081815260200182805461067790613d0d565b80156106c25780601f10610699576101008083540402835291602001916106c2565b820191905f5260205f20905b8154815290600101906020018083116106a557829003601f168201915b5050505050815260200160028201805480602002602001604051908101604052809291908181526020015f905b82821015610797578382905f5260205f2001805461070c90613d0d565b80601f016020809104026020016040519081016040528092919081815260200182805461073890613d0d565b80156107835780601f1061075a57610100808354040283529160200191610783565b820191905f5260205f20905b81548152906001019060200180831161076657829003601f168201915b5050505050815260200190600101906106ef565b50505050815260200160038201805480602002602001604051908101604052809291908181526020015f905b8282101561086b578382905f5260205f200180546107e090613d0d565b80601f016020809104026020016040519081016040528092919081815260200182805461080c90613d0d565b80156108575780601f1061082e57610100808354040283529160200191610857565b820191905f5260205f20905b81548152906001019060200180831161083a57829003601f168201915b5050505050815260200190600101906107c3565b505050508152505090505b92915050565b6108868233611cb2565b61088f82611e10565b5f610898612374565b5f8481526001919091016020526040812091506108b36123ce565b5f85815260019190910160209081526040808320868452909152902054610100900460e01b90506108e26123ce565b5f858152600191820160209081526040808320878452909152812080547fffffffffffffffffffffffffffffffffffffffffffffffffffffff00000000001681559161093090830182612e8c565b506109409050600383015f612eae565b7fffffffff0000000000000000000000000000000000000000000000000000000081165f90815260018301602052604081208190555b7fffffffff0000000000000000000000000000000000000000000000000000000082165f908152600284016020526040902054811015610a9f576109b86123fb565b5f868152600191820160209081526040808320858452909152812080547fffffffffffffffffffffffffffffffffffffffffffffffffffffffffffffff0016815591820181610a078282612ed0565b600182015f610a168282612ed0565b610a23600183015f612e8c565b610a30600283015f612eeb565b50610a409050600483015f612f06565b610a4d600583015f612f06565b610a5a600683015f612f21565b610a67600783015f612f21565b50506040518692508791507fc2ebaca961b98bedef10bce18fc3c8bdcba15a62d52feb7f59578c9998e1d42a905f90a3600101610976565b507fffffffff0000000000000000000000000000000000000000000000000000000081165f9081526002830160205260408120610adb91612ed0565b5f610ae5856119e0565b90505f5b8151811015610b8257818181518110610b0457610b04613c7f565b60200260200101515f015115610b7a5783600101600201828281518110610b2d57610b2d613c7f565b60209081029190910181015181015182546001810184555f938452919092206008820401805463ffffffff60079093166004026101000a928302191660e09390931c919091029190911790555b600101610ae9565b50604051849086907f5b5ef7f155302df6e9d2c1a0610671ea5b89849a316a1f75018ab14fdd5a8bb6905f90a35050505050565b5f610bbf612374565b5f9384526001016020908152604080852073ffffffffffffffffffffffffffffffffffffffff949094168552600590930190525090205460ff1690565b5f610c078533611cb2565b610c1085611e10565b5f610c196123ce565b5f878152600182016020908152604080832089845282529182902080548351606081019094526034808552949550909361010090910460e01b7fffffffff000000000000000000000000000000000000000000000000000000009081169089161492916142189083013990610cbb576040517f08c379a00000000000000000000000000000000000000000000000000000000081526004016103799190613950565b508351816001018054905011156040518060800160405280604681526020016141d26046913990610d19576040517f08c379a00000000000000000000000000000000000000000000000000000000081526004016103799190613950565b505f5b6001820154811015610df257816001018181548110610d3d57610d3d613c7f565b905f5260205f2090602091828204019190069054906101000a900460ff166007811115610d6c57610d6c61369e565b858281518110610d7e57610d7e613c7f565b60200260200101516007811115610d9757610d9761369e565b146040518060600160405280603c815260200161424c603c913990610de9576040517f08c379a00000000000000000000000000000000000000000000000000000000081526004016103799190613950565b50600101610d1c565b50835160018201541015610e7f5760018101545b8451811015610e7d5781600101858281518110610e2557610e25613c7f565b60209081029190910181015182546001810184555f9384529282902091830490910180549192909160ff601f9092166101000a918202191690836007811115610e7057610e7061369e565b0217905550600101610e06565b505b604051869088907f2b77470866bba4d7ed745d96afff93047d8aad605c3a97a181658f934bda526f905f90a3509395945050505050565b60605f610ec1612133565b5f848152602082905260408120549192508167ffffffffffffffff811115610eeb57610eeb6134e3565b604051908082528060200260200182016040528015610f6757816020015b6040805160c0810182525f80825260208083018290529282018190526060808301829052608083015260a082015282527fffffffffffffffffffffffffffffffffffffffffffffffffffffffffffffffff909201910181610f095790505b5090505f60015b838111611117575f878152600186016020908152604080832084845290915290205460ff1615611105575f8781526001860160209081526040808320848452825291829020825160c08101909352805460ff808216151585529192840191610100909104166007811115610fe457610fe461369e565b6007811115610ff557610ff561369e565b8152815460ff620100008204811615156020840152604090920191630100000090910416600781111561102a5761102a61369e565b600781111561103b5761103b61369e565b815260200160018201805461104f90613d0d565b80601f016020809104026020016040519081016040528092919081815260200182805461107b90613d0d565b80156110c65780601f1061109d576101008083540402835291602001916110c6565b820191905f5260205f20905b8154815290600101906020018083116110a957829003601f168201915b505050505081526020016002820154815250508383815181106110eb576110eb613c7f565b6020026020010181905250818061110190613d85565b9250505b8061110f81613d85565b915050610f6e565b509095945050505050565b6040805160c0810182525f808252602082018190529181018290526060808201839052608082015260a081018290529061115a612133565b5f8581526001820160209081526040808320878452825291829020825160c08101909352805460ff80821615158552949550929390929184019161010090041660078111156111ab576111ab61369e565b60078111156111bc576111bc61369e565b8152815460ff62010000820481161515602084015260409092019163010000009091041660078111156111f1576111f161369e565b60078111156112025761120261369e565b815260200160018201805461121690613d0d565b80601f016020809104026020016040519081016040528092919081815260200182805461124290613d0d565b801561128d5780601f106112645761010080835404028352916020019161128d565b820191905f5260205f20905b81548152906001019060200180831161127057829003601f168201915b5050505050815260200160028201548152505091505092915050565b5f6112b48533611cb2565b6112bd85611e10565b6112c684611e9f565b5f6112d086612160565b90506112dd868287612428565b6112f6868286866112f160808b018b613cac565b612448565b604051819087907f1ea0bdfd9680c9b8e4038e41083d7800dca81e6f55a15ce48d858ebb70693d2a905f90a395945050505050565b6113358233611cb2565b61133e82611e10565b73ffffffffffffffffffffffffffffffffffffffff81166113be57604080518082018252601c81527f5a65726f20416464726573732043616e6e6f742042652041646d696e00000000602082015290517f08c379a00000000000000000000000000000000000000000000000000000000081526103799190600401613950565b6113c6612374565b5f8381526001919091016020908152604080832073ffffffffffffffffffffffffffffffffffffffff8516808552600590910190925280832080547fffffffffffffffffffffffffffffffffffffffffffffffffffffffffffffff0016905551909184917febc594f3b2a99e6227cfcc8bd404d054b6cc3dad7f287e1944cb88681a05c14c9190a35050565b60605f61145d612133565b5f86815260018201602090815260408083208884529091529020549091506301000000900460ff1660058160078111156114995761149961369e565b14806114b6575060018160078111156114b4576114b461369e565b145b156114e75783805190602001206040516020016114d591815260200190565b60405160208183030381529060405293505b5f8681526002830160209081526040808320888452909152908190209051611510908690613dbc565b9081526020016040518091039020805461152990613d0d565b80601f016020809104026020016040519081016040528092919081815260200182805461155590613d0d565b80156115a05780601f10611577576101008083540402835291602001916115a0565b820191905f5260205f20905b81548152906001019060200180831161158357829003601f168201915b5050505050925050509392505050565b6115ba8233611cb2565b6115c382611e10565b6115cb612133565b5f838152600191820160209081526040808320858452909152812080547fffffffffffffffffffffffffffffffffffffffffffffffffffffffff000000001681559161161990830182612f3f565b600282015f9055505080827ed9d817df2d853a886f2cbe7a671a676890264711abbb9d2c3ee79fb1bb653a60405160405180910390a35050565b5f61165e8633611cb2565b61166786611e10565b61166f612374565b5f878152600191909101602052604090205460ff166116ed57604080518082018252601581527f506f6c69637920646f6573206e6f742065786973740000000000000000000000602082015290517f08c379a00000000000000000000000000000000000000000000000000000000081526103799190600401613950565b5f6116f78761261e565b905061170587828888612628565b611712878288878761275f565b604051819088907f24103d2c348f3e3042849986bfdaee686941377c8a32bbe5b6cc13ad09c8af83905f90a39695505050505050565b60408051606080820183525f80835260208301529181019190915261176b6123ce565b5f8481526001918201602090815260408083208684528252918290208251606081018452815460ff811615158252610100900460e01b7fffffffff00000000000000000000000000000000000000000000000000000000168184015293810180548451818502810185018652818152929486019383018282801561183b57602002820191905f5260205f20905f905b82829054906101000a900460ff1660078111156118195761181961369e565b8152602060019283018181049485019490930390920291018084116117fa5790505b505050505081525050905092915050565b60408051606080820183528082525f60208301529181019190915261186f612888565b5f8481526020918252604080822085835290925281902081516060810190925280548290829061189e90613d0d565b80601f01602080910402602001604051908101604052809291908181526020018280546118ca90613d0d565b80156119155780601f106118ec57610100808354040283529160200191611915565b820191905f5260205f20905b8154815290600101906020018083116118f857829003601f168201915b5050509183525050600182015460e01b7fffffffff0000000000000000000000000000000000000000000000000000000016602082015260028201805460409092019161196190613d0d565b80601f016020809104026020016040519081016040528092919081815260200182805461198d90613d0d565b801561183b5780601f106119af5761010080835404028352916020019161183b565b820191905f5260205f20905b8154815290600101906020018083116119bb5750505091909252509195945050505050565b60605f6119eb6123ce565b5f848152602082905260408120549192508167ffffffffffffffff811115611a1557611a156134e3565b604051908082528060200260200182016040528015611a6157816020015b60408051606080820183525f808352602083015291810191909152815260200190600190039081611a335790505b5090505f60015b838111611117575f878152600186016020908152604080832084845290915290205460ff1615611b9a575f8781526001868101602090815260408084208585528252928390208351606081018552815460ff811615158252610100900460e01b7fffffffff000000000000000000000000000000000000000000000000000000001681840152928101805485518185028101850187528181529495929492860193830182828015611b6557602002820191905f5260205f20905f905b82829054906101000a900460ff166007811115611b4357611b4361369e565b815260206001928301818104948501949093039092029101808411611b245790505b505050505081525050838381518110611b8057611b80613c7f565b60200260200101819052508180611b9690613d85565b9250505b80611ba481613d85565b915050611a68565b611bb68733611cb2565b611bbf87611e10565b5f611bc8612133565b9050611c18818989611bd98a613de1565b89898080601f0160208091040260200160405190810160405280939291908181526020018383808284375f920191909152508b92508a91506128b59050565b604051879089907f7d0cd6a27b5d0487bca14f5b3852217db2c9951f3ad91646fe09e0c19abcef50905f90a35050505050505050565b611c588333611cb2565b611c6183611e10565b5f611c6a612133565b9050611c80818585611c7b86613de1565b612aed565b604051839085907f7d0cd6a27b5d0487bca14f5b3852217db2c9951f3ad91646fe09e0c19abcef50905f90a350505050565b6040516024810183905273ffffffffffffffffffffffffffffffffffffffff821660448201525f908190611d80907f901cee110000000000000000000000000000000000000000000000000000000090606401604080517fffffffffffffffffffffffffffffffffffffffffffffffffffffffffffffffe08184030181529190526020810180517bffffffffffffffffffffffffffffffffffffffffffffffffffffffff167f901cee1100000000000000000000000000000000000000000000000000000000179052612ceb565b915091505f8215611e09576004825110611d9f57506020810151611da2565b505f5b80611e09576040517f08c379a000000000000000000000000000000000000000000000000000000000815260206004820152601860248201527f4e6f7420417574686f72697a656420546f20506f6c69637900000000000000006044820152606401610379565b5050505050565b611e18612374565b5f8281526001919091016020526040902060040154610100900460ff1615611e9c576040517f08c379a000000000000000000000000000000000000000000000000000000000815260206004820152601f60248201527f4e6f7420616c6c6f77656420666f722063656d656e74656420706f6c696379006044820152606401610379565b50565b6001611eb16040830160208401613e73565b6007811115611ec257611ec261369e565b1480611eee57506002611edb6040830160208401613e73565b6007811115611eec57611eec61369e565b145b80611f1957506003611f066040830160208401613e73565b6007811115611f1757611f1761369e565b145b80611f4457506005611f316040830160208401613e73565b6007811115611f4257611f4261369e565b145b80611f6e57505f611f5b6040830160208401613e73565b6007811115611f6c57611f6c61369e565b145b6040518060400160405280600c81526020017f496e76616c69642074797065000000000000000000000000000000000000000081525090611fdc576040517f08c379a00000000000000000000000000000000000000000000000000000000081526004016103799190613950565b50611fed6060820160408301613e8c565b15611e9c5760016120046080830160608401613e73565b60078111156120155761201561369e565b14806120415750600261202e6080830160608401613e73565b600781111561203f5761203f61369e565b145b8061206c575060036120596080830160608401613e73565b600781111561206a5761206a61369e565b145b80612097575060056120846080830160608401613e73565b60078111156120955761209561369e565b145b806120c157505f6120ae6080830160608401613e73565b60078111156120bf576120bf61369e565b145b6040518060400160405280601881526020017f496e76616c696420747261636b6572206b6579207479706500000000000000008152509061212f576040517f08c379a00000000000000000000000000000000000000000000000000000000081526004016103799190613950565b5050565b5f8061087660017f438102ff677bc3f21830c58117a05d6b953b31e3ea339da3f17957cd3941a690613ea5565b5f5f61216a612133565b5f84815260208290526040812080549293509161218690613d85565b91829055509392505050565b5f61219b612133565b90506121ac818989611bd98a613de1565b5050505050505050565b604080516020810182525f9052517fc5d2460186f7233c927e7db2dcc703c0e500b653ca82273b7bfad8045d85a470906121f39088908890613eb8565b604051809103902014156040518060400160405280601081526020017f4e616d65206973207265717569726564000000000000000000000000000000008152509061226b576040517f08c379a00000000000000000000000000000000000000000000000000000000081526004016103799190613950565b506122976040518060800160405280606081526020016060815260200160608152602001606081525090565b86868080601f0160208091040260200160405190810160405280939291908181526020018383808284375f920191909152505050908252506122d98486613ec7565b60408201526122e88284613ec7565b6060820152806122f66123a1565b5f8b8152602091825260408082208c835290925220815181906123199082613f73565b506020820151600182019061232e9082613f73565b506040820151805161234a916002840191602090910190612f76565b5060608201518051612366916003840191602090910190612f76565b505050505050505050505050565b5f8061087660017ff9dbd639dd2ea165d77dd4c51dec420100d51ceacf023b1c40faa045ba8f9a65613ea5565b5f8061087660017fc6d0732f7ed4c7ec3d1a6580f5e91e95dcc3d159872b5f4e9d9b8e65d3b720f2613ea5565b5f8061087660017fdc82e9666de28bef254c770aa394fdb200d98373b70390c27adec32819f8f266613ea5565b5f8061087660017f5c91f63a4ffcbd372b8ec622fd1fcaaa601b66330afdb30e5c292dd9123f20b0613ea5565b5f612431612133565b9050612442818585611c7b86613de1565b50505050565b604080516020810182525f9052517fc5d2460186f7233c927e7db2dcc703c0e500b653ca82273b7bfad8045d85a470906124859086908690613eb8565b604051809103902014156040518060400160405280601081526020017f4e616d6520697320726571756972656400000000000000000000000000000000815250906124fd576040517f08c379a00000000000000000000000000000000000000000000000000000000081526004016103799190613950565b506125296040518060800160405280606081526020016060815260200160608152602001606081525090565b84848080601f0160208091040260200160405190810160405280939291908181526020018383808284375f92019190915250505090825250604080516020601f85018190048102820181019092528381529084908490819084018382808284375f920191909152505050506020820152806125a26123a1565b5f898152602091825260408082208a835290925220815181906125c59082613f73565b50602082015160018201906125da9082613f73565b50604082015180516125f6916002840191602090910190612f76565b5060608201518051612612916003840191602090910190612f76565b50505050505050505050565b5f5f61216a6123ce565b60408051602081019091525f90527fffffffff0000000000000000000000000000000000000000000000000000000082167fc5d2460100000000000000000000000000000000000000000000000000000000036126e457604080518082018252601e81527f46756e6374696f6e207369676e61747572652069732072657175697265640000602082015290517f08c379a00000000000000000000000000000000000000000000000000000000081526103799190600401613950565b6126ed81612dac565b5f6126f66123ce565b5f868152600182810160209081526040808420898552825290922080547fffffffffffffffffffffffffffffffffffffffffffffffffffffff00000000001661010060e089901c021782178155855193945061275793910191850190612fca565b505050505050565b6040805160208082019092525f90528251908301207f3a2db9fe7908dcc36d81824d2338fc3f1aff49ac357dd8c4840527fba27a5b90016127ff57604080518082018252601081527f4e616d6520697320726571756972656400000000000000000000000000000000602082015290517f08c379a00000000000000000000000000000000000000000000000000000000081526103799190600401613950565b5f612808612888565b5f87815260208281526040808320898452909152902090915061282b8482613f73565b505f8681526020828152604080832088845290915290206001810180547fffffffffffffffffffffffffffffffffffffffffffffffffffffffff000000001660e087901c17905560020161287f8382613f73565b50505050505050565b5f8061087660017fb88f46389dea4b934f6c24412aa4a67e6afeeee9cd7e06827b5b8f09c0e7d7ea613ea5565b6001604080860182905281865260a086018790525f888152918901602090815281832088845281529120855181549015157fffffffffffffffffffffffffffffffffffffffffffffffffffffffffffffff00821681178355928701518793909183917fffffffffffffffffffffffffffffffffffffffffffffffffffffffffffff00ff167fffffffffffffffffffffffffffffffffffffffffffffffffffffffffffff0000909116176101008360078111156129735761297361369e565b02179055506040820151815490151562010000027fffffffffffffffffffffffffffffffffffffffffffffffffffffffffff00ffff82168117835560608401519183917fffffffffffffffffffffffffffffffffffffffffffffffffffffffff00ffffff167fffffffffffffffffffffffffffffffffffffffffffffffffffffffff0000ffff909116176301000000836007811115612a1457612a1461369e565b021790555060808201516001820190612a2d9082613f73565b5060a09190910151600290910155600584606001516007811115612a5357612a5361369e565b1480612a745750600184606001516007811115612a7257612a7261369e565b145b15612aa5578280519060200120604051602001612a9391815260200190565b60405160208183030381529060405292505b5f868152600288016020908152604080832088845290915290819020905183918391612ad2908790613dbc565b908152602001604051809103902091826121ac92919061408a565b60408051808201909152601481527f4d617820747261636b657273207265616368656400000000000000000000000060208201526127108310612b5d576040517f08c379a00000000000000000000000000000000000000000000000000000000081526004016103799190613950565b5060018082525f604080840182905260a0840185905285825291860160209081528282208583528152919020825181549015157fffffffffffffffffffffffffffffffffffffffffffffffffffffffffffffff00821681178355928401518493909183917fffffffffffffffffffffffffffffffffffffffffffffffffffffffffffff00ff167fffffffffffffffffffffffffffffffffffffffffffffffffffffffffffff000090911617610100836007811115612c1d57612c1d61369e565b02179055506040820151815490151562010000027fffffffffffffffffffffffffffffffffffffffffffffffffffffffffff00ffff82168117835560608401519183917fffffffffffffffffffffffffffffffffffffffffffffffffffffffff00ffffff167fffffffffffffffffffffffffffffffffffffffffffffffffffffffff0000ffff909116176301000000836007811115612cbe57612cbe61369e565b021790555060808201516001820190612cd79082613f73565b5060a0820151816002015590505050505050565b5f60605f612cf7612e5f565b7fffffffff0000000000000000000000000000000000000000000000000000000086165f908152602082905260409081902054905191925073ffffffffffffffffffffffffffffffffffffffff16908190612d53908790613dbc565b5f60405180830381855af49150503d805f8114612d8b576040519150601f19603f3d011682016040523d82523d5f602084013e612d90565b606091505b50909450925083612da357825160208401fd5b50509250929050565b5f5b815181101561212f57600860ff16828281518110612dce57612dce613c7f565b60200260200101516007811115612de757612de761369e565b106040518060400160405280600c81526020017f496e76616c69642074797065000000000000000000000000000000000000000081525090612e56576040517f08c379a00000000000000000000000000000000000000000000000000000000081526004016103799190613950565b50600101612dae565b5f8061087660017fbe498a3b14fd79a48c3c9af86ff14271ed497d09071013334028d28e7791db20613ea5565b5080545f8255601f0160209004905f5260205f2090810190611e9c9190613071565b5080545f825560070160089004905f5260205f2090810190611e9c9190613071565b5080545f8255905f5260205f2090810190611e9c9190613071565b5080545f8255905f5260205f2090810190611e9c9190613085565b5080545f8255905f5260205f2090810190611e9c91906130a1565b5080545f8255600502905f5260205f2090810190611e9c91906130d8565b508054612f4b90613d0d565b5f825580601f10612f5a575050565b601f0160209004905f5260205f2090810190611e9c9190613071565b828054828255905f5260205f20908101928215612fba579160200282015b82811115612fba5782518290612faa9082613f73565b5091602001919060010190612f94565b50612fc6929150613085565b5090565b828054828255905f5260205f2090601f01602090048101928215613069579160200282015f5b8382111561303b57835183826101000a81548160ff0219169083600781111561301b5761301b61369e565b021790555092602001926001016020815f01049283019260010302612ff0565b80156130675782816101000a81549060ff02191690556001016020815f0104928301926001030261303b565b505b50612fc69291505b5b80821115612fc6575f8155600101613072565b80821115612fc6575f6130988282612f3f565b50600101613085565b5b80821115612fc65780547fffffffffffffffffffffffffffff0000000000000000000000000000000000001681556001016130a2565b80821115612fc65780547fffffffffffffffffffffffffffffffffffffffffffffffffffffffff000000001681555f6131146001830182612f3f565b600282015f9055600382015f61312a9190612f3f565b613137600483015f612ed0565b506005016130d8565b5f60c08284031215613150575f5ffd5b50919050565b5f5f83601f840112613166575f5ffd5b50813567ffffffffffffffff81111561317d575f5ffd5b602083019150836020828501011115613194575f5ffd5b9250929050565b5f5f83601f8401126131ab575f5ffd5b50813567ffffffffffffffff8111156131c2575f5ffd5b6020830191508360208260051b8501011115613194575f5ffd5b5f5f5f5f5f5f5f5f60a0898b0312156131f3575f5ffd5b88359750602089013567ffffffffffffffff811115613210575f5ffd5b61321c8b828c01613140565b975050604089013567ffffffffffffffff811115613238575f5ffd5b6132448b828c01613156565b909750955050606089013567ffffffffffffffff811115613263575f5ffd5b61326f8b828c0161319b565b909550935050608089013567ffffffffffffffff81111561328e575f5ffd5b61329a8b828c0161319b565b999c989b5096995094979396929594505050565b5f5f604083850312156132bf575f5ffd5b82359150602083013573ffffffffffffffffffffffffffffffffffffffff811681146132e9575f5ffd5b809150509250929050565b5f5f60408385031215613305575f5ffd5b50508035926020909101359150565b5f81518084528060208401602086015e5f6020828601015260207fffffffffffffffffffffffffffffffffffffffffffffffffffffffffffffffe0601f83011685010191505092915050565b5f82825180855260208501945060208160051b830101602085015f5b838110156133cc577fffffffffffffffffffffffffffffffffffffffffffffffffffffffffffffffe08584030188526133b6838351613314565b602098890198909350919091019060010161337c565b50909695505050505050565b602081525f8251608060208401526133f360a0840182613314565b905060208401517fffffffffffffffffffffffffffffffffffffffffffffffffffffffffffffffe084830301604085015261342e8282613314565b91505060408401517fffffffffffffffffffffffffffffffffffffffffffffffffffffffffffffffe084830301606085015261346a8282613360565b91505060608401517fffffffffffffffffffffffffffffffffffffffffffffffffffffffffffffffe08483030160808501526134a68282613360565b95945050505050565b80357fffffffff00000000000000000000000000000000000000000000000000000000811681146134de575f5ffd5b919050565b7f4e487b71000000000000000000000000000000000000000000000000000000005f52604160045260245ffd5b60405160c0810167ffffffffffffffff81118282101715613533576135336134e3565b60405290565b604051601f82017fffffffffffffffffffffffffffffffffffffffffffffffffffffffffffffffe016810167ffffffffffffffff81118282101715613580576135806134e3565b604052919050565b5f67ffffffffffffffff8211156135a1576135a16134e3565b5060051b60200190565b8035600881106134de575f5ffd5b5f82601f8301126135c8575f5ffd5b81356135db6135d682613588565b613539565b8082825260208201915060208360051b8601019250858311156135fc575f5ffd5b602085015b8381101561362057613612816135ab565b835260209283019201613601565b5095945050505050565b5f5f5f5f6080858703121561363d575f5ffd5b8435935060208501359250613654604086016134af565b9150606085013567ffffffffffffffff81111561366f575f5ffd5b61367b878288016135b9565b91505092959194509250565b5f60208284031215613697575f5ffd5b5035919050565b7f4e487b71000000000000000000000000000000000000000000000000000000005f52602160045260245ffd5b60088110613700577f4e487b71000000000000000000000000000000000000000000000000000000005f52602160045260245ffd5b9052565b8051151582525f602082015161371d60208501826136cb565b50604082015115156040840152606082015161373c60608501826136cb565b50608082015160c0608085015261375660c0850182613314565b60a093840151949093019390935250919050565b5f602082016020835280845180835260408501915060408160051b8601019250602086015f5b828110156137df577fffffffffffffffffffffffffffffffffffffffffffffffffffffffffffffffc08786030184526137ca858351613704565b94506020938401939190910190600101613790565b50929695505050505050565b602081525f6137fd6020830184613704565b9392505050565b5f5f5f5f60608587031215613817575f5ffd5b84359350602085013567ffffffffffffffff811115613834575f5ffd5b61384087828801613140565b935050604085013567ffffffffffffffff81111561385c575f5ffd5b61386887828801613156565b95989497509550505050565b5f82601f830112613883575f5ffd5b8135602083015f5f67ffffffffffffffff8411156138a3576138a36134e3565b50601f83017fffffffffffffffffffffffffffffffffffffffffffffffffffffffffffffffe0166020016138d681613539565b9150508281528583830111156138ea575f5ffd5b828260208301375f92810160200192909252509392505050565b5f5f5f60608486031215613916575f5ffd5b8335925060208401359150604084013567ffffffffffffffff81111561393a575f5ffd5b61394686828701613874565b9150509250925092565b602081525f6137fd6020830184613314565b5f5f5f5f5f60a08688031215613976575f5ffd5b85359450613986602087016134af565b9350604086013567ffffffffffffffff8111156139a1575f5ffd5b6139ad888289016135b9565b935050606086013567ffffffffffffffff8111156139c9575f5ffd5b6139d588828901613874565b925050608086013567ffffffffffffffff8111156139f1575f5ffd5b6139fd88828901613874565b9150509295509295909350565b8051151582526020808201517fffffffff000000000000000000000000000000000000000000000000000000001681840152604080830151606091850182905280519185018290525f920190829060808601905b8083101561362057613a718285516136cb565b602082019150602084019350600183019250613a5e565b602081525f6137fd6020830184613a0a565b602081525f825160606020840152613ab56080840182613314565b90507fffffffff00000000000000000000000000000000000000000000000000000000602085015116604084015260408401517fffffffffffffffffffffffffffffffffffffffffffffffffffffffffffffffe08483030160608501526134a68282613314565b5f602082016020835280845180835260408501915060408160051b8601019250602086015f5b828110156137df577fffffffffffffffffffffffffffffffffffffffffffffffffffffffffffffffc0878603018452613b7c858351613a0a565b94506020938401939190910190600101613b42565b5f5f5f5f5f5f5f60a0888a031215613ba7575f5ffd5b8735965060208801359550604088013567ffffffffffffffff811115613bcb575f5ffd5b613bd78a828b01613140565b955050606088013567ffffffffffffffff811115613bf3575f5ffd5b613bff8a828b01613156565b909550935050608088013567ffffffffffffffff811115613c1e575f5ffd5b613c2a8a828b01613156565b989b979a50959850939692959293505050565b5f5f5f60608486031215613c4f575f5ffd5b8335925060208401359150604084013567ffffffffffffffff811115613c73575f5ffd5b61394686828701613140565b7f4e487b71000000000000000000000000000000000000000000000000000000005f52603260045260245ffd5b5f5f83357fffffffffffffffffffffffffffffffffffffffffffffffffffffffffffffffe1843603018112613cdf575f5ffd5b83018035915067ffffffffffffffff821115613cf9575f5ffd5b602001915036819003821315613194575f5ffd5b600181811c90821680613d2157607f821691505b602082108103613150577f4e487b71000000000000000000000000000000000000000000000000000000005f52602260045260245ffd5b7f4e487b71000000000000000000000000000000000000000000000000000000005f52601160045260245ffd5b5f7fffffffffffffffffffffffffffffffffffffffffffffffffffffffffffffffff8203613db557613db5613d58565b5060010190565b5f82518060208501845e5f920191825250919050565b803580151581146134de575f5ffd5b5f60c08236031215613df1575f5ffd5b613df9613510565b613e0283613dd2565b8152613e10602084016135ab565b6020820152613e2160408401613dd2565b6040820152613e32606084016135ab565b6060820152608083013567ffffffffffffffff811115613e50575f5ffd5b613e5c36828601613874565b60808301525060a092830135928101929092525090565b5f60208284031215613e83575f5ffd5b6137fd826135ab565b5f60208284031215613e9c575f5ffd5b6137fd82613dd2565b8181038181111561087657610876613d58565b818382375f9101908152919050565b5f613ed46135d684613588565b8381526020810190600585901b840136811115613eef575f5ffd5b845b8181101561111757803567ffffffffffffffff811115613f0f575f5ffd5b613f1b36828901613874565b85525060209384019301613ef1565b601f821115613f6e57805f5260205f20601f840160051c81016020851015613f4f5750805b601f840160051c820191505b81811015611e09575f8155600101613f5b565b505050565b815167ffffffffffffffff811115613f8d57613f8d6134e3565b613fa181613f9b8454613d0d565b84613f2a565b6020601f821160018114613ff2575f8315613fbc5750848201515b7fffffffffffffffffffffffffffffffffffffffffffffffffffffffffffffffff600385901b1c1916600184901b178455611e09565b5f848152602081207fffffffffffffffffffffffffffffffffffffffffffffffffffffffffffffffe08516915b8281101561403f578785015182556020948501946001909201910161401f565b508482101561407b57868401517fffffffffffffffffffffffffffffffffffffffffffffffffffffffffffffffff600387901b60f8161c191681555b50505050600190811b01905550565b67ffffffffffffffff8311156140a2576140a26134e3565b6140b6836140b08354613d0d565b83613f2a565b5f601f841160018114614106575f85156140d05750838201355b7fffffffffffffffffffffffffffffffffffffffffffffffffffffffffffffffff600387901b1c1916600186901b178355611e09565b5f838152602081207fffffffffffffffffffffffffffffffffffffffffffffffffffffffffffffffe08716915b828110156141535786850135825560209485019460019092019101614133565b508682101561418e577fffffffffffffffffffffffffffffffffffffffffffffffffffffffffffffffff60f88860031b161c19848701351681555b505060018560011b018355505050505056fe547261636b6572206b65797320616e642076616c756573206d7573742068617665207468652073616d65206c656e6774684e657720706172616d65746572207479706573206d757374206265206f662067726561746572206f7220657175616c206c656e67746820746f20746865206f726967696e616c44656c6574652063616c6c696e672066756e6374696f6e206265666f7265207570646174696e6720746f2061206e6577206f6e654e657720706172616d65746572207479706573206d757374206265206f66207468652073616d65207479706520617320746865206f726967696e616ca2646970667358221220a530d2d90237f03c488059f1263416446674ffa7ae9f414c2113a2e490b4242d64736f6c634300081c0033","linkReferences":{}},"methodIdentifiers":{"addClosedPolicySubscriber(uint256,address)":"2711fe6b","createCallingFunction(uint256,bytes4,uint8[],string,string)":"b0955878","createTracker(uint256,(bool,uint8,bool,uint8,bytes,uint256),string)":"72cb754c","createTracker(uint256,(bool,uint8,bool,uint8,bytes,uint256),string,bytes[],bytes[])":"0b5f5723","deleteCallingFunction(uint256,uint256)":"3fafdf6e","deleteTracker(uint256,uint256)":"a82c9e07","getAllCallingFunctions(uint256)":"f3e7dfc3","getAllTrackers(uint256)":"56f3b05f","getCallingFunction(uint256,uint256)":"bfc85236","getCallingFunctionMetadata(uint256,uint256)":"eeeb6047","getMappedTrackerValue(uint256,uint256,bytes)":"9f9fa719","getTracker(uint256,uint256)":"72a340d7","getTrackerMetadata(uint256,uint256)":"3bf07314","isClosedPolicySubscriber(uint256,address)":"4c957ad9","removeClosedPolicySubscriber(uint256,address)":"7374c994","updateCallingFunction(uint256,uint256,bytes4,uint8[])":"56f39ae3","updateTracker(uint256,uint256,(bool,uint8,bool,uint8,bytes,uint256))":"febf8f92","updateTracker(uint256,uint256,(bool,uint8,bool,uint8,bytes,uint256),bytes,bytes)":"f479c994"},"id":90}