{"abi":[{"type":"function","name":"applyPolicy","inputs":[{"name":"contractAddress","type":"address","internalType":"address"},{"name":"policyIds","type":"uint256[]","internalType":"uint256[]"}],"outputs":[],"stateMutability":"nonpayable"},{"type":"function","name":"cementPolicy","inputs":[{"name":"policyId","type":"uint256","internalType":"uint256"}],"outputs":[],"stateMutability":"nonpayable"},{"type":"function","name":"closePolicy","inputs":[{"name":"policyId","type":"uint256","internalType":"uint256"}],"outputs":[],"stateMutability":"nonpayable"},{"type":"function","name":"createPolicy","inputs":[{"name":"policyType","type":"uint8","internalType":"enum PolicyType"},{"name":"policyName","type":"string","internalType":"string"},{"name":"policyDescription","type":"string","internalType":"string"}],"outputs":[{"name":"","type":"uint256","internalType":"uint256"}],"stateMutability":"nonpayable"},{"type":"function","name":"deletePolicy","inputs":[{"name":"policyId","type":"uint256","internalType":"uint256"}],"outputs":[],"stateMutability":"nonpayable"},{"type":"function","name":"disablePolicy","inputs":[{"name":"policyId","type":"uint256","internalType":"uint256"}],"outputs":[],"stateMutability":"nonpayable"},{"type":"function","name":"getAppliedPolicyIds","inputs":[{"name":"contractAddress","type":"address","internalType":"address"}],"outputs":[{"name":"","type":"uint256[]","internalType":"uint256[]"}],"stateMutability":"view"},{"type":"function","name":"getPolicy","inputs":[{"name":"policyId","type":"uint256","internalType":"uint256"}],"outputs":[{"name":"callingFunctions","type":"bytes4[]","internalType":"bytes4[]"},{"name":"callingFunctionIds","type":"uint256[]","internalType":"uint256[]"},{"name":"ruleIds","type":"uint256[][]","internalType":"uint256[][]"}],"stateMutability":"view"},{"type":"function","name":"getPolicyMetadata","inputs":[{"name":"_policyId","type":"uint256","internalType":"uint256"}],"outputs":[{"name":"","type":"tuple","internalType":"struct PolicyMetadata","components":[{"name":"policyName","type":"string","internalType":"string"},{"name":"policyDescription","type":"string","internalType":"string"}]}],"stateMutability":"view"},{"type":"function","name":"isCementedPolicy","inputs":[{"name":"_policyId","type":"uint256","internalType":"uint256"}],"outputs":[{"name":"","type":"bool","internalType":"bool"}],"stateMutability":"view"},{"type":"function","name":"isClosedPolicy","inputs":[{"name":"policyId","type":"uint256","internalType":"uint256"}],"outputs":[{"name":"","type":"bool","internalType":"bool"}],"stateMutability":"view"},{"type":"function","name":"isDisabledPolicy","inputs":[{"name":"policyId","type":"uint256","internalType":"uint256"}],"outputs":[{"name":"","type":"bool","internalType":"bool"}],"stateMutability":"view"},{"type":"function","name":"openPolicy","inputs":[{"name":"policyId","type":"uint256","internalType":"uint256"}],"outputs":[],"stateMutability":"nonpayable"},{"type":"function","name":"unapplyPolicy","inputs":[{"name":"_contractAddress","type":"address","internalType":"address"},{"name":"_policyIds","type":"uint256[]","internalType":"uint256[]"}],"outputs":[],"stateMutability":"nonpayable"},{"type":"function","name":"updatePolicy","inputs":[{"name":"policyId","type":"uint256","internalType":"uint256"},{"name":"callingFunctions","type":"bytes4[]","internalType":"bytes4[]"},{"name":"callingFunctionIds","type":"uint256[]","internalType":"uint256[]"},{"name":"ruleIds","type":"uint256[][]","internalType":"uint256[][]"},{"name":"policyType","type":"uint8","internalType":"enum PolicyType"},{"name":"policyName","type":"string","internalType":"string"},{"name":"policyDescription","type":"string","internalType":"string"}],"outputs":[{"name":"","type":"uint256","internalType":"uint256"}],"stateMutability":"nonpayable"},{"type":"event","name":"ForeignCallDeleted","inputs":[{"name":"policyId","type":"uint256","indexed":true,"internalType":"uint256"},{"name":"foreignCallId","type":"uint256","indexed":true,"internalType":"uint256"}],"anonymous":false},{"type":"event","name":"PolicyApplied","inputs":[{"name":"policyIds","type":"uint256[]","indexed":false,"internalType":"uint256[]"},{"name":"callingContract","type":"address","indexed":true,"internalType":"address"}],"anonymous":false},{"type":"event","name":"PolicyCemented","inputs":[{"name":"policyId","type":"uint256","indexed":true,"internalType":"uint256"}],"anonymous":false},{"type":"event","name":"PolicyClosed","inputs":[{"name":"policyId","type":"uint256","indexed":true,"internalType":"uint256"}],"anonymous":false},{"type":"event","name":"PolicyCreated","inputs":[{"name":"policyId","type":"uint256","indexed":true,"internalType":"uint256"}],"anonymous":false},{"type":"event","name":"PolicyDeleted","inputs":[{"name":"policyId","type":"uint256","indexed":true,"internalType":"uint256"}],"anonymous":false},{"type":"event","name":"PolicyDisabled","inputs":[{"name":"policyId","type":"uint256","indexed":true,"internalType":"uint256"}],"anonymous":false},{"type":"event","name":"PolicyOpened","inputs":[{"name":"policyId","type":"uint256","indexed":true,"internalType":"uint256"}],"anonymous":false},{"type":"event","name":"PolicyUnapplied","inputs":[{"name":"policyIds","type":"uint256[]","indexed":false,"internalType":"uint256[]"},{"name":"callingContract","type":"address","indexed":true,"internalType":"address"}],"anonymous":false},{"type":"event","name":"PolicyUpdated","inputs":[{"name":"policyId","type":"uint256","indexed":true,"internalType":"uint256"}],"anonymous":false},{"type":"event","name":"TrackerDeleted","inputs":[{"name":"policyId","type":"uint256","indexed":true,"internalType":"uint256"},{"name":"trackerId","type":"uint256","indexed":true,"internalType":"uint256"}],"anonymous":false}],"bytecode":{"object":"0x6080604052348015600e575f5ffd5b506144828061001c5f395ff3fe608060405234801561000f575f5ffd5b50600436106100f0575f3560e01c8063798d6c7b11610093578063d46a37c411610063578063d46a37c41461020a578063e37490231461021d578063f7b570f61461023d578063fed27c8f14610250575f5ffd5b8063798d6c7b146101b15780638cf7a293146101c45780639228303f146101e457806395953fba146101f7575f5ffd5b806330ab6a0a116100ce57806330ab6a0a146101555780634f10689b146101685780635239f98c1461018b578063696ef7031461019e575f5ffd5b80632b07fce3146100f45780632b0e44401461011f5780632e9ec08b14610134575b5f5ffd5b610107610102366004613ac9565b610263565b60405161011693929190613b1a565b60405180910390f35b61013261012d366004613ac9565b610723565b005b610147610142366004613ca7565b6108ba565b604051908152602001610116565b610132610163366004613ac9565b610946565b61017b610176366004613ac9565b610a5e565b6040519015158152602001610116565b610132610199366004613deb565b610a99565b61017b6101ac366004613ac9565b61101d565b6101326101bf366004613ac9565b611025565b6101d76101d2366004613ac9565b61113d565b6040516101169190613e86565b6101326101f2366004613deb565b611297565b610147610205366004613ee5565b6117b4565b610132610218366004613ac9565b611970565b61023061022b366004613f65565b611acd565b6040516101169190613f85565b61017b61024b366004613ac9565b611b4c565b61013261025e366004613ac9565b611b73565b60608060605f610271612212565b5f8681526001918201602052604090206003810154910191501561037757600281015467ffffffffffffffff8111156102ac576102ac613f97565b6040519080825280602002602001820160405280156102d5578160200160208202803683370190505b50600282015490945067ffffffffffffffff8111156102f6576102f6613f97565b60405190808252806020026020018201604052801561031f578160200160208202803683370190505b50600282015490935067ffffffffffffffff81111561034057610340613f97565b60405190808252806020026020018201604052801561037357816020015b606081526020019060019003908161035e5790505b5091505b600281015467ffffffffffffffff81111561039457610394613f97565b6040519080825280602002602001820160405280156103c757816020015b60608152602001906001900390816103b25790505b5091505f5b600282015481101561071a578160020181815481106103ed576103ed613fc4565b905f5260205f2090600891828204019190066004029054906101000a900460e01b85828151811061042057610420613fc4565b7fffffffff000000000000000000000000000000000000000000000000000000009092166020928302919091019091015260028201805483915f918490811061046b5761046b613fc4565b905f5260205f2090600891828204019190066004029054906101000a900460e01b7bffffffffffffffffffffffffffffffffffffffffffffffffffffffff19167bffffffffffffffffffffffffffffffffffffffffffffffffffffffff191681526020019081526020015f20548482815181106104ea576104ea613fc4565b60209081029190910101525f5b826001015f84600201848154811061051157610511613fc4565b5f918252602080832060088304015460079092166004026101000a90910460e01b7fffffffff0000000000000000000000000000000000000000000000000000000016835282019290925260400190205481101561071157826001015f84600201848154811061058357610583613fc4565b5f918252602080832060088304015460079092166004026101000a90910460e01b7fffffffff0000000000000000000000000000000000000000000000000000000016835282019290925260400190205467ffffffffffffffff8111156105ec576105ec613f97565b604051908082528060200260200182016040528015610615578160200160208202803683370190505b5084838151811061062857610628613fc4565b6020026020010181905250826001015f84600201848154811061064d5761064d613fc4565b905f5260205f2090600891828204019190066004029054906101000a900460e01b7bffffffffffffffffffffffffffffffffffffffffffffffffffffffff19167bffffffffffffffffffffffffffffffffffffffffffffffffffffffff191681526020019081526020015f2081815481106106ca576106ca613fc4565b905f5260205f2001548483815181106106e5576106e5613fc4565b602002602001015182815181106106fe576106fe613fc4565b60209081029190910101526001016104f7565b506001016103cc565b50509193909250565b60405160248101829052336044820181905282915f9081906107e0907f901cee1100000000000000000000000000000000000000000000000000000000906064015b604080517fffffffffffffffffffffffffffffffffffffffffffffffffffffffffffffffe08184030181529190526020810180517bffffffffffffffffffffffffffffffffffffffffffffffffffffffff167f901cee1100000000000000000000000000000000000000000000000000000000179052612245565b915091505f82156108755760048251106107ff57506020810151610802565b505f5b8061087557604080518082018252601881527f4e6f7420417574686f72697a656420546f20506f6c6963790000000000000000602082015290517f08c379a000000000000000000000000000000000000000000000000000000000815261086c9190600401613ff1565b60405180910390fd5b61087e86612306565b610888865f612398565b60405186907f524fcc256039a8ee7fd3d614ec713bd4a9159d02d7261ae80028fc15b45c4848905f90a2505050505050565b5f6108c58d336124bb565b6108ce8d612306565b8a8914610921576040518060600160405280602e81526020016143e6602e91396040517f08c379a000000000000000000000000000000000000000000000000000000000815260040161086c9190613ff1565b6109358d8d8d8d8d8d8d8d8d8d8d8d61259f565b9d9c50505050505050505050505050565b60405160248101829052336044820181905282915f90819061098c907f901cee110000000000000000000000000000000000000000000000000000000090606401610765565b915091505f8215610a185760048251106109ab575060208101516109ae565b505f5b80610a1857604080518082018252601881527f4e6f7420417574686f72697a656420546f20506f6c6963790000000000000000602082015290517f08c379a000000000000000000000000000000000000000000000000000000000815261086c9190600401613ff1565b610a2186612306565b610a2c866002612398565b60405186907faed86353bce2e7a37fbb57488f79d0a22f46359b908581f14d7106e2b67fd0e1905f90a2505050505050565b5f805b610a69612212565b5f848152600191909101602052604090206004015460ff166002811115610a9257610a92614003565b1492915050565b60405173ffffffffffffffffffffffffffffffffffffffff84166024820152336044820181905284915f908190610b6b907f70aca09200000000000000000000000000000000000000000000000000000000906064015b604080517fffffffffffffffffffffffffffffffffffffffffffffffffffffffffffffffe08184030181529190526020810180517bffffffffffffffffffffffffffffffffffffffffffffffffffffffff167f70aca09200000000000000000000000000000000000000000000000000000000179052612245565b915091505f8215610bf7576004825110610b8a57506020810151610b8d565b505f5b80610bf757604080518082018252601a81527f4e6f742043616c6c696e6720436f6e74726163742041646d696e000000000000602082015290517f08c379a000000000000000000000000000000000000000000000000000000000815261086c9190600401613ff1565b73ffffffffffffffffffffffffffffffffffffffff8816610c7757604080518082018252601c81527f5a65726f20416464726573732043616e6e6f742042652041646d696e00000000602082015290517f08c379a000000000000000000000000000000000000000000000000000000000815261086c9190600401613ff1565b5f610c8061281b565b73ffffffffffffffffffffffffffffffffffffffff8a165f9081526020828152604080832080548251818502810185019093528083529495509293909291830182828015610ceb57602002820191905f5260205f20905b815481526020019060010190808311610cd7575b5050505073ffffffffffffffffffffffffffffffffffffffff8c165f908152602085905260408120929350610d2192915061397f565b5f805b8251811015610de4575f9150815b8a811015610d7f578b8b82818110610d4c57610d4c613fc4565b90506020020135848381518110610d6557610d65613fc4565b602002602001015103610d7757600192505b600101610d32565b5081610ddc5773ffffffffffffffffffffffffffffffffffffffff8c165f9081526020859052604090208351849083908110610dbd57610dbd613fc4565b60209081029190910181015182546001810184555f9384529190922001555b600101610d24565b505f836001015f8c8c5f818110610dfd57610dfd613fc4565b9050602002013581526020019081526020015f20805480602002602001604051908101604052809291908181526020018280548015610e7057602002820191905f5260205f20905b815473ffffffffffffffffffffffffffffffffffffffff168152600190910190602001808311610e45575b509394505f93505050505b8a811015610fbe57846001015f8d8d84818110610e9a57610e9a613fc4565b9050602002013581526020019081526020015f205f610eb9919061397f565b5f5b8251811015610fb5578d73ffffffffffffffffffffffffffffffffffffffff16838281518110610eed57610eed613fc4565b602002602001015173ffffffffffffffffffffffffffffffffffffffff1614610fad57856001015f8e8e85818110610f2757610f27613fc4565b9050602002013581526020019081526020015f20838281518110610f4d57610f4d613fc4565b60209081029190910181015182546001810184555f938452919092200180547fffffffffffffffffffffffff00000000000000000000000000000000000000001673ffffffffffffffffffffffffffffffffffffffff9092169190911790555b600101610ebb565b50600101610e7b565b508b73ffffffffffffffffffffffffffffffffffffffff167fcca48239a70eb9b3cebd3ea981ec0ca547a1eac614fb9ef7c80422484582c10b8c8c604051611007929190614030565b60405180910390a2505050505050505050505050565b5f6002610a61565b60405160248101829052336044820181905282915f90819061106b907f901cee110000000000000000000000000000000000000000000000000000000090606401610765565b915091505f82156110f757600482511061108a5750602081015161108d565b505f5b806110f757604080518082018252601881527f4e6f7420417574686f72697a656420546f20506f6c6963790000000000000000602082015290517f08c379a000000000000000000000000000000000000000000000000000000000815261086c9190600401613ff1565b61110086612306565b61110b866001612398565b60405186907fe9a53e8109d105e8132e423c8a8489a6c054acbfff3373248be4938a857143d9905f90a2505050505050565b6040805180820190915260608082526020820152611159612848565b5f838152602091909152604090819020815180830190925280548290829061118090614080565b80601f01602080910402602001604051908101604052809291908181526020018280546111ac90614080565b80156111f75780601f106111ce576101008083540402835291602001916111f7565b820191905f5260205f20905b8154815290600101906020018083116111da57829003601f168201915b5050505050815260200160018201805461121090614080565b80601f016020809104026020016040519081016040528092919081815260200182805461123c90614080565b80156112875780601f1061125e57610100808354040283529160200191611287565b820191905f5260205f20905b81548152906001019060200180831161126a57829003601f168201915b5050505050815250509050919050565b60405173ffffffffffffffffffffffffffffffffffffffff84166024820152336044820181905284915f9081906112f2907f70aca0920000000000000000000000000000000000000000000000000000000090606401610af0565b915091505f821561137e57600482511061131157506020810151611314565b505f5b8061137e57604080518082018252601a81527f4e6f742043616c6c696e6720436f6e74726163742041646d696e000000000000602082015290517f08c379a000000000000000000000000000000000000000000000000000000000815261086c9190600401613ff1565b73ffffffffffffffffffffffffffffffffffffffff88166113fe57604080518082018252601c81527f5a65726f20416464726573732043616e6e6f742042652041646d696e00000000602082015290517f08c379a000000000000000000000000000000000000000000000000000000000815261086c9190600401613ff1565b5f61140761281b565b905061271088889050106040518060600160405280602a8152602001614373602a913990611462576040517f08c379a000000000000000000000000000000000000000000000000000000000815260040161086c9190613ff1565b505f5b878110156115d5575f611476612212565b6001015f8b8b8581811061148c5761148c613fc4565b9050602002013581526020019081526020015f209050805f015f9054906101000a900460ff166040518060400160405280601581526020017f506f6c69637920646f6573206e6f74206578697374000000000000000000000081525090611520576040517f08c379a000000000000000000000000000000000000000000000000000000000815260040161086c9190613ff1565b506115428a8a8481811061153657611536613fc4565b90506020020135612306565b5f600482015460ff16600281111561155c5761155c614003565b036115cc57335f90815260058201602090815260409182902054825160608101909352603980845260ff909116929161441490830139906115ca576040517f08c379a000000000000000000000000000000000000000000000000000000000815260040161086c9190613ff1565b505b50600101611465565b508667ffffffffffffffff8111156115ef576115ef613f97565b604051908082528060200260200182016040528015611618578160200160208202803683370190505b5073ffffffffffffffffffffffffffffffffffffffff8a165f908152602083815260409091208251611650939192919091019061399a565b505f5b878110156117585788888281811061166d5761166d613fc4565b90506020020135825f015f8c73ffffffffffffffffffffffffffffffffffffffff1673ffffffffffffffffffffffffffffffffffffffff1681526020019081526020015f2082815481106116c3576116c3613fc4565b905f5260205f200181905550816001015f8a8a848181106116e6576116e6613fc4565b60209081029290920135835250818101929092526040015f9081208054600180820183559183529290912090910180547fffffffffffffffffffffffff00000000000000000000000000000000000000001673ffffffffffffffffffffffffffffffffffffffff8d1617905501611653565b508873ffffffffffffffffffffffffffffffffffffffff167f12152a04e6faa55f635c036c0cb901dff565d19cd5703f5076adda8206cdb7c689896040516117a1929190614030565b60405180910390a2505050505050505050565b5f60038660028111156117c9576117c9614003565b60ff16106040518060400160405280601581526020017f506f6c6963795479706520697320696e76616c696400000000000000000000008152509061183b576040517f08c379a000000000000000000000000000000000000000000000000000000000815260040161086c9190613ff1565b505f611845612212565b805460019081018083555f8181528284016020526040902080547fffffffffffffffffffffffffffffffffffffffffffffffffffffffffffffff00908116841782556004909101805494955091938b939116908360028111156118aa576118aa614003565b02179055506040517f1929cb64000000000000000000000000000000000000000000000000000000008152600481018290523360248201523090631929cb64906044016020604051808303815f875af1158015611909573d5f5f3e3d5ffd5b505050506040513d601f19601f8201168201806040525081019061192d91906140d1565b5061193b8188888888612875565b60405181907fde5ef345cecbaaffdfbe2454b7947aa14037bac2f45e4fc98976f8bffea38623905f90a2979650505050505050565b60405160248101829052336044820181905282915f9081906119b6907f901cee110000000000000000000000000000000000000000000000000000000090606401610765565b915091505f8215611a425760048251106119d5575060208101516119d8565b505f5b80611a4257604080518082018252601881527f4e6f7420417574686f72697a656420546f20506f6c6963790000000000000000602082015290517f08c379a000000000000000000000000000000000000000000000000000000000815261086c9190600401613ff1565b611a4b86612306565b6001611a55612212565b5f88815260019190910160205260408082206004018054931515610100027fffffffffffffffffffffffffffffffffffffffffffffffffffffffffffff00ff90941693909317909255905187917fbaf00585ebbdf781652a166975bf4579319799593ec61cfadd690ea9833c3fc891a2505050505050565b6060611ad761281b565b73ffffffffffffffffffffffffffffffffffffffff83165f908152602091825260409081902080548251818502810185019093528083529192909190830182828015611b4057602002820191905f5260205f20905b815481526020019060010190808311611b2c575b50505050509050919050565b5f611b55612212565b5f928352600101602052506040902060040154610100900460ff1690565b60405160248101829052336044820181905282915f908190611bb9907f901cee110000000000000000000000000000000000000000000000000000000090606401610765565b915091505f8215611c45576004825110611bd857506020810151611bdb565b505f5b80611c4557604080518082018252601881527f4e6f7420417574686f72697a656420546f20506f6c6963790000000000000000602082015290517f08c379a000000000000000000000000000000000000000000000000000000000815261086c9190600401613ff1565b611c4e86612306565b5f611c57612212565b5f88815260019182016020908152604080832080547fffffffffffffffffffffffffffffffffffffffffffffffffffffffffffffff00168155600381018054835181860281018601909452808452919650948601949192830182828015611d1c57602002820191905f5260205f20905f905b82829054906101000a900460e01b7bffffffffffffffffffffffffffffffffffffffffffffffffffffffff191681526020019060040190602082600301049283019260010382029150808411611cc95790505b509394505f93505050505b8151811015611ec6575f836001015f848481518110611d4857611d48613fc4565b60200260200101517bffffffffffffffffffffffffffffffffffffffffffffffffffffffff19167bffffffffffffffffffffffffffffffffffffffffffffffffffffffff191681526020019081526020015f20805480602002602001604051908101604052809291908181526020018280548015611de357602002820191905f5260205f20905b815481526020019060010190808311611dcf575b509394505f93505050505b8151811015611ebc57611eb263a31c8ebb60e01b8d848481518110611e1557611e15613fc4565b6020026020010151604051602401611e37929190918252602082015260400190565b604080517fffffffffffffffffffffffffffffffffffffffffffffffffffffffffffffffe08184030181529190526020810180517bffffffffffffffffffffffffffffffffffffffffffffffffffffffff167fa31c8ebb00000000000000000000000000000000000000000000000000000000179052612245565b5050600101611dee565b5050600101611d27565b505f611ed06128be565b5f8b8152602091909152604081205491505b818111611fd657611ef16128be565b5f8c81526001919091016020908152604080832084845290915290205460ff1615611fc457611f1e6128be565b5f8c8152600191820160209081526040808320858452909152812080547fffffffffffff0000000000000000000000000000000000000000000000000000168155918201819055611f7260028301826139e3565b611f7f600383015f613a05565b611f8c600483015f613a05565b600582015f90555050808b7f19d0bd0cc4d63f9108c93b0abfd7408498ecbc73713f6bb3a2862d9b9d1983d860405160405180910390a35b80611fce81614115565b915050611ee2565b505f611fe06128eb565b5f8c81526020829052604090205490915060015b8181116120bd575f8d8152600184016020908152604080832084845290915290205460ff16156120ab576120266128eb565b5f8e8152600191820160209081526040808320858452909152812080547fffffffffffffffffffffffffffffffffffffffffffffffffffffffff000000001681559161207490830182613a23565b600282015f90555050808d7ed9d817df2d853a886f2cbe7a671a676890264711abbb9d2c3ee79fb1bb653a60405160405180910390a35b806120b581614115565b915050611ff4565b505f5b60038701548110156121d95760038701805460018901915f91849081106120e9576120e9613fc4565b905f5260205f2090600891828204019190066004029054906101000a900460e01b7bffffffffffffffffffffffffffffffffffffffffffffffffffffffff19167bffffffffffffffffffffffffffffffffffffffffffffffffffffffff191681526020019081526020015f205f9055866001016001015f88600101600201838154811061217857612178613fc4565b5f918252602080832060088304015460079092166004026101000a90910460e01b7fffffffff0000000000000000000000000000000000000000000000000000000016835282019290925260400181206121d19161397f565b6001016120c0565b506040518c907f433ab09ab993382af577c4a70f77dcc7cf149b5b52eb40d19b869664bfb5496d905f90a2505050505050505050505050565b5f8061223f60017ff9dbd639dd2ea165d77dd4c51dec420100d51ceacf023b1c40faa045ba8f9a6561414c565b92915050565b5f60605f612251612918565b7fffffffff0000000000000000000000000000000000000000000000000000000086165f908152602082905260409081902054905191925073ffffffffffffffffffffffffffffffffffffffff169081906122ad90879061415f565b5f60405180830381855af49150503d805f81146122e5576040519150601f19603f3d011682016040523d82523d5f602084013e6122ea565b606091505b509094509250836122fd57825160208401fd5b50509250929050565b61230e612212565b5f8281526001919091016020526040902060040154610100900460ff161561239557604080518082018252601f81527f4e6f7420616c6c6f77656420666f722063656d656e74656420706f6c69637900602082015290517f08c379a000000000000000000000000000000000000000000000000000000000815261086c9190600401613ff1565b50565b5f6123a1612212565b5f84815260019182016020526040812090910191508260028111156123c8576123c8614003565b03612472575f6123d661281b565b90505f5b5f858152600183016020526040902054811015612457575f85815260018301602052604081208054849291908490811061241657612416613fc4565b5f91825260208083209091015473ffffffffffffffffffffffffffffffffffffffff168352820192909252604001812061244f9161397f565b6001016123da565b505f84815260018201602052604081206124709161397f565b505b6003810180548391907fffffffffffffffffffffffffffffffffffffffffffffffffffffffffffffff001660018360028111156124b1576124b1614003565b0217905550505050565b6040516024810183905273ffffffffffffffffffffffffffffffffffffffff821660448201525f908190612513907f901cee110000000000000000000000000000000000000000000000000000000090606401610765565b915091505f821561259857600482511061252e575060208101515b8061259857604080518082018252601881527f4e6f7420417574686f72697a656420546f20506f6c6963790000000000000000602082015290517f08c379a000000000000000000000000000000000000000000000000000000000815261086c9190600401613ff1565b5050505050565b5f60038660028111156125b4576125b4614003565b60ff16106040518060400160405280601581526020017f506f6c6963795479706520697320696e76616c6964000000000000000000000081525090612626576040517f08c379a000000000000000000000000000000000000000000000000000000000815260040161086c9190613ff1565b5060408051808201909152601381527f506f6c696379496420697320696e76616c69640000000000000000000000000060208201528d612693576040517f08c379a000000000000000000000000000000000000000000000000000000000815260040161086c9190613ff1565b505f61269d612212565b5f8f81526001918201602052604090200190506126ba8e88612398565b6126c78e87878787612875565b6126d4600282015f613a5a565b60408051808201909152601881527f4d61782072756c657320636f756e7420726561636865642e000000000000000060208201526127108910612744576040517f08c379a000000000000000000000000000000000000000000000000000000000815260040161086c9190613ff1565b5060408051808201909152601e81527f4d61782063616c6c696e672066756e6374696f6e7320726561636865642e000060208201526127108d106127b5576040517f08c379a000000000000000000000000000000000000000000000000000000000815260040161086c9190613ff1565b5087156127d1576127cc8e8e8e8e8e8e8e88612945565b6127df565b6127df8e8e8e8e8e86612b97565b6040518e907f912ce63c438aca9d2f50d1d12de5b42efbcc84ce223b08122e8c2e3c000ca1f8905f90a2509b9c9b505050505050505050505050565b5f8061223f60017f1544053a94493269e0aa160e5aa5b54d19ee6492c78b8bd3af283b912c78cdeb61414c565b5f8061223f60017f63f3d299b5e5eaa88e38f63d9fdd88083599db769ec9e20669cb4ec11339fadf61414c565b5f61287e612848565b5f8781526020829052604090209091506128998587836141b9565b505f8681526020829052604090206001016128b58385836141b9565b50505050505050565b5f8061223f60017f1f3305601ed940efccf797d76856e5fe70659a8a6905d64c9f236321df91e71861414c565b5f8061223f60017f438102ff677bc3f21830c58117a05d6b953b31e3ea339da3f17957cd3941a69061414c565b5f8061223f60017fbe498a3b14fd79a48c3c9af86ff14271ed497d09071013334028d28e7791db2061414c565b81861480159061295457508515155b156129be57604080518082018252601981527f496e76616c69642072756c65206172726179206c656e67746800000000000000602082015290517f08c379a000000000000000000000000000000000000000000000000000000000815261086c9190600401613ff1565b5f5b86811015612b8c576129ea898787848181106129de576129de613fc4565b90506020020135612d06565b612a5357604080518082018252601181527f496e76616c6964205369676e6174757265000000000000000000000000000000602082015290517f08c379a000000000000000000000000000000000000000000000000000000000815261086c9190600401613ff1565b858582818110612a6557612a65613fc4565b90506020020135825f015f8a8a85818110612a8257612a82613fc4565b9050602002016020810190612a9791906142cf565b7fffffffff0000000000000000000000000000000000000000000000000000000016815260208101919091526040015f205560028201888883818110612adf57612adf613fc4565b9050602002016020810190612af491906142cf565b81546001810183555f92835260209092206008830401805463ffffffff60079094166004026101000a938402191660e09290921c92909202179055612b8489898984818110612b4557612b45613fc4565b9050602002016020810190612b5a91906142cf565b868685818110612b6c57612b6c613fc4565b9050602002810190612b7e919061430e565b86612d30565b6001016129c0565b505050505050505050565b5f5b848110156128b557612bb7878585848181106129de576129de613fc4565b612c2057604080518082018252601181527f496e76616c6964205369676e6174757265000000000000000000000000000000602082015290517f08c379a000000000000000000000000000000000000000000000000000000000815261086c9190600401613ff1565b838382818110612c3257612c32613fc4565b90506020020135825f015f888885818110612c4f57612c4f613fc4565b9050602002016020810190612c6491906142cf565b7fffffffff0000000000000000000000000000000000000000000000000000000016815260208101919091526040015f205560028201868683818110612cac57612cac613fc4565b9050602002016020810190612cc191906142cf565b8154600180820184555f93845260209093206008820401805463ffffffff60079093166004026101000a928302191660e09390931c9190910291909117905501612b99565b5f612d0f61370e565b5f938452600101602090815260408085209385529290525090205460ff1690565b5f5b82811015613706575f612d4361373b565b5f8881526001919091016020526040812090868685818110612d6757612d67613fc4565b602090810292909201358352508181019290925260409081015f2081518083018352815460ff1615158152825160018301805460e08188028401810190965260c083018181529396949594870194929391928492918491840182828015612deb57602002820191905f5260205f20905b815481526020019060010190808311612dd7575b50505050508152602001600182016040518060600160405290815f8201805480602002602001604051908101604052809291908181526020018280548015612e5057602002820191905f5260205f20905b815481526020019060010190808311612e3c575b5050505050815260200160018201805480602002602001604051908101604052809291908181526020018280548015612ed557602002820191905f5260205f20905f905b82829054906101000a900460ff166007811115612eb357612eb3614003565b815260206001928301818104948501949093039092029101808411612e945790505b5050505050815260200160028201805480602002602001604051908101604052809291908181526020015f905b82821015612faa578382905f5260205f20018054612f1f90614080565b80601f0160208091040260200160405190810160405280929190818152602001828054612f4b90614080565b8015612f965780601f10612f6d57610100808354040283529160200191612f96565b820191905f5260205f20905b815481529060010190602001808311612f7957829003601f168201915b505050505081526020019060010190612f02565b5050505081525050815260200160048201805480602002602001604051908101604052809291908181526020015f905b82821015613077575f8481526020902060408051606081019091529083018054829060ff16600781111561301057613010614003565b600781111561302157613021614003565b8152905461010081046fffffffffffffffffffffffffffffffff166020808401919091527101000000000000000000000000000000000090910460ff166040909201919091529082526001929092019101612fda565b50505050815260200160058201805480602002602001604051908101604052809291908181526020015f905b82821015613140575f8481526020902060408051606081019091529083018054829060ff1660078111156130d9576130d9614003565b60078111156130ea576130ea614003565b8152905461010081046fffffffffffffffffffffffffffffffff166020808401919091527101000000000000000000000000000000000090910460ff1660409092019190915290825260019290920191016130a3565b50505050815260200160068201805480602002602001604051908101604052809291908181526020015f905b828210156133a5575f84815260209081902060408051610100808201835260058702909301805460ff8082161515845294810485161515958301959095529093909291840191620100009091041660028111156131cb576131cb614003565b60028111156131dc576131dc614003565b815281546020909101906301000000900460ff16600781111561320157613201614003565b600781111561321257613212614003565b815260200160018201805461322690614080565b80601f016020809104026020016040519081016040528092919081815260200182805461325290614080565b801561329d5780601f106132745761010080835404028352916020019161329d565b820191905f5260205f20905b81548152906001019060200180831161328057829003601f168201915b50505050508152602001600282015481526020016003820180546132c090614080565b80601f01602080910402602001604051908101604052809291908181526020018280546132ec90614080565b80156133375780601f1061330e57610100808354040283529160200191613337565b820191905f5260205f20905b81548152906001019060200180831161331a57829003601f168201915b505050505081526020016004820180548060200260200160405190810160405280929190818152602001828054801561338d57602002820191905f5260205f20905b815481526020019060010190808311613379575b5050505050815250508152602001906001019061316c565b50505050815260200160078201805480602002602001604051908101604052809291908181526020015f905b8282101561360a575f84815260209081902060408051610100808201835260058702909301805460ff80821615158452948104851615159583019590955290939092918401916201000090910416600281111561343057613430614003565b600281111561344157613441614003565b815281546020909101906301000000900460ff16600781111561346657613466614003565b600781111561347757613477614003565b815260200160018201805461348b90614080565b80601f01602080910402602001604051908101604052809291908181526020018280546134b790614080565b80156135025780601f106134d957610100808354040283529160200191613502565b820191905f5260205f20905b8154815290600101906020018083116134e557829003601f168201915b505050505081526020016002820154815260200160038201805461352590614080565b80601f016020809104026020016040519081016040528092919081815260200182805461355190614080565b801561359c5780601f106135735761010080835404028352916020019161359c565b820191905f5260205f20905b81548152906001019060200180831161357f57829003601f168201915b50505050508152602001600482018054806020026020016040519081016040528092919081815260200182805480156135f257602002820191905f5260205f20905b8154815260200190600101908083116135de575b505050505081525050815260200190600101906133d1565b50505091525050905250805190915061368257604080518082018252600c81527f496e76616c69642052756c650000000000000000000000000000000000000000602082015290517f08c379a000000000000000000000000000000000000000000000000000000000815261086c9190600401613ff1565b61369487826020015160400151613768565b7fffffffff0000000000000000000000000000000000000000000000000000000086165f90815260018401602052604090208585848181106136d8576136d8613fc4565b8354600180820186555f95865260209586902092909502939093013592019190915550919091019050612d32565b505050505050565b5f8061223f60017fdc82e9666de28bef254c770aa394fdb200d98373b70390c27adec32819f8f26661414c565b5f8061223f60017f5c91f63a4ffcbd372b8ec622fd1fcaaa601b66330afdb30e5c292dd9123f20b061414c565b6127108151106040518060400160405280601a81526020017f4d617820706c61636520686f6c6465727320726561636865642e000000000000815250906137dc576040517f08c379a000000000000000000000000000000000000000000000000000000000815260040161086c9190613ff1565b505f5b8151811015613968576138118282815181106137fd576137fd613fc4565b602002602001015160400151600116151590565b156138a65761384f8383838151811061382c5761382c613fc4565b6020026020010151602001516fffffffffffffffffffffffffffffffff1661396d565b6040518060600160405280602781526020016143bf60279139906138a0576040517f08c379a000000000000000000000000000000000000000000000000000000000815260040161086c9190613ff1565b50613960565b6138cf8282815181106138bb576138bb613fc4565b602002602001015160400151600216151590565b156139605761390d838383815181106138ea576138ea613fc4565b6020026020010151602001516fffffffffffffffffffffffffffffffff16613976565b60405180606001604052806022815260200161439d602291399061395e576040517f08c379a000000000000000000000000000000000000000000000000000000000815260040161086c9190613ff1565b505b6001016137df565b505050565b5f612d0f6128be565b5f612d0f6128eb565b5080545f8255905f5260205f20908101906123959190613a78565b828054828255905f5260205f209081019282156139d3579160200282015b828111156139d35782518255916020019190600101906139b8565b506139df929150613a78565b5090565b5080545f8255601f0160209004905f5260205f20908101906123959190613a78565b5080545f8255600202905f5260205f20908101906123959190613a8c565b508054613a2f90614080565b5f825580601f10613a3e575050565b601f0160209004905f5260205f20908101906123959190613a78565b5080545f825560070160089004905f5260205f209081019061239591905b5b808211156139df575f8155600101613a79565b5b808211156139df5780547fffffffffffffffffffffffffffffffffffffffffffffffffffffffffffffff001681555f6001820155600201613a8d565b5f60208284031215613ad9575f5ffd5b5035919050565b5f8151808452602084019350602083015f5b82811015613b10578151865260209586019590910190600101613af2565b5093949350505050565b606080825284519082018190525f9060208601906080840190835b81811015613b755783517fffffffff0000000000000000000000000000000000000000000000000000000016835260209384019390920191600101613b35565b50508381036020850152613b898187613ae0565b915050828103604084015280845180835260208301915060208160051b840101602087015f5b83811015613bff577fffffffffffffffffffffffffffffffffffffffffffffffffffffffffffffffe0868403018552613be9838351613ae0565b6020958601959093509190910190600101613baf565b50909998505050505050505050565b5f5f83601f840112613c1e575f5ffd5b50813567ffffffffffffffff811115613c35575f5ffd5b6020830191508360208260051b8501011115613c4f575f5ffd5b9250929050565b803560038110613c64575f5ffd5b919050565b5f5f83601f840112613c79575f5ffd5b50813567ffffffffffffffff811115613c90575f5ffd5b602083019150836020828501011115613c4f575f5ffd5b5f5f5f5f5f5f5f5f5f5f5f5f60e08d8f031215613cc2575f5ffd5b8c359b5067ffffffffffffffff60208e01351115613cde575f5ffd5b613cee8e60208f01358f01613c0e565b909b50995067ffffffffffffffff60408e01351115613d0b575f5ffd5b613d1b8e60408f01358f01613c0e565b909950975067ffffffffffffffff60608e01351115613d38575f5ffd5b613d488e60608f01358f01613c0e565b9097509550613d5960808e01613c56565b945067ffffffffffffffff60a08e01351115613d73575f5ffd5b613d838e60a08f01358f01613c69565b909450925067ffffffffffffffff60c08e01351115613da0575f5ffd5b613db08e60c08f01358f01613c69565b81935080925050509295989b509295989b509295989b565b803573ffffffffffffffffffffffffffffffffffffffff81168114613c64575f5ffd5b5f5f5f60408486031215613dfd575f5ffd5b613e0684613dc8565b9250602084013567ffffffffffffffff811115613e21575f5ffd5b613e2d86828701613c0e565b9497909650939450505050565b5f81518084528060208401602086015e5f6020828601015260207fffffffffffffffffffffffffffffffffffffffffffffffffffffffffffffffe0601f83011685010191505092915050565b602081525f825160406020840152613ea16060840182613e3a565b905060208401517fffffffffffffffffffffffffffffffffffffffffffffffffffffffffffffffe0848303016040850152613edc8282613e3a565b95945050505050565b5f5f5f5f5f60608688031215613ef9575f5ffd5b613f0286613c56565b9450602086013567ffffffffffffffff811115613f1d575f5ffd5b613f2988828901613c69565b909550935050604086013567ffffffffffffffff811115613f48575f5ffd5b613f5488828901613c69565b969995985093965092949392505050565b5f60208284031215613f75575f5ffd5b613f7e82613dc8565b9392505050565b602081525f613f7e6020830184613ae0565b7f4e487b71000000000000000000000000000000000000000000000000000000005f52604160045260245ffd5b7f4e487b71000000000000000000000000000000000000000000000000000000005f52603260045260245ffd5b602081525f613f7e6020830184613e3a565b7f4e487b71000000000000000000000000000000000000000000000000000000005f52602160045260245ffd5b602081528160208201525f7f07ffffffffffffffffffffffffffffffffffffffffffffffffffffffffffffff831115614067575f5ffd5b8260051b80856040850137919091016040019392505050565b600181811c9082168061409457607f821691505b6020821081036140cb577f4e487b71000000000000000000000000000000000000000000000000000000005f52602260045260245ffd5b50919050565b5f602082840312156140e1575f5ffd5b5051919050565b7f4e487b71000000000000000000000000000000000000000000000000000000005f52601160045260245ffd5b5f7fffffffffffffffffffffffffffffffffffffffffffffffffffffffffffffffff8203614145576141456140e8565b5060010190565b8181038181111561223f5761223f6140e8565b5f82518060208501845e5f920191825250919050565b601f82111561396857805f5260205f20601f840160051c8101602085101561419a5750805b601f840160051c820191505b81811015612598575f81556001016141a6565b67ffffffffffffffff8311156141d1576141d1613f97565b6141e5836141df8354614080565b83614175565b5f601f841160018114614235575f85156141ff5750838201355b7fffffffffffffffffffffffffffffffffffffffffffffffffffffffffffffffff600387901b1c1916600186901b178355612598565b5f838152602081207fffffffffffffffffffffffffffffffffffffffffffffffffffffffffffffffe08716915b828110156142825786850135825560209485019460019092019101614262565b50868210156142bd577fffffffffffffffffffffffffffffffffffffffffffffffffffffffffffffffff60f88860031b161c19848701351681555b505060018560011b0183555050505050565b5f602082840312156142df575f5ffd5b81357fffffffff0000000000000000000000000000000000000000000000000000000081168114613f7e575f5ffd5b5f5f83357fffffffffffffffffffffffffffffffffffffffffffffffffffffffffffffffe1843603018112614341575f5ffd5b83018035915067ffffffffffffffff82111561435b575f5ffd5b6020019150600581901b3603821315613c4f575f5ffdfe4d617820706f6c69636965732070657220636f6e7472616374206164647265737320726561636865642e547261636b6572207265666572656e63656420696e2072756c65206e6f7420736574466f726569676e2043616c6c207265666572656e63656420696e2072756c65206e6f74207365745369676e61747572657320616e64207369676e617475726520696427732061726520696e636f6e73697374656e744f6e6c7920766572696669656420706f6c69637920737562736372696265722063616e206170706c7920636c6f73656420706f6c6963696573a2646970667358221220499ef3f0c550d8bdd001dc2f55a458efaa5449afa2d65c52b7017ed2dd6bd13e64736f6c634300081c0033","linkReferences":{}},"methodIdentifiers":{"applyPolicy(address,uint256[])":"9228303f","cementPolicy(uint256)":"d46a37c4","closePolicy(uint256)":"2b0e4440","createPolicy(uint8,string,string)":"95953fba","deletePolicy(uint256)":"fed27c8f","disablePolicy(uint256)":"30ab6a0a","getAppliedPolicyIds(address)":"e3749023","getPolicy(uint256)":"2b07fce3","getPolicyMetadata(uint256)":"8cf7a293","isCementedPolicy(uint256)":"f7b570f6","isClosedPolicy(uint256)":"4f10689b","isDisabledPolicy(uint256)":"696ef703","openPolicy(uint256)":"798d6c7b","unapplyPolicy(address,uint256[])":"5239f98c","updatePolicy(uint256,bytes4[],uint256[],uint256[][],uint8,string,string)":"2e9ec08b"},"id":93}