{"abi":[{"type":"function","name":"createRule","inputs":[{"name":"policyId","type":"uint256","internalType":"uint256"},{"name":"rule","type":"tuple","internalType":"struct Rule","components":[{"name":"instructionSet","type":"uint256[]","internalType":"uint256[]"},{"name":"rawData","type":"tuple","internalType":"struct RawData","components":[{"name":"instructionSetIndex","type":"uint256[]","internalType":"uint256[]"},{"name":"argumentTypes","type":"uint8[]","internalType":"enum ParamTypes[]"},{"name":"dataValues","type":"bytes[]","internalType":"bytes[]"}]},{"name":"placeHolders","type":"tuple[]","internalType":"struct Placeholder[]","components":[{"name":"pType","type":"uint8","internalType":"enum ParamTypes"},{"name":"typeSpecificIndex","type":"uint128","internalType":"uint128"},{"name":"flags","type":"uint8","internalType":"uint8"}]},{"name":"effectPlaceHolders","type":"tuple[]","internalType":"struct Placeholder[]","components":[{"name":"pType","type":"uint8","internalType":"enum ParamTypes"},{"name":"typeSpecificIndex","type":"uint128","internalType":"uint128"},{"name":"flags","type":"uint8","internalType":"uint8"}]},{"name":"posEffects","type":"tuple[]","internalType":"struct Effect[]","components":[{"name":"valid","type":"bool","internalType":"bool"},{"name":"dynamicParam","type":"bool","internalType":"bool"},{"name":"effectType","type":"uint8","internalType":"enum EffectTypes"},{"name":"pType","type":"uint8","internalType":"enum ParamTypes"},{"name":"param","type":"bytes","internalType":"bytes"},{"name":"text","type":"bytes32","internalType":"bytes32"},{"name":"errorMessage","type":"string","internalType":"string"},{"name":"instructionSet","type":"uint256[]","internalType":"uint256[]"}]},{"name":"negEffects","type":"tuple[]","internalType":"struct Effect[]","components":[{"name":"valid","type":"bool","internalType":"bool"},{"name":"dynamicParam","type":"bool","internalType":"bool"},{"name":"effectType","type":"uint8","internalType":"enum EffectTypes"},{"name":"pType","type":"uint8","internalType":"enum ParamTypes"},{"name":"param","type":"bytes","internalType":"bytes"},{"name":"text","type":"bytes32","internalType":"bytes32"},{"name":"errorMessage","type":"string","internalType":"string"},{"name":"instructionSet","type":"uint256[]","internalType":"uint256[]"}]}]},{"name":"ruleName","type":"string","internalType":"string"},{"name":"ruleDescription","type":"string","internalType":"string"}],"outputs":[{"name":"","type":"uint256","internalType":"uint256"}],"stateMutability":"nonpayable"},{"type":"function","name":"deleteRule","inputs":[{"name":"policyId","type":"uint256","internalType":"uint256"},{"name":"ruleId","type":"uint256","internalType":"uint256"}],"outputs":[],"stateMutability":"nonpayable"},{"type":"function","name":"getAllRules","inputs":[{"name":"policyId","type":"uint256","internalType":"uint256"}],"outputs":[{"name":"","type":"tuple[][]","internalType":"struct Rule[][]","components":[{"name":"instructionSet","type":"uint256[]","internalType":"uint256[]"},{"name":"rawData","type":"tuple","internalType":"struct RawData","components":[{"name":"instructionSetIndex","type":"uint256[]","internalType":"uint256[]"},{"name":"argumentTypes","type":"uint8[]","internalType":"enum ParamTypes[]"},{"name":"dataValues","type":"bytes[]","internalType":"bytes[]"}]},{"name":"placeHolders","type":"tuple[]","internalType":"struct Placeholder[]","components":[{"name":"pType","type":"uint8","internalType":"enum ParamTypes"},{"name":"typeSpecificIndex","type":"uint128","internalType":"uint128"},{"name":"flags","type":"uint8","internalType":"uint8"}]},{"name":"effectPlaceHolders","type":"tuple[]","internalType":"struct Placeholder[]","components":[{"name":"pType","type":"uint8","internalType":"enum ParamTypes"},{"name":"typeSpecificIndex","type":"uint128","internalType":"uint128"},{"name":"flags","type":"uint8","internalType":"uint8"}]},{"name":"posEffects","type":"tuple[]","internalType":"struct Effect[]","components":[{"name":"valid","type":"bool","internalType":"bool"},{"name":"dynamicParam","type":"bool","internalType":"bool"},{"name":"effectType","type":"uint8","internalType":"enum EffectTypes"},{"name":"pType","type":"uint8","internalType":"enum ParamTypes"},{"name":"param","type":"bytes","internalType":"bytes"},{"name":"text","type":"bytes32","internalType":"bytes32"},{"name":"errorMessage","type":"string","internalType":"string"},{"name":"instructionSet","type":"uint256[]","internalType":"uint256[]"}]},{"name":"negEffects","type":"tuple[]","internalType":"struct Effect[]","components":[{"name":"valid","type":"bool","internalType":"bool"},{"name":"dynamicParam","type":"bool","internalType":"bool"},{"name":"effectType","type":"uint8","internalType":"enum EffectTypes"},{"name":"pType","type":"uint8","internalType":"enum ParamTypes"},{"name":"param","type":"bytes","internalType":"bytes"},{"name":"text","type":"bytes32","internalType":"bytes32"},{"name":"errorMessage","type":"string","internalType":"string"},{"name":"instructionSet","type":"uint256[]","internalType":"uint256[]"}]}]}],"stateMutability":"view"},{"type":"function","name":"getRule","inputs":[{"name":"policyId","type":"uint256","internalType":"uint256"},{"name":"ruleId","type":"uint256","internalType":"uint256"}],"outputs":[{"name":"","type":"tuple","internalType":"struct RuleStorageSet","components":[{"name":"set","type":"bool","internalType":"bool"},{"name":"rule","type":"tuple","internalType":"struct Rule","components":[{"name":"instructionSet","type":"uint256[]","internalType":"uint256[]"},{"name":"rawData","type":"tuple","internalType":"struct RawData","components":[{"name":"instructionSetIndex","type":"uint256[]","internalType":"uint256[]"},{"name":"argumentTypes","type":"uint8[]","internalType":"enum ParamTypes[]"},{"name":"dataValues","type":"bytes[]","internalType":"bytes[]"}]},{"name":"placeHolders","type":"tuple[]","internalType":"struct Placeholder[]","components":[{"name":"pType","type":"uint8","internalType":"enum ParamTypes"},{"name":"typeSpecificIndex","type":"uint128","internalType":"uint128"},{"name":"flags","type":"uint8","internalType":"uint8"}]},{"name":"effectPlaceHolders","type":"tuple[]","internalType":"struct Placeholder[]","components":[{"name":"pType","type":"uint8","internalType":"enum ParamTypes"},{"name":"typeSpecificIndex","type":"uint128","internalType":"uint128"},{"name":"flags","type":"uint8","internalType":"uint8"}]},{"name":"posEffects","type":"tuple[]","internalType":"struct Effect[]","components":[{"name":"valid","type":"bool","internalType":"bool"},{"name":"dynamicParam","type":"bool","internalType":"bool"},{"name":"effectType","type":"uint8","internalType":"enum EffectTypes"},{"name":"pType","type":"uint8","internalType":"enum ParamTypes"},{"name":"param","type":"bytes","internalType":"bytes"},{"name":"text","type":"bytes32","internalType":"bytes32"},{"name":"errorMessage","type":"string","internalType":"string"},{"name":"instructionSet","type":"uint256[]","internalType":"uint256[]"}]},{"name":"negEffects","type":"tuple[]","internalType":"struct Effect[]","components":[{"name":"valid","type":"bool","internalType":"bool"},{"name":"dynamicParam","type":"bool","internalType":"bool"},{"name":"effectType","type":"uint8","internalType":"enum EffectTypes"},{"name":"pType","type":"uint8","internalType":"enum ParamTypes"},{"name":"param","type":"bytes","internalType":"bytes"},{"name":"text","type":"bytes32","internalType":"bytes32"},{"name":"errorMessage","type":"string","internalType":"string"},{"name":"instructionSet","type":"uint256[]","internalType":"uint256[]"}]}]}]}],"stateMutability":"view"},{"type":"function","name":"getRuleMetadata","inputs":[{"name":"policyId","type":"uint256","internalType":"uint256"},{"name":"ruleId","type":"uint256","internalType":"uint256"}],"outputs":[{"name":"","type":"tuple","internalType":"struct RuleMetadata","components":[{"name":"ruleName","type":"string","internalType":"string"},{"name":"ruleDescription","type":"string","internalType":"string"}]}],"stateMutability":"view"},{"type":"function","name":"memorySize","inputs":[],"outputs":[{"name":"","type":"uint256","internalType":"uint256"}],"stateMutability":"view"},{"type":"function","name":"opsSize1","inputs":[],"outputs":[{"name":"","type":"uint256","internalType":"uint256"}],"stateMutability":"view"},{"type":"function","name":"opsSizeUpTo2","inputs":[],"outputs":[{"name":"","type":"uint256","internalType":"uint256"}],"stateMutability":"view"},{"type":"function","name":"opsSizeUpTo3","inputs":[],"outputs":[{"name":"","type":"uint256","internalType":"uint256"}],"stateMutability":"view"},{"type":"function","name":"opsTotalSize","inputs":[],"outputs":[{"name":"","type":"uint256","internalType":"uint256"}],"stateMutability":"view"},{"type":"function","name":"updateRule","inputs":[{"name":"policyId","type":"uint256","internalType":"uint256"},{"name":"ruleId","type":"uint256","internalType":"uint256"},{"name":"rule","type":"tuple","internalType":"struct Rule","components":[{"name":"instructionSet","type":"uint256[]","internalType":"uint256[]"},{"name":"rawData","type":"tuple","internalType":"struct RawData","components":[{"name":"instructionSetIndex","type":"uint256[]","internalType":"uint256[]"},{"name":"argumentTypes","type":"uint8[]","internalType":"enum ParamTypes[]"},{"name":"dataValues","type":"bytes[]","internalType":"bytes[]"}]},{"name":"placeHolders","type":"tuple[]","internalType":"struct Placeholder[]","components":[{"name":"pType","type":"uint8","internalType":"enum ParamTypes"},{"name":"typeSpecificIndex","type":"uint128","internalType":"uint128"},{"name":"flags","type":"uint8","internalType":"uint8"}]},{"name":"effectPlaceHolders","type":"tuple[]","internalType":"struct Placeholder[]","components":[{"name":"pType","type":"uint8","internalType":"enum ParamTypes"},{"name":"typeSpecificIndex","type":"uint128","internalType":"uint128"},{"name":"flags","type":"uint8","internalType":"uint8"}]},{"name":"posEffects","type":"tuple[]","internalType":"struct Effect[]","components":[{"name":"valid","type":"bool","internalType":"bool"},{"name":"dynamicParam","type":"bool","internalType":"bool"},{"name":"effectType","type":"uint8","internalType":"enum EffectTypes"},{"name":"pType","type":"uint8","internalType":"enum ParamTypes"},{"name":"param","type":"bytes","internalType":"bytes"},{"name":"text","type":"bytes32","internalType":"bytes32"},{"name":"errorMessage","type":"string","internalType":"string"},{"name":"instructionSet","type":"uint256[]","internalType":"uint256[]"}]},{"name":"negEffects","type":"tuple[]","internalType":"struct Effect[]","components":[{"name":"valid","type":"bool","internalType":"bool"},{"name":"dynamicParam","type":"bool","internalType":"bool"},{"name":"effectType","type":"uint8","internalType":"enum EffectTypes"},{"name":"pType","type":"uint8","internalType":"enum ParamTypes"},{"name":"param","type":"bytes","internalType":"bytes"},{"name":"text","type":"bytes32","internalType":"bytes32"},{"name":"errorMessage","type":"string","internalType":"string"},{"name":"instructionSet","type":"uint256[]","internalType":"uint256[]"}]}]},{"name":"ruleName","type":"string","internalType":"string"},{"name":"ruleDescription","type":"string","internalType":"string"}],"outputs":[{"name":"","type":"uint256","internalType":"uint256"}],"stateMutability":"nonpayable"},{"type":"event","name":"RuleCreated","inputs":[{"name":"policyId","type":"uint256","indexed":true,"internalType":"uint256"},{"name":"ruleId","type":"uint256","indexed":true,"internalType":"uint256"}],"anonymous":false},{"type":"event","name":"RuleDeleted","inputs":[{"name":"policyId","type":"uint256","indexed":true,"internalType":"uint256"},{"name":"ruleId","type":"uint256","indexed":true,"internalType":"uint256"}],"anonymous":false},{"type":"event","name":"RuleUpdated","inputs":[{"name":"policyId","type":"uint256","indexed":true,"internalType":"uint256"},{"name":"ruleId","type":"uint256","indexed":true,"internalType":"uint256"}],"anonymous":false}],"bytecode":{"object":"0x6080604052348015600e575f5ffd5b50613f2b8061001c5f395ff3fe608060405234801561000f575f5ffd5b50600436106100c4575f3560e01c8063a57dcd5e1161007d578063cc98aad611610058578063cc98aad61461017f578063ed361f6214610192578063efe026821461019a575f5ffd5b8063a57dcd5e1461015c578063abb7e00d1461016f578063b8f1574614610177575f5ffd5b80636d279ef8116100ad5780636d279ef814610111578063835624f614610131578063a31c8ebb14610147575f5ffd5b806312602c40146100c8578063266fc8a5146100f1575b5f5ffd5b6100db6100d63660046129e9565b6101a2565b6040516100e89190612a55565b60405180910390f35b6101046100ff366004612ab4565b610361565b6040516100e89190612e34565b61012461011f3660046129e9565b610f61565b6040516100e89190612f19565b610139601181565b6040519081526020016100e8565b61015a6101553660046129e9565b611877565b005b61013961016a366004612fa2565b611a59565b610139600381565b610139601381565b61013961018d36600461304e565b611b1d565b610139601281565b610139605a81565b6040805180820190915260608082526020820152825f0361021257604051806060016040528060348152602001613ec2603491396040517f08c379a000000000000000000000000000000000000000000000000000000000815260040161020991906130f1565b60405180910390fd5b61021a611bed565b5f8481526020918252604080822085835290925281902081518083019092528054829082906102489061310a565b80601f01602080910402602001604051908101604052809291908181526020018280546102749061310a565b80156102bf5780601f10610296576101008083540402835291602001916102bf565b820191905f5260205f20905b8154815290600101906020018083116102a257829003601f168201915b505050505081526020016001820180546102d89061310a565b80601f01602080910402602001604051908101604052809291908181526020018280546103049061310a565b801561034f5780601f106103265761010080835404028352916020019161034f565b820191905f5260205f20905b81548152906001019060200180831161033257829003601f168201915b50505050508152505090505b92915050565b6060815f036103b657604051806060016040528060348152602001613ec2603491396040517f08c379a000000000000000000000000000000000000000000000000000000000815260040161020991906130f1565b5f6103bf611c1a565b6001015f8481526020019081526020015f2060010190505f8160020180548060200260200160405190810160405280929190818152602001828054801561046457602002820191905f5260205f20905f905b82829054906101000a900460e01b7bffffffffffffffffffffffffffffffffffffffffffffffffffffffff1916815260200190600401906020826003010492830192600103820291508084116104115790505b505050505090505f815167ffffffffffffffff81111561048657610486613155565b6040519080825280602002602001820160405280156104b957816020015b60608152602001906001900390816104a45790505b5090505f5b8251811015610f58575f846001015f8584815181106104df576104df613182565b60200260200101517bffffffffffffffffffffffffffffffffffffffffffffffffffffffff19167bffffffffffffffffffffffffffffffffffffffffffffffffffffffff191681526020019081526020015f2080548060200260200160405190810160405280929190818152602001828054801561057a57602002820191905f5260205f20905b815481526020019060010190808311610566575b50505050509050805167ffffffffffffffff81111561059b5761059b613155565b6040519080825280602002602001820160405280156105d457816020015b6105c16127d6565b8152602001906001900390816105b95790505b508383815181106105e7576105e7613182565b60209081029190910101525f5b8151811015610f4e57610605611c47565b6001015f8981526020019081526020015f205f83838151811061062a5761062a613182565b60209081029190910181015182528101919091526040015f205460ff1615610f4657610654611c47565b6001015f8981526020019081526020015f205f83838151811061067957610679613182565b602002602001015181526020019081526020015f206001016040518060c00160405290815f82018054806020026020016040519081016040528092919081815260200182805480156106e857602002820191905f5260205f20905b8154815260200190600101908083116106d4575b50505050508152602001600182016040518060600160405290815f820180548060200260200160405190810160405280929190818152602001828054801561074d57602002820191905f5260205f20905b815481526020019060010190808311610739575b50505050508152602001600182018054806020026020016040519081016040528092919081815260200182805480156107d257602002820191905f5260205f20905f905b82829054906101000a900460ff1660078111156107b0576107b0612b05565b8152602060019283018181049485019490930390920291018084116107915790505b5050505050815260200160028201805480602002602001604051908101604052809291908181526020015f905b828210156108a7578382905f5260205f2001805461081c9061310a565b80601f01602080910402602001604051908101604052809291908181526020018280546108489061310a565b80156108935780601f1061086a57610100808354040283529160200191610893565b820191905f5260205f20905b81548152906001019060200180831161087657829003601f168201915b5050505050815260200190600101906107ff565b5050505081525050815260200160048201805480602002602001604051908101604052809291908181526020015f905b82821015610974575f8481526020902060408051606081019091529083018054829060ff16600781111561090d5761090d612b05565b600781111561091e5761091e612b05565b8152905461010081046fffffffffffffffffffffffffffffffff166020808401919091527101000000000000000000000000000000000090910460ff1660409092019190915290825260019290920191016108d7565b50505050815260200160058201805480602002602001604051908101604052809291908181526020015f905b82821015610a3d575f8481526020902060408051606081019091529083018054829060ff1660078111156109d6576109d6612b05565b60078111156109e7576109e7612b05565b8152905461010081046fffffffffffffffffffffffffffffffff166020808401919091527101000000000000000000000000000000000090910460ff1660409092019190915290825260019290920191016109a0565b50505050815260200160068201805480602002602001604051908101604052809291908181526020015f905b82821015610ca2575f84815260209081902060408051610100808201835260058702909301805460ff808216151584529481048516151595830195909552909390929184019162010000909104166002811115610ac857610ac8612b05565b6002811115610ad957610ad9612b05565b815281546020909101906301000000900460ff166007811115610afe57610afe612b05565b6007811115610b0f57610b0f612b05565b8152602001600182018054610b239061310a565b80601f0160208091040260200160405190810160405280929190818152602001828054610b4f9061310a565b8015610b9a5780601f10610b7157610100808354040283529160200191610b9a565b820191905f5260205f20905b815481529060010190602001808311610b7d57829003601f168201915b5050505050815260200160028201548152602001600382018054610bbd9061310a565b80601f0160208091040260200160405190810160405280929190818152602001828054610be99061310a565b8015610c345780601f10610c0b57610100808354040283529160200191610c34565b820191905f5260205f20905b815481529060010190602001808311610c1757829003601f168201915b5050505050815260200160048201805480602002602001604051908101604052809291908181526020018280548015610c8a57602002820191905f5260205f20905b815481526020019060010190808311610c76575b50505050508152505081526020019060010190610a69565b50505050815260200160078201805480602002602001604051908101604052809291908181526020015f905b82821015610f07575f84815260209081902060408051610100808201835260058702909301805460ff808216151584529481048516151595830195909552909390929184019162010000909104166002811115610d2d57610d2d612b05565b6002811115610d3e57610d3e612b05565b815281546020909101906301000000900460ff166007811115610d6357610d63612b05565b6007811115610d7457610d74612b05565b8152602001600182018054610d889061310a565b80601f0160208091040260200160405190810160405280929190818152602001828054610db49061310a565b8015610dff5780601f10610dd657610100808354040283529160200191610dff565b820191905f5260205f20905b815481529060010190602001808311610de257829003601f168201915b5050505050815260200160028201548152602001600382018054610e229061310a565b80601f0160208091040260200160405190810160405280929190818152602001828054610e4e9061310a565b8015610e995780601f10610e7057610100808354040283529160200191610e99565b820191905f5260205f20905b815481529060010190602001808311610e7c57829003601f168201915b5050505050815260200160048201805480602002602001604051908101604052809291908181526020018280548015610eef57602002820191905f5260205f20905b815481526020019060010190808311610edb575b50505050508152505081526020019060010190610cce565b5050505081525050848481518110610f2157610f21613182565b60200260200101518281518110610f3a57610f3a613182565b60200260200101819052505b6001016105f4565b50506001016104be565b50949350505050565b610f6961282e565b825f03610fbc57604051806060016040528060348152602001613ec2603491396040517f08c379a000000000000000000000000000000000000000000000000000000000815260040161020991906130f1565b610fc4611c47565b5f84815260019182016020908152604080832086845282529182902082518084018452815460ff16151581528351948201805460e08186028801810190965260c087018181529296939594870194919284929091849184018282801561104757602002820191905f5260205f20905b815481526020019060010190808311611033575b50505050508152602001600182016040518060600160405290815f82018054806020026020016040519081016040528092919081815260200182805480156110ac57602002820191905f5260205f20905b815481526020019060010190808311611098575b505050505081526020016001820180548060200260200160405190810160405280929190818152602001828054801561113157602002820191905f5260205f20905f905b82829054906101000a900460ff16600781111561110f5761110f612b05565b8152602060019283018181049485019490930390920291018084116110f05790505b5050505050815260200160028201805480602002602001604051908101604052809291908181526020015f905b82821015611206578382905f5260205f2001805461117b9061310a565b80601f01602080910402602001604051908101604052809291908181526020018280546111a79061310a565b80156111f25780601f106111c9576101008083540402835291602001916111f2565b820191905f5260205f20905b8154815290600101906020018083116111d557829003601f168201915b50505050508152602001906001019061115e565b5050505081525050815260200160048201805480602002602001604051908101604052809291908181526020015f905b828210156112d3575f8481526020902060408051606081019091529083018054829060ff16600781111561126c5761126c612b05565b600781111561127d5761127d612b05565b8152905461010081046fffffffffffffffffffffffffffffffff166020808401919091527101000000000000000000000000000000000090910460ff166040909201919091529082526001929092019101611236565b50505050815260200160058201805480602002602001604051908101604052809291908181526020015f905b8282101561139c575f8481526020902060408051606081019091529083018054829060ff16600781111561133557611335612b05565b600781111561134657611346612b05565b8152905461010081046fffffffffffffffffffffffffffffffff166020808401919091527101000000000000000000000000000000000090910460ff1660409092019190915290825260019290920191016112ff565b50505050815260200160068201805480602002602001604051908101604052809291908181526020015f905b82821015611601575f84815260209081902060408051610100808201835260058702909301805460ff80821615158452948104851615159583019590955290939092918401916201000090910416600281111561142757611427612b05565b600281111561143857611438612b05565b815281546020909101906301000000900460ff16600781111561145d5761145d612b05565b600781111561146e5761146e612b05565b81526020016001820180546114829061310a565b80601f01602080910402602001604051908101604052809291908181526020018280546114ae9061310a565b80156114f95780601f106114d0576101008083540402835291602001916114f9565b820191905f5260205f20905b8154815290600101906020018083116114dc57829003601f168201915b505050505081526020016002820154815260200160038201805461151c9061310a565b80601f01602080910402602001604051908101604052809291908181526020018280546115489061310a565b80156115935780601f1061156a57610100808354040283529160200191611593565b820191905f5260205f20905b81548152906001019060200180831161157657829003601f168201915b50505050508152602001600482018054806020026020016040519081016040528092919081815260200182805480156115e957602002820191905f5260205f20905b8154815260200190600101908083116115d5575b505050505081525050815260200190600101906113c8565b50505050815260200160078201805480602002602001604051908101604052809291908181526020015f905b82821015611866575f84815260209081902060408051610100808201835260058702909301805460ff80821615158452948104851615159583019590955290939092918401916201000090910416600281111561168c5761168c612b05565b600281111561169d5761169d612b05565b815281546020909101906301000000900460ff1660078111156116c2576116c2612b05565b60078111156116d3576116d3612b05565b81526020016001820180546116e79061310a565b80601f01602080910402602001604051908101604052809291908181526020018280546117139061310a565b801561175e5780601f106117355761010080835404028352916020019161175e565b820191905f5260205f20905b81548152906001019060200180831161174157829003601f168201915b50505050508152602001600282015481526020016003820180546117819061310a565b80601f01602080910402602001604051908101604052809291908181526020018280546117ad9061310a565b80156117f85780601f106117cf576101008083540402835291602001916117f8565b820191905f5260205f20905b8154815290600101906020018083116117db57829003601f168201915b505050505081526020016004820180548060200260200160405190810160405280929190818152602001828054801561184e57602002820191905f5260205f20905b81548152602001906001019080831161183a575b5050505050815250508152602001906001019061162d565b505050915250509052509392505050565b815f036118ca57604051806060016040528060348152602001613ec2603491396040517f08c379a000000000000000000000000000000000000000000000000000000000815260040161020991906130f1565b6118d2611c47565b5f8381526001919091016020908152604080832084845290915290205460ff1661195b57604080518082018252600c81527f496e76616c69642052756c650000000000000000000000000000000000000000602082015290517f08c379a000000000000000000000000000000000000000000000000000000000815261020991906004016130f1565b6119658233611c74565b61196e82611dd5565b611976611c47565b5f838152600191820160209081526040808320858452909152812080547fffffffffffffffffffffffffffffffffffffffffffffffffffffffffffffff00168155918201816119c5828261284e565b600182015f6119d4828261284e565b6119e1600183015f612869565b6119ee600283015f61288b565b506119fe9050600483015f6128a6565b611a0b600583015f6128a6565b611a18600683015f6128c1565b611a25600783015f6128c1565b50506040518392508491507f371b8107ab385e638477ce677851ddf910d57c3afc1bab409674a9e251cfb020905f90a35050565b5f875f03611aad57604051806060016040528060348152602001613ec2603491396040517f08c379a000000000000000000000000000000000000000000000000000000000815260040161020991906130f1565b611ab78833611c74565b611ac086611e67565b611ac988611dd5565b5f611ad2611c47565b9050611ae4818a8a8a8a8a8a8a6120aa565b60405188908a907fe91f86fd53c89629ca0bc01d0f219a6cd6730e5252f179944d1f3c9b5def1b07905f90a35095979650505050505050565b5f865f03611b7157604051806060016040528060348152602001613ec2603491396040517f08c379a000000000000000000000000000000000000000000000000000000000815260040161020991906130f1565b611b7b8733611c74565b611b8486611e67565b611b8d87611dd5565b5f611b96611c47565b90505f611ba3828a6120cf565b9050611bb5828a838b8b8b8b8b6120aa565b60405181908a907fcadd4461b462556a5a12f6e182d719fd2bbfaaa0a6fcf6a16cf7ecf648076921905f90a398975050505050505050565b5f8061035b60017fcd216e8e6f9888257c83a443dde6c2ee001ac067ce7d1a099cdea0655718c76e6131dc565b5f8061035b60017ff9dbd639dd2ea165d77dd4c51dec420100d51ceacf023b1c40faa045ba8f9a656131dc565b5f8061035b60017f5c91f63a4ffcbd372b8ec622fd1fcaaa601b66330afdb30e5c292dd9123f20b06131dc565b6040516024810183905273ffffffffffffffffffffffffffffffffffffffff821660448201525f908190611d42907f901cee110000000000000000000000000000000000000000000000000000000090606401604080517fffffffffffffffffffffffffffffffffffffffffffffffffffffffffffffffe08184030181529190526020810180517bffffffffffffffffffffffffffffffffffffffffffffffffffffffff167f901cee11000000000000000000000000000000000000000000000000000000001790526120f5565b915091505f8215611dce576004825110611d6157506020810151611d64565b505f5b80611dce57604080518082018252601881527f4e6f7420417574686f72697a656420546f20506f6c6963790000000000000000602082015290517f08c379a000000000000000000000000000000000000000000000000000000000815261020991906004016130f1565b5050505050565b611ddd611c1a565b5f8281526001919091016020526040902060040154610100900460ff1615611e6457604080518082018252601f81527f4e6f7420616c6c6f77656420666f722063656d656e74656420706f6c69637900602082015290517f08c379a000000000000000000000000000000000000000000000000000000000815261020991906004016130f1565b50565b611e7181806131ef565b90505f03611ede57604080518082018252601581527f456d70747920496e737472756374696f6e205365740000000000000000000000602082015290517f08c379a000000000000000000000000000000000000000000000000000000000815261020991906004016130f1565b611ef0611eeb82806131ef565b6121b6565b5f5b611eff6020830183613253565b611f0990806131ef565b9050811015611f5057611f48611f226020840184613253565b611f2c90806131ef565b83818110611f3c57611f3c613182565b905060200201356123c2565b600101611ef2565b505f5b611f606020830183613253565b611f6e9060208101906131ef565b9050811015611fc757611fbf611f876020840184613253565b611f959060208101906131ef565b83818110611fa557611fa5613182565b9050602002016020810190611fba919061329b565b612430565b600101611f53565b50611fdd611fd860408301836132b6565b6124b3565b611fed611fd860608301836132b6565b5f611ffb60808301836131ef565b9050118061201657505f61201260a08301836131ef565b9050115b6040518060400160405280601d81526020017f4d7573742068617665206174206c65617374206f6e652065666665637400000081525090612084576040517f08c379a000000000000000000000000000000000000000000000000000000000815260040161020991906130f1565b5061209a61209560808301836131ef565b612539565b611e6461209560a08301836131ef565b6120b6888888886125f5565b506120c58787868686866126d8565b5050505050505050565b5f818152602083905260408120805482906120e990613319565b91829055509392505050565b5f60605f61210161272a565b7fffffffff0000000000000000000000000000000000000000000000000000000086165f908152602082905260409081902054905191925073ffffffffffffffffffffffffffffffffffffffff1690819061215d908790613350565b5f60405180830381855af49150503d805f8114612195576040519150601f19603f3d011682016040523d82523d5f602084013e61219a565b606091505b509094509250836121ad57825160208401fd5b50509250929050565b5f80805b83811015612346575f8585838181106121d5576121d5613182565b905060200201359050821561227657605a81111561225257604080518082018252600f81527f4d656d6f7279204f766572666c6f770000000000000000000000000000000000602082015290517f08c379a000000000000000000000000000000000000000000000000000000000815261020991906004016130f1565b600184111561226b5761226484613366565b9350612332565b5f92505f9350612332565b60138111156122e457604080518082018252601381527f496e76616c696420496e737472756374696f6e00000000000000000000000000602082015290517f08c379a000000000000000000000000000000000000000000000000000000000815261020991906004016130f1565b806122f25750600101612334565b6003811015612304576001935061232d565b6011811015612316576002935061232d565b6012811015612328576003935061232d565b600493505b600192505b505b8061233e81613319565b9150506121ba565b505f8211806123525750805b156123bc57604080518082018252601781527f496e76616c696420496e737472756374696f6e20536574000000000000000000602082015290517f08c379a000000000000000000000000000000000000000000000000000000000815261020991906004016130f1565b50505050565b605a811115611e6457604080518082018252600f81527f4d656d6f7279204f766572666c6f770000000000000000000000000000000000602082015290517f08c379a000000000000000000000000000000000000000000000000000000000815261020991906004016130f1565b60088082600781111561244557612445612b05565b106124af57604080518082018252601281527f496e76616c696420506172616d20547970650000000000000000000000000000602082015290517f08c379a000000000000000000000000000000000000000000000000000000000815261020991906004016130f1565b5050565b5f5b81811015612534576124e88383838181106124d2576124d2613182565b611fba926020606090920201908101915061329b565b61252c8383838181106124fd576124fd613182565b905060600201602001602081019061251591906133b7565b6fffffffffffffffffffffffffffffffff166123c2565b6001016124b5565b505050565b5f5b818110156125345761258083838381811061255857612558613182565b905060200281019061256a91906133d2565b61257b906060810190604001613410565b612757565b6125b883838381811061259557612595613182565b90506020028101906125a791906133d2565b611fba90608081019060600161329b565b6125ed8383838181106125cd576125cd613182565b90506020028101906125df91906133d2565b611eeb9060e08101906131ef565b60010161253b565b5f6125fe611c1a565b5f858152600191909101602052604090205460ff1661267c57604080518082018252601581527f506f6c69637920646f6573206e6f742065786973740000000000000000000000602082015290517f08c379a000000000000000000000000000000000000000000000000000000000815261020991906004016130f1565b5f84815260018681016020908152604080842087855290915290912080547fffffffffffffffffffffffffffffffffffffffffffffffffffffffffffffff0016821781558391016126cd8282613de1565b509295945050505050565b5f6126e1611bed565b5f888152602082815260408083208a84529091529020909150612705858783613667565b505f8781526020828152604080832089845290915290206001016120c5838583613667565b5f8061035b60017fbe498a3b14fd79a48c3c9af86ff14271ed497d09071013334028d28e7791db206131dc565b60038082600281111561276c5761276c612b05565b106124af57604080518082018252601381527f496e76616c696420456666656374205479706500000000000000000000000000602082015290517f08c379a000000000000000000000000000000000000000000000000000000000815261020991906004016130f1565b6040518060c001604052806060815260200161280c60405180606001604052806060815260200160608152602001606081525090565b8152602001606081526020016060815260200160608152602001606081525090565b60405180604001604052805f151581526020016128496127d6565b905290565b5080545f8255905f5260205f2090810190611e6491906128df565b5080545f8255601f0160209004905f5260205f2090810190611e6491906128df565b5080545f8255905f5260205f2090810190611e6491906128f7565b5080545f8255905f5260205f2090810190611e649190612913565b5080545f8255600502905f5260205f2090810190611e64919061294a565b5b808211156128f3575f81556001016128e0565b5090565b808211156128f3575f61290a82826129b2565b506001016128f7565b5b808211156128f35780547fffffffffffffffffffffffffffff000000000000000000000000000000000000168155600101612914565b808211156128f35780547fffffffffffffffffffffffffffffffffffffffffffffffffffffffff000000001681555f61298660018301826129b2565b600282015f9055600382015f61299c91906129b2565b6129a9600483015f61284e565b5060050161294a565b5080546129be9061310a565b5f825580601f106129cd575050565b601f0160209004905f5260205f2090810190611e6491906128df565b5f5f604083850312156129fa575f5ffd5b50508035926020909101359150565b5f81518084528060208401602086015e5f6020828601015260207fffffffffffffffffffffffffffffffffffffffffffffffffffffffffffffffe0601f83011685010191505092915050565b602081525f825160406020840152612a706060840182612a09565b905060208401517fffffffffffffffffffffffffffffffffffffffffffffffffffffffffffffffe0848303016040850152612aab8282612a09565b95945050505050565b5f60208284031215612ac4575f5ffd5b5035919050565b5f8151808452602084019350602083015f5b82811015612afb578151865260209586019590910190600101612add565b5093949350505050565b7f4e487b71000000000000000000000000000000000000000000000000000000005f52602160045260245ffd5b60088110612b4257612b42612b05565b9052565b5f8151808452602084019350602083015f5b82811015612afb578151612b6d878251612b32565b6fffffffffffffffffffffffffffffffff602082015116602088015260ff604082015116604088015250606086019550602082019150600181019050612b58565b60038110612b4257612b42612b05565b5f82825180855260208501945060208160051b830101602085015f5b83811015612cbd578483037fffffffffffffffffffffffffffffffffffffffffffffffffffffffffffffffe001885281518051151584526020810151612c24602086018215159052565b506040810151612c376040860182612bae565b506060810151612c4a6060860182612b32565b5060808101516101006080860152612c66610100860182612a09565b905060a082015160a086015260c082015185820360c0870152612c898282612a09565b91505060e0820151915084810360e0860152612ca58183612acb565b60209a8b019a90955093909301925050600101612bda565b50909695505050505050565b5f815160c08452612cdd60c0850182612acb565b905060208301518482036020860152805160608352612cff6060840182612acb565b60208381015185830386830152805180845290820193505f92909101905b80831015612d4757612d30828551612b32565b602082019150602084019350600183019250612d1d565b506040840151935084810360408601528094508351925082815260208101945060208360051b82010191506020840193505f5b83811015612dc9577fffffffffffffffffffffffffffffffffffffffffffffffffffffffffffffffe0828403018652612db4838651612a09565b60209687019695909501949250600101612d7a565b5050604086015193508681036040880152612de48185612b46565b935050505060608301518482036060860152612e008282612b46565b91505060808301518482036080860152612e1a8282612bbe565b91505060a083015184820360a0860152612aab8282612bbe565b5f602082016020835280845180835260408501915060408160051b8601019250602086015f5b82811015612f0d578685037fffffffffffffffffffffffffffffffffffffffffffffffffffffffffffffffc0018452815180518087526020918201918088019190600582901b8901015f5b82811015612ef4577fffffffffffffffffffffffffffffffffffffffffffffffffffffffffffffffe08a8303018452612edf828651612cc9565b60209586019594909401939150600101612ea5565b5097505050602094850194929092019150600101612e5a565b50929695505050505050565b602081528151151560208201525f6020830151604080840152612f3f6060840182612cc9565b949350505050565b5f60c08284031215612f57575f5ffd5b50919050565b5f5f83601f840112612f6d575f5ffd5b50813567ffffffffffffffff811115612f84575f5ffd5b602083019150836020828501011115612f9b575f5ffd5b9250929050565b5f5f5f5f5f5f5f60a0888a031215612fb8575f5ffd5b8735965060208801359550604088013567ffffffffffffffff811115612fdc575f5ffd5b612fe88a828b01612f47565b955050606088013567ffffffffffffffff811115613004575f5ffd5b6130108a828b01612f5d565b909550935050608088013567ffffffffffffffff81111561302f575f5ffd5b61303b8a828b01612f5d565b989b979a50959850939692959293505050565b5f5f5f5f5f5f60808789031215613063575f5ffd5b86359550602087013567ffffffffffffffff811115613080575f5ffd5b61308c89828a01612f47565b955050604087013567ffffffffffffffff8111156130a8575f5ffd5b6130b489828a01612f5d565b909550935050606087013567ffffffffffffffff8111156130d3575f5ffd5b6130df89828a01612f5d565b979a9699509497509295939492505050565b602081525f6131036020830184612a09565b9392505050565b600181811c9082168061311e57607f821691505b602082108103612f57577f4e487b71000000000000000000000000000000000000000000000000000000005f52602260045260245ffd5b7f4e487b71000000000000000000000000000000000000000000000000000000005f52604160045260245ffd5b7f4e487b71000000000000000000000000000000000000000000000000000000005f52603260045260245ffd5b7f4e487b71000000000000000000000000000000000000000000000000000000005f52601160045260245ffd5b8181038181111561035b5761035b6131af565b5f5f83357fffffffffffffffffffffffffffffffffffffffffffffffffffffffffffffffe1843603018112613222575f5ffd5b83018035915067ffffffffffffffff82111561323c575f5ffd5b6020019150600581901b3603821315612f9b575f5ffd5b5f82357fffffffffffffffffffffffffffffffffffffffffffffffffffffffffffffffa1833603018112613285575f5ffd5b9190910192915050565b60088110611e64575f5ffd5b5f602082840312156132ab575f5ffd5b81356131038161328f565b5f5f83357fffffffffffffffffffffffffffffffffffffffffffffffffffffffffffffffe18436030181126132e9575f5ffd5b83018035915067ffffffffffffffff821115613303575f5ffd5b6020019150606081023603821315612f9b575f5ffd5b5f7fffffffffffffffffffffffffffffffffffffffffffffffffffffffffffffffff8203613349576133496131af565b5060010190565b5f82518060208501845e5f920191825250919050565b5f81613374576133746131af565b507fffffffffffffffffffffffffffffffffffffffffffffffffffffffffffffffff0190565b6fffffffffffffffffffffffffffffffff81168114611e64575f5ffd5b5f602082840312156133c7575f5ffd5b81356131038161339a565b5f82357fffffffffffffffffffffffffffffffffffffffffffffffffffffffffffffff01833603018112613285575f5ffd5b60038110611e64575f5ffd5b5f60208284031215613420575f5ffd5b813561310381613404565b5b818110156124af575f815560010161342c565b6801000000000000000082111561345857613458613155565b80548282558083101561253457815f5260205f206123bc82820185830161342b565b67ffffffffffffffff83111561349257613492613155565b61349c838261343f565b81815f5260205f205f5b858110156134c2578235828201556020909201916001016134a6565b505050505050565b680100000000000000008211156134e3576134e3613155565b80548282558083101561253457815f5260205f20601f840160051c8101601f8516801561355d577fffffffffffffffffffffffffffffffffffffffffffffffffffffffffffffffff820180547fffffffffffffffffffffffffffffffffffffffffffffffffffffffffffffffff8360200360031b1c168155505b50611dce601f840160051c83018261342b565b5f813561035b8161328f565b5f5f83357fffffffffffffffffffffffffffffffffffffffffffffffffffffffffffffffe18436030181126135af575f5ffd5b83018035915067ffffffffffffffff8211156135c9575f5ffd5b602001915036819003821315612f9b575f5ffd5b80546135e89061310a565b80156124af57601f8111600181146136015750505f9055565b5f8381526020902061361e601f840160051c82016001830161342b565b505f8381526020812081855555505050565b601f82111561253457805f5260205f20601f840160051c810160208510156136555750805b611dce601f850160051c83018261342b565b67ffffffffffffffff83111561367f5761367f613155565b6136938361368d835461310a565b83613630565b5f601f8411600181146136e3575f85156136ad5750838201355b7fffffffffffffffffffffffffffffffffffffffffffffffffffffffffffffffff600387901b1c1916600186901b178355611dce565b5f838152602081207fffffffffffffffffffffffffffffffffffffffffffffffffffffffffffffffe08716915b828110156137305786850135825560209485019460019092019101613710565b508682101561376b577fffffffffffffffffffffffffffffffffffffffffffffffffffffffffffffffff60f88860031b161c19848701351681555b505060018560011b0183555050505050565b6801000000000000000083111561379657613796613155565b8054838255808410156137d1575f828152602090208481019082015b808210156137ce576137c3826135dd565b6001820191506137b2565b50505b505f8181526020812083915b858110156134c2576137ef838661357c565b6137fa818386613667565b505060209290920191600191820191016137dd565b61381982836131ef565b67ffffffffffffffff81111561383157613831613155565b61383b818461343f565b825f5260205f205f5b8281101561386057833582820155602090930192600101613844565b505050506001810161387560208401846131ef565b67ffffffffffffffff81111561388d5761388d613155565b61389781846134ca565b5f8381526020902092508060051c5f5b818110156138fc575f5f5b60208110156138ef576138de6138c787613570565b60ff908116600384901b90811b91901b1984161790565b6020969096019591506001016138b2565b50858201556001016138a7565b507fffffffffffffffffffffffffffffffffffffffffffffffffffffffffffffffe08216808303818414613958575f5f5b82811015613952576139416138c788613570565b60209790970196915060010161392d565b50868401555b50505050505061396b60408301836131ef565b6123bc81836002860161377d565b81356139848161328f565b6008811061399457613994612b05565b815460ff82169150817fffffffffffffffffffffffffffffffffffffffffffffffffffffffffffffff00821617835560208401356139d18161339a565b70ffffffffffffffffffffffffffffffff008160081b16837fffffffffffffffffffffffffffffff0000000000000000000000000000000000841617178455505050604082013560ff81168114613a26575f5ffd5b81547fffffffffffffffffffffffffffff00ffffffffffffffffffffffffffffffffff1660889190911b71ff00000000000000000000000000000000001617905550565b68010000000000000000831115613a8357613a83613155565b805483825580841015613ab8575f828152602090208481019082015b80821015613ab5575f8255600182019150613a9f565b50505b505f8181526020812083915b858110156134c257613ad68383613979565b6060929092019160019182019101613ac4565b80545f825580156124af57815f5260205f206125348282018261342b565b5f8135801515811461035b575f5ffd5b5f813561035b81613404565b60038210613b3357613b33612b05565b805462ff00008360101b167fffffffffffffffffffffffffffffffffffffffffffffffffffffffffff00ffff8216178255505050565b60088210613b7957613b79612b05565b805463ff0000008360181b167fffffffffffffffffffffffffffffffffffffffffffffffffffffffff00ffffff8216178255505050565b613bb982613b07565b15157fffffffffffffffffffffffffffffffffffffffffffffffffffffffffffffff0082541660ff8216811783555050613c2f613bf860208401613b07565b8280547fffffffffffffffffffffffffffffffffffffffffffffffffffffffffffff00ff1691151560081b61ff0016919091179055565b613c44613c3e60408401613b17565b82613b23565b613c59613c5360608401613570565b82613b69565b613c66608083018361357c565b613c74818360018601613667565b505060a08201356002820155613c8d60c083018361357c565b613c9b818360038601613667565b5050613caa60e08301836131ef565b6123bc81836004860161347a565b68010000000000000000831115613cd157613cd1613155565b805483825580841015613da45780600502600581048214613cf457613cf46131af565b84600502600581048614613d0a57613d0a6131af565b5f8481526020902091820191015b81811015613da1575f8155613d2f600182016135dd565b5f6002820155600381018054613d449061310a565b8015613d8b57601f811160018114613d5e575f8355613d89565b5f83815260209020613d7b601f840160051c82016001830161342b565b505f83815260208120818555555b505b5050613d9960048201613ae9565b600501613d18565b50505b505f8181526020812083915b858110156134c257613dcb613dc584876133d2565b83613bb0565b6020929092019160059190910190600101613db0565b613deb82836131ef565b67ffffffffffffffff811115613e0357613e03613155565b613e0d818461343f565b825f5260205f205f5b82811015613e3257833582820155602090930192600101613e16565b50505050613e4f613e466020840184613253565b6001830161380f565b613e5c60408301836132b6565b613e6a818360048601613a6a565b5050613e7960608301836132b6565b613e87818360058601613a6a565b5050613e9660808301836131ef565b613ea4818360068601613cb8565b5050613eb360a08301836131ef565b6123bc818360078601613cb856fe506f6c6963792049442063616e6e6f7420626520302e2043726561746520706f6c696379206265666f7265207570646174696e67a26469706673582212201448cc030840a0beb1084e26e52cadb700986526995113b5682b472a45fa4b4664736f6c634300081c0033","linkReferences":{}},"methodIdentifiers":{"createRule(uint256,(uint256[],(uint256[],uint8[],bytes[]),(uint8,uint128,uint8)[],(uint8,uint128,uint8)[],(bool,bool,uint8,uint8,bytes,bytes32,string,uint256[])[],(bool,bool,uint8,uint8,bytes,bytes32,string,uint256[])[]),string,string)":"cc98aad6","deleteRule(uint256,uint256)":"a31c8ebb","getAllRules(uint256)":"266fc8a5","getRule(uint256,uint256)":"6d279ef8","getRuleMetadata(uint256,uint256)":"12602c40","memorySize()":"efe02682","opsSize1()":"abb7e00d","opsSizeUpTo2()":"835624f6","opsSizeUpTo3()":"ed361f62","opsTotalSize()":"b8f15746","updateRule(uint256,uint256,(uint256[],(uint256[],uint8[],bytes[]),(uint8,uint128,uint8)[],(uint8,uint128,uint8)[],(bool,bool,uint8,uint8,bytes,bytes32,string,uint256[])[],(bool,bool,uint8,uint8,bytes,bytes32,string,uint256[])[]),string,string)":"a57dcd5e"},"id":96}