{"abi":[{"type":"function","name":"DEFAULT_ADMIN_ROLE","inputs":[],"outputs":[{"name":"","type":"bytes32","internalType":"bytes32"}],"stateMutability":"view"},{"type":"function","name":"confirmNewCallingContractAdmin","inputs":[{"name":"callingContractAddress","type":"address","internalType":"address"}],"outputs":[],"stateMutability":"nonpayable"},{"type":"function","name":"confirmNewForeignCallAdmin","inputs":[{"name":"foreignCallContract","type":"address","internalType":"address"},{"name":"functionSignature","type":"bytes4","internalType":"bytes4"}],"outputs":[],"stateMutability":"nonpayable"},{"type":"function","name":"confirmNewPolicyAdmin","inputs":[{"name":"policyId","type":"uint256","internalType":"uint256"}],"outputs":[],"stateMutability":"nonpayable"},{"type":"function","name":"generatePolicyAdminRole","inputs":[{"name":"policyId","type":"uint256","internalType":"uint256"},{"name":"account","type":"address","internalType":"address"}],"outputs":[{"name":"","type":"bytes32","internalType":"bytes32"}],"stateMutability":"nonpayable"},{"type":"function","name":"getRoleAdmin","inputs":[{"name":"role","type":"bytes32","internalType":"bytes32"}],"outputs":[{"name":"","type":"bytes32","internalType":"bytes32"}],"stateMutability":"view"},{"type":"function","name":"getRoleMember","inputs":[{"name":"role","type":"bytes32","internalType":"bytes32"},{"name":"index","type":"uint256","internalType":"uint256"}],"outputs":[{"name":"","type":"address","internalType":"address"}],"stateMutability":"view"},{"type":"function","name":"getRoleMemberCount","inputs":[{"name":"role","type":"bytes32","internalType":"bytes32"}],"outputs":[{"name":"","type":"uint256","internalType":"uint256"}],"stateMutability":"view"},{"type":"function","name":"getRoleMembers","inputs":[{"name":"role","type":"bytes32","internalType":"bytes32"}],"outputs":[{"name":"","type":"address[]","internalType":"address[]"}],"stateMutability":"view"},{"type":"function","name":"grantCallingContractRole","inputs":[{"name":"_callingContract","type":"address","internalType":"address"},{"name":"_account","type":"address","internalType":"address"}],"outputs":[{"name":"","type":"bytes32","internalType":"bytes32"}],"stateMutability":"nonpayable"},{"type":"function","name":"grantCallingContractRoleAccessControl","inputs":[{"name":"_callingContract","type":"address","internalType":"address"},{"name":"_account","type":"address","internalType":"address"}],"outputs":[{"name":"","type":"bytes32","internalType":"bytes32"}],"stateMutability":"nonpayable"},{"type":"function","name":"grantCallingContractRoleOwnable","inputs":[{"name":"_callingContract","type":"address","internalType":"address"},{"name":"_account","type":"address","internalType":"address"}],"outputs":[{"name":"","type":"bytes32","internalType":"bytes32"}],"stateMutability":"nonpayable"},{"type":"function","name":"grantForeignCallAdminRole","inputs":[{"name":"_foreignCallContract","type":"address","internalType":"address"},{"name":"_account","type":"address","internalType":"address"},{"name":"_functionSignature","type":"bytes4","internalType":"bytes4"}],"outputs":[{"name":"","type":"bytes32","internalType":"bytes32"}],"stateMutability":"nonpayable"},{"type":"function","name":"grantRole","inputs":[{"name":"role","type":"bytes32","internalType":"bytes32"},{"name":"account","type":"address","internalType":"address"}],"outputs":[],"stateMutability":"pure"},{"type":"function","name":"hasRole","inputs":[{"name":"role","type":"bytes32","internalType":"bytes32"},{"name":"account","type":"address","internalType":"address"}],"outputs":[{"name":"","type":"bool","internalType":"bool"}],"stateMutability":"view"},{"type":"function","name":"isCallingContractAdmin","inputs":[{"name":"_callingContract","type":"address","internalType":"address"},{"name":"_account","type":"address","internalType":"address"}],"outputs":[{"name":"","type":"bool","internalType":"bool"}],"stateMutability":"view"},{"type":"function","name":"isForeignCallAdmin","inputs":[{"name":"_foreignCallContract","type":"address","internalType":"address"},{"name":"_account","type":"address","internalType":"address"},{"name":"_functionSignature","type":"bytes4","internalType":"bytes4"}],"outputs":[{"name":"","type":"bool","internalType":"bool"}],"stateMutability":"view"},{"type":"function","name":"isPolicyAdmin","inputs":[{"name":"policyId","type":"uint256","internalType":"uint256"},{"name":"account","type":"address","internalType":"address"}],"outputs":[{"name":"","type":"bool","internalType":"bool"}],"stateMutability":"view"},{"type":"function","name":"proposeNewCallingContractAdmin","inputs":[{"name":"callingContractAddress","type":"address","internalType":"address"},{"name":"newCallingContractAdmin","type":"address","internalType":"address"}],"outputs":[],"stateMutability":"nonpayable"},{"type":"function","name":"proposeNewForeignCallAdmin","inputs":[{"name":"foreignCallContract","type":"address","internalType":"address"},{"name":"newForeignCallContractAdmin","type":"address","internalType":"address"},{"name":"functionSignature","type":"bytes4","internalType":"bytes4"}],"outputs":[],"stateMutability":"nonpayable"},{"type":"function","name":"proposeNewPolicyAdmin","inputs":[{"name":"newPolicyAdmin","type":"address","internalType":"address"},{"name":"policyId","type":"uint256","internalType":"uint256"}],"outputs":[],"stateMutability":"nonpayable"},{"type":"function","name":"renounceRole","inputs":[{"name":"role","type":"bytes32","internalType":"bytes32"},{"name":"account","type":"address","internalType":"address"}],"outputs":[],"stateMutability":"nonpayable"},{"type":"function","name":"renounceRole","inputs":[{"name":"role","type":"bytes32","internalType":"bytes32"},{"name":"account","type":"address","internalType":"address"},{"name":"policyId","type":"uint256","internalType":"uint256"}],"outputs":[],"stateMutability":"nonpayable"},{"type":"function","name":"revokeRole","inputs":[{"name":"role","type":"bytes32","internalType":"bytes32"},{"name":"account","type":"address","internalType":"address"},{"name":"policyId","type":"uint256","internalType":"uint256"}],"outputs":[],"stateMutability":"nonpayable"},{"type":"function","name":"revokeRole","inputs":[{"name":"role","type":"bytes32","internalType":"bytes32"},{"name":"account","type":"address","internalType":"address"}],"outputs":[],"stateMutability":"nonpayable"},{"type":"function","name":"supportsInterface","inputs":[{"name":"interfaceId","type":"bytes4","internalType":"bytes4"}],"outputs":[{"name":"","type":"bool","internalType":"bool"}],"stateMutability":"view"},{"type":"event","name":"CallingContractAdminRoleConfirmed","inputs":[{"name":"callingContract","type":"address","indexed":true,"internalType":"address"},{"name":"adminAddress","type":"address","indexed":true,"internalType":"address"}],"anonymous":false},{"type":"event","name":"CallingContractAdminRoleGranted","inputs":[{"name":"callingContract","type":"address","indexed":true,"internalType":"address"},{"name":"adminAddress","type":"address","indexed":true,"internalType":"address"}],"anonymous":false},{"type":"event","name":"CallingContractAdminRoleProposed","inputs":[{"name":"callingContract","type":"address","indexed":true,"internalType":"address"},{"name":"proposedAdminAddress","type":"address","indexed":true,"internalType":"address"}],"anonymous":false},{"type":"event","name":"ForeignCallAdminRoleConfirmed","inputs":[{"name":"foreignCallContract","type":"address","indexed":true,"internalType":"address"},{"name":"adminAddress","type":"address","indexed":true,"internalType":"address"}],"anonymous":false},{"type":"event","name":"ForeignCallAdminRoleGranted","inputs":[{"name":"foreignCallContract","type":"address","indexed":true,"internalType":"address"},{"name":"adminAddress","type":"address","indexed":true,"internalType":"address"}],"anonymous":false},{"type":"event","name":"ForeignCallAdminRoleProposed","inputs":[{"name":"foreignCallContract","type":"address","indexed":true,"internalType":"address"},{"name":"proposedAdminAddress","type":"address","indexed":true,"internalType":"address"}],"anonymous":false},{"type":"event","name":"PolicyAdminRoleConfirmed","inputs":[{"name":"adminAddress","type":"address","indexed":true,"internalType":"address"},{"name":"policyId","type":"uint256","indexed":true,"internalType":"uint256"}],"anonymous":false},{"type":"event","name":"PolicyAdminRoleGranted","inputs":[{"name":"adminAddress","type":"address","indexed":true,"internalType":"address"},{"name":"policyId","type":"uint256","indexed":true,"internalType":"uint256"}],"anonymous":false},{"type":"event","name":"PolicyAdminRoleProposed","inputs":[{"name":"proposedAdminAddress","type":"address","indexed":true,"internalType":"address"},{"name":"policyId","type":"uint256","indexed":true,"internalType":"uint256"}],"anonymous":false},{"type":"event","name":"PolicyAdminRoleRenounced","inputs":[{"name":"adminAddress","type":"address","indexed":true,"internalType":"address"},{"name":"policyId","type":"uint256","indexed":true,"internalType":"uint256"}],"anonymous":false},{"type":"event","name":"PolicyAdminRoleRevoked","inputs":[{"name":"adminAddress","type":"address","indexed":true,"internalType":"address"},{"name":"policyId","type":"uint256","indexed":true,"internalType":"uint256"}],"anonymous":false},{"type":"event","name":"RoleAdminChanged","inputs":[{"name":"role","type":"bytes32","indexed":true,"internalType":"bytes32"},{"name":"previousAdminRole","type":"bytes32","indexed":true,"internalType":"bytes32"},{"name":"newAdminRole","type":"bytes32","indexed":true,"internalType":"bytes32"}],"anonymous":false},{"type":"event","name":"RoleGranted","inputs":[{"name":"role","type":"bytes32","indexed":true,"internalType":"bytes32"},{"name":"account","type":"address","indexed":true,"internalType":"address"},{"name":"sender","type":"address","indexed":true,"internalType":"address"}],"anonymous":false},{"type":"event","name":"RoleRevoked","inputs":[{"name":"role","type":"bytes32","indexed":true,"internalType":"bytes32"},{"name":"account","type":"address","indexed":true,"internalType":"address"},{"name":"sender","type":"address","indexed":true,"internalType":"address"}],"anonymous":false},{"type":"error","name":"AccessControlBadConfirmation","inputs":[]},{"type":"error","name":"AccessControlUnauthorizedAccount","inputs":[{"name":"account","type":"address","internalType":"address"},{"name":"neededRole","type":"bytes32","internalType":"bytes32"}]},{"type":"error","name":"ReentrancyGuardReentrantCall","inputs":[]}],"bytecode":{"object":"0x6080604052348015600e575f5ffd5b506001600255612cd8806100215f395ff3fe608060405234801561000f575f5ffd5b50600436106101a5575f3560e01c80639010d07c116100e8578063b1348c8911610093578063d27efca51161006e578063d27efca5146103c2578063d547741f1461023a578063d92f90fc146103d5578063dda335ae146103e8575f5ffd5b8063b1348c8914610389578063c976afd61461039c578063ca15c873146103af575f5ffd5b8063a217fddf116100c3578063a217fddf1461034f578063a3246ad314610356578063a8c014f414610376575f5ffd5b80639010d07c146102c1578063901cee11146102f957806391d148541461030c575f5ffd5b806336568abe116101535780635f9a9c2b1161012e5780635f9a9c2b146102755780636e9ad7561461028857806370aca0921461029b578063804ba97d146102ae575f5ffd5b806336568abe1461023a578063393093df1461024f57806341a2b7ae14610262575f5ffd5b8063261b024511610183578063261b0245146102145780632f16a358146102275780632f2ff15d1461023a575f5ffd5b806301ffc9a7146101a95780631929cb64146101d1578063248a9ca3146101f2575b5f5ffd5b6101bc6101b73660046127bf565b6103fb565b60405190151581526020015b60405180910390f35b6101e46101df3660046127f9565b610456565b6040519081526020016101c8565b6101e4610200366004612827565b5f9081526020819052604090206001015490565b6101e461022236600461283e565b610540565b6101e461023536600461283e565b6107ec565b61024d6102483660046127f9565b6109c2565b005b61024d61025d36600461286a565b610a27565b6101bc61027036600461289d565b610bf8565b61024d6102833660046128e1565b610c64565b61024d61029636600461289d565b610de1565b6101bc6102a936600461283e565b610f68565b6101e46102bc36600461283e565b610fc9565b6102d46102cf3660046128fc565b611125565b60405173ffffffffffffffffffffffffffffffffffffffff90911681526020016101c8565b6101bc6103073660046127f9565b61113c565b6101bc61031a3660046127f9565b5f9182526020828152604080842073ffffffffffffffffffffffffffffffffffffffff93909316845291905290205460ff1690565b6101e45f81565b610369610364366004612827565b61116a565b6040516101c8919061291c565b61024d61038436600461283e565b611183565b61024d610397366004612974565b611308565b61024d6103aa366004612827565b6113df565b6101e46103bd366004612827565b61155f565b61024d6103d0366004612974565b611575565b61024d6103e33660046129a9565b611647565b6101e46103f636600461289d565b6117ae565b5f7fffffffff0000000000000000000000000000000000000000000000000000000082167f5a05180f000000000000000000000000000000000000000000000000000000001480610450575061045082611dc0565b92915050565b5f61045f611e56565b3330146104bb57604051806060016040528060228152602001612bcc602291396040517f08c379a00000000000000000000000000000000000000000000000000000000081526004016104b291906129d3565b60405180910390fd5b5f6104e6847f506f6c6963795f41646d696e0000000000000000000000000000000000000000611e97565b90506104f28184611f71565b604051849073ffffffffffffffffffffffffffffffffffffffff8516907f5d8751116265daef12864a389d3a862fedd252ff2c64f06702579fbd7813e579905f90a390506104506001600255565b5f610549611e56565b73ffffffffffffffffffffffffffffffffffffffff82166105c957604080518082018252601c81527f5a65726f20416464726573732043616e6e6f742042652041646d696e00000000602082015290517f08c379a00000000000000000000000000000000000000000000000000000000081526104b291906004016129d3565b6040517f91d148540000000000000000000000000000000000000000000000000000000081527f43616c6c696e675f436f6e74726163745f41646d696e00000000000000000000600482015233602482015273ffffffffffffffffffffffffffffffffffffffff8416906391d1485490604401602060405180830381865afa158015610657573d5f5f3e3d5ffd5b505050506040513d601f19601f8201168201806040525081019061067b9190612a26565b6106cb576040518060600160405280603d8152602001612c66603d91396040517f08c379a00000000000000000000000000000000000000000000000000000000081526004016104b291906129d3565b5f6106f6847f43616c6c696e675f436f6e74726163745f41646d696e00000000000000000000612095565b5f8181526020818152604080832073ffffffffffffffffffffffffffffffffffffffff8816845290915290205490915060ff165b1561077b57604051806060016040528060268152602001612c40602691396040517f08c379a00000000000000000000000000000000000000000000000000000000081526004016104b291906129d3565b61078581846120bd565b508273ffffffffffffffffffffffffffffffffffffffff168473ffffffffffffffffffffffffffffffffffffffff167f2b474bca23ad1f8b56bb31f8c22933f265e0e15bb4fcf8bb6c9c1de01f68eb6560405160405180910390a390506104506001600255565b5f6107f5611e56565b5f610820847f43616c6c696e675f436f6e74726163745f41646d696e00000000000000000000612095565b905073ffffffffffffffffffffffffffffffffffffffff83166108a257604080518082018252601c81527f5a65726f20416464726573732043616e6e6f742042652041646d696e00000000602082015290517f08c379a00000000000000000000000000000000000000000000000000000000081526104b291906004016129d3565b8373ffffffffffffffffffffffffffffffffffffffff16638da5cb5b6040518163ffffffff1660e01b8152600401602060405180830381865afa1580156108eb573d5f5f3e3d5ffd5b505050506040513d601f19601f8201168201806040525081019061090f9190612a45565b73ffffffffffffffffffffffffffffffffffffffff163373ffffffffffffffffffffffffffffffffffffffff161461098d576040518060600160405280603d8152602001612c66603d91396040517f08c379a00000000000000000000000000000000000000000000000000000000081526004016104b291906129d3565b5f8181526020818152604080832073ffffffffffffffffffffffffffffffffffffffff8716845290915290205460ff1661072a565b604080518082018252601181527f46756e6374696f6e2064697361626c6564000000000000000000000000000000602082015290517f08c379a00000000000000000000000000000000000000000000000000000000081526104b291906004016129d3565b5f610a5c610a5684847f43616c6c696e675f436f6e74726163745f41646d696e000000000000000000006120f0565b5f611125565b9050610aa9610a8c84847f50726f706f7365645f43616c6c696e675f436f6e74726163745f41646d696e006120f0565b5f9081526020818152604080832033845290915290205460ff1690565b610b1257604080518082018252601f81527f4e6f742050726f706f73656420466f726569676e2043616c6c2041646d696e00602082015290517f08c379a00000000000000000000000000000000000000000000000000000000081526104b291906004016129d3565b610b46610b4084847f50726f706f7365645f43616c6c696e675f436f6e74726163745f41646d696e006120f0565b33612232565b50610b7b610b7584847f43616c6c696e675f436f6e74726163745f41646d696e000000000000000000006120f0565b82612232565b50610bb0610baa84847f43616c6c696e675f436f6e74726163745f41646d696e000000000000000000006120f0565b336120bd565b50604051339073ffffffffffffffffffffffffffffffffffffffff8516907f764eabd7879cb970b88d2432503ac38461be469c819e1259fc013dc1094355d5905f90a3505050565b5f610c5a610c2785847f43616c6c696e675f436f6e74726163745f41646d696e000000000000000000006120f0565b5f9081526020818152604080832073ffffffffffffffffffffffffffffffffffffffff8816845290915290205460ff1690565b90505b9392505050565b5f610c92610a56837f43616c6c696e675f436f6e74726163745f41646d696e00000000000000000000612095565b9050610cc1610a8c837f50726f706f7365645f43616c6c696e675f436f6e74726163745f41646d696e00612095565b610d1157604051806060016040528060238152602001612b83602391396040517f08c379a00000000000000000000000000000000000000000000000000000000081526004016104b291906129d3565b610d3e610b40837f50726f706f7365645f43616c6c696e675f436f6e74726163745f41646d696e00612095565b50610d6c610b75837f43616c6c696e675f436f6e74726163745f41646d696e00000000000000000000612095565b50610d9a610baa837f43616c6c696e675f436f6e74726163745f41646d696e00000000000000000000612095565b50604051339073ffffffffffffffffffffffffffffffffffffffff8416907ffa5350a8d644c6aa3e792a6a6b7976e28cf5ba5fec66f6eefc2829f0ca689c41905f90a35050565b610deb8333610f68565b610e5457604080518082018252601681527f4e6f7420466f726569676e2043616c6c2041646d696e00000000000000000000602082015290517f08c379a00000000000000000000000000000000000000000000000000000000081526104b291906004016129d3565b73ffffffffffffffffffffffffffffffffffffffff8216610ed457604080518082018252601c81527f5a65726f20416464726573732043616e6e6f742042652041646d696e00000000602082015290517f08c379a00000000000000000000000000000000000000000000000000000000081526104b291906004016129d3565b610f08610f0284837f50726f706f7365645f43616c6c696e675f436f6e74726163745f41646d696e006120f0565b836120bd565b508173ffffffffffffffffffffffffffffffffffffffff168373ffffffffffffffffffffffffffffffffffffffff167fcf8d4fff2a6296918742799a620a4a7a35bf58f7695a44eefb29a5bae57bc23f60405160405180910390a3505050565b5f610c5d610f96847f43616c6c696e675f436f6e74726163745f41646d696e00000000000000000000612095565b5f9081526020818152604080832073ffffffffffffffffffffffffffffffffffffffff8716845290915290205460ff1690565b5f610fd2611e56565b73ffffffffffffffffffffffffffffffffffffffff821661105257604080518082018252601c81527f5a65726f20416464726573732043616e6e6f742042652041646d696e00000000602082015290517f08c379a00000000000000000000000000000000000000000000000000000000081526104b291906004016129d3565b3373ffffffffffffffffffffffffffffffffffffffff8416146110bb57604051806060016040528060268152602001612ba6602691396040517f08c379a00000000000000000000000000000000000000000000000000000000081526004016104b291906129d3565b8273ffffffffffffffffffffffffffffffffffffffff163b5f036106cb57604051806060016040528060268152602001612ba6602691396040517f08c379a00000000000000000000000000000000000000000000000000000000081526004016104b291906129d3565b5f828152600160205260408120610c5d908361225d565b5f610c5d610f96847f506f6c6963795f41646d696e0000000000000000000000000000000000000000611e97565b5f81815260016020526040902060609061045090612268565b61118d8233610f68565b6111f657604080518082018252601a81527f4e6f742043616c6c696e6720436f6e74726163742041646d696e000000000000602082015290517f08c379a00000000000000000000000000000000000000000000000000000000081526104b291906004016129d3565b73ffffffffffffffffffffffffffffffffffffffff811661127657604080518082018252601c81527f5a65726f20416464726573732043616e6e6f742042652041646d696e00000000602082015290517f08c379a00000000000000000000000000000000000000000000000000000000081526104b291906004016129d3565b6112a96112a3837f50726f706f7365645f43616c6c696e675f436f6e74726163745f41646d696e00612095565b826120bd565b508073ffffffffffffffffffffffffffffffffffffffff168273ffffffffffffffffffffffffffffffffffffffff167f7d2c38c3c31fae4a580fef38a6b852d68e5e78ecd34b57fce25d387127bc713d60405160405180910390a35050565b611310611e56565b61131a818361113c565b1561138457604080518082018252601981527f42656c6f77204d696e2041646d696e205468726573686f6c6400000000000000602082015290517f08c379a00000000000000000000000000000000000000000000000000000000081526104b291906004016129d3565b61138e8383612274565b604051819073ffffffffffffffffffffffffffffffffffffffff8416907fa18e7770c8bee6a49fd728f59c26eb9a0293f6ab4195bb3672cc26ea098644ba905f90a36113da6001600255565b505050565b5f61140d610a56837f506f6c6963795f41646d696e0000000000000000000000000000000000000000611e97565b905061143c610a8c837f50726f706f7365645f506f6c6963795f41646d696e0000000000000000000000611e97565b6114a557604080518082018252601981527f4e6f742050726f706f73656420506f6c6963792041646d696e00000000000000602082015290517f08c379a00000000000000000000000000000000000000000000000000000000081526104b291906004016129d3565b6114d2610b40837f50726f706f7365645f506f6c6963795f41646d696e0000000000000000000000611e97565b50611500610b75837f506f6c6963795f41646d696e0000000000000000000000000000000000000000611e97565b5061152e610baa837f506f6c6963795f41646d696e0000000000000000000000000000000000000000611e97565b50604051829033907f14ca48cb26e98f4c91402fa960abe9a5c1f5d5478f39a7e544901e6e48e108dd905f90a35050565b5f818152600160205260408120610450906122cd565b61157d611e56565b611587818361113c565b156115f157604080518082018252601981527f42656c6f77204d696e2041646d696e205468726573686f6c6400000000000000602082015290517f08c379a00000000000000000000000000000000000000000000000000000000081526104b291906004016129d3565b6115fb83836122d6565b604051819073ffffffffffffffffffffffffffffffffffffffff8416907fcdee8d3f2327f159a26a6a91394457975866d642f5531884dd73711727595a12905f90a36113da6001600255565b611651813361113c565b6116ba57604080518082018252601081527f4e6f7420506f6c6963792041646d696e00000000000000000000000000000000602082015290517f08c379a00000000000000000000000000000000000000000000000000000000081526104b291906004016129d3565b73ffffffffffffffffffffffffffffffffffffffff821661173a57604080518082018252601c81527f5a65726f20416464726573732043616e6e6f742042652041646d696e00000000602082015290517f08c379a00000000000000000000000000000000000000000000000000000000081526104b291906004016129d3565b611767610f02827f50726f706f7365645f506f6c6963795f41646d696e0000000000000000000000611e97565b50604051819073ffffffffffffffffffffffffffffffffffffffff8416907f3b0f200412e09c80b1126912caf7c728d400faf0ec6786b54d60af413d377ead905f90a35050565b5f6117b7611e56565b73ffffffffffffffffffffffffffffffffffffffff831661183757604080518082018252601c81527f5a65726f20416464726573732043616e6e6f742042652041646d696e00000000602082015290517f08c379a00000000000000000000000000000000000000000000000000000000081526104b291906004016129d3565b3373ffffffffffffffffffffffffffffffffffffffff8516146118a057604051806060016040528060308152602001612bee603091396040517f08c379a00000000000000000000000000000000000000000000000000000000081526004016104b291906129d3565b8373ffffffffffffffffffffffffffffffffffffffff163b5f0361190a57604051806060016040528060308152602001612bee603091396040517f08c379a00000000000000000000000000000000000000000000000000000000081526004016104b291906129d3565b7fffffffff00000000000000000000000000000000000000000000000000000000821661199657604080518082018252601481527f466f726569676e2043616c6c204e6f7420536574000000000000000000000000602082015290517f08c379a00000000000000000000000000000000000000000000000000000000081526104b291906004016129d3565b5f6119c285847f43616c6c696e675f436f6e74726163745f41646d696e000000000000000000006120f0565b5f8181526020818152604080832073ffffffffffffffffffffffffffffffffffffffff8916845290915290205490915060ff1615611a4657604051806060016040528060228152602001612c1e602291396040517f08c379a00000000000000000000000000000000000000000000000000000000081526004016104b291906129d3565b611a5081856120bd565b505f611a5a612300565b73ffffffffffffffffffffffffffffffffffffffff87165f90815260028201602090815260408083207fffffffff0000000000000000000000000000000000000000000000000000000089168452909152812080547fffffffffffffffffffffffffffffffffffffffffffffffffffffffffffffff00166001179055909150611ae161232d565b9050805f0187908060018154018082558091505060019003905f5260205f20015f9091909190916101000a81548173ffffffffffffffffffffffffffffffffffffffff021916908373ffffffffffffffffffffffffffffffffffffffff1602179055508060010185908060018154018082558091505060019003905f5260205f2090600891828204019190066004029091909190916101000a81548163ffffffff021916908360e01c0217905550816004015f8873ffffffffffffffffffffffffffffffffffffffff1673ffffffffffffffffffffffffffffffffffffffff1681526020019081526020015f205f867bffffffffffffffffffffffffffffffffffffffffffffffffffffffff19167bffffffffffffffffffffffffffffffffffffffffffffffffffffffff191681526020019081526020015f2086908060018154018082558091505060019003905f5260205f20015f9091909190916101000a81548173ffffffffffffffffffffffffffffffffffffffff021916908373ffffffffffffffffffffffffffffffffffffffff1602179055506001826003015f8973ffffffffffffffffffffffffffffffffffffffff1673ffffffffffffffffffffffffffffffffffffffff1681526020019081526020015f205f877bffffffffffffffffffffffffffffffffffffffffffffffffffffffff19167bffffffffffffffffffffffffffffffffffffffffffffffffffffffff191681526020019081526020015f205f8873ffffffffffffffffffffffffffffffffffffffff1673ffffffffffffffffffffffffffffffffffffffff1681526020019081526020015f205f6101000a81548160ff0219169083151502179055508573ffffffffffffffffffffffffffffffffffffffff168773ffffffffffffffffffffffffffffffffffffffff167f1fc1e76e7979d46f5dc34b12fc88668567593b51c7e2358d69d06394e4fe47a160405160405180910390a3505060016002559050610c5d565b5f7fffffffff0000000000000000000000000000000000000000000000000000000082167f7965db0b00000000000000000000000000000000000000000000000000000000148061045057507f01ffc9a7000000000000000000000000000000000000000000000000000000007fffffffff00000000000000000000000000000000000000000000000000000000831614610450565b6002805403611e91576040517f3ee5aeb500000000000000000000000000000000000000000000000000000000815260040160405180910390fd5b60028055565b5f82604051602001611eab91815260200190565b604080517fffffffffffffffffffffffffffffffffffffffffffffffffffffffffffffffe0818403018152828252602083018590529101604080517fffffffffffffffffffffffffffffffffffffffffffffffffffffffffffffffe081840301815290829052611f1e9291602001612a77565b604080517fffffffffffffffffffffffffffffffffffffffffffffffffffffffffffffffe081840301815282825280516020918201209083015201604051602081830303815290604052610c5d90612a8b565b73ffffffffffffffffffffffffffffffffffffffff8116611ff157604080518082018252601c81527f5a65726f20416464726573732043616e6e6f742042652041646d696e00000000602082015290517f08c379a00000000000000000000000000000000000000000000000000000000081526104b291906004016129d3565b5f8281526020818152604080832073ffffffffffffffffffffffffffffffffffffffff8516845290915290205460ff161561208b57604080518082018252601c81527f506f6c6963792041646d696e20416c7265616479204372656174656400000000602082015290517f08c379a00000000000000000000000000000000000000000000000000000000081526104b291906004016129d3565b6113da82826120bd565b6040805173ffffffffffffffffffffffffffffffffffffffff841660208201525f9101611eab565b5f5f6120c9848461235a565b90508015610c5d575f8481526001602052604090206120e89084612453565b509392505050565b6040805173ffffffffffffffffffffffffffffffffffffffff851660208201525f9101604080517fffffffffffffffffffffffffffffffffffffffffffffffffffffffffffffffe08184030181528282527fffffffff00000000000000000000000000000000000000000000000000000000861660208401529101604080517fffffffffffffffffffffffffffffffffffffffffffffffffffffffffffffffe0818403018152828252602083018690529101604080517fffffffffffffffffffffffffffffffffffffffffffffffffffffffffffffffe0818403018152908290526121df939291602001612ad0565b604080517fffffffffffffffffffffffffffffffffffffffffffffffffffffffffffffffe081840301815282825280516020918201209083015201604051602081830303815290604052610c5a90612a8b565b5f5f61223e8484612474565b90508015610c5d575f8481526001602052604090206120e8908461252d565b5f610c5d838361254e565b60605f610c5d83612574565b73ffffffffffffffffffffffffffffffffffffffff811633146122c3576040517f6697b23200000000000000000000000000000000000000000000000000000000815260040160405180910390fd5b6113da8282612232565b5f610450825490565b5f828152602081905260409020600101546122f0816125cd565b6122fa8383612232565b50505050565b5f8061045060017f1f3305601ed940efccf797d76856e5fe70659a8a6905d64c9f236321df91e718612af0565b5f8061045060017f3c401fd2932622880eb0dc8877cc070591b51eaaa3bb9dfbc1718d869b7a12b3612af0565b5f8281526020818152604080832073ffffffffffffffffffffffffffffffffffffffff8516845290915281205460ff1661244c575f8381526020818152604080832073ffffffffffffffffffffffffffffffffffffffff86168452909152902080547fffffffffffffffffffffffffffffffffffffffffffffffffffffffffffffff001660011790556123ea3390565b73ffffffffffffffffffffffffffffffffffffffff168273ffffffffffffffffffffffffffffffffffffffff16847f2f8788117e7eff1d82e926ec794901d17c78024a50270940304540a733656f0d60405160405180910390a4506001610450565b505f610450565b5f610c5d8373ffffffffffffffffffffffffffffffffffffffff84166125da565b5f8281526020818152604080832073ffffffffffffffffffffffffffffffffffffffff8516845290915281205460ff161561244c575f8381526020818152604080832073ffffffffffffffffffffffffffffffffffffffff8616808552925280832080547fffffffffffffffffffffffffffffffffffffffffffffffffffffffffffffff0016905551339286917ff6391f5c32d9c69d2a47ea670b442974b53935d1edc7fd64eb21e047a839171b9190a4506001610450565b5f610c5d8373ffffffffffffffffffffffffffffffffffffffff841661261f565b5f825f01828154811061256357612563612b28565b905f5260205f200154905092915050565b6060815f018054806020026020016040519081016040528092919081815260200182805480156125c157602002820191905f5260205f20905b8154815260200190600101908083116125ad575b50505050509050919050565b6125d78133612702565b50565b5f81815260018301602052604081205461244c57508154600181810184555f848152602080822090930184905584548482528286019093526040902091909155610450565b5f81815260018301602052604081205480156126f9575f612641600183612af0565b85549091505f9061265490600190612af0565b90508082146126b3575f865f01828154811061267257612672612b28565b905f5260205f200154905080875f01848154811061269257612692612b28565b5f918252602080832090910192909255918252600188019052604090208390555b85548690806126c4576126c4612b55565b600190038181905f5260205f20015f90559055856001015f8681526020019081526020015f205f905560019350505050610450565b5f915050610450565b5f8281526020818152604080832073ffffffffffffffffffffffffffffffffffffffff8516845290915290205460ff16612787576040517fe2517d3f00000000000000000000000000000000000000000000000000000000815273ffffffffffffffffffffffffffffffffffffffff82166004820152602481018390526044016104b2565b5050565b80357fffffffff00000000000000000000000000000000000000000000000000000000811681146127ba575f5ffd5b919050565b5f602082840312156127cf575f5ffd5b610c5d8261278b565b73ffffffffffffffffffffffffffffffffffffffff811681146125d7575f5ffd5b5f5f6040838503121561280a575f5ffd5b82359150602083013561281c816127d8565b809150509250929050565b5f60208284031215612837575f5ffd5b5035919050565b5f5f6040838503121561284f575f5ffd5b823561285a816127d8565b9150602083013561281c816127d8565b5f5f6040838503121561287b575f5ffd5b8235612886816127d8565b91506128946020840161278b565b90509250929050565b5f5f5f606084860312156128af575f5ffd5b83356128ba816127d8565b925060208401356128ca816127d8565b91506128d86040850161278b565b90509250925092565b5f602082840312156128f1575f5ffd5b8135610c5d816127d8565b5f5f6040838503121561290d575f5ffd5b50508035926020909101359150565b602080825282518282018190525f918401906040840190835b8181101561296957835173ffffffffffffffffffffffffffffffffffffffff16835260209384019390920191600101612935565b509095945050505050565b5f5f5f60608486031215612986575f5ffd5b833592506020840135612998816127d8565b929592945050506040919091013590565b5f5f604083850312156129ba575f5ffd5b82356129c5816127d8565b946020939093013593505050565b602081525f82518060208401528060208501604085015e5f6040828501015260407fffffffffffffffffffffffffffffffffffffffffffffffffffffffffffffffe0601f83011684010191505092915050565b5f60208284031215612a36575f5ffd5b81518015158114610c5d575f5ffd5b5f60208284031215612a55575f5ffd5b8151610c5d816127d8565b5f81518060208401855e5f93019283525090919050565b5f610c5a612a858386612a60565b84612a60565b80516020808301519190811015612aca577fffffffffffffffffffffffffffffffffffffffffffffffffffffffffffffffff8160200360031b1b821691505b50919050565b5f612ae7612a85612ae18488612a60565b86612a60565b95945050505050565b81810381811115610450577f4e487b71000000000000000000000000000000000000000000000000000000005f52601160045260245ffd5b7f4e487b71000000000000000000000000000000000000000000000000000000005f52603260045260245ffd5b7f4e487b71000000000000000000000000000000000000000000000000000000005f52603160045260245ffdfe4e6f742050726f706f7365642043616c6c696e6720436f6e74726163742041646d696e4f6e6c792043616c6c696e6720436f6e74726163742043616e204372656174652041646d696e4f6e6c7952756c6573456e67696e6543616e43726561746541646d696e526f6c65734f6e6c7920466f726569676e2043616c6c20436f6e74726163742043616e204372656174652041646d696e20526f6c65466f726569676e2043616c6c2041646d696e20416c7265616479204772616e74656443616c6c696e6720436f6e74726163742041646d696e20416c7265616479204772616e74656443616c6c696e6720436f6e74726163742041646d696e20526f6c65204e6f74204772616e7465642046726f6d2043616c6c696e6720436f6e7472616374a264697066735822122074cd76609a3d53691b7c74e6133a189d691bb2176643ec7dc6c6807e8f9faeb964736f6c634300081c0033","linkReferences":{}},"methodIdentifiers":{"DEFAULT_ADMIN_ROLE()":"a217fddf","confirmNewCallingContractAdmin(address)":"5f9a9c2b","confirmNewForeignCallAdmin(address,bytes4)":"393093df","confirmNewPolicyAdmin(uint256)":"c976afd6","generatePolicyAdminRole(uint256,address)":"1929cb64","getRoleAdmin(bytes32)":"248a9ca3","getRoleMember(bytes32,uint256)":"9010d07c","getRoleMemberCount(bytes32)":"ca15c873","getRoleMembers(bytes32)":"a3246ad3","grantCallingContractRole(address,address)":"804ba97d","grantCallingContractRoleAccessControl(address,address)":"261b0245","grantCallingContractRoleOwnable(address,address)":"2f16a358","grantForeignCallAdminRole(address,address,bytes4)":"dda335ae","grantRole(bytes32,address)":"2f2ff15d","hasRole(bytes32,address)":"91d14854","isCallingContractAdmin(address,address)":"70aca092","isForeignCallAdmin(address,address,bytes4)":"41a2b7ae","isPolicyAdmin(uint256,address)":"901cee11","proposeNewCallingContractAdmin(address,address)":"a8c014f4","proposeNewForeignCallAdmin(address,address,bytes4)":"6e9ad756","proposeNewPolicyAdmin(address,uint256)":"d92f90fc","renounceRole(bytes32,address)":"36568abe","renounceRole(bytes32,address,uint256)":"b1348c89","revokeRole(bytes32,address)":"d547741f","revokeRole(bytes32,address,uint256)":"d27efca5","supportsInterface(bytes4)":"01ffc9a7"},"id":89}