{"abi":[{"type":"function","name":"addAdminToPermissionList","inputs":[{"name":"foriegnCallAddress","type":"address","internalType":"address"},{"name":"policyAdminsToAdd","type":"address","internalType":"address"},{"name":"selector","type":"bytes4","internalType":"bytes4"}],"outputs":[],"stateMutability":"nonpayable"},{"type":"function","name":"createForeignCall","inputs":[{"name":"_policyId","type":"uint256","internalType":"uint256"},{"name":"_foreignCall","type":"tuple","internalType":"struct ForeignCall","components":[{"name":"set","type":"bool","internalType":"bool"},{"name":"foreignCallAddress","type":"address","internalType":"address"},{"name":"signature","type":"bytes4","internalType":"bytes4"},{"name":"returnType","type":"uint8","internalType":"enum ParamTypes"},{"name":"foreignCallIndex","type":"uint256","internalType":"uint256"},{"name":"parameterTypes","type":"uint8[]","internalType":"enum ParamTypes[]"},{"name":"encodedIndices","type":"tuple[]","internalType":"struct ForeignCallEncodedIndex[]","components":[{"name":"eType","type":"uint8","internalType":"enum EncodedIndexType"},{"name":"index","type":"uint256","internalType":"uint256"}]},{"name":"mappedTrackerKeyIndices","type":"tuple[]","internalType":"struct ForeignCallEncodedIndex[]","components":[{"name":"eType","type":"uint8","internalType":"enum EncodedIndexType"},{"name":"index","type":"uint256","internalType":"uint256"}]},{"name":"callingFunctionIndex","type":"uint256","internalType":"uint256"}]},{"name":"foreignCallName","type":"string","internalType":"string"}],"outputs":[{"name":"","type":"uint256","internalType":"uint256"}],"stateMutability":"nonpayable"},{"type":"function","name":"deleteForeignCall","inputs":[{"name":"policyId","type":"uint256","internalType":"uint256"},{"name":"foreignCallId","type":"uint256","internalType":"uint256"}],"outputs":[],"stateMutability":"nonpayable"},{"type":"function","name":"getAllForeignCalls","inputs":[{"name":"policyId","type":"uint256","internalType":"uint256"}],"outputs":[{"name":"","type":"tuple[]","internalType":"struct ForeignCall[]","components":[{"name":"set","type":"bool","internalType":"bool"},{"name":"foreignCallAddress","type":"address","internalType":"address"},{"name":"signature","type":"bytes4","internalType":"bytes4"},{"name":"returnType","type":"uint8","internalType":"enum ParamTypes"},{"name":"foreignCallIndex","type":"uint256","internalType":"uint256"},{"name":"parameterTypes","type":"uint8[]","internalType":"enum ParamTypes[]"},{"name":"encodedIndices","type":"tuple[]","internalType":"struct ForeignCallEncodedIndex[]","components":[{"name":"eType","type":"uint8","internalType":"enum EncodedIndexType"},{"name":"index","type":"uint256","internalType":"uint256"}]},{"name":"mappedTrackerKeyIndices","type":"tuple[]","internalType":"struct ForeignCallEncodedIndex[]","components":[{"name":"eType","type":"uint8","internalType":"enum EncodedIndexType"},{"name":"index","type":"uint256","internalType":"uint256"}]},{"name":"callingFunctionIndex","type":"uint256","internalType":"uint256"}]}],"stateMutability":"view"},{"type":"function","name":"getAllPermissionedFCs","inputs":[],"outputs":[{"name":"","type":"tuple","internalType":"struct PermissionedForeignCallStorage","components":[{"name":"permissionedForeignCallAddresses","type":"address[]","internalType":"address[]"},{"name":"permissionedForeignCallSignatures","type":"bytes4[]","internalType":"bytes4[]"}]}],"stateMutability":"pure"},{"type":"function","name":"getForeignCall","inputs":[{"name":"policyId","type":"uint256","internalType":"uint256"},{"name":"foreignCallId","type":"uint256","internalType":"uint256"}],"outputs":[{"name":"","type":"tuple","internalType":"struct ForeignCall","components":[{"name":"set","type":"bool","internalType":"bool"},{"name":"foreignCallAddress","type":"address","internalType":"address"},{"name":"signature","type":"bytes4","internalType":"bytes4"},{"name":"returnType","type":"uint8","internalType":"enum ParamTypes"},{"name":"foreignCallIndex","type":"uint256","internalType":"uint256"},{"name":"parameterTypes","type":"uint8[]","internalType":"enum ParamTypes[]"},{"name":"encodedIndices","type":"tuple[]","internalType":"struct ForeignCallEncodedIndex[]","components":[{"name":"eType","type":"uint8","internalType":"enum EncodedIndexType"},{"name":"index","type":"uint256","internalType":"uint256"}]},{"name":"mappedTrackerKeyIndices","type":"tuple[]","internalType":"struct ForeignCallEncodedIndex[]","components":[{"name":"eType","type":"uint8","internalType":"enum EncodedIndexType"},{"name":"index","type":"uint256","internalType":"uint256"}]},{"name":"callingFunctionIndex","type":"uint256","internalType":"uint256"}]}],"stateMutability":"view"},{"type":"function","name":"getForeignCallMetadata","inputs":[{"name":"policyId","type":"uint256","internalType":"uint256"},{"name":"foreignCallId","type":"uint256","internalType":"uint256"}],"outputs":[{"name":"","type":"string","internalType":"string"}],"stateMutability":"view"},{"type":"function","name":"getForeignCallPermissionList","inputs":[{"name":"foriegnCallAddress","type":"address","internalType":"address"},{"name":"selector","type":"bytes4","internalType":"bytes4"}],"outputs":[{"name":"","type":"address[]","internalType":"address[]"}],"stateMutability":"view"},{"type":"function","name":"removeAllFromPermissionList","inputs":[{"name":"foriegnCallAddress","type":"address","internalType":"address"},{"name":"selector","type":"bytes4","internalType":"bytes4"}],"outputs":[],"stateMutability":"nonpayable"},{"type":"function","name":"removeForeignCallPermissions","inputs":[{"name":"_foriegnCallAddress","type":"address","internalType":"address"},{"name":"_selector","type":"bytes4","internalType":"bytes4"}],"outputs":[],"stateMutability":"nonpayable"},{"type":"function","name":"removeFromPermissionList","inputs":[{"name":"_foriegnCallAddress","type":"address","internalType":"address"},{"name":"_selector","type":"bytes4","internalType":"bytes4"},{"name":"policyAdminToRemove","type":"address","internalType":"address"}],"outputs":[],"stateMutability":"nonpayable"},{"type":"function","name":"updateForeignCall","inputs":[{"name":"policyId","type":"uint256","internalType":"uint256"},{"name":"foreignCallId","type":"uint256","internalType":"uint256"},{"name":"foreignCall","type":"tuple","internalType":"struct ForeignCall","components":[{"name":"set","type":"bool","internalType":"bool"},{"name":"foreignCallAddress","type":"address","internalType":"address"},{"name":"signature","type":"bytes4","internalType":"bytes4"},{"name":"returnType","type":"uint8","internalType":"enum ParamTypes"},{"name":"foreignCallIndex","type":"uint256","internalType":"uint256"},{"name":"parameterTypes","type":"uint8[]","internalType":"enum ParamTypes[]"},{"name":"encodedIndices","type":"tuple[]","internalType":"struct ForeignCallEncodedIndex[]","components":[{"name":"eType","type":"uint8","internalType":"enum EncodedIndexType"},{"name":"index","type":"uint256","internalType":"uint256"}]},{"name":"mappedTrackerKeyIndices","type":"tuple[]","internalType":"struct ForeignCallEncodedIndex[]","components":[{"name":"eType","type":"uint8","internalType":"enum EncodedIndexType"},{"name":"index","type":"uint256","internalType":"uint256"}]},{"name":"callingFunctionIndex","type":"uint256","internalType":"uint256"}]}],"outputs":[{"name":"fc","type":"tuple","internalType":"struct ForeignCall","components":[{"name":"set","type":"bool","internalType":"bool"},{"name":"foreignCallAddress","type":"address","internalType":"address"},{"name":"signature","type":"bytes4","internalType":"bytes4"},{"name":"returnType","type":"uint8","internalType":"enum ParamTypes"},{"name":"foreignCallIndex","type":"uint256","internalType":"uint256"},{"name":"parameterTypes","type":"uint8[]","internalType":"enum ParamTypes[]"},{"name":"encodedIndices","type":"tuple[]","internalType":"struct ForeignCallEncodedIndex[]","components":[{"name":"eType","type":"uint8","internalType":"enum EncodedIndexType"},{"name":"index","type":"uint256","internalType":"uint256"}]},{"name":"mappedTrackerKeyIndices","type":"tuple[]","internalType":"struct ForeignCallEncodedIndex[]","components":[{"name":"eType","type":"uint8","internalType":"enum EncodedIndexType"},{"name":"index","type":"uint256","internalType":"uint256"}]},{"name":"callingFunctionIndex","type":"uint256","internalType":"uint256"}]}],"stateMutability":"nonpayable"},{"type":"function","name":"updatePermissionList","inputs":[{"name":"foriegnCallAddress","type":"address","internalType":"address"},{"name":"selector","type":"bytes4","internalType":"bytes4"},{"name":"policyAdminsToAdd","type":"address[]","internalType":"address[]"}],"outputs":[],"stateMutability":"nonpayable"},{"type":"event","name":"AdminAddedToForeignCallPermissions","inputs":[{"name":"foreignCallContract","type":"address","indexed":true,"internalType":"address"},{"name":"selector","type":"bytes4","indexed":true,"internalType":"bytes4"},{"name":"adminAddress","type":"address","indexed":true,"internalType":"address"}],"anonymous":false},{"type":"event","name":"ForeignCallCreated","inputs":[{"name":"policyId","type":"uint256","indexed":true,"internalType":"uint256"},{"name":"foreignCallId","type":"uint256","indexed":true,"internalType":"uint256"}],"anonymous":false},{"type":"event","name":"ForeignCallDeleted","inputs":[{"name":"policyId","type":"uint256","indexed":true,"internalType":"uint256"},{"name":"foreignCallId","type":"uint256","indexed":true,"internalType":"uint256"}],"anonymous":false},{"type":"event","name":"ForeignCallPermissionsListReset","inputs":[{"name":"foreignCallContract","type":"address","indexed":true,"internalType":"address"},{"name":"selector","type":"bytes4","indexed":true,"internalType":"bytes4"}],"anonymous":false},{"type":"event","name":"ForeignCallPermissionsListUpdate","inputs":[{"name":"foreignCallContract","type":"address","indexed":true,"internalType":"address"},{"name":"selector","type":"bytes4","indexed":true,"internalType":"bytes4"},{"name":"adminAddresses","type":"address[]","indexed":true,"internalType":"address[]"}],"anonymous":false},{"type":"event","name":"ForeignCallPermissionsRemoved","inputs":[{"name":"foreignCallContract","type":"address","indexed":true,"internalType":"address"},{"name":"selector","type":"bytes4","indexed":true,"internalType":"bytes4"}],"anonymous":false},{"type":"event","name":"ForeignCallUpdated","inputs":[{"name":"policyId","type":"uint256","indexed":true,"internalType":"uint256"},{"name":"foreignCallId","type":"uint256","indexed":true,"internalType":"uint256"}],"anonymous":false}],"bytecode":{"object":"0x6080604052348015600e575f5ffd5b50613ea38061001c5f395ff3fe608060405234801561000f575f5ffd5b50600436106100da575f3560e01c8063d82260c811610088578063edf4b8b911610063578063edf4b8b9146101c7578063ef3ea06c146101da578063f0e9d744146101ed578063f69187ee14610200575f5ffd5b8063d82260c814610181578063da7d5d2814610194578063e06e2b00146101b4575f5ffd5b80638f470037116100b85780638f4700371461012c57806392ee33ae14610141578063a3937e9914610161575f5ffd5b8063028206ac146100de5780630d5d9cb0146100f35780636071d6b614610106575b5f5ffd5b6100f16100ec366004612ab2565b610220565b005b6100f1610101366004612be6565b61050d565b610119610114366004612cc2565b6108c4565b6040519081526020015b60405180910390f35b610134610958565b6040516101239190612d5f565b61015461014f366004612e4f565b610a7d565b6040516101239190612e86565b61017461016f366004612ed3565b610b42565b60405161012391906130a1565b6100f161018f366004613122565b610f21565b6101a76101a2366004613122565b610fe5565b6040516101239190613142565b6100f16101c236600461315b565b6112e4565b6101a76101d5366004613198565b611455565b6100f16101e8366004612e4f565b611527565b6100f16101fb366004612e4f565b61174e565b61021361020e366004613122565b611c8f565b60405161012391906131e4565b61022b833384611d33565b5f610234611eae565b73ffffffffffffffffffffffffffffffffffffffff8581165f908152600392909201602090815260408084207fffffffff000000000000000000000000000000000000000000000000000000008816855282528084209286168452919052812080547fffffffffffffffffffffffffffffffffffffffffffffffffffffffffffffff0016921515929092179091556102ca611eae565b73ffffffffffffffffffffffffffffffffffffffff85165f908152600491909101602090815260408083207fffffffff0000000000000000000000000000000000000000000000000000000087168452909152812091505b815481101561048d578273ffffffffffffffffffffffffffffffffffffffff1682828154811061035457610354613237565b5f9182526020909120015473ffffffffffffffffffffffffffffffffffffffff1603610485578154829061038a90600190613291565b8154811061039a5761039a613237565b905f5260205f20015f9054906101000a900473ffffffffffffffffffffffffffffffffffffffff168282815481106103d4576103d4613237565b905f5260205f20015f6101000a81548173ffffffffffffffffffffffffffffffffffffffff021916908373ffffffffffffffffffffffffffffffffffffffff16021790555081805480610429576104296132a4565b5f8281526020902081017fffffffffffffffffffffffffffffffffffffffffffffffffffffffffffffffff90810180547fffffffffffffffffffffffff000000000000000000000000000000000000000016905501905561048d565b600101610322565b508060405161049c91906132d1565b604051908190038120907fffffffff0000000000000000000000000000000000000000000000000000000085169073ffffffffffffffffffffffffffffffffffffffff8716907fb58e00a4bda1b49dca44b68b8c6d7350e8afef69a6f7f9241c971d2116b239a0905f90a450505050565b610518833384611d33565b610520611eae565b73ffffffffffffffffffffffffffffffffffffffff84165f908152600491909101602090815260408083207fffffffff0000000000000000000000000000000000000000000000000000000086168452909152812061057e91612999565b5f6105898484610a7d565b90505f5b815181101561066f575f61059f611eae565b73ffffffffffffffffffffffffffffffffffffffff87165f908152600391909101602090815260408083207fffffffff00000000000000000000000000000000000000000000000000000000891684529091528120845190919085908590811061060b5761060b613237565b60209081029190910181015173ffffffffffffffffffffffffffffffffffffffff1682528101919091526040015f2080547fffffffffffffffffffffffffffffffffffffffffffffffffffffffffffffff001691151591909117905560010161058d565b505f5b82518110156108b557610683611eae565b73ffffffffffffffffffffffffffffffffffffffff86165f908152600491909101602090815260408083207fffffffff0000000000000000000000000000000000000000000000000000000088168452909152902083518490839081106106ec576106ec613237565b6020908102919091018101518254600180820185555f9485529290932090920180547fffffffffffffffffffffffff00000000000000000000000000000000000000001673ffffffffffffffffffffffffffffffffffffffff90931692909217909155610757611eae565b73ffffffffffffffffffffffffffffffffffffffff87165f908152600391909101602090815260408083207fffffffff0000000000000000000000000000000000000000000000000000000089168452909152812085519091908690859081106107c3576107c3613237565b602002602001015173ffffffffffffffffffffffffffffffffffffffff1673ffffffffffffffffffffffffffffffffffffffff1681526020019081526020015f205f6101000a81548160ff02191690831515021790555082818151811061082c5761082c613237565b602002602001015173ffffffffffffffffffffffffffffffffffffffff16847bffffffffffffffffffffffffffffffffffffffffffffffffffffffff19168673ffffffffffffffffffffffffffffffffffffffff167f2a60b6a2eb5984d2479df172f3d9b813931c413ee94ceb51971dc6fd45f6ac5260405160405180910390a4600101610672565b508160405161049c9190613320565b5f6108cf8533611edb565b6108d88561203c565b6109006108eb6040860160208701613360565b6108fb606087016040880161337b565b6120ce565b5f61090a866121f6565b9050610917868683612228565b61092386828686612251565b604051819087907f9006068daf408b7e36a22c789f04c4ba9c6c638a6cf8438c2250583384f2192f905f90a395945050505050565b6040805180820190915260608082526020820152610974612332565b60408051825460606020820283018101845292820181815291939284929184918401828280156109d857602002820191905f5260205f20905b815473ffffffffffffffffffffffffffffffffffffffff1681526001909101906020018083116109ad575b5050505050815260200160018201805480602002602001604051908101604052809291908181526020018280548015610a6f57602002820191905f5260205f20905f905b82829054906101000a900460e01b7bffffffffffffffffffffffffffffffffffffffffffffffffffffffff191681526020019060040190602082600301049283019260010382029150808411610a1c5790505b505050505081525050905090565b6060610a87611eae565b73ffffffffffffffffffffffffffffffffffffffff84165f908152600491909101602090815260408083207fffffffff000000000000000000000000000000000000000000000000000000008616845282529182902080548351818402810184019094528084529091830182828015610b3457602002820191905f5260205f20905b815473ffffffffffffffffffffffffffffffffffffffff168152600190910190602001808311610b09575b505050505090505b92915050565b60605f610b4d611eae565b5f848152602091909152604081205491508167ffffffffffffffff811115610b7757610b77612afa565b604051908082528060200260200182016040528015610bf457816020015b610be160408051610120810182525f8082526020820181905291810182905290606082019081526020015f81526020016060815260200160608152602001606081526020015f81525090565b815260200190600190039081610b955790505b5090505f805b838111610f1757610c09611eae565b5f8781526001919091016020908152604080832084845290915290205460ff1615610f0557610c36611eae565b5f87815260019190910160209081526040808320848452825291829020825161012081018452815460ff8082161515835273ffffffffffffffffffffffffffffffffffffffff610100830416948301949094527fffffffff000000000000000000000000000000000000000000000000000000007501000000000000000000000000000000000000000000820460e01b169482019490945292909160608401917901000000000000000000000000000000000000000000000000009004166007811115610d0557610d05612eea565b6007811115610d1657610d16612eea565b81526020016001820154815260200160028201805480602002602001604051908101604052809291908181526020018280548015610da057602002820191905f5260205f20905f905b82829054906101000a900460ff166007811115610d7e57610d7e612eea565b815260206001928301818104948501949093039092029101808411610d5f5790505b5050505050815260200160038201805480602002602001604051908101604052809291908181526020015f905b82821015610e34575f8481526020902060408051808201909152600284029091018054829060ff166004811115610e0657610e06612eea565b6004811115610e1757610e17612eea565b815260200160018201548152505081526020019060010190610dcd565b50505050815260200160048201805480602002602001604051908101604052809291908181526020015f905b82821015610ec7575f8481526020902060408051808201909152600284029091018054829060ff166004811115610e9957610e99612eea565b6004811115610eaa57610eaa612eea565b815260200160018201548152505081526020019060010190610e60565b505050508152602001600582015481525050838381518110610eeb57610eeb613237565b60200260200101819052508180610f0190613396565b9250505b80610f0f81613396565b915050610bfa565b5090949350505050565b610f2b8233611edb565b610f348261203c565b610f3c611eae565b5f838152600191820160209081526040808320858452909152812080547fffffffffffff0000000000000000000000000000000000000000000000000000168155918201819055610f9060028301826129b4565b610f9d600383015f6129d6565b610faa600483015f6129d6565b600582015f9055505080827f19d0bd0cc4d63f9108c93b0abfd7408498ecbc73713f6bb3a2862d9b9d1983d860405160405180910390a35050565b61103160408051610120810182525f8082526020820181905291810182905290606082019081526020015f81526020016060815260200160608152602001606081526020015f81525090565b611039611eae565b5f84815260019190910160209081526040808320858452825291829020825161012081018452815460ff8082161515835273ffffffffffffffffffffffffffffffffffffffff610100830416948301949094527fffffffff000000000000000000000000000000000000000000000000000000007501000000000000000000000000000000000000000000820460e01b16948201949094529290916060840191790100000000000000000000000000000000000000000000000000900416600781111561110857611108612eea565b600781111561111957611119612eea565b815260200160018201548152602001600282018054806020026020016040519081016040528092919081815260200182805480156111a357602002820191905f5260205f20905f905b82829054906101000a900460ff16600781111561118157611181612eea565b8152602060019283018181049485019490930390920291018084116111625790505b5050505050815260200160038201805480602002602001604051908101604052809291908181526020015f905b82821015611237575f8481526020902060408051808201909152600284029091018054829060ff16600481111561120957611209612eea565b600481111561121a5761121a612eea565b8152602001600182015481525050815260200190600101906111d0565b50505050815260200160048201805480602002602001604051908101604052809291908181526020015f905b828210156112ca575f8481526020902060408051808201909152600284029091018054829060ff16600481111561129c5761129c612eea565b60048111156112ad576112ad612eea565b815260200160018201548152505081526020019060010190611263565b505050508152602001600582015481525050905092915050565b6112ef833383611d33565b6112f7611eae565b73ffffffffffffffffffffffffffffffffffffffff8481165f908152600492909201602090815260408084207fffffffff000000000000000000000000000000000000000000000000000000008616855282528320805460018082018355918552919093200180547fffffffffffffffffffffffff000000000000000000000000000000000000000016918516919091179055611392611eae565b73ffffffffffffffffffffffffffffffffffffffff8581165f818152600393909301602090815260408085207fffffffff0000000000000000000000000000000000000000000000000000000088168087529083528186209489168087529490925280852080547fffffffffffffffffffffffffffffffffffffffffffffffffffffffffffffff001696151596909617909555935191939290917f2a60b6a2eb5984d2479df172f3d9b813931c413ee94ceb51971dc6fd45f6ac529190a4505050565b6114a160408051610120810182525f8082526020820181905291810182905290606082019081526020015f81526020016060815260200160608152602001606081526020015f81525090565b6114ab8433611edb565b6114b48461203c565b6114d76114c76040840160208501613360565b6108fb606085016040860161337b565b6114e0826134ff565b6080810184905290506114f4848385612228565b604051839085907f82132283659aa079ae6d599fbbe109c1bfb961fc5bbbb0a98a343b4ea6dc3e00905f90a39392505050565b611532823383611d33565b61153a611eae565b73ffffffffffffffffffffffffffffffffffffffff83165f908152600491909101602090815260408083207fffffffff0000000000000000000000000000000000000000000000000000000085168452909152812061159891612999565b5f6115a38383610a7d565b905060015b815181101561168a575f6115ba611eae565b73ffffffffffffffffffffffffffffffffffffffff86165f908152600391909101602090815260408083207fffffffff00000000000000000000000000000000000000000000000000000000881684529091528120845190919085908590811061162657611626613237565b60209081029190910181015173ffffffffffffffffffffffffffffffffffffffff1682528101919091526040015f2080547fffffffffffffffffffffffffffffffffffffffffffffffffffffffffffffff00169115159190911790556001016115a8565b50611693611eae565b73ffffffffffffffffffffffffffffffffffffffff84165f818152600492909201602090815260408084207fffffffff000000000000000000000000000000000000000000000000000000008716808652908352818520805460018101825590865292852090920180547fffffffffffffffffffffffff000000000000000000000000000000000000000016331790555190927f3f0cfd5b586b18663b4d413737df6af01f6a9f7f74a51ef9e3df464352121fb291a3505050565b611759823383611d33565b611761611eae565b73ffffffffffffffffffffffffffffffffffffffff83165f908152600491909101602090815260408083207fffffffff000000000000000000000000000000000000000000000000000000008516845290915281206117bf91612999565b5f6117ca8383610a7d565b90505f5b81518110156118b0575f6117e0611eae565b73ffffffffffffffffffffffffffffffffffffffff86165f908152600391909101602090815260408083207fffffffff00000000000000000000000000000000000000000000000000000000881684529091528120845190919085908590811061184c5761184c613237565b60209081029190910181015173ffffffffffffffffffffffffffffffffffffffff1682528101919091526040015f2080547fffffffffffffffffffffffffffffffffffffffffffffffffffffffffffffff00169115159190911790556001016117ce565b505f6118ba611eae565b73ffffffffffffffffffffffffffffffffffffffff85165f908152600291909101602090815260408083207fffffffff0000000000000000000000000000000000000000000000000000000087168452909152812080547fffffffffffffffffffffffffffffffffffffffffffffffffffffffffffffff001692151592909217909155611945612332565b90505f611950612332565b60010190505f5b8254811015611c23578573ffffffffffffffffffffffffffffffffffffffff1683828154811061198957611989613237565b5f9182526020909120015473ffffffffffffffffffffffffffffffffffffffff16148015611a265750847bffffffffffffffffffffffffffffffffffffffffffffffffffffffff19168282815481106119e4576119e4613237565b905f5260205f2090600891828204019190066004029054906101000a900460e01b7bffffffffffffffffffffffffffffffffffffffffffffffffffffffff1916145b15611c1b5782548390611a3b90600190613291565b81548110611a4b57611a4b613237565b905f5260205f20015f9054906101000a900473ffffffffffffffffffffffffffffffffffffffff16838281548110611a8557611a85613237565b5f91825260209091200180547fffffffffffffffffffffffff00000000000000000000000000000000000000001673ffffffffffffffffffffffffffffffffffffffff9290921691909117905581548290611ae290600190613291565b81548110611af257611af2613237565b905f5260205f2090600891828204019190066004029054906101000a900460e01b828281548110611b2557611b25613237565b905f5260205f2090600891828204019190066004026101000a81548163ffffffff021916908360e01c021790555082805480611b6357611b636132a4565b5f8281526020902081017fffffffffffffffffffffffffffffffffffffffffffffffffffffffffffffffff90810180547fffffffffffffffffffffffff00000000000000000000000000000000000000001690550190558154829080611bcb57611bcb6132a4565b5f8281526020902060087fffffffffffffffffffffffffffffffffffffffffffffffffffffffffffffffff90920191820401805463ffffffff600460078516026101000a02191690559055611c23565b600101611957565b506040517fffffffff0000000000000000000000000000000000000000000000000000000085169073ffffffffffffffffffffffffffffffffffffffff8716907f89401d05a96381d33c99e34b1cb3c4011ab9d4b136ad7de38b94a9084b3809d5905f90a35050505050565b6060611c9961235f565b5f84815260209182526040808220858352909252208054611cb9906135f3565b80601f0160208091040260200160405190810160405280929190818152602001828054611ce5906135f3565b8015610b345780601f10611d0757610100808354040283529160200191610b34565b820191905f5260205f20905b815481529060010190602001808311611d13575093979650505050505050565b60405173ffffffffffffffffffffffffffffffffffffffff8085166024830152831660448201527fffffffff00000000000000000000000000000000000000000000000000000000821660648201525f908190611e2a907f41a2b7ae0000000000000000000000000000000000000000000000000000000090608401604080517fffffffffffffffffffffffffffffffffffffffffffffffffffffffffffffffe08184030181529190526020810180517bffffffffffffffffffffffffffffffffffffffffffffffffffffffff167f41a2b7ae0000000000000000000000000000000000000000000000000000000017905261238c565b915091505f8215611ea6576004825110611e4957506020810151611e4c565b505f5b80611ea657604051806060016040528060248152602001613e4a602491396040517f08c379a0000000000000000000000000000000000000000000000000000000008152600401611e9d91906131e4565b60405180910390fd5b505050505050565b5f80610b3c60017f1f3305601ed940efccf797d76856e5fe70659a8a6905d64c9f236321df91e718613291565b6040516024810183905273ffffffffffffffffffffffffffffffffffffffff821660448201525f908190611fa9907f901cee110000000000000000000000000000000000000000000000000000000090606401604080517fffffffffffffffffffffffffffffffffffffffffffffffffffffffffffffffe08184030181529190526020810180517bffffffffffffffffffffffffffffffffffffffffffffffffffffffff167f901cee110000000000000000000000000000000000000000000000000000000017905261238c565b915091505f8215612035576004825110611fc857506020810151611fcb565b505f5b8061203557604080518082018252601881527f4e6f7420417574686f72697a656420546f20506f6c6963790000000000000000602082015290517f08c379a0000000000000000000000000000000000000000000000000000000008152611e9d91906004016131e4565b5050505050565b61204461244d565b5f8281526001919091016020526040902060040154610100900460ff16156120cb57604080518082018252601f81527f4e6f7420616c6c6f77656420666f722063656d656e74656420706f6c69637900602082015290517f08c379a0000000000000000000000000000000000000000000000000000000008152611e9d91906004016131e4565b50565b6120d6611eae565b73ffffffffffffffffffffffffffffffffffffffff83165f908152600291909101602090815260408083207fffffffff000000000000000000000000000000000000000000000000000000008516845290915290205460ff1680156121a1575061213e611eae565b73ffffffffffffffffffffffffffffffffffffffff83165f908152600391909101602090815260408083207fffffffff0000000000000000000000000000000000000000000000000000000085168452825280832033845290915290205460ff16155b156121f257604051806060016040528060218152602001613dd4602191396040517f08c379a0000000000000000000000000000000000000000000000000000000008152600401611e9d91906131e4565b5050565b5f5f612200611eae565b5f84815260208290526040812080549293509161221c90613396565b91829055509392505050565b5f612231611eae565b905061223e84848461247a565b5f93845260205260409092209190915550565b604080516020810182525f9052517fc5d2460186f7233c927e7db2dcc703c0e500b653ca82273b7bfad8045d85a4709061228e908490849061363e565b604051809103902014156040518060400160405280601081526020017f4e616d652069732072657175697265640000000000000000000000000000000081525090612306576040517f08c379a0000000000000000000000000000000000000000000000000000000008152600401611e9d91906131e4565b50818161231161235f565b5f87815260209182526040808220888352909252209161203591908361369d565b5f80610b3c60017f3c401fd2932622880eb0dc8877cc070591b51eaaa3bb9dfbc1718d869b7a12b3613291565b5f80610b3c60017f680281604e63223dcddb1c0e3af179db8bd5c81752348dc75dc7ed88d927353c613291565b5f60605f61239861296c565b7fffffffff0000000000000000000000000000000000000000000000000000000086165f908152602082905260409081902054905191925073ffffffffffffffffffffffffffffffffffffffff169081906123f49087906137b3565b5f60405180830381855af49150503d805f811461242c576040519150601f19603f3d011682016040523d82523d5f602084013e612431565b606091505b5090945092508361244457825160208401fd5b50509250929050565b5f80610b3c60017ff9dbd639dd2ea165d77dd4c51dec420100d51ceacf023b1c40faa045ba8f9a65613291565b61248760c08301836137c9565b905061249660a0840184613834565b9050146124a5576124a5613898565b5f6124b66040840160208501613360565b73ffffffffffffffffffffffffffffffffffffffff160361253657604080518082018252601b81527f5a65726f2041646472657373204973204e6f7420416c6c6f7765640000000000602082015290517f08c379a0000000000000000000000000000000000000000000000000000000008152611e9d91906004016131e4565b604080516020810182525f90527fc5d246010000000000000000000000000000000000000000000000000000000090612575906060850190850161337b565b7fffffffff00000000000000000000000000000000000000000000000000000000160361260157604080518082018252601e81527f46756e6374696f6e207369676e61747572652069732072657175697265640000602082015290517f08c379a0000000000000000000000000000000000000000000000000000000008152611e9d91906004016131e4565b60408051808201909152601981527f4d617820666f726569676e2063616c6c732072656163686564000000000000006020820152612710608084013510612675576040517f08c379a0000000000000000000000000000000000000000000000000000000008152600401611e9d91906131e4565b5061271061268660a0840184613834565b905010604051806060016040528060248152602001613db060249139906126da576040517f08c379a0000000000000000000000000000000000000000000000000000000008152600401611e9d91906131e4565b505f805b6126eb60c08501856137c9565b905081101561285257600461270360c08601866137c9565b8381811061271357612713613237565b61272992602060409092020190810191506138c5565b600481111561273a5761273a612eea565b0361284a5761274c60e08501856137c9565b905082106040518060600160405280602b8152602001613e1f602b9139906127a1576040517f08c379a0000000000000000000000000000000000000000000000000000000008152600401611e9d91906131e4565b5060046127b160e08601866137c9565b848181106127c1576127c1613237565b6127d792602060409092020190810191506138c5565b60048111156127e8576127e8612eea565b14156040518060600160405280602a8152602001613df5602a91399061283b576040517f08c379a0000000000000000000000000000000000000000000000000000000008152600401611e9d91906131e4565b508161284681613396565b9250505b6001016126de565b5061286060e08401846137c9565b905081146040518060600160405280602b8152602001613e1f602b9139906128b5576040517f08c379a0000000000000000000000000000000000000000000000000000000008152600401611e9d91906131e4565b50826128bf611eae565b5f8681526001919091016020908152604080832086845290915290206128e58282613c3c565b90505060016128f2611eae565b5f86815260019190910160209081526040808320868452909152902080547fffffffffffffffffffffffffffffffffffffffffffffffffffffffffffffff001691151591909117905581612944611eae565b5f95865260019081016020908152604080882095885294905292909420909101929092555050565b5f80610b3c60017fbe498a3b14fd79a48c3c9af86ff14271ed497d09071013334028d28e7791db20613291565b5080545f8255905f5260205f20908101906120cb91906129f4565b5080545f8255601f0160209004905f5260205f20908101906120cb91906129f4565b5080545f8255600202905f5260205f20908101906120cb9190612a0c565b5b80821115612a08575f81556001016129f5565b5090565b5b80821115612a085780547fffffffffffffffffffffffffffffffffffffffffffffffffffffffffffffff001681555f6001820155600201612a0d565b73ffffffffffffffffffffffffffffffffffffffff811681146120cb575f5ffd5b8035612a7581612a49565b919050565b7fffffffff00000000000000000000000000000000000000000000000000000000811681146120cb575f5ffd5b8035612a7581612a7a565b5f5f5f60608486031215612ac4575f5ffd5b8335612acf81612a49565b92506020840135612adf81612a7a565b91506040840135612aef81612a49565b809150509250925092565b7f4e487b71000000000000000000000000000000000000000000000000000000005f52604160045260245ffd5b6040805190810167ffffffffffffffff81118282101715612b4a57612b4a612afa565b60405290565b604051610120810167ffffffffffffffff81118282101715612b4a57612b4a612afa565b604051601f82017fffffffffffffffffffffffffffffffffffffffffffffffffffffffffffffffe016810167ffffffffffffffff81118282101715612bbb57612bbb612afa565b604052919050565b5f67ffffffffffffffff821115612bdc57612bdc612afa565b5060051b60200190565b5f5f5f60608486031215612bf8575f5ffd5b8335612c0381612a49565b92506020840135612c1381612a7a565b9150604084013567ffffffffffffffff811115612c2e575f5ffd5b8401601f81018613612c3e575f5ffd5b8035612c51612c4c82612bc3565b612b74565b8082825260208201915060208360051b850101925088831115612c72575f5ffd5b6020840193505b82841015612c9d578335612c8c81612a49565b825260209384019390910190612c79565b809450505050509250925092565b5f6101208284031215612cbc575f5ffd5b50919050565b5f5f5f5f60608587031215612cd5575f5ffd5b84359350602085013567ffffffffffffffff811115612cf2575f5ffd5b612cfe87828801612cab565b935050604085013567ffffffffffffffff811115612d1a575f5ffd5b8501601f81018713612d2a575f5ffd5b803567ffffffffffffffff811115612d40575f5ffd5b876020828401011115612d51575f5ffd5b949793965060200194505050565b602080825282516040838301528051606084018190525f929190910190829060808501905b80831015612dbd5773ffffffffffffffffffffffffffffffffffffffff8451168252602082019150602084019350600183019250612d84565b506020868101518683037fffffffffffffffffffffffffffffffffffffffffffffffffffffffffffffffe001604088015280518084529082019450910191505f905b80821015612e44577fffffffff000000000000000000000000000000000000000000000000000000008451168352602083019250602084019350600182019150612dff565b509095945050505050565b5f5f60408385031215612e60575f5ffd5b8235612e6b81612a49565b91506020830135612e7b81612a7a565b809150509250929050565b602080825282518282018190525f918401906040840190835b81811015612e4457835173ffffffffffffffffffffffffffffffffffffffff16835260209384019390920191600101612e9f565b5f60208284031215612ee3575f5ffd5b5035919050565b7f4e487b71000000000000000000000000000000000000000000000000000000005f52602160045260245ffd5b60088110612f2757612f27612eea565b9052565b5f8151808452602084019350602083015f5b82811015612f6357612f50868351612f17565b6020958601959190910190600101612f3d565b5093949350505050565b5f8151808452602084019350602083015f5b82811015612f63578151805160058110612f9b57612f9b612eea565b8752602090810151818801526040909601959190910190600101612f7f565b8051151582525f6020820151612fe8602085018273ffffffffffffffffffffffffffffffffffffffff169052565b50604082015161301c60408501827fffffffff00000000000000000000000000000000000000000000000000000000169052565b50606082015161302f6060850182612f17565b506080820151608084015260a082015161012060a0850152613055610120850182612f2b565b905060c083015184820360c086015261306e8282612f6d565b91505060e083015184820360e08601526130888282612f6d565b9150506101008301516101008501528091505092915050565b5f602082016020835280845180835260408501915060408160051b8601019250602086015f5b82811015613116577fffffffffffffffffffffffffffffffffffffffffffffffffffffffffffffffc0878603018452613101858351612fba565b945060209384019391909101906001016130c7565b50929695505050505050565b5f5f60408385031215613133575f5ffd5b50508035926020909101359150565b602081525f6131546020830184612fba565b9392505050565b5f5f5f6060848603121561316d575f5ffd5b833561317881612a49565b9250602084013561318881612a49565b91506040840135612aef81612a7a565b5f5f5f606084860312156131aa575f5ffd5b8335925060208401359150604084013567ffffffffffffffff8111156131ce575f5ffd5b6131da86828701612cab565b9150509250925092565b602081525f82518060208401528060208501604085015e5f6040828501015260407fffffffffffffffffffffffffffffffffffffffffffffffffffffffffffffffe0601f83011684010191505092915050565b7f4e487b71000000000000000000000000000000000000000000000000000000005f52603260045260245ffd5b7f4e487b71000000000000000000000000000000000000000000000000000000005f52601160045260245ffd5b81810381811115610b3c57610b3c613264565b7f4e487b71000000000000000000000000000000000000000000000000000000005f52603160045260245ffd5b5f818354839150845f5260205f205f5b8281101561331557815473ffffffffffffffffffffffffffffffffffffffff168452602090930192600191820191016132e1565b509195945050505050565b81515f90829060208501835b8281101561331557815173ffffffffffffffffffffffffffffffffffffffff1684526020938401939091019060010161332c565b5f60208284031215613370575f5ffd5b813561315481612a49565b5f6020828403121561338b575f5ffd5b813561315481612a7a565b5f7fffffffffffffffffffffffffffffffffffffffffffffffffffffffffffffffff82036133c6576133c6613264565b5060010190565b80151581146120cb575f5ffd5b8035612a75816133cd565b600881106120cb575f5ffd5b8035612a75816133e5565b5f82601f83011261340b575f5ffd5b8135613419612c4c82612bc3565b8082825260208201915060208360051b86010192508583111561343a575f5ffd5b602085015b83811015613460578035613452816133e5565b83526020928301920161343f565b5095945050505050565b600581106120cb575f5ffd5b5f82601f830112613485575f5ffd5b8135613493612c4c82612bc3565b8082825260208201915060208360061b8601019250858311156134b4575f5ffd5b602085015b8381101561346057604081880312156134d0575f5ffd5b6134d8612b27565b81356134e38161346a565b81526020828101358183015290845292909201916040016134b9565b5f6101208236031215613510575f5ffd5b613518612b50565b613521836133da565b815261352f60208401612a6a565b602082015261354060408401612aa7565b6040820152613551606084016133f1565b60608201526080838101359082015260a083013567ffffffffffffffff811115613579575f5ffd5b613585368286016133fc565b60a08301525060c083013567ffffffffffffffff8111156135a4575f5ffd5b6135b036828601613476565b60c08301525060e083013567ffffffffffffffff8111156135cf575f5ffd5b6135db36828601613476565b60e08301525061010092830135928101929092525090565b600181811c9082168061360757607f821691505b602082108103612cbc577f4e487b71000000000000000000000000000000000000000000000000000000005f52602260045260245ffd5b818382375f9101908152919050565b5b818110156121f2575f815560010161364e565b601f82111561369857805f5260205f20601f840160051c810160208510156136865750805b612035601f850160051c83018261364d565b505050565b67ffffffffffffffff8311156136b5576136b5612afa565b6136c9836136c383546135f3565b83613661565b5f601f841160018114613719575f85156136e35750838201355b7fffffffffffffffffffffffffffffffffffffffffffffffffffffffffffffffff600387901b1c1916600186901b178355612035565b5f838152602081207fffffffffffffffffffffffffffffffffffffffffffffffffffffffffffffffe08716915b828110156137665786850135825560209485019460019092019101613746565b50868210156137a1577fffffffffffffffffffffffffffffffffffffffffffffffffffffffffffffffff60f88860031b161c19848701351681555b505060018560011b0183555050505050565b5f82518060208501845e5f920191825250919050565b5f5f83357fffffffffffffffffffffffffffffffffffffffffffffffffffffffffffffffe18436030181126137fc575f5ffd5b83018035915067ffffffffffffffff821115613816575f5ffd5b6020019150600681901b360382131561382d575f5ffd5b9250929050565b5f5f83357fffffffffffffffffffffffffffffffffffffffffffffffffffffffffffffffe1843603018112613867575f5ffd5b83018035915067ffffffffffffffff821115613881575f5ffd5b6020019150600581901b360382131561382d575f5ffd5b7f4e487b71000000000000000000000000000000000000000000000000000000005f52600160045260245ffd5b5f602082840312156138d5575f5ffd5b81356131548161346a565b5f8135610b3c81612a49565b5f8135610b3c81612a7a565b5f8135610b3c816133e5565b6008821061391457613914612eea565b805479ff000000000000000000000000000000000000000000000000008360c81b167fffffffffffff00ffffffffffffffffffffffffffffffffffffffffffffffffff8216178255505050565b6801000000000000000082111561397a5761397a612afa565b80548282558083101561369857815f5260205f20601f840160051c8101601f851680156139f4577fffffffffffffffffffffffffffffffffffffffffffffffffffffffffffffffff820180547fffffffffffffffffffffffffffffffffffffffffffffffffffffffffffffffff8360200360031b1c168155505b50612035601f840160051c83018261364d565b67ffffffffffffffff831115613a1f57613a1f612afa565b613a298382613961565b5f8181526020902082908460051c5f5b81811015613a8e575f5f5b6020811015613a8157613a70613a59876138f8565b60ff908116600384901b90811b91901b1984161790565b602096909601959150600101613a44565b5083820155600101613a39565b507fffffffffffffffffffffffffffffffffffffffffffffffffffffffffffffffe08616808703818814613aea575f5f5b82811015613ae457613ad3613a59886138f8565b602097909701969150600101613abf565b50848401555b5050505050505050565b8135613aff8161346a565b60058110613b0f57613b0f612eea565b81547fffffffffffffffffffffffffffffffffffffffffffffffffffffffffffffff001660ff9190911617815560209190910135600190910155565b68010000000000000000831115613b6457613b64612afa565b805483825580841015613c08577f7fffffffffffffffffffffffffffffffffffffffffffffffffffffffffffffff81168114613ba257613ba2613264565b7f7fffffffffffffffffffffffffffffffffffffffffffffffffffffffffffffff84168414613bd357613bd3613264565b815f5260205f208160011b81018560011b820191505b80821015613c05575f82555f6001830155600282019150613be9565b50505b505f8181526020812083915b85811015611ea657613c268383613af4565b6040929092019160029190910190600101613c14565b8135613c47816133cd565b7fffffffffffffffffffffffffffffffffffffffffffffffffffffffffffffff0082541660ff82151516811783555050613ccc613c86602084016138e0565b82547fffffffffffffffffffffff0000000000000000000000000000000000000000ff1660089190911b74ffffffffffffffffffffffffffffffffffffffff0016178255565b613d29613cdb604084016138ec565b8280547fffffffffffffff00000000ffffffffffffffffffffffffffffffffffffffffff1660389290921c78ffffffff00000000000000000000000000000000000000000016919091179055565b613d3e613d38606084016138f8565b82613904565b60808201356001820155613d5560a0830183613834565b613d63818360028601613a07565b5050613d7260c08301836137c9565b613d80818360038601613b4b565b5050613d8f60e08301836137c9565b613d9d818360048601613b4b565b5050610100919091013560059091015556fe4d617820666f726569676e20706172616d6574657220747970657320726561636865642e4e6f74205065726d697373696f6e656420466f7220466f726569676e2043616c6c4d617070656420747261636b6572206b65792063616e6e6f7420626520646f75626c65206e65737465644d617070656420747261636b6572206b657920696e6469636573206c656e677468206d69736d617463682e4e6f7420416e20417574686f72697a656420466f726569676e2043616c6c2041646d696ea26469706673582212204a1852766ad0e4e88c7cdd526b893d7f9bbd9bf0a7ecd250b9c25d79e7b4a5b564736f6c634300081c0033","linkReferences":{}},"methodIdentifiers":{"addAdminToPermissionList(address,address,bytes4)":"e06e2b00","createForeignCall(uint256,(bool,address,bytes4,uint8,uint256,uint8[],(uint8,uint256)[],(uint8,uint256)[],uint256),string)":"6071d6b6","deleteForeignCall(uint256,uint256)":"d82260c8","getAllForeignCalls(uint256)":"a3937e99","getAllPermissionedFCs()":"8f470037","getForeignCall(uint256,uint256)":"da7d5d28","getForeignCallMetadata(uint256,uint256)":"f69187ee","getForeignCallPermissionList(address,bytes4)":"92ee33ae","removeAllFromPermissionList(address,bytes4)":"ef3ea06c","removeForeignCallPermissions(address,bytes4)":"f0e9d744","removeFromPermissionList(address,bytes4,address)":"028206ac","updateForeignCall(uint256,uint256,(bool,address,bytes4,uint8,uint256,uint8[],(uint8,uint256)[],(uint8,uint256)[],uint256))":"edf4b8b9","updatePermissionList(address,bytes4,address[])":"0d5d9cb0"},"id":91}