{"abi":[{"type":"function","name":"applyPolicy","inputs":[{"name":"contractAddress","type":"address","internalType":"address"},{"name":"policyIds","type":"uint256[]","internalType":"uint256[]"}],"outputs":[],"stateMutability":"nonpayable"},{"type":"function","name":"cementPolicy","inputs":[{"name":"policyId","type":"uint256","internalType":"uint256"}],"outputs":[],"stateMutability":"nonpayable"},{"type":"function","name":"closePolicy","inputs":[{"name":"policyId","type":"uint256","internalType":"uint256"}],"outputs":[],"stateMutability":"nonpayable"},{"type":"function","name":"createPolicy","inputs":[{"name":"policyType","type":"uint8","internalType":"enum PolicyType"},{"name":"policyName","type":"string","internalType":"string"},{"name":"policyDescription","type":"string","internalType":"string"}],"outputs":[{"name":"","type":"uint256","internalType":"uint256"}],"stateMutability":"nonpayable"},{"type":"function","name":"deletePolicy","inputs":[{"name":"policyId","type":"uint256","internalType":"uint256"}],"outputs":[],"stateMutability":"nonpayable"},{"type":"function","name":"disablePolicy","inputs":[{"name":"policyId","type":"uint256","internalType":"uint256"}],"outputs":[],"stateMutability":"nonpayable"},{"type":"function","name":"getAppliedPolicyIds","inputs":[{"name":"contractAddress","type":"address","internalType":"address"}],"outputs":[{"name":"","type":"uint256[]","internalType":"uint256[]"}],"stateMutability":"view"},{"type":"function","name":"getPolicy","inputs":[{"name":"policyId","type":"uint256","internalType":"uint256"}],"outputs":[{"name":"callingFunctions","type":"bytes4[]","internalType":"bytes4[]"},{"name":"callingFunctionIds","type":"uint256[]","internalType":"uint256[]"},{"name":"ruleIds","type":"uint256[][]","internalType":"uint256[][]"}],"stateMutability":"view"},{"type":"function","name":"getPolicyMetadata","inputs":[{"name":"_policyId","type":"uint256","internalType":"uint256"}],"outputs":[{"name":"","type":"tuple","internalType":"struct PolicyMetadata","components":[{"name":"policyName","type":"string","internalType":"string"},{"name":"policyDescription","type":"string","internalType":"string"}]}],"stateMutability":"view"},{"type":"function","name":"isCementedPolicy","inputs":[{"name":"_policyId","type":"uint256","internalType":"uint256"}],"outputs":[{"name":"","type":"bool","internalType":"bool"}],"stateMutability":"view"},{"type":"function","name":"isClosedPolicy","inputs":[{"name":"policyId","type":"uint256","internalType":"uint256"}],"outputs":[{"name":"","type":"bool","internalType":"bool"}],"stateMutability":"view"},{"type":"function","name":"isDisabledPolicy","inputs":[{"name":"policyId","type":"uint256","internalType":"uint256"}],"outputs":[{"name":"","type":"bool","internalType":"bool"}],"stateMutability":"view"},{"type":"function","name":"openPolicy","inputs":[{"name":"policyId","type":"uint256","internalType":"uint256"}],"outputs":[],"stateMutability":"nonpayable"},{"type":"function","name":"unapplyPolicy","inputs":[{"name":"_contractAddress","type":"address","internalType":"address"},{"name":"_policyIds","type":"uint256[]","internalType":"uint256[]"}],"outputs":[],"stateMutability":"nonpayable"},{"type":"function","name":"updatePolicy","inputs":[{"name":"policyId","type":"uint256","internalType":"uint256"},{"name":"callingFunctions","type":"bytes4[]","internalType":"bytes4[]"},{"name":"callingFunctionIds","type":"uint256[]","internalType":"uint256[]"},{"name":"ruleIds","type":"uint256[][]","internalType":"uint256[][]"},{"name":"policyType","type":"uint8","internalType":"enum PolicyType"},{"name":"policyName","type":"string","internalType":"string"},{"name":"policyDescription","type":"string","internalType":"string"}],"outputs":[{"name":"","type":"uint256","internalType":"uint256"}],"stateMutability":"nonpayable"},{"type":"event","name":"ForeignCallDeleted","inputs":[{"name":"policyId","type":"uint256","indexed":true,"internalType":"uint256"},{"name":"foreignCallId","type":"uint256","indexed":true,"internalType":"uint256"}],"anonymous":false},{"type":"event","name":"PolicyApplied","inputs":[{"name":"policyIds","type":"uint256[]","indexed":false,"internalType":"uint256[]"},{"name":"callingContract","type":"address","indexed":true,"internalType":"address"}],"anonymous":false},{"type":"event","name":"PolicyCemented","inputs":[{"name":"policyId","type":"uint256","indexed":true,"internalType":"uint256"}],"anonymous":false},{"type":"event","name":"PolicyClosed","inputs":[{"name":"policyId","type":"uint256","indexed":true,"internalType":"uint256"}],"anonymous":false},{"type":"event","name":"PolicyCreated","inputs":[{"name":"policyId","type":"uint256","indexed":true,"internalType":"uint256"}],"anonymous":false},{"type":"event","name":"PolicyDeleted","inputs":[{"name":"policyId","type":"uint256","indexed":true,"internalType":"uint256"}],"anonymous":false},{"type":"event","name":"PolicyDisabled","inputs":[{"name":"policyId","type":"uint256","indexed":true,"internalType":"uint256"}],"anonymous":false},{"type":"event","name":"PolicyOpened","inputs":[{"name":"policyId","type":"uint256","indexed":true,"internalType":"uint256"}],"anonymous":false},{"type":"event","name":"PolicyUnapplied","inputs":[{"name":"policyIds","type":"uint256[]","indexed":false,"internalType":"uint256[]"},{"name":"callingContract","type":"address","indexed":true,"internalType":"address"}],"anonymous":false},{"type":"event","name":"PolicyUpdated","inputs":[{"name":"policyId","type":"uint256","indexed":true,"internalType":"uint256"}],"anonymous":false},{"type":"event","name":"TrackerDeleted","inputs":[{"name":"policyId","type":"uint256","indexed":true,"internalType":"uint256"},{"name":"trackerId","type":"uint256","indexed":true,"internalType":"uint256"}],"anonymous":false}],"bytecode":{"object":"0x6080604052348015600e575f5ffd5b506148cf8061001c5f395ff3fe608060405234801561000f575f5ffd5b50600436106100f0575f3560e01c8063798d6c7b11610093578063d46a37c411610063578063d46a37c41461020a578063e37490231461021d578063f7b570f61461023d578063fed27c8f14610250575f5ffd5b8063798d6c7b146101b15780638cf7a293146101c45780639228303f146101e457806395953fba146101f7575f5ffd5b806330ab6a0a116100ce57806330ab6a0a146101555780634f10689b146101685780635239f98c1461018b578063696ef7031461019e575f5ffd5b80632b07fce3146100f45780632b0e44401461011f5780632e9ec08b14610134575b5f5ffd5b610107610102366004613ed6565b610263565b60405161011693929190613f27565b60405180910390f35b61013261012d366004613ed6565b610723565b005b6101476101423660046140b4565b6108ba565b604051908152602001610116565b610132610163366004613ed6565b610946565b61017b610176366004613ed6565b610a5e565b6040519015158152602001610116565b6101326101993660046141f8565b610a99565b61017b6101ac366004613ed6565b61101b565b6101326101bf366004613ed6565b611023565b6101d76101d2366004613ed6565b61113b565b6040516101169190614293565b6101326101f23660046141f8565b611295565b6101476102053660046142f2565b6117b2565b610132610218366004613ed6565b61196e565b61023061022b366004614372565b611acb565b6040516101169190614392565b61017b61024b366004613ed6565b611b4a565b61013261025e366004613ed6565b611b71565b60608060605f610271612102565b5f8681526001918201602052604090206003810154910191501561037757600281015467ffffffffffffffff8111156102ac576102ac6143a4565b6040519080825280602002602001820160405280156102d5578160200160208202803683370190505b50600282015490945067ffffffffffffffff8111156102f6576102f66143a4565b60405190808252806020026020018201604052801561031f578160200160208202803683370190505b50600282015490935067ffffffffffffffff811115610340576103406143a4565b60405190808252806020026020018201604052801561037357816020015b606081526020019060019003908161035e5790505b5091505b600281015467ffffffffffffffff811115610394576103946143a4565b6040519080825280602002602001820160405280156103c757816020015b60608152602001906001900390816103b25790505b5091505f5b600282015481101561071a578160020181815481106103ed576103ed6143d1565b905f5260205f2090600891828204019190066004029054906101000a900460e01b858281518110610420576104206143d1565b7fffffffff000000000000000000000000000000000000000000000000000000009092166020928302919091019091015260028201805483915f918490811061046b5761046b6143d1565b905f5260205f2090600891828204019190066004029054906101000a900460e01b7bffffffffffffffffffffffffffffffffffffffffffffffffffffffff19167bffffffffffffffffffffffffffffffffffffffffffffffffffffffff191681526020019081526020015f20548482815181106104ea576104ea6143d1565b60209081029190910101525f5b826001015f846002018481548110610511576105116143d1565b5f918252602080832060088304015460079092166004026101000a90910460e01b7fffffffff0000000000000000000000000000000000000000000000000000000016835282019290925260400190205481101561071157826001015f846002018481548110610583576105836143d1565b5f918252602080832060088304015460079092166004026101000a90910460e01b7fffffffff0000000000000000000000000000000000000000000000000000000016835282019290925260400190205467ffffffffffffffff8111156105ec576105ec6143a4565b604051908082528060200260200182016040528015610615578160200160208202803683370190505b50848381518110610628576106286143d1565b6020026020010181905250826001015f84600201848154811061064d5761064d6143d1565b905f5260205f2090600891828204019190066004029054906101000a900460e01b7bffffffffffffffffffffffffffffffffffffffffffffffffffffffff19167bffffffffffffffffffffffffffffffffffffffffffffffffffffffff191681526020019081526020015f2081815481106106ca576106ca6143d1565b905f5260205f2001548483815181106106e5576106e56143d1565b602002602001015182815181106106fe576106fe6143d1565b60209081029190910101526001016104f7565b506001016103cc565b50509193909250565b60405160248101829052336044820181905282915f9081906107e0907f901cee1100000000000000000000000000000000000000000000000000000000906064015b604080517fffffffffffffffffffffffffffffffffffffffffffffffffffffffffffffffe08184030181529190526020810180517bffffffffffffffffffffffffffffffffffffffffffffffffffffffff167f901cee1100000000000000000000000000000000000000000000000000000000179052612135565b915091505f82156108755760048251106107ff57506020810151610802565b505f5b8061087557604080518082018252601881527f4e6f7420417574686f72697a656420546f20506f6c6963790000000000000000602082015290517f08c379a000000000000000000000000000000000000000000000000000000000815261086c91906004016143fe565b60405180910390fd5b61087e866121f6565b610888865f612288565b60405186907f524fcc256039a8ee7fd3d614ec713bd4a9159d02d7261ae80028fc15b45c4848905f90a2505050505050565b5f6108c58d336124ef565b6108ce8d6121f6565b8a8914610921576040518060600160405280602e8152602001614833602e91396040517f08c379a000000000000000000000000000000000000000000000000000000000815260040161086c91906143fe565b6109358d8d8d8d8d8d8d8d8d8d8d8d6125d3565b9d9c50505050505050505050505050565b60405160248101829052336044820181905282915f90819061098c907f901cee110000000000000000000000000000000000000000000000000000000090606401610765565b915091505f8215610a185760048251106109ab575060208101516109ae565b505f5b80610a1857604080518082018252601881527f4e6f7420417574686f72697a656420546f20506f6c6963790000000000000000602082015290517f08c379a000000000000000000000000000000000000000000000000000000000815261086c91906004016143fe565b610a21866121f6565b610a2c866002612288565b60405186907faed86353bce2e7a37fbb57488f79d0a22f46359b908581f14d7106e2b67fd0e1905f90a2505050505050565b5f805b610a69612102565b5f848152600191909101602052604090206004015460ff166002811115610a9257610a92614410565b1492915050565b60405173ffffffffffffffffffffffffffffffffffffffff84166024820152336044820181905284915f908190610b6b907f70aca09200000000000000000000000000000000000000000000000000000000906064015b604080517fffffffffffffffffffffffffffffffffffffffffffffffffffffffffffffffe08184030181529190526020810180517bffffffffffffffffffffffffffffffffffffffffffffffffffffffff167f70aca09200000000000000000000000000000000000000000000000000000000179052612135565b915091505f8215610bf7576004825110610b8a57506020810151610b8d565b505f5b80610bf757604080518082018252601a81527f4e6f742043616c6c696e6720436f6e74726163742041646d696e000000000000602082015290517f08c379a000000000000000000000000000000000000000000000000000000000815261086c91906004016143fe565b73ffffffffffffffffffffffffffffffffffffffff8816610c7757604080518082018252601c81527f5a65726f20416464726573732043616e6e6f742042652041646d696e00000000602082015290517f08c379a000000000000000000000000000000000000000000000000000000000815261086c91906004016143fe565b5f610c80612970565b73ffffffffffffffffffffffffffffffffffffffff8a165f9081526020828152604080832080548251818502810185019093528083529495509293909291830182828015610ceb57602002820191905f5260205f20905b815481526020019060010190808311610cd7575b5050505073ffffffffffffffffffffffffffffffffffffffff8c165f908152602085905260408120929350610d21929150613c7d565b5f805b8251811015610de4575f9150815b8a811015610d7f578b8b82818110610d4c57610d4c6143d1565b90506020020135848381518110610d6557610d656143d1565b602002602001015103610d7757600192505b600101610d32565b5081610ddc5773ffffffffffffffffffffffffffffffffffffffff8c165f9081526020859052604090208351849083908110610dbd57610dbd6143d1565b60209081029190910181015182546001810184555f9384529190922001555b600101610d24565b505f5b89811015610fbd575f846001015f8d8d85818110610e0757610e076143d1565b9050602002013581526020019081526020015f20805480602002602001604051908101604052809291908181526020018280548015610e7a57602002820191905f5260205f20905b815473ffffffffffffffffffffffffffffffffffffffff168152600190910190602001808311610e4f575b50505050509050846001015f8d8d85818110610e9857610e986143d1565b9050602002013581526020019081526020015f205f610eb79190613c7d565b5f5b8151811015610fb3578d73ffffffffffffffffffffffffffffffffffffffff16828281518110610eeb57610eeb6143d1565b602002602001015173ffffffffffffffffffffffffffffffffffffffff1614610fab57856001015f8e8e86818110610f2557610f256143d1565b9050602002013581526020019081526020015f20828281518110610f4b57610f4b6143d1565b60209081029190910181015182546001810184555f938452919092200180547fffffffffffffffffffffffff00000000000000000000000000000000000000001673ffffffffffffffffffffffffffffffffffffffff9092169190911790555b600101610eb9565b5050600101610de7565b508a73ffffffffffffffffffffffffffffffffffffffff167fcca48239a70eb9b3cebd3ea981ec0ca547a1eac614fb9ef7c80422484582c10b8b8b60405161100692919061443d565b60405180910390a25050505050505050505050565b5f6002610a61565b60405160248101829052336044820181905282915f908190611069907f901cee110000000000000000000000000000000000000000000000000000000090606401610765565b915091505f82156110f55760048251106110885750602081015161108b565b505f5b806110f557604080518082018252601881527f4e6f7420417574686f72697a656420546f20506f6c6963790000000000000000602082015290517f08c379a000000000000000000000000000000000000000000000000000000000815261086c91906004016143fe565b6110fe866121f6565b611109866001612288565b60405186907fe9a53e8109d105e8132e423c8a8489a6c054acbfff3373248be4938a857143d9905f90a2505050505050565b604080518082019091526060808252602082015261115761299d565b5f838152602091909152604090819020815180830190925280548290829061117e9061448d565b80601f01602080910402602001604051908101604052809291908181526020018280546111aa9061448d565b80156111f55780601f106111cc576101008083540402835291602001916111f5565b820191905f5260205f20905b8154815290600101906020018083116111d857829003601f168201915b5050505050815260200160018201805461120e9061448d565b80601f016020809104026020016040519081016040528092919081815260200182805461123a9061448d565b80156112855780601f1061125c57610100808354040283529160200191611285565b820191905f5260205f20905b81548152906001019060200180831161126857829003601f168201915b5050505050815250509050919050565b60405173ffffffffffffffffffffffffffffffffffffffff84166024820152336044820181905284915f9081906112f0907f70aca0920000000000000000000000000000000000000000000000000000000090606401610af0565b915091505f821561137c57600482511061130f57506020810151611312565b505f5b8061137c57604080518082018252601a81527f4e6f742043616c6c696e6720436f6e74726163742041646d696e000000000000602082015290517f08c379a000000000000000000000000000000000000000000000000000000000815261086c91906004016143fe565b73ffffffffffffffffffffffffffffffffffffffff88166113fc57604080518082018252601c81527f5a65726f20416464726573732043616e6e6f742042652041646d696e00000000602082015290517f08c379a000000000000000000000000000000000000000000000000000000000815261086c91906004016143fe565b5f611405612970565b905061271088889050106040518060600160405280602a81526020016147c0602a913990611460576040517f08c379a000000000000000000000000000000000000000000000000000000000815260040161086c91906143fe565b505f5b878110156115d3575f611474612102565b6001015f8b8b8581811061148a5761148a6143d1565b9050602002013581526020019081526020015f209050805f015f9054906101000a900460ff166040518060400160405280601581526020017f506f6c69637920646f6573206e6f7420657869737400000000000000000000008152509061151e576040517f08c379a000000000000000000000000000000000000000000000000000000000815260040161086c91906143fe565b506115408a8a84818110611534576115346143d1565b905060200201356121f6565b5f600482015460ff16600281111561155a5761155a614410565b036115ca57335f90815260058201602090815260409182902054825160608101909352603980845260ff909116929161486190830139906115c8576040517f08c379a000000000000000000000000000000000000000000000000000000000815260040161086c91906143fe565b505b50600101611463565b508667ffffffffffffffff8111156115ed576115ed6143a4565b604051908082528060200260200182016040528015611616578160200160208202803683370190505b5073ffffffffffffffffffffffffffffffffffffffff8a165f90815260208381526040909120825161164e9391929190910190613c98565b505f5b878110156117565788888281811061166b5761166b6143d1565b90506020020135825f015f8c73ffffffffffffffffffffffffffffffffffffffff1673ffffffffffffffffffffffffffffffffffffffff1681526020019081526020015f2082815481106116c1576116c16143d1565b905f5260205f200181905550816001015f8a8a848181106116e4576116e46143d1565b60209081029290920135835250818101929092526040015f9081208054600180820183559183529290912090910180547fffffffffffffffffffffffff00000000000000000000000000000000000000001673ffffffffffffffffffffffffffffffffffffffff8d1617905501611651565b508873ffffffffffffffffffffffffffffffffffffffff167f12152a04e6faa55f635c036c0cb901dff565d19cd5703f5076adda8206cdb7c6898960405161179f92919061443d565b60405180910390a2505050505050505050565b5f60038660028111156117c7576117c7614410565b60ff16106040518060400160405280601581526020017f506f6c6963795479706520697320696e76616c6964000000000000000000000081525090611839576040517f08c379a000000000000000000000000000000000000000000000000000000000815260040161086c91906143fe565b505f611843612102565b805460019081018083555f8181528284016020526040902080547fffffffffffffffffffffffffffffffffffffffffffffffffffffffffffffff00908116841782556004909101805494955091938b939116908360028111156118a8576118a8614410565b02179055506040517f1929cb64000000000000000000000000000000000000000000000000000000008152600481018290523360248201523090631929cb64906044016020604051808303815f875af1158015611907573d5f5f3e3d5ffd5b505050506040513d601f19601f8201168201806040525081019061192b91906144de565b5061193981888888886129ca565b60405181907fde5ef345cecbaaffdfbe2454b7947aa14037bac2f45e4fc98976f8bffea38623905f90a2979650505050505050565b60405160248101829052336044820181905282915f9081906119b4907f901cee110000000000000000000000000000000000000000000000000000000090606401610765565b915091505f8215611a405760048251106119d3575060208101516119d6565b505f5b80611a4057604080518082018252601881527f4e6f7420417574686f72697a656420546f20506f6c6963790000000000000000602082015290517f08c379a000000000000000000000000000000000000000000000000000000000815261086c91906004016143fe565b611a49866121f6565b6001611a53612102565b5f88815260019190910160205260408082206004018054931515610100027fffffffffffffffffffffffffffffffffffffffffffffffffffffffffffff00ff90941693909317909255905187917fbaf00585ebbdf781652a166975bf4579319799593ec61cfadd690ea9833c3fc891a2505050505050565b6060611ad5612970565b73ffffffffffffffffffffffffffffffffffffffff83165f908152602091825260409081902080548251818502810185019093528083529192909190830182828015611b3e57602002820191905f5260205f20905b815481526020019060010190808311611b2a575b50505050509050919050565b5f611b53612102565b5f928352600101602052506040902060040154610100900460ff1690565b60405160248101829052336044820181905282915f908190611bb7907f901cee110000000000000000000000000000000000000000000000000000000090606401610765565b915091505f8215611c43576004825110611bd657506020810151611bd9565b505f5b80611c4357604080518082018252601881527f4e6f7420417574686f72697a656420546f20506f6c6963790000000000000000602082015290517f08c379a000000000000000000000000000000000000000000000000000000000815261086c91906004016143fe565b611c4c866121f6565b5f611c55612102565b5f8881526001919091016020526040812080547fffffffffffffffffffffffffffffffffffffffffffffffffffffffffffffff001681559150611c96612a13565b5f898152602091909152604081205491505b818111611db757611cb7612a13565b5f8a81526001919091016020908152604080832084845290915290205460ff1615611da557611ce4612a13565b5f8a8152600191820160209081526040808320858452909152812080547fffffffffffffffffffffffffffffffffffffffffffffffffffffffffffffff0016815591820181611d338282613c7d565b600182015f611d428282613c7d565b611d4f600183015f613ce1565b611d5c600283015f613d03565b50611d6c9050600483015f613d1e565b611d79600583015f613d1e565b611d86600683015f613d1e565b611d93600783015f613d39565b611da0600883015f613d39565b505050505b80611daf81614522565b915050611ca8565b505f611dc1612a40565b5f8a8152602091909152604081205491505b818111611ec757611de2612a40565b5f8b81526001919091016020908152604080832084845290915290205460ff1615611eb557611e0f612a40565b5f8b8152600191820160209081526040808320858452909152812080547fffffffffffff0000000000000000000000000000000000000000000000000000168155918201819055611e636002830182613ce1565b611e70600383015f613d57565b611e7d600483015f613d57565b600582015f90555050808a7f19d0bd0cc4d63f9108c93b0abfd7408498ecbc73713f6bb3a2862d9b9d1983d860405160405180910390a35b80611ebf81614522565b915050611dd3565b505f611ed1612a6d565b5f8b81526020829052604090205490915060015b818111611fae575f8c8152600184016020908152604080832084845290915290205460ff1615611f9c57611f17612a6d565b5f8d8152600191820160209081526040808320858452909152812080547fffffffffffffffffffffffffffffffffffffffffffffffffffffffff0000000016815591611f6590830182613d75565b600282015f90555050808c7ed9d817df2d853a886f2cbe7a671a676890264711abbb9d2c3ee79fb1bb653a60405160405180910390a35b80611fa681614522565b915050611ee5565b505f5b60038601548110156120ca5760038601805460018801915f9184908110611fda57611fda6143d1565b905f5260205f2090600891828204019190066004029054906101000a900460e01b7bffffffffffffffffffffffffffffffffffffffffffffffffffffffff19167bffffffffffffffffffffffffffffffffffffffffffffffffffffffff191681526020019081526020015f205f9055856001016001015f876001016002018381548110612069576120696143d1565b5f918252602080832060088304015460079092166004026101000a90910460e01b7fffffffff0000000000000000000000000000000000000000000000000000000016835282019290925260400181206120c291613c7d565b600101611fb1565b506040518b907f433ab09ab993382af577c4a70f77dcc7cf149b5b52eb40d19b869664bfb5496d905f90a25050505050505050505050565b5f8061212f60017ff9dbd639dd2ea165d77dd4c51dec420100d51ceacf023b1c40faa045ba8f9a65614559565b92915050565b5f60605f612141612a9a565b7fffffffff0000000000000000000000000000000000000000000000000000000086165f908152602082905260409081902054905191925073ffffffffffffffffffffffffffffffffffffffff1690819061219d90879061456c565b5f60405180830381855af49150503d805f81146121d5576040519150601f19603f3d011682016040523d82523d5f602084013e6121da565b606091505b509094509250836121ed57825160208401fd5b50509250929050565b6121fe612102565b5f8281526001919091016020526040902060040154610100900460ff161561228557604080518082018252601f81527f4e6f7420616c6c6f77656420666f722063656d656e74656420706f6c69637900602082015290517f08c379a000000000000000000000000000000000000000000000000000000000815261086c91906004016143fe565b50565b5f612291612102565b5f84815260019182016020526040812090910191508260028111156122b8576122b8614410565b036124a6575f6122c6612970565b90505f5b5f85815260018301602052604090205481101561248b575f8581526001830160205260408120805483908110612302576123026143d1565b5f91825260208083209091015473ffffffffffffffffffffffffffffffffffffffff16808352908590526040822054909250905b818110156124805773ffffffffffffffffffffffffffffffffffffffff83165f908152602086905260409020805489919083908110612377576123776143d1565b905f5260205f2001540361247857805b612392600184614559565b81101561242c5773ffffffffffffffffffffffffffffffffffffffff84165f9081526020879052604090206123c8826001614582565b815481106123d8576123d86143d1565b5f91825260208083209091015473ffffffffffffffffffffffffffffffffffffffff87168352908890526040909120805483908110612419576124196143d1565b5f91825260209091200155600101612387565b5073ffffffffffffffffffffffffffffffffffffffff83165f90815260208690526040902080548061246057612460614595565b600190038181905f5260205f20015f90559055612480565b600101612336565b5050506001016122ca565b505f84815260018201602052604081206124a491613c7d565b505b6003810180548391907fffffffffffffffffffffffffffffffffffffffffffffffffffffffffffffff001660018360028111156124e5576124e5614410565b0217905550505050565b6040516024810183905273ffffffffffffffffffffffffffffffffffffffff821660448201525f908190612547907f901cee110000000000000000000000000000000000000000000000000000000090606401610765565b915091505f82156125cc576004825110612562575060208101515b806125cc57604080518082018252601881527f4e6f7420417574686f72697a656420546f20506f6c6963790000000000000000602082015290517f08c379a000000000000000000000000000000000000000000000000000000000815261086c91906004016143fe565b5050505050565b5f60038660028111156125e8576125e8614410565b60ff16106040518060400160405280601581526020017f506f6c6963795479706520697320696e76616c696400000000000000000000008152509061265a576040517f08c379a000000000000000000000000000000000000000000000000000000000815260040161086c91906143fe565b5060408051808201909152601381527f506f6c696379496420697320696e76616c69640000000000000000000000000060208201528d6126c7576040517f08c379a000000000000000000000000000000000000000000000000000000000815260040161086c91906143fe565b505f6126d1612102565b5f8f81526001918201602052604090200190506126ee8e88612288565b6126fb8e878787876129ca565b5f8160020180548060200260200160405190810160405280929190818152602001828054801561278957602002820191905f5260205f20905f905b82829054906101000a900460e01b7bffffffffffffffffffffffffffffffffffffffffffffffffffffffff1916815260200190600401906020826003010492830192600103820291508084116127365790505b509394505f93505050505b815181101561281a57826001015f8383815181106127b4576127b46143d1565b60200260200101517bffffffffffffffffffffffffffffffffffffffffffffffffffffffff19167bffffffffffffffffffffffffffffffffffffffffffffffffffffffff191681526020019081526020015f205f6128129190613c7d565b600101612794565b50612828600283015f613dac565b60408051808201909152601881527f4d61782072756c657320636f756e7420726561636865642e000000000000000060208201526127108a10612898576040517f08c379a000000000000000000000000000000000000000000000000000000000815260040161086c91906143fe565b5060408051808201909152601e81527f4d61782063616c6c696e672066756e6374696f6e7320726561636865642e000060208201526127108e10612909576040517f08c379a000000000000000000000000000000000000000000000000000000000815260040161086c91906143fe565b508815612925576129208f8f8f8f8f8f8f89612ac7565b612933565b6129338f8f8f8f8f87612d40565b6040518f907f912ce63c438aca9d2f50d1d12de5b42efbcc84ce223b08122e8c2e3c000ca1f8905f90a2509c9d9c50505050505050505050505050565b5f8061212f60017f1544053a94493269e0aa160e5aa5b54d19ee6492c78b8bd3af283b912c78cdeb614559565b5f8061212f60017f63f3d299b5e5eaa88e38f63d9fdd88083599db769ec9e20669cb4ec11339fadf614559565b5f6129d361299d565b5f8781526020829052604090209091506129ee858783614606565b505f868152602082905260409020600101612a0a838583614606565b50505050505050565b5f8061212f60017f5c91f63a4ffcbd372b8ec622fd1fcaaa601b66330afdb30e5c292dd9123f20b0614559565b5f8061212f60017f1f3305601ed940efccf797d76856e5fe70659a8a6905d64c9f236321df91e718614559565b5f8061212f60017f438102ff677bc3f21830c58117a05d6b953b31e3ea339da3f17957cd3941a690614559565b5f8061212f60017fbe498a3b14fd79a48c3c9af86ff14271ed497d09071013334028d28e7791db20614559565b818614801590612ad657508515155b15612b4057604080518082018252601981527f496e76616c69642072756c65206172726179206c656e67746800000000000000602082015290517f08c379a000000000000000000000000000000000000000000000000000000000815261086c91906004016143fe565b5f5b86811015612d3557612b9389878784818110612b6057612b606143d1565b905060200201358a8a85818110612b7957612b796143d1565b9050602002016020810190612b8e919061471c565b612ec8565b612bfc57604080518082018252601181527f496e76616c6964205369676e6174757265000000000000000000000000000000602082015290517f08c379a000000000000000000000000000000000000000000000000000000000815261086c91906004016143fe565b858582818110612c0e57612c0e6143d1565b90506020020135825f015f8a8a85818110612c2b57612c2b6143d1565b9050602002016020810190612c40919061471c565b7fffffffff0000000000000000000000000000000000000000000000000000000016815260208101919091526040015f205560028201888883818110612c8857612c886143d1565b9050602002016020810190612c9d919061471c565b81546001810183555f92835260209092206008830401805463ffffffff60079094166004026101000a938402191660e09290921c92909202179055612d2d89898984818110612cee57612cee6143d1565b9050602002016020810190612d03919061471c565b868685818110612d1557612d156143d1565b9050602002810190612d27919061475b565b86612f74565b600101612b42565b505050505050505050565b5f5b84811015612a0a57612d7987858584818110612d6057612d606143d1565b90506020020135888885818110612b7957612b796143d1565b612de257604080518082018252601181527f496e76616c6964205369676e6174757265000000000000000000000000000000602082015290517f08c379a000000000000000000000000000000000000000000000000000000000815261086c91906004016143fe565b838382818110612df457612df46143d1565b90506020020135825f015f888885818110612e1157612e116143d1565b9050602002016020810190612e26919061471c565b7fffffffff0000000000000000000000000000000000000000000000000000000016815260208101919091526040015f205560028201868683818110612e6e57612e6e6143d1565b9050602002016020810190612e83919061471c565b8154600180820184555f93845260209093206008820401805463ffffffff60079093166004026101000a928302191660e09390931c9190910291909117905501612d42565b5f612ed1613a1c565b5f8581526001919091016020908152604080832086845290915290205460ff168015612f6c57507fffffffff000000000000000000000000000000000000000000000000000000008216612f23613a1c565b5f86815260019190910160209081526040808320878452909152902054610100900460e01b7fffffffff0000000000000000000000000000000000000000000000000000000016145b949350505050565b5f5b82811015613a14575f612f87612a13565b5f8881526001919091016020526040812090868685818110612fab57612fab6143d1565b602090810292909201358352508181019290925260409081015f2081518083018352815460ff161515815282516001830180546101008188028401810190965260e08301818152939694959487019492939192849291849184018282801561303057602002820191905f5260205f20905b81548152602001906001019080831161301c575b50505050508152602001600182016040518060600160405290815f820180548060200260200160405190810160405280929190818152602001828054801561309557602002820191905f5260205f20905b815481526020019060010190808311613081575b505050505081526020016001820180548060200260200160405190810160405280929190818152602001828054801561311a57602002820191905f5260205f20905f905b82829054906101000a900460ff1660078111156130f8576130f8614410565b8152602060019283018181049485019490930390920291018084116130d95790505b5050505050815260200160028201805480602002602001604051908101604052809291908181526020015f905b828210156131ef578382905f5260205f200180546131649061448d565b80601f01602080910402602001604051908101604052809291908181526020018280546131909061448d565b80156131db5780601f106131b2576101008083540402835291602001916131db565b820191905f5260205f20905b8154815290600101906020018083116131be57829003601f168201915b505050505081526020019060010190613147565b5050505081525050815260200160048201805480602002602001604051908101604052809291908181526020015f905b828210156132bc575f8481526020902060408051606081019091529083018054829060ff16600781111561325557613255614410565b600781111561326657613266614410565b8152905461010081046fffffffffffffffffffffffffffffffff166020808401919091527101000000000000000000000000000000000090910460ff16604090920191909152908252600192909201910161321f565b50505050815260200160058201805480602002602001604051908101604052809291908181526020015f905b82821015613385575f8481526020902060408051606081019091529083018054829060ff16600781111561331e5761331e614410565b600781111561332f5761332f614410565b8152905461010081046fffffffffffffffffffffffffffffffff166020808401919091527101000000000000000000000000000000000090910460ff1660409092019190915290825260019290920191016132e8565b50505050815260200160068201805480602002602001604051908101604052809291908181526020015f905b8282101561344e575f8481526020902060408051606081019091529083018054829060ff1660078111156133e7576133e7614410565b60078111156133f8576133f8614410565b8152905461010081046fffffffffffffffffffffffffffffffff166020808401919091527101000000000000000000000000000000000090910460ff1660409092019190915290825260019290920191016133b1565b50505050815260200160078201805480602002602001604051908101604052809291908181526020015f905b828210156136b3575f84815260209081902060408051610100808201835260058702909301805460ff8082161515845294810485161515958301959095529093909291840191620100009091041660028111156134d9576134d9614410565b60028111156134ea576134ea614410565b815281546020909101906301000000900460ff16600781111561350f5761350f614410565b600781111561352057613520614410565b81526020016001820180546135349061448d565b80601f01602080910402602001604051908101604052809291908181526020018280546135609061448d565b80156135ab5780601f10613582576101008083540402835291602001916135ab565b820191905f5260205f20905b81548152906001019060200180831161358e57829003601f168201915b50505050508152602001600282015481526020016003820180546135ce9061448d565b80601f01602080910402602001604051908101604052809291908181526020018280546135fa9061448d565b80156136455780601f1061361c57610100808354040283529160200191613645565b820191905f5260205f20905b81548152906001019060200180831161362857829003601f168201915b505050505081526020016004820180548060200260200160405190810160405280929190818152602001828054801561369b57602002820191905f5260205f20905b815481526020019060010190808311613687575b5050505050815250508152602001906001019061347a565b50505050815260200160088201805480602002602001604051908101604052809291908181526020015f905b82821015613918575f84815260209081902060408051610100808201835260058702909301805460ff80821615158452948104851615159583019590955290939092918401916201000090910416600281111561373e5761373e614410565b600281111561374f5761374f614410565b815281546020909101906301000000900460ff16600781111561377457613774614410565b600781111561378557613785614410565b81526020016001820180546137999061448d565b80601f01602080910402602001604051908101604052809291908181526020018280546137c59061448d565b80156138105780601f106137e757610100808354040283529160200191613810565b820191905f5260205f20905b8154815290600101906020018083116137f357829003601f168201915b50505050508152602001600282015481526020016003820180546138339061448d565b80601f016020809104026020016040519081016040528092919081815260200182805461385f9061448d565b80156138aa5780601f10613881576101008083540402835291602001916138aa565b820191905f5260205f20905b81548152906001019060200180831161388d57829003601f168201915b505050505081526020016004820180548060200260200160405190810160405280929190818152602001828054801561390057602002820191905f5260205f20905b8154815260200190600101908083116138ec575b505050505081525050815260200190600101906136df565b50505091525050905250805190915061399057604080518082018252600c81527f496e76616c69642052756c650000000000000000000000000000000000000000602082015290517f08c379a000000000000000000000000000000000000000000000000000000000815261086c91906004016143fe565b6139a287826020015160400151613a49565b7fffffffff0000000000000000000000000000000000000000000000000000000086165f90815260018401602052604090208585848181106139e6576139e66143d1565b8354600180820186555f95865260209586902092909502939093013592019190915550919091019050612f76565b505050505050565b5f8061212f60017fdc82e9666de28bef254c770aa394fdb200d98373b70390c27adec32819f8f266614559565b6127108151106040518060400160405280601a81526020017f4d617820706c61636520686f6c6465727320726561636865642e00000000000081525090613abd576040517f08c379a000000000000000000000000000000000000000000000000000000000815260040161086c91906143fe565b505f5b8151811015613c4557613af0828281518110613ade57613ade6143d1565b60200260200101516040015160011690565b15613b8557613b2e83838381518110613b0b57613b0b6143d1565b6020026020010151602001516fffffffffffffffffffffffffffffffff16613c4a565b60405180606001604052806027815260200161480c6027913990613b7f576040517f08c379a000000000000000000000000000000000000000000000000000000000815260040161086c91906143fe565b50613c3d565b613bac828281518110613b9a57613b9a6143d1565b60200260200101516040015160021690565b15613c3d57613bea83838381518110613bc757613bc76143d1565b6020026020010151602001516fffffffffffffffffffffffffffffffff16613c74565b6040518060600160405280602281526020016147ea6022913990613c3b576040517f08c379a000000000000000000000000000000000000000000000000000000000815260040161086c91906143fe565b505b600101613ac0565b505050565b5f613c53612a40565b5f938452600101602090815260408085209385529290525090205460ff1690565b5f613c53612a6d565b5080545f8255905f5260205f20908101906122859190613dca565b828054828255905f5260205f20908101928215613cd1579160200282015b82811115613cd1578251825591602001919060010190613cb6565b50613cdd929150613dca565b5090565b5080545f8255601f0160209004905f5260205f20908101906122859190613dca565b5080545f8255905f5260205f20908101906122859190613dde565b5080545f8255905f5260205f20908101906122859190613dfa565b5080545f8255600502905f5260205f20908101906122859190613e31565b5080545f8255600202905f5260205f20908101906122859190613e99565b508054613d819061448d565b5f825580601f10613d90575050565b601f0160209004905f5260205f20908101906122859190613dca565b5080545f825560070160089004905f5260205f209081019061228591905b5b80821115613cdd575f8155600101613dcb565b80821115613cdd575f613df18282613d75565b50600101613dde565b5b80821115613cdd5780547fffffffffffffffffffffffffffff000000000000000000000000000000000000168155600101613dfb565b80821115613cdd5780547fffffffffffffffffffffffffffffffffffffffffffffffffffffffff000000001681555f613e6d6001830182613d75565b600282015f9055600382015f613e839190613d75565b613e90600483015f613c7d565b50600501613e31565b5b80821115613cdd5780547fffffffffffffffffffffffffffffffffffffffffffffffffffffffffffffff001681555f6001820155600201613e9a565b5f60208284031215613ee6575f5ffd5b5035919050565b5f8151808452602084019350602083015f5b82811015613f1d578151865260209586019590910190600101613eff565b5093949350505050565b606080825284519082018190525f9060208601906080840190835b81811015613f825783517fffffffff0000000000000000000000000000000000000000000000000000000016835260209384019390920191600101613f42565b50508381036020850152613f968187613eed565b915050828103604084015280845180835260208301915060208160051b840101602087015f5b8381101561400c577fffffffffffffffffffffffffffffffffffffffffffffffffffffffffffffffe0868403018552613ff6838351613eed565b6020958601959093509190910190600101613fbc565b50909998505050505050505050565b5f5f83601f84011261402b575f5ffd5b50813567ffffffffffffffff811115614042575f5ffd5b6020830191508360208260051b850101111561405c575f5ffd5b9250929050565b803560038110614071575f5ffd5b919050565b5f5f83601f840112614086575f5ffd5b50813567ffffffffffffffff81111561409d575f5ffd5b60208301915083602082850101111561405c575f5ffd5b5f5f5f5f5f5f5f5f5f5f5f5f60e08d8f0312156140cf575f5ffd5b8c359b5067ffffffffffffffff60208e013511156140eb575f5ffd5b6140fb8e60208f01358f0161401b565b909b50995067ffffffffffffffff60408e01351115614118575f5ffd5b6141288e60408f01358f0161401b565b909950975067ffffffffffffffff60608e01351115614145575f5ffd5b6141558e60608f01358f0161401b565b909750955061416660808e01614063565b945067ffffffffffffffff60a08e01351115614180575f5ffd5b6141908e60a08f01358f01614076565b909450925067ffffffffffffffff60c08e013511156141ad575f5ffd5b6141bd8e60c08f01358f01614076565b81935080925050509295989b509295989b509295989b565b803573ffffffffffffffffffffffffffffffffffffffff81168114614071575f5ffd5b5f5f5f6040848603121561420a575f5ffd5b614213846141d5565b9250602084013567ffffffffffffffff81111561422e575f5ffd5b61423a8682870161401b565b9497909650939450505050565b5f81518084528060208401602086015e5f6020828601015260207fffffffffffffffffffffffffffffffffffffffffffffffffffffffffffffffe0601f83011685010191505092915050565b602081525f8251604060208401526142ae6060840182614247565b905060208401517fffffffffffffffffffffffffffffffffffffffffffffffffffffffffffffffe08483030160408501526142e98282614247565b95945050505050565b5f5f5f5f5f60608688031215614306575f5ffd5b61430f86614063565b9450602086013567ffffffffffffffff81111561432a575f5ffd5b61433688828901614076565b909550935050604086013567ffffffffffffffff811115614355575f5ffd5b61436188828901614076565b969995985093965092949392505050565b5f60208284031215614382575f5ffd5b61438b826141d5565b9392505050565b602081525f61438b6020830184613eed565b7f4e487b71000000000000000000000000000000000000000000000000000000005f52604160045260245ffd5b7f4e487b71000000000000000000000000000000000000000000000000000000005f52603260045260245ffd5b602081525f61438b6020830184614247565b7f4e487b71000000000000000000000000000000000000000000000000000000005f52602160045260245ffd5b602081528160208201525f7f07ffffffffffffffffffffffffffffffffffffffffffffffffffffffffffffff831115614474575f5ffd5b8260051b80856040850137919091016040019392505050565b600181811c908216806144a157607f821691505b6020821081036144d8577f4e487b71000000000000000000000000000000000000000000000000000000005f52602260045260245ffd5b50919050565b5f602082840312156144ee575f5ffd5b5051919050565b7f4e487b71000000000000000000000000000000000000000000000000000000005f52601160045260245ffd5b5f7fffffffffffffffffffffffffffffffffffffffffffffffffffffffffffffffff8203614552576145526144f5565b5060010190565b8181038181111561212f5761212f6144f5565b5f82518060208501845e5f920191825250919050565b8082018082111561212f5761212f6144f5565b7f4e487b71000000000000000000000000000000000000000000000000000000005f52603160045260245ffd5b601f821115613c4557805f5260205f20601f840160051c810160208510156145e75750805b601f840160051c820191505b818110156125cc575f81556001016145f3565b67ffffffffffffffff83111561461e5761461e6143a4565b6146328361462c835461448d565b836145c2565b5f601f841160018114614682575f851561464c5750838201355b7fffffffffffffffffffffffffffffffffffffffffffffffffffffffffffffffff600387901b1c1916600186901b1783556125cc565b5f838152602081207fffffffffffffffffffffffffffffffffffffffffffffffffffffffffffffffe08716915b828110156146cf57868501358255602094850194600190920191016146af565b508682101561470a577fffffffffffffffffffffffffffffffffffffffffffffffffffffffffffffffff60f88860031b161c19848701351681555b505060018560011b0183555050505050565b5f6020828403121561472c575f5ffd5b81357fffffffff000000000000000000000000000000000000000000000000000000008116811461438b575f5ffd5b5f5f83357fffffffffffffffffffffffffffffffffffffffffffffffffffffffffffffffe184360301811261478e575f5ffd5b83018035915067ffffffffffffffff8211156147a8575f5ffd5b6020019150600581901b360382131561405c575f5ffdfe4d617820706f6c69636965732070657220636f6e7472616374206164647265737320726561636865642e547261636b6572207265666572656e63656420696e2072756c65206e6f7420736574466f726569676e2043616c6c207265666572656e63656420696e2072756c65206e6f74207365745369676e61747572657320616e64207369676e617475726520696427732061726520696e636f6e73697374656e744f6e6c7920766572696669656420706f6c69637920737562736372696265722063616e206170706c7920636c6f73656420706f6c6963696573a2646970667358221220c707ee4baa3460ef4f07d0d3e4e9e00ace038f0458c504882d4eb1e03a2fe9a364736f6c634300081c0033","linkReferences":{}},"methodIdentifiers":{"applyPolicy(address,uint256[])":"9228303f","cementPolicy(uint256)":"d46a37c4","closePolicy(uint256)":"2b0e4440","createPolicy(uint8,string,string)":"95953fba","deletePolicy(uint256)":"fed27c8f","disablePolicy(uint256)":"30ab6a0a","getAppliedPolicyIds(address)":"e3749023","getPolicy(uint256)":"2b07fce3","getPolicyMetadata(uint256)":"8cf7a293","isCementedPolicy(uint256)":"f7b570f6","isClosedPolicy(uint256)":"4f10689b","isDisabledPolicy(uint256)":"696ef703","openPolicy(uint256)":"798d6c7b","unapplyPolicy(address,uint256[])":"5239f98c","updatePolicy(uint256,bytes4[],uint256[],uint256[][],uint8,string,string)":"2e9ec08b"},"id":78}