{"abi":[{"type":"function","name":"applyPolicy","inputs":[{"name":"contractAddress","type":"address","internalType":"address"},{"name":"policyIds","type":"uint256[]","internalType":"uint256[]"}],"outputs":[],"stateMutability":"nonpayable"},{"type":"function","name":"cementPolicy","inputs":[{"name":"policyId","type":"uint256","internalType":"uint256"}],"outputs":[],"stateMutability":"nonpayable"},{"type":"function","name":"closePolicy","inputs":[{"name":"policyId","type":"uint256","internalType":"uint256"}],"outputs":[],"stateMutability":"nonpayable"},{"type":"function","name":"createPolicy","inputs":[{"name":"policyType","type":"uint8","internalType":"enum PolicyType"},{"name":"policyName","type":"string","internalType":"string"},{"name":"policyDescription","type":"string","internalType":"string"}],"outputs":[{"name":"","type":"uint256","internalType":"uint256"}],"stateMutability":"nonpayable"},{"type":"function","name":"deletePolicy","inputs":[{"name":"policyId","type":"uint256","internalType":"uint256"}],"outputs":[],"stateMutability":"nonpayable"},{"type":"function","name":"disablePolicy","inputs":[{"name":"policyId","type":"uint256","internalType":"uint256"}],"outputs":[],"stateMutability":"nonpayable"},{"type":"function","name":"getAppliedPolicyIds","inputs":[{"name":"contractAddress","type":"address","internalType":"address"}],"outputs":[{"name":"","type":"uint256[]","internalType":"uint256[]"}],"stateMutability":"view"},{"type":"function","name":"getPolicy","inputs":[{"name":"policyId","type":"uint256","internalType":"uint256"}],"outputs":[{"name":"callingFunctions","type":"bytes4[]","internalType":"bytes4[]"},{"name":"ruleIds","type":"uint256[][]","internalType":"uint256[][]"}],"stateMutability":"view"},{"type":"function","name":"getPolicyMetadata","inputs":[{"name":"_policyId","type":"uint256","internalType":"uint256"}],"outputs":[{"name":"","type":"tuple","internalType":"struct PolicyMetadata","components":[{"name":"policyName","type":"string","internalType":"string"},{"name":"policyDescription","type":"string","internalType":"string"}]}],"stateMutability":"view"},{"type":"function","name":"isCementedPolicy","inputs":[{"name":"_policyId","type":"uint256","internalType":"uint256"}],"outputs":[{"name":"","type":"bool","internalType":"bool"}],"stateMutability":"view"},{"type":"function","name":"isClosedPolicy","inputs":[{"name":"policyId","type":"uint256","internalType":"uint256"}],"outputs":[{"name":"","type":"bool","internalType":"bool"}],"stateMutability":"view"},{"type":"function","name":"isDisabledPolicy","inputs":[{"name":"policyId","type":"uint256","internalType":"uint256"}],"outputs":[{"name":"","type":"bool","internalType":"bool"}],"stateMutability":"view"},{"type":"function","name":"openPolicy","inputs":[{"name":"policyId","type":"uint256","internalType":"uint256"}],"outputs":[],"stateMutability":"nonpayable"},{"type":"function","name":"unapplyPolicy","inputs":[{"name":"_contractAddress","type":"address","internalType":"address"},{"name":"_policyIds","type":"uint256[]","internalType":"uint256[]"}],"outputs":[],"stateMutability":"nonpayable"},{"type":"function","name":"updatePolicy","inputs":[{"name":"policyId","type":"uint256","internalType":"uint256"},{"name":"callingFunctions","type":"bytes4[]","internalType":"bytes4[]"},{"name":"ruleIds","type":"uint256[][]","internalType":"uint256[][]"},{"name":"policyType","type":"uint8","internalType":"enum PolicyType"},{"name":"policyName","type":"string","internalType":"string"},{"name":"policyDescription","type":"string","internalType":"string"}],"outputs":[{"name":"","type":"uint256","internalType":"uint256"}],"stateMutability":"nonpayable"},{"type":"function","name":"version","inputs":[],"outputs":[{"name":"","type":"string","internalType":"string"}],"stateMutability":"view"},{"type":"event","name":"ForeignCallDeleted","inputs":[{"name":"policyId","type":"uint256","indexed":true,"internalType":"uint256"},{"name":"foreignCallId","type":"uint256","indexed":true,"internalType":"uint256"}],"anonymous":false},{"type":"event","name":"PolicyApplied","inputs":[{"name":"policyIds","type":"uint256[]","indexed":false,"internalType":"uint256[]"},{"name":"callingContract","type":"address","indexed":true,"internalType":"address"}],"anonymous":false},{"type":"event","name":"PolicyCemented","inputs":[{"name":"policyId","type":"uint256","indexed":true,"internalType":"uint256"}],"anonymous":false},{"type":"event","name":"PolicyClosed","inputs":[{"name":"policyId","type":"uint256","indexed":true,"internalType":"uint256"}],"anonymous":false},{"type":"event","name":"PolicyCreated","inputs":[{"name":"policyId","type":"uint256","indexed":true,"internalType":"uint256"}],"anonymous":false},{"type":"event","name":"PolicyDeleted","inputs":[{"name":"policyId","type":"uint256","indexed":true,"internalType":"uint256"}],"anonymous":false},{"type":"event","name":"PolicyDisabled","inputs":[{"name":"policyId","type":"uint256","indexed":true,"internalType":"uint256"}],"anonymous":false},{"type":"event","name":"PolicyOpened","inputs":[{"name":"policyId","type":"uint256","indexed":true,"internalType":"uint256"}],"anonymous":false},{"type":"event","name":"PolicyUnapplied","inputs":[{"name":"policyIds","type":"uint256[]","indexed":false,"internalType":"uint256[]"},{"name":"callingContract","type":"address","indexed":true,"internalType":"address"}],"anonymous":false},{"type":"event","name":"PolicyUpdated","inputs":[{"name":"policyId","type":"uint256","indexed":true,"internalType":"uint256"}],"anonymous":false},{"type":"event","name":"TrackerDeleted","inputs":[{"name":"policyId","type":"uint256","indexed":true,"internalType":"uint256"},{"name":"trackerId","type":"uint256","indexed":true,"internalType":"uint256"}],"anonymous":false}],"bytecode":{"object":"0x6080604052348015600e575f5ffd5b5061481f8061001c5f395ff3fe608060405234801561000f575f5ffd5b50600436106100fb575f3560e01c80638cf7a29311610093578063d46a37c411610063578063d46a37c41461025d578063e374902314610270578063f7b570f614610290578063fed27c8f146102a3575f5ffd5b80638cf7a293146101f65780639228303f1461021657806395953fba14610229578063cc486bc51461024a575f5ffd5b80635239f98c116100ce5780635239f98c1461017457806354fd4d5014610187578063696ef703146101d0578063798d6c7b146101e3575f5ffd5b80632b07fce3146100ff5780632b0e44401461012957806330ab6a0a1461013e5780634f10689b14610151575b5f5ffd5b61011261010d366004613e93565b6102b6565b604051610120929190613eaa565b60405180910390f35b61013c610137366004613e93565b61062f565b005b61013c61014c366004613e93565b6107c6565b61016461015f366004613e93565b6108de565b6040519015158152602001610120565b61013c610182366004614022565b610919565b6101c36040518060400160405280600681526020017f76302e372e30000000000000000000000000000000000000000000000000000081525081565b60405161012091906140bd565b6101646101de366004613e93565b610e9b565b61013c6101f1366004613e93565b610ea3565b610209610204366004613e93565b610fbb565b60405161012091906140d6565b61013c610224366004614022565b611115565b61023c610237366004614181565b611632565b604051908152602001610120565b61023c610258366004614201565b611848565b61013c61026b366004613e93565b611903565b61028361027e3660046142ec565b611a60565b6040516101209190614305565b61016461029e366004613e93565b611adf565b61013c6102b1366004613e93565b611b06565b6060805f6102c26122f4565b5f8581526001918201602052604090206002810154910191501561037e57600181015467ffffffffffffffff8111156102fd576102fd614347565b604051908082528060200260200182016040528015610326578160200160208202803683370190505b50600182015490935067ffffffffffffffff81111561034757610347614347565b60405190808252806020026020018201604052801561037a57816020015b60608152602001906001900390816103655790505b5091505b5f5b6001820154811015610628578160010181815481106103a1576103a1614374565b905f5260205f2090600891828204019190066004029054906101000a900460e01b8482815181106103d4576103d4614374565b7fffffffff000000000000000000000000000000000000000000000000000000009092166020928302919091019091015260018201805483915f918490811061041f5761041f614374565b5f918252602080832060088304015460079092166004026101000a90910460e01b7fffffffff0000000000000000000000000000000000000000000000000000000016835282019290925260400190205467ffffffffffffffff81111561048857610488614347565b6040519080825280602002602001820160405280156104b1578160200160208202803683370190505b508382815181106104c4576104c4614374565b60209081029190910101525f5b825f015f8460010184815481106104ea576104ea614374565b5f918252602080832060088304015460079092166004026101000a90910460e01b7fffffffff0000000000000000000000000000000000000000000000000000000016835282019290925260400190205481101561061f57825f015f84600101848154811061055b5761055b614374565b905f5260205f2090600891828204019190066004029054906101000a900460e01b7bffffffffffffffffffffffffffffffffffffffffffffffffffffffff19167bffffffffffffffffffffffffffffffffffffffffffffffffffffffff191681526020019081526020015f2081815481106105d8576105d8614374565b905f5260205f2001548483815181106105f3576105f3614374565b6020026020010151828151811061060c5761060c614374565b60209081029190910101526001016104d1565b50600101610380565b5050915091565b60405160248101829052336044820181905282915f9081906106ec907f901cee1100000000000000000000000000000000000000000000000000000000906064015b604080517fffffffffffffffffffffffffffffffffffffffffffffffffffffffffffffffe08184030181529190526020810180517bffffffffffffffffffffffffffffffffffffffffffffffffffffffff167f901cee1100000000000000000000000000000000000000000000000000000000179052612327565b915091505f821561078157600482511061070b5750602081015161070e565b505f5b8061078157604080518082018252601881527f4e6f7420417574686f72697a656420546f20506f6c6963790000000000000000602082015290517f08c379a000000000000000000000000000000000000000000000000000000000815261077891906004016140bd565b60405180910390fd5b61078a866123e8565b610794865f61247a565b60405186907f524fcc256039a8ee7fd3d614ec713bd4a9159d02d7261ae80028fc15b45c4848905f90a2505050505050565b60405160248101829052336044820181905282915f90819061080c907f901cee110000000000000000000000000000000000000000000000000000000090606401610671565b915091505f821561089857600482511061082b5750602081015161082e565b505f5b8061089857604080518082018252601881527f4e6f7420417574686f72697a656420546f20506f6c6963790000000000000000602082015290517f08c379a000000000000000000000000000000000000000000000000000000000815261077891906004016140bd565b6108a1866123e8565b6108ac86600261247a565b60405186907faed86353bce2e7a37fbb57488f79d0a22f46359b908581f14d7106e2b67fd0e1905f90a2505050505050565b5f805b6108e96122f4565b5f848152600191909101602052604090206003015460ff166002811115610912576109126143a1565b1492915050565b60405173ffffffffffffffffffffffffffffffffffffffff84166024820152336044820181905284915f9081906109eb907f70aca09200000000000000000000000000000000000000000000000000000000906064015b604080517fffffffffffffffffffffffffffffffffffffffffffffffffffffffffffffffe08184030181529190526020810180517bffffffffffffffffffffffffffffffffffffffffffffffffffffffff167f70aca09200000000000000000000000000000000000000000000000000000000179052612327565b915091505f8215610a77576004825110610a0a57506020810151610a0d565b505f5b80610a7757604080518082018252601a81527f4e6f742043616c6c696e6720436f6e74726163742041646d696e000000000000602082015290517f08c379a000000000000000000000000000000000000000000000000000000000815261077891906004016140bd565b73ffffffffffffffffffffffffffffffffffffffff8816610af757604080518082018252601c81527f5a65726f20416464726573732043616e6e6f742042652041646d696e00000000602082015290517f08c379a000000000000000000000000000000000000000000000000000000000815261077891906004016140bd565b5f610b006124e1565b73ffffffffffffffffffffffffffffffffffffffff8a165f9081526020828152604080832080548251818502810185019093528083529495509293909291830182828015610b6b57602002820191905f5260205f20905b815481526020019060010190808311610b57575b5050505073ffffffffffffffffffffffffffffffffffffffff8c165f908152602085905260408120929350610ba1929150613c56565b5f805b8251811015610c64575f9150815b8a811015610bff578b8b82818110610bcc57610bcc614374565b90506020020135848381518110610be557610be5614374565b602002602001015103610bf757600192505b600101610bb2565b5081610c5c5773ffffffffffffffffffffffffffffffffffffffff8c165f9081526020859052604090208351849083908110610c3d57610c3d614374565b60209081029190910181015182546001810184555f9384529190922001555b600101610ba4565b505f5b89811015610e3d575f846001015f8d8d85818110610c8757610c87614374565b9050602002013581526020019081526020015f20805480602002602001604051908101604052809291908181526020018280548015610cfa57602002820191905f5260205f20905b815473ffffffffffffffffffffffffffffffffffffffff168152600190910190602001808311610ccf575b50505050509050846001015f8d8d85818110610d1857610d18614374565b9050602002013581526020019081526020015f205f610d379190613c56565b5f5b8151811015610e33578d73ffffffffffffffffffffffffffffffffffffffff16828281518110610d6b57610d6b614374565b602002602001015173ffffffffffffffffffffffffffffffffffffffff1614610e2b57856001015f8e8e86818110610da557610da5614374565b9050602002013581526020019081526020015f20828281518110610dcb57610dcb614374565b60209081029190910181015182546001810184555f938452919092200180547fffffffffffffffffffffffff00000000000000000000000000000000000000001673ffffffffffffffffffffffffffffffffffffffff9092169190911790555b600101610d39565b5050600101610c67565b508a73ffffffffffffffffffffffffffffffffffffffff167fcca48239a70eb9b3cebd3ea981ec0ca547a1eac614fb9ef7c80422484582c10b8b8b604051610e869291906143ce565b60405180910390a25050505050505050505050565b5f60026108e1565b60405160248101829052336044820181905282915f908190610ee9907f901cee110000000000000000000000000000000000000000000000000000000090606401610671565b915091505f8215610f75576004825110610f0857506020810151610f0b565b505f5b80610f7557604080518082018252601881527f4e6f7420417574686f72697a656420546f20506f6c6963790000000000000000602082015290517f08c379a000000000000000000000000000000000000000000000000000000000815261077891906004016140bd565b610f7e866123e8565b610f8986600161247a565b60405186907fe9a53e8109d105e8132e423c8a8489a6c054acbfff3373248be4938a857143d9905f90a2505050505050565b6040805180820190915260608082526020820152610fd761250e565b5f8381526020919091526040908190208151808301909252805482908290610ffe9061441e565b80601f016020809104026020016040519081016040528092919081815260200182805461102a9061441e565b80156110755780601f1061104c57610100808354040283529160200191611075565b820191905f5260205f20905b81548152906001019060200180831161105857829003601f168201915b5050505050815260200160018201805461108e9061441e565b80601f01602080910402602001604051908101604052809291908181526020018280546110ba9061441e565b80156111055780601f106110dc57610100808354040283529160200191611105565b820191905f5260205f20905b8154815290600101906020018083116110e857829003601f168201915b5050505050815250509050919050565b60405173ffffffffffffffffffffffffffffffffffffffff84166024820152336044820181905284915f908190611170907f70aca0920000000000000000000000000000000000000000000000000000000090606401610970565b915091505f82156111fc57600482511061118f57506020810151611192565b505f5b806111fc57604080518082018252601a81527f4e6f742043616c6c696e6720436f6e74726163742041646d696e000000000000602082015290517f08c379a000000000000000000000000000000000000000000000000000000000815261077891906004016140bd565b73ffffffffffffffffffffffffffffffffffffffff881661127c57604080518082018252601c81527f5a65726f20416464726573732043616e6e6f742042652041646d696e00000000602082015290517f08c379a000000000000000000000000000000000000000000000000000000000815261077891906004016140bd565b5f6112856124e1565b905061271088889050106040518060600160405280602a815260200161473e602a9139906112e0576040517f08c379a000000000000000000000000000000000000000000000000000000000815260040161077891906140bd565b505f5b87811015611453575f6112f46122f4565b6001015f8b8b8581811061130a5761130a614374565b9050602002013581526020019081526020015f209050805f015f9054906101000a900460ff166040518060400160405280601581526020017f506f6c69637920646f6573206e6f7420657869737400000000000000000000008152509061139e576040517f08c379a000000000000000000000000000000000000000000000000000000000815260040161077891906140bd565b506113c08a8a848181106113b4576113b4614374565b905060200201356123e8565b5f600382015460ff1660028111156113da576113da6143a1565b0361144a57335f90815260048201602090815260409182902054825160608101909352603980845260ff90911692916147b19083013990611448576040517f08c379a000000000000000000000000000000000000000000000000000000000815260040161077891906140bd565b505b506001016112e3565b508667ffffffffffffffff81111561146d5761146d614347565b604051908082528060200260200182016040528015611496578160200160208202803683370190505b5073ffffffffffffffffffffffffffffffffffffffff8a165f9081526020838152604090912082516114ce9391929190910190613c71565b505f5b878110156115d6578888828181106114eb576114eb614374565b90506020020135825f015f8c73ffffffffffffffffffffffffffffffffffffffff1673ffffffffffffffffffffffffffffffffffffffff1681526020019081526020015f20828154811061154157611541614374565b905f5260205f200181905550816001015f8a8a8481811061156457611564614374565b60209081029290920135835250818101929092526040015f9081208054600180820183559183529290912090910180547fffffffffffffffffffffffff00000000000000000000000000000000000000001673ffffffffffffffffffffffffffffffffffffffff8d16179055016114d1565b508873ffffffffffffffffffffffffffffffffffffffff167f12152a04e6faa55f635c036c0cb901dff565d19cd5703f5076adda8206cdb7c6898960405161161f9291906143ce565b60405180910390a2505050505050505050565b5f6003866002811115611647576116476143a1565b60ff16106040518060400160405280601581526020017f506f6c6963795479706520697320696e76616c69640000000000000000000000815250906116b9576040517f08c379a000000000000000000000000000000000000000000000000000000000815260040161077891906140bd565b505f6116c36122f4565b805460019081018083555f8181528284016020526040902080547fffffffffffffffffffffffffffffffffffffffffffffffffffffffffffffff00908116841782556003909101805494955091938b93911690836002811115611728576117286143a1565b02179055506040517f1929cb64000000000000000000000000000000000000000000000000000000008152600481018290523360248201523090631929cb64906044016020604051808303815f875af1158015611787573d5f5f3e3d5ffd5b505050506040513d601f19601f820116820180604052508101906117ab919061446f565b50336117b561253b565b5f8381526020919091526040902080547fffffffffffffffffffffffff00000000000000000000000000000000000000001673ffffffffffffffffffffffffffffffffffffffff929092169190911790556118138188888888612568565b60405181907fde5ef345cecbaaffdfbe2454b7947aa14037bac2f45e4fc98976f8bffea38623905f90a2979650505050505050565b5f6118538b336125b1565b61185c8b6123e8565b6118646122f4565b5f8c8152600191909101602052604090205460ff166118e257604080518082018252601581527f506f6c69637920646f6573206e6f742065786973740000000000000000000000602082015290517f08c379a000000000000000000000000000000000000000000000000000000000815261077891906004016140bd565b6118f48b8b8b8b8b8b8b8b8b8b612695565b9b9a5050505050505050505050565b60405160248101829052336044820181905282915f908190611949907f901cee110000000000000000000000000000000000000000000000000000000090606401610671565b915091505f82156119d55760048251106119685750602081015161196b565b505f5b806119d557604080518082018252601881527f4e6f7420417574686f72697a656420546f20506f6c6963790000000000000000602082015290517f08c379a000000000000000000000000000000000000000000000000000000000815261077891906004016140bd565b6119de866123e8565b60016119e86122f4565b5f88815260019190910160205260408082206003018054931515610100027fffffffffffffffffffffffffffffffffffffffffffffffffffffffffffff00ff90941693909317909255905187917fbaf00585ebbdf781652a166975bf4579319799593ec61cfadd690ea9833c3fc891a2505050505050565b6060611a6a6124e1565b73ffffffffffffffffffffffffffffffffffffffff83165f908152602091825260409081902080548251818502810185019093528083529192909190830182828015611ad357602002820191905f5260205f20905b815481526020019060010190808311611abf575b50505050509050919050565b5f611ae86122f4565b5f928352600101602052506040902060030154610100900460ff1690565b60405160248101829052336044820181905282915f908190611b4c907f901cee110000000000000000000000000000000000000000000000000000000090606401610671565b915091505f8215611bd8576004825110611b6b57506020810151611b6e565b505f5b80611bd857604080518082018252601881527f4e6f7420417574686f72697a656420546f20506f6c6963790000000000000000602082015290517f08c379a000000000000000000000000000000000000000000000000000000000815261077891906004016140bd565b611be1866123e8565b5f611bea6122f4565b5f8881526001919091016020526040812080547fffffffffffffffffffffffffffffffffffffffffffffffffffffffffffffff001681559150611c2b612a86565b5f898152602091909152604081205491505b818111611d5557611c4c612a86565b5f8a81526001919091016020908152604080832084845290915290205460ff1615611d4357611c79612a86565b5f8a8152600191820160209081526040808320858452909152812080547fffffffffffffffffffffffffffffffffffffffffffffffffffffffffffffff0016815591820181611cc88282613c56565b600182015f611cd78282613c56565b611ce4600183015f613cba565b611cf1600283015f613cdc565b50611d019050600483015f613cf7565b611d0e600583015f613cf7565b611d1b600683015f613cf7565b600782015f9055600882015f611d319190613d12565b611d3e600983015f613d12565b505050505b80611d4d816144b3565b915050611c3d565b505f611d5f612ab3565b5f8a8152602091909152604081205491505b818111611e8457611d80612ab3565b5f8b81526001919091016020908152604080832084845290915290205460ff1615611e7257611dad612ab3565b5f8b8152600191820160209081526040808320858452909152812080547fffffffffffff0000000000000000000000000000000000000000000000000000168155918201819055611e016002830182613cba565b611e0e600383015f613d30565b611e1b600483015f613d30565b5060050180547fffffffffffffffffffffffffffffffffffffffffffffffffffffffff0000000016905560405181908b907f19d0bd0cc4d63f9108c93b0abfd7408498ecbc73713f6bb3a2862d9b9d1983d8905f90a35b80611e7c816144b3565b915050611d71565b50505f611e8f612ae0565b5f8a81526020829052604090205490915060015b818111611f6c575f8b8152600184016020908152604080832084845290915290205460ff1615611f5a57611ed5612ae0565b5f8c8152600191820160209081526040808320858452909152812080547fffffffffffffffffffffffffffffffffffffffffffffffffffffffff0000000016815591611f2390830182613d4e565b600282015f90555050808b7ed9d817df2d853a886f2cbe7a671a676890264711abbb9d2c3ee79fb1bb653a60405160405180910390a35b80611f64816144b3565b915050611ea3565b5050505f8260010160010180548060200260200160405190810160405280929190818152602001828054801561200057602002820191905f5260205f20905f905b82829054906101000a900460e01b7bffffffffffffffffffffffffffffffffffffffffffffffffffffffff191681526020019060040190602082600301049283019260010382029150808411611fad5790505b509394505f93505050505b81518110156120f157836001015f015f83838151811061202d5761202d614374565b60200260200101517bffffffffffffffffffffffffffffffffffffffffffffffffffffffff19167bffffffffffffffffffffffffffffffffffffffffffffffffffffffff191681526020019081526020015f205f61208b9190613c56565b6002840180548061209e5761209e6144ea565b5f8281526020902060087fffffffffffffffffffffffffffffffffffffffffffffffffffffffffffffffff90920191820401805463ffffffff600460078516026101000a0219169055905560010161200b565b50505f6120fc6124e1565b90505f5b5f8a81526001830160205260409020548110156122a6575f8a8152600183016020526040812080548390811061213857612138614374565b5f91825260208083209091015473ffffffffffffffffffffffffffffffffffffffff16808352908590526040822054909250905b8181101561229b5773ffffffffffffffffffffffffffffffffffffffff83165f90815260208690526040902080548e9190839081106121ad576121ad614374565b905f5260205f200154036122935773ffffffffffffffffffffffffffffffffffffffff83165f9081526020869052604090206121ea600184614517565b815481106121fa576121fa614374565b5f91825260208083209091015473ffffffffffffffffffffffffffffffffffffffff8616835290879052604090912080548390811061223b5761223b614374565b5f91825260208083209091019290925573ffffffffffffffffffffffffffffffffffffffff85168152908690526040902080548061227b5761227b6144ea565b600190038181905f5260205f20015f9055905561229b565b60010161216c565b505050600101612100565b505f89815260018201602052604081206122bf91613c56565b5060405188907f433ab09ab993382af577c4a70f77dcc7cf149b5b52eb40d19b869664bfb5496d905f90a25050505050505050565b5f8061232160017ff9dbd639dd2ea165d77dd4c51dec420100d51ceacf023b1c40faa045ba8f9a65614517565b92915050565b5f60605f612333612b0d565b7fffffffff0000000000000000000000000000000000000000000000000000000086165f908152602082905260409081902054905191925073ffffffffffffffffffffffffffffffffffffffff1690819061238f90879061452a565b5f60405180830381855af49150503d805f81146123c7576040519150601f19603f3d011682016040523d82523d5f602084013e6123cc565b606091505b509094509250836123df57825160208401fd5b50509250929050565b6123f06122f4565b5f8281526001919091016020526040902060030154610100900460ff161561247757604080518082018252601f81527f4e6f7420616c6c6f77656420666f722063656d656e74656420706f6c69637900602082015290517f08c379a000000000000000000000000000000000000000000000000000000000815261077891906004016140bd565b50565b5f6124836122f4565b5f8481526001918201602052604090206003810180549183019350849290917fffffffffffffffffffffffffffffffffffffffffffffffffffffffffffffff0016908360028111156124d7576124d76143a1565b0217905550505050565b5f8061232160017f1544053a94493269e0aa160e5aa5b54d19ee6492c78b8bd3af283b912c78cdeb614517565b5f8061232160017f63f3d299b5e5eaa88e38f63d9fdd88083599db769ec9e20669cb4ec11339fadf614517565b5f8061232160017fcc82521cf89d97d40478640a045eb5c33e2eae5f4801e736d61315f69eb52d4e614517565b5f61257161250e565b5f87815260208290526040902090915061258c858783614584565b505f8681526020829052604090206001016125a8838583614584565b50505050505050565b6040516024810183905273ffffffffffffffffffffffffffffffffffffffff821660448201525f908190612609907f901cee110000000000000000000000000000000000000000000000000000000090606401610671565b915091505f821561268e576004825110612624575060208101515b8061268e57604080518082018252601881527f4e6f7420417574686f72697a656420546f20506f6c6963790000000000000000602082015290517f08c379a000000000000000000000000000000000000000000000000000000000815261077891906004016140bd565b5050505050565b5f60038660028111156126aa576126aa6143a1565b60ff16106040518060400160405280601581526020017f506f6c6963795479706520697320696e76616c696400000000000000000000008152509061271c576040517f08c379a000000000000000000000000000000000000000000000000000000000815260040161077891906140bd565b5060408051808201909152601381527f506f6c696379496420697320696e76616c69640000000000000000000000000060208201528b612789576040517f08c379a000000000000000000000000000000000000000000000000000000000815260040161077891906140bd565b506127948a8a612b3a565b5f61279d6122f4565b5f8d81526001918201602052604090200190506127ba8c8861247a565b6127c78c87878787612568565b5f8160010180548060200260200160405190810160405280929190818152602001828054801561285557602002820191905f5260205f20905f905b82829054906101000a900460e01b7bffffffffffffffffffffffffffffffffffffffffffffffffffffffff1916815260200190600401906020826003010492830192600103820291508084116128025790505b509394505f93505050505b815181101561294357825f015f83838151811061287f5761287f614374565b60200260200101517bffffffffffffffffffffffffffffffffffffffffffffffffffffffff19167bffffffffffffffffffffffffffffffffffffffffffffffffffffffff191681526020019081526020015f205f6128dd9190613c56565b826001018054806128f0576128f06144ea565b5f8281526020902060087fffffffffffffffffffffffffffffffffffffffffffffffffffffffffffffffff90920191820401805463ffffffff600460078516026101000a02191690559055600101612860565b5060408051808201909152601881527f4d61782072756c657320636f756e7420726561636865642e000000000000000060208201526127108a106129b4576040517f08c379a000000000000000000000000000000000000000000000000000000000815260040161077891906140bd565b5060408051808201909152601e81527f4d61782063616c6c696e672066756e6374696f6e7320726561636865642e000060208201526127108c10612a25576040517f08c379a000000000000000000000000000000000000000000000000000000000815260040161077891906140bd565b508815612a3f57612a3a8d8d8d8d8d87612bb4565b612a4b565b612a4b8d8d8d85612d86565b6040518d907f912ce63c438aca9d2f50d1d12de5b42efbcc84ce223b08122e8c2e3c000ca1f8905f90a2509a9b9a5050505050505050505050565b5f8061232160017f5c91f63a4ffcbd372b8ec622fd1fcaaa601b66330afdb30e5c292dd9123f20b0614517565b5f8061232160017f1f3305601ed940efccf797d76856e5fe70659a8a6905d64c9f236321df91e718614517565b5f8061232160017f438102ff677bc3f21830c58117a05d6b953b31e3ea339da3f17957cd3941a690614517565b5f8061232160017fbe498a3b14fd79a48c3c9af86ff14271ed497d09071013334028d28e7791db20614517565b81612b458282612e7f565b15612baf57604080518082018252601681527f4475706c696361746573206e6f7420616c6c6f77656400000000000000000000602082015290517f08c379a000000000000000000000000000000000000000000000000000000000815261077891906004016140bd565b505050565b818414612c2057604080518082018252601981527f496e76616c69642072756c65206172726179206c656e67746800000000000000602082015290517f08c379a000000000000000000000000000000000000000000000000000000000815261077891906004016140bd565b5f5b848110156125a857612c5a87878784818110612c4057612c40614374565b9050602002016020810190612c55919061469a565b612eea565b612cc357604080518082018252601181527f496e76616c6964205369676e6174757265000000000000000000000000000000602082015290517f08c379a000000000000000000000000000000000000000000000000000000000815261077891906004016140bd565b81600101868683818110612cd957612cd9614374565b9050602002016020810190612cee919061469a565b81546001810183555f92835260209092206008830401805463ffffffff60079094166004026101000a938402191660e09290921c92909202179055612d7e87878784818110612d3f57612d3f614374565b9050602002016020810190612d54919061469a565b868685818110612d6657612d66614374565b9050602002810190612d7891906146d9565b86612f35565b600101612c22565b5f5b8281101561268e57612da685858584818110612c4057612c40614374565b612e0f57604080518082018252601181527f496e76616c6964205369676e6174757265000000000000000000000000000000602082015290517f08c379a000000000000000000000000000000000000000000000000000000000815261077891906004016140bd565b81600101848483818110612e2557612e25614374565b9050602002016020810190612e3a919061469a565b8154600180820184555f93845260209093206008820401805463ffffffff60079093166004026101000a928302191660e09390931c9190910291909117905501612d88565b5f6002831015612e9057505f612321565b5f5b60018403811015612ee35760208102830135600182015b85811015612ed25760208102850135808303612ec9576001945050612ed2565b50600101612ea9565b50505f8211612ee357600101612e92565b5092915050565b5f612ef36139fa565b5f938452602090815260408085207fffffffff000000000000000000000000000000000000000000000000000000009490941685529290525090205460ff1690565b5f5b828110156139f2575f612f48612a86565b5f8881526001919091016020526040812090868685818110612f6c57612f6c614374565b602090810292909201358352508181019290925260409081015f2081518083018352815460ff161515815282516001830180546101208188028401810190965261010083018181529396949594870194929391928492918491840182828015612ff257602002820191905f5260205f20905b815481526020019060010190808311612fde575b50505050508152602001600182016040518060600160405290815f820180548060200260200160405190810160405280929190818152602001828054801561305757602002820191905f5260205f20905b815481526020019060010190808311613043575b50505050508152602001600182018054806020026020016040519081016040528092919081815260200182805480156130dc57602002820191905f5260205f20905f905b82829054906101000a900460ff1660078111156130ba576130ba6143a1565b81526020600192830181810494850194909303909202910180841161309b5790505b5050505050815260200160028201805480602002602001604051908101604052809291908181526020015f905b828210156131b1578382905f5260205f200180546131269061441e565b80601f01602080910402602001604051908101604052809291908181526020018280546131529061441e565b801561319d5780601f106131745761010080835404028352916020019161319d565b820191905f5260205f20905b81548152906001019060200180831161318057829003601f168201915b505050505081526020019060010190613109565b5050505081525050815260200160048201805480602002602001604051908101604052809291908181526020015f905b8282101561327e575f8481526020902060408051606081019091529083018054829060ff166007811115613217576132176143a1565b6007811115613228576132286143a1565b8152905461010081046fffffffffffffffffffffffffffffffff166020808401919091527101000000000000000000000000000000000090910460ff1660409092019190915290825260019290920191016131e1565b50505050815260200160058201805480602002602001604051908101604052809291908181526020015f905b82821015613347575f8481526020902060408051606081019091529083018054829060ff1660078111156132e0576132e06143a1565b60078111156132f1576132f16143a1565b8152905461010081046fffffffffffffffffffffffffffffffff166020808401919091527101000000000000000000000000000000000090910460ff1660409092019190915290825260019290920191016132aa565b50505050815260200160068201805480602002602001604051908101604052809291908181526020015f905b82821015613410575f8481526020902060408051606081019091529083018054829060ff1660078111156133a9576133a96143a1565b60078111156133ba576133ba6143a1565b8152905461010081046fffffffffffffffffffffffffffffffff166020808401919091527101000000000000000000000000000000000090910460ff166040909201919091529082526001929092019101613373565b5050505081526020016007820154815260200160088201805480602002602001604051908101604052809291908181526020015f905b82821015613689575f848152602090819020604080516101208101825260068602909201805460ff808216151585526101008204811615159585019590955292939092918401916201000090041660028111156134a5576134a56143a1565b60028111156134b6576134b66143a1565b815281546020909101906301000000900460ff1660078111156134db576134db6143a1565b60078111156134ec576134ec6143a1565b81526020016001820180546135009061441e565b80601f016020809104026020016040519081016040528092919081815260200182805461352c9061441e565b80156135775780601f1061354e57610100808354040283529160200191613577565b820191905f5260205f20905b81548152906001019060200180831161355a57829003601f168201915b505050505081526020016002820154815260200160038201805461359a9061441e565b80601f01602080910402602001604051908101604052809291908181526020018280546135c69061441e565b80156136115780601f106135e857610100808354040283529160200191613611565b820191905f5260205f20905b8154815290600101906020018083116135f457829003601f168201915b505050505081526020016004820180548060200260200160405190810160405280929190818152602001828054801561366757602002820191905f5260205f20905b815481526020019060010190808311613653575b5050505050815260200160058201548152505081526020019060010190613446565b50505050815260200160098201805480602002602001604051908101604052809291908181526020015f905b828210156138f8575f848152602090819020604080516101208101825260068602909201805460ff80821615158552610100820481161515958501959095529293909291840191620100009004166002811115613714576137146143a1565b6002811115613725576137256143a1565b815281546020909101906301000000900460ff16600781111561374a5761374a6143a1565b600781111561375b5761375b6143a1565b815260200160018201805461376f9061441e565b80601f016020809104026020016040519081016040528092919081815260200182805461379b9061441e565b80156137e65780601f106137bd576101008083540402835291602001916137e6565b820191905f5260205f20905b8154815290600101906020018083116137c957829003601f168201915b50505050508152602001600282015481526020016003820180546138099061441e565b80601f01602080910402602001604051908101604052809291908181526020018280546138359061441e565b80156138805780601f1061385757610100808354040283529160200191613880565b820191905f5260205f20905b81548152906001019060200180831161386357829003601f168201915b50505050508152602001600482018054806020026020016040519081016040528092919081815260200182805480156138d657602002820191905f5260205f20905b8154815260200190600101908083116138c2575b50505050508152602001600582015481525050815260200190600101906136b5565b50505091525050905250805190915061397057604080518082018252600c81527f496e76616c69642052756c650000000000000000000000000000000000000000602082015290517f08c379a000000000000000000000000000000000000000000000000000000000815261077891906004016140bd565b61398287826020015160400151613a27565b7fffffffff0000000000000000000000000000000000000000000000000000000086165f9081526020849052604090208585848181106139c4576139c4614374565b8354600180820186555f95865260209586902092909502939093013592019190915550919091019050612f37565b505050505050565b5f8061232160017fdc82e9666de28bef254c770aa394fdb200d98373b70390c27adec32819f8f266614517565b6127108151106040518060400160405280601a81526020017f4d617820706c61636520686f6c6465727320726561636865642e00000000000081525090613a9b576040517f08c379a000000000000000000000000000000000000000000000000000000000815260040161077891906140bd565b505f5b8151811015612baf57613ace828281518110613abc57613abc614374565b60200260200101516040015160011690565b15613b6357613b0c83838381518110613ae957613ae9614374565b6020026020010151602001516fffffffffffffffffffffffffffffffff16613c23565b60405180606001604052806027815260200161478a6027913990613b5d576040517f08c379a000000000000000000000000000000000000000000000000000000000815260040161077891906140bd565b50613c1b565b613b8a828281518110613b7857613b78614374565b60200260200101516040015160021690565b15613c1b57613bc883838381518110613ba557613ba5614374565b6020026020010151602001516fffffffffffffffffffffffffffffffff16613c4d565b6040518060600160405280602281526020016147686022913990613c19576040517f08c379a000000000000000000000000000000000000000000000000000000000815260040161077891906140bd565b505b600101613a9e565b5f613c2c612ab3565b5f938452600101602090815260408085209385529290525090205460ff1690565b5f613c2c612ae0565b5080545f8255905f5260205f20908101906124779190613d81565b828054828255905f5260205f20908101928215613caa579160200282015b82811115613caa578251825591602001919060010190613c8f565b50613cb6929150613d81565b5090565b5080545f8255601f0160209004905f5260205f20908101906124779190613d81565b5080545f8255905f5260205f20908101906124779190613d95565b5080545f8255905f5260205f20908101906124779190613db1565b5080545f8255600602905f5260205f20908101906124779190613de8565b5080545f8255600202905f5260205f20908101906124779190613e56565b508054613d5a9061441e565b5f825580601f10613d69575050565b601f0160209004905f5260205f209081019061247791905b5b80821115613cb6575f8155600101613d82565b80821115613cb6575f613da88282613d4e565b50600101613d95565b5b80821115613cb65780547fffffffffffffffffffffffffffff000000000000000000000000000000000000168155600101613db2565b80821115613cb65780547fffffffffffffffffffffffffffffffffffffffffffffffffffffffff000000001681555f613e246001830182613d4e565b600282015f9055600382015f613e3a9190613d4e565b613e47600483015f613c56565b505f6005820155600601613de8565b5b80821115613cb65780547fffffffffffffffffffffffffffffffffffffffffffffffffffffffffffffff001681555f6001820155600201613e57565b5f60208284031215613ea3575f5ffd5b5035919050565b604080825283519082018190525f9060208501906060840190835b81811015613f055783517fffffffff0000000000000000000000000000000000000000000000000000000016835260209384019390920191600101613ec5565b50508381036020850152809150845180825260208201925060208160051b830101602087015f5b83811015613fa4578483037fffffffffffffffffffffffffffffffffffffffffffffffffffffffffffffffe0018652815180518085526020918201918501905f5b81811015613f8b578351835260209384019390920191600101613f6d565b5050602097880197909450929092019150600101613f2c565b509098975050505050505050565b803573ffffffffffffffffffffffffffffffffffffffff81168114613fd5575f5ffd5b919050565b5f5f83601f840112613fea575f5ffd5b50813567ffffffffffffffff811115614001575f5ffd5b6020830191508360208260051b850101111561401b575f5ffd5b9250929050565b5f5f5f60408486031215614034575f5ffd5b61403d84613fb2565b9250602084013567ffffffffffffffff811115614058575f5ffd5b61406486828701613fda565b9497909650939450505050565b5f81518084528060208401602086015e5f6020828601015260207fffffffffffffffffffffffffffffffffffffffffffffffffffffffffffffffe0601f83011685010191505092915050565b602081525f6140cf6020830184614071565b9392505050565b602081525f8251604060208401526140f16060840182614071565b905060208401517fffffffffffffffffffffffffffffffffffffffffffffffffffffffffffffffe084830301604085015261412c8282614071565b95945050505050565b803560038110613fd5575f5ffd5b5f5f83601f840112614153575f5ffd5b50813567ffffffffffffffff81111561416a575f5ffd5b60208301915083602082850101111561401b575f5ffd5b5f5f5f5f5f60608688031215614195575f5ffd5b61419e86614135565b9450602086013567ffffffffffffffff8111156141b9575f5ffd5b6141c588828901614143565b909550935050604086013567ffffffffffffffff8111156141e4575f5ffd5b6141f088828901614143565b969995985093965092949392505050565b5f5f5f5f5f5f5f5f5f5f60c08b8d03121561421a575f5ffd5b8a35995060208b013567ffffffffffffffff811115614237575f5ffd5b6142438d828e01613fda565b909a5098505060408b013567ffffffffffffffff811115614262575f5ffd5b61426e8d828e01613fda565b9098509650614281905060608c01614135565b945060808b013567ffffffffffffffff81111561429c575f5ffd5b6142a88d828e01614143565b90955093505060a08b013567ffffffffffffffff8111156142c7575f5ffd5b6142d38d828e01614143565b915080935050809150509295989b9194979a5092959850565b5f602082840312156142fc575f5ffd5b6140cf82613fb2565b602080825282518282018190525f918401906040840190835b8181101561433c57835183526020938401939092019160010161431e565b509095945050505050565b7f4e487b71000000000000000000000000000000000000000000000000000000005f52604160045260245ffd5b7f4e487b71000000000000000000000000000000000000000000000000000000005f52603260045260245ffd5b7f4e487b71000000000000000000000000000000000000000000000000000000005f52602160045260245ffd5b602081528160208201525f7f07ffffffffffffffffffffffffffffffffffffffffffffffffffffffffffffff831115614405575f5ffd5b8260051b80856040850137919091016040019392505050565b600181811c9082168061443257607f821691505b602082108103614469577f4e487b71000000000000000000000000000000000000000000000000000000005f52602260045260245ffd5b50919050565b5f6020828403121561447f575f5ffd5b5051919050565b7f4e487b71000000000000000000000000000000000000000000000000000000005f52601160045260245ffd5b5f7fffffffffffffffffffffffffffffffffffffffffffffffffffffffffffffffff82036144e3576144e3614486565b5060010190565b7f4e487b71000000000000000000000000000000000000000000000000000000005f52603160045260245ffd5b8181038181111561232157612321614486565b5f82518060208501845e5f920191825250919050565b601f821115612baf57805f5260205f20601f840160051c810160208510156145655750805b601f840160051c820191505b8181101561268e575f8155600101614571565b67ffffffffffffffff83111561459c5761459c614347565b6145b0836145aa835461441e565b83614540565b5f601f841160018114614600575f85156145ca5750838201355b7fffffffffffffffffffffffffffffffffffffffffffffffffffffffffffffffff600387901b1c1916600186901b17835561268e565b5f838152602081207fffffffffffffffffffffffffffffffffffffffffffffffffffffffffffffffe08716915b8281101561464d578685013582556020948501946001909201910161462d565b5086821015614688577fffffffffffffffffffffffffffffffffffffffffffffffffffffffffffffffff60f88860031b161c19848701351681555b505060018560011b0183555050505050565b5f602082840312156146aa575f5ffd5b81357fffffffff00000000000000000000000000000000000000000000000000000000811681146140cf575f5ffd5b5f5f83357fffffffffffffffffffffffffffffffffffffffffffffffffffffffffffffffe184360301811261470c575f5ffd5b83018035915067ffffffffffffffff821115614726575f5ffd5b6020019150600581901b360382131561401b575f5ffdfe4d617820706f6c69636965732070657220636f6e7472616374206164647265737320726561636865642e547261636b6572207265666572656e63656420696e2072756c65206e6f7420736574466f726569676e2043616c6c207265666572656e63656420696e2072756c65206e6f74207365744f6e6c7920766572696669656420706f6c69637920737562736372696265722063616e206170706c7920636c6f73656420706f6c6963696573a26469706673582212206661a94d66cd3cd79354ed83b3b2c756eb91aaae52423dce6eafb4d59fb4004264736f6c634300081c0033","linkReferences":{}},"methodIdentifiers":{"applyPolicy(address,uint256[])":"9228303f","cementPolicy(uint256)":"d46a37c4","closePolicy(uint256)":"2b0e4440","createPolicy(uint8,string,string)":"95953fba","deletePolicy(uint256)":"fed27c8f","disablePolicy(uint256)":"30ab6a0a","getAppliedPolicyIds(address)":"e3749023","getPolicy(uint256)":"2b07fce3","getPolicyMetadata(uint256)":"8cf7a293","isCementedPolicy(uint256)":"f7b570f6","isClosedPolicy(uint256)":"4f10689b","isDisabledPolicy(uint256)":"696ef703","openPolicy(uint256)":"798d6c7b","unapplyPolicy(address,uint256[])":"5239f98c","updatePolicy(uint256,bytes4[],uint256[][],uint8,string,string)":"cc486bc5","version()":"54fd4d50"},"id":93}