{"abi":[{"type":"function","name":"addClosedPolicySubscriber","inputs":[{"name":"policyId","type":"uint256","internalType":"uint256"},{"name":"subscriber","type":"address","internalType":"address"}],"outputs":[],"stateMutability":"nonpayable"},{"type":"function","name":"createCallingFunction","inputs":[{"name":"policyId","type":"uint256","internalType":"uint256"},{"name":"functionSignature","type":"bytes4","internalType":"bytes4"},{"name":"pTypes","type":"uint8[]","internalType":"enum ParamTypes[]"},{"name":"callingFunctionName","type":"string","internalType":"string"},{"name":"encodedValues","type":"string","internalType":"string"}],"outputs":[{"name":"","type":"bytes4","internalType":"bytes4"}],"stateMutability":"nonpayable"},{"type":"function","name":"createMappedTracker","inputs":[{"name":"policyId","type":"uint256","internalType":"uint256"},{"name":"tracker","type":"tuple","internalType":"struct Trackers","components":[{"name":"set","type":"bool","internalType":"bool"},{"name":"pType","type":"uint8","internalType":"enum ParamTypes"},{"name":"mapped","type":"bool","internalType":"bool"},{"name":"trackerKeyType","type":"uint8","internalType":"enum ParamTypes"},{"name":"trackerValue","type":"bytes","internalType":"bytes"},{"name":"trackerIndex","type":"uint256","internalType":"uint256"}]},{"name":"trackerName","type":"string","internalType":"string"},{"name":"trackerKeys","type":"bytes[]","internalType":"bytes[]"},{"name":"trackerValues","type":"bytes[]","internalType":"bytes[]"},{"name":"arrayType","type":"uint8","internalType":"enum TrackerArrayTypes"}],"outputs":[{"name":"","type":"uint256","internalType":"uint256"}],"stateMutability":"nonpayable"},{"type":"function","name":"createTracker","inputs":[{"name":"policyId","type":"uint256","internalType":"uint256"},{"name":"tracker","type":"tuple","internalType":"struct Trackers","components":[{"name":"set","type":"bool","internalType":"bool"},{"name":"pType","type":"uint8","internalType":"enum ParamTypes"},{"name":"mapped","type":"bool","internalType":"bool"},{"name":"trackerKeyType","type":"uint8","internalType":"enum ParamTypes"},{"name":"trackerValue","type":"bytes","internalType":"bytes"},{"name":"trackerIndex","type":"uint256","internalType":"uint256"}]},{"name":"trackerName","type":"string","internalType":"string"},{"name":"arrayType","type":"uint8","internalType":"enum TrackerArrayTypes"}],"outputs":[{"name":"","type":"uint256","internalType":"uint256"}],"stateMutability":"nonpayable"},{"type":"function","name":"deleteCallingFunction","inputs":[{"name":"policyId","type":"uint256","internalType":"uint256"},{"name":"sig","type":"bytes4","internalType":"bytes4"}],"outputs":[],"stateMutability":"nonpayable"},{"type":"function","name":"deleteTracker","inputs":[{"name":"policyId","type":"uint256","internalType":"uint256"},{"name":"trackerIndex","type":"uint256","internalType":"uint256"}],"outputs":[],"stateMutability":"nonpayable"},{"type":"function","name":"getAllCallingFunctions","inputs":[{"name":"policyId","type":"uint256","internalType":"uint256"}],"outputs":[{"name":"","type":"tuple[]","internalType":"struct CallingFunctionStorageSet[]","components":[{"name":"set","type":"bool","internalType":"bool"},{"name":"signature","type":"bytes4","internalType":"bytes4"},{"name":"parameterTypes","type":"uint8[]","internalType":"enum ParamTypes[]"}]}],"stateMutability":"view"},{"type":"function","name":"getAllTrackers","inputs":[{"name":"policyId","type":"uint256","internalType":"uint256"}],"outputs":[{"name":"","type":"tuple[]","internalType":"struct Trackers[]","components":[{"name":"set","type":"bool","internalType":"bool"},{"name":"pType","type":"uint8","internalType":"enum ParamTypes"},{"name":"mapped","type":"bool","internalType":"bool"},{"name":"trackerKeyType","type":"uint8","internalType":"enum ParamTypes"},{"name":"trackerValue","type":"bytes","internalType":"bytes"},{"name":"trackerIndex","type":"uint256","internalType":"uint256"}]}],"stateMutability":"view"},{"type":"function","name":"getCallingFunction","inputs":[{"name":"policyId","type":"uint256","internalType":"uint256"},{"name":"sig","type":"bytes4","internalType":"bytes4"}],"outputs":[{"name":"","type":"tuple","internalType":"struct CallingFunctionStorageSet","components":[{"name":"set","type":"bool","internalType":"bool"},{"name":"signature","type":"bytes4","internalType":"bytes4"},{"name":"parameterTypes","type":"uint8[]","internalType":"enum ParamTypes[]"}]}],"stateMutability":"view"},{"type":"function","name":"getCallingFunctionMetadata","inputs":[{"name":"policyId","type":"uint256","internalType":"uint256"},{"name":"sig","type":"bytes4","internalType":"bytes4"}],"outputs":[{"name":"","type":"tuple","internalType":"struct CallingFunctionHashMapping","components":[{"name":"callingFunction","type":"string","internalType":"string"},{"name":"signature","type":"bytes4","internalType":"bytes4"},{"name":"encodedValues","type":"string","internalType":"string"}]}],"stateMutability":"view"},{"type":"function","name":"getMappedTrackerValue","inputs":[{"name":"policyId","type":"uint256","internalType":"uint256"},{"name":"index","type":"uint256","internalType":"uint256"},{"name":"trackerKey","type":"bytes","internalType":"bytes"}],"outputs":[{"name":"","type":"bytes","internalType":"bytes"}],"stateMutability":"view"},{"type":"function","name":"getTracker","inputs":[{"name":"policyId","type":"uint256","internalType":"uint256"},{"name":"index","type":"uint256","internalType":"uint256"}],"outputs":[{"name":"","type":"tuple","internalType":"struct Trackers","components":[{"name":"set","type":"bool","internalType":"bool"},{"name":"pType","type":"uint8","internalType":"enum ParamTypes"},{"name":"mapped","type":"bool","internalType":"bool"},{"name":"trackerKeyType","type":"uint8","internalType":"enum ParamTypes"},{"name":"trackerValue","type":"bytes","internalType":"bytes"},{"name":"trackerIndex","type":"uint256","internalType":"uint256"}]}],"stateMutability":"view"},{"type":"function","name":"getTrackerMetadata","inputs":[{"name":"policyId","type":"uint256","internalType":"uint256"},{"name":"trackerId","type":"uint256","internalType":"uint256"}],"outputs":[{"name":"","type":"tuple","internalType":"struct TrackerMetadataStruct","components":[{"name":"trackerName","type":"string","internalType":"string"},{"name":"initialValue","type":"bytes","internalType":"bytes"},{"name":"initialKeys","type":"bytes[]","internalType":"bytes[]"},{"name":"initialValues","type":"bytes[]","internalType":"bytes[]"},{"name":"arrayType","type":"uint8","internalType":"enum TrackerArrayTypes"}]}],"stateMutability":"view"},{"type":"function","name":"getTrackerToRuleIds","inputs":[{"name":"policyId","type":"uint256","internalType":"uint256"},{"name":"trackerIndex","type":"uint256","internalType":"uint256"}],"outputs":[{"name":"","type":"uint256[]","internalType":"uint256[]"}],"stateMutability":"view"},{"type":"function","name":"isClosedPolicySubscriber","inputs":[{"name":"policyId","type":"uint256","internalType":"uint256"},{"name":"subscriber","type":"address","internalType":"address"}],"outputs":[{"name":"","type":"bool","internalType":"bool"}],"stateMutability":"view"},{"type":"function","name":"removeClosedPolicySubscriber","inputs":[{"name":"policyId","type":"uint256","internalType":"uint256"},{"name":"subscriber","type":"address","internalType":"address"}],"outputs":[],"stateMutability":"nonpayable"},{"type":"function","name":"updateCallingFunction","inputs":[{"name":"policyId","type":"uint256","internalType":"uint256"},{"name":"functionSignature","type":"bytes4","internalType":"bytes4"},{"name":"pTypes","type":"uint8[]","internalType":"enum ParamTypes[]"}],"outputs":[{"name":"","type":"bytes4","internalType":"bytes4"}],"stateMutability":"nonpayable"},{"type":"function","name":"updateTracker","inputs":[{"name":"_policyId","type":"uint256","internalType":"uint256"},{"name":"_trackerIndex","type":"uint256","internalType":"uint256"},{"name":"_tracker","type":"tuple","internalType":"struct Trackers","components":[{"name":"set","type":"bool","internalType":"bool"},{"name":"pType","type":"uint8","internalType":"enum ParamTypes"},{"name":"mapped","type":"bool","internalType":"bool"},{"name":"trackerKeyType","type":"uint8","internalType":"enum ParamTypes"},{"name":"trackerValue","type":"bytes","internalType":"bytes"},{"name":"trackerIndex","type":"uint256","internalType":"uint256"}]},{"name":"_trackerKey","type":"bytes","internalType":"bytes"},{"name":"_trackerValue","type":"bytes","internalType":"bytes"}],"outputs":[],"stateMutability":"nonpayable"},{"type":"function","name":"updateTracker","inputs":[{"name":"policyId","type":"uint256","internalType":"uint256"},{"name":"trackerIndex","type":"uint256","internalType":"uint256"},{"name":"tracker","type":"tuple","internalType":"struct Trackers","components":[{"name":"set","type":"bool","internalType":"bool"},{"name":"pType","type":"uint8","internalType":"enum ParamTypes"},{"name":"mapped","type":"bool","internalType":"bool"},{"name":"trackerKeyType","type":"uint8","internalType":"enum ParamTypes"},{"name":"trackerValue","type":"bytes","internalType":"bytes"},{"name":"trackerIndex","type":"uint256","internalType":"uint256"}]}],"outputs":[],"stateMutability":"nonpayable"},{"type":"event","name":"AssociatedRuleDeleted","inputs":[{"name":"policyId","type":"uint256","indexed":true,"internalType":"uint256"},{"name":"callingFunctionSelector","type":"bytes4","indexed":true,"internalType":"bytes4"}],"anonymous":false},{"type":"event","name":"CallingFunctionCreated","inputs":[{"name":"policyId","type":"uint256","indexed":true,"internalType":"uint256"},{"name":"callingFunctionSelector","type":"bytes4","indexed":true,"internalType":"bytes4"}],"anonymous":false},{"type":"event","name":"CallingFunctionDeleted","inputs":[{"name":"policyId","type":"uint256","indexed":true,"internalType":"uint256"},{"name":"callingFunctionSelector","type":"bytes4","indexed":true,"internalType":"bytes4"}],"anonymous":false},{"type":"event","name":"CallingFunctionUpdated","inputs":[{"name":"policyId","type":"uint256","indexed":true,"internalType":"uint256"},{"name":"callingFunctionSelector","type":"bytes4","indexed":true,"internalType":"bytes4"}],"anonymous":false},{"type":"event","name":"PolicySubsciberAdded","inputs":[{"name":"policyId","type":"uint256","indexed":true,"internalType":"uint256"},{"name":"subscriber","type":"address","indexed":true,"internalType":"address"}],"anonymous":false},{"type":"event","name":"PolicySubsciberRemoved","inputs":[{"name":"policyId","type":"uint256","indexed":true,"internalType":"uint256"},{"name":"subscriber","type":"address","indexed":true,"internalType":"address"}],"anonymous":false},{"type":"event","name":"TrackerCreated","inputs":[{"name":"policyId","type":"uint256","indexed":true,"internalType":"uint256"},{"name":"trackerId","type":"uint256","indexed":true,"internalType":"uint256"}],"anonymous":false},{"type":"event","name":"TrackerDeleted","inputs":[{"name":"policyId","type":"uint256","indexed":true,"internalType":"uint256"},{"name":"trackerId","type":"uint256","indexed":true,"internalType":"uint256"}],"anonymous":false},{"type":"event","name":"TrackerUpdated","inputs":[{"name":"policyId","type":"uint256","indexed":true,"internalType":"uint256"},{"name":"trackerId","type":"uint256","indexed":true,"internalType":"uint256"}],"anonymous":false}],"bytecode":{"object":"0x6080604052348015600e575f5ffd5b50614ece8061001c5f395ff3fe608060405234801561000f575f5ffd5b5060043610610149575f3560e01c80637b7fe810116100c7578063d28b84c51161007d578063f3e7dfc311610063578063f3e7dfc314610332578063f479c99414610352578063febf8f9214610365575f5ffd5b8063d28b84c5146102ff578063f1073d991461031f575f5ffd5b80639f9fa719116100ad5780639f9fa719146102b9578063a82c9e07146102d9578063b0955878146102ec575f5ffd5b80637b7fe81014610278578063965d884c14610298575f5ffd5b806356f3b05f1161011c57806372a340d71161010257806372a340d7146102015780637374c99414610221578063784dfa4614610234575f5ffd5b806356f3b05f146101c15780636355ed0b146101e1575f5ffd5b806305be27871461014d5780632711fe6b146101625780633bf07314146101755780634c957ad91461019e575b5f5ffd5b61016061015b366004613e0b565b610378565b005b610160610170366004613e35565b610995565b610188610183366004613e7b565b610acd565b6040516101959190613f80565b60405180910390f35b6101b16101ac366004613e35565b610dff565b6040519015158152602001610195565b6101d46101cf366004614076565b610e45565b6040516101959190614107565b6101f46101ef366004613e7b565b6110b1565b6040516101959190614188565b61021461020f366004613e7b565b611129565b60405161019591906141bf565b61016061022f366004613e35565b6112b0565b61024761024236600461431f565b6113d7565b6040517fffffffff000000000000000000000000000000000000000000000000000000009091168152602001610195565b61028b610286366004613e0b565b6116bc565b6040516101959190614372565b6102ab6102a6366004614466565b61187b565b604051908152602001610195565b6102cc6102c736600461457a565b611a4e565b60405161019591906145bc565b6101606102e7366004613e7b565b611bac565b6102476102fa3660046145ce565b611c4f565b61031261030d366004613e0b565b611dcc565b60405161019591906146f4565b6102ab61032d366004614747565b611ed4565b610345610340366004614076565b61213c565b6040516101959190614828565b61016061036036600461489d565b612416565b610160610373366004614949565b612541565b61038282336125ff565b61038b8261275d565b5f6103946127ec565b5f8481526001919091016020526040902090506103af612819565b5f848152602091825260408082207fffffffff000000000000000000000000000000000000000000000000000000008616835290925290812080547fffffffffffffffffffffffffffffffffffffffffffffffffffffff00000000001681559061041c6001830182613b07565b50507fffffffff0000000000000000000000000000000000000000000000000000000082165f90815260018201602090815260408083208054825181850281018501909352808352919290919083018282801561049657602002820191905f5260205f20905b815481526020019060010190808311610482575b509394505f93505050505b8151811015610782575f8282815181106104bd576104bd61498b565b602002602001015190505f5f90505f8560010160010180548060200260200160405190810160405280929190818152602001828054801561055c57602002820191905f5260205f20905f905b82829054906101000a900460e01b7bffffffffffffffffffffffffffffffffffffffffffffffffffffffff1916815260200190600401906020826003010492830192600103820291508084116105095790505b509394505f93505050505b815181108015610575575082155b15610667575f82828151811061058d5761058d61498b565b60200260200101519050887bffffffffffffffffffffffffffffffffffffffffffffffffffffffff1916817bffffffffffffffffffffffffffffffffffffffffffffffffffffffff1916036105e25750610655565b7fffffffff0000000000000000000000000000000000000000000000000000000081165f9081526001890160205260408120905b815481101561065157868282815481106106325761063261498b565b905f5260205f200154036106495760019550610651565b600101610616565b5050505b8061065f816149e5565b915050610567565b508161077757610675612846565b5f898152600191820160209081526040808320878452909152812080547fffffffffffffffffffffffffffffffffffffffffffffffffffffffffffffff00168155918201816106c48282613b29565b600182015f6106d38282613b29565b6106e0600183015f613b07565b6106ed600283015f613b44565b506106fd9050600483015f613b5f565b61070a600583015f613b5f565b610717600683015f613b7a565b610724600783015f613b7a565b50506040517fffffffff000000000000000000000000000000000000000000000000000000008a1692508a91507f871ab12e2607c810d166f513320768d10b6754400a5ec777b382a4d2faf0058f905f90a35b5050506001016104a1565b507fffffffff0000000000000000000000000000000000000000000000000000000083165f90815260018301602052604081206107be91613b29565b5f5b600283015481101561094057837bffffffffffffffffffffffffffffffffffffffffffffffffffffffff19168360010160010182815481106108045761080461498b565b905f5260205f2090600891828204019190066004029054906101000a900460e01b7bffffffffffffffffffffffffffffffffffffffffffffffffffffffff1916036109385760028301805461085b90600190614a1c565b8154811061086b5761086b61498b565b905f5260205f2090600891828204019190066004029054906101000a900460e01b8360010160010182815481106108a4576108a461498b565b905f5260205f2090600891828204019190066004026101000a81548163ffffffff021916908360e01c0217905550826001016001018054806108e8576108e8614a2f565b5f8281526020902060087fffffffffffffffffffffffffffffffffffffffffffffffffffffffffffffffff90920191820401805463ffffffff600460078516026101000a02191690559055610940565b6001016107c0565b506040517fffffffff0000000000000000000000000000000000000000000000000000000084169085907f5a2f4ffcbb6125bac40b498c2d16b904bba6ea8752f82b39f00be8243b96ff58905f90a350505050565b61099f82336125ff565b6109a88261275d565b73ffffffffffffffffffffffffffffffffffffffff8116610a3157604080518082018252601c81527f5a65726f20416464726573732043616e6e6f742042652041646d696e00000000602082015290517f08c379a0000000000000000000000000000000000000000000000000000000008152610a2891906004016145bc565b60405180910390fd5b6001610a3b6127ec565b5f8481526001919091016020908152604080832073ffffffffffffffffffffffffffffffffffffffff8616808552600490910190925280832080547fffffffffffffffffffffffffffffffffffffffffffffffffffffffffffffff001694151594909417909355915184917f790a3138425334d31f4463869c596f58d51e891ecb665b5090fa0ae9ed8b6fd291a35050565b610ad5613b98565b610add612873565b5f84815260209182526040808220858352909252819020815160a08101909252805482908290610b0c90614a5c565b80601f0160208091040260200160405190810160405280929190818152602001828054610b3890614a5c565b8015610b835780601f10610b5a57610100808354040283529160200191610b83565b820191905f5260205f20905b815481529060010190602001808311610b6657829003601f168201915b50505050508152602001600182018054610b9c90614a5c565b80601f0160208091040260200160405190810160405280929190818152602001828054610bc890614a5c565b8015610c135780601f10610bea57610100808354040283529160200191610c13565b820191905f5260205f20905b815481529060010190602001808311610bf657829003601f168201915b5050505050815260200160028201805480602002602001604051908101604052809291908181526020015f905b82821015610ce8578382905f5260205f20018054610c5d90614a5c565b80601f0160208091040260200160405190810160405280929190818152602001828054610c8990614a5c565b8015610cd45780601f10610cab57610100808354040283529160200191610cd4565b820191905f5260205f20905b815481529060010190602001808311610cb757829003601f168201915b505050505081526020019060010190610c40565b50505050815260200160038201805480602002602001604051908101604052809291908181526020015f905b82821015610dbc578382905f5260205f20018054610d3190614a5c565b80601f0160208091040260200160405190810160405280929190818152602001828054610d5d90614a5c565b8015610da85780601f10610d7f57610100808354040283529160200191610da8565b820191905f5260205f20905b815481529060010190602001808311610d8b57829003601f168201915b505050505081526020019060010190610d14565b50505090825250600482015460209091019060ff166005811115610de257610de2613f53565b6005811115610df357610df3613f53565b90525090505b92915050565b5f610e086127ec565b5f9384526001016020908152604080852073ffffffffffffffffffffffffffffffffffffffff949094168552600490930190525090205460ff1690565b60605f610e506128a0565b5f848152602082905260408120549192508167ffffffffffffffff811115610e7a57610e7a6141d8565b604051908082528060200260200182016040528015610ef657816020015b6040805160c0810182525f80825260208083018290529282018190526060808301829052608083015260a082015282527fffffffffffffffffffffffffffffffffffffffffffffffffffffffffffffffff909201910181610e985790505b5090505f60015b8381116110a6575f878152600186016020908152604080832084845290915290205460ff1615611094575f8781526001860160209081526040808320848452825291829020825160c08101909352805460ff808216151585529192840191610100909104166007811115610f7357610f73613f53565b6007811115610f8457610f84613f53565b8152815460ff6201000082048116151560208401526040909201916301000000909104166007811115610fb957610fb9613f53565b6007811115610fca57610fca613f53565b8152602001600182018054610fde90614a5c565b80601f016020809104026020016040519081016040528092919081815260200182805461100a90614a5c565b80156110555780601f1061102c57610100808354040283529160200191611055565b820191905f5260205f20905b81548152906001019060200180831161103857829003601f168201915b5050505050815260200160028201548152505083838151811061107a5761107a61498b565b60200260200101819052508180611090906149e5565b9250505b8061109e816149e5565b915050610efd565b509095945050505050565b60605f6110bc6128a0565b5f8581526003820160209081526040808320878452825291829020805483518184028101840190945280845293945091929083018282801561111b57602002820191905f5260205f20905b815481526020019060010190808311611107575b505050505091505092915050565b6040805160c0810182525f808252602082018190529181018290526060808201839052608082015260a08101829052906111616128a0565b5f8581526001820160209081526040808320878452825291829020825160c08101909352805460ff80821615158552949550929390929184019161010090041660078111156111b2576111b2613f53565b60078111156111c3576111c3613f53565b8152815460ff62010000820481161515602084015260409092019163010000009091041660078111156111f8576111f8613f53565b600781111561120957611209613f53565b815260200160018201805461121d90614a5c565b80601f016020809104026020016040519081016040528092919081815260200182805461124990614a5c565b80156112945780601f1061126b57610100808354040283529160200191611294565b820191905f5260205f20905b81548152906001019060200180831161127757829003601f168201915b5050505050815260200160028201548152505091505092915050565b6112ba82336125ff565b6112c38261275d565b73ffffffffffffffffffffffffffffffffffffffff811661134357604080518082018252601c81527f5a65726f20416464726573732043616e6e6f742042652041646d696e00000000602082015290517f08c379a0000000000000000000000000000000000000000000000000000000008152610a2891906004016145bc565b61134b6127ec565b5f8381526001919091016020908152604080832073ffffffffffffffffffffffffffffffffffffffff8516808552600490910190925280832080547fffffffffffffffffffffffffffffffffffffffffffffffffffffffffffffff0016905551909184917febc594f3b2a99e6227cfcc8bd404d054b6cc3dad7f287e1944cb88681a05c14c9190a35050565b5f6113e284336125ff565b6113eb8461275d565b5f6113f4612819565b5f868152602082815260408083207fffffffff000000000000000000000000000000000000000000000000000000008916845282529182902080548351808501909452601884527f43616c6c696e672066756e6374696f6e206e6f742073657400000000000000009284019290925292935060ff166114a0576040517f08c379a0000000000000000000000000000000000000000000000000000000008152600401610a2891906145bc565b50835181600101805490501115604051806080016040528060468152602001614df560469139906114fe576040517f08c379a0000000000000000000000000000000000000000000000000000000008152600401610a2891906145bc565b505f5b60018201548110156115d7578160010181815481106115225761152261498b565b905f5260205f2090602091828204019190069054906101000a900460ff16600781111561155157611551613f53565b8582815181106115635761156361498b565b6020026020010151600781111561157c5761157c613f53565b146040518060600160405280603c8152602001614e5d603c9139906115ce576040517f08c379a0000000000000000000000000000000000000000000000000000000008152600401610a2891906145bc565b50600101611501565b508351600182015410156116645760018101545b8451811015611662578160010185828151811061160a5761160a61498b565b60209081029190910181015182546001810184555f9384529282902091830490910180549192909160ff601f9092166101000a91820219169083600781111561165557611655613f53565b02179055506001016115eb565b505b6040517fffffffff0000000000000000000000000000000000000000000000000000000086169087907fe71d4b3e2c5b7fa564a42ed19ae98cb606291c8d4d431a6058c189304b4df40d905f90a35092949350505050565b60408051606080820183528082525f6020830152918101919091526116df6128cd565b5f848152602091825260408082207fffffffff000000000000000000000000000000000000000000000000000000008616835290925281902081516060810190925280548290829061173090614a5c565b80601f016020809104026020016040519081016040528092919081815260200182805461175c90614a5c565b80156117a75780601f1061177e576101008083540402835291602001916117a7565b820191905f5260205f20905b81548152906001019060200180831161178a57829003601f168201915b5050509183525050600182015460e01b7fffffffff000000000000000000000000000000000000000000000000000000001660208201526002820180546040909201916117f390614a5c565b80601f016020809104026020016040519081016040528092919081815260200182805461181f90614a5c565b801561186a5780601f106118415761010080835404028352916020019161186a565b820191905f5260205f20905b81548152906001019060200180831161184d57829003601f168201915b505050505081525050905092915050565b5f61188686336125ff565b61188f8661275d565b61189f6060860160408701614ab6565b1561190957604080518082018252600c81527f496e76616c696420747970650000000000000000000000000000000000000000602082015290517f08c379a0000000000000000000000000000000000000000000000000000000008152610a2891906004016145bc565b600661191b6040870160208801614acf565b600781111561192c5761192c613f53565b1480611958575060076119456040870160208801614acf565b600781111561195657611956613f53565b145b801561197457505f82600581111561197257611972613f53565b145b156119de57604080518082018252600c81527f496e76616c696420747970650000000000000000000000000000000000000000602082015290517f08c379a0000000000000000000000000000000000000000000000000000000008152610a2891906004016145bc565b6119e7856128fa565b5f6119f187612be4565b90506119fe878288612c16565b611a1887828787611a1260808c018c614ae8565b89612c36565b604051819088907f1ea0bdfd9680c9b8e4038e41083d7800dca81e6f55a15ce48d858ebb70693d2a905f90a39695505050505050565b60605f611a596128a0565b5f86815260018201602090815260408083208884529091529020549091506301000000900460ff166005816007811115611a9557611a95613f53565b1480611ab257506001816007811115611ab057611ab0613f53565b145b15611ae3578380519060200120604051602001611ad191815260200190565b60405160208183030381529060405293505b5f8681526002830160209081526040808320888452909152908190209051611b0c908690614b49565b90815260200160405180910390208054611b2590614a5c565b80601f0160208091040260200160405190810160405280929190818152602001828054611b5190614a5c565b8015611b9c5780601f10611b7357610100808354040283529160200191611b9c565b820191905f5260205f20905b815481529060010190602001808311611b7f57829003601f168201915b5050505050925050509392505050565b611bb682336125ff565b611bbf8261275d565b611bc76128a0565b5f838152600191820160209081526040808320858452909152812080547fffffffffffffffffffffffffffffffffffffffffffffffffffffffff0000000016815591611c1590830182613bd6565b600282015f9055505080827ed9d817df2d853a886f2cbe7a671a676890264711abbb9d2c3ee79fb1bb653a60405160405180910390a35050565b5f611c5a86336125ff565b611c638661275d565b611c6b6127ec565b5f878152600191909101602052604090205460ff16611ce957604080518082018252601581527f506f6c69637920646f6573206e6f742065786973740000000000000000000000602082015290517f08c379a0000000000000000000000000000000000000000000000000000000008152610a2891906004016145bc565b611cf38686612e5c565b15611d5d57604080518082018252601f81527f63616c6c696e672066756e6374696f6e20616c72656164792065786973747300602082015290517f08c379a0000000000000000000000000000000000000000000000000000000008152610a2891906004016145bc565b611d68868686612ea7565b611d7486868585612ff7565b6040517fffffffff0000000000000000000000000000000000000000000000000000000086169087907fe186f48ef756b0f5068a64ecfb81451f9b4fc2058e0ff0483fee68200d8e513e905f90a35092949350505050565b60408051606080820183525f808352602083015291810191909152611def612819565b5f848152602091825260408082207fffffffff000000000000000000000000000000000000000000000000000000008087168452908452918190208151606081018352815460ff811615158252610100900460e01b90931683850152600181018054835181870281018701855281815294959294938601939283018282801561186a57602002820191905f5260205f20905f905b82829054906101000a900460ff166007811115611ea257611ea2613f53565b815260206001928301818104948501949093039092029101808411611e83579050505050505081525050905092915050565b5f611edf8a336125ff565b611ee88a61275d565b611ef860608a0160408b01614ab6565b611f6157604080518082018252600c81527f496e76616c696420747970650000000000000000000000000000000000000000602082015290517f08c379a0000000000000000000000000000000000000000000000000000000008152610a2891906004016145bc565b6006611f7360408b0160208c01614acf565b6007811115611f8457611f84613f53565b1480611fb057506007611f9d60408b0160208c01614acf565b6007811115611fae57611fae613f53565b145b8015611fcc57505f826005811115611fca57611fca613f53565b145b1561203657604080518082018252600c81527f496e76616c696420747970650000000000000000000000000000000000000000602082015290517f08c379a0000000000000000000000000000000000000000000000000000000008152610a2891906004016145bc565b61203f896128fa565b84831461209257604051806060016040528060318152602001614dc4603191396040517f08c379a0000000000000000000000000000000000000000000000000000000008152600401610a2891906145bc565b5f61209b6128a0565b5f8c8152602091909152604090205490506120b58b612be4565b90505f5b8681101561211c576121148c838d8b8b868181106120d9576120d961498b565b90506020028101906120eb9190614ae8565b8b8b888181106120fd576120fd61498b565b905060200281019061210f9190614ae8565b613163565b6001016120b9565b5061212e8b828b8b8b8b8b8b8b613187565b9a9950505050505050505050565b60605f612147612819565b90505f6121526127ec565b5f8581526001919091016020908152604091829020600201805483518184028101840190945280845290918301828280156121eb57602002820191905f5260205f20905f905b82829054906101000a900460e01b7bffffffffffffffffffffffffffffffffffffffffffffffffffffffff1916815260200190600401906020826003010492830192600103820291508084116121985790505b505050505090505f815190505f8167ffffffffffffffff811115612211576122116141d8565b60405190808252806020026020018201604052801561225d57816020015b60408051606080820183525f80835260208301529181019190915281526020019060019003908161222f5790505b5090505f805b8381101561240a575f888152602087905260408120865190919087908490811061228f5761228f61498b565b6020908102919091018101517fffffffff000000000000000000000000000000000000000000000000000000001682528101919091526040015f205460ff1615612402575f88815260208790526040812086519091908790849081106122f7576122f761498b565b6020908102919091018101517fffffffff0000000000000000000000000000000000000000000000000000000090811683528282019390935260409182015f208251606081018452815460ff811615158252610100900460e01b90941684830152600181018054845181850281018501865281815292948601938301828280156123cd57602002820191905f5260205f20905f905b82829054906101000a900460ff1660078111156123ab576123ab613f53565b81526020600192830181810494850194909303909202910180841161238c5790505b5050505050815250508383815181106123e8576123e861498b565b602002602001018190525081806123fe906149e5565b9250505b600101612263565b50909695505050505050565b61242087336125ff565b6124298761275d565b5f6124326128a0565b905061243e8888613395565b61248e57604051806060016040528060228152602001614e3b602291396040517f08c379a0000000000000000000000000000000000000000000000000000000008152600401610a2891906145bc565b61250b81898961249d8a614b5f565b89898080601f0160208091040260200160405190810160405280939291908181526020018383808284375f9201919091525050604080516020601f8d018190048102820181019092528b815292508b91508a90819084018382808284375f920191909152506133bf92505050565b604051879089907f7d0cd6a27b5d0487bca14f5b3852217db2c9951f3ad91646fe09e0c19abcef50905f90a35050505050505050565b61254b83336125ff565b6125548361275d565b61255e8383613395565b6125ae57604051806060016040528060228152602001614e3b602291396040517f08c379a0000000000000000000000000000000000000000000000000000000008152600401610a2891906145bc565b5f6125b76128a0565b90506125cd8185856125c886614b5f565b6136d9565b604051839085907f7d0cd6a27b5d0487bca14f5b3852217db2c9951f3ad91646fe09e0c19abcef50905f90a350505050565b6040516024810183905273ffffffffffffffffffffffffffffffffffffffff821660448201525f9081906126cd907f901cee110000000000000000000000000000000000000000000000000000000090606401604080517fffffffffffffffffffffffffffffffffffffffffffffffffffffffffffffffe08184030181529190526020810180517bffffffffffffffffffffffffffffffffffffffffffffffffffffffff167f901cee1100000000000000000000000000000000000000000000000000000000179052613966565b915091505f82156127565760048251106126ec575060208101516126ef565b505f5b80612756576040517f08c379a000000000000000000000000000000000000000000000000000000000815260206004820152601860248201527f4e6f7420417574686f72697a656420546f20506f6c69637900000000000000006044820152606401610a28565b5050505050565b6127656127ec565b5f8281526001919091016020526040902060030154610100900460ff16156127e9576040517f08c379a000000000000000000000000000000000000000000000000000000000815260206004820152601f60248201527f4e6f7420616c6c6f77656420666f722063656d656e74656420706f6c696379006044820152606401610a28565b50565b5f80610df960017ff9dbd639dd2ea165d77dd4c51dec420100d51ceacf023b1c40faa045ba8f9a65614a1c565b5f80610df960017fdc82e9666de28bef254c770aa394fdb200d98373b70390c27adec32819f8f266614a1c565b5f80610df960017f5c91f63a4ffcbd372b8ec622fd1fcaaa601b66330afdb30e5c292dd9123f20b0614a1c565b5f80610df960017fc6d0732f7ed4c7ec3d1a6580f5e91e95dcc3d159872b5f4e9d9b8e65d3b720f2614a1c565b5f80610df960017f438102ff677bc3f21830c58117a05d6b953b31e3ea339da3f17957cd3941a690614a1c565b5f80610df960017fb88f46389dea4b934f6c24412aa4a67e6afeeee9cd7e06827b5b8f09c0e7d7ea614a1c565b600161290c6040830160208401614acf565b600781111561291d5761291d613f53565b1480612949575060026129366040830160208401614acf565b600781111561294757612947613f53565b145b80612974575060036129616040830160208401614acf565b600781111561297257612972613f53565b145b8061299f5750600561298c6040830160208401614acf565b600781111561299d5761299d613f53565b145b806129c957505f6129b66040830160208401614acf565b60078111156129c7576129c7613f53565b145b806129f4575060066129e16040830160208401614acf565b60078111156129f2576129f2613f53565b145b80612a1f57506007612a0c6040830160208401614acf565b6007811115612a1d57612a1d613f53565b145b6040518060400160405280600c81526020017f496e76616c69642074797065000000000000000000000000000000000000000081525090612a8d576040517f08c379a0000000000000000000000000000000000000000000000000000000008152600401610a2891906145bc565b50612a9e6060820160408301614ab6565b156127e9576001612ab56080830160608401614acf565b6007811115612ac657612ac6613f53565b1480612af257506002612adf6080830160608401614acf565b6007811115612af057612af0613f53565b145b80612b1d57506003612b0a6080830160608401614acf565b6007811115612b1b57612b1b613f53565b145b80612b4857506005612b356080830160608401614acf565b6007811115612b4657612b46613f53565b145b80612b7257505f612b5f6080830160608401614acf565b6007811115612b7057612b70613f53565b145b6040518060400160405280601881526020017f496e76616c696420747261636b6572206b65792074797065000000000000000081525090612be0576040517f08c379a0000000000000000000000000000000000000000000000000000000008152600401610a2891906145bc565b5050565b5f5f612bee6128a0565b5f848152602082905260408120805492935091612c0a906149e5565b91829055509392505050565b5f612c1f6128a0565b9050612c308185856125c886614b5f565b50505050565b604080516020810182525f9052517fc5d2460186f7233c927e7db2dcc703c0e500b653ca82273b7bfad8045d85a47090612c739087908790614bf1565b604051809103902014156040518060400160405280601081526020017f4e616d652069732072657175697265640000000000000000000000000000000081525090612ceb576040517f08c379a0000000000000000000000000000000000000000000000000000000008152600401610a2891906145bc565b50612cf4613b98565b85858080601f0160208091040260200160405190810160405280939291908181526020018383808284375f92019190915250505090825250604080516020601f86018190048102820181019092528481529085908590819084018382808284375f92019190915250505050602082015260808101826005811115612d7a57612d7a613f53565b90816005811115612d8d57612d8d613f53565b90525080612d99612873565b5f8a8152602091825260408082208b83529092522081518190612dbc9082614c49565b5060208201516001820190612dd19082614c49565b5060408201518051612ded916002840191602090910190613c0d565b5060608201518051612e09916003840191602090910190613c0d565b5060808201516004820180547fffffffffffffffffffffffffffffffffffffffffffffffffffffffffffffff00166001836005811115612e4b57612e4b613f53565b021790555050505050505050505050565b5f612e65612819565b5f938452602090815260408085207fffffffff000000000000000000000000000000000000000000000000000000009490941685529290525090205460ff1690565b60408051602081019091525f90527fffffffff0000000000000000000000000000000000000000000000000000000082167fc5d246010000000000000000000000000000000000000000000000000000000003612f6357604080518082018252601e81527f46756e6374696f6e207369676e61747572652069732072657175697265640000602082015290517f08c379a0000000000000000000000000000000000000000000000000000000008152610a2891906004016145bc565b612f6c81613a27565b5f612f75612819565b5f858152602082815260408083207fffffffff00000000000000000000000000000000000000000000000000000000881684528252909120805460017fffffffffffffffffffffffffffffffffffffffffffffffffffffff000000000090911661010060e089901c021781178255855193945061275693910191850190613c61565b6040805160208082019092525f90528251908301207f3a2db9fe7908dcc36d81824d2338fc3f1aff49ac357dd8c4840527fba27a5b900161309757604080518082018252601081527f4e616d6520697320726571756972656400000000000000000000000000000000602082015290517f08c379a0000000000000000000000000000000000000000000000000000000008152610a2891906004016145bc565b5f6130a06128cd565b5f868152602082815260408083207fffffffff000000000000000000000000000000000000000000000000000000008916845290915290209091506130e58482614c49565b505f858152602082815260408083207fffffffff000000000000000000000000000000000000000000000000000000008816845290915290206001810180547fffffffffffffffffffffffffffffffffffffffffffffffffffffffff000000001660e087901c17905560020161315b8382614c49565b505050505050565b5f61316c6128a0565b905061317d81898961249d8a614b5f565b5050505050505050565b604080516020810182525f9052517fc5d2460186f7233c927e7db2dcc703c0e500b653ca82273b7bfad8045d85a470906131c49089908990614bf1565b604051809103902014156040518060400160405280601081526020017f4e616d65206973207265717569726564000000000000000000000000000000008152509061323c576040517f08c379a0000000000000000000000000000000000000000000000000000000008152600401610a2891906145bc565b50613245613b98565b87878080601f0160208091040260200160405190810160405280939291908181526020018383808284375f920191909152505050908252506132878587614d60565b60408201526132968385614d60565b6060820152608081018260058111156132b1576132b1613f53565b908160058111156132c4576132c4613f53565b905250806132d0612873565b5f8c8152602091825260408082208d835290925220815181906132f39082614c49565b50602082015160018201906133089082614c49565b5060408201518051613324916002840191602090910190613c0d565b5060608201518051613340916003840191602090910190613c0d565b5060808201516004820180547fffffffffffffffffffffffffffffffffffffffffffffffffffffffffffffff0016600183600581111561338257613382613f53565b0217905550505050505050505050505050565b5f61339e6128a0565b5f938452600101602090815260408085209385529290525090205460ff1690565b60408051808201909152601481527f4d617820747261636b65727320726561636865640000000000000000000000006020820152612710851061342f576040517f08c379a0000000000000000000000000000000000000000000000000000000008152600401610a2891906145bc565b506001604080850182905281855260a085018690525f878152918801602090815281832087845281529120845181549015157fffffffffffffffffffffffffffffffffffffffffffffffffffffffffffffff00821681178355928601518693909183917fffffffffffffffffffffffffffffffffffffffffffffffffffffffffffff00ff167fffffffffffffffffffffffffffffffffffffffffffffffffffffffffffff0000909116176101008360078111156134ee576134ee613f53565b02179055506040820151815490151562010000027fffffffffffffffffffffffffffffffffffffffffffffffffffffffffff00ffff82168117835560608401519183917fffffffffffffffffffffffffffffffffffffffffffffffffffffffff00ffffff167fffffffffffffffffffffffffffffffffffffffffffffffffffffffff0000ffff90911617630100000083600781111561358f5761358f613f53565b0217905550608082015160018201906135a89082614c49565b5060a091909101516002909101556005836060015160078111156135ce576135ce613f53565b14806135ef57506001836060015160078111156135ed576135ed613f53565b145b1561362057818051906020012060405160200161360e91815260200190565b60405160208183030381529060405291505b60018360200151600781111561363857613638613f53565b1480613659575060058360200151600781111561365757613657613f53565b145b1561368a57808051906020012060405160200161367891815260200190565b60405160208183030381529060405290505b5f85815260028701602090815260408083208784529091529081902090518291906136b6908590614b49565b908152602001604051809103902090816136d09190614c49565b50505050505050565b60408051808201909152601481527f4d617820747261636b657273207265616368656400000000000000000000000060208201526127108310613749576040517f08c379a0000000000000000000000000000000000000000000000000000000008152600401610a2891906145bc565b5060018082525f604083015260a082018390528160200151600781111561377257613772613f53565b1480613793575060058160200151600781111561379157613791613f53565b145b156137ea57608081015180516020918201206040516137b6920190815260200190565b604080517fffffffffffffffffffffffffffffffffffffffffffffffffffffffffffffffe081840301815291905260808201525b5f83815260018501602090815260408083208584528252909120825181549015157fffffffffffffffffffffffffffffffffffffffffffffffffffffffffffffff00821681178355928401518493909183917fffffffffffffffffffffffffffffffffffffffffffffffffffffffffffff00ff167fffffffffffffffffffffffffffffffffffffffffffffffffffffffffffff00009091161761010083600781111561389857613898613f53565b02179055506040820151815490151562010000027fffffffffffffffffffffffffffffffffffffffffffffffffffffffffff00ffff82168117835560608401519183917fffffffffffffffffffffffffffffffffffffffffffffffffffffffff00ffffff167fffffffffffffffffffffffffffffffffffffffffffffffffffffffff0000ffff90911617630100000083600781111561393957613939613f53565b0217905550608082015160018201906139529082614c49565b5060a0820151816002015590505050505050565b5f60605f613972613ada565b7fffffffff0000000000000000000000000000000000000000000000000000000086165f908152602082905260409081902054905191925073ffffffffffffffffffffffffffffffffffffffff169081906139ce908790614b49565b5f60405180830381855af49150503d805f8114613a06576040519150601f19603f3d011682016040523d82523d5f602084013e613a0b565b606091505b50909450925083613a1e57825160208401fd5b50509250929050565b5f5b8151811015612be057600860ff16828281518110613a4957613a4961498b565b60200260200101516007811115613a6257613a62613f53565b106040518060400160405280600c81526020017f496e76616c69642074797065000000000000000000000000000000000000000081525090613ad1576040517f08c379a0000000000000000000000000000000000000000000000000000000008152600401610a2891906145bc565b50600101613a29565b5f80610df960017fbe498a3b14fd79a48c3c9af86ff14271ed497d09071013334028d28e7791db20614a1c565b5080545f8255601f0160209004905f5260205f20908101906127e99190613d08565b5080545f8255905f5260205f20908101906127e99190613d08565b5080545f8255905f5260205f20908101906127e99190613d1c565b5080545f8255905f5260205f20908101906127e99190613d38565b5080545f8255600502905f5260205f20908101906127e99190613d6f565b6040518060a00160405280606081526020016060815260200160608152602001606081526020015f6005811115613bd157613bd1613f53565b905290565b508054613be290614a5c565b5f825580601f10613bf1575050565b601f0160209004905f5260205f20908101906127e99190613d08565b828054828255905f5260205f20908101928215613c51579160200282015b82811115613c515782518290613c419082614c49565b5091602001919060010190613c2b565b50613c5d929150613d1c565b5090565b828054828255905f5260205f2090601f01602090048101928215613d00579160200282015f5b83821115613cd257835183826101000a81548160ff02191690836007811115613cb257613cb2613f53565b021790555092602001926001016020815f01049283019260010302613c87565b8015613cfe5782816101000a81549060ff02191690556001016020815f01049283019260010302613cd2565b505b50613c5d9291505b5b80821115613c5d575f8155600101613d09565b80821115613c5d575f613d2f8282613bd6565b50600101613d1c565b5b80821115613c5d5780547fffffffffffffffffffffffffffff000000000000000000000000000000000000168155600101613d39565b80821115613c5d5780547fffffffffffffffffffffffffffffffffffffffffffffffffffffffff000000001681555f613dab6001830182613bd6565b600282015f9055600382015f613dc19190613bd6565b613dce600483015f613b29565b50600501613d6f565b80357fffffffff0000000000000000000000000000000000000000000000000000000081168114613e06575f5ffd5b919050565b5f5f60408385031215613e1c575f5ffd5b82359150613e2c60208401613dd7565b90509250929050565b5f5f60408385031215613e46575f5ffd5b82359150602083013573ffffffffffffffffffffffffffffffffffffffff81168114613e70575f5ffd5b809150509250929050565b5f5f60408385031215613e8c575f5ffd5b50508035926020909101359150565b5f81518084528060208401602086015e5f6020828601015260207fffffffffffffffffffffffffffffffffffffffffffffffffffffffffffffffe0601f83011685010191505092915050565b5f82825180855260208501945060208160051b830101602085015f5b8381101561240a577fffffffffffffffffffffffffffffffffffffffffffffffffffffffffffffffe0858403018852613f3d838351613e9b565b6020988901989093509190910190600101613f03565b7f4e487b71000000000000000000000000000000000000000000000000000000005f52602160045260245ffd5b602081525f825160a06020840152613f9b60c0840182613e9b565b905060208401517fffffffffffffffffffffffffffffffffffffffffffffffffffffffffffffffe0848303016040850152613fd68282613e9b565b91505060408401517fffffffffffffffffffffffffffffffffffffffffffffffffffffffffffffffe08483030160608501526140128282613ee7565b91505060608401517fffffffffffffffffffffffffffffffffffffffffffffffffffffffffffffffe084830301608085015261404e8282613ee7565b91505060808401516006811061406657614066613f53565b60a0939093019290925250919050565b5f60208284031215614086575f5ffd5b5035919050565b6008811061409d5761409d613f53565b9052565b8051151582525f60208201516140ba602085018261408d565b5060408201511515604084015260608201516140d9606085018261408d565b50608082015160c060808501526140f360c0850182613e9b565b60a093840151949093019390935250919050565b5f602082016020835280845180835260408501915060408160051b8601019250602086015f5b8281101561417c577fffffffffffffffffffffffffffffffffffffffffffffffffffffffffffffffc08786030184526141678583516140a1565b9450602093840193919091019060010161412d565b50929695505050505050565b602080825282518282018190525f918401906040840190835b818110156110a65783518352602093840193909201916001016141a1565b602081525f6141d160208301846140a1565b9392505050565b7f4e487b71000000000000000000000000000000000000000000000000000000005f52604160045260245ffd5b60405160c0810167ffffffffffffffff81118282101715614228576142286141d8565b60405290565b604051601f82017fffffffffffffffffffffffffffffffffffffffffffffffffffffffffffffffe016810167ffffffffffffffff81118282101715614275576142756141d8565b604052919050565b5f67ffffffffffffffff821115614296576142966141d8565b5060051b60200190565b803560088110613e06575f5ffd5b5f82601f8301126142bd575f5ffd5b81356142d06142cb8261427d565b61422e565b8082825260208201915060208360051b8601019250858311156142f1575f5ffd5b602085015b8381101561431557614307816142a0565b8352602092830192016142f6565b5095945050505050565b5f5f5f60608486031215614331575f5ffd5b8335925061434160208501613dd7565b9150604084013567ffffffffffffffff81111561435c575f5ffd5b614368868287016142ae565b9150509250925092565b602081525f82516060602084015261438d6080840182613e9b565b90507fffffffff00000000000000000000000000000000000000000000000000000000602085015116604084015260408401517fffffffffffffffffffffffffffffffffffffffffffffffffffffffffffffffe08483030160608501526143f48282613e9b565b95945050505050565b5f60c0828403121561440d575f5ffd5b50919050565b5f5f83601f840112614423575f5ffd5b50813567ffffffffffffffff81111561443a575f5ffd5b602083019150836020828501011115614451575f5ffd5b9250929050565b803560068110613e06575f5ffd5b5f5f5f5f5f6080868803121561447a575f5ffd5b85359450602086013567ffffffffffffffff811115614497575f5ffd5b6144a3888289016143fd565b945050604086013567ffffffffffffffff8111156144bf575f5ffd5b6144cb88828901614413565b90945092506144de905060608701614458565b90509295509295909350565b5f82601f8301126144f9575f5ffd5b8135602083015f5f67ffffffffffffffff841115614519576145196141d8565b50601f83017fffffffffffffffffffffffffffffffffffffffffffffffffffffffffffffffe01660200161454c8161422e565b915050828152858383011115614560575f5ffd5b828260208301375f92810160200192909252509392505050565b5f5f5f6060848603121561458c575f5ffd5b8335925060208401359150604084013567ffffffffffffffff8111156145b0575f5ffd5b614368868287016144ea565b602081525f6141d16020830184613e9b565b5f5f5f5f5f60a086880312156145e2575f5ffd5b853594506145f260208701613dd7565b9350604086013567ffffffffffffffff81111561460d575f5ffd5b614619888289016142ae565b935050606086013567ffffffffffffffff811115614635575f5ffd5b614641888289016144ea565b925050608086013567ffffffffffffffff81111561465d575f5ffd5b614669888289016144ea565b9150509295509295909350565b8051151582526020808201517fffffffff000000000000000000000000000000000000000000000000000000001681840152604080830151606091850182905280519185018290525f920190829060808601905b80831015614315576146dd82855161408d565b6020820191506020840193506001830192506146ca565b602081525f6141d16020830184614676565b5f5f83601f840112614716575f5ffd5b50813567ffffffffffffffff81111561472d575f5ffd5b6020830191508360208260051b8501011115614451575f5ffd5b5f5f5f5f5f5f5f5f5f60c08a8c03121561475f575f5ffd5b8935985060208a013567ffffffffffffffff81111561477c575f5ffd5b6147888c828d016143fd565b98505060408a013567ffffffffffffffff8111156147a4575f5ffd5b6147b08c828d01614413565b90985096505060608a013567ffffffffffffffff8111156147cf575f5ffd5b6147db8c828d01614706565b90965094505060808a013567ffffffffffffffff8111156147fa575f5ffd5b6148068c828d01614706565b9094509250614819905060a08b01614458565b90509295985092959850929598565b5f602082016020835280845180835260408501915060408160051b8601019250602086015f5b8281101561417c577fffffffffffffffffffffffffffffffffffffffffffffffffffffffffffffffc0878603018452614888858351614676565b9450602093840193919091019060010161484e565b5f5f5f5f5f5f5f60a0888a0312156148b3575f5ffd5b8735965060208801359550604088013567ffffffffffffffff8111156148d7575f5ffd5b6148e38a828b016143fd565b955050606088013567ffffffffffffffff8111156148ff575f5ffd5b61490b8a828b01614413565b909550935050608088013567ffffffffffffffff81111561492a575f5ffd5b6149368a828b01614413565b989b979a50959850939692959293505050565b5f5f5f6060848603121561495b575f5ffd5b8335925060208401359150604084013567ffffffffffffffff81111561497f575f5ffd5b614368868287016143fd565b7f4e487b71000000000000000000000000000000000000000000000000000000005f52603260045260245ffd5b7f4e487b71000000000000000000000000000000000000000000000000000000005f52601160045260245ffd5b5f7fffffffffffffffffffffffffffffffffffffffffffffffffffffffffffffffff8203614a1557614a156149b8565b5060010190565b81810381811115610df957610df96149b8565b7f4e487b71000000000000000000000000000000000000000000000000000000005f52603160045260245ffd5b600181811c90821680614a7057607f821691505b60208210810361440d577f4e487b71000000000000000000000000000000000000000000000000000000005f52602260045260245ffd5b80358015158114613e06575f5ffd5b5f60208284031215614ac6575f5ffd5b6141d182614aa7565b5f60208284031215614adf575f5ffd5b6141d1826142a0565b5f5f83357fffffffffffffffffffffffffffffffffffffffffffffffffffffffffffffffe1843603018112614b1b575f5ffd5b83018035915067ffffffffffffffff821115614b35575f5ffd5b602001915036819003821315614451575f5ffd5b5f82518060208501845e5f920191825250919050565b5f60c08236031215614b6f575f5ffd5b614b77614205565b614b8083614aa7565b8152614b8e602084016142a0565b6020820152614b9f60408401614aa7565b6040820152614bb0606084016142a0565b6060820152608083013567ffffffffffffffff811115614bce575f5ffd5b614bda368286016144ea565b60808301525060a092830135928101929092525090565b818382375f9101908152919050565b601f821115614c4457805f5260205f20601f840160051c81016020851015614c255750805b601f840160051c820191505b81811015612756575f8155600101614c31565b505050565b815167ffffffffffffffff811115614c6357614c636141d8565b614c7781614c718454614a5c565b84614c00565b6020601f821160018114614cc8575f8315614c925750848201515b7fffffffffffffffffffffffffffffffffffffffffffffffffffffffffffffffff600385901b1c1916600184901b178455612756565b5f848152602081207fffffffffffffffffffffffffffffffffffffffffffffffffffffffffffffffe08516915b82811015614d155787850151825560209485019460019092019101614cf5565b5084821015614d5157868401517fffffffffffffffffffffffffffffffffffffffffffffffffffffffffffffffff600387901b60f8161c191681555b50505050600190811b01905550565b5f614d6d6142cb8461427d565b8381526020810190600585901b840136811115614d88575f5ffd5b845b818110156110a657803567ffffffffffffffff811115614da8575f5ffd5b614db4368289016144ea565b85525060209384019301614d8a56fe547261636b6572206b65797320616e642076616c756573206d7573742068617665207468652073616d65206c656e6774684e657720706172616d65746572207479706573206d757374206265206f662067726561746572206f7220657175616c206c656e67746820746f20746865206f726967696e616c547261636b6572207265666572656e63656420696e2072756c65206e6f74207365744e657720706172616d65746572207479706573206d757374206265206f66207468652073616d65207479706520617320746865206f726967696e616ca26469706673582212205eab64e2f74eb711466688fa40343b80e711b0c05fafa7f03c3e5ca6cd34926764736f6c634300081c0033","linkReferences":{}},"methodIdentifiers":{"addClosedPolicySubscriber(uint256,address)":"2711fe6b","createCallingFunction(uint256,bytes4,uint8[],string,string)":"b0955878","createMappedTracker(uint256,(bool,uint8,bool,uint8,bytes,uint256),string,bytes[],bytes[],uint8)":"f1073d99","createTracker(uint256,(bool,uint8,bool,uint8,bytes,uint256),string,uint8)":"965d884c","deleteCallingFunction(uint256,bytes4)":"05be2787","deleteTracker(uint256,uint256)":"a82c9e07","getAllCallingFunctions(uint256)":"f3e7dfc3","getAllTrackers(uint256)":"56f3b05f","getCallingFunction(uint256,bytes4)":"d28b84c5","getCallingFunctionMetadata(uint256,bytes4)":"7b7fe810","getMappedTrackerValue(uint256,uint256,bytes)":"9f9fa719","getTracker(uint256,uint256)":"72a340d7","getTrackerMetadata(uint256,uint256)":"3bf07314","getTrackerToRuleIds(uint256,uint256)":"6355ed0b","isClosedPolicySubscriber(uint256,address)":"4c957ad9","removeClosedPolicySubscriber(uint256,address)":"7374c994","updateCallingFunction(uint256,bytes4,uint8[])":"784dfa46","updateTracker(uint256,uint256,(bool,uint8,bool,uint8,bytes,uint256))":"febf8f92","updateTracker(uint256,uint256,(bool,uint8,bool,uint8,bytes,uint256),bytes,bytes)":"f479c994"},"id":92}