{"abi":[{"type":"function","name":"DEFAULT_ADMIN_ROLE","inputs":[],"outputs":[{"name":"","type":"bytes32","internalType":"bytes32"}],"stateMutability":"view"},{"type":"function","name":"confirmNewCallingContractAdmin","inputs":[{"name":"callingContractAddress","type":"address","internalType":"address"}],"outputs":[],"stateMutability":"nonpayable"},{"type":"function","name":"confirmNewForeignCallAdmin","inputs":[{"name":"foreignCallContract","type":"address","internalType":"address"},{"name":"functionSignature","type":"bytes4","internalType":"bytes4"}],"outputs":[],"stateMutability":"nonpayable"},{"type":"function","name":"confirmNewPolicyAdmin","inputs":[{"name":"policyId","type":"uint256","internalType":"uint256"}],"outputs":[],"stateMutability":"nonpayable"},{"type":"function","name":"generatePolicyAdminRole","inputs":[{"name":"policyId","type":"uint256","internalType":"uint256"},{"name":"account","type":"address","internalType":"address"}],"outputs":[{"name":"","type":"bytes32","internalType":"bytes32"}],"stateMutability":"nonpayable"},{"type":"function","name":"getRoleAdmin","inputs":[{"name":"role","type":"bytes32","internalType":"bytes32"}],"outputs":[{"name":"","type":"bytes32","internalType":"bytes32"}],"stateMutability":"view"},{"type":"function","name":"getRoleMember","inputs":[{"name":"role","type":"bytes32","internalType":"bytes32"},{"name":"index","type":"uint256","internalType":"uint256"}],"outputs":[{"name":"","type":"address","internalType":"address"}],"stateMutability":"view"},{"type":"function","name":"getRoleMemberCount","inputs":[{"name":"role","type":"bytes32","internalType":"bytes32"}],"outputs":[{"name":"","type":"uint256","internalType":"uint256"}],"stateMutability":"view"},{"type":"function","name":"getRoleMembers","inputs":[{"name":"role","type":"bytes32","internalType":"bytes32"}],"outputs":[{"name":"","type":"address[]","internalType":"address[]"}],"stateMutability":"view"},{"type":"function","name":"grantCallingContractRole","inputs":[{"name":"_callingContract","type":"address","internalType":"address"},{"name":"_account","type":"address","internalType":"address"}],"outputs":[{"name":"","type":"bytes32","internalType":"bytes32"}],"stateMutability":"nonpayable"},{"type":"function","name":"grantCallingContractRoleAccessControl","inputs":[{"name":"_callingContract","type":"address","internalType":"address"},{"name":"_account","type":"address","internalType":"address"}],"outputs":[{"name":"","type":"bytes32","internalType":"bytes32"}],"stateMutability":"nonpayable"},{"type":"function","name":"grantCallingContractRoleOwnable","inputs":[{"name":"_callingContract","type":"address","internalType":"address"},{"name":"_account","type":"address","internalType":"address"}],"outputs":[{"name":"","type":"bytes32","internalType":"bytes32"}],"stateMutability":"nonpayable"},{"type":"function","name":"grantForeignCallAdminRole","inputs":[{"name":"_foreignCallContract","type":"address","internalType":"address"},{"name":"_account","type":"address","internalType":"address"},{"name":"_functionSignature","type":"bytes4","internalType":"bytes4"}],"outputs":[{"name":"","type":"bytes32","internalType":"bytes32"}],"stateMutability":"nonpayable"},{"type":"function","name":"grantRole","inputs":[{"name":"role","type":"bytes32","internalType":"bytes32"},{"name":"account","type":"address","internalType":"address"}],"outputs":[],"stateMutability":"pure"},{"type":"function","name":"hasRole","inputs":[{"name":"role","type":"bytes32","internalType":"bytes32"},{"name":"account","type":"address","internalType":"address"}],"outputs":[{"name":"","type":"bool","internalType":"bool"}],"stateMutability":"view"},{"type":"function","name":"isCallingContractAdmin","inputs":[{"name":"_callingContract","type":"address","internalType":"address"},{"name":"_account","type":"address","internalType":"address"}],"outputs":[{"name":"","type":"bool","internalType":"bool"}],"stateMutability":"view"},{"type":"function","name":"isForeignCallAdmin","inputs":[{"name":"_foreignCallContract","type":"address","internalType":"address"},{"name":"_account","type":"address","internalType":"address"},{"name":"_functionSignature","type":"bytes4","internalType":"bytes4"}],"outputs":[{"name":"","type":"bool","internalType":"bool"}],"stateMutability":"view"},{"type":"function","name":"isPolicyAdmin","inputs":[{"name":"policyId","type":"uint256","internalType":"uint256"},{"name":"account","type":"address","internalType":"address"}],"outputs":[{"name":"","type":"bool","internalType":"bool"}],"stateMutability":"view"},{"type":"function","name":"proposeNewCallingContractAdmin","inputs":[{"name":"callingContractAddress","type":"address","internalType":"address"},{"name":"newCallingContractAdmin","type":"address","internalType":"address"}],"outputs":[],"stateMutability":"nonpayable"},{"type":"function","name":"proposeNewForeignCallAdmin","inputs":[{"name":"foreignCallContract","type":"address","internalType":"address"},{"name":"newForeignCallContractAdmin","type":"address","internalType":"address"},{"name":"functionSignature","type":"bytes4","internalType":"bytes4"}],"outputs":[],"stateMutability":"nonpayable"},{"type":"function","name":"proposeNewPolicyAdmin","inputs":[{"name":"newPolicyAdmin","type":"address","internalType":"address"},{"name":"policyId","type":"uint256","internalType":"uint256"}],"outputs":[],"stateMutability":"nonpayable"},{"type":"function","name":"renounceCallingContractAdminRole","inputs":[{"name":"callingContract","type":"address","internalType":"address"},{"name":"account","type":"address","internalType":"address"}],"outputs":[],"stateMutability":"nonpayable"},{"type":"function","name":"renounceForeignCallAdminRole","inputs":[{"name":"_foreignCallContract","type":"address","internalType":"address"},{"name":"_functionSignature","type":"bytes4","internalType":"bytes4"},{"name":"account","type":"address","internalType":"address"}],"outputs":[],"stateMutability":"nonpayable"},{"type":"function","name":"renouncePolicyAdminRole","inputs":[{"name":"role","type":"bytes32","internalType":"bytes32"},{"name":"account","type":"address","internalType":"address"},{"name":"policyId","type":"uint256","internalType":"uint256"}],"outputs":[],"stateMutability":"nonpayable"},{"type":"function","name":"renounceRole","inputs":[{"name":"role","type":"bytes32","internalType":"bytes32"},{"name":"account","type":"address","internalType":"address"}],"outputs":[],"stateMutability":"nonpayable"},{"type":"function","name":"revokeRole","inputs":[{"name":"role","type":"bytes32","internalType":"bytes32"},{"name":"account","type":"address","internalType":"address"},{"name":"policyId","type":"uint256","internalType":"uint256"}],"outputs":[],"stateMutability":"nonpayable"},{"type":"function","name":"revokeRole","inputs":[{"name":"role","type":"bytes32","internalType":"bytes32"},{"name":"account","type":"address","internalType":"address"}],"outputs":[],"stateMutability":"nonpayable"},{"type":"function","name":"supportsInterface","inputs":[{"name":"interfaceId","type":"bytes4","internalType":"bytes4"}],"outputs":[{"name":"","type":"bool","internalType":"bool"}],"stateMutability":"view"},{"type":"event","name":"CallingContractAdminRoleConfirmed","inputs":[{"name":"callingContract","type":"address","indexed":true,"internalType":"address"},{"name":"adminAddress","type":"address","indexed":true,"internalType":"address"}],"anonymous":false},{"type":"event","name":"CallingContractAdminRoleGranted","inputs":[{"name":"callingContract","type":"address","indexed":true,"internalType":"address"},{"name":"adminAddress","type":"address","indexed":true,"internalType":"address"}],"anonymous":false},{"type":"event","name":"CallingContractAdminRoleProposed","inputs":[{"name":"callingContract","type":"address","indexed":true,"internalType":"address"},{"name":"proposedAdminAddress","type":"address","indexed":true,"internalType":"address"}],"anonymous":false},{"type":"event","name":"CallingContractAdminRoleRenounced","inputs":[{"name":"callingContract","type":"address","indexed":true,"internalType":"address"},{"name":"adminAddress","type":"address","indexed":true,"internalType":"address"}],"anonymous":false},{"type":"event","name":"ForeignCallAdminRoleConfirmed","inputs":[{"name":"foreignCallContract","type":"address","indexed":true,"internalType":"address"},{"name":"adminAddress","type":"address","indexed":true,"internalType":"address"}],"anonymous":false},{"type":"event","name":"ForeignCallAdminRoleGranted","inputs":[{"name":"foreignCallContract","type":"address","indexed":true,"internalType":"address"},{"name":"adminAddress","type":"address","indexed":true,"internalType":"address"}],"anonymous":false},{"type":"event","name":"ForeignCallAdminRoleProposed","inputs":[{"name":"foreignCallContract","type":"address","indexed":true,"internalType":"address"},{"name":"proposedAdminAddress","type":"address","indexed":true,"internalType":"address"}],"anonymous":false},{"type":"event","name":"ForeignCallPermissionsRenounced","inputs":[{"name":"foreignCallContract","type":"address","indexed":true,"internalType":"address"},{"name":"selector","type":"bytes4","indexed":true,"internalType":"bytes4"}],"anonymous":false},{"type":"event","name":"PolicyAdminRoleConfirmed","inputs":[{"name":"adminAddress","type":"address","indexed":true,"internalType":"address"},{"name":"policyId","type":"uint256","indexed":true,"internalType":"uint256"}],"anonymous":false},{"type":"event","name":"PolicyAdminRoleGranted","inputs":[{"name":"adminAddress","type":"address","indexed":true,"internalType":"address"},{"name":"policyId","type":"uint256","indexed":true,"internalType":"uint256"}],"anonymous":false},{"type":"event","name":"PolicyAdminRoleProposed","inputs":[{"name":"proposedAdminAddress","type":"address","indexed":true,"internalType":"address"},{"name":"policyId","type":"uint256","indexed":true,"internalType":"uint256"}],"anonymous":false},{"type":"event","name":"PolicyAdminRoleRenounced","inputs":[{"name":"adminAddress","type":"address","indexed":true,"internalType":"address"},{"name":"policyId","type":"uint256","indexed":true,"internalType":"uint256"}],"anonymous":false},{"type":"event","name":"PolicyAdminRoleRevoked","inputs":[{"name":"adminAddress","type":"address","indexed":true,"internalType":"address"},{"name":"policyId","type":"uint256","indexed":true,"internalType":"uint256"}],"anonymous":false},{"type":"event","name":"RoleAdminChanged","inputs":[{"name":"role","type":"bytes32","indexed":true,"internalType":"bytes32"},{"name":"previousAdminRole","type":"bytes32","indexed":true,"internalType":"bytes32"},{"name":"newAdminRole","type":"bytes32","indexed":true,"internalType":"bytes32"}],"anonymous":false},{"type":"event","name":"RoleGranted","inputs":[{"name":"role","type":"bytes32","indexed":true,"internalType":"bytes32"},{"name":"account","type":"address","indexed":true,"internalType":"address"},{"name":"sender","type":"address","indexed":true,"internalType":"address"}],"anonymous":false},{"type":"event","name":"RoleRevoked","inputs":[{"name":"role","type":"bytes32","indexed":true,"internalType":"bytes32"},{"name":"account","type":"address","indexed":true,"internalType":"address"},{"name":"sender","type":"address","indexed":true,"internalType":"address"}],"anonymous":false},{"type":"error","name":"AccessControlBadConfirmation","inputs":[]},{"type":"error","name":"AccessControlUnauthorizedAccount","inputs":[{"name":"account","type":"address","internalType":"address"},{"name":"neededRole","type":"bytes32","internalType":"bytes32"}]},{"type":"error","name":"ReentrancyGuardReentrantCall","inputs":[]}],"bytecode":{"object":"0x6080604052348015600e575f5ffd5b5060016002556130af806100215f395ff3fe608060405234801561000f575f5ffd5b50600436106101bb575f3560e01c8063804ba97d116100f3578063c976afd611610093578063d547741f1161006e578063d547741f14610250578063d92f90fc146103fe578063dda335ae14610411578063e605bd7c14610424575f5ffd5b8063c976afd6146103c5578063ca15c873146103d8578063d27efca5146103eb575f5ffd5b806391d14854116100ce57806391d1485414610348578063a217fddf1461038b578063a3246ad314610392578063a8c014f4146103b2575f5ffd5b8063804ba97d146102ea5780639010d07c146102fd578063901cee1114610335575f5ffd5b80633262d3d21161015e57806341a2b7ae1161013957806341a2b7ae1461029e5780635f9a9c2b146102b15780636e9ad756146102c457806370aca092146102d7575f5ffd5b80633262d3d21461027857806336568abe14610250578063393093df1461028b575f5ffd5b8063261b024511610199578063261b02451461022a5780632f16a3581461023d5780632f2ff15d146102505780632f46a2e714610265575f5ffd5b806301ffc9a7146101bf5780631929cb64146101e7578063248a9ca314610208575b5f5ffd5b6101d26101cd366004612b11565b610437565b60405190151581526020015b60405180910390f35b6101fa6101f5366004612b4b565b610492565b6040519081526020016101de565b6101fa610216366004612b79565b5f9081526020819052604090206001015490565b6101fa610238366004612b90565b61057c565b6101fa61024b366004612b90565b61069d565b61026361025e366004612b4b565b610791565b005b610263610273366004612bbc565b6107f6565b610263610286366004612bf1565b6108cd565b610263610299366004612c37565b61097c565b6101d26102ac366004612c6a565b610d89565b6102636102bf366004612cae565b610df5565b6102636102d2366004612c6a565b610fb4565b6101d26102e5366004612b90565b61113c565b6101fa6102f8366004612b90565b61119d565b61031061030b366004612cc9565b61120f565b60405173ffffffffffffffffffffffffffffffffffffffff90911681526020016101de565b6101d2610343366004612b4b565b611226565b6101d2610356366004612b4b565b5f9182526020828152604080842073ffffffffffffffffffffffffffffffffffffffff93909316845291905290205460ff1690565b6101fa5f81565b6103a56103a0366004612b79565b611254565b6040516101de9190612ce9565b6102636103c0366004612b90565b61126d565b6102636103d3366004612b79565b6113f2565b6101fa6103e6366004612b79565b6115cc565b6102636103f9366004612bbc565b6115e2565b61026361040c366004612d41565b6116b4565b6101fa61041f366004612c6a565b61181b565b610263610432366004612b90565b611e07565b5f7fffffffff0000000000000000000000000000000000000000000000000000000082167f5a05180f00000000000000000000000000000000000000000000000000000000148061048c575061048c82611eaf565b92915050565b5f61049b611f45565b3330146104f757604051806060016040528060228152602001612fa3602291396040517f08c379a00000000000000000000000000000000000000000000000000000000081526004016104ee9190612d6b565b60405180910390fd5b5f610522847f506f6c6963795f41646d696e0000000000000000000000000000000000000000611f86565b905061052e8184612060565b604051849073ffffffffffffffffffffffffffffffffffffffff8516907f5d8751116265daef12864a389d3a862fedd252ff2c64f06702579fbd7813e579905f90a3905061048c6001600255565b5f610585611f45565b6040517f91d148540000000000000000000000000000000000000000000000000000000081527f43616c6c696e675f436f6e74726163745f41646d696e00000000000000000000600482015233602482015273ffffffffffffffffffffffffffffffffffffffff8416906391d1485490604401602060405180830381865afa158015610613573d5f5f3e3d5ffd5b505050506040513d601f19601f820116820180604052508101906106379190612dbe565b610687576040518060600160405280603d815260200161303d603d91396040517f08c379a00000000000000000000000000000000000000000000000000000000081526004016104ee9190612d6b565b6106918383612184565b905061048c6001600255565b5f6106a6611f45565b8273ffffffffffffffffffffffffffffffffffffffff16638da5cb5b6040518163ffffffff1660e01b8152600401602060405180830381865afa1580156106ef573d5f5f3e3d5ffd5b505050506040513d601f19601f820116820180604052508101906107139190612ddd565b73ffffffffffffffffffffffffffffffffffffffff163373ffffffffffffffffffffffffffffffffffffffff1614610687576040518060600160405280603d815260200161303d603d91396040517f08c379a00000000000000000000000000000000000000000000000000000000081526004016104ee9190612d6b565b604080518082018252601181527f46756e6374696f6e2064697361626c6564000000000000000000000000000000602082015290517f08c379a00000000000000000000000000000000000000000000000000000000081526104ee9190600401612d6b565b6107fe611f45565b6108088183611226565b1561087257604080518082018252601981527f42656c6f77204d696e2041646d696e205468726573686f6c6400000000000000602082015290517f08c379a00000000000000000000000000000000000000000000000000000000081526104ee9190600401612d6b565b61087c8383612391565b604051819073ffffffffffffffffffffffffffffffffffffffff8416907fa18e7770c8bee6a49fd728f59c26eb9a0293f6ab4195bb3672cc26ea098644ba905f90a36108c86001600255565b505050565b6108d5611f45565b5f61090184847f43616c6c696e675f436f6e74726163745f41646d696e000000000000000000006123ea565b905061090d8183612391565b6040517fffffffff0000000000000000000000000000000000000000000000000000000084169073ffffffffffffffffffffffffffffffffffffffff8616907f0d70a7b0df1e2f2bb2c5f5f88d18b819596a6b28cc7f884d61850ee7b4dba25e905f90a3506108c86001600255565b5f6109b16109ab84847f43616c6c696e675f436f6e74726163745f41646d696e000000000000000000006123ea565b5f61120f565b90506109fe6109e184847f50726f706f7365645f43616c6c696e675f436f6e74726163745f41646d696e006123ea565b5f9081526020818152604080832033845290915290205460ff1690565b610a6757604080518082018252601f81527f4e6f742050726f706f73656420466f726569676e2043616c6c2041646d696e00602082015290517f08c379a00000000000000000000000000000000000000000000000000000000081526104ee9190600401612d6b565b610a9b610a9584847f50726f706f7365645f43616c6c696e675f436f6e74726163745f41646d696e006123ea565b3361252c565b50610ad0610aca84847f43616c6c696e675f436f6e74726163745f41646d696e000000000000000000006123ea565b8261252c565b50610b05610aff84847f43616c6c696e675f436f6e74726163745f41646d696e000000000000000000006123ea565b3361255f565b505f610b0f61258a565b90505f5b73ffffffffffffffffffffffffffffffffffffffff85165f90815260048301602090815260408083207fffffffff0000000000000000000000000000000000000000000000000000000088168452909152902054811015610cc25773ffffffffffffffffffffffffffffffffffffffff8581165f90815260048401602090815260408083207fffffffff0000000000000000000000000000000000000000000000000000000089168452909152902080549185169183908110610bd857610bd8612df8565b5f9182526020909120015473ffffffffffffffffffffffffffffffffffffffff1603610cb05773ffffffffffffffffffffffffffffffffffffffff85165f90815260048301602090815260408083207fffffffff00000000000000000000000000000000000000000000000000000000881684529091529020805433919083908110610c6657610c66612df8565b905f5260205f20015f6101000a81548173ffffffffffffffffffffffffffffffffffffffff021916908373ffffffffffffffffffffffffffffffffffffffff160217905550610cc2565b80610cba81612e52565b915050610b13565b5073ffffffffffffffffffffffffffffffffffffffff8481165f81815260038401602090815260408083207fffffffff00000000000000000000000000000000000000000000000000000000891684528252808320948716835293905282812080547fffffffffffffffffffffffffffffffffffffffffffffffffffffffffffffff0090811690915533808352848320805490921660011790915592517f764eabd7879cb970b88d2432503ac38461be469c819e1259fc013dc1094355d59190a350505050565b5f610deb610db885847f43616c6c696e675f436f6e74726163745f41646d696e000000000000000000006123ea565b5f9081526020818152604080832073ffffffffffffffffffffffffffffffffffffffff8816845290915290205460ff1690565b90505b9392505050565b5f610e236109ab837f43616c6c696e675f436f6e74726163745f41646d696e000000000000000000006125b7565b9050610e526109e1837f50726f706f7365645f43616c6c696e675f436f6e74726163745f41646d696e006125b7565b610ea257604051806060016040528060238152602001612f5a602391396040517f08c379a00000000000000000000000000000000000000000000000000000000081526004016104ee9190612d6b565b610ecf610a95837f50726f706f7365645f43616c6c696e675f436f6e74726163745f41646d696e006125b7565b50610efd610aca837f43616c6c696e675f436f6e74726163745f41646d696e000000000000000000006125b7565b50610f2b610aff837f43616c6c696e675f436f6e74726163745f41646d696e000000000000000000006125b7565b505f610f356125df565b73ffffffffffffffffffffffffffffffffffffffff84165f8181526020839052604080822080547fffffffffffffffffffffffff000000000000000000000000000000000000000016339081179091559051939450927ffa5350a8d644c6aa3e792a6a6b7976e28cf5ba5fec66f6eefc2829f0ca689c419190a3505050565b610fbf833383610d89565b61102857604080518082018252601681527f4e6f7420466f726569676e2043616c6c2041646d696e00000000000000000000602082015290517f08c379a00000000000000000000000000000000000000000000000000000000081526104ee9190600401612d6b565b73ffffffffffffffffffffffffffffffffffffffff82166110a857604080518082018252601c81527f5a65726f20416464726573732043616e6e6f742042652041646d696e00000000602082015290517f08c379a00000000000000000000000000000000000000000000000000000000081526104ee9190600401612d6b565b6110dc6110d684837f50726f706f7365645f43616c6c696e675f436f6e74726163745f41646d696e006123ea565b8361255f565b508173ffffffffffffffffffffffffffffffffffffffff168373ffffffffffffffffffffffffffffffffffffffff167fcf8d4fff2a6296918742799a620a4a7a35bf58f7695a44eefb29a5bae57bc23f60405160405180910390a3505050565b5f610dee61116a847f43616c6c696e675f436f6e74726163745f41646d696e000000000000000000006125b7565b5f9081526020818152604080832073ffffffffffffffffffffffffffffffffffffffff8716845290915290205460ff1690565b5f6111a6611f45565b3373ffffffffffffffffffffffffffffffffffffffff84161461068757604051806060016040528060268152602001612f7d602691396040517f08c379a00000000000000000000000000000000000000000000000000000000081526004016104ee9190612d6b565b5f828152600160205260408120610dee908361260c565b5f610dee61116a847f506f6c6963795f41646d696e0000000000000000000000000000000000000000611f86565b5f81815260016020526040902060609061048c90612617565b611277823361113c565b6112e057604080518082018252601a81527f4e6f742043616c6c696e6720436f6e74726163742041646d696e000000000000602082015290517f08c379a00000000000000000000000000000000000000000000000000000000081526104ee9190600401612d6b565b73ffffffffffffffffffffffffffffffffffffffff811661136057604080518082018252601c81527f5a65726f20416464726573732043616e6e6f742042652041646d696e00000000602082015290517f08c379a00000000000000000000000000000000000000000000000000000000081526104ee9190600401612d6b565b61139361138d837f50726f706f7365645f43616c6c696e675f436f6e74726163745f41646d696e006125b7565b8261255f565b508073ffffffffffffffffffffffffffffffffffffffff168273ffffffffffffffffffffffffffffffffffffffff167f7d2c38c3c31fae4a580fef38a6b852d68e5e78ecd34b57fce25d387127bc713d60405160405180910390a35050565b5f6114206109ab837f506f6c6963795f41646d696e0000000000000000000000000000000000000000611f86565b905061144f6109e1837f50726f706f7365645f506f6c6963795f41646d696e0000000000000000000000611f86565b6114b857604080518082018252601981527f4e6f742050726f706f73656420506f6c6963792041646d696e00000000000000602082015290517f08c379a00000000000000000000000000000000000000000000000000000000081526104ee9190600401612d6b565b6114e5610a95837f50726f706f7365645f506f6c6963795f41646d696e0000000000000000000000611f86565b50611513610aca837f506f6c6963795f41646d696e0000000000000000000000000000000000000000611f86565b50611541610aff837f506f6c6963795f41646d696e0000000000000000000000000000000000000000611f86565b503361154b612623565b5f848152602091909152604080822080547fffffffffffffffffffffffff00000000000000000000000000000000000000001673ffffffffffffffffffffffffffffffffffffffff94909416939093179092559051839133917f14ca48cb26e98f4c91402fa960abe9a5c1f5d5478f39a7e544901e6e48e108dd9190a35050565b5f81815260016020526040812061048c90612650565b6115ea611f45565b6115f48183611226565b1561165e57604080518082018252601981527f42656c6f77204d696e2041646d696e205468726573686f6c6400000000000000602082015290517f08c379a00000000000000000000000000000000000000000000000000000000081526104ee9190600401612d6b565b6116688383612659565b604051819073ffffffffffffffffffffffffffffffffffffffff8416907fcdee8d3f2327f159a26a6a91394457975866d642f5531884dd73711727595a12905f90a36108c86001600255565b6116be8133611226565b61172757604080518082018252601081527f4e6f7420506f6c6963792041646d696e00000000000000000000000000000000602082015290517f08c379a00000000000000000000000000000000000000000000000000000000081526104ee9190600401612d6b565b73ffffffffffffffffffffffffffffffffffffffff82166117a757604080518082018252601c81527f5a65726f20416464726573732043616e6e6f742042652041646d696e00000000602082015290517f08c379a00000000000000000000000000000000000000000000000000000000081526104ee9190600401612d6b565b6117d46110d6827f50726f706f7365645f506f6c6963795f41646d696e0000000000000000000000611f86565b50604051819073ffffffffffffffffffffffffffffffffffffffff8416907f3b0f200412e09c80b1126912caf7c728d400faf0ec6786b54d60af413d377ead905f90a35050565b5f611824611f45565b73ffffffffffffffffffffffffffffffffffffffff83166118a457604080518082018252601c81527f5a65726f20416464726573732043616e6e6f742042652041646d696e00000000602082015290517f08c379a00000000000000000000000000000000000000000000000000000000081526104ee9190600401612d6b565b3373ffffffffffffffffffffffffffffffffffffffff85161461190d57604051806060016040528060308152602001612fc5603091396040517f08c379a00000000000000000000000000000000000000000000000000000000081526004016104ee9190612d6b565b8373ffffffffffffffffffffffffffffffffffffffff163b5f0361197757604051806060016040528060308152602001612fc5603091396040517f08c379a00000000000000000000000000000000000000000000000000000000081526004016104ee9190612d6b565b7fffffffff000000000000000000000000000000000000000000000000000000008216611a0357604080518082018252601481527f466f726569676e2043616c6c204e6f7420536574000000000000000000000000602082015290517f08c379a00000000000000000000000000000000000000000000000000000000081526104ee9190600401612d6b565b5f611a2f85847f43616c6c696e675f436f6e74726163745f41646d696e000000000000000000006123ea565b90505f611a3b826115cc565b1115611a8d57604051806060016040528060228152602001612ff5602291396040517f08c379a00000000000000000000000000000000000000000000000000000000081526004016104ee9190612d6b565b611a97818561255f565b505f611aa161258a565b73ffffffffffffffffffffffffffffffffffffffff87165f90815260028201602090815260408083207fffffffff0000000000000000000000000000000000000000000000000000000089168452909152812080547fffffffffffffffffffffffffffffffffffffffffffffffffffffffffffffff00166001179055909150611b28612683565b9050805f0187908060018154018082558091505060019003905f5260205f20015f9091909190916101000a81548173ffffffffffffffffffffffffffffffffffffffff021916908373ffffffffffffffffffffffffffffffffffffffff1602179055508060010185908060018154018082558091505060019003905f5260205f2090600891828204019190066004029091909190916101000a81548163ffffffff021916908360e01c0217905550816004015f8873ffffffffffffffffffffffffffffffffffffffff1673ffffffffffffffffffffffffffffffffffffffff1681526020019081526020015f205f867bffffffffffffffffffffffffffffffffffffffffffffffffffffffff19167bffffffffffffffffffffffffffffffffffffffffffffffffffffffff191681526020019081526020015f2086908060018154018082558091505060019003905f5260205f20015f9091909190916101000a81548173ffffffffffffffffffffffffffffffffffffffff021916908373ffffffffffffffffffffffffffffffffffffffff1602179055506001826003015f8973ffffffffffffffffffffffffffffffffffffffff1673ffffffffffffffffffffffffffffffffffffffff1681526020019081526020015f205f877bffffffffffffffffffffffffffffffffffffffffffffffffffffffff19167bffffffffffffffffffffffffffffffffffffffffffffffffffffffff191681526020019081526020015f205f8873ffffffffffffffffffffffffffffffffffffffff1673ffffffffffffffffffffffffffffffffffffffff1681526020019081526020015f205f6101000a81548160ff0219169083151502179055508573ffffffffffffffffffffffffffffffffffffffff168773ffffffffffffffffffffffffffffffffffffffff167f1fc1e76e7979d46f5dc34b12fc88668567593b51c7e2358d69d06394e4fe47a160405160405180910390a3505060016002559050610dee565b611e0f611f45565b5f611e3a837f43616c6c696e675f436f6e74726163745f41646d696e000000000000000000006125b7565b9050611e468183612391565b8173ffffffffffffffffffffffffffffffffffffffff168373ffffffffffffffffffffffffffffffffffffffff167fc7e5c48bb5b72c9ee975727278b1b86f46ad719a177d1f3c090a3c987a3285e260405160405180910390a350611eab6001600255565b5050565b5f7fffffffff0000000000000000000000000000000000000000000000000000000082167f7965db0b00000000000000000000000000000000000000000000000000000000148061048c57507f01ffc9a7000000000000000000000000000000000000000000000000000000007fffffffff0000000000000000000000000000000000000000000000000000000083161461048c565b6002805403611f80576040517f3ee5aeb500000000000000000000000000000000000000000000000000000000815260040160405180910390fd5b60028055565b5f82604051602001611f9a91815260200190565b604080517fffffffffffffffffffffffffffffffffffffffffffffffffffffffffffffffe0818403018152828252602083018590529101604080517fffffffffffffffffffffffffffffffffffffffffffffffffffffffffffffffe08184030181529082905261200d9291602001612ea0565b604080517fffffffffffffffffffffffffffffffffffffffffffffffffffffffffffffffe081840301815282825280516020918201209083015201604051602081830303815290604052610dee90612eb4565b73ffffffffffffffffffffffffffffffffffffffff81166120e057604080518082018252601c81527f5a65726f20416464726573732043616e6e6f742042652041646d696e00000000602082015290517f08c379a00000000000000000000000000000000000000000000000000000000081526104ee9190600401612d6b565b5f8281526020818152604080832073ffffffffffffffffffffffffffffffffffffffff8516845290915290205460ff161561217a57604080518082018252601c81527f506f6c6963792041646d696e20416c7265616479204372656174656400000000602082015290517f08c379a00000000000000000000000000000000000000000000000000000000081526104ee9190600401612d6b565b6108c8828261255f565b5f73ffffffffffffffffffffffffffffffffffffffff821661220557604080518082018252601c81527f5a65726f20416464726573732043616e6e6f742042652041646d696e00000000602082015290517f08c379a00000000000000000000000000000000000000000000000000000000081526104ee9190600401612d6b565b8273ffffffffffffffffffffffffffffffffffffffff163b5f0361226f57604051806060016040528060268152602001612f7d602691396040517f08c379a00000000000000000000000000000000000000000000000000000000081526004016104ee9190612d6b565b5f61229a847f43616c6c696e675f436f6e74726163745f41646d696e000000000000000000006125b7565b90505f6122a6826115cc565b11156122f857604051806060016040528060268152602001613017602691396040517f08c379a00000000000000000000000000000000000000000000000000000000081526004016104ee9190612d6b565b612302818461255f565b505f61230c6125df565b73ffffffffffffffffffffffffffffffffffffffff8681165f8181526020849052604080822080547fffffffffffffffffffffffff000000000000000000000000000000000000000016948a16948517905551939450919290917f2b474bca23ad1f8b56bb31f8c22933f265e0e15bb4fcf8bb6c9c1de01f68eb6591a3509392505050565b73ffffffffffffffffffffffffffffffffffffffff811633146123e0576040517f6697b23200000000000000000000000000000000000000000000000000000000815260040160405180910390fd5b6108c8828261252c565b6040805173ffffffffffffffffffffffffffffffffffffffff851660208201525f9101604080517fffffffffffffffffffffffffffffffffffffffffffffffffffffffffffffffe08184030181528282527fffffffff00000000000000000000000000000000000000000000000000000000861660208401529101604080517fffffffffffffffffffffffffffffffffffffffffffffffffffffffffffffffe0818403018152828252602083018690529101604080517fffffffffffffffffffffffffffffffffffffffffffffffffffffffffffffffe0818403018152908290526124d9939291602001612ef9565b604080517fffffffffffffffffffffffffffffffffffffffffffffffffffffffffffffffe081840301815282825280516020918201209083015201604051602081830303815290604052610deb90612eb4565b5f5f61253884846126b0565b90508015610dee575f8481526001602052604090206125579084612770565b509392505050565b5f5f61256b8484612791565b90508015610dee575f8481526001602052604090206125579084612883565b5f8061048c60017f1f3305601ed940efccf797d76856e5fe70659a8a6905d64c9f236321df91e718612f19565b6040805173ffffffffffffffffffffffffffffffffffffffff841660208201525f9101611f9a565b5f8061048c60017fb6ef102287fea9b8cf71b72ec7f262ba77464d93e50a2fb3b94afbb901484471612f19565b5f610dee83836128a4565b60605f610dee836128ca565b5f8061048c60017fcc82521cf89d97d40478640a045eb5c33e2eae5f4801e736d61315f69eb52d4e612f19565b5f61048c825490565b5f8281526020819052604090206001015461267381612923565b61267d838361252c565b50505050565b5f8061048c60017f3c401fd2932622880eb0dc8877cc070591b51eaaa3bb9dfbc1718d869b7a12b3612f19565b5f8281526020818152604080832073ffffffffffffffffffffffffffffffffffffffff8516845290915281205460ff1615612769575f8381526020818152604080832073ffffffffffffffffffffffffffffffffffffffff8616808552925280832080547fffffffffffffffffffffffffffffffffffffffffffffffffffffffffffffff0016905551339286917ff6391f5c32d9c69d2a47ea670b442974b53935d1edc7fd64eb21e047a839171b9190a450600161048c565b505f61048c565b5f610dee8373ffffffffffffffffffffffffffffffffffffffff8416612930565b5f8281526020818152604080832073ffffffffffffffffffffffffffffffffffffffff8516845290915281205460ff16612769575f8381526020818152604080832073ffffffffffffffffffffffffffffffffffffffff86168452909152902080547fffffffffffffffffffffffffffffffffffffffffffffffffffffffffffffff001660011790556128213390565b73ffffffffffffffffffffffffffffffffffffffff168273ffffffffffffffffffffffffffffffffffffffff16847f2f8788117e7eff1d82e926ec794901d17c78024a50270940304540a733656f0d60405160405180910390a450600161048c565b5f610dee8373ffffffffffffffffffffffffffffffffffffffff8416612a13565b5f825f0182815481106128b9576128b9612df8565b905f5260205f200154905092915050565b6060815f0180548060200260200160405190810160405280929190818152602001828054801561291757602002820191905f5260205f20905b815481526020019060010190808311612903575b50505050509050919050565b61292d8133612a58565b50565b5f8181526001830160205260408120548015612a0a575f612952600183612f19565b85549091505f9061296590600190612f19565b90508082146129c4575f865f01828154811061298357612983612df8565b905f5260205f200154905080875f0184815481106129a3576129a3612df8565b5f918252602080832090910192909255918252600188019052604090208390555b85548690806129d5576129d5612f2c565b600190038181905f5260205f20015f90559055856001015f8681526020019081526020015f205f90556001935050505061048c565b5f91505061048c565b5f81815260018301602052604081205461276957508154600181810184555f84815260208082209093018490558454848252828601909352604090209190915561048c565b5f8281526020818152604080832073ffffffffffffffffffffffffffffffffffffffff8516845290915290205460ff16611eab576040517fe2517d3f00000000000000000000000000000000000000000000000000000000815273ffffffffffffffffffffffffffffffffffffffff82166004820152602481018390526044016104ee565b80357fffffffff0000000000000000000000000000000000000000000000000000000081168114612b0c575f5ffd5b919050565b5f60208284031215612b21575f5ffd5b610dee82612add565b73ffffffffffffffffffffffffffffffffffffffff8116811461292d575f5ffd5b5f5f60408385031215612b5c575f5ffd5b823591506020830135612b6e81612b2a565b809150509250929050565b5f60208284031215612b89575f5ffd5b5035919050565b5f5f60408385031215612ba1575f5ffd5b8235612bac81612b2a565b91506020830135612b6e81612b2a565b5f5f5f60608486031215612bce575f5ffd5b833592506020840135612be081612b2a565b929592945050506040919091013590565b5f5f5f60608486031215612c03575f5ffd5b8335612c0e81612b2a565b9250612c1c60208501612add565b91506040840135612c2c81612b2a565b809150509250925092565b5f5f60408385031215612c48575f5ffd5b8235612c5381612b2a565b9150612c6160208401612add565b90509250929050565b5f5f5f60608486031215612c7c575f5ffd5b8335612c8781612b2a565b92506020840135612c9781612b2a565b9150612ca560408501612add565b90509250925092565b5f60208284031215612cbe575f5ffd5b8135610dee81612b2a565b5f5f60408385031215612cda575f5ffd5b50508035926020909101359150565b602080825282518282018190525f918401906040840190835b81811015612d3657835173ffffffffffffffffffffffffffffffffffffffff16835260209384019390920191600101612d02565b509095945050505050565b5f5f60408385031215612d52575f5ffd5b8235612d5d81612b2a565b946020939093013593505050565b602081525f82518060208401528060208501604085015e5f6040828501015260407fffffffffffffffffffffffffffffffffffffffffffffffffffffffffffffffe0601f83011684010191505092915050565b5f60208284031215612dce575f5ffd5b81518015158114610dee575f5ffd5b5f60208284031215612ded575f5ffd5b8151610dee81612b2a565b7f4e487b71000000000000000000000000000000000000000000000000000000005f52603260045260245ffd5b7f4e487b71000000000000000000000000000000000000000000000000000000005f52601160045260245ffd5b5f7fffffffffffffffffffffffffffffffffffffffffffffffffffffffffffffffff8203612e8257612e82612e25565b5060010190565b5f81518060208401855e5f93019283525090919050565b5f610deb612eae8386612e89565b84612e89565b80516020808301519190811015612ef3577fffffffffffffffffffffffffffffffffffffffffffffffffffffffffffffffff8160200360031b1b821691505b50919050565b5f612f10612eae612f0a8488612e89565b86612e89565b95945050505050565b8181038181111561048c5761048c612e25565b7f4e487b71000000000000000000000000000000000000000000000000000000005f52603160045260245ffdfe4e6f742050726f706f7365642043616c6c696e6720436f6e74726163742041646d696e4f6e6c792043616c6c696e6720436f6e74726163742043616e204372656174652041646d696e4f6e6c7952756c6573456e67696e6543616e43726561746541646d696e526f6c65734f6e6c7920466f726569676e2043616c6c20436f6e74726163742043616e204372656174652041646d696e20526f6c65466f726569676e2043616c6c2041646d696e20416c7265616479204772616e74656443616c6c696e6720436f6e74726163742041646d696e20416c7265616479204772616e74656443616c6c696e6720436f6e74726163742041646d696e20526f6c65204e6f74204772616e7465642046726f6d2043616c6c696e6720436f6e7472616374a26469706673582212208923aa4e939476bd31febace2e247111d642fdf0c67241416e6df71ad347bbf464736f6c634300081c0033","linkReferences":{}},"methodIdentifiers":{"DEFAULT_ADMIN_ROLE()":"a217fddf","confirmNewCallingContractAdmin(address)":"5f9a9c2b","confirmNewForeignCallAdmin(address,bytes4)":"393093df","confirmNewPolicyAdmin(uint256)":"c976afd6","generatePolicyAdminRole(uint256,address)":"1929cb64","getRoleAdmin(bytes32)":"248a9ca3","getRoleMember(bytes32,uint256)":"9010d07c","getRoleMemberCount(bytes32)":"ca15c873","getRoleMembers(bytes32)":"a3246ad3","grantCallingContractRole(address,address)":"804ba97d","grantCallingContractRoleAccessControl(address,address)":"261b0245","grantCallingContractRoleOwnable(address,address)":"2f16a358","grantForeignCallAdminRole(address,address,bytes4)":"dda335ae","grantRole(bytes32,address)":"2f2ff15d","hasRole(bytes32,address)":"91d14854","isCallingContractAdmin(address,address)":"70aca092","isForeignCallAdmin(address,address,bytes4)":"41a2b7ae","isPolicyAdmin(uint256,address)":"901cee11","proposeNewCallingContractAdmin(address,address)":"a8c014f4","proposeNewForeignCallAdmin(address,address,bytes4)":"6e9ad756","proposeNewPolicyAdmin(address,uint256)":"d92f90fc","renounceCallingContractAdminRole(address,address)":"e605bd7c","renounceForeignCallAdminRole(address,bytes4,address)":"3262d3d2","renouncePolicyAdminRole(bytes32,address,uint256)":"2f46a2e7","renounceRole(bytes32,address)":"36568abe","revokeRole(bytes32,address)":"d547741f","revokeRole(bytes32,address,uint256)":"d27efca5","supportsInterface(bytes4)":"01ffc9a7"},"id":89}