{"abi":[{"type":"function","name":"applyPolicy","inputs":[{"name":"contractAddress","type":"address","internalType":"address"},{"name":"policyIds","type":"uint256[]","internalType":"uint256[]"}],"outputs":[],"stateMutability":"nonpayable"},{"type":"function","name":"cementPolicy","inputs":[{"name":"policyId","type":"uint256","internalType":"uint256"}],"outputs":[],"stateMutability":"nonpayable"},{"type":"function","name":"closePolicy","inputs":[{"name":"policyId","type":"uint256","internalType":"uint256"}],"outputs":[],"stateMutability":"nonpayable"},{"type":"function","name":"createPolicy","inputs":[{"name":"policyType","type":"uint8","internalType":"enum PolicyType"},{"name":"policyName","type":"string","internalType":"string"},{"name":"policyDescription","type":"string","internalType":"string"}],"outputs":[{"name":"","type":"uint256","internalType":"uint256"}],"stateMutability":"nonpayable"},{"type":"function","name":"deletePolicy","inputs":[{"name":"policyId","type":"uint256","internalType":"uint256"}],"outputs":[],"stateMutability":"nonpayable"},{"type":"function","name":"disablePolicy","inputs":[{"name":"policyId","type":"uint256","internalType":"uint256"}],"outputs":[],"stateMutability":"nonpayable"},{"type":"function","name":"getAppliedPolicyIds","inputs":[{"name":"contractAddress","type":"address","internalType":"address"}],"outputs":[{"name":"","type":"uint256[]","internalType":"uint256[]"}],"stateMutability":"view"},{"type":"function","name":"getPolicy","inputs":[{"name":"policyId","type":"uint256","internalType":"uint256"}],"outputs":[{"name":"callingFunctions","type":"bytes4[]","internalType":"bytes4[]"},{"name":"ruleIds","type":"uint256[][]","internalType":"uint256[][]"}],"stateMutability":"view"},{"type":"function","name":"getPolicyMetadata","inputs":[{"name":"_policyId","type":"uint256","internalType":"uint256"}],"outputs":[{"name":"","type":"tuple","internalType":"struct PolicyMetadata","components":[{"name":"policyName","type":"string","internalType":"string"},{"name":"policyDescription","type":"string","internalType":"string"}]}],"stateMutability":"view"},{"type":"function","name":"isCementedPolicy","inputs":[{"name":"_policyId","type":"uint256","internalType":"uint256"}],"outputs":[{"name":"","type":"bool","internalType":"bool"}],"stateMutability":"view"},{"type":"function","name":"isClosedPolicy","inputs":[{"name":"policyId","type":"uint256","internalType":"uint256"}],"outputs":[{"name":"","type":"bool","internalType":"bool"}],"stateMutability":"view"},{"type":"function","name":"isDisabledPolicy","inputs":[{"name":"policyId","type":"uint256","internalType":"uint256"}],"outputs":[{"name":"","type":"bool","internalType":"bool"}],"stateMutability":"view"},{"type":"function","name":"openPolicy","inputs":[{"name":"policyId","type":"uint256","internalType":"uint256"}],"outputs":[],"stateMutability":"nonpayable"},{"type":"function","name":"unapplyPolicy","inputs":[{"name":"_contractAddress","type":"address","internalType":"address"},{"name":"_policyIds","type":"uint256[]","internalType":"uint256[]"}],"outputs":[],"stateMutability":"nonpayable"},{"type":"function","name":"updatePolicy","inputs":[{"name":"policyId","type":"uint256","internalType":"uint256"},{"name":"callingFunctions","type":"bytes4[]","internalType":"bytes4[]"},{"name":"ruleIds","type":"uint256[][]","internalType":"uint256[][]"},{"name":"policyType","type":"uint8","internalType":"enum PolicyType"},{"name":"policyName","type":"string","internalType":"string"},{"name":"policyDescription","type":"string","internalType":"string"}],"outputs":[{"name":"","type":"uint256","internalType":"uint256"}],"stateMutability":"nonpayable"},{"type":"event","name":"ForeignCallDeleted","inputs":[{"name":"policyId","type":"uint256","indexed":true,"internalType":"uint256"},{"name":"foreignCallId","type":"uint256","indexed":true,"internalType":"uint256"}],"anonymous":false},{"type":"event","name":"PolicyApplied","inputs":[{"name":"policyIds","type":"uint256[]","indexed":false,"internalType":"uint256[]"},{"name":"callingContract","type":"address","indexed":true,"internalType":"address"}],"anonymous":false},{"type":"event","name":"PolicyCemented","inputs":[{"name":"policyId","type":"uint256","indexed":true,"internalType":"uint256"}],"anonymous":false},{"type":"event","name":"PolicyClosed","inputs":[{"name":"policyId","type":"uint256","indexed":true,"internalType":"uint256"}],"anonymous":false},{"type":"event","name":"PolicyCreated","inputs":[{"name":"policyId","type":"uint256","indexed":true,"internalType":"uint256"}],"anonymous":false},{"type":"event","name":"PolicyDeleted","inputs":[{"name":"policyId","type":"uint256","indexed":true,"internalType":"uint256"}],"anonymous":false},{"type":"event","name":"PolicyDisabled","inputs":[{"name":"policyId","type":"uint256","indexed":true,"internalType":"uint256"}],"anonymous":false},{"type":"event","name":"PolicyOpened","inputs":[{"name":"policyId","type":"uint256","indexed":true,"internalType":"uint256"}],"anonymous":false},{"type":"event","name":"PolicyUnapplied","inputs":[{"name":"policyIds","type":"uint256[]","indexed":false,"internalType":"uint256[]"},{"name":"callingContract","type":"address","indexed":true,"internalType":"address"}],"anonymous":false},{"type":"event","name":"PolicyUpdated","inputs":[{"name":"policyId","type":"uint256","indexed":true,"internalType":"uint256"}],"anonymous":false},{"type":"event","name":"TrackerDeleted","inputs":[{"name":"policyId","type":"uint256","indexed":true,"internalType":"uint256"},{"name":"trackerId","type":"uint256","indexed":true,"internalType":"uint256"}],"anonymous":false}],"bytecode":{"object":"0x6080604052348015600e575f5ffd5b506146bd8061001c5f395ff3fe608060405234801561000f575f5ffd5b50600436106100f0575f3560e01c80638cf7a29311610093578063d46a37c411610063578063d46a37c414610209578063e37490231461021c578063f7b570f61461023c578063fed27c8f1461024f575f5ffd5b80638cf7a293146101a25780639228303f146101c257806395953fba146101d5578063cc486bc5146101f6575f5ffd5b80634f10689b116100ce5780634f10689b146101465780635239f98c14610169578063696ef7031461017c578063798d6c7b1461018f575f5ffd5b80632b07fce3146100f45780632b0e44401461011e57806330ab6a0a14610133575b5f5ffd5b610107610102366004613d1e565b610262565b604051610115929190613d35565b60405180910390f35b61013161012c366004613d1e565b61062d565b005b610131610141366004613d1e565b6107c4565b610159610154366004613d1e565b6108dc565b6040519015158152602001610115565b610131610177366004613ead565b610917565b61015961018a366004613d1e565b610e99565b61013161019d366004613d1e565b610ea1565b6101b56101b0366004613d1e565b610fb9565b6040516101159190613f48565b6101316101d0366004613ead565b611113565b6101e86101e3366004613ff3565b611630565b604051908152602001610115565b6101e8610204366004614073565b6117ec565b610131610217366004613d1e565b6118a7565b61022f61022a36600461415e565b611a04565b604051610115919061417e565b61015961024a366004613d1e565b611a83565b61013161025d366004613d1e565b611aaa565b6060805f61026e6120b5565b5f8581526001918201602052604090206002810154910191501561032a57600181015467ffffffffffffffff8111156102a9576102a96141c0565b6040519080825280602002602001820160405280156102d2578160200160208202803683370190505b50600182015490935067ffffffffffffffff8111156102f3576102f36141c0565b60405190808252806020026020018201604052801561032657816020015b60608152602001906001900390816103115790505b5091505b600181015467ffffffffffffffff811115610347576103476141c0565b60405190808252806020026020018201604052801561037a57816020015b60608152602001906001900390816103655790505b5091505f5b6001820154811015610626578160010181815481106103a0576103a06141ed565b905f5260205f2090600891828204019190066004029054906101000a900460e01b8482815181106103d3576103d36141ed565b7fffffffff00000000000000000000000000000000000000000000000000000000909216602092830291909101909101525f5b825f015f84600101848154811061041f5761041f6141ed565b5f918252602080832060088304015460079092166004026101000a90910460e01b7fffffffff0000000000000000000000000000000000000000000000000000000016835282019290925260400190205481101561061d57825f015f846001018481548110610490576104906141ed565b5f918252602080832060088304015460079092166004026101000a90910460e01b7fffffffff0000000000000000000000000000000000000000000000000000000016835282019290925260400190205467ffffffffffffffff8111156104f9576104f96141c0565b604051908082528060200260200182016040528015610522578160200160208202803683370190505b50848381518110610535576105356141ed565b6020026020010181905250825f015f846001018481548110610559576105596141ed565b905f5260205f2090600891828204019190066004029054906101000a900460e01b7bffffffffffffffffffffffffffffffffffffffffffffffffffffffff19167bffffffffffffffffffffffffffffffffffffffffffffffffffffffff191681526020019081526020015f2081815481106105d6576105d66141ed565b905f5260205f2001548483815181106105f1576105f16141ed565b6020026020010151828151811061060a5761060a6141ed565b6020908102919091010152600101610406565b5060010161037f565b5050915091565b60405160248101829052336044820181905282915f9081906106ea907f901cee1100000000000000000000000000000000000000000000000000000000906064015b604080517fffffffffffffffffffffffffffffffffffffffffffffffffffffffffffffffe08184030181529190526020810180517bffffffffffffffffffffffffffffffffffffffffffffffffffffffff167f901cee11000000000000000000000000000000000000000000000000000000001790526120e8565b915091505f821561077f5760048251106107095750602081015161070c565b505f5b8061077f57604080518082018252601881527f4e6f7420417574686f72697a656420546f20506f6c6963790000000000000000602082015290517f08c379a0000000000000000000000000000000000000000000000000000000008152610776919060040161421a565b60405180910390fd5b610788866121a9565b610792865f61223b565b60405186907f524fcc256039a8ee7fd3d614ec713bd4a9159d02d7261ae80028fc15b45c4848905f90a2505050505050565b60405160248101829052336044820181905282915f90819061080a907f901cee11000000000000000000000000000000000000000000000000000000009060640161066f565b915091505f82156108965760048251106108295750602081015161082c565b505f5b8061089657604080518082018252601881527f4e6f7420417574686f72697a656420546f20506f6c6963790000000000000000602082015290517f08c379a0000000000000000000000000000000000000000000000000000000008152610776919060040161421a565b61089f866121a9565b6108aa86600261223b565b60405186907faed86353bce2e7a37fbb57488f79d0a22f46359b908581f14d7106e2b67fd0e1905f90a2505050505050565b5f805b6108e76120b5565b5f848152600191909101602052604090206003015460ff1660028111156109105761091061422c565b1492915050565b60405173ffffffffffffffffffffffffffffffffffffffff84166024820152336044820181905284915f9081906109e9907f70aca09200000000000000000000000000000000000000000000000000000000906064015b604080517fffffffffffffffffffffffffffffffffffffffffffffffffffffffffffffffe08184030181529190526020810180517bffffffffffffffffffffffffffffffffffffffffffffffffffffffff167f70aca092000000000000000000000000000000000000000000000000000000001790526120e8565b915091505f8215610a75576004825110610a0857506020810151610a0b565b505f5b80610a7557604080518082018252601a81527f4e6f742043616c6c696e6720436f6e74726163742041646d696e000000000000602082015290517f08c379a0000000000000000000000000000000000000000000000000000000008152610776919060040161421a565b73ffffffffffffffffffffffffffffffffffffffff8816610af557604080518082018252601c81527f5a65726f20416464726573732043616e6e6f742042652041646d696e00000000602082015290517f08c379a0000000000000000000000000000000000000000000000000000000008152610776919060040161421a565b5f610afe612488565b73ffffffffffffffffffffffffffffffffffffffff8a165f9081526020828152604080832080548251818502810185019093528083529495509293909291830182828015610b6957602002820191905f5260205f20905b815481526020019060010190808311610b55575b5050505073ffffffffffffffffffffffffffffffffffffffff8c165f908152602085905260408120929350610b9f929150613ae7565b5f805b8251811015610c62575f9150815b8a811015610bfd578b8b82818110610bca57610bca6141ed565b90506020020135848381518110610be357610be36141ed565b602002602001015103610bf557600192505b600101610bb0565b5081610c5a5773ffffffffffffffffffffffffffffffffffffffff8c165f9081526020859052604090208351849083908110610c3b57610c3b6141ed565b60209081029190910181015182546001810184555f9384529190922001555b600101610ba2565b505f5b89811015610e3b575f846001015f8d8d85818110610c8557610c856141ed565b9050602002013581526020019081526020015f20805480602002602001604051908101604052809291908181526020018280548015610cf857602002820191905f5260205f20905b815473ffffffffffffffffffffffffffffffffffffffff168152600190910190602001808311610ccd575b50505050509050846001015f8d8d85818110610d1657610d166141ed565b9050602002013581526020019081526020015f205f610d359190613ae7565b5f5b8151811015610e31578d73ffffffffffffffffffffffffffffffffffffffff16828281518110610d6957610d696141ed565b602002602001015173ffffffffffffffffffffffffffffffffffffffff1614610e2957856001015f8e8e86818110610da357610da36141ed565b9050602002013581526020019081526020015f20828281518110610dc957610dc96141ed565b60209081029190910181015182546001810184555f938452919092200180547fffffffffffffffffffffffff00000000000000000000000000000000000000001673ffffffffffffffffffffffffffffffffffffffff9092169190911790555b600101610d37565b5050600101610c65565b508a73ffffffffffffffffffffffffffffffffffffffff167fcca48239a70eb9b3cebd3ea981ec0ca547a1eac614fb9ef7c80422484582c10b8b8b604051610e84929190614259565b60405180910390a25050505050505050505050565b5f60026108df565b60405160248101829052336044820181905282915f908190610ee7907f901cee11000000000000000000000000000000000000000000000000000000009060640161066f565b915091505f8215610f73576004825110610f0657506020810151610f09565b505f5b80610f7357604080518082018252601881527f4e6f7420417574686f72697a656420546f20506f6c6963790000000000000000602082015290517f08c379a0000000000000000000000000000000000000000000000000000000008152610776919060040161421a565b610f7c866121a9565b610f8786600161223b565b60405186907fe9a53e8109d105e8132e423c8a8489a6c054acbfff3373248be4938a857143d9905f90a2505050505050565b6040805180820190915260608082526020820152610fd56124b5565b5f8381526020919091526040908190208151808301909252805482908290610ffc906142a9565b80601f0160208091040260200160405190810160405280929190818152602001828054611028906142a9565b80156110735780601f1061104a57610100808354040283529160200191611073565b820191905f5260205f20905b81548152906001019060200180831161105657829003601f168201915b5050505050815260200160018201805461108c906142a9565b80601f01602080910402602001604051908101604052809291908181526020018280546110b8906142a9565b80156111035780601f106110da57610100808354040283529160200191611103565b820191905f5260205f20905b8154815290600101906020018083116110e657829003601f168201915b5050505050815250509050919050565b60405173ffffffffffffffffffffffffffffffffffffffff84166024820152336044820181905284915f90819061116e907f70aca092000000000000000000000000000000000000000000000000000000009060640161096e565b915091505f82156111fa57600482511061118d57506020810151611190565b505f5b806111fa57604080518082018252601a81527f4e6f742043616c6c696e6720436f6e74726163742041646d696e000000000000602082015290517f08c379a0000000000000000000000000000000000000000000000000000000008152610776919060040161421a565b73ffffffffffffffffffffffffffffffffffffffff881661127a57604080518082018252601c81527f5a65726f20416464726573732043616e6e6f742042652041646d696e00000000602082015290517f08c379a0000000000000000000000000000000000000000000000000000000008152610776919060040161421a565b5f611283612488565b905061271088889050106040518060600160405280602a81526020016145dc602a9139906112de576040517f08c379a0000000000000000000000000000000000000000000000000000000008152600401610776919061421a565b505f5b87811015611451575f6112f26120b5565b6001015f8b8b85818110611308576113086141ed565b9050602002013581526020019081526020015f209050805f015f9054906101000a900460ff166040518060400160405280601581526020017f506f6c69637920646f6573206e6f7420657869737400000000000000000000008152509061139c576040517f08c379a0000000000000000000000000000000000000000000000000000000008152600401610776919061421a565b506113be8a8a848181106113b2576113b26141ed565b905060200201356121a9565b5f600382015460ff1660028111156113d8576113d861422c565b0361144857335f90815260048201602090815260409182902054825160608101909352603980845260ff909116929161464f9083013990611446576040517f08c379a0000000000000000000000000000000000000000000000000000000008152600401610776919061421a565b505b506001016112e1565b508667ffffffffffffffff81111561146b5761146b6141c0565b604051908082528060200260200182016040528015611494578160200160208202803683370190505b5073ffffffffffffffffffffffffffffffffffffffff8a165f9081526020838152604090912082516114cc9391929190910190613b02565b505f5b878110156115d4578888828181106114e9576114e96141ed565b90506020020135825f015f8c73ffffffffffffffffffffffffffffffffffffffff1673ffffffffffffffffffffffffffffffffffffffff1681526020019081526020015f20828154811061153f5761153f6141ed565b905f5260205f200181905550816001015f8a8a84818110611562576115626141ed565b60209081029290920135835250818101929092526040015f9081208054600180820183559183529290912090910180547fffffffffffffffffffffffff00000000000000000000000000000000000000001673ffffffffffffffffffffffffffffffffffffffff8d16179055016114cf565b508873ffffffffffffffffffffffffffffffffffffffff167f12152a04e6faa55f635c036c0cb901dff565d19cd5703f5076adda8206cdb7c6898960405161161d929190614259565b60405180910390a2505050505050505050565b5f60038660028111156116455761164561422c565b60ff16106040518060400160405280601581526020017f506f6c6963795479706520697320696e76616c69640000000000000000000000815250906116b7576040517f08c379a0000000000000000000000000000000000000000000000000000000008152600401610776919061421a565b505f6116c16120b5565b805460019081018083555f8181528284016020526040902080547fffffffffffffffffffffffffffffffffffffffffffffffffffffffffffffff00908116841782556003909101805494955091938b939116908360028111156117265761172661422c565b02179055506040517f1929cb64000000000000000000000000000000000000000000000000000000008152600481018290523360248201523090631929cb64906044016020604051808303815f875af1158015611785573d5f5f3e3d5ffd5b505050506040513d601f19601f820116820180604052508101906117a991906142fa565b506117b781888888886124e2565b60405181907fde5ef345cecbaaffdfbe2454b7947aa14037bac2f45e4fc98976f8bffea38623905f90a2979650505050505050565b5f6117f78b3361252b565b6118008b6121a9565b6118086120b5565b5f8c8152600191909101602052604090205460ff1661188657604080518082018252601581527f506f6c69637920646f6573206e6f742065786973740000000000000000000000602082015290517f08c379a0000000000000000000000000000000000000000000000000000000008152610776919060040161421a565b6118988b8b8b8b8b8b8b8b8b8b61260f565b9b9a5050505050505050505050565b60405160248101829052336044820181905282915f9081906118ed907f901cee11000000000000000000000000000000000000000000000000000000009060640161066f565b915091505f821561197957600482511061190c5750602081015161190f565b505f5b8061197957604080518082018252601881527f4e6f7420417574686f72697a656420546f20506f6c6963790000000000000000602082015290517f08c379a0000000000000000000000000000000000000000000000000000000008152610776919060040161421a565b611982866121a9565b600161198c6120b5565b5f88815260019190910160205260408082206003018054931515610100027fffffffffffffffffffffffffffffffffffffffffffffffffffffffffffff00ff90941693909317909255905187917fbaf00585ebbdf781652a166975bf4579319799593ec61cfadd690ea9833c3fc891a2505050505050565b6060611a0e612488565b73ffffffffffffffffffffffffffffffffffffffff83165f908152602091825260409081902080548251818502810185019093528083529192909190830182828015611a7757602002820191905f5260205f20905b815481526020019060010190808311611a63575b50505050509050919050565b5f611a8c6120b5565b5f928352600101602052506040902060030154610100900460ff1690565b60405160248101829052336044820181905282915f908190611af0907f901cee11000000000000000000000000000000000000000000000000000000009060640161066f565b915091505f8215611b7c576004825110611b0f57506020810151611b12565b505f5b80611b7c57604080518082018252601881527f4e6f7420417574686f72697a656420546f20506f6c6963790000000000000000602082015290517f08c379a0000000000000000000000000000000000000000000000000000000008152610776919060040161421a565b611b85866121a9565b5f611b8e6120b5565b5f8881526001919091016020526040812080547fffffffffffffffffffffffffffffffffffffffffffffffffffffffffffffff001681559150611bcf612a00565b5f898152602091909152604081205491505b818111611ce357611bf0612a00565b5f8a81526001919091016020908152604080832084845290915290205460ff1615611cd157611c1d612a00565b5f8a8152600191820160209081526040808320858452909152812080547fffffffffffffffffffffffffffffffffffffffffffffffffffffffffffffff0016815591820181611c6c8282613ae7565b600182015f611c7b8282613ae7565b611c88600183015f613b4b565b611c95600283015f613b6d565b50611ca59050600483015f613b88565b611cb2600583015f613b88565b611cbf600683015f613ba3565b611ccc600783015f613ba3565b505050505b80611cdb8161433e565b915050611be1565b505f611ced612a2d565b5f8a8152602091909152604081205491505b818111611e1257611d0e612a2d565b5f8b81526001919091016020908152604080832084845290915290205460ff1615611e0057611d3b612a2d565b5f8b8152600191820160209081526040808320858452909152812080547fffffffffffff0000000000000000000000000000000000000000000000000000168155918201819055611d8f6002830182613b4b565b611d9c600383015f613bc1565b611da9600483015f613bc1565b5060050180547fffffffffffffffffffffffffffffffffffffffffffffffffffffffff0000000016905560405181908b907f19d0bd0cc4d63f9108c93b0abfd7408498ecbc73713f6bb3a2862d9b9d1983d8905f90a35b80611e0a8161433e565b915050611cff565b505f611e1c612a5a565b5f8b81526020829052604090205490915060015b818111611ef9575f8c8152600184016020908152604080832084845290915290205460ff1615611ee757611e62612a5a565b5f8d8152600191820160209081526040808320858452909152812080547fffffffffffffffffffffffffffffffffffffffffffffffffffffffff0000000016815591611eb090830182613bdf565b600282015f90555050808c7ed9d817df2d853a886f2cbe7a671a676890264711abbb9d2c3ee79fb1bb653a60405160405180910390a35b80611ef18161433e565b915050611e30565b505f85600101600101805480602002602001604051908101604052809291908181526020018280548015611f8b57602002820191905f5260205f20905f905b82829054906101000a900460e01b7bffffffffffffffffffffffffffffffffffffffffffffffffffffffff191681526020019060040190602082600301049283019260010382029150808411611f385790505b509394505f93505050505b815181101561207c57866001015f015f838381518110611fb857611fb86141ed565b60200260200101517bffffffffffffffffffffffffffffffffffffffffffffffffffffffff19167bffffffffffffffffffffffffffffffffffffffffffffffffffffffff191681526020019081526020015f205f6120169190613ae7565b6002870180548061202957612029614375565b5f8281526020902060087fffffffffffffffffffffffffffffffffffffffffffffffffffffffffffffffff90920191820401805463ffffffff600460078516026101000a02191690559055600101611f96565b506040518c907f433ab09ab993382af577c4a70f77dcc7cf149b5b52eb40d19b869664bfb5496d905f90a2505050505050505050505050565b5f806120e260017ff9dbd639dd2ea165d77dd4c51dec420100d51ceacf023b1c40faa045ba8f9a656143a2565b92915050565b5f60605f6120f4612a87565b7fffffffff0000000000000000000000000000000000000000000000000000000086165f908152602082905260409081902054905191925073ffffffffffffffffffffffffffffffffffffffff169081906121509087906143b5565b5f60405180830381855af49150503d805f8114612188576040519150601f19603f3d011682016040523d82523d5f602084013e61218d565b606091505b509094509250836121a057825160208401fd5b50509250929050565b6121b16120b5565b5f8281526001919091016020526040902060030154610100900460ff161561223857604080518082018252601f81527f4e6f7420616c6c6f77656420666f722063656d656e74656420706f6c69637900602082015290517f08c379a0000000000000000000000000000000000000000000000000000000008152610776919060040161421a565b50565b5f6122446120b5565b5f848152600191820160205260408120909101915082600281111561226b5761226b61422c565b03612459575f612279612488565b90505f5b5f85815260018301602052604090205481101561243e575f85815260018301602052604081208054839081106122b5576122b56141ed565b5f91825260208083209091015473ffffffffffffffffffffffffffffffffffffffff16808352908590526040822054909250905b818110156124335773ffffffffffffffffffffffffffffffffffffffff83165f90815260208690526040902080548991908390811061232a5761232a6141ed565b905f5260205f2001540361242b57805b6123456001846143a2565b8110156123df5773ffffffffffffffffffffffffffffffffffffffff84165f90815260208790526040902061237b8260016143cb565b8154811061238b5761238b6141ed565b5f91825260208083209091015473ffffffffffffffffffffffffffffffffffffffff871683529088905260409091208054839081106123cc576123cc6141ed565b5f9182526020909120015560010161233a565b5073ffffffffffffffffffffffffffffffffffffffff83165f90815260208690526040902080548061241357612413614375565b600190038181905f5260205f20015f90559055612433565b6001016122e9565b50505060010161227d565b505f848152600182016020526040812061245791613ae7565b505b81816002015f6101000a81548160ff0219169083600281111561247e5761247e61422c565b0217905550505050565b5f806120e260017f1544053a94493269e0aa160e5aa5b54d19ee6492c78b8bd3af283b912c78cdeb6143a2565b5f806120e260017f63f3d299b5e5eaa88e38f63d9fdd88083599db769ec9e20669cb4ec11339fadf6143a2565b5f6124eb6124b5565b5f878152602082905260409020909150612506858783614422565b505f868152602082905260409020600101612522838583614422565b50505050505050565b6040516024810183905273ffffffffffffffffffffffffffffffffffffffff821660448201525f908190612583907f901cee11000000000000000000000000000000000000000000000000000000009060640161066f565b915091505f821561260857600482511061259e575060208101515b8061260857604080518082018252601881527f4e6f7420417574686f72697a656420546f20506f6c6963790000000000000000602082015290517f08c379a0000000000000000000000000000000000000000000000000000000008152610776919060040161421a565b5050505050565b5f60038660028111156126245761262461422c565b60ff16106040518060400160405280601581526020017f506f6c6963795479706520697320696e76616c6964000000000000000000000081525090612696576040517f08c379a0000000000000000000000000000000000000000000000000000000008152600401610776919061421a565b5060408051808201909152601381527f506f6c696379496420697320696e76616c69640000000000000000000000000060208201528b612703576040517f08c379a0000000000000000000000000000000000000000000000000000000008152600401610776919061421a565b5061270e8a8a612ab4565b5f6127176120b5565b5f8d81526001918201602052604090200190506127348c8861223b565b6127418c878787876124e2565b5f816001018054806020026020016040519081016040528092919081815260200182805480156127cf57602002820191905f5260205f20905f905b82829054906101000a900460e01b7bffffffffffffffffffffffffffffffffffffffffffffffffffffffff19168152602001906004019060208260030104928301926001038202915080841161277c5790505b509394505f93505050505b81518110156128bd57825f015f8383815181106127f9576127f96141ed565b60200260200101517bffffffffffffffffffffffffffffffffffffffffffffffffffffffff19167bffffffffffffffffffffffffffffffffffffffffffffffffffffffff191681526020019081526020015f205f6128579190613ae7565b8260010180548061286a5761286a614375565b5f8281526020902060087fffffffffffffffffffffffffffffffffffffffffffffffffffffffffffffffff90920191820401805463ffffffff600460078516026101000a021916905590556001016127da565b5060408051808201909152601881527f4d61782072756c657320636f756e7420726561636865642e000000000000000060208201526127108a1061292e576040517f08c379a0000000000000000000000000000000000000000000000000000000008152600401610776919061421a565b5060408051808201909152601e81527f4d61782063616c6c696e672066756e6374696f6e7320726561636865642e000060208201526127108c1061299f576040517f08c379a0000000000000000000000000000000000000000000000000000000008152600401610776919061421a565b5088156129b9576129b48d8d8d8d8d87612b2e565b6129c5565b6129c58d8d8d85612d00565b6040518d907f912ce63c438aca9d2f50d1d12de5b42efbcc84ce223b08122e8c2e3c000ca1f8905f90a2509a9b9a5050505050505050505050565b5f806120e260017f5c91f63a4ffcbd372b8ec622fd1fcaaa601b66330afdb30e5c292dd9123f20b06143a2565b5f806120e260017f1f3305601ed940efccf797d76856e5fe70659a8a6905d64c9f236321df91e7186143a2565b5f806120e260017f438102ff677bc3f21830c58117a05d6b953b31e3ea339da3f17957cd3941a6906143a2565b5f806120e260017fbe498a3b14fd79a48c3c9af86ff14271ed497d09071013334028d28e7791db206143a2565b81612abf8282612df9565b15612b2957604080518082018252601681527f4475706c696361746573206e6f7420616c6c6f77656400000000000000000000602082015290517f08c379a0000000000000000000000000000000000000000000000000000000008152610776919060040161421a565b505050565b818414612b9a57604080518082018252601981527f496e76616c69642072756c65206172726179206c656e67746800000000000000602082015290517f08c379a0000000000000000000000000000000000000000000000000000000008152610776919060040161421a565b5f5b8481101561252257612bd487878784818110612bba57612bba6141ed565b9050602002016020810190612bcf9190614538565b612e64565b612c3d57604080518082018252601181527f496e76616c6964205369676e6174757265000000000000000000000000000000602082015290517f08c379a0000000000000000000000000000000000000000000000000000000008152610776919060040161421a565b81600101868683818110612c5357612c536141ed565b9050602002016020810190612c689190614538565b81546001810183555f92835260209092206008830401805463ffffffff60079094166004026101000a938402191660e09290921c92909202179055612cf887878784818110612cb957612cb96141ed565b9050602002016020810190612cce9190614538565b868685818110612ce057612ce06141ed565b9050602002810190612cf29190614577565b86612eaf565b600101612b9c565b5f5b8281101561260857612d2085858584818110612bba57612bba6141ed565b612d8957604080518082018252601181527f496e76616c6964205369676e6174757265000000000000000000000000000000602082015290517f08c379a0000000000000000000000000000000000000000000000000000000008152610776919060040161421a565b81600101848483818110612d9f57612d9f6141ed565b9050602002016020810190612db49190614538565b8154600180820184555f93845260209093206008820401805463ffffffff60079093166004026101000a928302191660e09390931c9190910291909117905501612d02565b5f6002831015612e0a57505f6120e2565b5f5b60018403811015612e5d5760208102830135600182015b85811015612e4c5760208102850135808303612e43576001945050612e4c565b50600101612e23565b50505f8211612e5d57600101612e0c565b5092915050565b5f612e6d61388b565b5f938452602090815260408085207fffffffff000000000000000000000000000000000000000000000000000000009490941685529290525090205460ff1690565b5f5b82811015613883575f612ec2612a00565b5f8881526001919091016020526040812090868685818110612ee657612ee66141ed565b602090810292909201358352508181019290925260409081015f2081518083018352815460ff1615158152825160018301805460e08188028401810190965260c083018181529396949594870194929391928492918491840182828015612f6a57602002820191905f5260205f20905b815481526020019060010190808311612f56575b50505050508152602001600182016040518060600160405290815f8201805480602002602001604051908101604052809291908181526020018280548015612fcf57602002820191905f5260205f20905b815481526020019060010190808311612fbb575b505050505081526020016001820180548060200260200160405190810160405280929190818152602001828054801561305457602002820191905f5260205f20905f905b82829054906101000a900460ff1660078111156130325761303261422c565b8152602060019283018181049485019490930390920291018084116130135790505b5050505050815260200160028201805480602002602001604051908101604052809291908181526020015f905b82821015613129578382905f5260205f2001805461309e906142a9565b80601f01602080910402602001604051908101604052809291908181526020018280546130ca906142a9565b80156131155780601f106130ec57610100808354040283529160200191613115565b820191905f5260205f20905b8154815290600101906020018083116130f857829003601f168201915b505050505081526020019060010190613081565b5050505081525050815260200160048201805480602002602001604051908101604052809291908181526020015f905b828210156131f6575f8481526020902060408051606081019091529083018054829060ff16600781111561318f5761318f61422c565b60078111156131a0576131a061422c565b8152905461010081046fffffffffffffffffffffffffffffffff166020808401919091527101000000000000000000000000000000000090910460ff166040909201919091529082526001929092019101613159565b50505050815260200160058201805480602002602001604051908101604052809291908181526020015f905b828210156132bf575f8481526020902060408051606081019091529083018054829060ff1660078111156132585761325861422c565b60078111156132695761326961422c565b8152905461010081046fffffffffffffffffffffffffffffffff166020808401919091527101000000000000000000000000000000000090910460ff166040909201919091529082526001929092019101613222565b50505050815260200160068201805480602002602001604051908101604052809291908181526020015f905b82821015613524575f84815260209081902060408051610100808201835260058702909301805460ff80821615158452948104851615159583019590955290939092918401916201000090910416600281111561334a5761334a61422c565b600281111561335b5761335b61422c565b815281546020909101906301000000900460ff1660078111156133805761338061422c565b60078111156133915761339161422c565b81526020016001820180546133a5906142a9565b80601f01602080910402602001604051908101604052809291908181526020018280546133d1906142a9565b801561341c5780601f106133f35761010080835404028352916020019161341c565b820191905f5260205f20905b8154815290600101906020018083116133ff57829003601f168201915b505050505081526020016002820154815260200160038201805461343f906142a9565b80601f016020809104026020016040519081016040528092919081815260200182805461346b906142a9565b80156134b65780601f1061348d576101008083540402835291602001916134b6565b820191905f5260205f20905b81548152906001019060200180831161349957829003601f168201915b505050505081526020016004820180548060200260200160405190810160405280929190818152602001828054801561350c57602002820191905f5260205f20905b8154815260200190600101908083116134f8575b505050505081525050815260200190600101906132eb565b50505050815260200160078201805480602002602001604051908101604052809291908181526020015f905b82821015613789575f84815260209081902060408051610100808201835260058702909301805460ff8082161515845294810485161515958301959095529093909291840191620100009091041660028111156135af576135af61422c565b60028111156135c0576135c061422c565b815281546020909101906301000000900460ff1660078111156135e5576135e561422c565b60078111156135f6576135f661422c565b815260200160018201805461360a906142a9565b80601f0160208091040260200160405190810160405280929190818152602001828054613636906142a9565b80156136815780601f1061365857610100808354040283529160200191613681565b820191905f5260205f20905b81548152906001019060200180831161366457829003601f168201915b50505050508152602001600282015481526020016003820180546136a4906142a9565b80601f01602080910402602001604051908101604052809291908181526020018280546136d0906142a9565b801561371b5780601f106136f25761010080835404028352916020019161371b565b820191905f5260205f20905b8154815290600101906020018083116136fe57829003601f168201915b505050505081526020016004820180548060200260200160405190810160405280929190818152602001828054801561377157602002820191905f5260205f20905b81548152602001906001019080831161375d575b50505050508152505081526020019060010190613550565b50505091525050905250805190915061380157604080518082018252600c81527f496e76616c69642052756c650000000000000000000000000000000000000000602082015290517f08c379a0000000000000000000000000000000000000000000000000000000008152610776919060040161421a565b613813878260200151604001516138b8565b7fffffffff0000000000000000000000000000000000000000000000000000000086165f908152602084905260409020858584818110613855576138556141ed565b8354600180820186555f95865260209586902092909502939093013592019190915550919091019050612eb1565b505050505050565b5f806120e260017fdc82e9666de28bef254c770aa394fdb200d98373b70390c27adec32819f8f2666143a2565b6127108151106040518060400160405280601a81526020017f4d617820706c61636520686f6c6465727320726561636865642e0000000000008152509061392c576040517f08c379a0000000000000000000000000000000000000000000000000000000008152600401610776919061421a565b505f5b8151811015612b295761395f82828151811061394d5761394d6141ed565b60200260200101516040015160011690565b156139f45761399d8383838151811061397a5761397a6141ed565b6020026020010151602001516fffffffffffffffffffffffffffffffff16613ab4565b60405180606001604052806027815260200161462860279139906139ee576040517f08c379a0000000000000000000000000000000000000000000000000000000008152600401610776919061421a565b50613aac565b613a1b828281518110613a0957613a096141ed565b60200260200101516040015160021690565b15613aac57613a5983838381518110613a3657613a366141ed565b6020026020010151602001516fffffffffffffffffffffffffffffffff16613ade565b6040518060600160405280602281526020016146066022913990613aaa576040517f08c379a0000000000000000000000000000000000000000000000000000000008152600401610776919061421a565b505b60010161392f565b5f613abd612a2d565b5f938452600101602090815260408085209385529290525090205460ff1690565b5f613abd612a5a565b5080545f8255905f5260205f20908101906122389190613c12565b828054828255905f5260205f20908101928215613b3b579160200282015b82811115613b3b578251825591602001919060010190613b20565b50613b47929150613c12565b5090565b5080545f8255601f0160209004905f5260205f20908101906122389190613c12565b5080545f8255905f5260205f20908101906122389190613c26565b5080545f8255905f5260205f20908101906122389190613c42565b5080545f8255600502905f5260205f20908101906122389190613c79565b5080545f8255600202905f5260205f20908101906122389190613ce1565b508054613beb906142a9565b5f825580601f10613bfa575050565b601f0160209004905f5260205f209081019061223891905b5b80821115613b47575f8155600101613c13565b80821115613b47575f613c398282613bdf565b50600101613c26565b5b80821115613b475780547fffffffffffffffffffffffffffff000000000000000000000000000000000000168155600101613c43565b80821115613b475780547fffffffffffffffffffffffffffffffffffffffffffffffffffffffff000000001681555f613cb56001830182613bdf565b600282015f9055600382015f613ccb9190613bdf565b613cd8600483015f613ae7565b50600501613c79565b5b80821115613b475780547fffffffffffffffffffffffffffffffffffffffffffffffffffffffffffffff001681555f6001820155600201613ce2565b5f60208284031215613d2e575f5ffd5b5035919050565b604080825283519082018190525f9060208501906060840190835b81811015613d905783517fffffffff0000000000000000000000000000000000000000000000000000000016835260209384019390920191600101613d50565b50508381036020850152809150845180825260208201925060208160051b830101602087015f5b83811015613e2f578483037fffffffffffffffffffffffffffffffffffffffffffffffffffffffffffffffe0018652815180518085526020918201918501905f5b81811015613e16578351835260209384019390920191600101613df8565b5050602097880197909450929092019150600101613db7565b509098975050505050505050565b803573ffffffffffffffffffffffffffffffffffffffff81168114613e60575f5ffd5b919050565b5f5f83601f840112613e75575f5ffd5b50813567ffffffffffffffff811115613e8c575f5ffd5b6020830191508360208260051b8501011115613ea6575f5ffd5b9250929050565b5f5f5f60408486031215613ebf575f5ffd5b613ec884613e3d565b9250602084013567ffffffffffffffff811115613ee3575f5ffd5b613eef86828701613e65565b9497909650939450505050565b5f81518084528060208401602086015e5f6020828601015260207fffffffffffffffffffffffffffffffffffffffffffffffffffffffffffffffe0601f83011685010191505092915050565b602081525f825160406020840152613f636060840182613efc565b905060208401517fffffffffffffffffffffffffffffffffffffffffffffffffffffffffffffffe0848303016040850152613f9e8282613efc565b95945050505050565b803560038110613e60575f5ffd5b5f5f83601f840112613fc5575f5ffd5b50813567ffffffffffffffff811115613fdc575f5ffd5b602083019150836020828501011115613ea6575f5ffd5b5f5f5f5f5f60608688031215614007575f5ffd5b61401086613fa7565b9450602086013567ffffffffffffffff81111561402b575f5ffd5b61403788828901613fb5565b909550935050604086013567ffffffffffffffff811115614056575f5ffd5b61406288828901613fb5565b969995985093965092949392505050565b5f5f5f5f5f5f5f5f5f5f60c08b8d03121561408c575f5ffd5b8a35995060208b013567ffffffffffffffff8111156140a9575f5ffd5b6140b58d828e01613e65565b909a5098505060408b013567ffffffffffffffff8111156140d4575f5ffd5b6140e08d828e01613e65565b90985096506140f3905060608c01613fa7565b945060808b013567ffffffffffffffff81111561410e575f5ffd5b61411a8d828e01613fb5565b90955093505060a08b013567ffffffffffffffff811115614139575f5ffd5b6141458d828e01613fb5565b915080935050809150509295989b9194979a5092959850565b5f6020828403121561416e575f5ffd5b61417782613e3d565b9392505050565b602080825282518282018190525f918401906040840190835b818110156141b5578351835260209384019390920191600101614197565b509095945050505050565b7f4e487b71000000000000000000000000000000000000000000000000000000005f52604160045260245ffd5b7f4e487b71000000000000000000000000000000000000000000000000000000005f52603260045260245ffd5b602081525f6141776020830184613efc565b7f4e487b71000000000000000000000000000000000000000000000000000000005f52602160045260245ffd5b602081528160208201525f7f07ffffffffffffffffffffffffffffffffffffffffffffffffffffffffffffff831115614290575f5ffd5b8260051b80856040850137919091016040019392505050565b600181811c908216806142bd57607f821691505b6020821081036142f4577f4e487b71000000000000000000000000000000000000000000000000000000005f52602260045260245ffd5b50919050565b5f6020828403121561430a575f5ffd5b5051919050565b7f4e487b71000000000000000000000000000000000000000000000000000000005f52601160045260245ffd5b5f7fffffffffffffffffffffffffffffffffffffffffffffffffffffffffffffffff820361436e5761436e614311565b5060010190565b7f4e487b71000000000000000000000000000000000000000000000000000000005f52603160045260245ffd5b818103818111156120e2576120e2614311565b5f82518060208501845e5f920191825250919050565b808201808211156120e2576120e2614311565b601f821115612b2957805f5260205f20601f840160051c810160208510156144035750805b601f840160051c820191505b81811015612608575f815560010161440f565b67ffffffffffffffff83111561443a5761443a6141c0565b61444e8361444883546142a9565b836143de565b5f601f84116001811461449e575f85156144685750838201355b7fffffffffffffffffffffffffffffffffffffffffffffffffffffffffffffffff600387901b1c1916600186901b178355612608565b5f838152602081207fffffffffffffffffffffffffffffffffffffffffffffffffffffffffffffffe08716915b828110156144eb57868501358255602094850194600190920191016144cb565b5086821015614526577fffffffffffffffffffffffffffffffffffffffffffffffffffffffffffffffff60f88860031b161c19848701351681555b505060018560011b0183555050505050565b5f60208284031215614548575f5ffd5b81357fffffffff0000000000000000000000000000000000000000000000000000000081168114614177575f5ffd5b5f5f83357fffffffffffffffffffffffffffffffffffffffffffffffffffffffffffffffe18436030181126145aa575f5ffd5b83018035915067ffffffffffffffff8211156145c4575f5ffd5b6020019150600581901b3603821315613ea6575f5ffdfe4d617820706f6c69636965732070657220636f6e7472616374206164647265737320726561636865642e547261636b6572207265666572656e63656420696e2072756c65206e6f7420736574466f726569676e2043616c6c207265666572656e63656420696e2072756c65206e6f74207365744f6e6c7920766572696669656420706f6c69637920737562736372696265722063616e206170706c7920636c6f73656420706f6c6963696573a26469706673582212204e74b4e6b8af8e0bc7b369f564dffb61afb48a2b3497099a798727fe7222206b64736f6c634300081c0033","linkReferences":{}},"methodIdentifiers":{"applyPolicy(address,uint256[])":"9228303f","cementPolicy(uint256)":"d46a37c4","closePolicy(uint256)":"2b0e4440","createPolicy(uint8,string,string)":"95953fba","deletePolicy(uint256)":"fed27c8f","disablePolicy(uint256)":"30ab6a0a","getAppliedPolicyIds(address)":"e3749023","getPolicy(uint256)":"2b07fce3","getPolicyMetadata(uint256)":"8cf7a293","isCementedPolicy(uint256)":"f7b570f6","isClosedPolicy(uint256)":"4f10689b","isDisabledPolicy(uint256)":"696ef703","openPolicy(uint256)":"798d6c7b","unapplyPolicy(address,uint256[])":"5239f98c","updatePolicy(uint256,bytes4[],uint256[][],uint8,string,string)":"cc486bc5"},"id":95}