{"abi":[{"type":"function","name":"addClosedPolicySubscriber","inputs":[{"name":"policyId","type":"uint256","internalType":"uint256"},{"name":"subscriber","type":"address","internalType":"address"}],"outputs":[],"stateMutability":"nonpayable"},{"type":"function","name":"createCallingFunction","inputs":[{"name":"policyId","type":"uint256","internalType":"uint256"},{"name":"functionSignature","type":"bytes4","internalType":"bytes4"},{"name":"pTypes","type":"uint8[]","internalType":"enum ParamTypes[]"},{"name":"callingFunctionSignature","type":"string","internalType":"string"},{"name":"encodedValues","type":"string","internalType":"string"},{"name":"name","type":"string","internalType":"string"}],"outputs":[{"name":"","type":"bytes4","internalType":"bytes4"}],"stateMutability":"nonpayable"},{"type":"function","name":"createMappedTracker","inputs":[{"name":"policyId","type":"uint256","internalType":"uint256"},{"name":"tracker","type":"tuple","internalType":"struct Trackers","components":[{"name":"set","type":"bool","internalType":"bool"},{"name":"pType","type":"uint8","internalType":"enum ParamTypes"},{"name":"mapped","type":"bool","internalType":"bool"},{"name":"trackerKeyType","type":"uint8","internalType":"enum ParamTypes"},{"name":"trackerValue","type":"bytes","internalType":"bytes"},{"name":"trackerIndex","type":"uint256","internalType":"uint256"}]},{"name":"trackerName","type":"string","internalType":"string"},{"name":"trackerKeys","type":"bytes[]","internalType":"bytes[]"},{"name":"trackerValues","type":"bytes[]","internalType":"bytes[]"},{"name":"arrayType","type":"uint8","internalType":"enum TrackerArrayTypes"}],"outputs":[{"name":"","type":"uint256","internalType":"uint256"}],"stateMutability":"nonpayable"},{"type":"function","name":"createTracker","inputs":[{"name":"policyId","type":"uint256","internalType":"uint256"},{"name":"tracker","type":"tuple","internalType":"struct Trackers","components":[{"name":"set","type":"bool","internalType":"bool"},{"name":"pType","type":"uint8","internalType":"enum ParamTypes"},{"name":"mapped","type":"bool","internalType":"bool"},{"name":"trackerKeyType","type":"uint8","internalType":"enum ParamTypes"},{"name":"trackerValue","type":"bytes","internalType":"bytes"},{"name":"trackerIndex","type":"uint256","internalType":"uint256"}]},{"name":"trackerName","type":"string","internalType":"string"},{"name":"arrayType","type":"uint8","internalType":"enum TrackerArrayTypes"}],"outputs":[{"name":"","type":"uint256","internalType":"uint256"}],"stateMutability":"nonpayable"},{"type":"function","name":"deleteCallingFunction","inputs":[{"name":"policyId","type":"uint256","internalType":"uint256"},{"name":"sig","type":"bytes4","internalType":"bytes4"}],"outputs":[],"stateMutability":"nonpayable"},{"type":"function","name":"deleteTracker","inputs":[{"name":"policyId","type":"uint256","internalType":"uint256"},{"name":"trackerIndex","type":"uint256","internalType":"uint256"}],"outputs":[],"stateMutability":"nonpayable"},{"type":"function","name":"getAllCallingFunctions","inputs":[{"name":"policyId","type":"uint256","internalType":"uint256"}],"outputs":[{"name":"","type":"tuple[]","internalType":"struct CallingFunctionStorageSet[]","components":[{"name":"set","type":"bool","internalType":"bool"},{"name":"signature","type":"bytes4","internalType":"bytes4"},{"name":"parameterTypes","type":"uint8[]","internalType":"enum ParamTypes[]"}]}],"stateMutability":"view"},{"type":"function","name":"getAllTrackers","inputs":[{"name":"policyId","type":"uint256","internalType":"uint256"}],"outputs":[{"name":"","type":"tuple[]","internalType":"struct Trackers[]","components":[{"name":"set","type":"bool","internalType":"bool"},{"name":"pType","type":"uint8","internalType":"enum ParamTypes"},{"name":"mapped","type":"bool","internalType":"bool"},{"name":"trackerKeyType","type":"uint8","internalType":"enum ParamTypes"},{"name":"trackerValue","type":"bytes","internalType":"bytes"},{"name":"trackerIndex","type":"uint256","internalType":"uint256"}]}],"stateMutability":"view"},{"type":"function","name":"getCallingFunction","inputs":[{"name":"policyId","type":"uint256","internalType":"uint256"},{"name":"sig","type":"bytes4","internalType":"bytes4"}],"outputs":[{"name":"","type":"tuple","internalType":"struct CallingFunctionStorageSet","components":[{"name":"set","type":"bool","internalType":"bool"},{"name":"signature","type":"bytes4","internalType":"bytes4"},{"name":"parameterTypes","type":"uint8[]","internalType":"enum ParamTypes[]"}]}],"stateMutability":"view"},{"type":"function","name":"getCallingFunctionMetadata","inputs":[{"name":"policyId","type":"uint256","internalType":"uint256"},{"name":"sig","type":"bytes4","internalType":"bytes4"}],"outputs":[{"name":"","type":"tuple","internalType":"struct CallingFunctionHashMapping","components":[{"name":"callingFunction","type":"string","internalType":"string"},{"name":"signature","type":"bytes4","internalType":"bytes4"},{"name":"encodedValues","type":"string","internalType":"string"},{"name":"name","type":"string","internalType":"string"}]}],"stateMutability":"view"},{"type":"function","name":"getMappedTrackerValue","inputs":[{"name":"policyId","type":"uint256","internalType":"uint256"},{"name":"index","type":"uint256","internalType":"uint256"},{"name":"trackerKey","type":"bytes","internalType":"bytes"}],"outputs":[{"name":"","type":"bytes","internalType":"bytes"}],"stateMutability":"view"},{"type":"function","name":"getTracker","inputs":[{"name":"policyId","type":"uint256","internalType":"uint256"},{"name":"index","type":"uint256","internalType":"uint256"}],"outputs":[{"name":"","type":"tuple","internalType":"struct Trackers","components":[{"name":"set","type":"bool","internalType":"bool"},{"name":"pType","type":"uint8","internalType":"enum ParamTypes"},{"name":"mapped","type":"bool","internalType":"bool"},{"name":"trackerKeyType","type":"uint8","internalType":"enum ParamTypes"},{"name":"trackerValue","type":"bytes","internalType":"bytes"},{"name":"trackerIndex","type":"uint256","internalType":"uint256"}]}],"stateMutability":"view"},{"type":"function","name":"getTrackerMetadata","inputs":[{"name":"policyId","type":"uint256","internalType":"uint256"},{"name":"trackerId","type":"uint256","internalType":"uint256"}],"outputs":[{"name":"","type":"tuple","internalType":"struct TrackerMetadataStruct","components":[{"name":"trackerName","type":"string","internalType":"string"},{"name":"initialValue","type":"bytes","internalType":"bytes"},{"name":"initialKeys","type":"bytes[]","internalType":"bytes[]"},{"name":"initialValues","type":"bytes[]","internalType":"bytes[]"},{"name":"arrayType","type":"uint8","internalType":"enum TrackerArrayTypes"}]}],"stateMutability":"view"},{"type":"function","name":"getTrackerToRuleIds","inputs":[{"name":"policyId","type":"uint256","internalType":"uint256"},{"name":"trackerIndex","type":"uint256","internalType":"uint256"}],"outputs":[{"name":"","type":"uint256[]","internalType":"uint256[]"}],"stateMutability":"view"},{"type":"function","name":"isClosedPolicySubscriber","inputs":[{"name":"policyId","type":"uint256","internalType":"uint256"},{"name":"subscriber","type":"address","internalType":"address"}],"outputs":[{"name":"","type":"bool","internalType":"bool"}],"stateMutability":"view"},{"type":"function","name":"removeClosedPolicySubscriber","inputs":[{"name":"policyId","type":"uint256","internalType":"uint256"},{"name":"subscriber","type":"address","internalType":"address"}],"outputs":[],"stateMutability":"nonpayable"},{"type":"function","name":"updateCallingFunction","inputs":[{"name":"policyId","type":"uint256","internalType":"uint256"},{"name":"functionSignature","type":"bytes4","internalType":"bytes4"},{"name":"pTypes","type":"uint8[]","internalType":"enum ParamTypes[]"},{"name":"callingFunctionSignature","type":"string","internalType":"string"},{"name":"encodedValues","type":"string","internalType":"string"},{"name":"name","type":"string","internalType":"string"}],"outputs":[{"name":"","type":"bytes4","internalType":"bytes4"}],"stateMutability":"nonpayable"},{"type":"function","name":"updateTracker","inputs":[{"name":"_policyId","type":"uint256","internalType":"uint256"},{"name":"_trackerIndex","type":"uint256","internalType":"uint256"},{"name":"_tracker","type":"tuple","internalType":"struct Trackers","components":[{"name":"set","type":"bool","internalType":"bool"},{"name":"pType","type":"uint8","internalType":"enum ParamTypes"},{"name":"mapped","type":"bool","internalType":"bool"},{"name":"trackerKeyType","type":"uint8","internalType":"enum ParamTypes"},{"name":"trackerValue","type":"bytes","internalType":"bytes"},{"name":"trackerIndex","type":"uint256","internalType":"uint256"}]},{"name":"_trackerKeys","type":"bytes[]","internalType":"bytes[]"},{"name":"_trackerValues","type":"bytes[]","internalType":"bytes[]"}],"outputs":[],"stateMutability":"nonpayable"},{"type":"function","name":"updateTracker","inputs":[{"name":"policyId","type":"uint256","internalType":"uint256"},{"name":"trackerIndex","type":"uint256","internalType":"uint256"},{"name":"tracker","type":"tuple","internalType":"struct Trackers","components":[{"name":"set","type":"bool","internalType":"bool"},{"name":"pType","type":"uint8","internalType":"enum ParamTypes"},{"name":"mapped","type":"bool","internalType":"bool"},{"name":"trackerKeyType","type":"uint8","internalType":"enum ParamTypes"},{"name":"trackerValue","type":"bytes","internalType":"bytes"},{"name":"trackerIndex","type":"uint256","internalType":"uint256"}]}],"outputs":[],"stateMutability":"nonpayable"},{"type":"event","name":"AssociatedRuleDeleted","inputs":[{"name":"policyId","type":"uint256","indexed":true,"internalType":"uint256"},{"name":"callingFunctionSelector","type":"bytes4","indexed":true,"internalType":"bytes4"}],"anonymous":false},{"type":"event","name":"CallingFunctionCreated","inputs":[{"name":"policyId","type":"uint256","indexed":true,"internalType":"uint256"},{"name":"callingFunctionSelector","type":"bytes4","indexed":true,"internalType":"bytes4"}],"anonymous":false},{"type":"event","name":"CallingFunctionDeleted","inputs":[{"name":"policyId","type":"uint256","indexed":true,"internalType":"uint256"},{"name":"callingFunctionSelector","type":"bytes4","indexed":true,"internalType":"bytes4"}],"anonymous":false},{"type":"event","name":"CallingFunctionUpdated","inputs":[{"name":"policyId","type":"uint256","indexed":true,"internalType":"uint256"},{"name":"callingFunctionSelector","type":"bytes4","indexed":true,"internalType":"bytes4"}],"anonymous":false},{"type":"event","name":"PolicySubsciberAdded","inputs":[{"name":"policyId","type":"uint256","indexed":true,"internalType":"uint256"},{"name":"subscriber","type":"address","indexed":true,"internalType":"address"}],"anonymous":false},{"type":"event","name":"PolicySubsciberRemoved","inputs":[{"name":"policyId","type":"uint256","indexed":true,"internalType":"uint256"},{"name":"subscriber","type":"address","indexed":true,"internalType":"address"}],"anonymous":false},{"type":"event","name":"TrackerCreated","inputs":[{"name":"policyId","type":"uint256","indexed":true,"internalType":"uint256"},{"name":"trackerId","type":"uint256","indexed":true,"internalType":"uint256"}],"anonymous":false},{"type":"event","name":"TrackerDeleted","inputs":[{"name":"policyId","type":"uint256","indexed":true,"internalType":"uint256"},{"name":"trackerId","type":"uint256","indexed":true,"internalType":"uint256"}],"anonymous":false},{"type":"event","name":"TrackerUpdated","inputs":[{"name":"policyId","type":"uint256","indexed":true,"internalType":"uint256"},{"name":"trackerId","type":"uint256","indexed":true,"internalType":"uint256"}],"anonymous":false}],"bytecode":{"object":"0x6080604052348015600e575f5ffd5b50614f9f8061001c5f395ff3fe608060405234801561000f575f5ffd5b5060043610610149575f3560e01c80637b7fe810116100c7578063b4d194491161007d578063f1073d9911610063578063f1073d9914610332578063f3e7dfc314610345578063febf8f9214610365575f5ffd5b8063b4d19449146102ff578063d28b84c514610312575f5ffd5b8063965d884c116100ad578063965d884c146102ab5780639f9fa719146102cc578063a82c9e07146102ec575f5ffd5b80637b7fe81014610278578063948af1b614610298575f5ffd5b80634c957ad91161011c5780636355ed0b116101025780636355ed0b1461022557806372a340d7146102455780637374c99414610265575f5ffd5b80634c957ad9146101e257806356f3b05f14610205575f5ffd5b806305be27871461014d5780632711fe6b146101625780633bf07314146101755780633ff1c8d01461019e575b5f5ffd5b61016061015b366004613eb2565b610378565b005b610160610170366004613edc565b6109ab565b610188610183366004613f22565b610ae3565b6040516101959190614027565b60405180910390f35b6101b16101ac3660046142f4565b610e15565b6040517fffffffff000000000000000000000000000000000000000000000000000000009091168152602001610195565b6101f56101f0366004613edc565b61110a565b6040519015158152602001610195565b6102186102133660046143c5565b611150565b6040516101959190614456565b610238610233366004613f22565b6113bc565b60405161019591906144d7565b610258610253366004613f22565b611434565b604051610195919061450e565b610160610273366004613edc565b6115bb565b61028b610286366004613eb2565b6116e2565b6040516101959190614527565b6101b16102a63660046142f4565b611938565b6102be6102b9366004614657565b611ab7565b604051908152602001610195565b6102df6102da3660046146db565b611c92565b6040516101959190614727565b6101606102fa366004613f22565b611df0565b61016061030d36600461477a565b611e93565b610325610320366004613eb2565b611fa3565b60405161019591906148a4565b6102be61034036600461495a565b6120ab565b6103586103533660046143c5565b6124e6565b6040516101959190614a3b565b610160610373366004614ab0565b6127c0565b610382823361287e565b61038b826129dc565b5f610394612a6b565b5f8481526001919091016020526040902090506103af612a98565b5f848152602091825260408082207fffffffff000000000000000000000000000000000000000000000000000000008616835290925290812080547fffffffffffffffffffffffffffffffffffffffffffffffffffffff00000000001681559061041c6001830182613ba4565b50507fffffffff0000000000000000000000000000000000000000000000000000000082165f90815260018201602090815260408083208054825181850281018501909352808352919290919083018282801561049657602002820191905f5260205f20905b815481526020019060010190808311610482575b509394505f93505050505b8151811015610798575f8282815181106104bd576104bd614af2565b602002602001015190505f5f90505f8560010160010180548060200260200160405190810160405280929190818152602001828054801561055c57602002820191905f5260205f20905f905b82829054906101000a900460e01b7bffffffffffffffffffffffffffffffffffffffffffffffffffffffff1916815260200190600401906020826003010492830192600103820291508084116105095790505b509394505f93505050505b815181108015610575575082155b15610667575f82828151811061058d5761058d614af2565b60200260200101519050887bffffffffffffffffffffffffffffffffffffffffffffffffffffffff1916817bffffffffffffffffffffffffffffffffffffffffffffffffffffffff1916036105e25750610655565b7fffffffff0000000000000000000000000000000000000000000000000000000081165f9081526001890160205260408120905b8154811015610651578682828154811061063257610632614af2565b905f5260205f200154036106495760019550610651565b600101610616565b5050505b8061065f81614b4c565b915050610567565b508161078d57610675612ac5565b5f898152600191820160209081526040808320878452909152812080547fffffffffffffffffffffffffffffffffffffffffffffffffffffffffffffff00168155918201816106c48282613bc6565b600182015f6106d38282613bc6565b6106e0600183015f613ba4565b6106ed600283015f613be1565b506106fd9050600483015f613bfc565b61070a600583015f613bfc565b610717600683015f613bfc565b600782015f9055600882015f61072d9190613c17565b61073a600983015f613c17565b50506040517fffffffff000000000000000000000000000000000000000000000000000000008a1692508a91507f871ab12e2607c810d166f513320768d10b6754400a5ec777b382a4d2faf0058f905f90a35b5050506001016104a1565b507fffffffff0000000000000000000000000000000000000000000000000000000083165f90815260018301602052604081206107d491613bc6565b5f5b600283015481101561095657837bffffffffffffffffffffffffffffffffffffffffffffffffffffffff191683600101600101828154811061081a5761081a614af2565b905f5260205f2090600891828204019190066004029054906101000a900460e01b7bffffffffffffffffffffffffffffffffffffffffffffffffffffffff19160361094e5760028301805461087190600190614b83565b8154811061088157610881614af2565b905f5260205f2090600891828204019190066004029054906101000a900460e01b8360010160010182815481106108ba576108ba614af2565b905f5260205f2090600891828204019190066004026101000a81548163ffffffff021916908360e01c0217905550826001016001018054806108fe576108fe614b96565b5f8281526020902060087fffffffffffffffffffffffffffffffffffffffffffffffffffffffffffffffff90920191820401805463ffffffff600460078516026101000a02191690559055610956565b6001016107d6565b506040517fffffffff0000000000000000000000000000000000000000000000000000000084169085907f5a2f4ffcbb6125bac40b498c2d16b904bba6ea8752f82b39f00be8243b96ff58905f90a350505050565b6109b5823361287e565b6109be826129dc565b73ffffffffffffffffffffffffffffffffffffffff8116610a4757604080518082018252601c81527f5a65726f20416464726573732043616e6e6f742042652041646d696e00000000602082015290517f08c379a0000000000000000000000000000000000000000000000000000000008152610a3e9190600401614727565b60405180910390fd5b6001610a51612a6b565b5f8481526001919091016020908152604080832073ffffffffffffffffffffffffffffffffffffffff8616808552600490910190925280832080547fffffffffffffffffffffffffffffffffffffffffffffffffffffffffffffff001694151594909417909355915184917f790a3138425334d31f4463869c596f58d51e891ecb665b5090fa0ae9ed8b6fd291a35050565b610aeb613c35565b610af3612af2565b5f84815260209182526040808220858352909252819020815160a08101909252805482908290610b2290614bc3565b80601f0160208091040260200160405190810160405280929190818152602001828054610b4e90614bc3565b8015610b995780601f10610b7057610100808354040283529160200191610b99565b820191905f5260205f20905b815481529060010190602001808311610b7c57829003601f168201915b50505050508152602001600182018054610bb290614bc3565b80601f0160208091040260200160405190810160405280929190818152602001828054610bde90614bc3565b8015610c295780601f10610c0057610100808354040283529160200191610c29565b820191905f5260205f20905b815481529060010190602001808311610c0c57829003601f168201915b5050505050815260200160028201805480602002602001604051908101604052809291908181526020015f905b82821015610cfe578382905f5260205f20018054610c7390614bc3565b80601f0160208091040260200160405190810160405280929190818152602001828054610c9f90614bc3565b8015610cea5780601f10610cc157610100808354040283529160200191610cea565b820191905f5260205f20905b815481529060010190602001808311610ccd57829003601f168201915b505050505081526020019060010190610c56565b50505050815260200160038201805480602002602001604051908101604052809291908181526020015f905b82821015610dd2578382905f5260205f20018054610d4790614bc3565b80601f0160208091040260200160405190810160405280929190818152602001828054610d7390614bc3565b8015610dbe5780601f10610d9557610100808354040283529160200191610dbe565b820191905f5260205f20905b815481529060010190602001808311610da157829003601f168201915b505050505081526020019060010190610d2a565b50505090825250600482015460209091019060ff166005811115610df857610df8613ffa565b6005811115610e0957610e09613ffa565b90525090505b92915050565b5f610e20873361287e565b610e29876129dc565b5f610e32612a98565b5f898152602082815260408083207fffffffff000000000000000000000000000000000000000000000000000000008c16845282529182902080548351808501909452601884527f43616c6c696e672066756e6374696f6e206e6f742073657400000000000000009284019290925292935060ff16610ede576040517f08c379a0000000000000000000000000000000000000000000000000000000008152600401610a3e9190614727565b50865181600101805490501115604051806080016040528060468152602001614ec66046913990610f3c576040517f08c379a0000000000000000000000000000000000000000000000000000000008152600401610a3e9190614727565b505f5b600182015481101561101557816001018181548110610f6057610f60614af2565b905f5260205f2090602091828204019190069054906101000a900460ff166007811115610f8f57610f8f613ffa565b888281518110610fa157610fa1614af2565b60200260200101516007811115610fba57610fba613ffa565b146040518060600160405280603c8152602001614f2e603c91399061100c576040517f08c379a0000000000000000000000000000000000000000000000000000000008152600401610a3e9190614727565b50600101610f3f565b508651600182015410156110a25760018101545b87518110156110a0578160010188828151811061104857611048614af2565b60209081029190910181015182546001810184555f9384529282902091830490910180549192909160ff601f9092166101000a91820219169083600781111561109357611093613ffa565b0217905550600101611029565b505b6110af8989888888612b1f565b6040517fffffffff000000000000000000000000000000000000000000000000000000008916908a907fe71d4b3e2c5b7fa564a42ed19ae98cb606291c8d4d431a6058c189304b4df40d905f90a35095979650505050505050565b5f611113612a6b565b5f9384526001016020908152604080852073ffffffffffffffffffffffffffffffffffffffff949094168552600490930190525090205460ff1690565b60605f61115b612cd2565b5f848152602082905260408120549192508167ffffffffffffffff8111156111855761118561411d565b60405190808252806020026020018201604052801561120157816020015b6040805160c0810182525f80825260208083018290529282018190526060808301829052608083015260a082015282527fffffffffffffffffffffffffffffffffffffffffffffffffffffffffffffffff9092019101816111a35790505b5090505f60015b8381116113b1575f878152600186016020908152604080832084845290915290205460ff161561139f575f8781526001860160209081526040808320848452825291829020825160c08101909352805460ff80821615158552919284019161010090910416600781111561127e5761127e613ffa565b600781111561128f5761128f613ffa565b8152815460ff62010000820481161515602084015260409092019163010000009091041660078111156112c4576112c4613ffa565b60078111156112d5576112d5613ffa565b81526020016001820180546112e990614bc3565b80601f016020809104026020016040519081016040528092919081815260200182805461131590614bc3565b80156113605780601f1061133757610100808354040283529160200191611360565b820191905f5260205f20905b81548152906001019060200180831161134357829003601f168201915b5050505050815260200160028201548152505083838151811061138557611385614af2565b6020026020010181905250818061139b90614b4c565b9250505b806113a981614b4c565b915050611208565b509095945050505050565b60605f6113c7612cd2565b5f8581526003820160209081526040808320878452825291829020805483518184028101840190945280845293945091929083018282801561142657602002820191905f5260205f20905b815481526020019060010190808311611412575b505050505091505092915050565b6040805160c0810182525f808252602082018190529181018290526060808201839052608082015260a081018290529061146c612cd2565b5f8581526001820160209081526040808320878452825291829020825160c08101909352805460ff80821615158552949550929390929184019161010090041660078111156114bd576114bd613ffa565b60078111156114ce576114ce613ffa565b8152815460ff620100008204811615156020840152604090920191630100000090910416600781111561150357611503613ffa565b600781111561151457611514613ffa565b815260200160018201805461152890614bc3565b80601f016020809104026020016040519081016040528092919081815260200182805461155490614bc3565b801561159f5780601f106115765761010080835404028352916020019161159f565b820191905f5260205f20905b81548152906001019060200180831161158257829003601f168201915b5050505050815260200160028201548152505091505092915050565b6115c5823361287e565b6115ce826129dc565b73ffffffffffffffffffffffffffffffffffffffff811661164e57604080518082018252601c81527f5a65726f20416464726573732043616e6e6f742042652041646d696e00000000602082015290517f08c379a0000000000000000000000000000000000000000000000000000000008152610a3e9190600401614727565b611656612a6b565b5f8381526001919091016020908152604080832073ffffffffffffffffffffffffffffffffffffffff8516808552600490910190925280832080547fffffffffffffffffffffffffffffffffffffffffffffffffffffffffffffff0016905551909184917febc594f3b2a99e6227cfcc8bd404d054b6cc3dad7f287e1944cb88681a05c14c9190a35050565b6040805160808101825260608082525f60208301529181018290528181019190915261170c612cff565b5f848152602091825260408082207fffffffff000000000000000000000000000000000000000000000000000000008616835290925281902081516080810190925280548290829061175d90614bc3565b80601f016020809104026020016040519081016040528092919081815260200182805461178990614bc3565b80156117d45780601f106117ab576101008083540402835291602001916117d4565b820191905f5260205f20905b8154815290600101906020018083116117b757829003601f168201915b5050509183525050600182015460e01b7fffffffff0000000000000000000000000000000000000000000000000000000016602082015260028201805460409092019161182090614bc3565b80601f016020809104026020016040519081016040528092919081815260200182805461184c90614bc3565b80156118975780601f1061186e57610100808354040283529160200191611897565b820191905f5260205f20905b81548152906001019060200180831161187a57829003601f168201915b505050505081526020016003820180546118b090614bc3565b80601f01602080910402602001604051908101604052809291908181526020018280546118dc90614bc3565b80156119275780601f106118fe57610100808354040283529160200191611927565b820191905f5260205f20905b81548152906001019060200180831161190a57829003601f168201915b505050505081525050905092915050565b5f611943873361287e565b61194c876129dc565b611954612a6b565b5f888152600191909101602052604090205460ff166119d257604080518082018252601581527f506f6c69637920646f6573206e6f742065786973740000000000000000000000602082015290517f08c379a0000000000000000000000000000000000000000000000000000000008152610a3e9190600401614727565b6119dc8787612d2c565b15611a4657604080518082018252601f81527f63616c6c696e672066756e6374696f6e20616c72656164792065786973747300602082015290517f08c379a0000000000000000000000000000000000000000000000000000000008152610a3e9190600401614727565b611a51878787612d77565b611a5e8787868686612b1f565b6040517fffffffff0000000000000000000000000000000000000000000000000000000087169088907fe186f48ef756b0f5068a64ecfb81451f9b4fc2058e0ff0483fee68200d8e513e905f90a3509395945050505050565b5f611ac2863361287e565b611acb866129dc565b611adb6060860160408701614c0e565b15611b4557604080518082018252600c81527f496e76616c696420747970650000000000000000000000000000000000000000602082015290517f08c379a0000000000000000000000000000000000000000000000000000000008152610a3e9190600401614727565b6006611b576040870160208801614c27565b6007811115611b6857611b68613ffa565b1480611b9457506007611b816040870160208801614c27565b6007811115611b9257611b92613ffa565b145b8015611bb057505f826005811115611bae57611bae613ffa565b145b15611c1a57604080518082018252600c81527f496e76616c696420747970650000000000000000000000000000000000000000602082015290517f08c379a0000000000000000000000000000000000000000000000000000000008152610a3e9190600401614727565b611c2b611c2686614c40565b612ec7565b5f611c3587613122565b9050611c42878288613154565b611c5c87828787611c5660808c018c614c4b565b89613174565b604051819088907f1ea0bdfd9680c9b8e4038e41083d7800dca81e6f55a15ce48d858ebb70693d2a905f90a39695505050505050565b60605f611c9d612cd2565b5f86815260018201602090815260408083208884529091529020549091506301000000900460ff166005816007811115611cd957611cd9613ffa565b1480611cf657506001816007811115611cf457611cf4613ffa565b145b15611d27578380519060200120604051602001611d1591815260200190565b60405160208183030381529060405293505b5f8681526002830160209081526040808320888452909152908190209051611d50908690614cac565b90815260200160405180910390208054611d6990614bc3565b80601f0160208091040260200160405190810160405280929190818152602001828054611d9590614bc3565b8015611de05780601f10611db757610100808354040283529160200191611de0565b820191905f5260205f20905b815481529060010190602001808311611dc357829003601f168201915b5050505050925050509392505050565b611dfa823361287e565b611e03826129dc565b611e0b612cd2565b5f838152600191820160209081526040808320858452909152812080547fffffffffffffffffffffffffffffffffffffffffffffffffffffffff0000000016815591611e5990830182613c73565b600282015f9055505080827ed9d817df2d853a886f2cbe7a671a676890264711abbb9d2c3ee79fb1bb653a60405160405180910390a35050565b611e9d873361287e565b611ea6876129dc565b611eb0878761339a565b611f0057604051806060016040528060228152602001614f0c602291396040517f08c379a0000000000000000000000000000000000000000000000000000000008152600401610a3e9190614727565b5f5b83811015611f6d57611f658888611f1889614c40565b888886818110611f2a57611f2a614af2565b9050602002810190611f3c9190614c4b565b888888818110611f4e57611f4e614af2565b9050602002810190611f609190614c4b565b6133c4565b600101611f02565b50604051869088907f7d0cd6a27b5d0487bca14f5b3852217db2c9951f3ad91646fe09e0c19abcef50905f90a350505050505050565b60408051606080820183525f808352602083015291810191909152611fc6612a98565b5f848152602091825260408082207fffffffff000000000000000000000000000000000000000000000000000000008087168452908452918190208151606081018352815460ff811615158252610100900460e01b90931683850152600181018054835181870281018701855281815294959294938601939283018282801561192757602002820191905f5260205f20905f905b82829054906101000a900460ff16600781111561207957612079613ffa565b81526020600192830181810494850194909303909202910180841161205a579050505050505081525050905092915050565b5f6120b68a3361287e565b6120bf8a6129dc565b886040015161212d57604080518082018252600c81527f496e76616c696420747970650000000000000000000000000000000000000000602082015290517f08c379a0000000000000000000000000000000000000000000000000000000008152610a3e9190600401614727565b60068960200151600781111561214557612145613ffa565b1480612166575060078960200151600781111561216457612164613ffa565b145b801561218257505f82600581111561218057612180613ffa565b145b156121ec57604080518082018252600c81527f496e76616c696420747970650000000000000000000000000000000000000000602082015290517f08c379a0000000000000000000000000000000000000000000000000000000008152610a3e9190600401614727565b6121f589612ec7565b84831461224857604051806060016040528060318152602001614e95603191396040517f08c379a0000000000000000000000000000000000000000000000000000000008152600401610a3e9190614727565b5f612251612cd2565b5f8c81526020919091526040902054905061226b8b613122565b905061271081106040518060400160405280601481526020017f4d617820747261636b6572732072656163686564000000000000000000000000815250906122e0576040517f08c379a0000000000000000000000000000000000000000000000000000000008152600401610a3e9190614727565b50600160408b018190528a5260a08a018190525f6122fc612cd2565b5f8d8152600182016020908152604080832086845282529091208d5181549015157fffffffffffffffffffffffffffffffffffffffffffffffffffffffffffffff00821681178355928f01519394508e93919283917fffffffffffffffffffffffffffffffffffffffffffffffffffffffffffff00ff9091167fffffffffffffffffffffffffffffffffffffffffffffffffffffffffffff0000909116176101008360078111156123af576123af613ffa565b02179055506040820151815490151562010000027fffffffffffffffffffffffffffffffffffffffffffffffffffffffffff00ffff82168117835560608401519183917fffffffffffffffffffffffffffffffffffffffffffffffffffffffff00ffffff167fffffffffffffffffffffffffffffffffffffffffffffffffffffffff0000ffff90911617630100000083600781111561245057612450613ffa565b0217905550608082015160018201906124699082614d0b565b5060a091909101516002909101555f5b878110156124c5576124bd8d848e8c8c8681811061249957612499614af2565b90506020028101906124ab9190614c4b565b8c8c88818110611f4e57611f4e614af2565b600101612479565b506124d78c838c8c8c8c8c8c8c61344e565b509a9950505050505050505050565b60605f6124f1612a98565b90505f6124fc612a6b565b5f85815260019190910160209081526040918290206002018054835181840281018401909452808452909183018282801561259557602002820191905f5260205f20905f905b82829054906101000a900460e01b7bffffffffffffffffffffffffffffffffffffffffffffffffffffffff1916815260200190600401906020826003010492830192600103820291508084116125425790505b505050505090505f815190505f8167ffffffffffffffff8111156125bb576125bb61411d565b60405190808252806020026020018201604052801561260757816020015b60408051606080820183525f8083526020830152918101919091528152602001906001900390816125d95790505b5090505f805b838110156127b4575f888152602087905260408120865190919087908490811061263957612639614af2565b6020908102919091018101517fffffffff000000000000000000000000000000000000000000000000000000001682528101919091526040015f205460ff16156127ac575f88815260208790526040812086519091908790849081106126a1576126a1614af2565b6020908102919091018101517fffffffff0000000000000000000000000000000000000000000000000000000090811683528282019390935260409182015f208251606081018452815460ff811615158252610100900460e01b909416848301526001810180548451818502810185018652818152929486019383018282801561277757602002820191905f5260205f20905f905b82829054906101000a900460ff16600781111561275557612755613ffa565b8152602060019283018181049485019490930390920291018084116127365790505b50505050508152505083838151811061279257612792614af2565b602002602001018190525081806127a890614b4c565b9250505b60010161260d565b50909695505050505050565b6127ca833361287e565b6127d3836129dc565b6127dd838361339a565b61282d57604051806060016040528060228152602001614f0c602291396040517f08c379a0000000000000000000000000000000000000000000000000000000008152600401610a3e9190614727565b5f612836612cd2565b905061284c81858561284786614c40565b61365c565b604051839085907f7d0cd6a27b5d0487bca14f5b3852217db2c9951f3ad91646fe09e0c19abcef50905f90a350505050565b6040516024810183905273ffffffffffffffffffffffffffffffffffffffff821660448201525f90819061294c907f901cee110000000000000000000000000000000000000000000000000000000090606401604080517fffffffffffffffffffffffffffffffffffffffffffffffffffffffffffffffe08184030181529190526020810180517bffffffffffffffffffffffffffffffffffffffffffffffffffffffff167f901cee11000000000000000000000000000000000000000000000000000000001790526138e9565b915091505f82156129d557600482511061296b5750602081015161296e565b505f5b806129d5576040517f08c379a000000000000000000000000000000000000000000000000000000000815260206004820152601860248201527f4e6f7420417574686f72697a656420546f20506f6c69637900000000000000006044820152606401610a3e565b5050505050565b6129e4612a6b565b5f8281526001919091016020526040902060030154610100900460ff1615612a68576040517f08c379a000000000000000000000000000000000000000000000000000000000815260206004820152601f60248201527f4e6f7420616c6c6f77656420666f722063656d656e74656420706f6c696379006044820152606401610a3e565b50565b5f80610e0f60017ff9dbd639dd2ea165d77dd4c51dec420100d51ceacf023b1c40faa045ba8f9a65614b83565b5f80610e0f60017fdc82e9666de28bef254c770aa394fdb200d98373b70390c27adec32819f8f266614b83565b5f80610e0f60017f5c91f63a4ffcbd372b8ec622fd1fcaaa601b66330afdb30e5c292dd9123f20b0614b83565b5f80610e0f60017fc6d0732f7ed4c7ec3d1a6580f5e91e95dcc3d159872b5f4e9d9b8e65d3b720f2614b83565b6040805160208082019092525f90528351908401207f3a2db9fe7908dcc36d81824d2338fc3f1aff49ac357dd8c4840527fba27a5b9001612bbf57604080518082018252601081527f4e616d6520697320726571756972656400000000000000000000000000000000602082015290517f08c379a0000000000000000000000000000000000000000000000000000000008152610a3e9190600401614727565b5f612bc8612cff565b5f878152602082815260408083207fffffffff000000000000000000000000000000000000000000000000000000008a1684529091529020909150612c0d8582614d0b565b505f868152602082815260408083207fffffffff000000000000000000000000000000000000000000000000000000008916845290915290206001810180547fffffffffffffffffffffffffffffffffffffffffffffffffffffffff000000001660e088901c179055600201612c838482614d0b565b505f868152602082815260408083207fffffffff00000000000000000000000000000000000000000000000000000000891684529091529020600301612cc98382614d0b565b50505050505050565b5f80610e0f60017f438102ff677bc3f21830c58117a05d6b953b31e3ea339da3f17957cd3941a690614b83565b5f80610e0f60017fb88f46389dea4b934f6c24412aa4a67e6afeeee9cd7e06827b5b8f09c0e7d7ea614b83565b5f612d35612a98565b5f938452602090815260408085207fffffffff000000000000000000000000000000000000000000000000000000009490941685529290525090205460ff1690565b60408051602081019091525f90527fffffffff0000000000000000000000000000000000000000000000000000000082167fc5d246010000000000000000000000000000000000000000000000000000000003612e3357604080518082018252601e81527f46756e6374696f6e207369676e61747572652069732072657175697265640000602082015290517f08c379a0000000000000000000000000000000000000000000000000000000008152610a3e9190600401614727565b612e3c816139aa565b5f612e45612a98565b5f858152602082815260408083207fffffffff00000000000000000000000000000000000000000000000000000000881684528252909120805460017fffffffffffffffffffffffffffffffffffffffffffffffffffffff000000000090911661010060e089901c02178117825585519394506129d593910191850190613caa565b600181602001516007811115612edf57612edf613ffa565b1480612f005750600281602001516007811115612efe57612efe613ffa565b145b80612f205750600381602001516007811115612f1e57612f1e613ffa565b145b80612f405750600581602001516007811115612f3e57612f3e613ffa565b145b80612f5f57505f81602001516007811115612f5d57612f5d613ffa565b145b80612f7f5750600681602001516007811115612f7d57612f7d613ffa565b145b80612f9f5750600781602001516007811115612f9d57612f9d613ffa565b145b6040518060400160405280600c81526020017f496e76616c6964207479706500000000000000000000000000000000000000008152509061300d576040517f08c379a0000000000000000000000000000000000000000000000000000000008152600401610a3e9190614727565b50806040015115612a685760018160600151600781111561303057613030613ffa565b1480613051575060028160600151600781111561304f5761304f613ffa565b145b80613071575060038160600151600781111561306f5761306f613ffa565b145b80613091575060058160600151600781111561308f5761308f613ffa565b145b806130b057505f816060015160078111156130ae576130ae613ffa565b145b6040518060400160405280601881526020017f496e76616c696420747261636b6572206b6579207479706500000000000000008152509061311e576040517f08c379a0000000000000000000000000000000000000000000000000000000008152600401610a3e9190614727565b5050565b5f5f61312c612cd2565b5f84815260208290526040812080549293509161314890614b4c565b91829055509392505050565b5f61315d612cd2565b905061316e81858561284786614c40565b50505050565b604080516020810182525f9052517fc5d2460186f7233c927e7db2dcc703c0e500b653ca82273b7bfad8045d85a470906131b19087908790614e22565b604051809103902014156040518060400160405280601081526020017f4e616d652069732072657175697265640000000000000000000000000000000081525090613229576040517f08c379a0000000000000000000000000000000000000000000000000000000008152600401610a3e9190614727565b50613232613c35565b85858080601f0160208091040260200160405190810160405280939291908181526020018383808284375f92019190915250505090825250604080516020601f86018190048102820181019092528481529085908590819084018382808284375f920191909152505050506020820152608081018260058111156132b8576132b8613ffa565b908160058111156132cb576132cb613ffa565b905250806132d7612af2565b5f8a8152602091825260408082208b835290925220815181906132fa9082614d0b565b506020820151600182019061330f9082614d0b565b506040820151805161332b916002840191602090910190613d59565b5060608201518051613347916003840191602090910190613d59565b5060808201516004820180547fffffffffffffffffffffffffffffffffffffffffffffffffffffffffffffff0016600183600581111561338957613389613ffa565b021790555050505050505050505050565b5f6133a3612cd2565b5f938452600101602090815260408085209385529290525090205460ff1690565b5f6133cd612cd2565b90506134448189898989898080601f0160208091040260200160405190810160405280939291908181526020018383808284375f9201919091525050604080516020601f8d018190048102820181019092528b815292508b91508a90819084018382808284375f92019190915250613a5d92505050565b5050505050505050565b604080516020810182525f9052517fc5d2460186f7233c927e7db2dcc703c0e500b653ca82273b7bfad8045d85a4709061348b9089908990614e22565b604051809103902014156040518060400160405280601081526020017f4e616d652069732072657175697265640000000000000000000000000000000081525090613503576040517f08c379a0000000000000000000000000000000000000000000000000000000008152600401610a3e9190614727565b5061350c613c35565b87878080601f0160208091040260200160405190810160405280939291908181526020018383808284375f9201919091525050509082525061354e8587614e31565b604082015261355d8385614e31565b60608201526080810182600581111561357857613578613ffa565b9081600581111561358b5761358b613ffa565b90525080613597612af2565b5f8c8152602091825260408082208d835290925220815181906135ba9082614d0b565b50602082015160018201906135cf9082614d0b565b50604082015180516135eb916002840191602090910190613d59565b5060608201518051613607916003840191602090910190613d59565b5060808201516004820180547fffffffffffffffffffffffffffffffffffffffffffffffffffffffffffffff0016600183600581111561364957613649613ffa565b0217905550505050505050505050505050565b60408051808201909152601481527f4d617820747261636b6572732072656163686564000000000000000000000000602082015261271083106136cc576040517f08c379a0000000000000000000000000000000000000000000000000000000008152600401610a3e9190614727565b5060018082525f604083015260a08201839052816020015160078111156136f5576136f5613ffa565b1480613716575060058160200151600781111561371457613714613ffa565b145b1561376d5760808101518051602091820120604051613739920190815260200190565b604080517fffffffffffffffffffffffffffffffffffffffffffffffffffffffffffffffe081840301815291905260808201525b5f83815260018501602090815260408083208584528252909120825181549015157fffffffffffffffffffffffffffffffffffffffffffffffffffffffffffffff00821681178355928401518493909183917fffffffffffffffffffffffffffffffffffffffffffffffffffffffffffff00ff167fffffffffffffffffffffffffffffffffffffffffffffffffffffffffffff00009091161761010083600781111561381b5761381b613ffa565b02179055506040820151815490151562010000027fffffffffffffffffffffffffffffffffffffffffffffffffffffffffff00ffff82168117835560608401519183917fffffffffffffffffffffffffffffffffffffffffffffffffffffffff00ffffff167fffffffffffffffffffffffffffffffffffffffffffffffffffffffff0000ffff9091161763010000008360078111156138bc576138bc613ffa565b0217905550608082015160018201906138d59082614d0b565b5060a0820151816002015590505050505050565b5f60605f6138f5613b77565b7fffffffff0000000000000000000000000000000000000000000000000000000086165f908152602082905260409081902054905191925073ffffffffffffffffffffffffffffffffffffffff16908190613951908790614cac565b5f60405180830381855af49150503d805f8114613989576040519150601f19603f3d011682016040523d82523d5f602084013e61398e565b606091505b509094509250836139a157825160208401fd5b50509250929050565b5f5b815181101561311e57600860ff168282815181106139cc576139cc614af2565b602002602001015160078111156139e5576139e5613ffa565b106040518060400160405280600c81526020017f496e76616c69642074797065000000000000000000000000000000000000000081525090613a54576040517f08c379a0000000000000000000000000000000000000000000000000000000008152600401610a3e9190614727565b506001016139ac565b600583606001516007811115613a7557613a75613ffa565b1480613a965750600183606001516007811115613a9457613a94613ffa565b145b15613ac7578180519060200120604051602001613ab591815260200190565b60405160208183030381529060405291505b600183602001516007811115613adf57613adf613ffa565b1480613b005750600583602001516007811115613afe57613afe613ffa565b145b15613b31578080519060200120604051602001613b1f91815260200190565b60405160208183030381529060405290505b5f8581526002870160209081526040808320878452909152908190209051829190613b5d908590614cac565b90815260200160405180910390209081612cc99190614d0b565b5f80610e0f60017fbe498a3b14fd79a48c3c9af86ff14271ed497d09071013334028d28e7791db20614b83565b5080545f8255601f0160209004905f5260205f2090810190612a689190613da9565b5080545f8255905f5260205f2090810190612a689190613da9565b5080545f8255905f5260205f2090810190612a689190613dbd565b5080545f8255905f5260205f2090810190612a689190613dd9565b5080545f8255600602905f5260205f2090810190612a689190613e10565b6040518060a00160405280606081526020016060815260200160608152602001606081526020015f6005811115613c6e57613c6e613ffa565b905290565b508054613c7f90614bc3565b5f825580601f10613c8e575050565b601f0160209004905f5260205f2090810190612a689190613da9565b828054828255905f5260205f2090601f01602090048101928215613d49579160200282015f5b83821115613d1b57835183826101000a81548160ff02191690836007811115613cfb57613cfb613ffa565b021790555092602001926001016020815f01049283019260010302613cd0565b8015613d475782816101000a81549060ff02191690556001016020815f01049283019260010302613d1b565b505b50613d55929150613da9565b5090565b828054828255905f5260205f20908101928215613d9d579160200282015b82811115613d9d5782518290613d8d9082614d0b565b5091602001919060010190613d77565b50613d55929150613dbd565b5b80821115613d55575f8155600101613daa565b80821115613d55575f613dd08282613c73565b50600101613dbd565b5b80821115613d555780547fffffffffffffffffffffffffffff000000000000000000000000000000000000168155600101613dda565b80821115613d555780547fffffffffffffffffffffffffffffffffffffffffffffffffffffffff000000001681555f613e4c6001830182613c73565b600282015f9055600382015f613e629190613c73565b613e6f600483015f613bc6565b505f6005820155600601613e10565b80357fffffffff0000000000000000000000000000000000000000000000000000000081168114613ead575f5ffd5b919050565b5f5f60408385031215613ec3575f5ffd5b82359150613ed360208401613e7e565b90509250929050565b5f5f60408385031215613eed575f5ffd5b82359150602083013573ffffffffffffffffffffffffffffffffffffffff81168114613f17575f5ffd5b809150509250929050565b5f5f60408385031215613f33575f5ffd5b50508035926020909101359150565b5f81518084528060208401602086015e5f6020828601015260207fffffffffffffffffffffffffffffffffffffffffffffffffffffffffffffffe0601f83011685010191505092915050565b5f82825180855260208501945060208160051b830101602085015f5b838110156127b4577fffffffffffffffffffffffffffffffffffffffffffffffffffffffffffffffe0858403018852613fe4838351613f42565b6020988901989093509190910190600101613faa565b7f4e487b71000000000000000000000000000000000000000000000000000000005f52602160045260245ffd5b602081525f825160a0602084015261404260c0840182613f42565b905060208401517fffffffffffffffffffffffffffffffffffffffffffffffffffffffffffffffe084830301604085015261407d8282613f42565b91505060408401517fffffffffffffffffffffffffffffffffffffffffffffffffffffffffffffffe08483030160608501526140b98282613f8e565b91505060608401517fffffffffffffffffffffffffffffffffffffffffffffffffffffffffffffffe08483030160808501526140f58282613f8e565b91505060808401516006811061410d5761410d613ffa565b60a0939093019290925250919050565b7f4e487b71000000000000000000000000000000000000000000000000000000005f52604160045260245ffd5b60405160c0810167ffffffffffffffff8111828210171561416d5761416d61411d565b60405290565b604051601f82017fffffffffffffffffffffffffffffffffffffffffffffffffffffffffffffffe016810167ffffffffffffffff811182821017156141ba576141ba61411d565b604052919050565b5f67ffffffffffffffff8211156141db576141db61411d565b5060051b60200190565b803560088110613ead575f5ffd5b5f82601f830112614202575f5ffd5b8135614215614210826141c2565b614173565b8082825260208201915060208360051b860101925085831115614236575f5ffd5b602085015b8381101561425a5761424c816141e5565b83526020928301920161423b565b5095945050505050565b5f82601f830112614273575f5ffd5b8135602083015f5f67ffffffffffffffff8411156142935761429361411d565b50601f83017fffffffffffffffffffffffffffffffffffffffffffffffffffffffffffffffe0166020016142c681614173565b9150508281528583830111156142da575f5ffd5b828260208301375f92810160200192909252509392505050565b5f5f5f5f5f5f60c08789031215614309575f5ffd5b8635955061431960208801613e7e565b9450604087013567ffffffffffffffff811115614334575f5ffd5b61434089828a016141f3565b945050606087013567ffffffffffffffff81111561435c575f5ffd5b61436889828a01614264565b935050608087013567ffffffffffffffff811115614384575f5ffd5b61439089828a01614264565b92505060a087013567ffffffffffffffff8111156143ac575f5ffd5b6143b889828a01614264565b9150509295509295509295565b5f602082840312156143d5575f5ffd5b5035919050565b600881106143ec576143ec613ffa565b9052565b8051151582525f602082015161440960208501826143dc565b50604082015115156040840152606082015161442860608501826143dc565b50608082015160c0608085015261444260c0850182613f42565b60a093840151949093019390935250919050565b5f602082016020835280845180835260408501915060408160051b8601019250602086015f5b828110156144cb577fffffffffffffffffffffffffffffffffffffffffffffffffffffffffffffffc08786030184526144b68583516143f0565b9450602093840193919091019060010161447c565b50929695505050505050565b602080825282518282018190525f918401906040840190835b818110156113b15783518352602093840193909201916001016144f0565b602081525f61452060208301846143f0565b9392505050565b602081525f82516080602084015261454260a0840182613f42565b90507fffffffff00000000000000000000000000000000000000000000000000000000602085015116604084015260408401517fffffffffffffffffffffffffffffffffffffffffffffffffffffffffffffffe08483030160608501526145a98282613f42565b91505060608401517fffffffffffffffffffffffffffffffffffffffffffffffffffffffffffffffe08483030160808501526145e58282613f42565b95945050505050565b5f60c082840312156145fe575f5ffd5b50919050565b5f5f83601f840112614614575f5ffd5b50813567ffffffffffffffff81111561462b575f5ffd5b602083019150836020828501011115614642575f5ffd5b9250929050565b803560068110613ead575f5ffd5b5f5f5f5f5f6080868803121561466b575f5ffd5b85359450602086013567ffffffffffffffff811115614688575f5ffd5b614694888289016145ee565b945050604086013567ffffffffffffffff8111156146b0575f5ffd5b6146bc88828901614604565b90945092506146cf905060608701614649565b90509295509295909350565b5f5f5f606084860312156146ed575f5ffd5b8335925060208401359150604084013567ffffffffffffffff811115614711575f5ffd5b61471d86828701614264565b9150509250925092565b602081525f6145206020830184613f42565b5f5f83601f840112614749575f5ffd5b50813567ffffffffffffffff811115614760575f5ffd5b6020830191508360208260051b8501011115614642575f5ffd5b5f5f5f5f5f5f5f60a0888a031215614790575f5ffd5b8735965060208801359550604088013567ffffffffffffffff8111156147b4575f5ffd5b6147c08a828b016145ee565b955050606088013567ffffffffffffffff8111156147dc575f5ffd5b6147e88a828b01614739565b909550935050608088013567ffffffffffffffff811115614807575f5ffd5b6148138a828b01614739565b989b979a50959850939692959293505050565b8051151582526020808201517fffffffff000000000000000000000000000000000000000000000000000000001681840152604080830151606091850182905280519185018290525f920190829060808601905b8083101561425a5761488d8285516143dc565b60208201915060208401935060018301925061487a565b602081525f6145206020830184614826565b80358015158114613ead575f5ffd5b5f60c082840312156148d5575f5ffd5b6148dd61414a565b90506148e8826148b6565b81526148f6602083016141e5565b6020820152614907604083016148b6565b6040820152614918606083016141e5565b6060820152608082013567ffffffffffffffff811115614936575f5ffd5b61494284828501614264565b60808301525060a09182013591810191909152919050565b5f5f5f5f5f5f5f5f5f60c08a8c031215614972575f5ffd5b8935985060208a013567ffffffffffffffff81111561498f575f5ffd5b61499b8c828d016148c5565b98505060408a013567ffffffffffffffff8111156149b7575f5ffd5b6149c38c828d01614604565b90985096505060608a013567ffffffffffffffff8111156149e2575f5ffd5b6149ee8c828d01614739565b90965094505060808a013567ffffffffffffffff811115614a0d575f5ffd5b614a198c828d01614739565b9094509250614a2c905060a08b01614649565b90509295985092959850929598565b5f602082016020835280845180835260408501915060408160051b8601019250602086015f5b828110156144cb577fffffffffffffffffffffffffffffffffffffffffffffffffffffffffffffffc0878603018452614a9b858351614826565b94506020938401939190910190600101614a61565b5f5f5f60608486031215614ac2575f5ffd5b8335925060208401359150604084013567ffffffffffffffff811115614ae6575f5ffd5b61471d868287016145ee565b7f4e487b71000000000000000000000000000000000000000000000000000000005f52603260045260245ffd5b7f4e487b71000000000000000000000000000000000000000000000000000000005f52601160045260245ffd5b5f7fffffffffffffffffffffffffffffffffffffffffffffffffffffffffffffffff8203614b7c57614b7c614b1f565b5060010190565b81810381811115610e0f57610e0f614b1f565b7f4e487b71000000000000000000000000000000000000000000000000000000005f52603160045260245ffd5b600181811c90821680614bd757607f821691505b6020821081036145fe577f4e487b71000000000000000000000000000000000000000000000000000000005f52602260045260245ffd5b5f60208284031215614c1e575f5ffd5b614520826148b6565b5f60208284031215614c37575f5ffd5b614520826141e5565b5f610e0f36836148c5565b5f5f83357fffffffffffffffffffffffffffffffffffffffffffffffffffffffffffffffe1843603018112614c7e575f5ffd5b83018035915067ffffffffffffffff821115614c98575f5ffd5b602001915036819003821315614642575f5ffd5b5f82518060208501845e5f920191825250919050565b601f821115614d0657805f5260205f20601f840160051c81016020851015614ce75750805b601f840160051c820191505b818110156129d5575f8155600101614cf3565b505050565b815167ffffffffffffffff811115614d2557614d2561411d565b614d3981614d338454614bc3565b84614cc2565b6020601f821160018114614d8a575f8315614d545750848201515b7fffffffffffffffffffffffffffffffffffffffffffffffffffffffffffffffff600385901b1c1916600184901b1784556129d5565b5f848152602081207fffffffffffffffffffffffffffffffffffffffffffffffffffffffffffffffe08516915b82811015614dd75787850151825560209485019460019092019101614db7565b5084821015614e1357868401517fffffffffffffffffffffffffffffffffffffffffffffffffffffffffffffffff600387901b60f8161c191681555b50505050600190811b01905550565b818382375f9101908152919050565b5f614e3e614210846141c2565b8381526020810190600585901b840136811115614e59575f5ffd5b845b818110156113b157803567ffffffffffffffff811115614e79575f5ffd5b614e8536828901614264565b85525060209384019301614e5b56fe547261636b6572206b65797320616e642076616c756573206d7573742068617665207468652073616d65206c656e6774684e657720706172616d65746572207479706573206d757374206265206f662067726561746572206f7220657175616c206c656e67746820746f20746865206f726967696e616c547261636b6572207265666572656e63656420696e2072756c65206e6f74207365744e657720706172616d65746572207479706573206d757374206265206f66207468652073616d65207479706520617320746865206f726967696e616ca2646970667358221220a85558148c524dca887999ceebac23c6b91f970305f40185b233c43e1c64f6b664736f6c634300081c0033","linkReferences":{}},"methodIdentifiers":{"addClosedPolicySubscriber(uint256,address)":"2711fe6b","createCallingFunction(uint256,bytes4,uint8[],string,string,string)":"948af1b6","createMappedTracker(uint256,(bool,uint8,bool,uint8,bytes,uint256),string,bytes[],bytes[],uint8)":"f1073d99","createTracker(uint256,(bool,uint8,bool,uint8,bytes,uint256),string,uint8)":"965d884c","deleteCallingFunction(uint256,bytes4)":"05be2787","deleteTracker(uint256,uint256)":"a82c9e07","getAllCallingFunctions(uint256)":"f3e7dfc3","getAllTrackers(uint256)":"56f3b05f","getCallingFunction(uint256,bytes4)":"d28b84c5","getCallingFunctionMetadata(uint256,bytes4)":"7b7fe810","getMappedTrackerValue(uint256,uint256,bytes)":"9f9fa719","getTracker(uint256,uint256)":"72a340d7","getTrackerMetadata(uint256,uint256)":"3bf07314","getTrackerToRuleIds(uint256,uint256)":"6355ed0b","isClosedPolicySubscriber(uint256,address)":"4c957ad9","removeClosedPolicySubscriber(uint256,address)":"7374c994","updateCallingFunction(uint256,bytes4,uint8[],string,string,string)":"3ff1c8d0","updateTracker(uint256,uint256,(bool,uint8,bool,uint8,bytes,uint256))":"febf8f92","updateTracker(uint256,uint256,(bool,uint8,bool,uint8,bytes,uint256),bytes[],bytes[])":"b4d19449"},"id":90}