{"abi":[{"type":"function","name":"createRule","inputs":[{"name":"policyId","type":"uint256","internalType":"uint256"},{"name":"rule","type":"tuple","internalType":"struct Rule","components":[{"name":"instructionSet","type":"uint256[]","internalType":"uint256[]"},{"name":"rawData","type":"tuple","internalType":"struct RawData","components":[{"name":"instructionSetIndex","type":"uint256[]","internalType":"uint256[]"},{"name":"argumentTypes","type":"uint8[]","internalType":"enum ParamTypes[]"},{"name":"dataValues","type":"bytes[]","internalType":"bytes[]"}]},{"name":"placeHolders","type":"tuple[]","internalType":"struct Placeholder[]","components":[{"name":"pType","type":"uint8","internalType":"enum ParamTypes"},{"name":"typeSpecificIndex","type":"uint128","internalType":"uint128"},{"name":"flags","type":"uint8","internalType":"uint8"}]},{"name":"effectPlaceHolders","type":"tuple[]","internalType":"struct Placeholder[]","components":[{"name":"pType","type":"uint8","internalType":"enum ParamTypes"},{"name":"typeSpecificIndex","type":"uint128","internalType":"uint128"},{"name":"flags","type":"uint8","internalType":"uint8"}]},{"name":"posEffects","type":"tuple[]","internalType":"struct Effect[]","components":[{"name":"valid","type":"bool","internalType":"bool"},{"name":"dynamicParam","type":"bool","internalType":"bool"},{"name":"effectType","type":"uint8","internalType":"enum EffectTypes"},{"name":"pType","type":"uint8","internalType":"enum ParamTypes"},{"name":"param","type":"bytes","internalType":"bytes"},{"name":"text","type":"bytes32","internalType":"bytes32"},{"name":"errorMessage","type":"string","internalType":"string"},{"name":"instructionSet","type":"uint256[]","internalType":"uint256[]"}]},{"name":"negEffects","type":"tuple[]","internalType":"struct Effect[]","components":[{"name":"valid","type":"bool","internalType":"bool"},{"name":"dynamicParam","type":"bool","internalType":"bool"},{"name":"effectType","type":"uint8","internalType":"enum EffectTypes"},{"name":"pType","type":"uint8","internalType":"enum ParamTypes"},{"name":"param","type":"bytes","internalType":"bytes"},{"name":"text","type":"bytes32","internalType":"bytes32"},{"name":"errorMessage","type":"string","internalType":"string"},{"name":"instructionSet","type":"uint256[]","internalType":"uint256[]"}]}]},{"name":"ruleName","type":"string","internalType":"string"},{"name":"ruleDescription","type":"string","internalType":"string"}],"outputs":[{"name":"","type":"uint256","internalType":"uint256"}],"stateMutability":"nonpayable"},{"type":"function","name":"deleteRule","inputs":[{"name":"policyId","type":"uint256","internalType":"uint256"},{"name":"ruleId","type":"uint256","internalType":"uint256"}],"outputs":[],"stateMutability":"nonpayable"},{"type":"function","name":"getAllRules","inputs":[{"name":"policyId","type":"uint256","internalType":"uint256"}],"outputs":[{"name":"","type":"tuple[][]","internalType":"struct Rule[][]","components":[{"name":"instructionSet","type":"uint256[]","internalType":"uint256[]"},{"name":"rawData","type":"tuple","internalType":"struct RawData","components":[{"name":"instructionSetIndex","type":"uint256[]","internalType":"uint256[]"},{"name":"argumentTypes","type":"uint8[]","internalType":"enum ParamTypes[]"},{"name":"dataValues","type":"bytes[]","internalType":"bytes[]"}]},{"name":"placeHolders","type":"tuple[]","internalType":"struct Placeholder[]","components":[{"name":"pType","type":"uint8","internalType":"enum ParamTypes"},{"name":"typeSpecificIndex","type":"uint128","internalType":"uint128"},{"name":"flags","type":"uint8","internalType":"uint8"}]},{"name":"effectPlaceHolders","type":"tuple[]","internalType":"struct Placeholder[]","components":[{"name":"pType","type":"uint8","internalType":"enum ParamTypes"},{"name":"typeSpecificIndex","type":"uint128","internalType":"uint128"},{"name":"flags","type":"uint8","internalType":"uint8"}]},{"name":"posEffects","type":"tuple[]","internalType":"struct Effect[]","components":[{"name":"valid","type":"bool","internalType":"bool"},{"name":"dynamicParam","type":"bool","internalType":"bool"},{"name":"effectType","type":"uint8","internalType":"enum EffectTypes"},{"name":"pType","type":"uint8","internalType":"enum ParamTypes"},{"name":"param","type":"bytes","internalType":"bytes"},{"name":"text","type":"bytes32","internalType":"bytes32"},{"name":"errorMessage","type":"string","internalType":"string"},{"name":"instructionSet","type":"uint256[]","internalType":"uint256[]"}]},{"name":"negEffects","type":"tuple[]","internalType":"struct Effect[]","components":[{"name":"valid","type":"bool","internalType":"bool"},{"name":"dynamicParam","type":"bool","internalType":"bool"},{"name":"effectType","type":"uint8","internalType":"enum EffectTypes"},{"name":"pType","type":"uint8","internalType":"enum ParamTypes"},{"name":"param","type":"bytes","internalType":"bytes"},{"name":"text","type":"bytes32","internalType":"bytes32"},{"name":"errorMessage","type":"string","internalType":"string"},{"name":"instructionSet","type":"uint256[]","internalType":"uint256[]"}]}]}],"stateMutability":"view"},{"type":"function","name":"getMemorySize","inputs":[],"outputs":[{"name":"","type":"uint256","internalType":"uint256"}],"stateMutability":"pure"},{"type":"function","name":"getOpsSize1","inputs":[],"outputs":[{"name":"","type":"uint256","internalType":"uint256"}],"stateMutability":"pure"},{"type":"function","name":"getOpsSizeUpTo2","inputs":[],"outputs":[{"name":"","type":"uint256","internalType":"uint256"}],"stateMutability":"pure"},{"type":"function","name":"getOpsSizeUpTo3","inputs":[],"outputs":[{"name":"","type":"uint256","internalType":"uint256"}],"stateMutability":"pure"},{"type":"function","name":"getOpsTotalSize","inputs":[],"outputs":[{"name":"","type":"uint256","internalType":"uint256"}],"stateMutability":"pure"},{"type":"function","name":"getRule","inputs":[{"name":"policyId","type":"uint256","internalType":"uint256"},{"name":"ruleId","type":"uint256","internalType":"uint256"}],"outputs":[{"name":"","type":"tuple","internalType":"struct RuleStorageSet","components":[{"name":"set","type":"bool","internalType":"bool"},{"name":"rule","type":"tuple","internalType":"struct Rule","components":[{"name":"instructionSet","type":"uint256[]","internalType":"uint256[]"},{"name":"rawData","type":"tuple","internalType":"struct RawData","components":[{"name":"instructionSetIndex","type":"uint256[]","internalType":"uint256[]"},{"name":"argumentTypes","type":"uint8[]","internalType":"enum ParamTypes[]"},{"name":"dataValues","type":"bytes[]","internalType":"bytes[]"}]},{"name":"placeHolders","type":"tuple[]","internalType":"struct Placeholder[]","components":[{"name":"pType","type":"uint8","internalType":"enum ParamTypes"},{"name":"typeSpecificIndex","type":"uint128","internalType":"uint128"},{"name":"flags","type":"uint8","internalType":"uint8"}]},{"name":"effectPlaceHolders","type":"tuple[]","internalType":"struct Placeholder[]","components":[{"name":"pType","type":"uint8","internalType":"enum ParamTypes"},{"name":"typeSpecificIndex","type":"uint128","internalType":"uint128"},{"name":"flags","type":"uint8","internalType":"uint8"}]},{"name":"posEffects","type":"tuple[]","internalType":"struct Effect[]","components":[{"name":"valid","type":"bool","internalType":"bool"},{"name":"dynamicParam","type":"bool","internalType":"bool"},{"name":"effectType","type":"uint8","internalType":"enum EffectTypes"},{"name":"pType","type":"uint8","internalType":"enum ParamTypes"},{"name":"param","type":"bytes","internalType":"bytes"},{"name":"text","type":"bytes32","internalType":"bytes32"},{"name":"errorMessage","type":"string","internalType":"string"},{"name":"instructionSet","type":"uint256[]","internalType":"uint256[]"}]},{"name":"negEffects","type":"tuple[]","internalType":"struct Effect[]","components":[{"name":"valid","type":"bool","internalType":"bool"},{"name":"dynamicParam","type":"bool","internalType":"bool"},{"name":"effectType","type":"uint8","internalType":"enum EffectTypes"},{"name":"pType","type":"uint8","internalType":"enum ParamTypes"},{"name":"param","type":"bytes","internalType":"bytes"},{"name":"text","type":"bytes32","internalType":"bytes32"},{"name":"errorMessage","type":"string","internalType":"string"},{"name":"instructionSet","type":"uint256[]","internalType":"uint256[]"}]}]}]}],"stateMutability":"view"},{"type":"function","name":"getRuleMetadata","inputs":[{"name":"policyId","type":"uint256","internalType":"uint256"},{"name":"ruleId","type":"uint256","internalType":"uint256"}],"outputs":[{"name":"","type":"tuple","internalType":"struct RuleMetadata","components":[{"name":"ruleName","type":"string","internalType":"string"},{"name":"ruleDescription","type":"string","internalType":"string"}]}],"stateMutability":"view"},{"type":"function","name":"updateRule","inputs":[{"name":"policyId","type":"uint256","internalType":"uint256"},{"name":"ruleId","type":"uint256","internalType":"uint256"},{"name":"rule","type":"tuple","internalType":"struct Rule","components":[{"name":"instructionSet","type":"uint256[]","internalType":"uint256[]"},{"name":"rawData","type":"tuple","internalType":"struct RawData","components":[{"name":"instructionSetIndex","type":"uint256[]","internalType":"uint256[]"},{"name":"argumentTypes","type":"uint8[]","internalType":"enum ParamTypes[]"},{"name":"dataValues","type":"bytes[]","internalType":"bytes[]"}]},{"name":"placeHolders","type":"tuple[]","internalType":"struct Placeholder[]","components":[{"name":"pType","type":"uint8","internalType":"enum ParamTypes"},{"name":"typeSpecificIndex","type":"uint128","internalType":"uint128"},{"name":"flags","type":"uint8","internalType":"uint8"}]},{"name":"effectPlaceHolders","type":"tuple[]","internalType":"struct Placeholder[]","components":[{"name":"pType","type":"uint8","internalType":"enum ParamTypes"},{"name":"typeSpecificIndex","type":"uint128","internalType":"uint128"},{"name":"flags","type":"uint8","internalType":"uint8"}]},{"name":"posEffects","type":"tuple[]","internalType":"struct Effect[]","components":[{"name":"valid","type":"bool","internalType":"bool"},{"name":"dynamicParam","type":"bool","internalType":"bool"},{"name":"effectType","type":"uint8","internalType":"enum EffectTypes"},{"name":"pType","type":"uint8","internalType":"enum ParamTypes"},{"name":"param","type":"bytes","internalType":"bytes"},{"name":"text","type":"bytes32","internalType":"bytes32"},{"name":"errorMessage","type":"string","internalType":"string"},{"name":"instructionSet","type":"uint256[]","internalType":"uint256[]"}]},{"name":"negEffects","type":"tuple[]","internalType":"struct Effect[]","components":[{"name":"valid","type":"bool","internalType":"bool"},{"name":"dynamicParam","type":"bool","internalType":"bool"},{"name":"effectType","type":"uint8","internalType":"enum EffectTypes"},{"name":"pType","type":"uint8","internalType":"enum ParamTypes"},{"name":"param","type":"bytes","internalType":"bytes"},{"name":"text","type":"bytes32","internalType":"bytes32"},{"name":"errorMessage","type":"string","internalType":"string"},{"name":"instructionSet","type":"uint256[]","internalType":"uint256[]"}]}]},{"name":"ruleName","type":"string","internalType":"string"},{"name":"ruleDescription","type":"string","internalType":"string"}],"outputs":[{"name":"","type":"uint256","internalType":"uint256"}],"stateMutability":"nonpayable"},{"type":"event","name":"RuleCreated","inputs":[{"name":"policyId","type":"uint256","indexed":true,"internalType":"uint256"},{"name":"ruleId","type":"uint256","indexed":true,"internalType":"uint256"}],"anonymous":false},{"type":"event","name":"RuleDeleted","inputs":[{"name":"policyId","type":"uint256","indexed":true,"internalType":"uint256"},{"name":"ruleId","type":"uint256","indexed":true,"internalType":"uint256"}],"anonymous":false},{"type":"event","name":"RuleUpdated","inputs":[{"name":"policyId","type":"uint256","indexed":true,"internalType":"uint256"},{"name":"ruleId","type":"uint256","indexed":true,"internalType":"uint256"}],"anonymous":false}],"bytecode":{"object":"0x6080604052348015600e575f5ffd5b50614dd48061001c5f395ff3fe608060405234801561000f575f5ffd5b50600436106100c4575f3560e01c80636d279ef81161007d578063bef087a311610058578063bef087a314610178578063cc98aad61461017f578063d951e13414610192575f5ffd5b80636d279ef814610130578063a31c8ebb14610150578063a57dcd5e14610165575f5ffd5b806349fd266d116100ad57806349fd266d1461011157806354daa6811461012257806359c8075b14610129575f5ffd5b806312602c40146100c8578063266fc8a5146100f1575b5f5ffd5b6100db6100d636600461388b565b610199565b6040516100e891906138f7565b60405180910390f35b6101046100ff366004613956565b610358565b6040516100e89190613cd6565b60035b6040519081526020016100e8565b6011610114565b605a610114565b61014361013e36600461388b565b610f30565b6040516100e89190613dbb565b61016361015e36600461388b565b611846565b005b610114610173366004613e44565b611d30565b6012610114565b61011461018d366004613ef0565b611e67565b6013610114565b6040805180820190915260608082526020820152825f0361020957604051806060016040528060348152602001614d6b603491396040517f08c379a00000000000000000000000000000000000000000000000000000000081526004016102009190613f93565b60405180910390fd5b610211611f37565b5f84815260209182526040808220858352909252819020815180830190925280548290829061023f90613fac565b80601f016020809104026020016040519081016040528092919081815260200182805461026b90613fac565b80156102b65780601f1061028d576101008083540402835291602001916102b6565b820191905f5260205f20905b81548152906001019060200180831161029957829003601f168201915b505050505081526020016001820180546102cf90613fac565b80601f01602080910402602001604051908101604052809291908181526020018280546102fb90613fac565b80156103465780601f1061031d57610100808354040283529160200191610346565b820191905f5260205f20905b81548152906001019060200180831161032957829003601f168201915b50505050508152505090505b92915050565b6060815f036103ad57604051806060016040528060348152602001614d6b603491396040517f08c379a00000000000000000000000000000000000000000000000000000000081526004016102009190613f93565b5f6103b6611f64565b6001015f8481526020019081526020015f2060010190505f8160010180548060200260200160405190810160405280929190818152602001828054801561045b57602002820191905f5260205f20905f905b82829054906101000a900460e01b7bffffffffffffffffffffffffffffffffffffffffffffffffffffffff1916815260200190600401906020826003010492830192600103820291508084116104085790505b505050505090505f815167ffffffffffffffff81111561047d5761047d613ff7565b6040519080825280602002602001820160405280156104b057816020015b606081526020019060019003908161049b5790505b5090505f5b8251811015610f27575f845f015f8584815181106104d5576104d5614024565b60200260200101517bffffffffffffffffffffffffffffffffffffffffffffffffffffffff19167bffffffffffffffffffffffffffffffffffffffffffffffffffffffff191681526020019081526020015f2080548060200260200160405190810160405280929190818152602001828054801561057057602002820191905f5260205f20905b81548152602001906001019080831161055c575b50505050509050805167ffffffffffffffff81111561059157610591613ff7565b6040519080825280602002602001820160405280156105ca57816020015b6105b7613633565b8152602001906001900390816105af5790505b508383815181106105dd576105dd614024565b60209081029190910101525f5b8151811015610f1d576106168883838151811061060957610609614024565b6020026020010151611f91565b15610f1557610623611fbb565b6001015f8981526020019081526020015f205f83838151811061064857610648614024565b602002602001015181526020019081526020015f206001016040518060c00160405290815f82018054806020026020016040519081016040528092919081815260200182805480156106b757602002820191905f5260205f20905b8154815260200190600101908083116106a3575b50505050508152602001600182016040518060600160405290815f820180548060200260200160405190810160405280929190818152602001828054801561071c57602002820191905f5260205f20905b815481526020019060010190808311610708575b50505050508152602001600182018054806020026020016040519081016040528092919081815260200182805480156107a157602002820191905f5260205f20905f905b82829054906101000a900460ff16600781111561077f5761077f6139a7565b8152602060019283018181049485019490930390920291018084116107605790505b5050505050815260200160028201805480602002602001604051908101604052809291908181526020015f905b82821015610876578382905f5260205f200180546107eb90613fac565b80601f016020809104026020016040519081016040528092919081815260200182805461081790613fac565b80156108625780601f1061083957610100808354040283529160200191610862565b820191905f5260205f20905b81548152906001019060200180831161084557829003601f168201915b5050505050815260200190600101906107ce565b5050505081525050815260200160048201805480602002602001604051908101604052809291908181526020015f905b82821015610943575f8481526020902060408051606081019091529083018054829060ff1660078111156108dc576108dc6139a7565b60078111156108ed576108ed6139a7565b8152905461010081046fffffffffffffffffffffffffffffffff166020808401919091527101000000000000000000000000000000000090910460ff1660409092019190915290825260019290920191016108a6565b50505050815260200160058201805480602002602001604051908101604052809291908181526020015f905b82821015610a0c575f8481526020902060408051606081019091529083018054829060ff1660078111156109a5576109a56139a7565b60078111156109b6576109b66139a7565b8152905461010081046fffffffffffffffffffffffffffffffff166020808401919091527101000000000000000000000000000000000090910460ff16604090920191909152908252600192909201910161096f565b50505050815260200160068201805480602002602001604051908101604052809291908181526020015f905b82821015610c71575f84815260209081902060408051610100808201835260058702909301805460ff808216151584529481048516151595830195909552909390929184019162010000909104166002811115610a9757610a976139a7565b6002811115610aa857610aa86139a7565b815281546020909101906301000000900460ff166007811115610acd57610acd6139a7565b6007811115610ade57610ade6139a7565b8152602001600182018054610af290613fac565b80601f0160208091040260200160405190810160405280929190818152602001828054610b1e90613fac565b8015610b695780601f10610b4057610100808354040283529160200191610b69565b820191905f5260205f20905b815481529060010190602001808311610b4c57829003601f168201915b5050505050815260200160028201548152602001600382018054610b8c90613fac565b80601f0160208091040260200160405190810160405280929190818152602001828054610bb890613fac565b8015610c035780601f10610bda57610100808354040283529160200191610c03565b820191905f5260205f20905b815481529060010190602001808311610be657829003601f168201915b5050505050815260200160048201805480602002602001604051908101604052809291908181526020018280548015610c5957602002820191905f5260205f20905b815481526020019060010190808311610c45575b50505050508152505081526020019060010190610a38565b50505050815260200160078201805480602002602001604051908101604052809291908181526020015f905b82821015610ed6575f84815260209081902060408051610100808201835260058702909301805460ff808216151584529481048516151595830195909552909390929184019162010000909104166002811115610cfc57610cfc6139a7565b6002811115610d0d57610d0d6139a7565b815281546020909101906301000000900460ff166007811115610d3257610d326139a7565b6007811115610d4357610d436139a7565b8152602001600182018054610d5790613fac565b80601f0160208091040260200160405190810160405280929190818152602001828054610d8390613fac565b8015610dce5780601f10610da557610100808354040283529160200191610dce565b820191905f5260205f20905b815481529060010190602001808311610db157829003601f168201915b5050505050815260200160028201548152602001600382018054610df190613fac565b80601f0160208091040260200160405190810160405280929190818152602001828054610e1d90613fac565b8015610e685780601f10610e3f57610100808354040283529160200191610e68565b820191905f5260205f20905b815481529060010190602001808311610e4b57829003601f168201915b5050505050815260200160048201805480602002602001604051908101604052809291908181526020018280548015610ebe57602002820191905f5260205f20905b815481526020019060010190808311610eaa575b50505050508152505081526020019060010190610c9d565b5050505081525050848481518110610ef057610ef0614024565b60200260200101518281518110610f0957610f09614024565b60200260200101819052505b6001016105ea565b50506001016104b5565b50949350505050565b610f3861368b565b825f03610f8b57604051806060016040528060348152602001614d6b603491396040517f08c379a00000000000000000000000000000000000000000000000000000000081526004016102009190613f93565b610f93611fbb565b5f84815260019182016020908152604080832086845282529182902082518084018452815460ff16151581528351948201805460e08186028801810190965260c087018181529296939594870194919284929091849184018282801561101657602002820191905f5260205f20905b815481526020019060010190808311611002575b50505050508152602001600182016040518060600160405290815f820180548060200260200160405190810160405280929190818152602001828054801561107b57602002820191905f5260205f20905b815481526020019060010190808311611067575b505050505081526020016001820180548060200260200160405190810160405280929190818152602001828054801561110057602002820191905f5260205f20905f905b82829054906101000a900460ff1660078111156110de576110de6139a7565b8152602060019283018181049485019490930390920291018084116110bf5790505b5050505050815260200160028201805480602002602001604051908101604052809291908181526020015f905b828210156111d5578382905f5260205f2001805461114a90613fac565b80601f016020809104026020016040519081016040528092919081815260200182805461117690613fac565b80156111c15780601f10611198576101008083540402835291602001916111c1565b820191905f5260205f20905b8154815290600101906020018083116111a457829003601f168201915b50505050508152602001906001019061112d565b5050505081525050815260200160048201805480602002602001604051908101604052809291908181526020015f905b828210156112a2575f8481526020902060408051606081019091529083018054829060ff16600781111561123b5761123b6139a7565b600781111561124c5761124c6139a7565b8152905461010081046fffffffffffffffffffffffffffffffff166020808401919091527101000000000000000000000000000000000090910460ff166040909201919091529082526001929092019101611205565b50505050815260200160058201805480602002602001604051908101604052809291908181526020015f905b8282101561136b575f8481526020902060408051606081019091529083018054829060ff166007811115611304576113046139a7565b6007811115611315576113156139a7565b8152905461010081046fffffffffffffffffffffffffffffffff166020808401919091527101000000000000000000000000000000000090910460ff1660409092019190915290825260019290920191016112ce565b50505050815260200160068201805480602002602001604051908101604052809291908181526020015f905b828210156115d0575f84815260209081902060408051610100808201835260058702909301805460ff8082161515845294810485161515958301959095529093909291840191620100009091041660028111156113f6576113f66139a7565b6002811115611407576114076139a7565b815281546020909101906301000000900460ff16600781111561142c5761142c6139a7565b600781111561143d5761143d6139a7565b815260200160018201805461145190613fac565b80601f016020809104026020016040519081016040528092919081815260200182805461147d90613fac565b80156114c85780601f1061149f576101008083540402835291602001916114c8565b820191905f5260205f20905b8154815290600101906020018083116114ab57829003601f168201915b50505050508152602001600282015481526020016003820180546114eb90613fac565b80601f016020809104026020016040519081016040528092919081815260200182805461151790613fac565b80156115625780601f1061153957610100808354040283529160200191611562565b820191905f5260205f20905b81548152906001019060200180831161154557829003601f168201915b50505050508152602001600482018054806020026020016040519081016040528092919081815260200182805480156115b857602002820191905f5260205f20905b8154815260200190600101908083116115a4575b50505050508152505081526020019060010190611397565b50505050815260200160078201805480602002602001604051908101604052809291908181526020015f905b82821015611835575f84815260209081902060408051610100808201835260058702909301805460ff80821615158452948104851615159583019590955290939092918401916201000090910416600281111561165b5761165b6139a7565b600281111561166c5761166c6139a7565b815281546020909101906301000000900460ff166007811115611691576116916139a7565b60078111156116a2576116a26139a7565b81526020016001820180546116b690613fac565b80601f01602080910402602001604051908101604052809291908181526020018280546116e290613fac565b801561172d5780601f106117045761010080835404028352916020019161172d565b820191905f5260205f20905b81548152906001019060200180831161171057829003601f168201915b505050505081526020016002820154815260200160038201805461175090613fac565b80601f016020809104026020016040519081016040528092919081815260200182805461177c90613fac565b80156117c75780601f1061179e576101008083540402835291602001916117c7565b820191905f5260205f20905b8154815290600101906020018083116117aa57829003601f168201915b505050505081526020016004820180548060200260200160405190810160405280929190818152602001828054801561181d57602002820191905f5260205f20905b815481526020019060010190808311611809575b505050505081525050815260200190600101906115fc565b505050915250509052509392505050565b815f0361189957604051806060016040528060348152602001614d6b603491396040517f08c379a00000000000000000000000000000000000000000000000000000000081526004016102009190613f93565b6118a1611fbb565b5f8381526001919091016020908152604080832084845290915290205460ff1661192a57604080518082018252600c81527f496e76616c69642052756c650000000000000000000000000000000000000000602082015290517f08c379a00000000000000000000000000000000000000000000000000000000081526102009190600401613f93565b6119348233611fe8565b61193d82612149565b5f611946611f64565b5f8481526001919091016020908152604091829020600201805483518184028101840190945280845290918301828280156119df57602002820191905f5260205f20905f905b82829054906101000a900460e01b7bffffffffffffffffffffffffffffffffffffffffffffffffffffffff19168152602001906004019060208260030104928301926001038202915080841161198c5790505b509394505f93505050505b8151811015611c39575f6119fc611f64565b5f8681526001918201602052604081208551920191859085908110611a2357611a23614024565b60200260200101517bffffffffffffffffffffffffffffffffffffffffffffffffffffffff19167bffffffffffffffffffffffffffffffffffffffffffffffffffffffff191681526020019081526020015f20805480602002602001604051908101604052809291908181526020018280548015611abe57602002820191905f5260205f20905b815481526020019060010190808311611aaa575b505050505090505f60018251611ad4919061407e565b67ffffffffffffffff811115611aec57611aec613ff7565b604051908082528060200260200182016040528015611b15578160200160208202803683370190505b5090505f805b8351811015611b925786848281518110611b3757611b37614024565b60200260200101510315611b8a57838181518110611b5757611b57614024565b6020026020010151838381518110611b7157611b71614024565b602090810291909101015281611b8681614091565b9250505b600101611b1b565b5081611b9c611f64565b5f8981526001918201602052604081208851920191889088908110611bc357611bc3614024565b60200260200101517bffffffffffffffffffffffffffffffffffffffffffffffffffffffff19167bffffffffffffffffffffffffffffffffffffffffffffffffffffffff191681526020019081526020015f209080519060200190611c299291906136ab565b5050600190920191506119ea9050565b50611c4483836121db565b611c4c611fbb565b5f848152600191820160209081526040808320868452909152812080547fffffffffffffffffffffffffffffffffffffffffffffffffffffffffffffff0016815591820181611c9b82826136f4565b600182015f611caa82826136f4565b611cb7600183015f61370f565b611cc4600283015f613731565b50611cd49050600483015f61374c565b611ce1600583015f61374c565b611cee600683015f613767565b611cfb600783015f613767565b50506040518492508591507f371b8107ab385e638477ce677851ddf910d57c3afc1bab409674a9e251cfb020905f90a3505050565b5f875f03611d8457604051806060016040528060348152602001614d6b603491396040517f08c379a00000000000000000000000000000000000000000000000000000000081526004016102009190613f93565b611d8e8833611fe8565b611d9786612949565b611da18888611f91565b611e0a57604080518082018252600c81527f52756c65206e6f74207365740000000000000000000000000000000000000000602082015290517f08c379a00000000000000000000000000000000000000000000000000000000081526102009190600401613f93565b611e1388612149565b5f611e1c611fbb565b9050611e2e818a8a8a8a8a8a8a612b2b565b60405188908a907fe91f86fd53c89629ca0bc01d0f219a6cd6730e5252f179944d1f3c9b5def1b07905f90a35095979650505050505050565b5f865f03611ebb57604051806060016040528060348152602001614d6b603491396040517f08c379a00000000000000000000000000000000000000000000000000000000081526004016102009190613f93565b611ec58733611fe8565b611ece86612949565b611ed787612149565b5f611ee0611fbb565b90505f611eed828a612b50565b9050611eff828a838b8b8b8b8b612b2b565b60405181908a907fcadd4461b462556a5a12f6e182d719fd2bbfaaa0a6fcf6a16cf7ecf648076921905f90a398975050505050505050565b5f8061035260017fcd216e8e6f9888257c83a443dde6c2ee001ac067ce7d1a099cdea0655718c76e61407e565b5f8061035260017ff9dbd639dd2ea165d77dd4c51dec420100d51ceacf023b1c40faa045ba8f9a6561407e565b5f611f9a611fbb565b5f938452600101602090815260408085209385529290525090205460ff1690565b5f8061035260017f5c91f63a4ffcbd372b8ec622fd1fcaaa601b66330afdb30e5c292dd9123f20b061407e565b6040516024810183905273ffffffffffffffffffffffffffffffffffffffff821660448201525f9081906120b6907f901cee110000000000000000000000000000000000000000000000000000000090606401604080517fffffffffffffffffffffffffffffffffffffffffffffffffffffffffffffffe08184030181529190526020810180517bffffffffffffffffffffffffffffffffffffffffffffffffffffffff167f901cee1100000000000000000000000000000000000000000000000000000000179052612b76565b915091505f82156121425760048251106120d5575060208101516120d8565b505f5b8061214257604080518082018252601881527f4e6f7420417574686f72697a656420546f20506f6c6963790000000000000000602082015290517f08c379a00000000000000000000000000000000000000000000000000000000081526102009190600401613f93565b5050505050565b612151611f64565b5f8281526001919091016020526040902060030154610100900460ff16156121d857604080518082018252601f81527f4e6f7420616c6c6f77656420666f722063656d656e74656420706f6c69637900602082015290517f08c379a00000000000000000000000000000000000000000000000000000000081526102009190600401613f93565b50565b5f6121e4612c37565b90505f6121ef611fbb565b5f85815260019190910160209081526040808320868452825280832060050180548251818502810185019093528083529193909284015b828210156122c3575f8481526020902060408051606081019091529083018054829060ff16600781111561225c5761225c6139a7565b600781111561226d5761226d6139a7565b8152905461010081046fffffffffffffffffffffffffffffffff166020808401919091527101000000000000000000000000000000000090910460ff166040909201919091529082526001929092019101612226565b5050505090505f6122d2611fbb565b5f86815260019190910160209081526040808320878452825280832060060180548251818502810185019093528083529193909284015b828210156123a6575f8481526020902060408051606081019091529083018054829060ff16600781111561233f5761233f6139a7565b6007811115612350576123506139a7565b8152905461010081046fffffffffffffffffffffffffffffffff166020808401919091527101000000000000000000000000000000000090910460ff166040909201919091529082526001929092019101612309565b509293505f925050505b8251811015612680576123e08382815181106123ce576123ce614024565b60200260200101516040015160021690565b15612678575f5b846003015f8881526020019081526020015f205f85848151811061240d5761240d614024565b6020026020010151602001516fffffffffffffffffffffffffffffffff1681526020019081526020015f2080549050811015612676575f8781526003860160205260408120855188929087908690811061246957612469614024565b6020026020010151602001516fffffffffffffffffffffffffffffffff1681526020019081526020015f2082815481106124a5576124a5614024565b905f5260205f2001540361266457846003015f8881526020019081526020015f205f8584815181106124d9576124d9614024565b6020026020010151602001516fffffffffffffffffffffffffffffffff1681526020019081526020015f206001866003015f8a81526020019081526020015f205f87868151811061252c5761252c614024565b6020026020010151602001516fffffffffffffffffffffffffffffffff1681526020019081526020015f2080549050612565919061407e565b8154811061257557612575614024565b905f5260205f200154856003015f8981526020019081526020015f205f8685815181106125a4576125a4614024565b6020026020010151602001516fffffffffffffffffffffffffffffffff1681526020019081526020015f2082815481106125e0576125e0614024565b905f5260205f200181905550846003015f8881526020019081526020015f205f85848151811061261257612612614024565b6020026020010151602001516fffffffffffffffffffffffffffffffff1681526020019081526020015f2080548061264c5761264c6140c8565b600190038181905f5260205f20015f90559055612676565b8061266e81614091565b9150506123e7565b505b6001016123b0565b505f5b8151811015612941576126a18282815181106123ce576123ce614024565b15612939575f5b846003015f8881526020019081526020015f205f8484815181106126ce576126ce614024565b6020026020010151602001516fffffffffffffffffffffffffffffffff1681526020019081526020015f2080549050811015612937575f8781526003860160205260408120845188929086908690811061272a5761272a614024565b6020026020010151602001516fffffffffffffffffffffffffffffffff1681526020019081526020015f20828154811061276657612766614024565b905f5260205f2001540361292557846003015f8881526020019081526020015f205f84848151811061279a5761279a614024565b6020026020010151602001516fffffffffffffffffffffffffffffffff1681526020019081526020015f206001866003015f8a81526020019081526020015f205f8686815181106127ed576127ed614024565b6020026020010151602001516fffffffffffffffffffffffffffffffff1681526020019081526020015f2080549050612826919061407e565b8154811061283657612836614024565b905f5260205f200154856003015f8981526020019081526020015f205f85858151811061286557612865614024565b6020026020010151602001516fffffffffffffffffffffffffffffffff1681526020019081526020015f2082815481106128a1576128a1614024565b905f5260205f200181905550846003015f8881526020019081526020015f205f8484815181106128d3576128d3614024565b6020026020010151602001516fffffffffffffffffffffffffffffffff1681526020019081526020015f2080548061290d5761290d6140c8565b600190038181905f5260205f20015f90559055612937565b8061292f81614091565b9150506126a8565b505b600101612683565b505050505050565b61295381806140f5565b90505f036129c057604080518082018252601581527f456d70747920496e737472756374696f6e205365740000000000000000000000602082015290517f08c379a00000000000000000000000000000000000000000000000000000000081526102009190600401613f93565b6129d26129cd82806140f5565b612c64565b5f5b6129e16020830183614159565b6129ef9060208101906140f5565b9050811015612a4857612a40612a086020840184614159565b612a169060208101906140f5565b83818110612a2657612a26614024565b9050602002016020810190612a3b91906141a1565b612ee4565b6001016129d4565b50612a5e612a5960408301836141bc565b612f67565b612a6e612a5960608301836141bc565b5f612a7c60808301836140f5565b90501180612a9757505f612a9360a08301836140f5565b9050115b6040518060400160405280601d81526020017f4d7573742068617665206174206c65617374206f6e652065666665637400000081525090612b05576040517f08c379a00000000000000000000000000000000000000000000000000000000081526004016102009190613f93565b50612b1b612b1660808301836140f5565b612fa9565b6121d8612b1660a08301836140f5565b612b3788888888613065565b50612b46878786868686613154565b5050505050505050565b5f81815260208390526040812080548290612b6a90614091565b91829055509392505050565b5f60605f612b826131a6565b7fffffffff0000000000000000000000000000000000000000000000000000000086165f908152602082905260409081902054905191925073ffffffffffffffffffffffffffffffffffffffff16908190612bde90879061421f565b5f60405180830381855af49150503d805f8114612c16576040519150601f19603f3d011682016040523d82523d5f602084013e612c1b565b606091505b50909450925083612c2e57825160208401fd5b50509250929050565b5f8061035260017f438102ff677bc3f21830c58117a05d6b953b31e3ea339da3f17957cd3941a69061407e565b5f8080805b84811015612e00575f868683818110612c8457612c84614024565b9050602002013590508315612d2557605a811115612d0157604080518082018252600f81527f4d656d6f7279204f766572666c6f770000000000000000000000000000000000602082015290517f08c379a00000000000000000000000000000000000000000000000000000000081526102009190600401613f93565b6001851115612d1a57612d1385614235565b9450612dec565b5f93505f9450612dec565b612d2e83614091565b92506013811115612d9e57604080518082018252601381527f496e76616c696420496e737472756374696f6e00000000000000000000000000602082015290517f08c379a00000000000000000000000000000000000000000000000000000000081526102009190600401613f93565b80612dac5750600101612dee565b6003811015612dbe5760019450612de7565b6011811015612dd05760029450612de7565b6012811015612de25760039450612de7565b600494505b600193505b505b80612df881614091565b915050612c69565b505f831180612e0c5750815b15612e7657604080518082018252601781527f496e76616c696420496e737472756374696f6e20536574000000000000000000602082015290517f08c379a00000000000000000000000000000000000000000000000000000000081526102009190600401613f93565b605a81111561214257604080518082018252601981527f496e737472756374696f6e2053657420546f6f204c6172676500000000000000602082015290517f08c379a00000000000000000000000000000000000000000000000000000000081526102009190600401613f93565b600880826007811115612ef957612ef96139a7565b10612f6357604080518082018252601281527f496e76616c696420506172616d20547970650000000000000000000000000000602082015290517f08c379a00000000000000000000000000000000000000000000000000000000081526102009190600401613f93565b5050565b5f5b81811015612fa457612f9c838383818110612f8657612f86614024565b612a3b92602060609092020190810191506141a1565b600101612f69565b505050565b5f5b81811015612fa457612ff0838383818110612fc857612fc8614024565b9050602002810190612fda9190614269565b612feb9060608101906040016142a7565b6131d3565b61302883838381811061300557613005614024565b90506020028101906130179190614269565b612a3b9060808101906060016141a1565b61305d83838381811061303d5761303d614024565b905060200281019061304f9190614269565b6129cd9060e08101906140f5565b600101612fab565b5f61306e611f64565b5f858152600191909101602052604090205460ff166130ec57604080518082018252601581527f506f6c69637920646f6573206e6f742065786973740000000000000000000000602082015290517f08c379a00000000000000000000000000000000000000000000000000000000081526102009190600401613f93565b5f84815260018681016020908152604080842087855290915290912080547fffffffffffffffffffffffffffffffffffffffffffffffffffffffffffffff00168217815583910161313d8282614c8a565b90505061314b858585613252565b50909392505050565b5f61315d611f37565b5f888152602082815260408083208a845290915290209091506131818587836144fc565b505f878152602082815260408083208984529091529020600101612b468385836144fc565b5f8061035260017fbe498a3b14fd79a48c3c9af86ff14271ed497d09071013334028d28e7791db2061407e565b6003808260028111156131e8576131e86139a7565b10612f6357604080518082018252601381527f496e76616c696420456666656374205479706500000000000000000000000000602082015290517f08c379a00000000000000000000000000000000000000000000000000000000081526102009190600401613f93565b5f61325b612c37565b5f8481526001860160209081526040808320868452825280832060050180548251818502810185019093528083529495509293909291849084015b82821015613333575f8481526020902060408051606081019091529083018054829060ff1660078111156132cc576132cc6139a7565b60078111156132dd576132dd6139a7565b8152905461010081046fffffffffffffffffffffffffffffffff166020808401919091527101000000000000000000000000000000000090910460ff166040909201919091529082526001929092019101613296565b5050505f868152600188016020908152604080832088845282528083206006018054825181850281018501909352808352959650929490935090849084015b8282101561340f575f8481526020902060408051606081019091529083018054829060ff1660078111156133a8576133a86139a7565b60078111156133b9576133b96139a7565b8152905461010081046fffffffffffffffffffffffffffffffff166020808401919091527101000000000000000000000000000000000090910460ff166040909201919091529082526001929092019101613372565b509293505f925050505b8251811015613520576134378382815181106123ce576123ce614024565b15613518575f83828151811061344f5761344f614024565b60209081029190910181015101516fffffffffffffffffffffffffffffffff1690505f805b5f89815260038801602090815260408083208684529091529020548110156134e4575f898152600388016020908152604080832086845290915290208054899190839081106134c5576134c5614024565b905f5260205f200154036134dc57600191506134e4565b600101613474565b5080613515575f88815260038701602090815260408083208584528252822080546001810182559083529120018790555b50505b600101613419565b505f5b815181101561362a576135418282815181106123ce576123ce614024565b15613622575f82828151811061355957613559614024565b60209081029190910181015101516fffffffffffffffffffffffffffffffff1690505f805b5f89815260038801602090815260408083208684529091529020548110156135ee575f898152600388016020908152604080832086845290915290208054899190839081106135cf576135cf614024565b905f5260205f200154036135e657600191506135ee565b60010161357e565b508061361f575f88815260038701602090815260408083208584528252822080546001810182559083529120018790555b50505b600101613523565b50505050505050565b6040518060c001604052806060815260200161366960405180606001604052806060815260200160608152602001606081525090565b8152602001606081526020016060815260200160608152602001606081525090565b60405180604001604052805f151581526020016136a6613633565b905290565b828054828255905f5260205f209081019282156136e4579160200282015b828111156136e45782518255916020019190600101906136c9565b506136f0929150613785565b5090565b5080545f8255905f5260205f20908101906121d89190613785565b5080545f8255601f0160209004905f5260205f20908101906121d89190613785565b5080545f8255905f5260205f20908101906121d89190613799565b5080545f8255905f5260205f20908101906121d891906137b5565b5080545f8255600502905f5260205f20908101906121d891906137ec565b5b808211156136f0575f8155600101613786565b808211156136f0575f6137ac8282613854565b50600101613799565b5b808211156136f05780547fffffffffffffffffffffffffffff0000000000000000000000000000000000001681556001016137b6565b808211156136f05780547fffffffffffffffffffffffffffffffffffffffffffffffffffffffff000000001681555f6138286001830182613854565b600282015f9055600382015f61383e9190613854565b61384b600483015f6136f4565b506005016137ec565b50805461386090613fac565b5f825580601f1061386f575050565b601f0160209004905f5260205f20908101906121d89190613785565b5f5f6040838503121561389c575f5ffd5b50508035926020909101359150565b5f81518084528060208401602086015e5f6020828601015260207fffffffffffffffffffffffffffffffffffffffffffffffffffffffffffffffe0601f83011685010191505092915050565b602081525f82516040602084015261391260608401826138ab565b905060208401517fffffffffffffffffffffffffffffffffffffffffffffffffffffffffffffffe084830301604085015261394d82826138ab565b95945050505050565b5f60208284031215613966575f5ffd5b5035919050565b5f8151808452602084019350602083015f5b8281101561399d57815186526020958601959091019060010161397f565b5093949350505050565b7f4e487b71000000000000000000000000000000000000000000000000000000005f52602160045260245ffd5b600881106139e4576139e46139a7565b9052565b5f8151808452602084019350602083015f5b8281101561399d578151613a0f8782516139d4565b6fffffffffffffffffffffffffffffffff602082015116602088015260ff6040820151166040880152506060860195506020820191506001810190506139fa565b600381106139e4576139e46139a7565b5f82825180855260208501945060208160051b830101602085015f5b83811015613b5f578483037fffffffffffffffffffffffffffffffffffffffffffffffffffffffffffffffe001885281518051151584526020810151613ac6602086018215159052565b506040810151613ad96040860182613a50565b506060810151613aec60608601826139d4565b5060808101516101006080860152613b086101008601826138ab565b905060a082015160a086015260c082015185820360c0870152613b2b82826138ab565b91505060e0820151915084810360e0860152613b47818361396d565b60209a8b019a90955093909301925050600101613a7c565b50909695505050505050565b5f815160c08452613b7f60c085018261396d565b905060208301518482036020860152805160608352613ba1606084018261396d565b60208381015185830386830152805180845290820193505f92909101905b80831015613be957613bd28285516139d4565b602082019150602084019350600183019250613bbf565b506040840151935084810360408601528094508351925082815260208101945060208360051b82010191506020840193505f5b83811015613c6b577fffffffffffffffffffffffffffffffffffffffffffffffffffffffffffffffe0828403018652613c568386516138ab565b60209687019695909501949250600101613c1c565b5050604086015193508681036040880152613c8681856139e8565b935050505060608301518482036060860152613ca282826139e8565b91505060808301518482036080860152613cbc8282613a60565b91505060a083015184820360a086015261394d8282613a60565b5f602082016020835280845180835260408501915060408160051b8601019250602086015f5b82811015613daf578685037fffffffffffffffffffffffffffffffffffffffffffffffffffffffffffffffc0018452815180518087526020918201918088019190600582901b8901015f5b82811015613d96577fffffffffffffffffffffffffffffffffffffffffffffffffffffffffffffffe08a8303018452613d81828651613b6b565b60209586019594909401939150600101613d47565b5097505050602094850194929092019150600101613cfc565b50929695505050505050565b602081528151151560208201525f6020830151604080840152613de16060840182613b6b565b949350505050565b5f60c08284031215613df9575f5ffd5b50919050565b5f5f83601f840112613e0f575f5ffd5b50813567ffffffffffffffff811115613e26575f5ffd5b602083019150836020828501011115613e3d575f5ffd5b9250929050565b5f5f5f5f5f5f5f60a0888a031215613e5a575f5ffd5b8735965060208801359550604088013567ffffffffffffffff811115613e7e575f5ffd5b613e8a8a828b01613de9565b955050606088013567ffffffffffffffff811115613ea6575f5ffd5b613eb28a828b01613dff565b909550935050608088013567ffffffffffffffff811115613ed1575f5ffd5b613edd8a828b01613dff565b989b979a50959850939692959293505050565b5f5f5f5f5f5f60808789031215613f05575f5ffd5b86359550602087013567ffffffffffffffff811115613f22575f5ffd5b613f2e89828a01613de9565b955050604087013567ffffffffffffffff811115613f4a575f5ffd5b613f5689828a01613dff565b909550935050606087013567ffffffffffffffff811115613f75575f5ffd5b613f8189828a01613dff565b979a9699509497509295939492505050565b602081525f613fa560208301846138ab565b9392505050565b600181811c90821680613fc057607f821691505b602082108103613df9577f4e487b71000000000000000000000000000000000000000000000000000000005f52602260045260245ffd5b7f4e487b71000000000000000000000000000000000000000000000000000000005f52604160045260245ffd5b7f4e487b71000000000000000000000000000000000000000000000000000000005f52603260045260245ffd5b7f4e487b71000000000000000000000000000000000000000000000000000000005f52601160045260245ffd5b8181038181111561035257610352614051565b5f7fffffffffffffffffffffffffffffffffffffffffffffffffffffffffffffffff82036140c1576140c1614051565b5060010190565b7f4e487b71000000000000000000000000000000000000000000000000000000005f52603160045260245ffd5b5f5f83357fffffffffffffffffffffffffffffffffffffffffffffffffffffffffffffffe1843603018112614128575f5ffd5b83018035915067ffffffffffffffff821115614142575f5ffd5b6020019150600581901b3603821315613e3d575f5ffd5b5f82357fffffffffffffffffffffffffffffffffffffffffffffffffffffffffffffffa183360301811261418b575f5ffd5b9190910192915050565b600881106121d8575f5ffd5b5f602082840312156141b1575f5ffd5b8135613fa581614195565b5f5f83357fffffffffffffffffffffffffffffffffffffffffffffffffffffffffffffffe18436030181126141ef575f5ffd5b83018035915067ffffffffffffffff821115614209575f5ffd5b6020019150606081023603821315613e3d575f5ffd5b5f82518060208501845e5f920191825250919050565b5f8161424357614243614051565b507fffffffffffffffffffffffffffffffffffffffffffffffffffffffffffffffff0190565b5f82357fffffffffffffffffffffffffffffffffffffffffffffffffffffffffffffff0183360301811261418b575f5ffd5b600381106121d8575f5ffd5b5f602082840312156142b7575f5ffd5b8135613fa58161429b565b5b81811015612f63575f81556001016142c3565b680100000000000000008211156142ef576142ef613ff7565b805482825580831015612fa457815f5260205f206143118282018583016142c2565b50505050565b67ffffffffffffffff83111561432f5761432f613ff7565b61433983826142d6565b81815f5260205f205f5b8581101561294157823582820155602090920191600101614343565b6801000000000000000082111561437857614378613ff7565b805482825580831015612fa457815f5260205f20601f840160051c8101601f851680156143f2577fffffffffffffffffffffffffffffffffffffffffffffffffffffffffffffffff820180547fffffffffffffffffffffffffffffffffffffffffffffffffffffffffffffffff8360200360031b1c168155505b50612142601f840160051c8301826142c2565b5f813561035281614195565b5f5f83357fffffffffffffffffffffffffffffffffffffffffffffffffffffffffffffffe1843603018112614444575f5ffd5b83018035915067ffffffffffffffff82111561445e575f5ffd5b602001915036819003821315613e3d575f5ffd5b805461447d90613fac565b8015612f6357601f8111600181146144965750505f9055565b5f838152602090206144b3601f840160051c8201600183016142c2565b505f8381526020812081855555505050565b601f821115612fa457805f5260205f20601f840160051c810160208510156144ea5750805b612142601f850160051c8301826142c2565b67ffffffffffffffff83111561451457614514613ff7565b614528836145228354613fac565b836144c5565b5f601f841160018114614578575f85156145425750838201355b7fffffffffffffffffffffffffffffffffffffffffffffffffffffffffffffffff600387901b1c1916600186901b178355612142565b5f838152602081207fffffffffffffffffffffffffffffffffffffffffffffffffffffffffffffffe08716915b828110156145c557868501358255602094850194600190920191016145a5565b5086821015614600577fffffffffffffffffffffffffffffffffffffffffffffffffffffffffffffffff60f88860031b161c19848701351681555b505060018560011b0183555050505050565b6801000000000000000083111561462b5761462b613ff7565b805483825580841015614666575f828152602090208481019082015b808210156146635761465882614472565b600182019150614647565b50505b505f8181526020812083915b85811015612941576146848386614411565b61468f8183866144fc565b50506020929092019160019182019101614672565b6146ae82836140f5565b67ffffffffffffffff8111156146c6576146c6613ff7565b6146d081846142d6565b825f5260205f205f5b828110156146f5578335828201556020909301926001016146d9565b505050506001810161470a60208401846140f5565b67ffffffffffffffff81111561472257614722613ff7565b61472c818461435f565b5f8381526020902092508060051c5f5b81811015614791575f5f5b60208110156147845761477361475c87614405565b60ff908116600384901b90811b91901b1984161790565b602096909601959150600101614747565b508582015560010161473c565b507fffffffffffffffffffffffffffffffffffffffffffffffffffffffffffffffe082168083038184146147ed575f5f5b828110156147e7576147d661475c88614405565b6020979097019691506001016147c2565b50868401555b50505050505061480060408301836140f5565b614311818360028601614612565b813561481981614195565b60088110614829576148296139a7565b815460ff82169150817fffffffffffffffffffffffffffffffffffffffffffffffffffffffffffffff00821617835560208401356fffffffffffffffffffffffffffffffff8116811461487a575f5ffd5b70ffffffffffffffffffffffffffffffff008160081b16837fffffffffffffffffffffffffffffff0000000000000000000000000000000000841617178455505050604082013560ff811681146148cf575f5ffd5b81547fffffffffffffffffffffffffffff00ffffffffffffffffffffffffffffffffff1660889190911b71ff00000000000000000000000000000000001617905550565b6801000000000000000083111561492c5761492c613ff7565b805483825580841015614961575f828152602090208481019082015b8082101561495e575f8255600182019150614948565b50505b505f8181526020812083915b858110156129415761497f838361480e565b606092909201916001918201910161496d565b80545f82558015612f6357815f5260205f20612fa4828201826142c2565b5f81358015158114610352575f5ffd5b5f81356103528161429b565b600382106149dc576149dc6139a7565b805462ff00008360101b167fffffffffffffffffffffffffffffffffffffffffffffffffffffffffff00ffff8216178255505050565b60088210614a2257614a226139a7565b805463ff0000008360181b167fffffffffffffffffffffffffffffffffffffffffffffffffffffffff00ffffff8216178255505050565b614a62826149b0565b15157fffffffffffffffffffffffffffffffffffffffffffffffffffffffffffffff0082541660ff8216811783555050614ad8614aa1602084016149b0565b8280547fffffffffffffffffffffffffffffffffffffffffffffffffffffffffffff00ff1691151560081b61ff0016919091179055565b614aed614ae7604084016149c0565b826149cc565b614b02614afc60608401614405565b82614a12565b614b0f6080830183614411565b614b1d8183600186016144fc565b505060a08201356002820155614b3660c0830183614411565b614b448183600386016144fc565b5050614b5360e08301836140f5565b614311818360048601614317565b68010000000000000000831115614b7a57614b7a613ff7565b805483825580841015614c4d5780600502600581048214614b9d57614b9d614051565b84600502600581048614614bb357614bb3614051565b5f8481526020902091820191015b81811015614c4a575f8155614bd860018201614472565b5f6002820155600381018054614bed90613fac565b8015614c3457601f811160018114614c07575f8355614c32565b5f83815260209020614c24601f840160051c8201600183016142c2565b505f83815260208120818555555b505b5050614c4260048201614992565b600501614bc1565b50505b505f8181526020812083915b8581101561294157614c74614c6e8487614269565b83614a59565b6020929092019160059190910190600101614c59565b614c9482836140f5565b67ffffffffffffffff811115614cac57614cac613ff7565b614cb681846142d6565b825f5260205f205f5b82811015614cdb57833582820155602090930192600101614cbf565b50505050614cf8614cef6020840184614159565b600183016146a4565b614d0560408301836141bc565b614d13818360048601614913565b5050614d2260608301836141bc565b614d30818360058601614913565b5050614d3f60808301836140f5565b614d4d818360068601614b61565b5050614d5c60a08301836140f5565b614311818360078601614b6156fe506f6c6963792049442063616e6e6f7420626520302e2043726561746520706f6c696379206265666f7265207570646174696e67a26469706673582212200e14ab97e475884e53144ea6a0ef8add1d8304dc1a087b423afbac17adb6328a64736f6c634300081c0033","linkReferences":{}},"methodIdentifiers":{"createRule(uint256,(uint256[],(uint256[],uint8[],bytes[]),(uint8,uint128,uint8)[],(uint8,uint128,uint8)[],(bool,bool,uint8,uint8,bytes,bytes32,string,uint256[])[],(bool,bool,uint8,uint8,bytes,bytes32,string,uint256[])[]),string,string)":"cc98aad6","deleteRule(uint256,uint256)":"a31c8ebb","getAllRules(uint256)":"266fc8a5","getMemorySize()":"59c8075b","getOpsSize1()":"49fd266d","getOpsSizeUpTo2()":"54daa681","getOpsSizeUpTo3()":"bef087a3","getOpsTotalSize()":"d951e134","getRule(uint256,uint256)":"6d279ef8","getRuleMetadata(uint256,uint256)":"12602c40","updateRule(uint256,uint256,(uint256[],(uint256[],uint8[],bytes[]),(uint8,uint128,uint8)[],(uint8,uint128,uint8)[],(bool,bool,uint8,uint8,bytes,bytes32,string,uint256[])[],(bool,bool,uint8,uint8,bytes,bytes32,string,uint256[])[]),string,string)":"a57dcd5e"},"id":98}