{"abi":[{"type":"function","name":"createRule","inputs":[{"name":"policyId","type":"uint256","internalType":"uint256"},{"name":"rule","type":"tuple","internalType":"struct Rule","components":[{"name":"instructionSet","type":"uint256[]","internalType":"uint256[]"},{"name":"rawData","type":"tuple","internalType":"struct RawData","components":[{"name":"instructionSetIndex","type":"uint256[]","internalType":"uint256[]"},{"name":"argumentTypes","type":"uint8[]","internalType":"enum ParamTypes[]"},{"name":"dataValues","type":"bytes[]","internalType":"bytes[]"}]},{"name":"placeHolders","type":"tuple[]","internalType":"struct Placeholder[]","components":[{"name":"pType","type":"uint8","internalType":"enum ParamTypes"},{"name":"typeSpecificIndex","type":"uint128","internalType":"uint128"},{"name":"flags","type":"uint8","internalType":"uint8"}]},{"name":"positiveEffectPlaceHolders","type":"tuple[]","internalType":"struct Placeholder[]","components":[{"name":"pType","type":"uint8","internalType":"enum ParamTypes"},{"name":"typeSpecificIndex","type":"uint128","internalType":"uint128"},{"name":"flags","type":"uint8","internalType":"uint8"}]},{"name":"negativeEffectPlaceHolders","type":"tuple[]","internalType":"struct Placeholder[]","components":[{"name":"pType","type":"uint8","internalType":"enum ParamTypes"},{"name":"typeSpecificIndex","type":"uint128","internalType":"uint128"},{"name":"flags","type":"uint8","internalType":"uint8"}]},{"name":"posEffects","type":"tuple[]","internalType":"struct Effect[]","components":[{"name":"valid","type":"bool","internalType":"bool"},{"name":"dynamicParam","type":"bool","internalType":"bool"},{"name":"effectType","type":"uint8","internalType":"enum EffectTypes"},{"name":"pType","type":"uint8","internalType":"enum ParamTypes"},{"name":"param","type":"bytes","internalType":"bytes"},{"name":"text","type":"bytes32","internalType":"bytes32"},{"name":"errorMessage","type":"string","internalType":"string"},{"name":"instructionSet","type":"uint256[]","internalType":"uint256[]"}]},{"name":"negEffects","type":"tuple[]","internalType":"struct Effect[]","components":[{"name":"valid","type":"bool","internalType":"bool"},{"name":"dynamicParam","type":"bool","internalType":"bool"},{"name":"effectType","type":"uint8","internalType":"enum EffectTypes"},{"name":"pType","type":"uint8","internalType":"enum ParamTypes"},{"name":"param","type":"bytes","internalType":"bytes"},{"name":"text","type":"bytes32","internalType":"bytes32"},{"name":"errorMessage","type":"string","internalType":"string"},{"name":"instructionSet","type":"uint256[]","internalType":"uint256[]"}]}]},{"name":"ruleName","type":"string","internalType":"string"},{"name":"ruleDescription","type":"string","internalType":"string"}],"outputs":[{"name":"","type":"uint256","internalType":"uint256"}],"stateMutability":"nonpayable"},{"type":"function","name":"deleteRule","inputs":[{"name":"policyId","type":"uint256","internalType":"uint256"},{"name":"ruleId","type":"uint256","internalType":"uint256"}],"outputs":[],"stateMutability":"nonpayable"},{"type":"function","name":"getAllRules","inputs":[{"name":"policyId","type":"uint256","internalType":"uint256"}],"outputs":[{"name":"","type":"tuple[][]","internalType":"struct Rule[][]","components":[{"name":"instructionSet","type":"uint256[]","internalType":"uint256[]"},{"name":"rawData","type":"tuple","internalType":"struct RawData","components":[{"name":"instructionSetIndex","type":"uint256[]","internalType":"uint256[]"},{"name":"argumentTypes","type":"uint8[]","internalType":"enum ParamTypes[]"},{"name":"dataValues","type":"bytes[]","internalType":"bytes[]"}]},{"name":"placeHolders","type":"tuple[]","internalType":"struct Placeholder[]","components":[{"name":"pType","type":"uint8","internalType":"enum ParamTypes"},{"name":"typeSpecificIndex","type":"uint128","internalType":"uint128"},{"name":"flags","type":"uint8","internalType":"uint8"}]},{"name":"positiveEffectPlaceHolders","type":"tuple[]","internalType":"struct Placeholder[]","components":[{"name":"pType","type":"uint8","internalType":"enum ParamTypes"},{"name":"typeSpecificIndex","type":"uint128","internalType":"uint128"},{"name":"flags","type":"uint8","internalType":"uint8"}]},{"name":"negativeEffectPlaceHolders","type":"tuple[]","internalType":"struct Placeholder[]","components":[{"name":"pType","type":"uint8","internalType":"enum ParamTypes"},{"name":"typeSpecificIndex","type":"uint128","internalType":"uint128"},{"name":"flags","type":"uint8","internalType":"uint8"}]},{"name":"posEffects","type":"tuple[]","internalType":"struct Effect[]","components":[{"name":"valid","type":"bool","internalType":"bool"},{"name":"dynamicParam","type":"bool","internalType":"bool"},{"name":"effectType","type":"uint8","internalType":"enum EffectTypes"},{"name":"pType","type":"uint8","internalType":"enum ParamTypes"},{"name":"param","type":"bytes","internalType":"bytes"},{"name":"text","type":"bytes32","internalType":"bytes32"},{"name":"errorMessage","type":"string","internalType":"string"},{"name":"instructionSet","type":"uint256[]","internalType":"uint256[]"}]},{"name":"negEffects","type":"tuple[]","internalType":"struct Effect[]","components":[{"name":"valid","type":"bool","internalType":"bool"},{"name":"dynamicParam","type":"bool","internalType":"bool"},{"name":"effectType","type":"uint8","internalType":"enum EffectTypes"},{"name":"pType","type":"uint8","internalType":"enum ParamTypes"},{"name":"param","type":"bytes","internalType":"bytes"},{"name":"text","type":"bytes32","internalType":"bytes32"},{"name":"errorMessage","type":"string","internalType":"string"},{"name":"instructionSet","type":"uint256[]","internalType":"uint256[]"}]}]}],"stateMutability":"view"},{"type":"function","name":"getMemorySize","inputs":[],"outputs":[{"name":"","type":"uint256","internalType":"uint256"}],"stateMutability":"pure"},{"type":"function","name":"getOpsSize1","inputs":[],"outputs":[{"name":"","type":"uint256","internalType":"uint256"}],"stateMutability":"pure"},{"type":"function","name":"getOpsSizeUpTo2","inputs":[],"outputs":[{"name":"","type":"uint256","internalType":"uint256"}],"stateMutability":"pure"},{"type":"function","name":"getOpsSizeUpTo3","inputs":[],"outputs":[{"name":"","type":"uint256","internalType":"uint256"}],"stateMutability":"pure"},{"type":"function","name":"getOpsTotalSize","inputs":[],"outputs":[{"name":"","type":"uint256","internalType":"uint256"}],"stateMutability":"pure"},{"type":"function","name":"getRule","inputs":[{"name":"policyId","type":"uint256","internalType":"uint256"},{"name":"ruleId","type":"uint256","internalType":"uint256"}],"outputs":[{"name":"","type":"tuple","internalType":"struct RuleStorageSet","components":[{"name":"set","type":"bool","internalType":"bool"},{"name":"rule","type":"tuple","internalType":"struct Rule","components":[{"name":"instructionSet","type":"uint256[]","internalType":"uint256[]"},{"name":"rawData","type":"tuple","internalType":"struct RawData","components":[{"name":"instructionSetIndex","type":"uint256[]","internalType":"uint256[]"},{"name":"argumentTypes","type":"uint8[]","internalType":"enum ParamTypes[]"},{"name":"dataValues","type":"bytes[]","internalType":"bytes[]"}]},{"name":"placeHolders","type":"tuple[]","internalType":"struct Placeholder[]","components":[{"name":"pType","type":"uint8","internalType":"enum ParamTypes"},{"name":"typeSpecificIndex","type":"uint128","internalType":"uint128"},{"name":"flags","type":"uint8","internalType":"uint8"}]},{"name":"positiveEffectPlaceHolders","type":"tuple[]","internalType":"struct Placeholder[]","components":[{"name":"pType","type":"uint8","internalType":"enum ParamTypes"},{"name":"typeSpecificIndex","type":"uint128","internalType":"uint128"},{"name":"flags","type":"uint8","internalType":"uint8"}]},{"name":"negativeEffectPlaceHolders","type":"tuple[]","internalType":"struct Placeholder[]","components":[{"name":"pType","type":"uint8","internalType":"enum ParamTypes"},{"name":"typeSpecificIndex","type":"uint128","internalType":"uint128"},{"name":"flags","type":"uint8","internalType":"uint8"}]},{"name":"posEffects","type":"tuple[]","internalType":"struct Effect[]","components":[{"name":"valid","type":"bool","internalType":"bool"},{"name":"dynamicParam","type":"bool","internalType":"bool"},{"name":"effectType","type":"uint8","internalType":"enum EffectTypes"},{"name":"pType","type":"uint8","internalType":"enum ParamTypes"},{"name":"param","type":"bytes","internalType":"bytes"},{"name":"text","type":"bytes32","internalType":"bytes32"},{"name":"errorMessage","type":"string","internalType":"string"},{"name":"instructionSet","type":"uint256[]","internalType":"uint256[]"}]},{"name":"negEffects","type":"tuple[]","internalType":"struct Effect[]","components":[{"name":"valid","type":"bool","internalType":"bool"},{"name":"dynamicParam","type":"bool","internalType":"bool"},{"name":"effectType","type":"uint8","internalType":"enum EffectTypes"},{"name":"pType","type":"uint8","internalType":"enum ParamTypes"},{"name":"param","type":"bytes","internalType":"bytes"},{"name":"text","type":"bytes32","internalType":"bytes32"},{"name":"errorMessage","type":"string","internalType":"string"},{"name":"instructionSet","type":"uint256[]","internalType":"uint256[]"}]}]}]}],"stateMutability":"view"},{"type":"function","name":"getRuleMetadata","inputs":[{"name":"policyId","type":"uint256","internalType":"uint256"},{"name":"ruleId","type":"uint256","internalType":"uint256"}],"outputs":[{"name":"","type":"tuple","internalType":"struct RuleMetadata","components":[{"name":"ruleName","type":"string","internalType":"string"},{"name":"ruleDescription","type":"string","internalType":"string"}]}],"stateMutability":"view"},{"type":"function","name":"updateRule","inputs":[{"name":"policyId","type":"uint256","internalType":"uint256"},{"name":"ruleId","type":"uint256","internalType":"uint256"},{"name":"rule","type":"tuple","internalType":"struct Rule","components":[{"name":"instructionSet","type":"uint256[]","internalType":"uint256[]"},{"name":"rawData","type":"tuple","internalType":"struct RawData","components":[{"name":"instructionSetIndex","type":"uint256[]","internalType":"uint256[]"},{"name":"argumentTypes","type":"uint8[]","internalType":"enum ParamTypes[]"},{"name":"dataValues","type":"bytes[]","internalType":"bytes[]"}]},{"name":"placeHolders","type":"tuple[]","internalType":"struct Placeholder[]","components":[{"name":"pType","type":"uint8","internalType":"enum ParamTypes"},{"name":"typeSpecificIndex","type":"uint128","internalType":"uint128"},{"name":"flags","type":"uint8","internalType":"uint8"}]},{"name":"positiveEffectPlaceHolders","type":"tuple[]","internalType":"struct Placeholder[]","components":[{"name":"pType","type":"uint8","internalType":"enum ParamTypes"},{"name":"typeSpecificIndex","type":"uint128","internalType":"uint128"},{"name":"flags","type":"uint8","internalType":"uint8"}]},{"name":"negativeEffectPlaceHolders","type":"tuple[]","internalType":"struct Placeholder[]","components":[{"name":"pType","type":"uint8","internalType":"enum ParamTypes"},{"name":"typeSpecificIndex","type":"uint128","internalType":"uint128"},{"name":"flags","type":"uint8","internalType":"uint8"}]},{"name":"posEffects","type":"tuple[]","internalType":"struct Effect[]","components":[{"name":"valid","type":"bool","internalType":"bool"},{"name":"dynamicParam","type":"bool","internalType":"bool"},{"name":"effectType","type":"uint8","internalType":"enum EffectTypes"},{"name":"pType","type":"uint8","internalType":"enum ParamTypes"},{"name":"param","type":"bytes","internalType":"bytes"},{"name":"text","type":"bytes32","internalType":"bytes32"},{"name":"errorMessage","type":"string","internalType":"string"},{"name":"instructionSet","type":"uint256[]","internalType":"uint256[]"}]},{"name":"negEffects","type":"tuple[]","internalType":"struct Effect[]","components":[{"name":"valid","type":"bool","internalType":"bool"},{"name":"dynamicParam","type":"bool","internalType":"bool"},{"name":"effectType","type":"uint8","internalType":"enum EffectTypes"},{"name":"pType","type":"uint8","internalType":"enum ParamTypes"},{"name":"param","type":"bytes","internalType":"bytes"},{"name":"text","type":"bytes32","internalType":"bytes32"},{"name":"errorMessage","type":"string","internalType":"string"},{"name":"instructionSet","type":"uint256[]","internalType":"uint256[]"}]}]},{"name":"ruleName","type":"string","internalType":"string"},{"name":"ruleDescription","type":"string","internalType":"string"}],"outputs":[{"name":"","type":"uint256","internalType":"uint256"}],"stateMutability":"nonpayable"},{"type":"event","name":"RuleCreated","inputs":[{"name":"policyId","type":"uint256","indexed":true,"internalType":"uint256"},{"name":"ruleId","type":"uint256","indexed":true,"internalType":"uint256"}],"anonymous":false},{"type":"event","name":"RuleDeleted","inputs":[{"name":"policyId","type":"uint256","indexed":true,"internalType":"uint256"},{"name":"ruleId","type":"uint256","indexed":true,"internalType":"uint256"}],"anonymous":false},{"type":"event","name":"RuleUpdated","inputs":[{"name":"policyId","type":"uint256","indexed":true,"internalType":"uint256"},{"name":"ruleId","type":"uint256","indexed":true,"internalType":"uint256"}],"anonymous":false}],"bytecode":{"object":"0x6080604052348015600e575f5ffd5b506154fb8061001c5f395ff3fe608060405234801561000f575f5ffd5b50600436106100c4575f3560e01c806359c8075b1161007d578063a31c8ebb11610058578063a31c8ebb1461017a578063bef087a31461018f578063d951e13414610196575f5ffd5b806359c8075b146101405780636d279ef81461014757806372e1c30814610167575f5ffd5b8063266fc8a5116100ad578063266fc8a51461011257806349fd266d1461013257806354daa68114610139575f5ffd5b806312602c40146100c85780631809418e146100f1575b5f5ffd5b6100db6100d6366004613f63565b61019d565b6040516100e89190613fcf565b60405180910390f35b6101046100ff366004614089565b61035c565b6040519081526020016100e8565b61012561012036600461412c565b61042c565b6040516100e891906144d6565b6003610104565b6011610104565b605a610104565b61015a610155366004613f63565b6110f5565b6040516100e891906145bb565b6101046101753660046145e9565b611ad5565b61018d610188366004613f63565b611b99565b005b6012610104565b6013610104565b6040805180820190915260608082526020820152825f0361020d57604051806060016040528060348152602001615492603491396040517f08c379a00000000000000000000000000000000000000000000000000000000081526004016102049190614695565b60405180910390fd5b610215612098565b5f848152602091825260408082208583529092528190208151808301909252805482908290610243906146ae565b80601f016020809104026020016040519081016040528092919081815260200182805461026f906146ae565b80156102ba5780601f10610291576101008083540402835291602001916102ba565b820191905f5260205f20905b81548152906001019060200180831161029d57829003601f168201915b505050505081526020016001820180546102d3906146ae565b80601f01602080910402602001604051908101604052809291908181526020018280546102ff906146ae565b801561034a5780601f106103215761010080835404028352916020019161034a565b820191905f5260205f20905b81548152906001019060200180831161032d57829003601f168201915b50505050508152505090505b92915050565b5f865f036103b057604051806060016040528060348152602001615492603491396040517f08c379a00000000000000000000000000000000000000000000000000000000081526004016102049190614695565b6103ba87336120c5565b6103c386612226565b6103cc8761241b565b5f6103d56124aa565b90505f6103e2828a6124d7565b90506103f4828a838b8b8b8b8b6124fd565b60405181908a907fcadd4461b462556a5a12f6e182d719fd2bbfaaa0a6fcf6a16cf7ecf648076921905f90a398975050505050505050565b6060815f0361048157604051806060016040528060348152602001615492603491396040517f08c379a00000000000000000000000000000000000000000000000000000000081526004016102049190614695565b5f61048a612522565b6001015f8481526020019081526020015f2060010190505f8160020180548060200260200160405190810160405280929190818152602001828054801561052f57602002820191905f5260205f20905f905b82829054906101000a900460e01b7bffffffffffffffffffffffffffffffffffffffffffffffffffffffff1916815260200190600401906020826003010492830192600103820291508084116104dc5790505b505050505090505f815167ffffffffffffffff811115610551576105516146f9565b60405190808252806020026020018201604052801561058457816020015b606081526020019060019003908161056f5790505b5090505f5b82518110156110ec575f846001015f8584815181106105aa576105aa614726565b60200260200101517bffffffffffffffffffffffffffffffffffffffffffffffffffffffff19167bffffffffffffffffffffffffffffffffffffffffffffffffffffffff191681526020019081526020015f2080548060200260200160405190810160405280929190818152602001828054801561064557602002820191905f5260205f20905b815481526020019060010190808311610631575b50505050509050805167ffffffffffffffff811115610666576106666146f9565b60405190808252806020026020018201604052801561069f57816020015b61068c613d04565b8152602001906001900390816106845790505b508383815181106106b2576106b2614726565b60209081029190910101525f5b81518110156110e2576106d06124aa565b6001015f8981526020019081526020015f205f8383815181106106f5576106f5614726565b60209081029190910181015182528101919091526040015f205460ff16156110da5761071f6124aa565b6001015f8981526020019081526020015f205f83838151811061074457610744614726565b602002602001015181526020019081526020015f206001016040518060e00160405290815f82018054806020026020016040519081016040528092919081815260200182805480156107b357602002820191905f5260205f20905b81548152602001906001019080831161079f575b50505050508152602001600182016040518060600160405290815f820180548060200260200160405190810160405280929190818152602001828054801561081857602002820191905f5260205f20905b815481526020019060010190808311610804575b505050505081526020016001820180548060200260200160405190810160405280929190818152602001828054801561089d57602002820191905f5260205f20905f905b82829054906101000a900460ff16600781111561087b5761087b61417d565b81526020600192830181810494850194909303909202910180841161085c5790505b5050505050815260200160028201805480602002602001604051908101604052809291908181526020015f905b82821015610972578382905f5260205f200180546108e7906146ae565b80601f0160208091040260200160405190810160405280929190818152602001828054610913906146ae565b801561095e5780601f106109355761010080835404028352916020019161095e565b820191905f5260205f20905b81548152906001019060200180831161094157829003601f168201915b5050505050815260200190600101906108ca565b5050505081525050815260200160048201805480602002602001604051908101604052809291908181526020015f905b82821015610a3f575f8481526020902060408051606081019091529083018054829060ff1660078111156109d8576109d861417d565b60078111156109e9576109e961417d565b8152905461010081046fffffffffffffffffffffffffffffffff166020808401919091527101000000000000000000000000000000000090910460ff1660409092019190915290825260019290920191016109a2565b50505050815260200160058201805480602002602001604051908101604052809291908181526020015f905b82821015610b08575f8481526020902060408051606081019091529083018054829060ff166007811115610aa157610aa161417d565b6007811115610ab257610ab261417d565b8152905461010081046fffffffffffffffffffffffffffffffff166020808401919091527101000000000000000000000000000000000090910460ff166040909201919091529082526001929092019101610a6b565b50505050815260200160068201805480602002602001604051908101604052809291908181526020015f905b82821015610bd1575f8481526020902060408051606081019091529083018054829060ff166007811115610b6a57610b6a61417d565b6007811115610b7b57610b7b61417d565b8152905461010081046fffffffffffffffffffffffffffffffff166020808401919091527101000000000000000000000000000000000090910460ff166040909201919091529082526001929092019101610b34565b50505050815260200160078201805480602002602001604051908101604052809291908181526020015f905b82821015610e36575f84815260209081902060408051610100808201835260058702909301805460ff808216151584529481048516151595830195909552909390929184019162010000909104166002811115610c5c57610c5c61417d565b6002811115610c6d57610c6d61417d565b815281546020909101906301000000900460ff166007811115610c9257610c9261417d565b6007811115610ca357610ca361417d565b8152602001600182018054610cb7906146ae565b80601f0160208091040260200160405190810160405280929190818152602001828054610ce3906146ae565b8015610d2e5780601f10610d0557610100808354040283529160200191610d2e565b820191905f5260205f20905b815481529060010190602001808311610d1157829003601f168201915b5050505050815260200160028201548152602001600382018054610d51906146ae565b80601f0160208091040260200160405190810160405280929190818152602001828054610d7d906146ae565b8015610dc85780601f10610d9f57610100808354040283529160200191610dc8565b820191905f5260205f20905b815481529060010190602001808311610dab57829003601f168201915b5050505050815260200160048201805480602002602001604051908101604052809291908181526020018280548015610e1e57602002820191905f5260205f20905b815481526020019060010190808311610e0a575b50505050508152505081526020019060010190610bfd565b50505050815260200160088201805480602002602001604051908101604052809291908181526020015f905b8282101561109b575f84815260209081902060408051610100808201835260058702909301805460ff808216151584529481048516151595830195909552909390929184019162010000909104166002811115610ec157610ec161417d565b6002811115610ed257610ed261417d565b815281546020909101906301000000900460ff166007811115610ef757610ef761417d565b6007811115610f0857610f0861417d565b8152602001600182018054610f1c906146ae565b80601f0160208091040260200160405190810160405280929190818152602001828054610f48906146ae565b8015610f935780601f10610f6a57610100808354040283529160200191610f93565b820191905f5260205f20905b815481529060010190602001808311610f7657829003601f168201915b5050505050815260200160028201548152602001600382018054610fb6906146ae565b80601f0160208091040260200160405190810160405280929190818152602001828054610fe2906146ae565b801561102d5780601f106110045761010080835404028352916020019161102d565b820191905f5260205f20905b81548152906001019060200180831161101057829003601f168201915b505050505081526020016004820180548060200260200160405190810160405280929190818152602001828054801561108357602002820191905f5260205f20905b81548152602001906001019080831161106f575b50505050508152505081526020019060010190610e62565b50505050815250508484815181106110b5576110b5614726565b602002602001015182815181106110ce576110ce614726565b60200260200101819052505b6001016106bf565b5050600101610589565b50949350505050565b6110fd613d63565b825f0361115057604051806060016040528060348152602001615492603491396040517f08c379a00000000000000000000000000000000000000000000000000000000081526004016102049190614695565b6111586124aa565b5f84815260019182016020908152604080832086845282529182902082518084018452815460ff1615158152835194820180546101008186028801810190965260e08701818152929693959487019491928492909184918401828280156111dc57602002820191905f5260205f20905b8154815260200190600101908083116111c8575b50505050508152602001600182016040518060600160405290815f820180548060200260200160405190810160405280929190818152602001828054801561124157602002820191905f5260205f20905b81548152602001906001019080831161122d575b50505050508152602001600182018054806020026020016040519081016040528092919081815260200182805480156112c657602002820191905f5260205f20905f905b82829054906101000a900460ff1660078111156112a4576112a461417d565b8152602060019283018181049485019490930390920291018084116112855790505b5050505050815260200160028201805480602002602001604051908101604052809291908181526020015f905b8282101561139b578382905f5260205f20018054611310906146ae565b80601f016020809104026020016040519081016040528092919081815260200182805461133c906146ae565b80156113875780601f1061135e57610100808354040283529160200191611387565b820191905f5260205f20905b81548152906001019060200180831161136a57829003601f168201915b5050505050815260200190600101906112f3565b5050505081525050815260200160048201805480602002602001604051908101604052809291908181526020015f905b82821015611468575f8481526020902060408051606081019091529083018054829060ff1660078111156114015761140161417d565b60078111156114125761141261417d565b8152905461010081046fffffffffffffffffffffffffffffffff166020808401919091527101000000000000000000000000000000000090910460ff1660409092019190915290825260019290920191016113cb565b50505050815260200160058201805480602002602001604051908101604052809291908181526020015f905b82821015611531575f8481526020902060408051606081019091529083018054829060ff1660078111156114ca576114ca61417d565b60078111156114db576114db61417d565b8152905461010081046fffffffffffffffffffffffffffffffff166020808401919091527101000000000000000000000000000000000090910460ff166040909201919091529082526001929092019101611494565b50505050815260200160068201805480602002602001604051908101604052809291908181526020015f905b828210156115fa575f8481526020902060408051606081019091529083018054829060ff1660078111156115935761159361417d565b60078111156115a4576115a461417d565b8152905461010081046fffffffffffffffffffffffffffffffff166020808401919091527101000000000000000000000000000000000090910460ff16604090920191909152908252600192909201910161155d565b50505050815260200160078201805480602002602001604051908101604052809291908181526020015f905b8282101561185f575f84815260209081902060408051610100808201835260058702909301805460ff8082161515845294810485161515958301959095529093909291840191620100009091041660028111156116855761168561417d565b60028111156116965761169661417d565b815281546020909101906301000000900460ff1660078111156116bb576116bb61417d565b60078111156116cc576116cc61417d565b81526020016001820180546116e0906146ae565b80601f016020809104026020016040519081016040528092919081815260200182805461170c906146ae565b80156117575780601f1061172e57610100808354040283529160200191611757565b820191905f5260205f20905b81548152906001019060200180831161173a57829003601f168201915b505050505081526020016002820154815260200160038201805461177a906146ae565b80601f01602080910402602001604051908101604052809291908181526020018280546117a6906146ae565b80156117f15780601f106117c8576101008083540402835291602001916117f1565b820191905f5260205f20905b8154815290600101906020018083116117d457829003601f168201915b505050505081526020016004820180548060200260200160405190810160405280929190818152602001828054801561184757602002820191905f5260205f20905b815481526020019060010190808311611833575b50505050508152505081526020019060010190611626565b50505050815260200160088201805480602002602001604051908101604052809291908181526020015f905b82821015611ac4575f84815260209081902060408051610100808201835260058702909301805460ff8082161515845294810485161515958301959095529093909291840191620100009091041660028111156118ea576118ea61417d565b60028111156118fb576118fb61417d565b815281546020909101906301000000900460ff1660078111156119205761192061417d565b60078111156119315761193161417d565b8152602001600182018054611945906146ae565b80601f0160208091040260200160405190810160405280929190818152602001828054611971906146ae565b80156119bc5780601f10611993576101008083540402835291602001916119bc565b820191905f5260205f20905b81548152906001019060200180831161199f57829003601f168201915b50505050508152602001600282015481526020016003820180546119df906146ae565b80601f0160208091040260200160405190810160405280929190818152602001828054611a0b906146ae565b8015611a565780601f10611a2d57610100808354040283529160200191611a56565b820191905f5260205f20905b815481529060010190602001808311611a3957829003601f168201915b5050505050815260200160048201805480602002602001604051908101604052809291908181526020018280548015611aac57602002820191905f5260205f20905b815481526020019060010190808311611a98575b5050505050815250508152602001906001019061188b565b505050915250509052509392505050565b5f875f03611b2957604051806060016040528060348152602001615492603491396040517f08c379a00000000000000000000000000000000000000000000000000000000081526004016102049190614695565b611b3388336120c5565b611b3c86612226565b611b458861241b565b5f611b4e6124aa565b9050611b60818a8a8a8a8a8a8a6124fd565b60405188908a907fe91f86fd53c89629ca0bc01d0f219a6cd6730e5252f179944d1f3c9b5def1b07905f90a35095979650505050505050565b815f03611bec57604051806060016040528060348152602001615492603491396040517f08c379a00000000000000000000000000000000000000000000000000000000081526004016102049190614695565b611bf46124aa565b5f8381526001919091016020908152604080832084845290915290205460ff16611c7d57604080518082018252600c81527f496e76616c69642052756c650000000000000000000000000000000000000000602082015290517f08c379a00000000000000000000000000000000000000000000000000000000081526102049190600401614695565b611c8782336120c5565b611c908261241b565b5f611c99612522565b5f848152600191909101602090815260409182902060030180548351818402810184019094528084529091830182828015611d3257602002820191905f5260205f20905f905b82829054906101000a900460e01b7bffffffffffffffffffffffffffffffffffffffffffffffffffffffff191681526020019060040190602082600301049283019260010382029150808411611cdf5790505b509394505f93505050505b8151811015611f94575f611d4f612522565b6001015f8681526020019081526020015f206001016001015f848481518110611d7a57611d7a614726565b60200260200101517bffffffffffffffffffffffffffffffffffffffffffffffffffffffff19167bffffffffffffffffffffffffffffffffffffffffffffffffffffffff191681526020019081526020015f20805480602002602001604051908101604052809291908181526020018280548015611e1557602002820191905f5260205f20905b815481526020019060010190808311611e01575b505050505090505f60018251611e2b9190614780565b67ffffffffffffffff811115611e4357611e436146f9565b604051908082528060200260200182016040528015611e6c578160200160208202803683370190505b5090505f805b8351811015611ee95786848281518110611e8e57611e8e614726565b60200260200101510315611ee157838181518110611eae57611eae614726565b6020026020010151838381518110611ec857611ec8614726565b602090810291909101015281611edd81614793565b9250505b600101611e72565b5081611ef3612522565b6001015f8981526020019081526020015f206001016001015f878781518110611f1e57611f1e614726565b60200260200101517bffffffffffffffffffffffffffffffffffffffffffffffffffffffff19167bffffffffffffffffffffffffffffffffffffffffffffffffffffffff191681526020019081526020015f209080519060200190611f84929190613d83565b505060019092019150611d3d9050565b50611f9f838361254f565b611fa76124aa565b5f848152600191820160209081526040808320868452909152812080547fffffffffffffffffffffffffffffffffffffffffffffffffffffffffffffff0016815591820181611ff68282613dcc565b600182015f6120058282613dcc565b612012600183015f613de7565b61201f600283015f613e09565b5061202f9050600483015f613e24565b61203c600583015f613e24565b612049600683015f613e24565b612056600783015f613e3f565b612063600883015f613e3f565b50506040518492508591507f371b8107ab385e638477ce677851ddf910d57c3afc1bab409674a9e251cfb020905f90a3505050565b5f8061035660017fcd216e8e6f9888257c83a443dde6c2ee001ac067ce7d1a099cdea0655718c76e614780565b6040516024810183905273ffffffffffffffffffffffffffffffffffffffff821660448201525f908190612193907f901cee110000000000000000000000000000000000000000000000000000000090606401604080517fffffffffffffffffffffffffffffffffffffffffffffffffffffffffffffffe08184030181529190526020810180517bffffffffffffffffffffffffffffffffffffffffffffffffffffffff167f901cee1100000000000000000000000000000000000000000000000000000000179052613062565b915091505f821561221f5760048251106121b2575060208101516121b5565b505f5b8061221f57604080518082018252601881527f4e6f7420417574686f72697a656420546f20506f6c6963790000000000000000602082015290517f08c379a00000000000000000000000000000000000000000000000000000000081526102049190600401614695565b5050505050565b61223081806147ca565b90505f0361229d57604080518082018252601581527f456d70747920496e737472756374696f6e205365740000000000000000000000602082015290517f08c379a00000000000000000000000000000000000000000000000000000000081526102049190600401614695565b6122af6122aa82806147ca565b613123565b5f5b6122be602083018361482e565b6122cc9060208101906147ca565b90508110156123255761231d6122e5602084018461482e565b6122f39060208101906147ca565b8381811061230357612303614726565b90506020020160208101906123189190614876565b6133a3565b6001016122b1565b5061233b6123366040830183614891565b613426565b61234b6123366060830183614891565b61235b6123366080830183614891565b5f61236960a08301836147ca565b9050118061238457505f61238060c08301836147ca565b9050115b6040518060400160405280601d81526020017f4d7573742068617665206174206c65617374206f6e6520656666656374000000815250906123f2576040517f08c379a00000000000000000000000000000000000000000000000000000000081526004016102049190614695565b5061240861240360a08301836147ca565b613468565b61241861240360c08301836147ca565b50565b612423612522565b5f8281526001919091016020526040902060040154610100900460ff161561241857604080518082018252601f81527f4e6f7420616c6c6f77656420666f722063656d656e74656420706f6c69637900602082015290517f08c379a00000000000000000000000000000000000000000000000000000000081526102049190600401614695565b5f8061035660017f5c91f63a4ffcbd372b8ec622fd1fcaaa601b66330afdb30e5c292dd9123f20b0614780565b5f818152602083905260408120805482906124f190614793565b91829055509392505050565b61250988888888613524565b50612518878786868686613613565b5050505050505050565b5f8061035660017ff9dbd639dd2ea165d77dd4c51dec420100d51ceacf023b1c40faa045ba8f9a65614780565b5f612558613665565b90505f6125636124aa565b5f85815260019190910160209081526040808320868452825280832060050180548251818502810185019093528083529193909284015b82821015612637575f8481526020902060408051606081019091529083018054829060ff1660078111156125d0576125d061417d565b60078111156125e1576125e161417d565b8152905461010081046fffffffffffffffffffffffffffffffff166020808401919091527101000000000000000000000000000000000090910460ff16604090920191909152908252600192909201910161259a565b5050505090505f6126466124aa565b5f86815260019190910160209081526040808320878452825280832060060180548251818502810185019093528083529193909284015b8282101561271a575f8481526020902060408051606081019091529083018054829060ff1660078111156126b3576126b361417d565b60078111156126c4576126c461417d565b8152905461010081046fffffffffffffffffffffffffffffffff166020808401919091527101000000000000000000000000000000000090910460ff16604090920191909152908252600192909201910161267d565b5050505090505f6127296124aa565b5f87815260019190910160209081526040808320888452825280832060070180548251818502810185019093528083529193909284015b828210156127fd575f8481526020902060408051606081019091529083018054829060ff1660078111156127965761279661417d565b60078111156127a7576127a761417d565b8152905461010081046fffffffffffffffffffffffffffffffff166020808401919091527101000000000000000000000000000000000090910460ff166040909201919091529082526001929092019101612760565b509293505f925050505b8351811015612ad75761283784828151811061282557612825614726565b60200260200101516040015160021690565b15612acf575f5b856003015f8981526020019081526020015f205f86848151811061286457612864614726565b6020026020010151602001516fffffffffffffffffffffffffffffffff1681526020019081526020015f2080549050811015612acd575f888152600387016020526040812086518992908890869081106128c0576128c0614726565b6020026020010151602001516fffffffffffffffffffffffffffffffff1681526020019081526020015f2082815481106128fc576128fc614726565b905f5260205f20015403612abb57856003015f8981526020019081526020015f205f86848151811061293057612930614726565b6020026020010151602001516fffffffffffffffffffffffffffffffff1681526020019081526020015f206001876003015f8b81526020019081526020015f205f88868151811061298357612983614726565b6020026020010151602001516fffffffffffffffffffffffffffffffff1681526020019081526020015f20805490506129bc9190614780565b815481106129cc576129cc614726565b905f5260205f200154866003015f8a81526020019081526020015f205f8785815181106129fb576129fb614726565b6020026020010151602001516fffffffffffffffffffffffffffffffff1681526020019081526020015f208281548110612a3757612a37614726565b905f5260205f200181905550856003015f8981526020019081526020015f205f868481518110612a6957612a69614726565b6020026020010151602001516fffffffffffffffffffffffffffffffff1681526020019081526020015f20805480612aa357612aa36148f4565b600190038181905f5260205f20015f90559055612acd565b80612ac581614793565b91505061283e565b505b600101612807565b505f5b8251811015612d9857612af883828151811061282557612825614726565b15612d90575f5b856003015f8981526020019081526020015f205f858481518110612b2557612b25614726565b6020026020010151602001516fffffffffffffffffffffffffffffffff1681526020019081526020015f2080549050811015612d8e575f88815260038701602052604081208551899290879086908110612b8157612b81614726565b6020026020010151602001516fffffffffffffffffffffffffffffffff1681526020019081526020015f208281548110612bbd57612bbd614726565b905f5260205f20015403612d7c57856003015f8981526020019081526020015f205f858481518110612bf157612bf1614726565b6020026020010151602001516fffffffffffffffffffffffffffffffff1681526020019081526020015f206001876003015f8b81526020019081526020015f205f878681518110612c4457612c44614726565b6020026020010151602001516fffffffffffffffffffffffffffffffff1681526020019081526020015f2080549050612c7d9190614780565b81548110612c8d57612c8d614726565b905f5260205f200154866003015f8a81526020019081526020015f205f868581518110612cbc57612cbc614726565b6020026020010151602001516fffffffffffffffffffffffffffffffff1681526020019081526020015f208281548110612cf857612cf8614726565b905f5260205f200181905550856003015f8981526020019081526020015f205f858481518110612d2a57612d2a614726565b6020026020010151602001516fffffffffffffffffffffffffffffffff1681526020019081526020015f20805480612d6457612d646148f4565b600190038181905f5260205f20015f90559055612d8e565b80612d8681614793565b915050612aff565b505b600101612ada565b505f5b815181101561305957612db982828151811061282557612825614726565b15613051575f5b856003015f8981526020019081526020015f205f848481518110612de657612de6614726565b6020026020010151602001516fffffffffffffffffffffffffffffffff1681526020019081526020015f208054905081101561304f575f88815260038701602052604081208451899290869086908110612e4257612e42614726565b6020026020010151602001516fffffffffffffffffffffffffffffffff1681526020019081526020015f208281548110612e7e57612e7e614726565b905f5260205f2001540361303d57856003015f8981526020019081526020015f205f848481518110612eb257612eb2614726565b6020026020010151602001516fffffffffffffffffffffffffffffffff1681526020019081526020015f206001876003015f8b81526020019081526020015f205f868681518110612f0557612f05614726565b6020026020010151602001516fffffffffffffffffffffffffffffffff1681526020019081526020015f2080549050612f3e9190614780565b81548110612f4e57612f4e614726565b905f5260205f200154866003015f8a81526020019081526020015f205f858581518110612f7d57612f7d614726565b6020026020010151602001516fffffffffffffffffffffffffffffffff1681526020019081526020015f208281548110612fb957612fb9614726565b905f5260205f200181905550856003015f8981526020019081526020015f205f848481518110612feb57612feb614726565b6020026020010151602001516fffffffffffffffffffffffffffffffff1681526020019081526020015f20805480613025576130256148f4565b600190038181905f5260205f20015f9055905561304f565b8061304781614793565b915050612dc0565b505b600101612d9b565b50505050505050565b5f60605f61306e613692565b7fffffffff0000000000000000000000000000000000000000000000000000000086165f908152602082905260409081902054905191925073ffffffffffffffffffffffffffffffffffffffff169081906130ca908790614921565b5f60405180830381855af49150503d805f8114613102576040519150601f19603f3d011682016040523d82523d5f602084013e613107565b606091505b5090945092508361311a57825160208401fd5b50509250929050565b5f8080805b848110156132bf575f86868381811061314357613143614726565b90506020020135905083156131e457605a8111156131c057604080518082018252600f81527f4d656d6f7279204f766572666c6f770000000000000000000000000000000000602082015290517f08c379a00000000000000000000000000000000000000000000000000000000081526102049190600401614695565b60018511156131d9576131d285614937565b94506132ab565b5f93505f94506132ab565b6131ed83614793565b9250601381111561325d57604080518082018252601381527f496e76616c696420496e737472756374696f6e00000000000000000000000000602082015290517f08c379a00000000000000000000000000000000000000000000000000000000081526102049190600401614695565b8061326b57506001016132ad565b600381101561327d57600194506132a6565b601181101561328f57600294506132a6565b60128110156132a157600394506132a6565b600494505b600193505b505b806132b781614793565b915050613128565b505f8311806132cb5750815b1561333557604080518082018252601781527f496e76616c696420496e737472756374696f6e20536574000000000000000000602082015290517f08c379a00000000000000000000000000000000000000000000000000000000081526102049190600401614695565b605a81111561221f57604080518082018252601981527f496e737472756374696f6e2053657420546f6f204c6172676500000000000000602082015290517f08c379a00000000000000000000000000000000000000000000000000000000081526102049190600401614695565b6008808260078111156133b8576133b861417d565b1061342257604080518082018252601281527f496e76616c696420506172616d20547970650000000000000000000000000000602082015290517f08c379a00000000000000000000000000000000000000000000000000000000081526102049190600401614695565b5050565b5f5b818110156134635761345b83838381811061344557613445614726565b6123189260206060909202019081019150614876565b600101613428565b505050565b5f5b81811015613463576134af83838381811061348757613487614726565b9050602002810190613499919061496b565b6134aa9060608101906040016149a9565b6136bf565b6134e78383838181106134c4576134c4614726565b90506020028101906134d6919061496b565b612318906080810190606001614876565b61351c8383838181106134fc576134fc614726565b905060200281019061350e919061496b565b6122aa9060e08101906147ca565b60010161346a565b5f61352d612522565b5f858152600191909101602052604090205460ff166135ab57604080518082018252601581527f506f6c69637920646f6573206e6f742065786973740000000000000000000000602082015290517f08c379a00000000000000000000000000000000000000000000000000000000081526102049190600401614695565b5f84815260018681016020908152604080842087855290915290912080547fffffffffffffffffffffffffffffffffffffffffffffffffffffffffffffff0016821781558391016135fc8282615394565b90505061360a85858561373e565b50909392505050565b5f61361c612098565b5f888152602082815260408083208a84529091529020909150613640858783614c06565b505f878152602082815260408083208984529091529020600101612518838583614c06565b5f8061035660017f438102ff677bc3f21830c58117a05d6b953b31e3ea339da3f17957cd3941a690614780565b5f8061035660017fbe498a3b14fd79a48c3c9af86ff14271ed497d09071013334028d28e7791db20614780565b6003808260028111156136d4576136d461417d565b1061342257604080518082018252601381527f496e76616c696420456666656374205479706500000000000000000000000000602082015290517f08c379a00000000000000000000000000000000000000000000000000000000081526102049190600401614695565b5f613747613665565b5f8481526001860160209081526040808320868452825280832060050180548251818502810185019093528083529495509293909291849084015b8282101561381f575f8481526020902060408051606081019091529083018054829060ff1660078111156137b8576137b861417d565b60078111156137c9576137c961417d565b8152905461010081046fffffffffffffffffffffffffffffffff166020808401919091527101000000000000000000000000000000000090910460ff166040909201919091529082526001929092019101613782565b5050505f868152600188016020908152604080832088845282528083206006018054825181850281018501909352808352959650929490935090849084015b828210156138fb575f8481526020902060408051606081019091529083018054829060ff1660078111156138945761389461417d565b60078111156138a5576138a561417d565b8152905461010081046fffffffffffffffffffffffffffffffff166020808401919091527101000000000000000000000000000000000090910460ff16604090920191909152908252600192909201910161385e565b5050505f878152600189016020908152604080832089845282528083206007018054825181850281018501909352808352959650929490935090849084015b828210156139d7575f8481526020902060408051606081019091529083018054829060ff1660078111156139705761397061417d565b60078111156139815761398161417d565b8152905461010081046fffffffffffffffffffffffffffffffff166020808401919091527101000000000000000000000000000000000090910460ff16604090920191909152908252600192909201910161393a565b509293505f925050505b8351811015613ae8576139ff84828151811061282557612825614726565b15613ae0575f848281518110613a1757613a17614726565b60209081029190910181015101516fffffffffffffffffffffffffffffffff1690505f805b5f8a81526003890160209081526040808320868452909152902054811015613aac575f8a81526003890160209081526040808320868452909152902080548a919083908110613a8d57613a8d614726565b905f5260205f20015403613aa45760019150613aac565b600101613a3c565b5080613add575f89815260038801602090815260408083208584528252822080546001810182559083529120018890555b50505b6001016139e1565b505f805b8351811015613bf157613b0a84828151811061282557612825614726565b15613be957838181518110613b2157613b21614726565b60209081029190910181015101516fffffffffffffffffffffffffffffffff1691505f805b5f8a81526003890160209081526040808320878452909152902054811015613bb6575f8a81526003890160209081526040808320878452909152902080548a919083908110613b9757613b97614726565b905f5260205f20015403613bae5760019150613bb6565b600101613b46565b5080613be7575f89815260038801602090815260408083208684528252822080546001810182559083529120018890555b505b600101613aec565b505f5b8251811015613cf957613c1283828151811061282557612825614726565b15613cf157828181518110613c2957613c29614726565b60209081029190910181015101516fffffffffffffffffffffffffffffffff1691505f805b5f8a81526003890160209081526040808320878452909152902054811015613cee575f8a81526003890160209081526040808320878452909152902080548a919083908110613c9f57613c9f614726565b905f5260205f20015403613cb65760019150613cee565b81613ce6575f8a815260038901602090815260408083208784528252822080546001810182559083529120018990555b600101613c4e565b50505b600101613bf4565b505050505050505050565b6040518060e0016040528060608152602001613d3a60405180606001604052806060815260200160608152602001606081525090565b815260200160608152602001606081526020016060815260200160608152602001606081525090565b60405180604001604052805f15158152602001613d7e613d04565b905290565b828054828255905f5260205f20908101928215613dbc579160200282015b82811115613dbc578251825591602001919060010190613da1565b50613dc8929150613e5d565b5090565b5080545f8255905f5260205f20908101906124189190613e5d565b5080545f8255601f0160209004905f5260205f20908101906124189190613e5d565b5080545f8255905f5260205f20908101906124189190613e71565b5080545f8255905f5260205f20908101906124189190613e8d565b5080545f8255600502905f5260205f20908101906124189190613ec4565b5b80821115613dc8575f8155600101613e5e565b80821115613dc8575f613e848282613f2c565b50600101613e71565b5b80821115613dc85780547fffffffffffffffffffffffffffff000000000000000000000000000000000000168155600101613e8e565b80821115613dc85780547fffffffffffffffffffffffffffffffffffffffffffffffffffffffff000000001681555f613f006001830182613f2c565b600282015f9055600382015f613f169190613f2c565b613f23600483015f613dcc565b50600501613ec4565b508054613f38906146ae565b5f825580601f10613f47575050565b601f0160209004905f5260205f20908101906124189190613e5d565b5f5f60408385031215613f74575f5ffd5b50508035926020909101359150565b5f81518084528060208401602086015e5f6020828601015260207fffffffffffffffffffffffffffffffffffffffffffffffffffffffffffffffe0601f83011685010191505092915050565b602081525f825160406020840152613fea6060840182613f83565b905060208401517fffffffffffffffffffffffffffffffffffffffffffffffffffffffffffffffe08483030160408501526140258282613f83565b95945050505050565b5f60e0828403121561403e575f5ffd5b50919050565b5f5f83601f840112614054575f5ffd5b50813567ffffffffffffffff81111561406b575f5ffd5b602083019150836020828501011115614082575f5ffd5b9250929050565b5f5f5f5f5f5f6080878903121561409e575f5ffd5b86359550602087013567ffffffffffffffff8111156140bb575f5ffd5b6140c789828a0161402e565b955050604087013567ffffffffffffffff8111156140e3575f5ffd5b6140ef89828a01614044565b909550935050606087013567ffffffffffffffff81111561410e575f5ffd5b61411a89828a01614044565b979a9699509497509295939492505050565b5f6020828403121561413c575f5ffd5b5035919050565b5f8151808452602084019350602083015f5b82811015614173578151865260209586019590910190600101614155565b5093949350505050565b7f4e487b71000000000000000000000000000000000000000000000000000000005f52602160045260245ffd5b600881106141ba576141ba61417d565b9052565b5f8151606084526141d26060850182614143565b60208481015186830387830152805180845290820193505f92909101905b8083101561421a576142038285516141aa565b6020820191506020840193506001830192506141f0565b50604085015192508581036040870152809150825180825260208201925060208160051b8301016020850194505f5b82811015614298577fffffffffffffffffffffffffffffffffffffffffffffffffffffffffffffffe0848303018552614283828751613f83565b60209687019695909501949150600101614249565b50979650505050505050565b5f8151808452602084019350602083015f5b828110156141735781516142cb8782516141aa565b6fffffffffffffffffffffffffffffffff602082015116602088015260ff6040820151166040880152506060860195506020820191506001810190506142b6565b600381106141ba576141ba61417d565b5f82825180855260208501945060208160051b830101602085015f5b8381101561441b578483037fffffffffffffffffffffffffffffffffffffffffffffffffffffffffffffffe001885281518051151584526020810151614382602086018215159052565b506040810151614395604086018261430c565b5060608101516143a860608601826141aa565b50608081015161010060808601526143c4610100860182613f83565b905060a082015160a086015260c082015185820360c08701526143e78282613f83565b91505060e0820151915084810360e08601526144038183614143565b60209a8b019a90955093909301925050600101614338565b50909695505050505050565b5f815160e0845261443b60e0850182614143565b90506020830151848203602086015261445482826141be565b9150506040830151848203604086015261446e82826142a4565b9150506060830151848203606086015261448882826142a4565b915050608083015184820360808601526144a282826142a4565b91505060a083015184820360a08601526144bc828261431c565b91505060c083015184820360c0860152614025828261431c565b5f602082016020835280845180835260408501915060408160051b8601019250602086015f5b828110156145af578685037fffffffffffffffffffffffffffffffffffffffffffffffffffffffffffffffc0018452815180518087526020918201918088019190600582901b8901015f5b82811015614596577fffffffffffffffffffffffffffffffffffffffffffffffffffffffffffffffe08a8303018452614581828651614427565b60209586019594909401939150600101614547565b50975050506020948501949290920191506001016144fc565b50929695505050505050565b602081528151151560208201525f60208301516040808401526145e16060840182614427565b949350505050565b5f5f5f5f5f5f5f60a0888a0312156145ff575f5ffd5b8735965060208801359550604088013567ffffffffffffffff811115614623575f5ffd5b61462f8a828b0161402e565b955050606088013567ffffffffffffffff81111561464b575f5ffd5b6146578a828b01614044565b909550935050608088013567ffffffffffffffff811115614676575f5ffd5b6146828a828b01614044565b989b979a50959850939692959293505050565b602081525f6146a76020830184613f83565b9392505050565b600181811c908216806146c257607f821691505b60208210810361403e577f4e487b71000000000000000000000000000000000000000000000000000000005f52602260045260245ffd5b7f4e487b71000000000000000000000000000000000000000000000000000000005f52604160045260245ffd5b7f4e487b71000000000000000000000000000000000000000000000000000000005f52603260045260245ffd5b7f4e487b71000000000000000000000000000000000000000000000000000000005f52601160045260245ffd5b8181038181111561035657610356614753565b5f7fffffffffffffffffffffffffffffffffffffffffffffffffffffffffffffffff82036147c3576147c3614753565b5060010190565b5f5f83357fffffffffffffffffffffffffffffffffffffffffffffffffffffffffffffffe18436030181126147fd575f5ffd5b83018035915067ffffffffffffffff821115614817575f5ffd5b6020019150600581901b3603821315614082575f5ffd5b5f82357fffffffffffffffffffffffffffffffffffffffffffffffffffffffffffffffa1833603018112614860575f5ffd5b9190910192915050565b60088110612418575f5ffd5b5f60208284031215614886575f5ffd5b81356146a78161486a565b5f5f83357fffffffffffffffffffffffffffffffffffffffffffffffffffffffffffffffe18436030181126148c4575f5ffd5b83018035915067ffffffffffffffff8211156148de575f5ffd5b6020019150606081023603821315614082575f5ffd5b7f4e487b71000000000000000000000000000000000000000000000000000000005f52603160045260245ffd5b5f82518060208501845e5f920191825250919050565b5f8161494557614945614753565b507fffffffffffffffffffffffffffffffffffffffffffffffffffffffffffffffff0190565b5f82357fffffffffffffffffffffffffffffffffffffffffffffffffffffffffffffff01833603018112614860575f5ffd5b60038110612418575f5ffd5b5f602082840312156149b9575f5ffd5b81356146a78161499d565b5b81811015613422575f81556001016149c5565b680100000000000000008211156149f1576149f16146f9565b80548282558083101561346357815f5260205f20614a138282018583016149c4565b50505050565b67ffffffffffffffff831115614a3157614a316146f9565b614a3b83826149d8565b81815f5260205f205f5b85811015614a6157823582820155602090920191600101614a45565b505050505050565b68010000000000000000821115614a8257614a826146f9565b80548282558083101561346357815f5260205f20601f840160051c8101601f85168015614afc577fffffffffffffffffffffffffffffffffffffffffffffffffffffffffffffffff820180547fffffffffffffffffffffffffffffffffffffffffffffffffffffffffffffffff8360200360031b1c168155505b5061221f601f840160051c8301826149c4565b5f81356103568161486a565b5f5f83357fffffffffffffffffffffffffffffffffffffffffffffffffffffffffffffffe1843603018112614b4e575f5ffd5b83018035915067ffffffffffffffff821115614b68575f5ffd5b602001915036819003821315614082575f5ffd5b8054614b87906146ae565b801561342257601f811160018114614ba05750505f9055565b5f83815260209020614bbd601f840160051c8201600183016149c4565b505f8381526020812081855555505050565b601f82111561346357805f5260205f20601f840160051c81016020851015614bf45750805b61221f601f850160051c8301826149c4565b67ffffffffffffffff831115614c1e57614c1e6146f9565b614c3283614c2c83546146ae565b83614bcf565b5f601f841160018114614c82575f8515614c4c5750838201355b7fffffffffffffffffffffffffffffffffffffffffffffffffffffffffffffffff600387901b1c1916600186901b17835561221f565b5f838152602081207fffffffffffffffffffffffffffffffffffffffffffffffffffffffffffffffe08716915b82811015614ccf5786850135825560209485019460019092019101614caf565b5086821015614d0a577fffffffffffffffffffffffffffffffffffffffffffffffffffffffffffffffff60f88860031b161c19848701351681555b505060018560011b0183555050505050565b68010000000000000000831115614d3557614d356146f9565b805483825580841015614d70575f828152602090208481019082015b80821015614d6d57614d6282614b7c565b600182019150614d51565b50505b505f8181526020812083915b85811015614a6157614d8e8386614b1b565b614d99818386614c06565b50506020929092019160019182019101614d7c565b614db882836147ca565b67ffffffffffffffff811115614dd057614dd06146f9565b614dda81846149d8565b825f5260205f205f5b82811015614dff57833582820155602090930192600101614de3565b5050505060018101614e1460208401846147ca565b67ffffffffffffffff811115614e2c57614e2c6146f9565b614e368184614a69565b5f8381526020902092508060051c5f5b81811015614e9b575f5f5b6020811015614e8e57614e7d614e6687614b0f565b60ff908116600384901b90811b91901b1984161790565b602096909601959150600101614e51565b5085820155600101614e46565b507fffffffffffffffffffffffffffffffffffffffffffffffffffffffffffffffe08216808303818414614ef7575f5f5b82811015614ef157614ee0614e6688614b0f565b602097909701969150600101614ecc565b50868401555b505050505050614f0a60408301836147ca565b614a13818360028601614d1c565b8135614f238161486a565b60088110614f3357614f3361417d565b815460ff82169150817fffffffffffffffffffffffffffffffffffffffffffffffffffffffffffffff00821617835560208401356fffffffffffffffffffffffffffffffff81168114614f84575f5ffd5b70ffffffffffffffffffffffffffffffff008160081b16837fffffffffffffffffffffffffffffff0000000000000000000000000000000000841617178455505050604082013560ff81168114614fd9575f5ffd5b81547fffffffffffffffffffffffffffff00ffffffffffffffffffffffffffffffffff1660889190911b71ff00000000000000000000000000000000001617905550565b68010000000000000000831115615036576150366146f9565b80548382558084101561506b575f828152602090208481019082015b80821015615068575f8255600182019150615052565b50505b505f8181526020812083915b85811015614a61576150898383614f18565b6060929092019160019182019101615077565b80545f8255801561342257815f5260205f20613463828201826149c4565b5f81358015158114610356575f5ffd5b5f81356103568161499d565b600382106150e6576150e661417d565b805462ff00008360101b167fffffffffffffffffffffffffffffffffffffffffffffffffffffffffff00ffff8216178255505050565b6008821061512c5761512c61417d565b805463ff0000008360181b167fffffffffffffffffffffffffffffffffffffffffffffffffffffffff00ffffff8216178255505050565b61516c826150ba565b15157fffffffffffffffffffffffffffffffffffffffffffffffffffffffffffffff0082541660ff82168117835550506151e26151ab602084016150ba565b8280547fffffffffffffffffffffffffffffffffffffffffffffffffffffffffffff00ff1691151560081b61ff0016919091179055565b6151f76151f1604084016150ca565b826150d6565b61520c61520660608401614b0f565b8261511c565b6152196080830183614b1b565b615227818360018601614c06565b505060a0820135600282015561524060c0830183614b1b565b61524e818360038601614c06565b505061525d60e08301836147ca565b614a13818360048601614a19565b68010000000000000000831115615284576152846146f9565b80548382558084101561535757806005026005810482146152a7576152a7614753565b846005026005810486146152bd576152bd614753565b5f8481526020902091820191015b81811015615354575f81556152e260018201614b7c565b5f60028201556003810180546152f7906146ae565b801561533e57601f811160018114615311575f835561533c565b5f8381526020902061532e601f840160051c8201600183016149c4565b505f83815260208120818555555b505b505061534c6004820161509c565b6005016152cb565b50505b505f8181526020812083915b85811015614a615761537e615378848761496b565b83615163565b6020929092019160059190910190600101615363565b61539e82836147ca565b67ffffffffffffffff8111156153b6576153b66146f9565b6153c081846149d8565b825f5260205f205f5b828110156153e5578335828201556020909301926001016153c9565b505050506154026153f9602084018461482e565b60018301614dae565b61540f6040830183614891565b61541d81836004860161501d565b505061542c6060830183614891565b61543a81836005860161501d565b50506154496080830183614891565b61545781836006860161501d565b505061546660a08301836147ca565b61547481836007860161526b565b505061548360c08301836147ca565b614a1381836008860161526b56fe506f6c6963792049442063616e6e6f7420626520302e2043726561746520706f6c696379206265666f7265207570646174696e67a2646970667358221220a3e0a9cff6d07cf4484b19b9060c9ae04a836bcfa78c07da46252503227e9f2764736f6c634300081c0033","linkReferences":{}},"methodIdentifiers":{"createRule(uint256,(uint256[],(uint256[],uint8[],bytes[]),(uint8,uint128,uint8)[],(uint8,uint128,uint8)[],(uint8,uint128,uint8)[],(bool,bool,uint8,uint8,bytes,bytes32,string,uint256[])[],(bool,bool,uint8,uint8,bytes,bytes32,string,uint256[])[]),string,string)":"1809418e","deleteRule(uint256,uint256)":"a31c8ebb","getAllRules(uint256)":"266fc8a5","getMemorySize()":"59c8075b","getOpsSize1()":"49fd266d","getOpsSizeUpTo2()":"54daa681","getOpsSizeUpTo3()":"bef087a3","getOpsTotalSize()":"d951e134","getRule(uint256,uint256)":"6d279ef8","getRuleMetadata(uint256,uint256)":"12602c40","updateRule(uint256,uint256,(uint256[],(uint256[],uint8[],bytes[]),(uint8,uint128,uint8)[],(uint8,uint128,uint8)[],(uint8,uint128,uint8)[],(bool,bool,uint8,uint8,bytes,bytes32,string,uint256[])[],(bool,bool,uint8,uint8,bytes,bytes32,string,uint256[])[]),string,string)":"72e1c308"},"id":81}