{"abi":[{"type":"function","name":"addAdminToPermissionList","inputs":[{"name":"foriegnCallAddress","type":"address","internalType":"address"},{"name":"policyAdminsToAdd","type":"address","internalType":"address"},{"name":"selector","type":"bytes4","internalType":"bytes4"}],"outputs":[],"stateMutability":"nonpayable"},{"type":"function","name":"createForeignCall","inputs":[{"name":"_policyId","type":"uint256","internalType":"uint256"},{"name":"_foreignCall","type":"tuple","internalType":"struct ForeignCall","components":[{"name":"set","type":"bool","internalType":"bool"},{"name":"foreignCallAddress","type":"address","internalType":"address"},{"name":"signature","type":"bytes4","internalType":"bytes4"},{"name":"returnType","type":"uint8","internalType":"enum ParamTypes"},{"name":"foreignCallIndex","type":"uint256","internalType":"uint256"},{"name":"parameterTypes","type":"uint8[]","internalType":"enum ParamTypes[]"},{"name":"encodedIndices","type":"tuple[]","internalType":"struct ForeignCallEncodedIndex[]","components":[{"name":"eType","type":"uint8","internalType":"enum EncodedIndexType"},{"name":"index","type":"uint256","internalType":"uint256"}]},{"name":"mappedTrackerKeyIndices","type":"tuple[]","internalType":"struct ForeignCallEncodedIndex[]","components":[{"name":"eType","type":"uint8","internalType":"enum EncodedIndexType"},{"name":"index","type":"uint256","internalType":"uint256"}]},{"name":"callingFunctionIndex","type":"uint256","internalType":"uint256"}]},{"name":"foreignCallName","type":"string","internalType":"string"}],"outputs":[{"name":"","type":"uint256","internalType":"uint256"}],"stateMutability":"nonpayable"},{"type":"function","name":"deleteForeignCall","inputs":[{"name":"policyId","type":"uint256","internalType":"uint256"},{"name":"foreignCallId","type":"uint256","internalType":"uint256"}],"outputs":[],"stateMutability":"nonpayable"},{"type":"function","name":"getAllForeignCalls","inputs":[{"name":"policyId","type":"uint256","internalType":"uint256"}],"outputs":[{"name":"","type":"tuple[]","internalType":"struct ForeignCall[]","components":[{"name":"set","type":"bool","internalType":"bool"},{"name":"foreignCallAddress","type":"address","internalType":"address"},{"name":"signature","type":"bytes4","internalType":"bytes4"},{"name":"returnType","type":"uint8","internalType":"enum ParamTypes"},{"name":"foreignCallIndex","type":"uint256","internalType":"uint256"},{"name":"parameterTypes","type":"uint8[]","internalType":"enum ParamTypes[]"},{"name":"encodedIndices","type":"tuple[]","internalType":"struct ForeignCallEncodedIndex[]","components":[{"name":"eType","type":"uint8","internalType":"enum EncodedIndexType"},{"name":"index","type":"uint256","internalType":"uint256"}]},{"name":"mappedTrackerKeyIndices","type":"tuple[]","internalType":"struct ForeignCallEncodedIndex[]","components":[{"name":"eType","type":"uint8","internalType":"enum EncodedIndexType"},{"name":"index","type":"uint256","internalType":"uint256"}]},{"name":"callingFunctionIndex","type":"uint256","internalType":"uint256"}]}],"stateMutability":"view"},{"type":"function","name":"getAllPermissionedFCs","inputs":[],"outputs":[{"name":"","type":"tuple","internalType":"struct PermissionedForeignCallStorage","components":[{"name":"permissionedForeignCallAddresses","type":"address[]","internalType":"address[]"},{"name":"permissionedForeignCallSignatures","type":"bytes4[]","internalType":"bytes4[]"}]}],"stateMutability":"pure"},{"type":"function","name":"getForeignCall","inputs":[{"name":"policyId","type":"uint256","internalType":"uint256"},{"name":"foreignCallId","type":"uint256","internalType":"uint256"}],"outputs":[{"name":"","type":"tuple","internalType":"struct ForeignCall","components":[{"name":"set","type":"bool","internalType":"bool"},{"name":"foreignCallAddress","type":"address","internalType":"address"},{"name":"signature","type":"bytes4","internalType":"bytes4"},{"name":"returnType","type":"uint8","internalType":"enum ParamTypes"},{"name":"foreignCallIndex","type":"uint256","internalType":"uint256"},{"name":"parameterTypes","type":"uint8[]","internalType":"enum ParamTypes[]"},{"name":"encodedIndices","type":"tuple[]","internalType":"struct ForeignCallEncodedIndex[]","components":[{"name":"eType","type":"uint8","internalType":"enum EncodedIndexType"},{"name":"index","type":"uint256","internalType":"uint256"}]},{"name":"mappedTrackerKeyIndices","type":"tuple[]","internalType":"struct ForeignCallEncodedIndex[]","components":[{"name":"eType","type":"uint8","internalType":"enum EncodedIndexType"},{"name":"index","type":"uint256","internalType":"uint256"}]},{"name":"callingFunctionIndex","type":"uint256","internalType":"uint256"}]}],"stateMutability":"view"},{"type":"function","name":"getForeignCallMetadata","inputs":[{"name":"policyId","type":"uint256","internalType":"uint256"},{"name":"foreignCallId","type":"uint256","internalType":"uint256"}],"outputs":[{"name":"","type":"string","internalType":"string"}],"stateMutability":"view"},{"type":"function","name":"getForeignCallPermissionList","inputs":[{"name":"foriegnCallAddress","type":"address","internalType":"address"},{"name":"selector","type":"bytes4","internalType":"bytes4"}],"outputs":[{"name":"","type":"address[]","internalType":"address[]"}],"stateMutability":"view"},{"type":"function","name":"removeAllFromPermissionList","inputs":[{"name":"foriegnCallAddress","type":"address","internalType":"address"},{"name":"selector","type":"bytes4","internalType":"bytes4"}],"outputs":[],"stateMutability":"nonpayable"},{"type":"function","name":"removeForeignCallPermissions","inputs":[{"name":"_foriegnCallAddress","type":"address","internalType":"address"},{"name":"_selector","type":"bytes4","internalType":"bytes4"}],"outputs":[],"stateMutability":"nonpayable"},{"type":"function","name":"removeFromPermissionList","inputs":[{"name":"_foriegnCallAddress","type":"address","internalType":"address"},{"name":"_selector","type":"bytes4","internalType":"bytes4"},{"name":"policyAdminToRemove","type":"address","internalType":"address"}],"outputs":[],"stateMutability":"nonpayable"},{"type":"function","name":"updateForeignCall","inputs":[{"name":"policyId","type":"uint256","internalType":"uint256"},{"name":"foreignCallId","type":"uint256","internalType":"uint256"},{"name":"foreignCall","type":"tuple","internalType":"struct ForeignCall","components":[{"name":"set","type":"bool","internalType":"bool"},{"name":"foreignCallAddress","type":"address","internalType":"address"},{"name":"signature","type":"bytes4","internalType":"bytes4"},{"name":"returnType","type":"uint8","internalType":"enum ParamTypes"},{"name":"foreignCallIndex","type":"uint256","internalType":"uint256"},{"name":"parameterTypes","type":"uint8[]","internalType":"enum ParamTypes[]"},{"name":"encodedIndices","type":"tuple[]","internalType":"struct ForeignCallEncodedIndex[]","components":[{"name":"eType","type":"uint8","internalType":"enum EncodedIndexType"},{"name":"index","type":"uint256","internalType":"uint256"}]},{"name":"mappedTrackerKeyIndices","type":"tuple[]","internalType":"struct ForeignCallEncodedIndex[]","components":[{"name":"eType","type":"uint8","internalType":"enum EncodedIndexType"},{"name":"index","type":"uint256","internalType":"uint256"}]},{"name":"callingFunctionIndex","type":"uint256","internalType":"uint256"}]}],"outputs":[{"name":"fc","type":"tuple","internalType":"struct ForeignCall","components":[{"name":"set","type":"bool","internalType":"bool"},{"name":"foreignCallAddress","type":"address","internalType":"address"},{"name":"signature","type":"bytes4","internalType":"bytes4"},{"name":"returnType","type":"uint8","internalType":"enum ParamTypes"},{"name":"foreignCallIndex","type":"uint256","internalType":"uint256"},{"name":"parameterTypes","type":"uint8[]","internalType":"enum ParamTypes[]"},{"name":"encodedIndices","type":"tuple[]","internalType":"struct ForeignCallEncodedIndex[]","components":[{"name":"eType","type":"uint8","internalType":"enum EncodedIndexType"},{"name":"index","type":"uint256","internalType":"uint256"}]},{"name":"mappedTrackerKeyIndices","type":"tuple[]","internalType":"struct ForeignCallEncodedIndex[]","components":[{"name":"eType","type":"uint8","internalType":"enum EncodedIndexType"},{"name":"index","type":"uint256","internalType":"uint256"}]},{"name":"callingFunctionIndex","type":"uint256","internalType":"uint256"}]}],"stateMutability":"nonpayable"},{"type":"function","name":"updatePermissionList","inputs":[{"name":"foriegnCallAddress","type":"address","internalType":"address"},{"name":"selector","type":"bytes4","internalType":"bytes4"},{"name":"policyAdminsToAdd","type":"address[]","internalType":"address[]"}],"outputs":[],"stateMutability":"nonpayable"},{"type":"event","name":"AdminAddedToForeignCallPermissions","inputs":[{"name":"foreignCallContract","type":"address","indexed":true,"internalType":"address"},{"name":"selector","type":"bytes4","indexed":true,"internalType":"bytes4"},{"name":"adminAddress","type":"address","indexed":true,"internalType":"address"}],"anonymous":false},{"type":"event","name":"ForeignCallCreated","inputs":[{"name":"policyId","type":"uint256","indexed":true,"internalType":"uint256"},{"name":"foreignCallId","type":"uint256","indexed":true,"internalType":"uint256"}],"anonymous":false},{"type":"event","name":"ForeignCallDeleted","inputs":[{"name":"policyId","type":"uint256","indexed":true,"internalType":"uint256"},{"name":"foreignCallId","type":"uint256","indexed":true,"internalType":"uint256"}],"anonymous":false},{"type":"event","name":"ForeignCallPermissionsListReset","inputs":[{"name":"foreignCallContract","type":"address","indexed":true,"internalType":"address"},{"name":"selector","type":"bytes4","indexed":true,"internalType":"bytes4"}],"anonymous":false},{"type":"event","name":"ForeignCallPermissionsListUpdate","inputs":[{"name":"foreignCallContract","type":"address","indexed":true,"internalType":"address"},{"name":"selector","type":"bytes4","indexed":true,"internalType":"bytes4"},{"name":"adminAddresses","type":"address[]","indexed":true,"internalType":"address[]"}],"anonymous":false},{"type":"event","name":"ForeignCallPermissionsRemoved","inputs":[{"name":"foreignCallContract","type":"address","indexed":true,"internalType":"address"},{"name":"selector","type":"bytes4","indexed":true,"internalType":"bytes4"}],"anonymous":false},{"type":"event","name":"ForeignCallUpdated","inputs":[{"name":"policyId","type":"uint256","indexed":true,"internalType":"uint256"},{"name":"foreignCallId","type":"uint256","indexed":true,"internalType":"uint256"}],"anonymous":false}],"bytecode":{"object":"0x6080604052348015600e575f5ffd5b50613ef98061001c5f395ff3fe608060405234801561000f575f5ffd5b50600436106100da575f3560e01c8063d82260c811610088578063edf4b8b911610063578063edf4b8b9146101c7578063ef3ea06c146101da578063f0e9d744146101ed578063f69187ee14610200575f5ffd5b8063d82260c814610181578063da7d5d2814610194578063e06e2b00146101b4575f5ffd5b80638f470037116100b85780638f4700371461012c57806392ee33ae14610141578063a3937e9914610161575f5ffd5b8063028206ac146100de5780630d5d9cb0146100f35780636071d6b614610106575b5f5ffd5b6100f16100ec366004612ae0565b610220565b005b6100f1610101366004612c14565b61050d565b610119610114366004612cf0565b6108c4565b6040519081526020015b60405180910390f35b610134610958565b6040516101239190612d8d565b61015461014f366004612e7d565b610a7d565b6040516101239190612eb4565b61017461016f366004612f01565b610b42565b60405161012391906130cf565b6100f161018f366004613150565b610f21565b6101a76101a2366004613150565b610fe5565b6040516101239190613170565b6100f16101c2366004613189565b6112e4565b6101a76101d53660046131c6565b611455565b6100f16101e8366004612e7d565b611527565b6100f16101fb366004612e7d565b6116f4565b61021361020e366004613150565b611c35565b6040516101239190613212565b61022b833384611cd9565b5f610234611e54565b73ffffffffffffffffffffffffffffffffffffffff8581165f908152600392909201602090815260408084207fffffffff000000000000000000000000000000000000000000000000000000008816855282528084209286168452919052812080547fffffffffffffffffffffffffffffffffffffffffffffffffffffffffffffff0016921515929092179091556102ca611e54565b73ffffffffffffffffffffffffffffffffffffffff85165f908152600491909101602090815260408083207fffffffff0000000000000000000000000000000000000000000000000000000087168452909152812091505b815481101561048d578273ffffffffffffffffffffffffffffffffffffffff1682828154811061035457610354613265565b5f9182526020909120015473ffffffffffffffffffffffffffffffffffffffff1603610485578154829061038a906001906132bf565b8154811061039a5761039a613265565b905f5260205f20015f9054906101000a900473ffffffffffffffffffffffffffffffffffffffff168282815481106103d4576103d4613265565b905f5260205f20015f6101000a81548173ffffffffffffffffffffffffffffffffffffffff021916908373ffffffffffffffffffffffffffffffffffffffff16021790555081805480610429576104296132d2565b5f8281526020902081017fffffffffffffffffffffffffffffffffffffffffffffffffffffffffffffffff90810180547fffffffffffffffffffffffff000000000000000000000000000000000000000016905501905561048d565b600101610322565b508060405161049c91906132ff565b604051908190038120907fffffffff0000000000000000000000000000000000000000000000000000000085169073ffffffffffffffffffffffffffffffffffffffff8716907fb58e00a4bda1b49dca44b68b8c6d7350e8afef69a6f7f9241c971d2116b239a0905f90a450505050565b610518833384611cd9565b5f6105238484610a7d565b905061052d611e54565b73ffffffffffffffffffffffffffffffffffffffff85165f908152600491909101602090815260408083207fffffffff0000000000000000000000000000000000000000000000000000000087168452909152812061058b916129c7565b5f5b815181101561066f575f61059f611e54565b73ffffffffffffffffffffffffffffffffffffffff87165f908152600391909101602090815260408083207fffffffff00000000000000000000000000000000000000000000000000000000891684529091528120845190919085908590811061060b5761060b613265565b60209081029190910181015173ffffffffffffffffffffffffffffffffffffffff1682528101919091526040015f2080547fffffffffffffffffffffffffffffffffffffffffffffffffffffffffffffff001691151591909117905560010161058d565b505f5b82518110156108b557610683611e54565b73ffffffffffffffffffffffffffffffffffffffff86165f908152600491909101602090815260408083207fffffffff0000000000000000000000000000000000000000000000000000000088168452909152902083518490839081106106ec576106ec613265565b6020908102919091018101518254600180820185555f9485529290932090920180547fffffffffffffffffffffffff00000000000000000000000000000000000000001673ffffffffffffffffffffffffffffffffffffffff90931692909217909155610757611e54565b73ffffffffffffffffffffffffffffffffffffffff87165f908152600391909101602090815260408083207fffffffff0000000000000000000000000000000000000000000000000000000089168452909152812085519091908690859081106107c3576107c3613265565b602002602001015173ffffffffffffffffffffffffffffffffffffffff1673ffffffffffffffffffffffffffffffffffffffff1681526020019081526020015f205f6101000a81548160ff02191690831515021790555082818151811061082c5761082c613265565b602002602001015173ffffffffffffffffffffffffffffffffffffffff16847bffffffffffffffffffffffffffffffffffffffffffffffffffffffff19168673ffffffffffffffffffffffffffffffffffffffff167f2a60b6a2eb5984d2479df172f3d9b813931c413ee94ceb51971dc6fd45f6ac5260405160405180910390a4600101610672565b508160405161049c919061334e565b5f6108cf8533611e81565b6108d885611fe2565b6109006108eb604086016020870161338e565b6108fb60608701604088016133a9565b612074565b5f61090a8661219c565b90506109178686836121ce565b610923868286866121f7565b604051819087907f9006068daf408b7e36a22c789f04c4ba9c6c638a6cf8438c2250583384f2192f905f90a395945050505050565b60408051808201909152606080825260208201526109746122d8565b60408051825460606020820283018101845292820181815291939284929184918401828280156109d857602002820191905f5260205f20905b815473ffffffffffffffffffffffffffffffffffffffff1681526001909101906020018083116109ad575b5050505050815260200160018201805480602002602001604051908101604052809291908181526020018280548015610a6f57602002820191905f5260205f20905f905b82829054906101000a900460e01b7bffffffffffffffffffffffffffffffffffffffffffffffffffffffff191681526020019060040190602082600301049283019260010382029150808411610a1c5790505b505050505081525050905090565b6060610a87611e54565b73ffffffffffffffffffffffffffffffffffffffff84165f908152600491909101602090815260408083207fffffffff000000000000000000000000000000000000000000000000000000008616845282529182902080548351818402810184019094528084529091830182828015610b3457602002820191905f5260205f20905b815473ffffffffffffffffffffffffffffffffffffffff168152600190910190602001808311610b09575b505050505090505b92915050565b60605f610b4d611e54565b5f848152602091909152604081205491508167ffffffffffffffff811115610b7757610b77612b28565b604051908082528060200260200182016040528015610bf457816020015b610be160408051610120810182525f8082526020820181905291810182905290606082019081526020015f81526020016060815260200160608152602001606081526020015f81525090565b815260200190600190039081610b955790505b5090505f805b838111610f1757610c09611e54565b5f8781526001919091016020908152604080832084845290915290205460ff1615610f0557610c36611e54565b5f87815260019190910160209081526040808320848452825291829020825161012081018452815460ff8082161515835273ffffffffffffffffffffffffffffffffffffffff610100830416948301949094527fffffffff000000000000000000000000000000000000000000000000000000007501000000000000000000000000000000000000000000820460e01b169482019490945292909160608401917901000000000000000000000000000000000000000000000000009004166007811115610d0557610d05612f18565b6007811115610d1657610d16612f18565b81526020016001820154815260200160028201805480602002602001604051908101604052809291908181526020018280548015610da057602002820191905f5260205f20905f905b82829054906101000a900460ff166007811115610d7e57610d7e612f18565b815260206001928301818104948501949093039092029101808411610d5f5790505b5050505050815260200160038201805480602002602001604051908101604052809291908181526020015f905b82821015610e34575f8481526020902060408051808201909152600284029091018054829060ff166004811115610e0657610e06612f18565b6004811115610e1757610e17612f18565b815260200160018201548152505081526020019060010190610dcd565b50505050815260200160048201805480602002602001604051908101604052809291908181526020015f905b82821015610ec7575f8481526020902060408051808201909152600284029091018054829060ff166004811115610e9957610e99612f18565b6004811115610eaa57610eaa612f18565b815260200160018201548152505081526020019060010190610e60565b505050508152602001600582015481525050838381518110610eeb57610eeb613265565b60200260200101819052508180610f01906133c4565b9250505b80610f0f816133c4565b915050610bfa565b5090949350505050565b610f2b8233611e81565b610f3482611fe2565b610f3c611e54565b5f838152600191820160209081526040808320858452909152812080547fffffffffffff0000000000000000000000000000000000000000000000000000168155918201819055610f9060028301826129e2565b610f9d600383015f612a04565b610faa600483015f612a04565b600582015f9055505080827f19d0bd0cc4d63f9108c93b0abfd7408498ecbc73713f6bb3a2862d9b9d1983d860405160405180910390a35050565b61103160408051610120810182525f8082526020820181905291810182905290606082019081526020015f81526020016060815260200160608152602001606081526020015f81525090565b611039611e54565b5f84815260019190910160209081526040808320858452825291829020825161012081018452815460ff8082161515835273ffffffffffffffffffffffffffffffffffffffff610100830416948301949094527fffffffff000000000000000000000000000000000000000000000000000000007501000000000000000000000000000000000000000000820460e01b16948201949094529290916060840191790100000000000000000000000000000000000000000000000000900416600781111561110857611108612f18565b600781111561111957611119612f18565b815260200160018201548152602001600282018054806020026020016040519081016040528092919081815260200182805480156111a357602002820191905f5260205f20905f905b82829054906101000a900460ff16600781111561118157611181612f18565b8152602060019283018181049485019490930390920291018084116111625790505b5050505050815260200160038201805480602002602001604051908101604052809291908181526020015f905b82821015611237575f8481526020902060408051808201909152600284029091018054829060ff16600481111561120957611209612f18565b600481111561121a5761121a612f18565b8152602001600182015481525050815260200190600101906111d0565b50505050815260200160048201805480602002602001604051908101604052809291908181526020015f905b828210156112ca575f8481526020902060408051808201909152600284029091018054829060ff16600481111561129c5761129c612f18565b60048111156112ad576112ad612f18565b815260200160018201548152505081526020019060010190611263565b505050508152602001600582015481525050905092915050565b6112ef833383611cd9565b6112f7611e54565b73ffffffffffffffffffffffffffffffffffffffff8481165f908152600492909201602090815260408084207fffffffff000000000000000000000000000000000000000000000000000000008616855282528320805460018082018355918552919093200180547fffffffffffffffffffffffff000000000000000000000000000000000000000016918516919091179055611392611e54565b73ffffffffffffffffffffffffffffffffffffffff8581165f818152600393909301602090815260408085207fffffffff0000000000000000000000000000000000000000000000000000000088168087529083528186209489168087529490925280852080547fffffffffffffffffffffffffffffffffffffffffffffffffffffffffffffff001696151596909617909555935191939290917f2a60b6a2eb5984d2479df172f3d9b813931c413ee94ceb51971dc6fd45f6ac529190a4505050565b6114a160408051610120810182525f8082526020820181905291810182905290606082019081526020015f81526020016060815260200160608152602001606081526020015f81525090565b6114ab8433611e81565b6114b484611fe2565b6114d76114c7604084016020850161338e565b6108fb60608501604086016133a9565b6114e08261352d565b6080810184905290506114f4848385612305565b604051839085907f82132283659aa079ae6d599fbbe109c1bfb961fc5bbbb0a98a343b4ea6dc3e00905f90a39392505050565b611532823383611cd9565b5f61153d8383610a7d565b9050611547611e54565b73ffffffffffffffffffffffffffffffffffffffff84165f908152600491909101602090815260408083207fffffffff000000000000000000000000000000000000000000000000000000008616845290915281206115a5916129c7565b60015b815181101561168a575f6115ba611e54565b73ffffffffffffffffffffffffffffffffffffffff86165f908152600391909101602090815260408083207fffffffff00000000000000000000000000000000000000000000000000000000881684529091528120845190919085908590811061162657611626613265565b60209081029190910181015173ffffffffffffffffffffffffffffffffffffffff1682528101919091526040015f2080547fffffffffffffffffffffffffffffffffffffffffffffffffffffffffffffff00169115159190911790556001016115a8565b506040517fffffffff0000000000000000000000000000000000000000000000000000000083169073ffffffffffffffffffffffffffffffffffffffff8516907f3f0cfd5b586b18663b4d413737df6af01f6a9f7f74a51ef9e3df464352121fb2905f90a3505050565b6116ff823383611cd9565b5f61170a8383610a7d565b9050611714611e54565b73ffffffffffffffffffffffffffffffffffffffff84165f908152600491909101602090815260408083207fffffffff00000000000000000000000000000000000000000000000000000000861684529091528120611772916129c7565b5f5b8151811015611856575f611786611e54565b73ffffffffffffffffffffffffffffffffffffffff86165f908152600391909101602090815260408083207fffffffff0000000000000000000000000000000000000000000000000000000088168452909152812084519091908590859081106117f2576117f2613265565b60209081029190910181015173ffffffffffffffffffffffffffffffffffffffff1682528101919091526040015f2080547fffffffffffffffffffffffffffffffffffffffffffffffffffffffffffffff0016911515919091179055600101611774565b505f611860611e54565b73ffffffffffffffffffffffffffffffffffffffff85165f908152600291909101602090815260408083207fffffffff0000000000000000000000000000000000000000000000000000000087168452909152812080547fffffffffffffffffffffffffffffffffffffffffffffffffffffffffffffff0016921515929092179091556118eb6122d8565b90505f6118f66122d8565b60010190505f5b8254811015611bc9578573ffffffffffffffffffffffffffffffffffffffff1683828154811061192f5761192f613265565b5f9182526020909120015473ffffffffffffffffffffffffffffffffffffffff161480156119cc5750847bffffffffffffffffffffffffffffffffffffffffffffffffffffffff191682828154811061198a5761198a613265565b905f5260205f2090600891828204019190066004029054906101000a900460e01b7bffffffffffffffffffffffffffffffffffffffffffffffffffffffff1916145b15611bc157825483906119e1906001906132bf565b815481106119f1576119f1613265565b905f5260205f20015f9054906101000a900473ffffffffffffffffffffffffffffffffffffffff16838281548110611a2b57611a2b613265565b5f91825260209091200180547fffffffffffffffffffffffff00000000000000000000000000000000000000001673ffffffffffffffffffffffffffffffffffffffff9290921691909117905581548290611a88906001906132bf565b81548110611a9857611a98613265565b905f5260205f2090600891828204019190066004029054906101000a900460e01b828281548110611acb57611acb613265565b905f5260205f2090600891828204019190066004026101000a81548163ffffffff021916908360e01c021790555082805480611b0957611b096132d2565b5f8281526020902081017fffffffffffffffffffffffffffffffffffffffffffffffffffffffffffffffff90810180547fffffffffffffffffffffffff00000000000000000000000000000000000000001690550190558154829080611b7157611b716132d2565b5f8281526020902060087fffffffffffffffffffffffffffffffffffffffffffffffffffffffffffffffff90920191820401805463ffffffff600460078516026101000a02191690559055611bc9565b6001016118fd565b506040517fffffffff0000000000000000000000000000000000000000000000000000000085169073ffffffffffffffffffffffffffffffffffffffff8716907f89401d05a96381d33c99e34b1cb3c4011ab9d4b136ad7de38b94a9084b3809d5905f90a35050505050565b6060611c3f61287f565b5f84815260209182526040808220858352909252208054611c5f90613621565b80601f0160208091040260200160405190810160405280929190818152602001828054611c8b90613621565b8015610b345780601f10611cad57610100808354040283529160200191610b34565b820191905f5260205f20905b815481529060010190602001808311611cb9575093979650505050505050565b60405173ffffffffffffffffffffffffffffffffffffffff8085166024830152831660448201527fffffffff00000000000000000000000000000000000000000000000000000000821660648201525f908190611dd0907f41a2b7ae0000000000000000000000000000000000000000000000000000000090608401604080517fffffffffffffffffffffffffffffffffffffffffffffffffffffffffffffffe08184030181529190526020810180517bffffffffffffffffffffffffffffffffffffffffffffffffffffffff167f41a2b7ae000000000000000000000000000000000000000000000000000000001790526128ac565b915091505f8215611e4c576004825110611def57506020810151611df2565b505f5b80611e4c57604051806060016040528060248152602001613e78602491396040517f08c379a0000000000000000000000000000000000000000000000000000000008152600401611e439190613212565b60405180910390fd5b505050505050565b5f80610b3c60017f1f3305601ed940efccf797d76856e5fe70659a8a6905d64c9f236321df91e7186132bf565b6040516024810183905273ffffffffffffffffffffffffffffffffffffffff821660448201525f908190611f4f907f901cee110000000000000000000000000000000000000000000000000000000090606401604080517fffffffffffffffffffffffffffffffffffffffffffffffffffffffffffffffe08184030181529190526020810180517bffffffffffffffffffffffffffffffffffffffffffffffffffffffff167f901cee11000000000000000000000000000000000000000000000000000000001790526128ac565b915091505f8215611fdb576004825110611f6e57506020810151611f71565b505f5b80611fdb57604080518082018252601881527f4e6f7420417574686f72697a656420546f20506f6c6963790000000000000000602082015290517f08c379a0000000000000000000000000000000000000000000000000000000008152611e439190600401613212565b5050505050565b611fea61296d565b5f8281526001919091016020526040902060040154610100900460ff161561207157604080518082018252601f81527f4e6f7420616c6c6f77656420666f722063656d656e74656420706f6c69637900602082015290517f08c379a0000000000000000000000000000000000000000000000000000000008152611e439190600401613212565b50565b61207c611e54565b73ffffffffffffffffffffffffffffffffffffffff83165f908152600291909101602090815260408083207fffffffff000000000000000000000000000000000000000000000000000000008516845290915290205460ff16801561214757506120e4611e54565b73ffffffffffffffffffffffffffffffffffffffff83165f908152600391909101602090815260408083207fffffffff0000000000000000000000000000000000000000000000000000000085168452825280832033845290915290205460ff16155b1561219857604051806060016040528060218152602001613e02602191396040517f08c379a0000000000000000000000000000000000000000000000000000000008152600401611e439190613212565b5050565b5f5f6121a6611e54565b5f8481526020829052604081208054929350916121c2906133c4565b91829055509392505050565b5f6121d7611e54565b90506121e4848484612305565b5f93845260205260409092209190915550565b604080516020810182525f9052517fc5d2460186f7233c927e7db2dcc703c0e500b653ca82273b7bfad8045d85a47090612234908490849061366c565b604051809103902014156040518060400160405280601081526020017f4e616d6520697320726571756972656400000000000000000000000000000000815250906122ac576040517f08c379a0000000000000000000000000000000000000000000000000000000008152600401611e439190613212565b5081816122b761287f565b5f878152602091825260408082208883529092522091611fdb9190836136cb565b5f80610b3c60017f3c401fd2932622880eb0dc8877cc070591b51eaaa3bb9dfbc1718d869b7a12b36132bf565b61231260c08301836137e1565b905061232160a084018461384c565b905014612330576123306138b0565b5f612341604084016020850161338e565b73ffffffffffffffffffffffffffffffffffffffff16036123c157604080518082018252601b81527f5a65726f2041646472657373204973204e6f7420416c6c6f7765640000000000602082015290517f08c379a0000000000000000000000000000000000000000000000000000000008152611e439190600401613212565b306123d2604084016020850161338e565b73ffffffffffffffffffffffffffffffffffffffff160361243957604051806060016040528060288152602001613e9c602891396040517f08c379a0000000000000000000000000000000000000000000000000000000008152600401611e439190613212565b604080516020810182525f90527fc5d24601000000000000000000000000000000000000000000000000000000009061247890606085019085016133a9565b7fffffffff00000000000000000000000000000000000000000000000000000000160361250457604080518082018252601e81527f46756e6374696f6e207369676e61747572652069732072657175697265640000602082015290517f08c379a0000000000000000000000000000000000000000000000000000000008152611e439190600401613212565b612710826080013510801561251a575061271081105b6040518060400160405280601981526020017f4d617820666f726569676e2063616c6c7320726561636865640000000000000081525090612588576040517f08c379a0000000000000000000000000000000000000000000000000000000008152600401611e439190613212565b5061271061259960a084018461384c565b905010604051806060016040528060248152602001613dde60249139906125ed576040517f08c379a0000000000000000000000000000000000000000000000000000000008152600401611e439190613212565b505f805b6125fe60c08501856137e1565b905081101561276557600461261660c08601866137e1565b8381811061262657612626613265565b61263c92602060409092020190810191506138dd565b600481111561264d5761264d612f18565b0361275d5761265f60e08501856137e1565b905082106040518060600160405280602b8152602001613e4d602b9139906126b4576040517f08c379a0000000000000000000000000000000000000000000000000000000008152600401611e439190613212565b5060046126c460e08601866137e1565b848181106126d4576126d4613265565b6126ea92602060409092020190810191506138dd565b60048111156126fb576126fb612f18565b14156040518060600160405280602a8152602001613e23602a91399061274e576040517f08c379a0000000000000000000000000000000000000000000000000000000008152600401611e439190613212565b5081612759816133c4565b9250505b6001016125f1565b5061277360e08401846137e1565b905081146040518060600160405280602b8152602001613e4d602b9139906127c8576040517f08c379a0000000000000000000000000000000000000000000000000000000008152600401611e439190613212565b50826127d2611e54565b5f8681526001919091016020908152604080832086845290915290206127f88282613c54565b9050506001612805611e54565b5f86815260019190910160209081526040808320868452909152902080547fffffffffffffffffffffffffffffffffffffffffffffffffffffffffffffff001691151591909117905581612857611e54565b5f95865260019081016020908152604080882095885294905292909420909101929092555050565b5f80610b3c60017f680281604e63223dcddb1c0e3af179db8bd5c81752348dc75dc7ed88d927353c6132bf565b5f60605f6128b861299a565b7fffffffff0000000000000000000000000000000000000000000000000000000086165f908152602082905260409081902054905191925073ffffffffffffffffffffffffffffffffffffffff16908190612914908790613dc7565b5f60405180830381855af49150503d805f811461294c576040519150601f19603f3d011682016040523d82523d5f602084013e612951565b606091505b5090945092508361296457825160208401fd5b50509250929050565b5f80610b3c60017ff9dbd639dd2ea165d77dd4c51dec420100d51ceacf023b1c40faa045ba8f9a656132bf565b5f80610b3c60017fbe498a3b14fd79a48c3c9af86ff14271ed497d09071013334028d28e7791db206132bf565b5080545f8255905f5260205f20908101906120719190612a22565b5080545f8255601f0160209004905f5260205f20908101906120719190612a22565b5080545f8255600202905f5260205f20908101906120719190612a3a565b5b80821115612a36575f8155600101612a23565b5090565b5b80821115612a365780547fffffffffffffffffffffffffffffffffffffffffffffffffffffffffffffff001681555f6001820155600201612a3b565b73ffffffffffffffffffffffffffffffffffffffff81168114612071575f5ffd5b8035612aa381612a77565b919050565b7fffffffff0000000000000000000000000000000000000000000000000000000081168114612071575f5ffd5b8035612aa381612aa8565b5f5f5f60608486031215612af2575f5ffd5b8335612afd81612a77565b92506020840135612b0d81612aa8565b91506040840135612b1d81612a77565b809150509250925092565b7f4e487b71000000000000000000000000000000000000000000000000000000005f52604160045260245ffd5b6040805190810167ffffffffffffffff81118282101715612b7857612b78612b28565b60405290565b604051610120810167ffffffffffffffff81118282101715612b7857612b78612b28565b604051601f82017fffffffffffffffffffffffffffffffffffffffffffffffffffffffffffffffe016810167ffffffffffffffff81118282101715612be957612be9612b28565b604052919050565b5f67ffffffffffffffff821115612c0a57612c0a612b28565b5060051b60200190565b5f5f5f60608486031215612c26575f5ffd5b8335612c3181612a77565b92506020840135612c4181612aa8565b9150604084013567ffffffffffffffff811115612c5c575f5ffd5b8401601f81018613612c6c575f5ffd5b8035612c7f612c7a82612bf1565b612ba2565b8082825260208201915060208360051b850101925088831115612ca0575f5ffd5b6020840193505b82841015612ccb578335612cba81612a77565b825260209384019390910190612ca7565b809450505050509250925092565b5f6101208284031215612cea575f5ffd5b50919050565b5f5f5f5f60608587031215612d03575f5ffd5b84359350602085013567ffffffffffffffff811115612d20575f5ffd5b612d2c87828801612cd9565b935050604085013567ffffffffffffffff811115612d48575f5ffd5b8501601f81018713612d58575f5ffd5b803567ffffffffffffffff811115612d6e575f5ffd5b876020828401011115612d7f575f5ffd5b949793965060200194505050565b602080825282516040838301528051606084018190525f929190910190829060808501905b80831015612deb5773ffffffffffffffffffffffffffffffffffffffff8451168252602082019150602084019350600183019250612db2565b506020868101518683037fffffffffffffffffffffffffffffffffffffffffffffffffffffffffffffffe001604088015280518084529082019450910191505f905b80821015612e72577fffffffff000000000000000000000000000000000000000000000000000000008451168352602083019250602084019350600182019150612e2d565b509095945050505050565b5f5f60408385031215612e8e575f5ffd5b8235612e9981612a77565b91506020830135612ea981612aa8565b809150509250929050565b602080825282518282018190525f918401906040840190835b81811015612e7257835173ffffffffffffffffffffffffffffffffffffffff16835260209384019390920191600101612ecd565b5f60208284031215612f11575f5ffd5b5035919050565b7f4e487b71000000000000000000000000000000000000000000000000000000005f52602160045260245ffd5b60088110612f5557612f55612f18565b9052565b5f8151808452602084019350602083015f5b82811015612f9157612f7e868351612f45565b6020958601959190910190600101612f6b565b5093949350505050565b5f8151808452602084019350602083015f5b82811015612f91578151805160058110612fc957612fc9612f18565b8752602090810151818801526040909601959190910190600101612fad565b8051151582525f6020820151613016602085018273ffffffffffffffffffffffffffffffffffffffff169052565b50604082015161304a60408501827fffffffff00000000000000000000000000000000000000000000000000000000169052565b50606082015161305d6060850182612f45565b506080820151608084015260a082015161012060a0850152613083610120850182612f59565b905060c083015184820360c086015261309c8282612f9b565b91505060e083015184820360e08601526130b68282612f9b565b9150506101008301516101008501528091505092915050565b5f602082016020835280845180835260408501915060408160051b8601019250602086015f5b82811015613144577fffffffffffffffffffffffffffffffffffffffffffffffffffffffffffffffc087860301845261312f858351612fe8565b945060209384019391909101906001016130f5565b50929695505050505050565b5f5f60408385031215613161575f5ffd5b50508035926020909101359150565b602081525f6131826020830184612fe8565b9392505050565b5f5f5f6060848603121561319b575f5ffd5b83356131a681612a77565b925060208401356131b681612a77565b91506040840135612b1d81612aa8565b5f5f5f606084860312156131d8575f5ffd5b8335925060208401359150604084013567ffffffffffffffff8111156131fc575f5ffd5b61320886828701612cd9565b9150509250925092565b602081525f82518060208401528060208501604085015e5f6040828501015260407fffffffffffffffffffffffffffffffffffffffffffffffffffffffffffffffe0601f83011684010191505092915050565b7f4e487b71000000000000000000000000000000000000000000000000000000005f52603260045260245ffd5b7f4e487b71000000000000000000000000000000000000000000000000000000005f52601160045260245ffd5b81810381811115610b3c57610b3c613292565b7f4e487b71000000000000000000000000000000000000000000000000000000005f52603160045260245ffd5b5f818354839150845f5260205f205f5b8281101561334357815473ffffffffffffffffffffffffffffffffffffffff1684526020909301926001918201910161330f565b509195945050505050565b81515f90829060208501835b8281101561334357815173ffffffffffffffffffffffffffffffffffffffff1684526020938401939091019060010161335a565b5f6020828403121561339e575f5ffd5b813561318281612a77565b5f602082840312156133b9575f5ffd5b813561318281612aa8565b5f7fffffffffffffffffffffffffffffffffffffffffffffffffffffffffffffffff82036133f4576133f4613292565b5060010190565b8015158114612071575f5ffd5b8035612aa3816133fb565b60088110612071575f5ffd5b8035612aa381613413565b5f82601f830112613439575f5ffd5b8135613447612c7a82612bf1565b8082825260208201915060208360051b860101925085831115613468575f5ffd5b602085015b8381101561348e57803561348081613413565b83526020928301920161346d565b5095945050505050565b60058110612071575f5ffd5b5f82601f8301126134b3575f5ffd5b81356134c1612c7a82612bf1565b8082825260208201915060208360061b8601019250858311156134e2575f5ffd5b602085015b8381101561348e57604081880312156134fe575f5ffd5b613506612b55565b813561351181613498565b81526020828101358183015290845292909201916040016134e7565b5f610120823603121561353e575f5ffd5b613546612b7e565b61354f83613408565b815261355d60208401612a98565b602082015261356e60408401612ad5565b604082015261357f6060840161341f565b60608201526080838101359082015260a083013567ffffffffffffffff8111156135a7575f5ffd5b6135b33682860161342a565b60a08301525060c083013567ffffffffffffffff8111156135d2575f5ffd5b6135de368286016134a4565b60c08301525060e083013567ffffffffffffffff8111156135fd575f5ffd5b613609368286016134a4565b60e08301525061010092830135928101929092525090565b600181811c9082168061363557607f821691505b602082108103612cea577f4e487b71000000000000000000000000000000000000000000000000000000005f52602260045260245ffd5b818382375f9101908152919050565b5b81811015612198575f815560010161367c565b601f8211156136c657805f5260205f20601f840160051c810160208510156136b45750805b611fdb601f850160051c83018261367b565b505050565b67ffffffffffffffff8311156136e3576136e3612b28565b6136f7836136f18354613621565b8361368f565b5f601f841160018114613747575f85156137115750838201355b7fffffffffffffffffffffffffffffffffffffffffffffffffffffffffffffffff600387901b1c1916600186901b178355611fdb565b5f838152602081207fffffffffffffffffffffffffffffffffffffffffffffffffffffffffffffffe08716915b828110156137945786850135825560209485019460019092019101613774565b50868210156137cf577fffffffffffffffffffffffffffffffffffffffffffffffffffffffffffffffff60f88860031b161c19848701351681555b505060018560011b0183555050505050565b5f5f83357fffffffffffffffffffffffffffffffffffffffffffffffffffffffffffffffe1843603018112613814575f5ffd5b83018035915067ffffffffffffffff82111561382e575f5ffd5b6020019150600681901b3603821315613845575f5ffd5b9250929050565b5f5f83357fffffffffffffffffffffffffffffffffffffffffffffffffffffffffffffffe184360301811261387f575f5ffd5b83018035915067ffffffffffffffff821115613899575f5ffd5b6020019150600581901b3603821315613845575f5ffd5b7f4e487b71000000000000000000000000000000000000000000000000000000005f52600160045260245ffd5b5f602082840312156138ed575f5ffd5b813561318281613498565b5f8135610b3c81612a77565b5f8135610b3c81612aa8565b5f8135610b3c81613413565b6008821061392c5761392c612f18565b805479ff000000000000000000000000000000000000000000000000008360c81b167fffffffffffff00ffffffffffffffffffffffffffffffffffffffffffffffffff8216178255505050565b6801000000000000000082111561399257613992612b28565b8054828255808310156136c657815f5260205f20601f840160051c8101601f85168015613a0c577fffffffffffffffffffffffffffffffffffffffffffffffffffffffffffffffff820180547fffffffffffffffffffffffffffffffffffffffffffffffffffffffffffffffff8360200360031b1c168155505b50611fdb601f840160051c83018261367b565b67ffffffffffffffff831115613a3757613a37612b28565b613a418382613979565b5f8181526020902082908460051c5f5b81811015613aa6575f5f5b6020811015613a9957613a88613a7187613910565b60ff908116600384901b90811b91901b1984161790565b602096909601959150600101613a5c565b5083820155600101613a51565b507fffffffffffffffffffffffffffffffffffffffffffffffffffffffffffffffe08616808703818814613b02575f5f5b82811015613afc57613aeb613a7188613910565b602097909701969150600101613ad7565b50848401555b5050505050505050565b8135613b1781613498565b60058110613b2757613b27612f18565b81547fffffffffffffffffffffffffffffffffffffffffffffffffffffffffffffff001660ff9190911617815560209190910135600190910155565b68010000000000000000831115613b7c57613b7c612b28565b805483825580841015613c20577f7fffffffffffffffffffffffffffffffffffffffffffffffffffffffffffffff81168114613bba57613bba613292565b7f7fffffffffffffffffffffffffffffffffffffffffffffffffffffffffffffff84168414613beb57613beb613292565b815f5260205f208160011b81018560011b820191505b80821015613c1d575f82555f6001830155600282019150613c01565b50505b505f8181526020812083915b85811015611e4c57613c3e8383613b0c565b6040929092019160029190910190600101613c2c565b8135613c5f816133fb565b7fffffffffffffffffffffffffffffffffffffffffffffffffffffffffffffff0082541660ff82151516811783555050613ce4613c9e602084016138f8565b82547fffffffffffffffffffffff0000000000000000000000000000000000000000ff1660089190911b74ffffffffffffffffffffffffffffffffffffffff0016178255565b613d41613cf360408401613904565b8280547fffffffffffffff00000000ffffffffffffffffffffffffffffffffffffffffff1660389290921c78ffffffff00000000000000000000000000000000000000000016919091179055565b613d56613d5060608401613910565b8261391c565b60808201356001820155613d6d60a083018361384c565b613d7b818360028601613a1f565b5050613d8a60c08301836137e1565b613d98818360038601613b63565b5050613da760e08301836137e1565b613db5818360048601613b63565b50506101009190910135600590910155565b5f82518060208501845e5f92019182525091905056fe4d617820666f726569676e20706172616d6574657220747970657320726561636865642e4e6f74205065726d697373696f6e656420466f7220466f726569676e2043616c6c4d617070656420747261636b6572206b65792063616e6e6f7420626520646f75626c65206e65737465644d617070656420747261636b6572206b657920696e6469636573206c656e677468206d69736d617463682e4e6f7420416e20417574686f72697a656420466f726569676e2043616c6c2041646d696e41646472657373206e6f7420616c6c6f77656420746f206265206120666f726569676e2063616c6ca2646970667358221220fddd77ab2f4eee5ba9df836d3fdfe1e555f986114074a056086520f0ad7c2b7964736f6c634300081c0033","linkReferences":{}},"methodIdentifiers":{"addAdminToPermissionList(address,address,bytes4)":"e06e2b00","createForeignCall(uint256,(bool,address,bytes4,uint8,uint256,uint8[],(uint8,uint256)[],(uint8,uint256)[],uint256),string)":"6071d6b6","deleteForeignCall(uint256,uint256)":"d82260c8","getAllForeignCalls(uint256)":"a3937e99","getAllPermissionedFCs()":"8f470037","getForeignCall(uint256,uint256)":"da7d5d28","getForeignCallMetadata(uint256,uint256)":"f69187ee","getForeignCallPermissionList(address,bytes4)":"92ee33ae","removeAllFromPermissionList(address,bytes4)":"ef3ea06c","removeForeignCallPermissions(address,bytes4)":"f0e9d744","removeFromPermissionList(address,bytes4,address)":"028206ac","updateForeignCall(uint256,uint256,(bool,address,bytes4,uint8,uint256,uint8[],(uint8,uint256)[],(uint8,uint256)[],uint256))":"edf4b8b9","updatePermissionList(address,bytes4,address[])":"0d5d9cb0"},"id":76}