{"abi":[{"type":"function","name":"createRule","inputs":[{"name":"policyId","type":"uint256","internalType":"uint256"},{"name":"rule","type":"tuple","internalType":"struct Rule","components":[{"name":"instructionSet","type":"uint256[]","internalType":"uint256[]"},{"name":"rawData","type":"tuple","internalType":"struct RawData","components":[{"name":"instructionSetIndex","type":"uint256[]","internalType":"uint256[]"},{"name":"argumentTypes","type":"uint8[]","internalType":"enum ParamTypes[]"},{"name":"dataValues","type":"bytes[]","internalType":"bytes[]"}]},{"name":"placeHolders","type":"tuple[]","internalType":"struct Placeholder[]","components":[{"name":"pType","type":"uint8","internalType":"enum ParamTypes"},{"name":"typeSpecificIndex","type":"uint128","internalType":"uint128"},{"name":"flags","type":"uint8","internalType":"uint8"}]},{"name":"positiveEffectPlaceHolders","type":"tuple[]","internalType":"struct Placeholder[]","components":[{"name":"pType","type":"uint8","internalType":"enum ParamTypes"},{"name":"typeSpecificIndex","type":"uint128","internalType":"uint128"},{"name":"flags","type":"uint8","internalType":"uint8"}]},{"name":"negativeEffectPlaceHolders","type":"tuple[]","internalType":"struct Placeholder[]","components":[{"name":"pType","type":"uint8","internalType":"enum ParamTypes"},{"name":"typeSpecificIndex","type":"uint128","internalType":"uint128"},{"name":"flags","type":"uint8","internalType":"uint8"}]},{"name":"ruleIndex","type":"uint256","internalType":"uint256"},{"name":"posEffects","type":"tuple[]","internalType":"struct Effect[]","components":[{"name":"valid","type":"bool","internalType":"bool"},{"name":"dynamicParam","type":"bool","internalType":"bool"},{"name":"effectType","type":"uint8","internalType":"enum EffectTypes"},{"name":"pType","type":"uint8","internalType":"enum ParamTypes"},{"name":"param","type":"bytes","internalType":"bytes"},{"name":"text","type":"bytes32","internalType":"bytes32"},{"name":"errorMessage","type":"string","internalType":"string"},{"name":"instructionSet","type":"uint256[]","internalType":"uint256[]"},{"name":"eventPlaceholderIndex","type":"uint256","internalType":"uint256"}]},{"name":"negEffects","type":"tuple[]","internalType":"struct Effect[]","components":[{"name":"valid","type":"bool","internalType":"bool"},{"name":"dynamicParam","type":"bool","internalType":"bool"},{"name":"effectType","type":"uint8","internalType":"enum EffectTypes"},{"name":"pType","type":"uint8","internalType":"enum ParamTypes"},{"name":"param","type":"bytes","internalType":"bytes"},{"name":"text","type":"bytes32","internalType":"bytes32"},{"name":"errorMessage","type":"string","internalType":"string"},{"name":"instructionSet","type":"uint256[]","internalType":"uint256[]"},{"name":"eventPlaceholderIndex","type":"uint256","internalType":"uint256"}]}]},{"name":"ruleName","type":"string","internalType":"string"},{"name":"ruleDescription","type":"string","internalType":"string"}],"outputs":[{"name":"","type":"uint256","internalType":"uint256"}],"stateMutability":"nonpayable"},{"type":"function","name":"deleteRule","inputs":[{"name":"policyId","type":"uint256","internalType":"uint256"},{"name":"ruleId","type":"uint256","internalType":"uint256"}],"outputs":[],"stateMutability":"nonpayable"},{"type":"function","name":"getAllRules","inputs":[{"name":"policyId","type":"uint256","internalType":"uint256"}],"outputs":[{"name":"","type":"tuple[][]","internalType":"struct Rule[][]","components":[{"name":"instructionSet","type":"uint256[]","internalType":"uint256[]"},{"name":"rawData","type":"tuple","internalType":"struct RawData","components":[{"name":"instructionSetIndex","type":"uint256[]","internalType":"uint256[]"},{"name":"argumentTypes","type":"uint8[]","internalType":"enum ParamTypes[]"},{"name":"dataValues","type":"bytes[]","internalType":"bytes[]"}]},{"name":"placeHolders","type":"tuple[]","internalType":"struct Placeholder[]","components":[{"name":"pType","type":"uint8","internalType":"enum ParamTypes"},{"name":"typeSpecificIndex","type":"uint128","internalType":"uint128"},{"name":"flags","type":"uint8","internalType":"uint8"}]},{"name":"positiveEffectPlaceHolders","type":"tuple[]","internalType":"struct Placeholder[]","components":[{"name":"pType","type":"uint8","internalType":"enum ParamTypes"},{"name":"typeSpecificIndex","type":"uint128","internalType":"uint128"},{"name":"flags","type":"uint8","internalType":"uint8"}]},{"name":"negativeEffectPlaceHolders","type":"tuple[]","internalType":"struct Placeholder[]","components":[{"name":"pType","type":"uint8","internalType":"enum ParamTypes"},{"name":"typeSpecificIndex","type":"uint128","internalType":"uint128"},{"name":"flags","type":"uint8","internalType":"uint8"}]},{"name":"ruleIndex","type":"uint256","internalType":"uint256"},{"name":"posEffects","type":"tuple[]","internalType":"struct Effect[]","components":[{"name":"valid","type":"bool","internalType":"bool"},{"name":"dynamicParam","type":"bool","internalType":"bool"},{"name":"effectType","type":"uint8","internalType":"enum EffectTypes"},{"name":"pType","type":"uint8","internalType":"enum ParamTypes"},{"name":"param","type":"bytes","internalType":"bytes"},{"name":"text","type":"bytes32","internalType":"bytes32"},{"name":"errorMessage","type":"string","internalType":"string"},{"name":"instructionSet","type":"uint256[]","internalType":"uint256[]"},{"name":"eventPlaceholderIndex","type":"uint256","internalType":"uint256"}]},{"name":"negEffects","type":"tuple[]","internalType":"struct Effect[]","components":[{"name":"valid","type":"bool","internalType":"bool"},{"name":"dynamicParam","type":"bool","internalType":"bool"},{"name":"effectType","type":"uint8","internalType":"enum EffectTypes"},{"name":"pType","type":"uint8","internalType":"enum ParamTypes"},{"name":"param","type":"bytes","internalType":"bytes"},{"name":"text","type":"bytes32","internalType":"bytes32"},{"name":"errorMessage","type":"string","internalType":"string"},{"name":"instructionSet","type":"uint256[]","internalType":"uint256[]"},{"name":"eventPlaceholderIndex","type":"uint256","internalType":"uint256"}]}]}],"stateMutability":"view"},{"type":"function","name":"getMaxLoopSize","inputs":[],"outputs":[{"name":"","type":"uint256","internalType":"uint256"}],"stateMutability":"pure"},{"type":"function","name":"getMemorySize","inputs":[],"outputs":[{"name":"","type":"uint256","internalType":"uint256"}],"stateMutability":"pure"},{"type":"function","name":"getOpsSize1","inputs":[],"outputs":[{"name":"","type":"uint256","internalType":"uint256"}],"stateMutability":"pure"},{"type":"function","name":"getOpsSizeUpTo2","inputs":[],"outputs":[{"name":"","type":"uint256","internalType":"uint256"}],"stateMutability":"pure"},{"type":"function","name":"getOpsSizeUpTo3","inputs":[],"outputs":[{"name":"","type":"uint256","internalType":"uint256"}],"stateMutability":"pure"},{"type":"function","name":"getOpsTotalSize","inputs":[],"outputs":[{"name":"","type":"uint256","internalType":"uint256"}],"stateMutability":"pure"},{"type":"function","name":"getRule","inputs":[{"name":"policyId","type":"uint256","internalType":"uint256"},{"name":"ruleId","type":"uint256","internalType":"uint256"}],"outputs":[{"name":"","type":"tuple","internalType":"struct RuleStorageSet","components":[{"name":"set","type":"bool","internalType":"bool"},{"name":"rule","type":"tuple","internalType":"struct Rule","components":[{"name":"instructionSet","type":"uint256[]","internalType":"uint256[]"},{"name":"rawData","type":"tuple","internalType":"struct RawData","components":[{"name":"instructionSetIndex","type":"uint256[]","internalType":"uint256[]"},{"name":"argumentTypes","type":"uint8[]","internalType":"enum ParamTypes[]"},{"name":"dataValues","type":"bytes[]","internalType":"bytes[]"}]},{"name":"placeHolders","type":"tuple[]","internalType":"struct Placeholder[]","components":[{"name":"pType","type":"uint8","internalType":"enum ParamTypes"},{"name":"typeSpecificIndex","type":"uint128","internalType":"uint128"},{"name":"flags","type":"uint8","internalType":"uint8"}]},{"name":"positiveEffectPlaceHolders","type":"tuple[]","internalType":"struct Placeholder[]","components":[{"name":"pType","type":"uint8","internalType":"enum ParamTypes"},{"name":"typeSpecificIndex","type":"uint128","internalType":"uint128"},{"name":"flags","type":"uint8","internalType":"uint8"}]},{"name":"negativeEffectPlaceHolders","type":"tuple[]","internalType":"struct Placeholder[]","components":[{"name":"pType","type":"uint8","internalType":"enum ParamTypes"},{"name":"typeSpecificIndex","type":"uint128","internalType":"uint128"},{"name":"flags","type":"uint8","internalType":"uint8"}]},{"name":"ruleIndex","type":"uint256","internalType":"uint256"},{"name":"posEffects","type":"tuple[]","internalType":"struct Effect[]","components":[{"name":"valid","type":"bool","internalType":"bool"},{"name":"dynamicParam","type":"bool","internalType":"bool"},{"name":"effectType","type":"uint8","internalType":"enum EffectTypes"},{"name":"pType","type":"uint8","internalType":"enum ParamTypes"},{"name":"param","type":"bytes","internalType":"bytes"},{"name":"text","type":"bytes32","internalType":"bytes32"},{"name":"errorMessage","type":"string","internalType":"string"},{"name":"instructionSet","type":"uint256[]","internalType":"uint256[]"},{"name":"eventPlaceholderIndex","type":"uint256","internalType":"uint256"}]},{"name":"negEffects","type":"tuple[]","internalType":"struct Effect[]","components":[{"name":"valid","type":"bool","internalType":"bool"},{"name":"dynamicParam","type":"bool","internalType":"bool"},{"name":"effectType","type":"uint8","internalType":"enum EffectTypes"},{"name":"pType","type":"uint8","internalType":"enum ParamTypes"},{"name":"param","type":"bytes","internalType":"bytes"},{"name":"text","type":"bytes32","internalType":"bytes32"},{"name":"errorMessage","type":"string","internalType":"string"},{"name":"instructionSet","type":"uint256[]","internalType":"uint256[]"},{"name":"eventPlaceholderIndex","type":"uint256","internalType":"uint256"}]}]}]}],"stateMutability":"view"},{"type":"function","name":"getRuleMetadata","inputs":[{"name":"policyId","type":"uint256","internalType":"uint256"},{"name":"ruleId","type":"uint256","internalType":"uint256"}],"outputs":[{"name":"","type":"tuple","internalType":"struct RuleMetadata","components":[{"name":"ruleName","type":"string","internalType":"string"},{"name":"ruleDescription","type":"string","internalType":"string"}]}],"stateMutability":"view"},{"type":"function","name":"updateRule","inputs":[{"name":"policyId","type":"uint256","internalType":"uint256"},{"name":"ruleId","type":"uint256","internalType":"uint256"},{"name":"rule","type":"tuple","internalType":"struct Rule","components":[{"name":"instructionSet","type":"uint256[]","internalType":"uint256[]"},{"name":"rawData","type":"tuple","internalType":"struct RawData","components":[{"name":"instructionSetIndex","type":"uint256[]","internalType":"uint256[]"},{"name":"argumentTypes","type":"uint8[]","internalType":"enum ParamTypes[]"},{"name":"dataValues","type":"bytes[]","internalType":"bytes[]"}]},{"name":"placeHolders","type":"tuple[]","internalType":"struct Placeholder[]","components":[{"name":"pType","type":"uint8","internalType":"enum ParamTypes"},{"name":"typeSpecificIndex","type":"uint128","internalType":"uint128"},{"name":"flags","type":"uint8","internalType":"uint8"}]},{"name":"positiveEffectPlaceHolders","type":"tuple[]","internalType":"struct Placeholder[]","components":[{"name":"pType","type":"uint8","internalType":"enum ParamTypes"},{"name":"typeSpecificIndex","type":"uint128","internalType":"uint128"},{"name":"flags","type":"uint8","internalType":"uint8"}]},{"name":"negativeEffectPlaceHolders","type":"tuple[]","internalType":"struct Placeholder[]","components":[{"name":"pType","type":"uint8","internalType":"enum ParamTypes"},{"name":"typeSpecificIndex","type":"uint128","internalType":"uint128"},{"name":"flags","type":"uint8","internalType":"uint8"}]},{"name":"ruleIndex","type":"uint256","internalType":"uint256"},{"name":"posEffects","type":"tuple[]","internalType":"struct Effect[]","components":[{"name":"valid","type":"bool","internalType":"bool"},{"name":"dynamicParam","type":"bool","internalType":"bool"},{"name":"effectType","type":"uint8","internalType":"enum EffectTypes"},{"name":"pType","type":"uint8","internalType":"enum ParamTypes"},{"name":"param","type":"bytes","internalType":"bytes"},{"name":"text","type":"bytes32","internalType":"bytes32"},{"name":"errorMessage","type":"string","internalType":"string"},{"name":"instructionSet","type":"uint256[]","internalType":"uint256[]"},{"name":"eventPlaceholderIndex","type":"uint256","internalType":"uint256"}]},{"name":"negEffects","type":"tuple[]","internalType":"struct Effect[]","components":[{"name":"valid","type":"bool","internalType":"bool"},{"name":"dynamicParam","type":"bool","internalType":"bool"},{"name":"effectType","type":"uint8","internalType":"enum EffectTypes"},{"name":"pType","type":"uint8","internalType":"enum ParamTypes"},{"name":"param","type":"bytes","internalType":"bytes"},{"name":"text","type":"bytes32","internalType":"bytes32"},{"name":"errorMessage","type":"string","internalType":"string"},{"name":"instructionSet","type":"uint256[]","internalType":"uint256[]"},{"name":"eventPlaceholderIndex","type":"uint256","internalType":"uint256"}]}]},{"name":"ruleName","type":"string","internalType":"string"},{"name":"ruleDescription","type":"string","internalType":"string"}],"outputs":[{"name":"","type":"uint256","internalType":"uint256"}],"stateMutability":"nonpayable"},{"type":"event","name":"RuleCreated","inputs":[{"name":"policyId","type":"uint256","indexed":true,"internalType":"uint256"},{"name":"ruleId","type":"uint256","indexed":true,"internalType":"uint256"}],"anonymous":false},{"type":"event","name":"RuleDeleted","inputs":[{"name":"policyId","type":"uint256","indexed":true,"internalType":"uint256"},{"name":"ruleId","type":"uint256","indexed":true,"internalType":"uint256"}],"anonymous":false},{"type":"event","name":"RuleUpdated","inputs":[{"name":"policyId","type":"uint256","indexed":true,"internalType":"uint256"},{"name":"ruleId","type":"uint256","indexed":true,"internalType":"uint256"}],"anonymous":false}],"bytecode":{"object":"0x6080604052348015600e575f5ffd5b506159438061001c5f395ff3fe608060405234801561000f575f5ffd5b50600436106100cf575f3560e01c80636d279ef81161007d578063c8bf71f011610058578063c8bf71f01461017f578063d951e13414610192578063fd45fa7914610199575f5ffd5b80636d279ef814610143578063a31c8ebb14610163578063bef087a314610178575f5ffd5b806349fd266d116100ad57806349fd266d1461012e57806354daa6811461013557806359c8075b1461013c575f5ffd5b806312602c40146100d3578063230d4907146100fc578063266fc8a51461010e575b5f5ffd5b6100e66100e1366004614341565b6101ac565b6040516100f391906143ad565b60405180910390f35b6127105b6040519081526020016100f3565b61012161011c36600461440c565b61036b565b6040516100f391906147ce565b6003610100565b6011610100565b605a610100565b610156610151366004614341565b61102b565b6040516100f391906148b3565b610176610171366004614341565b611a2a565b005b6012610100565b61010061018d36600461493d565b611fb1565b6013610100565b6101006101a73660046149e0565b612082565b6040805180820190915260608082526020820152825f0361021c576040518060600160405280603481526020016158b8603491396040517f08c379a00000000000000000000000000000000000000000000000000000000081526004016102139190614a8c565b60405180910390fd5b6102246121ba565b5f84815260209182526040808220858352909252819020815180830190925280548290829061025290614aa5565b80601f016020809104026020016040519081016040528092919081815260200182805461027e90614aa5565b80156102c95780601f106102a0576101008083540402835291602001916102c9565b820191905f5260205f20905b8154815290600101906020018083116102ac57829003601f168201915b505050505081526020016001820180546102e290614aa5565b80601f016020809104026020016040519081016040528092919081815260200182805461030e90614aa5565b80156103595780601f1061033057610100808354040283529160200191610359565b820191905f5260205f20905b81548152906001019060200180831161033c57829003601f168201915b50505050508152505090505b92915050565b6060815f036103c0576040518060600160405280603481526020016158b8603491396040517f08c379a00000000000000000000000000000000000000000000000000000000081526004016102139190614a8c565b5f6103c96121e7565b6001015f8481526020019081526020015f2060010190505f8160010180548060200260200160405190810160405280929190818152602001828054801561046e57602002820191905f5260205f20905f905b82829054906101000a900460e01b7bffffffffffffffffffffffffffffffffffffffffffffffffffffffff19168152602001906004019060208260030104928301926001038202915080841161041b5790505b505050505090505f815167ffffffffffffffff81111561049057610490614af0565b6040519080825280602002602001820160405280156104c357816020015b60608152602001906001900390816104ae5790505b5090505f5b8251811015611022575f845f015f8584815181106104e8576104e8614b1d565b60200260200101517bffffffffffffffffffffffffffffffffffffffffffffffffffffffff19167bffffffffffffffffffffffffffffffffffffffffffffffffffffffff191681526020019081526020015f2080548060200260200160405190810160405280929190818152602001828054801561058357602002820191905f5260205f20905b81548152602001906001019080831161056f575b50505050509050805167ffffffffffffffff8111156105a4576105a4614af0565b6040519080825280602002602001820160405280156105dd57816020015b6105ca6140d5565b8152602001906001900390816105c25790505b508383815181106105f0576105f0614b1d565b60209081029190910101525f5b8151811015611018576106298883838151811061061c5761061c614b1d565b6020026020010151612214565b156110105761063661223e565b6001015f8981526020019081526020015f205f83838151811061065b5761065b614b1d565b602002602001015181526020019081526020015f20600101604051806101000160405290815f82018054806020026020016040519081016040528092919081815260200182805480156106cb57602002820191905f5260205f20905b8154815260200190600101908083116106b7575b50505050508152602001600182016040518060600160405290815f820180548060200260200160405190810160405280929190818152602001828054801561073057602002820191905f5260205f20905b81548152602001906001019080831161071c575b50505050508152602001600182018054806020026020016040519081016040528092919081815260200182805480156107b557602002820191905f5260205f20905f905b82829054906101000a900460ff1660078111156107935761079361445d565b8152602060019283018181049485019490930390920291018084116107745790505b5050505050815260200160028201805480602002602001604051908101604052809291908181526020015f905b8282101561088a578382905f5260205f200180546107ff90614aa5565b80601f016020809104026020016040519081016040528092919081815260200182805461082b90614aa5565b80156108765780601f1061084d57610100808354040283529160200191610876565b820191905f5260205f20905b81548152906001019060200180831161085957829003601f168201915b5050505050815260200190600101906107e2565b5050505081525050815260200160048201805480602002602001604051908101604052809291908181526020015f905b82821015610957575f8481526020902060408051606081019091529083018054829060ff1660078111156108f0576108f061445d565b60078111156109015761090161445d565b8152905461010081046fffffffffffffffffffffffffffffffff166020808401919091527101000000000000000000000000000000000090910460ff1660409092019190915290825260019290920191016108ba565b50505050815260200160058201805480602002602001604051908101604052809291908181526020015f905b82821015610a20575f8481526020902060408051606081019091529083018054829060ff1660078111156109b9576109b961445d565b60078111156109ca576109ca61445d565b8152905461010081046fffffffffffffffffffffffffffffffff166020808401919091527101000000000000000000000000000000000090910460ff166040909201919091529082526001929092019101610983565b50505050815260200160068201805480602002602001604051908101604052809291908181526020015f905b82821015610ae9575f8481526020902060408051606081019091529083018054829060ff166007811115610a8257610a8261445d565b6007811115610a9357610a9361445d565b8152905461010081046fffffffffffffffffffffffffffffffff166020808401919091527101000000000000000000000000000000000090910460ff166040909201919091529082526001929092019101610a4c565b5050505081526020016007820154815260200160088201805480602002602001604051908101604052809291908181526020015f905b82821015610d62575f848152602090819020604080516101208101825260068602909201805460ff80821615158552610100820481161515958501959095529293909291840191620100009004166002811115610b7e57610b7e61445d565b6002811115610b8f57610b8f61445d565b815281546020909101906301000000900460ff166007811115610bb457610bb461445d565b6007811115610bc557610bc561445d565b8152602001600182018054610bd990614aa5565b80601f0160208091040260200160405190810160405280929190818152602001828054610c0590614aa5565b8015610c505780601f10610c2757610100808354040283529160200191610c50565b820191905f5260205f20905b815481529060010190602001808311610c3357829003601f168201915b5050505050815260200160028201548152602001600382018054610c7390614aa5565b80601f0160208091040260200160405190810160405280929190818152602001828054610c9f90614aa5565b8015610cea5780601f10610cc157610100808354040283529160200191610cea565b820191905f5260205f20905b815481529060010190602001808311610ccd57829003601f168201915b5050505050815260200160048201805480602002602001604051908101604052809291908181526020018280548015610d4057602002820191905f5260205f20905b815481526020019060010190808311610d2c575b5050505050815260200160058201548152505081526020019060010190610b1f565b50505050815260200160098201805480602002602001604051908101604052809291908181526020015f905b82821015610fd1575f848152602090819020604080516101208101825260068602909201805460ff80821615158552610100820481161515958501959095529293909291840191620100009004166002811115610ded57610ded61445d565b6002811115610dfe57610dfe61445d565b815281546020909101906301000000900460ff166007811115610e2357610e2361445d565b6007811115610e3457610e3461445d565b8152602001600182018054610e4890614aa5565b80601f0160208091040260200160405190810160405280929190818152602001828054610e7490614aa5565b8015610ebf5780601f10610e9657610100808354040283529160200191610ebf565b820191905f5260205f20905b815481529060010190602001808311610ea257829003601f168201915b5050505050815260200160028201548152602001600382018054610ee290614aa5565b80601f0160208091040260200160405190810160405280929190818152602001828054610f0e90614aa5565b8015610f595780601f10610f3057610100808354040283529160200191610f59565b820191905f5260205f20905b815481529060010190602001808311610f3c57829003601f168201915b5050505050815260200160048201805480602002602001604051908101604052809291908181526020018280548015610faf57602002820191905f5260205f20905b815481526020019060010190808311610f9b575b5050505050815260200160058201548152505081526020019060010190610d8e565b5050505081525050848481518110610feb57610feb614b1d565b6020026020010151828151811061100457611004614b1d565b60200260200101819052505b6001016105fd565b50506001016104c8565b50949350505050565b61103361413b565b825f03611086576040518060600160405280603481526020016158b8603491396040517f08c379a00000000000000000000000000000000000000000000000000000000081526004016102139190614a8c565b61108e61223e565b5f84815260019182016020908152604080832086845282529182902082518084018452815460ff1615158152835194820180546101208186028801810190965261010087018181529296939594870194919284929091849184018282801561111357602002820191905f5260205f20905b8154815260200190600101908083116110ff575b50505050508152602001600182016040518060600160405290815f820180548060200260200160405190810160405280929190818152602001828054801561117857602002820191905f5260205f20905b815481526020019060010190808311611164575b50505050508152602001600182018054806020026020016040519081016040528092919081815260200182805480156111fd57602002820191905f5260205f20905f905b82829054906101000a900460ff1660078111156111db576111db61445d565b8152602060019283018181049485019490930390920291018084116111bc5790505b5050505050815260200160028201805480602002602001604051908101604052809291908181526020015f905b828210156112d2578382905f5260205f2001805461124790614aa5565b80601f016020809104026020016040519081016040528092919081815260200182805461127390614aa5565b80156112be5780601f10611295576101008083540402835291602001916112be565b820191905f5260205f20905b8154815290600101906020018083116112a157829003601f168201915b50505050508152602001906001019061122a565b5050505081525050815260200160048201805480602002602001604051908101604052809291908181526020015f905b8282101561139f575f8481526020902060408051606081019091529083018054829060ff1660078111156113385761133861445d565b60078111156113495761134961445d565b8152905461010081046fffffffffffffffffffffffffffffffff166020808401919091527101000000000000000000000000000000000090910460ff166040909201919091529082526001929092019101611302565b50505050815260200160058201805480602002602001604051908101604052809291908181526020015f905b82821015611468575f8481526020902060408051606081019091529083018054829060ff1660078111156114015761140161445d565b60078111156114125761141261445d565b8152905461010081046fffffffffffffffffffffffffffffffff166020808401919091527101000000000000000000000000000000000090910460ff1660409092019190915290825260019290920191016113cb565b50505050815260200160068201805480602002602001604051908101604052809291908181526020015f905b82821015611531575f8481526020902060408051606081019091529083018054829060ff1660078111156114ca576114ca61445d565b60078111156114db576114db61445d565b8152905461010081046fffffffffffffffffffffffffffffffff166020808401919091527101000000000000000000000000000000000090910460ff166040909201919091529082526001929092019101611494565b5050505081526020016007820154815260200160088201805480602002602001604051908101604052809291908181526020015f905b828210156117aa575f848152602090819020604080516101208101825260068602909201805460ff808216151585526101008204811615159585019590955292939092918401916201000090041660028111156115c6576115c661445d565b60028111156115d7576115d761445d565b815281546020909101906301000000900460ff1660078111156115fc576115fc61445d565b600781111561160d5761160d61445d565b815260200160018201805461162190614aa5565b80601f016020809104026020016040519081016040528092919081815260200182805461164d90614aa5565b80156116985780601f1061166f57610100808354040283529160200191611698565b820191905f5260205f20905b81548152906001019060200180831161167b57829003601f168201915b50505050508152602001600282015481526020016003820180546116bb90614aa5565b80601f01602080910402602001604051908101604052809291908181526020018280546116e790614aa5565b80156117325780601f1061170957610100808354040283529160200191611732565b820191905f5260205f20905b81548152906001019060200180831161171557829003601f168201915b505050505081526020016004820180548060200260200160405190810160405280929190818152602001828054801561178857602002820191905f5260205f20905b815481526020019060010190808311611774575b5050505050815260200160058201548152505081526020019060010190611567565b50505050815260200160098201805480602002602001604051908101604052809291908181526020015f905b82821015611a19575f848152602090819020604080516101208101825260068602909201805460ff808216151585526101008204811615159585019590955292939092918401916201000090041660028111156118355761183561445d565b60028111156118465761184661445d565b815281546020909101906301000000900460ff16600781111561186b5761186b61445d565b600781111561187c5761187c61445d565b815260200160018201805461189090614aa5565b80601f01602080910402602001604051908101604052809291908181526020018280546118bc90614aa5565b80156119075780601f106118de57610100808354040283529160200191611907565b820191905f5260205f20905b8154815290600101906020018083116118ea57829003601f168201915b505050505081526020016002820154815260200160038201805461192a90614aa5565b80601f016020809104026020016040519081016040528092919081815260200182805461195690614aa5565b80156119a15780601f10611978576101008083540402835291602001916119a1565b820191905f5260205f20905b81548152906001019060200180831161198457829003601f168201915b50505050508152602001600482018054806020026020016040519081016040528092919081815260200182805480156119f757602002820191905f5260205f20905b8154815260200190600101908083116119e3575b50505050508152602001600582015481525050815260200190600101906117d6565b505050915250509052509392505050565b815f03611a7d576040518060600160405280603481526020016158b8603491396040517f08c379a00000000000000000000000000000000000000000000000000000000081526004016102139190614a8c565b611a8561223e565b5f8381526001919091016020908152604080832084845290915290205460ff16611b0e57604080518082018252600c81527f496e76616c69642052756c650000000000000000000000000000000000000000602082015290517f08c379a00000000000000000000000000000000000000000000000000000000081526102139190600401614a8c565b611b18823361226b565b611b21826123cc565b5f611b2a6121e7565b5f848152600191909101602090815260408083206002810180548351818602810186019094528084529195509192830182828015611bc657602002820191905f5260205f20905f905b82829054906101000a900460e01b7bffffffffffffffffffffffffffffffffffffffffffffffffffffffff191681526020019060040190602082600301049283019260010382029150808411611b735790505b509394505f93505050505b8151811015611ea3575f836001015f015f848481518110611bf457611bf4614b1d565b60200260200101517bffffffffffffffffffffffffffffffffffffffffffffffffffffffff19167bffffffffffffffffffffffffffffffffffffffffffffffffffffffff191681526020019081526020015f20805480602002602001604051908101604052809291908181526020018280548015611c8f57602002820191905f5260205f20905b815481526020019060010190808311611c7b575b505050505090505f815167ffffffffffffffff811115611cb157611cb1614af0565b604051908082528060200260200182016040528015611cda578160200160208202803683370190505b5090505f80805b8451811015611d695788858281518110611cfd57611cfd614b1d565b602002602001015103611d1c5781611d1481614b77565b925050611d61565b848181518110611d2e57611d2e614b1d565b6020026020010151848481518110611d4857611d48614b1d565b602090810291909101015282611d5d81614b77565b9350505b600101611ce1565b5082876001015f015f888881518110611d8457611d84614b1d565b60200260200101517bffffffffffffffffffffffffffffffffffffffffffffffffffffffff19167bffffffffffffffffffffffffffffffffffffffffffffffffffffffff191681526020019081526020015f209080519060200190611dea92919061415b565b505b8015611e9357866001015f015f878781518110611e0b57611e0b614b1d565b60200260200101517bffffffffffffffffffffffffffffffffffffffffffffffffffffffff19167bffffffffffffffffffffffffffffffffffffffffffffffffffffffff191681526020019081526020015f20805480611e6d57611e6d614bae565b600190038181905f5260205f20015f905590558080611e8b90614bdb565b915050611dec565b505060019092019150611bd19050565b50611eae848461245e565b611eb661223e565b5f858152600191820160209081526040808320878452909152812080547fffffffffffffffffffffffffffffffffffffffffffffffffffffffffffffff0016815591820181611f0582826141a4565b600182015f611f1482826141a4565b611f21600183015f6141bf565b611f2e600283015f6141e1565b50611f3e9050600483015f6141fc565b611f4b600583015f6141fc565b611f58600683015f6141fc565b600782015f9055600882015f611f6e9190614217565b611f7b600983015f614217565b50506040518592508691507f371b8107ab385e638477ce677851ddf910d57c3afc1bab409674a9e251cfb020905f90a350505050565b5f865f03612005576040518060600160405280603481526020016158b8603491396040517f08c379a00000000000000000000000000000000000000000000000000000000081526004016102139190614a8c565b61200f873361226b565b6120198688612f71565b612022876123cc565b5f61202b61223e565b90505f612038828a613169565b905061204a828a838b8b8b8b8b61318f565b60405181908a907fcadd4461b462556a5a12f6e182d719fd2bbfaaa0a6fcf6a16cf7ecf648076921905f90a398975050505050505050565b5f875f036120d6576040518060600160405280603481526020016158b8603491396040517f08c379a00000000000000000000000000000000000000000000000000000000081526004016102139190614a8c565b6120e0883361226b565b6120ea8689612f71565b6120f48888612214565b61215d57604080518082018252600c81527f52756c65206e6f74207365740000000000000000000000000000000000000000602082015290517f08c379a00000000000000000000000000000000000000000000000000000000081526102139190600401614a8c565b612166886123cc565b5f61216f61223e565b9050612181818a8a8a8a8a8a8a61318f565b60405188908a907fe91f86fd53c89629ca0bc01d0f219a6cd6730e5252f179944d1f3c9b5def1b07905f90a35095979650505050505050565b5f8061036560017fcd216e8e6f9888257c83a443dde6c2ee001ac067ce7d1a099cdea0655718c76e614c0f565b5f8061036560017ff9dbd639dd2ea165d77dd4c51dec420100d51ceacf023b1c40faa045ba8f9a65614c0f565b5f61221d61223e565b5f938452600101602090815260408085209385529290525090205460ff1690565b5f8061036560017f5c91f63a4ffcbd372b8ec622fd1fcaaa601b66330afdb30e5c292dd9123f20b0614c0f565b6040516024810183905273ffffffffffffffffffffffffffffffffffffffff821660448201525f908190612339907f901cee110000000000000000000000000000000000000000000000000000000090606401604080517fffffffffffffffffffffffffffffffffffffffffffffffffffffffffffffffe08184030181529190526020810180517bffffffffffffffffffffffffffffffffffffffffffffffffffffffff167f901cee11000000000000000000000000000000000000000000000000000000001790526131b4565b915091505f82156123c55760048251106123585750602081015161235b565b505f5b806123c557604080518082018252601881527f4e6f7420417574686f72697a656420546f20506f6c6963790000000000000000602082015290517f08c379a00000000000000000000000000000000000000000000000000000000081526102139190600401614a8c565b5050505050565b6123d46121e7565b5f8281526001919091016020526040902060030154610100900460ff161561245b57604080518082018252601f81527f4e6f7420616c6c6f77656420666f722063656d656e74656420706f6c69637900602082015290517f08c379a00000000000000000000000000000000000000000000000000000000081526102139190600401614a8c565b50565b5f612467613275565b90505f61247261223e565b5f85815260019190910160209081526040808320868452825280832060050180548251818502810185019093528083529193909284015b82821015612546575f8481526020902060408051606081019091529083018054829060ff1660078111156124df576124df61445d565b60078111156124f0576124f061445d565b8152905461010081046fffffffffffffffffffffffffffffffff166020808401919091527101000000000000000000000000000000000090910460ff1660409092019190915290825260019290920191016124a9565b5050505090505f61255561223e565b5f86815260019190910160209081526040808320878452825280832060060180548251818502810185019093528083529193909284015b82821015612629575f8481526020902060408051606081019091529083018054829060ff1660078111156125c2576125c261445d565b60078111156125d3576125d361445d565b8152905461010081046fffffffffffffffffffffffffffffffff166020808401919091527101000000000000000000000000000000000090910460ff16604090920191909152908252600192909201910161258c565b5050505090505f61263861223e565b5f87815260019190910160209081526040808320888452825280832060070180548251818502810185019093528083529193909284015b8282101561270c575f8481526020902060408051606081019091529083018054829060ff1660078111156126a5576126a561445d565b60078111156126b6576126b661445d565b8152905461010081046fffffffffffffffffffffffffffffffff166020808401919091527101000000000000000000000000000000000090910460ff16604090920191909152908252600192909201910161266f565b509293505f925050505b83518110156129e65761274684828151811061273457612734614b1d565b60200260200101516040015160021690565b156129de575f5b856003015f8981526020019081526020015f205f86848151811061277357612773614b1d565b6020026020010151602001516fffffffffffffffffffffffffffffffff1681526020019081526020015f20805490508110156129dc575f888152600387016020526040812086518992908890869081106127cf576127cf614b1d565b6020026020010151602001516fffffffffffffffffffffffffffffffff1681526020019081526020015f20828154811061280b5761280b614b1d565b905f5260205f200154036129ca57856003015f8981526020019081526020015f205f86848151811061283f5761283f614b1d565b6020026020010151602001516fffffffffffffffffffffffffffffffff1681526020019081526020015f206001876003015f8b81526020019081526020015f205f88868151811061289257612892614b1d565b6020026020010151602001516fffffffffffffffffffffffffffffffff1681526020019081526020015f20805490506128cb9190614c0f565b815481106128db576128db614b1d565b905f5260205f200154866003015f8a81526020019081526020015f205f87858151811061290a5761290a614b1d565b6020026020010151602001516fffffffffffffffffffffffffffffffff1681526020019081526020015f20828154811061294657612946614b1d565b905f5260205f200181905550856003015f8981526020019081526020015f205f86848151811061297857612978614b1d565b6020026020010151602001516fffffffffffffffffffffffffffffffff1681526020019081526020015f208054806129b2576129b2614bae565b600190038181905f5260205f20015f905590556129dc565b806129d481614b77565b91505061274d565b505b600101612716565b505f5b8251811015612ca757612a0783828151811061273457612734614b1d565b15612c9f575f5b856003015f8981526020019081526020015f205f858481518110612a3457612a34614b1d565b6020026020010151602001516fffffffffffffffffffffffffffffffff1681526020019081526020015f2080549050811015612c9d575f88815260038701602052604081208551899290879086908110612a9057612a90614b1d565b6020026020010151602001516fffffffffffffffffffffffffffffffff1681526020019081526020015f208281548110612acc57612acc614b1d565b905f5260205f20015403612c8b57856003015f8981526020019081526020015f205f858481518110612b0057612b00614b1d565b6020026020010151602001516fffffffffffffffffffffffffffffffff1681526020019081526020015f206001876003015f8b81526020019081526020015f205f878681518110612b5357612b53614b1d565b6020026020010151602001516fffffffffffffffffffffffffffffffff1681526020019081526020015f2080549050612b8c9190614c0f565b81548110612b9c57612b9c614b1d565b905f5260205f200154866003015f8a81526020019081526020015f205f868581518110612bcb57612bcb614b1d565b6020026020010151602001516fffffffffffffffffffffffffffffffff1681526020019081526020015f208281548110612c0757612c07614b1d565b905f5260205f200181905550856003015f8981526020019081526020015f205f858481518110612c3957612c39614b1d565b6020026020010151602001516fffffffffffffffffffffffffffffffff1681526020019081526020015f20805480612c7357612c73614bae565b600190038181905f5260205f20015f90559055612c9d565b80612c9581614b77565b915050612a0e565b505b6001016129e9565b505f5b8151811015612f6857612cc882828151811061273457612734614b1d565b15612f60575f5b856003015f8981526020019081526020015f205f848481518110612cf557612cf5614b1d565b6020026020010151602001516fffffffffffffffffffffffffffffffff1681526020019081526020015f2080549050811015612f5e575f88815260038701602052604081208451899290869086908110612d5157612d51614b1d565b6020026020010151602001516fffffffffffffffffffffffffffffffff1681526020019081526020015f208281548110612d8d57612d8d614b1d565b905f5260205f20015403612f4c57856003015f8981526020019081526020015f205f848481518110612dc157612dc1614b1d565b6020026020010151602001516fffffffffffffffffffffffffffffffff1681526020019081526020015f206001876003015f8b81526020019081526020015f205f868681518110612e1457612e14614b1d565b6020026020010151602001516fffffffffffffffffffffffffffffffff1681526020019081526020015f2080549050612e4d9190614c0f565b81548110612e5d57612e5d614b1d565b905f5260205f200154866003015f8a81526020019081526020015f205f858581518110612e8c57612e8c614b1d565b6020026020010151602001516fffffffffffffffffffffffffffffffff1681526020019081526020015f208281548110612ec857612ec8614b1d565b905f5260205f200181905550856003015f8981526020019081526020015f205f848481518110612efa57612efa614b1d565b6020026020010151602001516fffffffffffffffffffffffffffffffff1681526020019081526020015f20805480612f3457612f34614bae565b600190038181905f5260205f20015f90559055612f5e565b80612f5681614b77565b915050612ccf565b505b600101612caa565b50505050505050565b612f7b8280614c22565b90505f03612fe857604080518082018252601581527f456d70747920496e737472756374696f6e205365740000000000000000000000602082015290517f08c379a00000000000000000000000000000000000000000000000000000000081526102139190600401614a8c565b612ffb612ff58380614c22565b836132a2565b5f5b61300a6020840184614c86565b613018906020810190614c22565b9050811015613071576130696130316020850185614c86565b61303f906020810190614c22565b8381811061304f5761304f614b1d565b90506020020160208101906130649190614cce565b6136e3565b600101612ffd565b506130876130826040840184614ce9565b613762565b6130976130826060840184614ce9565b6130a76130826080840184614ce9565b5f6130b560c0840184614c22565b905011806130d057505f6130cc60e0840184614c22565b9050115b6040518060400160405280601d81526020017f4d7573742068617665206174206c65617374206f6e65206566666563740000008152509061313e576040517f08c379a00000000000000000000000000000000000000000000000000000000081526004016102139190614a8c565b5061315561314f60c0840184614c22565b83613813565b61316561314f60e0840184614c22565b5050565b5f8181526020839052604081208054829061318390614b77565b91829055509392505050565b61319b888888886138db565b506131aa8787868686866139e9565b5050505050505050565b5f60605f6131c0613a3b565b7fffffffff0000000000000000000000000000000000000000000000000000000086165f908152602082905260409081902054905191925073ffffffffffffffffffffffffffffffffffffffff1690819061321c908790614d4c565b5f60405180830381855af49150503d805f8114613254576040519150601f19603f3d011682016040523d82523d5f602084013e613259565b606091505b5090945092508361326c57825160208401fd5b50509250929050565b5f8061036560017f438102ff677bc3f21830c58117a05d6b953b31e3ea339da3f17957cd3941a690614c0f565b5f808080808681036132b8575050505050505050565b5f5b878110156135ff575f8989838181106132d5576132d5614b1d565b905060200201359050851561349057826132ee81614b77565b9350506132fa84613a68565b61337157605a81111561336c57604080518082018252600f81527f4d656d6f7279204f766572666c6f770000000000000000000000000000000000602082015290517f08c379a00000000000000000000000000000000000000000000000000000000081526102139190600401614a8c565b61346c565b8260010361346c57600284036133f05761271081111561336c57604080518082018252600f81527f4d656d6f7279204f766572666c6f770000000000000000000000000000000000602082015290517f08c379a00000000000000000000000000000000000000000000000000000000081526102139190600401614a8c565b5f6133f9613275565b5f8a8152600182016020908152604080832086845290915290205490915060ff1661346a576040518060600160405280602281526020016158ec602291396040517f08c379a00000000000000000000000000000000000000000000000000000000081526004016102139190614a8c565b505b60018711156134855761347e87614bdb565b96506135eb565b5f95505f96506135eb565b61349985614b77565b9450601381111561350957604080518082018252601381527f496e76616c696420496e737472756374696f6e00000000000000000000000000602082015290517f08c379a00000000000000000000000000000000000000000000000000000000081526102139190600401614a8c565b8061358d578861351a836001614d62565b1061358457604080518082018252601781527f496e76616c696420496e737472756374696f6e20536574000000000000000000602082015290517f08c379a00000000000000000000000000000000000000000000000000000000081526102139190600401614a8c565b506001016135ed565b600381101561359f57600196506135c8565b60118110156135b157600296506135c8565b60128110156135c357600396506135c8565b600496505b600195505f92508989838181106135e1576135e1614b1d565b9050602002013593505b505b806135f781614b77565b9150506132ba565b505f85118061360b5750835b1561367557604080518082018252601781527f496e76616c696420496e737472756374696f6e20536574000000000000000000602082015290517f08c379a00000000000000000000000000000000000000000000000000000000081526102139190600401614a8c565b605a8311156131aa57604080518082018252601981527f496e737472756374696f6e2053657420546f6f204c6172676500000000000000602082015290517f08c379a00000000000000000000000000000000000000000000000000000000081526102139190600401614a8c565b6008808260078111156136f8576136f861445d565b1061316557604080518082018252601281527f496e76616c696420506172616d20547970650000000000000000000000000000602082015290517f08c379a00000000000000000000000000000000000000000000000000000000081526102139190600401614a8c565b6127108111156137d157604080518082018252600f81527f4d656d6f7279204f766572666c6f770000000000000000000000000000000000602082015290517f08c379a00000000000000000000000000000000000000000000000000000000081526102139190600401614a8c565b5f5b8181101561380e576138068383838181106137f0576137f0614b1d565b6130649260206060909202019081019150614cce565b6001016137d3565b505050565b5f5b828110156138d55761385a84848381811061383257613832614b1d565b90506020028101906138449190614d75565b613855906060810190604001614db3565b613a90565b61389284848381811061386f5761386f614b1d565b90506020028101906138819190614d75565b613064906080810190606001614cce565b6138cd8484838181106138a7576138a7614b1d565b90506020028101906138b99190614d75565b6138c79060e0810190614c22565b846132a2565b600101613815565b50505050565b5f6138e46121e7565b5f858152600191909101602052604090205460ff1661396257604080518082018252601581527f506f6c69637920646f6573206e6f742065786973740000000000000000000000602082015290517f08c379a00000000000000000000000000000000000000000000000000000000081526102139190600401614a8c565b5f84815260018681016020908152604080842087855290915290912080547fffffffffffffffffffffffffffffffffffffffffffffffffffffffffffffff0016821781558391016139b382826157b0565b50505f848152600186016020908152604080832086845290915290206008018390556139e0858585613b0f565b50909392505050565b5f6139f26121ba565b5f888152602082815260408083208a84529091529020909150613a1685878361500a565b505f8781526020828152604080832089845290915290206001016131aa83858361500a565b5f8061036560017fbe498a3b14fd79a48c3c9af86ff14271ed497d09071013334028d28e7791db20614c0f565b5f6004821480613a785750600282145b80613a835750601282145b8061036557505060111490565b600380826002811115613aa557613aa561445d565b1061316557604080518082018252601381527f496e76616c696420456666656374205479706500000000000000000000000000602082015290517f08c379a00000000000000000000000000000000000000000000000000000000081526102139190600401614a8c565b5f613b18613275565b5f8481526001860160209081526040808320868452825280832060050180548251818502810185019093528083529495509293909291849084015b82821015613bf0575f8481526020902060408051606081019091529083018054829060ff166007811115613b8957613b8961445d565b6007811115613b9a57613b9a61445d565b8152905461010081046fffffffffffffffffffffffffffffffff166020808401919091527101000000000000000000000000000000000090910460ff166040909201919091529082526001929092019101613b53565b5050505f868152600188016020908152604080832088845282528083206006018054825181850281018501909352808352959650929490935090849084015b82821015613ccc575f8481526020902060408051606081019091529083018054829060ff166007811115613c6557613c6561445d565b6007811115613c7657613c7661445d565b8152905461010081046fffffffffffffffffffffffffffffffff166020808401919091527101000000000000000000000000000000000090910460ff166040909201919091529082526001929092019101613c2f565b5050505f878152600189016020908152604080832089845282528083206007018054825181850281018501909352808352959650929490935090849084015b82821015613da8575f8481526020902060408051606081019091529083018054829060ff166007811115613d4157613d4161445d565b6007811115613d5257613d5261445d565b8152905461010081046fffffffffffffffffffffffffffffffff166020808401919091527101000000000000000000000000000000000090910460ff166040909201919091529082526001929092019101613d0b565b509293505f925050505b8351811015613eb957613dd084828151811061273457612734614b1d565b15613eb1575f848281518110613de857613de8614b1d565b60209081029190910181015101516fffffffffffffffffffffffffffffffff1690505f805b5f8a81526003890160209081526040808320868452909152902054811015613e7d575f8a81526003890160209081526040808320868452909152902080548a919083908110613e5e57613e5e614b1d565b905f5260205f20015403613e755760019150613e7d565b600101613e0d565b5080613eae575f89815260038801602090815260408083208584528252822080546001810182559083529120018890555b50505b600101613db2565b505f805b8351811015613fc257613edb84828151811061273457612734614b1d565b15613fba57838181518110613ef257613ef2614b1d565b60209081029190910181015101516fffffffffffffffffffffffffffffffff1691505f805b5f8a81526003890160209081526040808320878452909152902054811015613f87575f8a81526003890160209081526040808320878452909152902080548a919083908110613f6857613f68614b1d565b905f5260205f20015403613f7f5760019150613f87565b600101613f17565b5080613fb8575f89815260038801602090815260408083208684528252822080546001810182559083529120018890555b505b600101613ebd565b505f5b82518110156140ca57613fe383828151811061273457612734614b1d565b156140c257828181518110613ffa57613ffa614b1d565b60209081029190910181015101516fffffffffffffffffffffffffffffffff1691505f805b5f8a815260038901602090815260408083208784529091529020548110156140bf575f8a81526003890160209081526040808320878452909152902080548a91908390811061407057614070614b1d565b905f5260205f2001540361408757600191506140bf565b816140b7575f8a815260038901602090815260408083208784528252822080546001810182559083529120018990555b60010161401f565b50505b600101613fc5565b505050505050505050565b6040518061010001604052806060815260200161410c60405180606001604052806060815260200160608152602001606081525090565b81526020016060815260200160608152602001606081526020015f815260200160608152602001606081525090565b60405180604001604052805f151581526020016141566140d5565b905290565b828054828255905f5260205f20908101928215614194579160200282015b82811115614194578251825591602001919060010190614179565b506141a0929150614235565b5090565b5080545f8255905f5260205f209081019061245b9190614235565b5080545f8255601f0160209004905f5260205f209081019061245b9190614235565b5080545f8255905f5260205f209081019061245b9190614249565b5080545f8255905f5260205f209081019061245b9190614265565b5080545f8255600602905f5260205f209081019061245b919061429c565b5b808211156141a0575f8155600101614236565b808211156141a0575f61425c828261430a565b50600101614249565b5b808211156141a05780547fffffffffffffffffffffffffffff000000000000000000000000000000000000168155600101614266565b808211156141a05780547fffffffffffffffffffffffffffffffffffffffffffffffffffffffff000000001681555f6142d8600183018261430a565b600282015f9055600382015f6142ee919061430a565b6142fb600483015f6141a4565b505f600582015560060161429c565b50805461431690614aa5565b5f825580601f10614325575050565b601f0160209004905f5260205f209081019061245b9190614235565b5f5f60408385031215614352575f5ffd5b50508035926020909101359150565b5f81518084528060208401602086015e5f6020828601015260207fffffffffffffffffffffffffffffffffffffffffffffffffffffffffffffffe0601f83011685010191505092915050565b602081525f8251604060208401526143c86060840182614361565b905060208401517fffffffffffffffffffffffffffffffffffffffffffffffffffffffffffffffe08483030160408501526144038282614361565b95945050505050565b5f6020828403121561441c575f5ffd5b5035919050565b5f8151808452602084019350602083015f5b82811015614453578151865260209586019590910190600101614435565b5093949350505050565b7f4e487b71000000000000000000000000000000000000000000000000000000005f52602160045260245ffd5b6008811061449a5761449a61445d565b9052565b5f8151606084526144b26060850182614423565b60208481015186830387830152805180845290820193505f92909101905b808310156144fa576144e382855161448a565b6020820191506020840193506001830192506144d0565b50604085015192508581036040870152809150825180825260208201925060208160051b8301016020850194505f5b82811015614578577fffffffffffffffffffffffffffffffffffffffffffffffffffffffffffffffe0848303018552614563828751614361565b60209687019695909501949150600101614529565b50979650505050505050565b5f8151808452602084019350602083015f5b828110156144535781516145ab87825161448a565b6fffffffffffffffffffffffffffffffff602082015116602088015260ff604082015116604088015250606086019550602082019150600181019050614596565b6003811061449a5761449a61445d565b5f82825180855260208501945060208160051b830101602085015f5b83811015614707578483037fffffffffffffffffffffffffffffffffffffffffffffffffffffffffffffffe001885281518051151584526020810151614662602086018215159052565b50604081015161467560408601826145ec565b506060810151614688606086018261448a565b50608081015161012060808601526146a4610120860182614361565b905060a082015160a086015260c082015185820360c08701526146c78282614361565b91505060e082015185820360e08701526146e18282614423565b610100938401519690930195909552506020988901989093509190910190600101614618565b50909695505050505050565b5f81516101008452614729610100850182614423565b905060208301518482036020860152614742828261449e565b9150506040830151848203604086015261475c8282614584565b915050606083015184820360608601526147768282614584565b915050608083015184820360808601526147908282614584565b91505060a083015160a085015260c083015184820360c08601526147b482826145fc565b91505060e083015184820360e086015261440382826145fc565b5f602082016020835280845180835260408501915060408160051b8601019250602086015f5b828110156148a7578685037fffffffffffffffffffffffffffffffffffffffffffffffffffffffffffffffc0018452815180518087526020918201918088019190600582901b8901015f5b8281101561488e577fffffffffffffffffffffffffffffffffffffffffffffffffffffffffffffffe08a8303018452614879828651614713565b6020958601959490940193915060010161483f565b50975050506020948501949290920191506001016147f4565b50929695505050505050565b602081528151151560208201525f60208301516040808401526148d96060840182614713565b949350505050565b5f61010082840312156148f2575f5ffd5b50919050565b5f5f83601f840112614908575f5ffd5b50813567ffffffffffffffff81111561491f575f5ffd5b602083019150836020828501011115614936575f5ffd5b9250929050565b5f5f5f5f5f5f60808789031215614952575f5ffd5b86359550602087013567ffffffffffffffff81111561496f575f5ffd5b61497b89828a016148e1565b955050604087013567ffffffffffffffff811115614997575f5ffd5b6149a389828a016148f8565b909550935050606087013567ffffffffffffffff8111156149c2575f5ffd5b6149ce89828a016148f8565b979a9699509497509295939492505050565b5f5f5f5f5f5f5f60a0888a0312156149f6575f5ffd5b8735965060208801359550604088013567ffffffffffffffff811115614a1a575f5ffd5b614a268a828b016148e1565b955050606088013567ffffffffffffffff811115614a42575f5ffd5b614a4e8a828b016148f8565b909550935050608088013567ffffffffffffffff811115614a6d575f5ffd5b614a798a828b016148f8565b989b979a50959850939692959293505050565b602081525f614a9e6020830184614361565b9392505050565b600181811c90821680614ab957607f821691505b6020821081036148f2577f4e487b71000000000000000000000000000000000000000000000000000000005f52602260045260245ffd5b7f4e487b71000000000000000000000000000000000000000000000000000000005f52604160045260245ffd5b7f4e487b71000000000000000000000000000000000000000000000000000000005f52603260045260245ffd5b7f4e487b71000000000000000000000000000000000000000000000000000000005f52601160045260245ffd5b5f7fffffffffffffffffffffffffffffffffffffffffffffffffffffffffffffffff8203614ba757614ba7614b4a565b5060010190565b7f4e487b71000000000000000000000000000000000000000000000000000000005f52603160045260245ffd5b5f81614be957614be9614b4a565b507fffffffffffffffffffffffffffffffffffffffffffffffffffffffffffffffff0190565b8181038181111561036557610365614b4a565b5f5f83357fffffffffffffffffffffffffffffffffffffffffffffffffffffffffffffffe1843603018112614c55575f5ffd5b83018035915067ffffffffffffffff821115614c6f575f5ffd5b6020019150600581901b3603821315614936575f5ffd5b5f82357fffffffffffffffffffffffffffffffffffffffffffffffffffffffffffffffa1833603018112614cb8575f5ffd5b9190910192915050565b6008811061245b575f5ffd5b5f60208284031215614cde575f5ffd5b8135614a9e81614cc2565b5f5f83357fffffffffffffffffffffffffffffffffffffffffffffffffffffffffffffffe1843603018112614d1c575f5ffd5b83018035915067ffffffffffffffff821115614d36575f5ffd5b6020019150606081023603821315614936575f5ffd5b5f82518060208501845e5f920191825250919050565b8082018082111561036557610365614b4a565b5f82357ffffffffffffffffffffffffffffffffffffffffffffffffffffffffffffffee1833603018112614cb8575f5ffd5b6003811061245b575f5ffd5b5f60208284031215614dc3575f5ffd5b8135614a9e81614da7565b5b81811015613165575f8155600101614dcf565b68010000000000000000821115614dfb57614dfb614af0565b80548282558083101561380e57815f5260205f206138d5828201858301614dce565b67ffffffffffffffff831115614e3557614e35614af0565b614e3f8382614de2565b81815f5260205f205f5b85811015614e6557823582820155602090920191600101614e49565b505050505050565b68010000000000000000821115614e8657614e86614af0565b80548282558083101561380e57815f5260205f20601f840160051c8101601f85168015614f00577fffffffffffffffffffffffffffffffffffffffffffffffffffffffffffffffff820180547fffffffffffffffffffffffffffffffffffffffffffffffffffffffffffffffff8360200360031b1c168155505b506123c5601f840160051c830182614dce565b5f813561036581614cc2565b5f5f83357fffffffffffffffffffffffffffffffffffffffffffffffffffffffffffffffe1843603018112614f52575f5ffd5b83018035915067ffffffffffffffff821115614f6c575f5ffd5b602001915036819003821315614936575f5ffd5b8054614f8b90614aa5565b801561316557601f811160018114614fa45750505f9055565b5f83815260209020614fc1601f840160051c820160018301614dce565b505f8381526020812081855555505050565b601f82111561380e57805f5260205f20601f840160051c81016020851015614ff85750805b6123c5601f850160051c830182614dce565b67ffffffffffffffff83111561502257615022614af0565b615036836150308354614aa5565b83614fd3565b5f601f841160018114615086575f85156150505750838201355b7fffffffffffffffffffffffffffffffffffffffffffffffffffffffffffffffff600387901b1c1916600186901b1783556123c5565b5f838152602081207fffffffffffffffffffffffffffffffffffffffffffffffffffffffffffffffe08716915b828110156150d357868501358255602094850194600190920191016150b3565b508682101561510e577fffffffffffffffffffffffffffffffffffffffffffffffffffffffffffffffff60f88860031b161c19848701351681555b505060018560011b0183555050505050565b6801000000000000000083111561513957615139614af0565b805483825580841015615174575f828152602090208481019082015b808210156151715761516682614f80565b600182019150615155565b50505b505f8181526020812083915b85811015614e65576151928386614f1f565b61519d81838661500a565b50506020929092019160019182019101615180565b6151bc8283614c22565b67ffffffffffffffff8111156151d4576151d4614af0565b6151de8184614de2565b825f5260205f205f5b82811015615203578335828201556020909301926001016151e7565b50505050600181016152186020840184614c22565b67ffffffffffffffff81111561523057615230614af0565b61523a8184614e6d565b5f8381526020902092508060051c5f5b8181101561529f575f5f5b60208110156152925761528161526a87614f13565b60ff908116600384901b90811b91901b1984161790565b602096909601959150600101615255565b508582015560010161524a565b507fffffffffffffffffffffffffffffffffffffffffffffffffffffffffffffffe082168083038184146152fb575f5f5b828110156152f5576152e461526a88614f13565b6020979097019691506001016152d0565b50868401555b50505050505061530e6040830183614c22565b6138d5818360028601615120565b813561532781614cc2565b600881106153375761533761445d565b815460ff82169150817fffffffffffffffffffffffffffffffffffffffffffffffffffffffffffffff00821617835560208401356fffffffffffffffffffffffffffffffff81168114615388575f5ffd5b70ffffffffffffffffffffffffffffffff008160081b16837fffffffffffffffffffffffffffffff0000000000000000000000000000000000841617178455505050604082013560ff811681146153dd575f5ffd5b81547fffffffffffffffffffffffffffff00ffffffffffffffffffffffffffffffffff1660889190911b71ff00000000000000000000000000000000001617905550565b6801000000000000000083111561543a5761543a614af0565b80548382558084101561546f575f828152602090208481019082015b8082101561546c575f8255600182019150615456565b50505b505f8181526020812083915b85811015614e655761548d838361531c565b606092909201916001918201910161547b565b80545f8255801561316557815f5260205f2061380e82820182614dce565b5f81358015158114610365575f5ffd5b5f813561036581614da7565b600382106154ea576154ea61445d565b805462ff00008360101b167fffffffffffffffffffffffffffffffffffffffffffffffffffffffffff00ffff8216178255505050565b600882106155305761553061445d565b805463ff0000008360181b167fffffffffffffffffffffffffffffffffffffffffffffffffffffffff00ffffff8216178255505050565b615570826154be565b15157fffffffffffffffffffffffffffffffffffffffffffffffffffffffffffffff0082541660ff82168117835550506155e66155af602084016154be565b8280547fffffffffffffffffffffffffffffffffffffffffffffffffffffffffffff00ff1691151560081b61ff0016919091179055565b6155fb6155f5604084016154ce565b826154da565b61561061560a60608401614f13565b82615520565b61561d6080830183614f1f565b61562b81836001860161500a565b505060a0820135600282015561564460c0830183614f1f565b61565281836003860161500a565b505061566160e0830183614c22565b61566f818360048601614e1d565b50506101009190910135600590910155565b6801000000000000000083111561569a5761569a614af0565b80548382558084101561577357806006026006810482146156bd576156bd614b4a565b846006026006810486146156d3576156d3614b4a565b5f8481526020902091820191015b81811015615770575f81556156f860018201614f80565b5f600282015560038101805461570d90614aa5565b801561575457601f811160018114615727575f8355615752565b5f83815260209020615744601f840160051c820160018301614dce565b505f83815260208120818555555b505b5050615762600482016154a0565b5f60058201556006016156e1565b50505b505f8181526020812083915b85811015614e655761579a6157948487614d75565b83615567565b602092909201916006919091019060010161577f565b6157ba8283614c22565b67ffffffffffffffff8111156157d2576157d2614af0565b6157dc8184614de2565b825f5260205f205f5b82811015615801578335828201556020909301926001016157e5565b5050505061581e6158156020840184614c86565b600183016151b2565b61582b6040830183614ce9565b615839818360048601615421565b50506158486060830183614ce9565b615856818360058601615421565b50506158656080830183614ce9565b615873818360068601615421565b505060a0820135600782015561588c60c0830183614c22565b61589a818360088601615681565b50506158a960e0830183614c22565b6138d581836009860161568156fe506f6c6963792049442063616e6e6f7420626520302e2043726561746520706f6c696379206265666f7265207570646174696e67547261636b6572207265666572656e63656420696e2072756c65206e6f7420736574a2646970667358221220777695f63c72ab184b8bc1b5d63dd57621c0d3707896ae7c8b518d5872a73aa964736f6c634300081c0033","linkReferences":{}},"methodIdentifiers":{"createRule(uint256,(uint256[],(uint256[],uint8[],bytes[]),(uint8,uint128,uint8)[],(uint8,uint128,uint8)[],(uint8,uint128,uint8)[],uint256,(bool,bool,uint8,uint8,bytes,bytes32,string,uint256[],uint256)[],(bool,bool,uint8,uint8,bytes,bytes32,string,uint256[],uint256)[]),string,string)":"c8bf71f0","deleteRule(uint256,uint256)":"a31c8ebb","getAllRules(uint256)":"266fc8a5","getMaxLoopSize()":"230d4907","getMemorySize()":"59c8075b","getOpsSize1()":"49fd266d","getOpsSizeUpTo2()":"54daa681","getOpsSizeUpTo3()":"bef087a3","getOpsTotalSize()":"d951e134","getRule(uint256,uint256)":"6d279ef8","getRuleMetadata(uint256,uint256)":"12602c40","updateRule(uint256,uint256,(uint256[],(uint256[],uint8[],bytes[]),(uint8,uint128,uint8)[],(uint8,uint128,uint8)[],(uint8,uint128,uint8)[],uint256,(bool,bool,uint8,uint8,bytes,bytes32,string,uint256[],uint256)[],(bool,bool,uint8,uint8,bytes,bytes32,string,uint256[],uint256)[]),string,string)":"fd45fa79"},"id":96}