{"abi":[{"type":"function","name":"addClosedPolicySubscriber","inputs":[{"name":"policyId","type":"uint256","internalType":"uint256"},{"name":"subscriber","type":"address","internalType":"address"}],"outputs":[],"stateMutability":"nonpayable"},{"type":"function","name":"createCallingFunction","inputs":[{"name":"policyId","type":"uint256","internalType":"uint256"},{"name":"functionSignature","type":"bytes4","internalType":"bytes4"},{"name":"pTypes","type":"uint8[]","internalType":"enum ParamTypes[]"},{"name":"callingFunctionName","type":"string","internalType":"string"},{"name":"encodedValues","type":"string","internalType":"string"}],"outputs":[{"name":"","type":"uint256","internalType":"uint256"}],"stateMutability":"nonpayable"},{"type":"function","name":"createMappedTracker","inputs":[{"name":"policyId","type":"uint256","internalType":"uint256"},{"name":"tracker","type":"tuple","internalType":"struct Trackers","components":[{"name":"set","type":"bool","internalType":"bool"},{"name":"pType","type":"uint8","internalType":"enum ParamTypes"},{"name":"mapped","type":"bool","internalType":"bool"},{"name":"trackerKeyType","type":"uint8","internalType":"enum ParamTypes"},{"name":"trackerValue","type":"bytes","internalType":"bytes"},{"name":"trackerIndex","type":"uint256","internalType":"uint256"}]},{"name":"trackerName","type":"string","internalType":"string"},{"name":"trackerKeys","type":"bytes[]","internalType":"bytes[]"},{"name":"trackerValues","type":"bytes[]","internalType":"bytes[]"},{"name":"arrayType","type":"uint8","internalType":"enum TrackerArrayTypes"}],"outputs":[{"name":"","type":"uint256","internalType":"uint256"}],"stateMutability":"nonpayable"},{"type":"function","name":"createTracker","inputs":[{"name":"policyId","type":"uint256","internalType":"uint256"},{"name":"tracker","type":"tuple","internalType":"struct Trackers","components":[{"name":"set","type":"bool","internalType":"bool"},{"name":"pType","type":"uint8","internalType":"enum ParamTypes"},{"name":"mapped","type":"bool","internalType":"bool"},{"name":"trackerKeyType","type":"uint8","internalType":"enum ParamTypes"},{"name":"trackerValue","type":"bytes","internalType":"bytes"},{"name":"trackerIndex","type":"uint256","internalType":"uint256"}]},{"name":"trackerName","type":"string","internalType":"string"},{"name":"arrayType","type":"uint8","internalType":"enum TrackerArrayTypes"}],"outputs":[{"name":"","type":"uint256","internalType":"uint256"}],"stateMutability":"nonpayable"},{"type":"function","name":"deleteCallingFunction","inputs":[{"name":"policyId","type":"uint256","internalType":"uint256"},{"name":"callingFunctionId","type":"uint256","internalType":"uint256"}],"outputs":[],"stateMutability":"nonpayable"},{"type":"function","name":"deleteTracker","inputs":[{"name":"policyId","type":"uint256","internalType":"uint256"},{"name":"trackerIndex","type":"uint256","internalType":"uint256"}],"outputs":[],"stateMutability":"nonpayable"},{"type":"function","name":"getAllCallingFunctions","inputs":[{"name":"policyId","type":"uint256","internalType":"uint256"}],"outputs":[{"name":"","type":"tuple[]","internalType":"struct CallingFunctionStorageSet[]","components":[{"name":"set","type":"bool","internalType":"bool"},{"name":"signature","type":"bytes4","internalType":"bytes4"},{"name":"parameterTypes","type":"uint8[]","internalType":"enum ParamTypes[]"}]}],"stateMutability":"view"},{"type":"function","name":"getAllTrackers","inputs":[{"name":"policyId","type":"uint256","internalType":"uint256"}],"outputs":[{"name":"","type":"tuple[]","internalType":"struct Trackers[]","components":[{"name":"set","type":"bool","internalType":"bool"},{"name":"pType","type":"uint8","internalType":"enum ParamTypes"},{"name":"mapped","type":"bool","internalType":"bool"},{"name":"trackerKeyType","type":"uint8","internalType":"enum ParamTypes"},{"name":"trackerValue","type":"bytes","internalType":"bytes"},{"name":"trackerIndex","type":"uint256","internalType":"uint256"}]}],"stateMutability":"view"},{"type":"function","name":"getCallingFunction","inputs":[{"name":"policyId","type":"uint256","internalType":"uint256"},{"name":"callingFunctionId","type":"uint256","internalType":"uint256"}],"outputs":[{"name":"","type":"tuple","internalType":"struct CallingFunctionStorageSet","components":[{"name":"set","type":"bool","internalType":"bool"},{"name":"signature","type":"bytes4","internalType":"bytes4"},{"name":"parameterTypes","type":"uint8[]","internalType":"enum ParamTypes[]"}]}],"stateMutability":"view"},{"type":"function","name":"getCallingFunctionMetadata","inputs":[{"name":"policyId","type":"uint256","internalType":"uint256"},{"name":"callingFunctionId","type":"uint256","internalType":"uint256"}],"outputs":[{"name":"","type":"tuple","internalType":"struct CallingFunctionHashMapping","components":[{"name":"callingFunction","type":"string","internalType":"string"},{"name":"signature","type":"bytes4","internalType":"bytes4"},{"name":"encodedValues","type":"string","internalType":"string"}]}],"stateMutability":"view"},{"type":"function","name":"getMappedTrackerValue","inputs":[{"name":"policyId","type":"uint256","internalType":"uint256"},{"name":"index","type":"uint256","internalType":"uint256"},{"name":"trackerKey","type":"bytes","internalType":"bytes"}],"outputs":[{"name":"","type":"bytes","internalType":"bytes"}],"stateMutability":"view"},{"type":"function","name":"getTracker","inputs":[{"name":"policyId","type":"uint256","internalType":"uint256"},{"name":"index","type":"uint256","internalType":"uint256"}],"outputs":[{"name":"","type":"tuple","internalType":"struct Trackers","components":[{"name":"set","type":"bool","internalType":"bool"},{"name":"pType","type":"uint8","internalType":"enum ParamTypes"},{"name":"mapped","type":"bool","internalType":"bool"},{"name":"trackerKeyType","type":"uint8","internalType":"enum ParamTypes"},{"name":"trackerValue","type":"bytes","internalType":"bytes"},{"name":"trackerIndex","type":"uint256","internalType":"uint256"}]}],"stateMutability":"view"},{"type":"function","name":"getTrackerMetadata","inputs":[{"name":"policyId","type":"uint256","internalType":"uint256"},{"name":"trackerId","type":"uint256","internalType":"uint256"}],"outputs":[{"name":"","type":"tuple","internalType":"struct TrackerMetadataStruct","components":[{"name":"trackerName","type":"string","internalType":"string"},{"name":"initialValue","type":"bytes","internalType":"bytes"},{"name":"initialKeys","type":"bytes[]","internalType":"bytes[]"},{"name":"initialValues","type":"bytes[]","internalType":"bytes[]"},{"name":"arrayType","type":"uint8","internalType":"enum TrackerArrayTypes"}]}],"stateMutability":"view"},{"type":"function","name":"getTrackerToRuleIds","inputs":[{"name":"policyId","type":"uint256","internalType":"uint256"},{"name":"trackerIndex","type":"uint256","internalType":"uint256"}],"outputs":[{"name":"","type":"uint256[]","internalType":"uint256[]"}],"stateMutability":"view"},{"type":"function","name":"isClosedPolicySubscriber","inputs":[{"name":"policyId","type":"uint256","internalType":"uint256"},{"name":"subscriber","type":"address","internalType":"address"}],"outputs":[{"name":"","type":"bool","internalType":"bool"}],"stateMutability":"view"},{"type":"function","name":"removeClosedPolicySubscriber","inputs":[{"name":"policyId","type":"uint256","internalType":"uint256"},{"name":"subscriber","type":"address","internalType":"address"}],"outputs":[],"stateMutability":"nonpayable"},{"type":"function","name":"updateCallingFunction","inputs":[{"name":"policyId","type":"uint256","internalType":"uint256"},{"name":"callingFunctionID","type":"uint256","internalType":"uint256"},{"name":"functionSignature","type":"bytes4","internalType":"bytes4"},{"name":"pTypes","type":"uint8[]","internalType":"enum ParamTypes[]"}],"outputs":[{"name":"","type":"uint256","internalType":"uint256"}],"stateMutability":"nonpayable"},{"type":"function","name":"updateTracker","inputs":[{"name":"_policyId","type":"uint256","internalType":"uint256"},{"name":"_trackerIndex","type":"uint256","internalType":"uint256"},{"name":"_tracker","type":"tuple","internalType":"struct Trackers","components":[{"name":"set","type":"bool","internalType":"bool"},{"name":"pType","type":"uint8","internalType":"enum ParamTypes"},{"name":"mapped","type":"bool","internalType":"bool"},{"name":"trackerKeyType","type":"uint8","internalType":"enum ParamTypes"},{"name":"trackerValue","type":"bytes","internalType":"bytes"},{"name":"trackerIndex","type":"uint256","internalType":"uint256"}]},{"name":"_trackerKey","type":"bytes","internalType":"bytes"},{"name":"_trackerValue","type":"bytes","internalType":"bytes"}],"outputs":[],"stateMutability":"nonpayable"},{"type":"function","name":"updateTracker","inputs":[{"name":"policyId","type":"uint256","internalType":"uint256"},{"name":"trackerIndex","type":"uint256","internalType":"uint256"},{"name":"tracker","type":"tuple","internalType":"struct Trackers","components":[{"name":"set","type":"bool","internalType":"bool"},{"name":"pType","type":"uint8","internalType":"enum ParamTypes"},{"name":"mapped","type":"bool","internalType":"bool"},{"name":"trackerKeyType","type":"uint8","internalType":"enum ParamTypes"},{"name":"trackerValue","type":"bytes","internalType":"bytes"},{"name":"trackerIndex","type":"uint256","internalType":"uint256"}]}],"outputs":[],"stateMutability":"nonpayable"},{"type":"event","name":"AssociatedRuleDeleted","inputs":[{"name":"policyId","type":"uint256","indexed":true,"internalType":"uint256"},{"name":"foreignCallId","type":"uint256","indexed":true,"internalType":"uint256"}],"anonymous":false},{"type":"event","name":"CallingFunctionCreated","inputs":[{"name":"policyId","type":"uint256","indexed":true,"internalType":"uint256"},{"name":"callingFunctionId","type":"uint256","indexed":true,"internalType":"uint256"}],"anonymous":false},{"type":"event","name":"CallingFunctionDeleted","inputs":[{"name":"policyId","type":"uint256","indexed":true,"internalType":"uint256"},{"name":"callingFunctionId","type":"uint256","indexed":true,"internalType":"uint256"}],"anonymous":false},{"type":"event","name":"CallingFunctionUpdated","inputs":[{"name":"policyId","type":"uint256","indexed":true,"internalType":"uint256"},{"name":"callingFunctionId","type":"uint256","indexed":true,"internalType":"uint256"}],"anonymous":false},{"type":"event","name":"PolicySubsciberAdded","inputs":[{"name":"policyId","type":"uint256","indexed":true,"internalType":"uint256"},{"name":"subscriber","type":"address","indexed":true,"internalType":"address"}],"anonymous":false},{"type":"event","name":"PolicySubsciberRemoved","inputs":[{"name":"policyId","type":"uint256","indexed":true,"internalType":"uint256"},{"name":"subscriber","type":"address","indexed":true,"internalType":"address"}],"anonymous":false},{"type":"event","name":"TrackerCreated","inputs":[{"name":"policyId","type":"uint256","indexed":true,"internalType":"uint256"},{"name":"trackerId","type":"uint256","indexed":true,"internalType":"uint256"}],"anonymous":false},{"type":"event","name":"TrackerDeleted","inputs":[{"name":"policyId","type":"uint256","indexed":true,"internalType":"uint256"},{"name":"trackerId","type":"uint256","indexed":true,"internalType":"uint256"}],"anonymous":false},{"type":"event","name":"TrackerUpdated","inputs":[{"name":"policyId","type":"uint256","indexed":true,"internalType":"uint256"},{"name":"trackerId","type":"uint256","indexed":true,"internalType":"uint256"}],"anonymous":false}],"bytecode":{"object":"0x6080604052348015600e575f5ffd5b50614b178061001c5f395ff3fe608060405234801561000f575f5ffd5b5060043610610149575f3560e01c8063965d884c116100c7578063eeeb60471161007d578063f3e7dfc311610063578063f3e7dfc314610301578063f479c99414610321578063febf8f9214610334575f5ffd5b8063eeeb6047146102ce578063f1073d99146102ee575f5ffd5b8063a82c9e07116100ad578063a82c9e0714610288578063b09558781461029b578063bfc85236146102ae575f5ffd5b8063965d884c146102555780639f9fa71914610268575f5ffd5b806356f39ae31161011c5780636355ed0b116101025780636355ed0b1461020257806372a340d7146102225780637374c99414610242575f5ffd5b806356f39ae3146101c157806356f3b05f146101e2575f5ffd5b80632711fe6b1461014d5780633bf07314146101625780633fafdf6e1461018b5780634c957ad91461019e575b5f5ffd5b61016061015b366004613a18565b610347565b005b610175610170366004613a5e565b61047f565b6040516101829190613b6f565b60405180910390f35b610160610199366004613a5e565b6107b1565b6101b16101ac366004613a18565b610db4565b6040519015158152602001610182565b6101d46101cf366004613de0565b610dfa565b604051908152602001610182565b6101f56101f0366004613e3d565b6110b4565b6040516101829190613ece565b610215610210366004613a5e565b611320565b6040516101829190613f4f565b610235610230366004613a5e565b611398565b6040516101829190613f86565b610160610250366004613a18565b61151f565b6101d4610263366004614008565b611646565b61027b61027636600461411c565b611819565b6040516101829190614168565b610160610296366004613a5e565b611977565b6101d46102a936600461417a565b611a1a565b6102c16102bc366004613a5e565b611b0f565b60405161018291906142a0565b6102e16102dc366004613a5e565b611c13565b60405161018291906142b2565b6101d46102fc36600461437e565b611da7565b61031461030f366004613e3d565b61200f565b604051610182919061445f565b61016061032f3660046144d4565b6121db565b610160610342366004614580565b6122ac565b6103518233612310565b61035a8261246e565b73ffffffffffffffffffffffffffffffffffffffff81166103e357604080518082018252601c81527f5a65726f20416464726573732043616e6e6f742042652041646d696e00000000602082015290517f08c379a00000000000000000000000000000000000000000000000000000000081526103da9190600401614168565b60405180910390fd5b60016103ed6124fd565b5f8481526001919091016020908152604080832073ffffffffffffffffffffffffffffffffffffffff8616808552600590910190925280832080547fffffffffffffffffffffffffffffffffffffffffffffffffffffffffffffff001694151594909417909355915184917f790a3138425334d31f4463869c596f58d51e891ecb665b5090fa0ae9ed8b6fd291a35050565b610487613748565b61048f61252a565b5f84815260209182526040808220858352909252819020815160a081019092528054829082906104be906145c2565b80601f01602080910402602001604051908101604052809291908181526020018280546104ea906145c2565b80156105355780601f1061050c57610100808354040283529160200191610535565b820191905f5260205f20905b81548152906001019060200180831161051857829003601f168201915b5050505050815260200160018201805461054e906145c2565b80601f016020809104026020016040519081016040528092919081815260200182805461057a906145c2565b80156105c55780601f1061059c576101008083540402835291602001916105c5565b820191905f5260205f20905b8154815290600101906020018083116105a857829003601f168201915b5050505050815260200160028201805480602002602001604051908101604052809291908181526020015f905b8282101561069a578382905f5260205f2001805461060f906145c2565b80601f016020809104026020016040519081016040528092919081815260200182805461063b906145c2565b80156106865780601f1061065d57610100808354040283529160200191610686565b820191905f5260205f20905b81548152906001019060200180831161066957829003601f168201915b5050505050815260200190600101906105f2565b50505050815260200160038201805480602002602001604051908101604052809291908181526020015f905b8282101561076e578382905f5260205f200180546106e3906145c2565b80601f016020809104026020016040519081016040528092919081815260200182805461070f906145c2565b801561075a5780601f106107315761010080835404028352916020019161075a565b820191905f5260205f20905b81548152906001019060200180831161073d57829003601f168201915b5050505050815260200190600101906106c6565b50505090825250600482015460209091019060ff16600581111561079457610794613b42565b60058111156107a5576107a5613b42565b90525090505b92915050565b6107bb8233612310565b6107c48261246e565b5f6107cd6124fd565b5f8481526001919091016020526040812091506107e8612557565b5f85815260019190910160209081526040808320868452909152902054610100900460e01b9050610817612557565b5f858152600191820160209081526040808320878452909152812080547fffffffffffffffffffffffffffffffffffffffffffffffffffffff00000000001681559161086590830182613786565b50507fffffffff0000000000000000000000000000000000000000000000000000000081165f9081526001830160209081526040808320839055600285018252808320805482518185028101850190935280835291929091908301828280156108eb57602002820191905f5260205f20905b8154815260200190600101908083116108d7575b509394505f93505050505b8151811015610bc2575f8282815181106109125761091261460d565b602002602001015190505f5f90505f866001016002018054806020026020016040519081016040528092919081815260200182805480156109b157602002820191905f5260205f20905f905b82829054906101000a900460e01b7bffffffffffffffffffffffffffffffffffffffffffffffffffffffff19168152602001906004019060208260030104928301926001038202915080841161095e5790505b509394505f93505050505b8151811080156109ca575082155b15610abc575f8282815181106109e2576109e261460d565b60200260200101519050877bffffffffffffffffffffffffffffffffffffffffffffffffffffffff1916817bffffffffffffffffffffffffffffffffffffffffffffffffffffffff191603610a375750610aaa565b7fffffffff0000000000000000000000000000000000000000000000000000000081165f90815260028a0160205260408120905b8154811015610aa65786828281548110610a8757610a8761460d565b905f5260205f20015403610a9e5760019550610aa6565b600101610a6b565b5050505b80610ab481614667565b9150506109bc565b5081610bb757610aca612584565b5f8a8152600191820160209081526040808320878452909152812080547fffffffffffffffffffffffffffffffffffffffffffffffffffffffffffffff0016815591820181610b1982826137a8565b600182015f610b2882826137a8565b610b35600183015f613786565b610b42600283015f6137c3565b50610b529050600483015f6137de565b610b5f600583015f6137de565b610b6c600683015f6137de565b610b79600783015f6137f9565b610b86600883015f6137f9565b50506040518a92508b91507fc2ebaca961b98bedef10bce18fc3c8bdcba15a62d52feb7f59578c9998e1d42a905f90a35b5050506001016108f6565b507fffffffff0000000000000000000000000000000000000000000000000000000082165f9081526002840160205260408120610bfe916137a8565b5f5b6003840154811015610d8057827bffffffffffffffffffffffffffffffffffffffffffffffffffffffff1916846001016002018281548110610c4457610c4461460d565b905f5260205f2090600891828204019190066004029054906101000a900460e01b7bffffffffffffffffffffffffffffffffffffffffffffffffffffffff191603610d7857600384018054610c9b9060019061469e565b81548110610cab57610cab61460d565b905f5260205f2090600891828204019190066004029054906101000a900460e01b846001016002018281548110610ce457610ce461460d565b905f5260205f2090600891828204019190066004026101000a81548163ffffffff021916908360e01c021790555083600101600201805480610d2857610d286146b1565b5f8281526020902060087fffffffffffffffffffffffffffffffffffffffffffffffffffffffffffffffff90920191820401805463ffffffff600460078516026101000a02191690559055610d80565b600101610c00565b50604051849086907f5b5ef7f155302df6e9d2c1a0610671ea5b89849a316a1f75018ab14fdd5a8bb6905f90a35050505050565b5f610dbd6124fd565b5f9384526001016020908152604080852073ffffffffffffffffffffffffffffffffffffffff949094168552600590930190525090205460ff1690565b5f610e058533612310565b610e0e8561246e565b5f610e17612557565b5f878152600182016020908152604080832089845282529182902080548351606081019094526034808552949550909361010090910460e01b7fffffffff00000000000000000000000000000000000000000000000000000000908116908916149291614a729083013990610eb9576040517f08c379a00000000000000000000000000000000000000000000000000000000081526004016103da9190614168565b50835181600101805490501115604051806080016040528060468152602001614a2c6046913990610f17576040517f08c379a00000000000000000000000000000000000000000000000000000000081526004016103da9190614168565b505f5b6001820154811015610ff057816001018181548110610f3b57610f3b61460d565b905f5260205f2090602091828204019190069054906101000a900460ff166007811115610f6a57610f6a613b42565b858281518110610f7c57610f7c61460d565b60200260200101516007811115610f9557610f95613b42565b146040518060600160405280603c8152602001614aa6603c913990610fe7576040517f08c379a00000000000000000000000000000000000000000000000000000000081526004016103da9190614168565b50600101610f1a565b5083516001820154101561107d5760018101545b845181101561107b57816001018582815181106110235761102361460d565b60209081029190910181015182546001810184555f9384529282902091830490910180549192909160ff601f9092166101000a91820219169083600781111561106e5761106e613b42565b0217905550600101611004565b505b604051869088907f2b77470866bba4d7ed745d96afff93047d8aad605c3a97a181658f934bda526f905f90a3509395945050505050565b60605f6110bf6125b1565b5f848152602082905260408120549192508167ffffffffffffffff8111156110e9576110e9613c99565b60405190808252806020026020018201604052801561116557816020015b6040805160c0810182525f80825260208083018290529282018190526060808301829052608083015260a082015282527fffffffffffffffffffffffffffffffffffffffffffffffffffffffffffffffff9092019101816111075790505b5090505f60015b838111611315575f878152600186016020908152604080832084845290915290205460ff1615611303575f8781526001860160209081526040808320848452825291829020825160c08101909352805460ff8082161515855291928401916101009091041660078111156111e2576111e2613b42565b60078111156111f3576111f3613b42565b8152815460ff620100008204811615156020840152604090920191630100000090910416600781111561122857611228613b42565b600781111561123957611239613b42565b815260200160018201805461124d906145c2565b80601f0160208091040260200160405190810160405280929190818152602001828054611279906145c2565b80156112c45780601f1061129b576101008083540402835291602001916112c4565b820191905f5260205f20905b8154815290600101906020018083116112a757829003601f168201915b505050505081526020016002820154815250508383815181106112e9576112e961460d565b602002602001018190525081806112ff90614667565b9250505b8061130d81614667565b91505061116c565b509095945050505050565b60605f61132b6125b1565b5f8581526003820160209081526040808320878452825291829020805483518184028101840190945280845293945091929083018282801561138a57602002820191905f5260205f20905b815481526020019060010190808311611376575b505050505091505092915050565b6040805160c0810182525f808252602082018190529181018290526060808201839052608082015260a08101829052906113d06125b1565b5f8581526001820160209081526040808320878452825291829020825160c08101909352805460ff808216151585529495509293909291840191610100900416600781111561142157611421613b42565b600781111561143257611432613b42565b8152815460ff620100008204811615156020840152604090920191630100000090910416600781111561146757611467613b42565b600781111561147857611478613b42565b815260200160018201805461148c906145c2565b80601f01602080910402602001604051908101604052809291908181526020018280546114b8906145c2565b80156115035780601f106114da57610100808354040283529160200191611503565b820191905f5260205f20905b8154815290600101906020018083116114e657829003601f168201915b5050505050815260200160028201548152505091505092915050565b6115298233612310565b6115328261246e565b73ffffffffffffffffffffffffffffffffffffffff81166115b257604080518082018252601c81527f5a65726f20416464726573732043616e6e6f742042652041646d696e00000000602082015290517f08c379a00000000000000000000000000000000000000000000000000000000081526103da9190600401614168565b6115ba6124fd565b5f8381526001919091016020908152604080832073ffffffffffffffffffffffffffffffffffffffff8516808552600590910190925280832080547fffffffffffffffffffffffffffffffffffffffffffffffffffffffffffffff0016905551909184917febc594f3b2a99e6227cfcc8bd404d054b6cc3dad7f287e1944cb88681a05c14c9190a35050565b5f6116518633612310565b61165a8661246e565b61166a60608601604087016146ed565b156116d457604080518082018252600c81527f496e76616c696420747970650000000000000000000000000000000000000000602082015290517f08c379a00000000000000000000000000000000000000000000000000000000081526103da9190600401614168565b60066116e66040870160208801614706565b60078111156116f7576116f7613b42565b1480611723575060076117106040870160208801614706565b600781111561172157611721613b42565b145b801561173f57505f82600581111561173d5761173d613b42565b145b156117a957604080518082018252600c81527f496e76616c696420747970650000000000000000000000000000000000000000602082015290517f08c379a00000000000000000000000000000000000000000000000000000000081526103da9190600401614168565b6117b2856125de565b5f6117bc876128c8565b90506117c98782886128fa565b6117e3878287876117dd60808c018c61471f565b8961291a565b604051819088907f1ea0bdfd9680c9b8e4038e41083d7800dca81e6f55a15ce48d858ebb70693d2a905f90a39695505050505050565b60605f6118246125b1565b5f86815260018201602090815260408083208884529091529020549091506301000000900460ff16600581600781111561186057611860613b42565b148061187d5750600181600781111561187b5761187b613b42565b145b156118ae57838051906020012060405160200161189c91815260200190565b60405160208183030381529060405293505b5f86815260028301602090815260408083208884529091529081902090516118d7908690614780565b908152602001604051809103902080546118f0906145c2565b80601f016020809104026020016040519081016040528092919081815260200182805461191c906145c2565b80156119675780601f1061193e57610100808354040283529160200191611967565b820191905f5260205f20905b81548152906001019060200180831161194a57829003601f168201915b5050505050925050509392505050565b6119818233612310565b61198a8261246e565b6119926125b1565b5f838152600191820160209081526040808320858452909152812080547fffffffffffffffffffffffffffffffffffffffffffffffffffffffff00000000168155916119e090830182613817565b600282015f9055505080827ed9d817df2d853a886f2cbe7a671a676890264711abbb9d2c3ee79fb1bb653a60405160405180910390a35050565b5f611a258633612310565b611a2e8661246e565b611a366124fd565b5f878152600191909101602052604090205460ff16611ab457604080518082018252601581527f506f6c69637920646f6573206e6f742065786973740000000000000000000000602082015290517f08c379a00000000000000000000000000000000000000000000000000000000081526103da9190600401614168565b5f611abe87612b40565b9050611acc87828888612b4a565b611ad98782888787612c81565b604051819088907f24103d2c348f3e3042849986bfdaee686941377c8a32bbe5b6cc13ad09c8af83905f90a39695505050505050565b60408051606080820183525f808352602083015291810191909152611b32612557565b5f8481526001918201602090815260408083208684528252918290208251606081018452815460ff811615158252610100900460e01b7fffffffff000000000000000000000000000000000000000000000000000000001681840152938101805484518185028101850186528181529294860193830182828015611c0257602002820191905f5260205f20905f905b82829054906101000a900460ff166007811115611be057611be0613b42565b815260206001928301818104948501949093039092029101808411611bc15790505b505050505081525050905092915050565b60408051606080820183528082525f602083015291810191909152611c36612daa565b5f84815260209182526040808220858352909252819020815160608101909252805482908290611c65906145c2565b80601f0160208091040260200160405190810160405280929190818152602001828054611c91906145c2565b8015611cdc5780601f10611cb357610100808354040283529160200191611cdc565b820191905f5260205f20905b815481529060010190602001808311611cbf57829003601f168201915b5050509183525050600182015460e01b7fffffffff00000000000000000000000000000000000000000000000000000000166020820152600282018054604090920191611d28906145c2565b80601f0160208091040260200160405190810160405280929190818152602001828054611d54906145c2565b8015611c025780601f10611d7657610100808354040283529160200191611c02565b820191905f5260205f20905b815481529060010190602001808311611d825750505091909252509195945050505050565b5f611db28a33612310565b611dbb8a61246e565b611dcb60608a0160408b016146ed565b611e3457604080518082018252600c81527f496e76616c696420747970650000000000000000000000000000000000000000602082015290517f08c379a00000000000000000000000000000000000000000000000000000000081526103da9190600401614168565b6006611e4660408b0160208c01614706565b6007811115611e5757611e57613b42565b1480611e8357506007611e7060408b0160208c01614706565b6007811115611e8157611e81613b42565b145b8015611e9f57505f826005811115611e9d57611e9d613b42565b145b15611f0957604080518082018252600c81527f496e76616c696420747970650000000000000000000000000000000000000000602082015290517f08c379a00000000000000000000000000000000000000000000000000000000081526103da9190600401614168565b611f12896125de565b848314611f65576040518060600160405280603181526020016149fb603191396040517f08c379a00000000000000000000000000000000000000000000000000000000081526004016103da9190614168565b5f611f6e6125b1565b5f8c815260209190915260409020549050611f888b6128c8565b90505f5b86811015611fef57611fe78c838d8b8b86818110611fac57611fac61460d565b9050602002810190611fbe919061471f565b8b8b88818110611fd057611fd061460d565b9050602002810190611fe2919061471f565b612dd7565b600101611f8c565b506120018b828b8b8b8b8b8b8b612dfb565b9a9950505050505050505050565b60605f61201a612557565b5f848152602082905260408120549192508167ffffffffffffffff81111561204457612044613c99565b60405190808252806020026020018201604052801561209057816020015b60408051606080820183525f8083526020830152918101919091528152602001906001900390816120625790505b5090505f60015b838111611315575f878152600186016020908152604080832084845290915290205460ff16156121c9575f8781526001868101602090815260408084208585528252928390208351606081018552815460ff811615158252610100900460e01b7fffffffff00000000000000000000000000000000000000000000000000000000168184015292810180548551818502810185018752818152949592949286019383018282801561219457602002820191905f5260205f20905f905b82829054906101000a900460ff16600781111561217257612172613b42565b8152602060019283018181049485019490930390920291018084116121535790505b5050505050815250508383815181106121af576121af61460d565b602002602001018190525081806121c590614667565b9250505b806121d381614667565b915050612097565b6121e58733612310565b6121ee8761246e565b5f6121f76125b1565b90506122768189896122088a614796565b89898080601f0160208091040260200160405190810160405280939291908181526020018383808284375f9201919091525050604080516020601f8d018190048102820181019092528b815292508b91508a90819084018382808284375f9201919091525061300992505050565b604051879089907f7d0cd6a27b5d0487bca14f5b3852217db2c9951f3ad91646fe09e0c19abcef50905f90a35050505050505050565b6122b68333612310565b6122bf8361246e565b5f6122c86125b1565b90506122de8185856122d986614796565b61331a565b604051839085907f7d0cd6a27b5d0487bca14f5b3852217db2c9951f3ad91646fe09e0c19abcef50905f90a350505050565b6040516024810183905273ffffffffffffffffffffffffffffffffffffffff821660448201525f9081906123de907f901cee110000000000000000000000000000000000000000000000000000000090606401604080517fffffffffffffffffffffffffffffffffffffffffffffffffffffffffffffffe08184030181529190526020810180517bffffffffffffffffffffffffffffffffffffffffffffffffffffffff167f901cee11000000000000000000000000000000000000000000000000000000001790526135a7565b915091505f82156124675760048251106123fd57506020810151612400565b505f5b80612467576040517f08c379a000000000000000000000000000000000000000000000000000000000815260206004820152601860248201527f4e6f7420417574686f72697a656420546f20506f6c696379000000000000000060448201526064016103da565b5050505050565b6124766124fd565b5f8281526001919091016020526040902060040154610100900460ff16156124fa576040517f08c379a000000000000000000000000000000000000000000000000000000000815260206004820152601f60248201527f4e6f7420616c6c6f77656420666f722063656d656e74656420706f6c6963790060448201526064016103da565b50565b5f806107ab60017ff9dbd639dd2ea165d77dd4c51dec420100d51ceacf023b1c40faa045ba8f9a6561469e565b5f806107ab60017fc6d0732f7ed4c7ec3d1a6580f5e91e95dcc3d159872b5f4e9d9b8e65d3b720f261469e565b5f806107ab60017fdc82e9666de28bef254c770aa394fdb200d98373b70390c27adec32819f8f26661469e565b5f806107ab60017f5c91f63a4ffcbd372b8ec622fd1fcaaa601b66330afdb30e5c292dd9123f20b061469e565b5f806107ab60017f438102ff677bc3f21830c58117a05d6b953b31e3ea339da3f17957cd3941a69061469e565b60016125f06040830160208401614706565b600781111561260157612601613b42565b148061262d5750600261261a6040830160208401614706565b600781111561262b5761262b613b42565b145b80612658575060036126456040830160208401614706565b600781111561265657612656613b42565b145b80612683575060056126706040830160208401614706565b600781111561268157612681613b42565b145b806126ad57505f61269a6040830160208401614706565b60078111156126ab576126ab613b42565b145b806126d8575060066126c56040830160208401614706565b60078111156126d6576126d6613b42565b145b80612703575060076126f06040830160208401614706565b600781111561270157612701613b42565b145b6040518060400160405280600c81526020017f496e76616c69642074797065000000000000000000000000000000000000000081525090612771576040517f08c379a00000000000000000000000000000000000000000000000000000000081526004016103da9190614168565b5061278260608201604083016146ed565b156124fa5760016127996080830160608401614706565b60078111156127aa576127aa613b42565b14806127d6575060026127c36080830160608401614706565b60078111156127d4576127d4613b42565b145b80612801575060036127ee6080830160608401614706565b60078111156127ff576127ff613b42565b145b8061282c575060056128196080830160608401614706565b600781111561282a5761282a613b42565b145b8061285657505f6128436080830160608401614706565b600781111561285457612854613b42565b145b6040518060400160405280601881526020017f496e76616c696420747261636b6572206b657920747970650000000000000000815250906128c4576040517f08c379a00000000000000000000000000000000000000000000000000000000081526004016103da9190614168565b5050565b5f5f6128d26125b1565b5f8481526020829052604081208054929350916128ee90614667565b91829055509392505050565b5f6129036125b1565b90506129148185856122d986614796565b50505050565b604080516020810182525f9052517fc5d2460186f7233c927e7db2dcc703c0e500b653ca82273b7bfad8045d85a470906129579087908790614828565b604051809103902014156040518060400160405280601081526020017f4e616d6520697320726571756972656400000000000000000000000000000000815250906129cf576040517f08c379a00000000000000000000000000000000000000000000000000000000081526004016103da9190614168565b506129d8613748565b85858080601f0160208091040260200160405190810160405280939291908181526020018383808284375f92019190915250505090825250604080516020601f86018190048102820181019092528481529085908590819084018382808284375f92019190915250505050602082015260808101826005811115612a5e57612a5e613b42565b90816005811115612a7157612a71613b42565b90525080612a7d61252a565b5f8a8152602091825260408082208b83529092522081518190612aa09082614880565b5060208201516001820190612ab59082614880565b5060408201518051612ad191600284019160209091019061384e565b5060608201518051612aed91600384019160209091019061384e565b5060808201516004820180547fffffffffffffffffffffffffffffffffffffffffffffffffffffffffffffff00166001836005811115612b2f57612b2f613b42565b021790555050505050505050505050565b5f5f6128d2612557565b60408051602081019091525f90527fffffffff0000000000000000000000000000000000000000000000000000000082167fc5d246010000000000000000000000000000000000000000000000000000000003612c0657604080518082018252601e81527f46756e6374696f6e207369676e61747572652069732072657175697265640000602082015290517f08c379a00000000000000000000000000000000000000000000000000000000081526103da9190600401614168565b612c0f81613668565b5f612c18612557565b5f868152600182810160209081526040808420898552825290922080547fffffffffffffffffffffffffffffffffffffffffffffffffffffff00000000001661010060e089901c0217821781558551939450612c79939101918501906138a2565b505050505050565b6040805160208082019092525f90528251908301207f3a2db9fe7908dcc36d81824d2338fc3f1aff49ac357dd8c4840527fba27a5b9001612d2157604080518082018252601081527f4e616d6520697320726571756972656400000000000000000000000000000000602082015290517f08c379a00000000000000000000000000000000000000000000000000000000081526103da9190600401614168565b5f612d2a612daa565b5f878152602082815260408083208984529091529020909150612d4d8482614880565b505f8681526020828152604080832088845290915290206001810180547fffffffffffffffffffffffffffffffffffffffffffffffffffffffff000000001660e087901c179055600201612da18382614880565b50505050505050565b5f806107ab60017fb88f46389dea4b934f6c24412aa4a67e6afeeee9cd7e06827b5b8f09c0e7d7ea61469e565b5f612de06125b1565b9050612df18189896122088a614796565b5050505050505050565b604080516020810182525f9052517fc5d2460186f7233c927e7db2dcc703c0e500b653ca82273b7bfad8045d85a47090612e389089908990614828565b604051809103902014156040518060400160405280601081526020017f4e616d652069732072657175697265640000000000000000000000000000000081525090612eb0576040517f08c379a00000000000000000000000000000000000000000000000000000000081526004016103da9190614168565b50612eb9613748565b87878080601f0160208091040260200160405190810160405280939291908181526020018383808284375f92019190915250505090825250612efb8587614997565b6040820152612f0a8385614997565b606082015260808101826005811115612f2557612f25613b42565b90816005811115612f3857612f38613b42565b90525080612f4461252a565b5f8c8152602091825260408082208d83529092522081518190612f679082614880565b5060208201516001820190612f7c9082614880565b5060408201518051612f9891600284019160209091019061384e565b5060608201518051612fb491600384019160209091019061384e565b5060808201516004820180547fffffffffffffffffffffffffffffffffffffffffffffffffffffffffffffff00166001836005811115612ff657612ff6613b42565b0217905550505050505050505050505050565b60408051808201909152601481527f4d617820747261636b657273207265616368656400000000000000000000000060208201526127108510613079576040517f08c379a00000000000000000000000000000000000000000000000000000000081526004016103da9190614168565b506001604080850182905281855260a085018690525f878152918801602090815281832087845281529120845181549015157fffffffffffffffffffffffffffffffffffffffffffffffffffffffffffffff00821681178355928601518693909183917fffffffffffffffffffffffffffffffffffffffffffffffffffffffffffff00ff167fffffffffffffffffffffffffffffffffffffffffffffffffffffffffffff00009091161761010083600781111561313857613138613b42565b02179055506040820151815490151562010000027fffffffffffffffffffffffffffffffffffffffffffffffffffffffffff00ffff82168117835560608401519183917fffffffffffffffffffffffffffffffffffffffffffffffffffffffff00ffffff167fffffffffffffffffffffffffffffffffffffffffffffffffffffffff0000ffff9091161763010000008360078111156131d9576131d9613b42565b0217905550608082015160018201906131f29082614880565b5060a0919091015160029091015560058360600151600781111561321857613218613b42565b1480613239575060018360600151600781111561323757613237613b42565b145b1561326a57818051906020012060405160200161325891815260200190565b60405160208183030381529060405291505b60018360200151600781111561328257613282613b42565b14806132a357506005836020015160078111156132a1576132a1613b42565b145b156132d45780805190602001206040516020016132c291815260200190565b60405160208183030381529060405290505b5f8581526002870160209081526040808320878452909152908190209051829190613300908590614780565b90815260200160405180910390209081612da19190614880565b60408051808201909152601481527f4d617820747261636b65727320726561636865640000000000000000000000006020820152612710831061338a576040517f08c379a00000000000000000000000000000000000000000000000000000000081526004016103da9190614168565b5060018082525f604083015260a08201839052816020015160078111156133b3576133b3613b42565b14806133d457506005816020015160078111156133d2576133d2613b42565b145b1561342b57608081015180516020918201206040516133f7920190815260200190565b604080517fffffffffffffffffffffffffffffffffffffffffffffffffffffffffffffffe081840301815291905260808201525b5f83815260018501602090815260408083208584528252909120825181549015157fffffffffffffffffffffffffffffffffffffffffffffffffffffffffffffff00821681178355928401518493909183917fffffffffffffffffffffffffffffffffffffffffffffffffffffffffffff00ff167fffffffffffffffffffffffffffffffffffffffffffffffffffffffffffff0000909116176101008360078111156134d9576134d9613b42565b02179055506040820151815490151562010000027fffffffffffffffffffffffffffffffffffffffffffffffffffffffffff00ffff82168117835560608401519183917fffffffffffffffffffffffffffffffffffffffffffffffffffffffff00ffffff167fffffffffffffffffffffffffffffffffffffffffffffffffffffffff0000ffff90911617630100000083600781111561357a5761357a613b42565b0217905550608082015160018201906135939082614880565b5060a0820151816002015590505050505050565b5f60605f6135b361371b565b7fffffffff0000000000000000000000000000000000000000000000000000000086165f908152602082905260409081902054905191925073ffffffffffffffffffffffffffffffffffffffff1690819061360f908790614780565b5f60405180830381855af49150503d805f8114613647576040519150601f19603f3d011682016040523d82523d5f602084013e61364c565b606091505b5090945092508361365f57825160208401fd5b50509250929050565b5f5b81518110156128c457600860ff1682828151811061368a5761368a61460d565b602002602001015160078111156136a3576136a3613b42565b106040518060400160405280600c81526020017f496e76616c69642074797065000000000000000000000000000000000000000081525090613712576040517f08c379a00000000000000000000000000000000000000000000000000000000081526004016103da9190614168565b5060010161366a565b5f806107ab60017fbe498a3b14fd79a48c3c9af86ff14271ed497d09071013334028d28e7791db2061469e565b6040518060a00160405280606081526020016060815260200160608152602001606081526020015f600581111561378157613781613b42565b905290565b5080545f8255601f0160209004905f5260205f20908101906124fa9190613949565b5080545f8255905f5260205f20908101906124fa9190613949565b5080545f8255905f5260205f20908101906124fa919061395d565b5080545f8255905f5260205f20908101906124fa9190613979565b5080545f8255600502905f5260205f20908101906124fa91906139b0565b508054613823906145c2565b5f825580601f10613832575050565b601f0160209004905f5260205f20908101906124fa9190613949565b828054828255905f5260205f20908101928215613892579160200282015b8281111561389257825182906138829082614880565b509160200191906001019061386c565b5061389e92915061395d565b5090565b828054828255905f5260205f2090601f01602090048101928215613941579160200282015f5b8382111561391357835183826101000a81548160ff021916908360078111156138f3576138f3613b42565b021790555092602001926001016020815f010492830192600103026138c8565b801561393f5782816101000a81549060ff02191690556001016020815f01049283019260010302613913565b505b5061389e9291505b5b8082111561389e575f815560010161394a565b8082111561389e575f6139708282613817565b5060010161395d565b5b8082111561389e5780547fffffffffffffffffffffffffffff00000000000000000000000000000000000016815560010161397a565b8082111561389e5780547fffffffffffffffffffffffffffffffffffffffffffffffffffffffff000000001681555f6139ec6001830182613817565b600282015f9055600382015f613a029190613817565b613a0f600483015f6137a8565b506005016139b0565b5f5f60408385031215613a29575f5ffd5b82359150602083013573ffffffffffffffffffffffffffffffffffffffff81168114613a53575f5ffd5b809150509250929050565b5f5f60408385031215613a6f575f5ffd5b50508035926020909101359150565b5f81518084528060208401602086015e5f6020828601015260207fffffffffffffffffffffffffffffffffffffffffffffffffffffffffffffffe0601f83011685010191505092915050565b5f82825180855260208501945060208160051b830101602085015f5b83811015613b36577fffffffffffffffffffffffffffffffffffffffffffffffffffffffffffffffe0858403018852613b20838351613a7e565b6020988901989093509190910190600101613ae6565b50909695505050505050565b7f4e487b71000000000000000000000000000000000000000000000000000000005f52602160045260245ffd5b602081525f825160a06020840152613b8a60c0840182613a7e565b905060208401517fffffffffffffffffffffffffffffffffffffffffffffffffffffffffffffffe0848303016040850152613bc58282613a7e565b91505060408401517fffffffffffffffffffffffffffffffffffffffffffffffffffffffffffffffe0848303016060850152613c018282613aca565b91505060608401517fffffffffffffffffffffffffffffffffffffffffffffffffffffffffffffffe0848303016080850152613c3d8282613aca565b915050608084015160068110613c5557613c55613b42565b60a0939093019290925250919050565b80357fffffffff0000000000000000000000000000000000000000000000000000000081168114613c94575f5ffd5b919050565b7f4e487b71000000000000000000000000000000000000000000000000000000005f52604160045260245ffd5b60405160c0810167ffffffffffffffff81118282101715613ce957613ce9613c99565b60405290565b604051601f82017fffffffffffffffffffffffffffffffffffffffffffffffffffffffffffffffe016810167ffffffffffffffff81118282101715613d3657613d36613c99565b604052919050565b5f67ffffffffffffffff821115613d5757613d57613c99565b5060051b60200190565b803560088110613c94575f5ffd5b5f82601f830112613d7e575f5ffd5b8135613d91613d8c82613d3e565b613cef565b8082825260208201915060208360051b860101925085831115613db2575f5ffd5b602085015b83811015613dd657613dc881613d61565b835260209283019201613db7565b5095945050505050565b5f5f5f5f60808587031215613df3575f5ffd5b8435935060208501359250613e0a60408601613c65565b9150606085013567ffffffffffffffff811115613e25575f5ffd5b613e3187828801613d6f565b91505092959194509250565b5f60208284031215613e4d575f5ffd5b5035919050565b60088110613e6457613e64613b42565b9052565b8051151582525f6020820151613e816020850182613e54565b506040820151151560408401526060820151613ea06060850182613e54565b50608082015160c06080850152613eba60c0850182613a7e565b60a093840151949093019390935250919050565b5f602082016020835280845180835260408501915060408160051b8601019250602086015f5b82811015613f43577fffffffffffffffffffffffffffffffffffffffffffffffffffffffffffffffc0878603018452613f2e858351613e68565b94506020938401939190910190600101613ef4565b50929695505050505050565b602080825282518282018190525f918401906040840190835b81811015611315578351835260209384019390920191600101613f68565b602081525f613f986020830184613e68565b9392505050565b5f60c08284031215613faf575f5ffd5b50919050565b5f5f83601f840112613fc5575f5ffd5b50813567ffffffffffffffff811115613fdc575f5ffd5b602083019150836020828501011115613ff3575f5ffd5b9250929050565b803560068110613c94575f5ffd5b5f5f5f5f5f6080868803121561401c575f5ffd5b85359450602086013567ffffffffffffffff811115614039575f5ffd5b61404588828901613f9f565b945050604086013567ffffffffffffffff811115614061575f5ffd5b61406d88828901613fb5565b9094509250614080905060608701613ffa565b90509295509295909350565b5f82601f83011261409b575f5ffd5b8135602083015f5f67ffffffffffffffff8411156140bb576140bb613c99565b50601f83017fffffffffffffffffffffffffffffffffffffffffffffffffffffffffffffffe0166020016140ee81613cef565b915050828152858383011115614102575f5ffd5b828260208301375f92810160200192909252509392505050565b5f5f5f6060848603121561412e575f5ffd5b8335925060208401359150604084013567ffffffffffffffff811115614152575f5ffd5b61415e8682870161408c565b9150509250925092565b602081525f613f986020830184613a7e565b5f5f5f5f5f60a0868803121561418e575f5ffd5b8535945061419e60208701613c65565b9350604086013567ffffffffffffffff8111156141b9575f5ffd5b6141c588828901613d6f565b935050606086013567ffffffffffffffff8111156141e1575f5ffd5b6141ed8882890161408c565b925050608086013567ffffffffffffffff811115614209575f5ffd5b6142158882890161408c565b9150509295509295909350565b8051151582526020808201517fffffffff000000000000000000000000000000000000000000000000000000001681840152604080830151606091850182905280519185018290525f920190829060808601905b80831015613dd657614289828551613e54565b602082019150602084019350600183019250614276565b602081525f613f986020830184614222565b602081525f8251606060208401526142cd6080840182613a7e565b90507fffffffff00000000000000000000000000000000000000000000000000000000602085015116604084015260408401517fffffffffffffffffffffffffffffffffffffffffffffffffffffffffffffffe08483030160608501526143348282613a7e565b95945050505050565b5f5f83601f84011261434d575f5ffd5b50813567ffffffffffffffff811115614364575f5ffd5b6020830191508360208260051b8501011115613ff3575f5ffd5b5f5f5f5f5f5f5f5f5f60c08a8c031215614396575f5ffd5b8935985060208a013567ffffffffffffffff8111156143b3575f5ffd5b6143bf8c828d01613f9f565b98505060408a013567ffffffffffffffff8111156143db575f5ffd5b6143e78c828d01613fb5565b90985096505060608a013567ffffffffffffffff811115614406575f5ffd5b6144128c828d0161433d565b90965094505060808a013567ffffffffffffffff811115614431575f5ffd5b61443d8c828d0161433d565b9094509250614450905060a08b01613ffa565b90509295985092959850929598565b5f602082016020835280845180835260408501915060408160051b8601019250602086015f5b82811015613f43577fffffffffffffffffffffffffffffffffffffffffffffffffffffffffffffffc08786030184526144bf858351614222565b94506020938401939190910190600101614485565b5f5f5f5f5f5f5f60a0888a0312156144ea575f5ffd5b8735965060208801359550604088013567ffffffffffffffff81111561450e575f5ffd5b61451a8a828b01613f9f565b955050606088013567ffffffffffffffff811115614536575f5ffd5b6145428a828b01613fb5565b909550935050608088013567ffffffffffffffff811115614561575f5ffd5b61456d8a828b01613fb5565b989b979a50959850939692959293505050565b5f5f5f60608486031215614592575f5ffd5b8335925060208401359150604084013567ffffffffffffffff8111156145b6575f5ffd5b61415e86828701613f9f565b600181811c908216806145d657607f821691505b602082108103613faf577f4e487b71000000000000000000000000000000000000000000000000000000005f52602260045260245ffd5b7f4e487b71000000000000000000000000000000000000000000000000000000005f52603260045260245ffd5b7f4e487b71000000000000000000000000000000000000000000000000000000005f52601160045260245ffd5b5f7fffffffffffffffffffffffffffffffffffffffffffffffffffffffffffffffff82036146975761469761463a565b5060010190565b818103818111156107ab576107ab61463a565b7f4e487b71000000000000000000000000000000000000000000000000000000005f52603160045260245ffd5b80358015158114613c94575f5ffd5b5f602082840312156146fd575f5ffd5b613f98826146de565b5f60208284031215614716575f5ffd5b613f9882613d61565b5f5f83357fffffffffffffffffffffffffffffffffffffffffffffffffffffffffffffffe1843603018112614752575f5ffd5b83018035915067ffffffffffffffff82111561476c575f5ffd5b602001915036819003821315613ff3575f5ffd5b5f82518060208501845e5f920191825250919050565b5f60c082360312156147a6575f5ffd5b6147ae613cc6565b6147b7836146de565b81526147c560208401613d61565b60208201526147d6604084016146de565b60408201526147e760608401613d61565b6060820152608083013567ffffffffffffffff811115614805575f5ffd5b6148113682860161408c565b60808301525060a092830135928101929092525090565b818382375f9101908152919050565b601f82111561487b57805f5260205f20601f840160051c8101602085101561485c5750805b601f840160051c820191505b81811015612467575f8155600101614868565b505050565b815167ffffffffffffffff81111561489a5761489a613c99565b6148ae816148a884546145c2565b84614837565b6020601f8211600181146148ff575f83156148c95750848201515b7fffffffffffffffffffffffffffffffffffffffffffffffffffffffffffffffff600385901b1c1916600184901b178455612467565b5f848152602081207fffffffffffffffffffffffffffffffffffffffffffffffffffffffffffffffe08516915b8281101561494c578785015182556020948501946001909201910161492c565b508482101561498857868401517fffffffffffffffffffffffffffffffffffffffffffffffffffffffffffffffff600387901b60f8161c191681555b50505050600190811b01905550565b5f6149a4613d8c84613d3e565b8381526020810190600585901b8401368111156149bf575f5ffd5b845b8181101561131557803567ffffffffffffffff8111156149df575f5ffd5b6149eb3682890161408c565b855250602093840193016149c156fe547261636b6572206b65797320616e642076616c756573206d7573742068617665207468652073616d65206c656e6774684e657720706172616d65746572207479706573206d757374206265206f662067726561746572206f7220657175616c206c656e67746820746f20746865206f726967696e616c44656c6574652063616c6c696e672066756e6374696f6e206265666f7265207570646174696e6720746f2061206e6577206f6e654e657720706172616d65746572207479706573206d757374206265206f66207468652073616d65207479706520617320746865206f726967696e616ca2646970667358221220744d7aa3a6288a14f2deb85cd6daafd1c2c07548e1579407d8b875337818c2c264736f6c634300081c0033","linkReferences":{}},"methodIdentifiers":{"addClosedPolicySubscriber(uint256,address)":"2711fe6b","createCallingFunction(uint256,bytes4,uint8[],string,string)":"b0955878","createMappedTracker(uint256,(bool,uint8,bool,uint8,bytes,uint256),string,bytes[],bytes[],uint8)":"f1073d99","createTracker(uint256,(bool,uint8,bool,uint8,bytes,uint256),string,uint8)":"965d884c","deleteCallingFunction(uint256,uint256)":"3fafdf6e","deleteTracker(uint256,uint256)":"a82c9e07","getAllCallingFunctions(uint256)":"f3e7dfc3","getAllTrackers(uint256)":"56f3b05f","getCallingFunction(uint256,uint256)":"bfc85236","getCallingFunctionMetadata(uint256,uint256)":"eeeb6047","getMappedTrackerValue(uint256,uint256,bytes)":"9f9fa719","getTracker(uint256,uint256)":"72a340d7","getTrackerMetadata(uint256,uint256)":"3bf07314","getTrackerToRuleIds(uint256,uint256)":"6355ed0b","isClosedPolicySubscriber(uint256,address)":"4c957ad9","removeClosedPolicySubscriber(uint256,address)":"7374c994","updateCallingFunction(uint256,uint256,bytes4,uint8[])":"56f39ae3","updateTracker(uint256,uint256,(bool,uint8,bool,uint8,bytes,uint256))":"febf8f92","updateTracker(uint256,uint256,(bool,uint8,bool,uint8,bytes,uint256),bytes,bytes)":"f479c994"},"id":75}