{"abi":[{"type":"function","name":"addClosedPolicySubscriber","inputs":[{"name":"policyId","type":"uint256","internalType":"uint256"},{"name":"subscriber","type":"address","internalType":"address"}],"outputs":[],"stateMutability":"nonpayable"},{"type":"function","name":"createCallingFunction","inputs":[{"name":"policyId","type":"uint256","internalType":"uint256"},{"name":"functionSignature","type":"bytes4","internalType":"bytes4"},{"name":"pTypes","type":"uint8[]","internalType":"enum ParamTypes[]"},{"name":"callingFunctionSignature","type":"string","internalType":"string"},{"name":"encodedValues","type":"string","internalType":"string"},{"name":"name","type":"string","internalType":"string"}],"outputs":[{"name":"","type":"bytes4","internalType":"bytes4"}],"stateMutability":"nonpayable"},{"type":"function","name":"createMappedTracker","inputs":[{"name":"policyId","type":"uint256","internalType":"uint256"},{"name":"tracker","type":"tuple","internalType":"struct Trackers","components":[{"name":"set","type":"bool","internalType":"bool"},{"name":"pType","type":"uint8","internalType":"enum ParamTypes"},{"name":"mapped","type":"bool","internalType":"bool"},{"name":"trackerKeyType","type":"uint8","internalType":"enum ParamTypes"},{"name":"trackerValue","type":"bytes","internalType":"bytes"},{"name":"trackerIndex","type":"uint256","internalType":"uint256"}]},{"name":"trackerName","type":"string","internalType":"string"},{"name":"trackerKeys","type":"bytes[]","internalType":"bytes[]"},{"name":"trackerValues","type":"bytes[]","internalType":"bytes[]"},{"name":"arrayType","type":"uint8","internalType":"enum TrackerArrayTypes"}],"outputs":[{"name":"","type":"uint256","internalType":"uint256"}],"stateMutability":"nonpayable"},{"type":"function","name":"createTracker","inputs":[{"name":"policyId","type":"uint256","internalType":"uint256"},{"name":"tracker","type":"tuple","internalType":"struct Trackers","components":[{"name":"set","type":"bool","internalType":"bool"},{"name":"pType","type":"uint8","internalType":"enum ParamTypes"},{"name":"mapped","type":"bool","internalType":"bool"},{"name":"trackerKeyType","type":"uint8","internalType":"enum ParamTypes"},{"name":"trackerValue","type":"bytes","internalType":"bytes"},{"name":"trackerIndex","type":"uint256","internalType":"uint256"}]},{"name":"trackerName","type":"string","internalType":"string"},{"name":"arrayType","type":"uint8","internalType":"enum TrackerArrayTypes"}],"outputs":[{"name":"","type":"uint256","internalType":"uint256"}],"stateMutability":"nonpayable"},{"type":"function","name":"deleteCallingFunction","inputs":[{"name":"policyId","type":"uint256","internalType":"uint256"},{"name":"sig","type":"bytes4","internalType":"bytes4"}],"outputs":[],"stateMutability":"nonpayable"},{"type":"function","name":"deleteTracker","inputs":[{"name":"policyId","type":"uint256","internalType":"uint256"},{"name":"trackerIndex","type":"uint256","internalType":"uint256"}],"outputs":[],"stateMutability":"nonpayable"},{"type":"function","name":"getAllCallingFunctions","inputs":[{"name":"policyId","type":"uint256","internalType":"uint256"}],"outputs":[{"name":"","type":"tuple[]","internalType":"struct CallingFunctionStorageSet[]","components":[{"name":"set","type":"bool","internalType":"bool"},{"name":"signature","type":"bytes4","internalType":"bytes4"},{"name":"parameterTypes","type":"uint8[]","internalType":"enum ParamTypes[]"}]}],"stateMutability":"view"},{"type":"function","name":"getAllTrackers","inputs":[{"name":"policyId","type":"uint256","internalType":"uint256"}],"outputs":[{"name":"","type":"tuple[]","internalType":"struct Trackers[]","components":[{"name":"set","type":"bool","internalType":"bool"},{"name":"pType","type":"uint8","internalType":"enum ParamTypes"},{"name":"mapped","type":"bool","internalType":"bool"},{"name":"trackerKeyType","type":"uint8","internalType":"enum ParamTypes"},{"name":"trackerValue","type":"bytes","internalType":"bytes"},{"name":"trackerIndex","type":"uint256","internalType":"uint256"}]}],"stateMutability":"view"},{"type":"function","name":"getCallingFunction","inputs":[{"name":"policyId","type":"uint256","internalType":"uint256"},{"name":"sig","type":"bytes4","internalType":"bytes4"}],"outputs":[{"name":"","type":"tuple","internalType":"struct CallingFunctionStorageSet","components":[{"name":"set","type":"bool","internalType":"bool"},{"name":"signature","type":"bytes4","internalType":"bytes4"},{"name":"parameterTypes","type":"uint8[]","internalType":"enum ParamTypes[]"}]}],"stateMutability":"view"},{"type":"function","name":"getCallingFunctionMetadata","inputs":[{"name":"policyId","type":"uint256","internalType":"uint256"},{"name":"sig","type":"bytes4","internalType":"bytes4"}],"outputs":[{"name":"","type":"tuple","internalType":"struct CallingFunctionHashMapping","components":[{"name":"callingFunction","type":"string","internalType":"string"},{"name":"signature","type":"bytes4","internalType":"bytes4"},{"name":"encodedValues","type":"string","internalType":"string"},{"name":"name","type":"string","internalType":"string"}]}],"stateMutability":"view"},{"type":"function","name":"getMappedTrackerValue","inputs":[{"name":"policyId","type":"uint256","internalType":"uint256"},{"name":"index","type":"uint256","internalType":"uint256"},{"name":"trackerKey","type":"bytes","internalType":"bytes"}],"outputs":[{"name":"","type":"bytes","internalType":"bytes"}],"stateMutability":"view"},{"type":"function","name":"getTracker","inputs":[{"name":"policyId","type":"uint256","internalType":"uint256"},{"name":"index","type":"uint256","internalType":"uint256"}],"outputs":[{"name":"","type":"tuple","internalType":"struct Trackers","components":[{"name":"set","type":"bool","internalType":"bool"},{"name":"pType","type":"uint8","internalType":"enum ParamTypes"},{"name":"mapped","type":"bool","internalType":"bool"},{"name":"trackerKeyType","type":"uint8","internalType":"enum ParamTypes"},{"name":"trackerValue","type":"bytes","internalType":"bytes"},{"name":"trackerIndex","type":"uint256","internalType":"uint256"}]}],"stateMutability":"view"},{"type":"function","name":"getTrackerMetadata","inputs":[{"name":"policyId","type":"uint256","internalType":"uint256"},{"name":"trackerId","type":"uint256","internalType":"uint256"}],"outputs":[{"name":"","type":"tuple","internalType":"struct TrackerMetadataStruct","components":[{"name":"trackerName","type":"string","internalType":"string"},{"name":"initialValue","type":"bytes","internalType":"bytes"},{"name":"initialKeys","type":"bytes[]","internalType":"bytes[]"},{"name":"initialValues","type":"bytes[]","internalType":"bytes[]"},{"name":"arrayType","type":"uint8","internalType":"enum TrackerArrayTypes"}]}],"stateMutability":"view"},{"type":"function","name":"getTrackerToRuleIds","inputs":[{"name":"policyId","type":"uint256","internalType":"uint256"},{"name":"trackerIndex","type":"uint256","internalType":"uint256"}],"outputs":[{"name":"","type":"uint256[]","internalType":"uint256[]"}],"stateMutability":"view"},{"type":"function","name":"isClosedPolicySubscriber","inputs":[{"name":"policyId","type":"uint256","internalType":"uint256"},{"name":"subscriber","type":"address","internalType":"address"}],"outputs":[{"name":"","type":"bool","internalType":"bool"}],"stateMutability":"view"},{"type":"function","name":"removeClosedPolicySubscriber","inputs":[{"name":"policyId","type":"uint256","internalType":"uint256"},{"name":"subscriber","type":"address","internalType":"address"}],"outputs":[],"stateMutability":"nonpayable"},{"type":"function","name":"updateCallingFunction","inputs":[{"name":"policyId","type":"uint256","internalType":"uint256"},{"name":"functionSignature","type":"bytes4","internalType":"bytes4"},{"name":"pTypes","type":"uint8[]","internalType":"enum ParamTypes[]"}],"outputs":[{"name":"","type":"bytes4","internalType":"bytes4"}],"stateMutability":"nonpayable"},{"type":"function","name":"updateTracker","inputs":[{"name":"_policyId","type":"uint256","internalType":"uint256"},{"name":"_trackerIndex","type":"uint256","internalType":"uint256"},{"name":"_tracker","type":"tuple","internalType":"struct Trackers","components":[{"name":"set","type":"bool","internalType":"bool"},{"name":"pType","type":"uint8","internalType":"enum ParamTypes"},{"name":"mapped","type":"bool","internalType":"bool"},{"name":"trackerKeyType","type":"uint8","internalType":"enum ParamTypes"},{"name":"trackerValue","type":"bytes","internalType":"bytes"},{"name":"trackerIndex","type":"uint256","internalType":"uint256"}]},{"name":"_trackerKeys","type":"bytes[]","internalType":"bytes[]"},{"name":"_trackerValues","type":"bytes[]","internalType":"bytes[]"}],"outputs":[],"stateMutability":"nonpayable"},{"type":"function","name":"updateTracker","inputs":[{"name":"policyId","type":"uint256","internalType":"uint256"},{"name":"trackerIndex","type":"uint256","internalType":"uint256"},{"name":"tracker","type":"tuple","internalType":"struct Trackers","components":[{"name":"set","type":"bool","internalType":"bool"},{"name":"pType","type":"uint8","internalType":"enum ParamTypes"},{"name":"mapped","type":"bool","internalType":"bool"},{"name":"trackerKeyType","type":"uint8","internalType":"enum ParamTypes"},{"name":"trackerValue","type":"bytes","internalType":"bytes"},{"name":"trackerIndex","type":"uint256","internalType":"uint256"}]}],"outputs":[],"stateMutability":"nonpayable"},{"type":"event","name":"AssociatedRuleDeleted","inputs":[{"name":"policyId","type":"uint256","indexed":true,"internalType":"uint256"},{"name":"callingFunctionSelector","type":"bytes4","indexed":true,"internalType":"bytes4"}],"anonymous":false},{"type":"event","name":"CallingFunctionCreated","inputs":[{"name":"policyId","type":"uint256","indexed":true,"internalType":"uint256"},{"name":"callingFunctionSelector","type":"bytes4","indexed":true,"internalType":"bytes4"}],"anonymous":false},{"type":"event","name":"CallingFunctionDeleted","inputs":[{"name":"policyId","type":"uint256","indexed":true,"internalType":"uint256"},{"name":"callingFunctionSelector","type":"bytes4","indexed":true,"internalType":"bytes4"}],"anonymous":false},{"type":"event","name":"CallingFunctionUpdated","inputs":[{"name":"policyId","type":"uint256","indexed":true,"internalType":"uint256"},{"name":"callingFunctionSelector","type":"bytes4","indexed":true,"internalType":"bytes4"}],"anonymous":false},{"type":"event","name":"PolicySubsciberAdded","inputs":[{"name":"policyId","type":"uint256","indexed":true,"internalType":"uint256"},{"name":"subscriber","type":"address","indexed":true,"internalType":"address"}],"anonymous":false},{"type":"event","name":"PolicySubsciberRemoved","inputs":[{"name":"policyId","type":"uint256","indexed":true,"internalType":"uint256"},{"name":"subscriber","type":"address","indexed":true,"internalType":"address"}],"anonymous":false},{"type":"event","name":"TrackerCreated","inputs":[{"name":"policyId","type":"uint256","indexed":true,"internalType":"uint256"},{"name":"trackerId","type":"uint256","indexed":true,"internalType":"uint256"}],"anonymous":false},{"type":"event","name":"TrackerDeleted","inputs":[{"name":"policyId","type":"uint256","indexed":true,"internalType":"uint256"},{"name":"trackerId","type":"uint256","indexed":true,"internalType":"uint256"}],"anonymous":false},{"type":"event","name":"TrackerUpdated","inputs":[{"name":"policyId","type":"uint256","indexed":true,"internalType":"uint256"},{"name":"trackerId","type":"uint256","indexed":true,"internalType":"uint256"}],"anonymous":false}],"bytecode":{"object":"0x6080604052348015600e575f5ffd5b50614fd88061001c5f395ff3fe608060405234801561000f575f5ffd5b5060043610610149575f3560e01c80637b7fe810116100c7578063b4d194491161007d578063f1073d9911610063578063f1073d9914610332578063f3e7dfc314610345578063febf8f9214610365575f5ffd5b8063b4d19449146102ff578063d28b84c514610312575f5ffd5b8063965d884c116100ad578063965d884c146102ab5780639f9fa719146102cc578063a82c9e07146102ec575f5ffd5b80637b7fe81014610278578063948af1b614610298575f5ffd5b806356f3b05f1161011c57806372a340d71161010257806372a340d7146102015780637374c99414610221578063784dfa4614610234575f5ffd5b806356f3b05f146101c15780636355ed0b146101e1575f5ffd5b806305be27871461014d5780632711fe6b146101625780633bf07314146101755780634c957ad91461019e575b5f5ffd5b61016061015b366004613ea2565b610378565b005b610160610170366004613ecc565b6109ab565b610188610183366004613f12565b610ae3565b6040516101959190614017565b60405180910390f35b6101b16101ac366004613ecc565b610e15565b6040519015158152602001610195565b6101d46101cf36600461410d565b610e5b565b604051610195919061419e565b6101f46101ef366004613f12565b6110c7565b604051610195919061421f565b61021461020f366004613f12565b61113f565b6040516101959190614256565b61016061022f366004613ecc565b6112c6565b6102476102423660046143b6565b6113ed565b6040517fffffffff000000000000000000000000000000000000000000000000000000009091168152602001610195565b61028b610286366004613ea2565b6116d2565b6040516101959190614409565b6102476102a6366004614560565b611928565b6102be6102b936600461469a565b611aa7565b604051908152602001610195565b6102df6102da36600461471e565b611c82565b6040516101959190614760565b6101606102fa366004613f12565b611de0565b61016061030d3660046147b3565b611e83565b610325610320366004613ea2565b611f93565b60405161019591906148dd565b6102be610340366004614993565b61209b565b61035861035336600461410d565b6124d6565b6040516101959190614a74565b610160610373366004614ae9565b6127b0565b610382823361286e565b61038b826129cc565b5f610394612a5b565b5f8481526001919091016020526040902090506103af612a88565b5f848152602091825260408082207fffffffff000000000000000000000000000000000000000000000000000000008616835290925290812080547fffffffffffffffffffffffffffffffffffffffffffffffffffffff00000000001681559061041c6001830182613b94565b50507fffffffff0000000000000000000000000000000000000000000000000000000082165f90815260018201602090815260408083208054825181850281018501909352808352919290919083018282801561049657602002820191905f5260205f20905b815481526020019060010190808311610482575b509394505f93505050505b8151811015610798575f8282815181106104bd576104bd614b2b565b602002602001015190505f5f90505f8560010160010180548060200260200160405190810160405280929190818152602001828054801561055c57602002820191905f5260205f20905f905b82829054906101000a900460e01b7bffffffffffffffffffffffffffffffffffffffffffffffffffffffff1916815260200190600401906020826003010492830192600103820291508084116105095790505b509394505f93505050505b815181108015610575575082155b15610667575f82828151811061058d5761058d614b2b565b60200260200101519050887bffffffffffffffffffffffffffffffffffffffffffffffffffffffff1916817bffffffffffffffffffffffffffffffffffffffffffffffffffffffff1916036105e25750610655565b7fffffffff0000000000000000000000000000000000000000000000000000000081165f9081526001890160205260408120905b8154811015610651578682828154811061063257610632614b2b565b905f5260205f200154036106495760019550610651565b600101610616565b5050505b8061065f81614b85565b915050610567565b508161078d57610675612ab5565b5f898152600191820160209081526040808320878452909152812080547fffffffffffffffffffffffffffffffffffffffffffffffffffffffffffffff00168155918201816106c48282613bb6565b600182015f6106d38282613bb6565b6106e0600183015f613b94565b6106ed600283015f613bd1565b506106fd9050600483015f613bec565b61070a600583015f613bec565b610717600683015f613bec565b600782015f9055600882015f61072d9190613c07565b61073a600983015f613c07565b50506040517fffffffff000000000000000000000000000000000000000000000000000000008a1692508a91507f871ab12e2607c810d166f513320768d10b6754400a5ec777b382a4d2faf0058f905f90a35b5050506001016104a1565b507fffffffff0000000000000000000000000000000000000000000000000000000083165f90815260018301602052604081206107d491613bb6565b5f5b600283015481101561095657837bffffffffffffffffffffffffffffffffffffffffffffffffffffffff191683600101600101828154811061081a5761081a614b2b565b905f5260205f2090600891828204019190066004029054906101000a900460e01b7bffffffffffffffffffffffffffffffffffffffffffffffffffffffff19160361094e5760028301805461087190600190614bbc565b8154811061088157610881614b2b565b905f5260205f2090600891828204019190066004029054906101000a900460e01b8360010160010182815481106108ba576108ba614b2b565b905f5260205f2090600891828204019190066004026101000a81548163ffffffff021916908360e01c0217905550826001016001018054806108fe576108fe614bcf565b5f8281526020902060087fffffffffffffffffffffffffffffffffffffffffffffffffffffffffffffffff90920191820401805463ffffffff600460078516026101000a02191690559055610956565b6001016107d6565b506040517fffffffff0000000000000000000000000000000000000000000000000000000084169085907f5a2f4ffcbb6125bac40b498c2d16b904bba6ea8752f82b39f00be8243b96ff58905f90a350505050565b6109b5823361286e565b6109be826129cc565b73ffffffffffffffffffffffffffffffffffffffff8116610a4757604080518082018252601c81527f5a65726f20416464726573732043616e6e6f742042652041646d696e00000000602082015290517f08c379a0000000000000000000000000000000000000000000000000000000008152610a3e9190600401614760565b60405180910390fd5b6001610a51612a5b565b5f8481526001919091016020908152604080832073ffffffffffffffffffffffffffffffffffffffff8616808552600490910190925280832080547fffffffffffffffffffffffffffffffffffffffffffffffffffffffffffffff001694151594909417909355915184917f790a3138425334d31f4463869c596f58d51e891ecb665b5090fa0ae9ed8b6fd291a35050565b610aeb613c25565b610af3612ae2565b5f84815260209182526040808220858352909252819020815160a08101909252805482908290610b2290614bfc565b80601f0160208091040260200160405190810160405280929190818152602001828054610b4e90614bfc565b8015610b995780601f10610b7057610100808354040283529160200191610b99565b820191905f5260205f20905b815481529060010190602001808311610b7c57829003601f168201915b50505050508152602001600182018054610bb290614bfc565b80601f0160208091040260200160405190810160405280929190818152602001828054610bde90614bfc565b8015610c295780601f10610c0057610100808354040283529160200191610c29565b820191905f5260205f20905b815481529060010190602001808311610c0c57829003601f168201915b5050505050815260200160028201805480602002602001604051908101604052809291908181526020015f905b82821015610cfe578382905f5260205f20018054610c7390614bfc565b80601f0160208091040260200160405190810160405280929190818152602001828054610c9f90614bfc565b8015610cea5780601f10610cc157610100808354040283529160200191610cea565b820191905f5260205f20905b815481529060010190602001808311610ccd57829003601f168201915b505050505081526020019060010190610c56565b50505050815260200160038201805480602002602001604051908101604052809291908181526020015f905b82821015610dd2578382905f5260205f20018054610d4790614bfc565b80601f0160208091040260200160405190810160405280929190818152602001828054610d7390614bfc565b8015610dbe5780601f10610d9557610100808354040283529160200191610dbe565b820191905f5260205f20905b815481529060010190602001808311610da157829003601f168201915b505050505081526020019060010190610d2a565b50505090825250600482015460209091019060ff166005811115610df857610df8613fea565b6005811115610e0957610e09613fea565b90525090505b92915050565b5f610e1e612a5b565b5f9384526001016020908152604080852073ffffffffffffffffffffffffffffffffffffffff949094168552600490930190525090205460ff1690565b60605f610e66612b0f565b5f848152602082905260408120549192508167ffffffffffffffff811115610e9057610e9061426f565b604051908082528060200260200182016040528015610f0c57816020015b6040805160c0810182525f80825260208083018290529282018190526060808301829052608083015260a082015282527fffffffffffffffffffffffffffffffffffffffffffffffffffffffffffffffff909201910181610eae5790505b5090505f60015b8381116110bc575f878152600186016020908152604080832084845290915290205460ff16156110aa575f8781526001860160209081526040808320848452825291829020825160c08101909352805460ff808216151585529192840191610100909104166007811115610f8957610f89613fea565b6007811115610f9a57610f9a613fea565b8152815460ff6201000082048116151560208401526040909201916301000000909104166007811115610fcf57610fcf613fea565b6007811115610fe057610fe0613fea565b8152602001600182018054610ff490614bfc565b80601f016020809104026020016040519081016040528092919081815260200182805461102090614bfc565b801561106b5780601f106110425761010080835404028352916020019161106b565b820191905f5260205f20905b81548152906001019060200180831161104e57829003601f168201915b5050505050815260200160028201548152505083838151811061109057611090614b2b565b602002602001018190525081806110a690614b85565b9250505b806110b481614b85565b915050610f13565b509095945050505050565b60605f6110d2612b0f565b5f8581526003820160209081526040808320878452825291829020805483518184028101840190945280845293945091929083018282801561113157602002820191905f5260205f20905b81548152602001906001019080831161111d575b505050505091505092915050565b6040805160c0810182525f808252602082018190529181018290526060808201839052608082015260a0810182905290611177612b0f565b5f8581526001820160209081526040808320878452825291829020825160c08101909352805460ff80821615158552949550929390929184019161010090041660078111156111c8576111c8613fea565b60078111156111d9576111d9613fea565b8152815460ff620100008204811615156020840152604090920191630100000090910416600781111561120e5761120e613fea565b600781111561121f5761121f613fea565b815260200160018201805461123390614bfc565b80601f016020809104026020016040519081016040528092919081815260200182805461125f90614bfc565b80156112aa5780601f10611281576101008083540402835291602001916112aa565b820191905f5260205f20905b81548152906001019060200180831161128d57829003601f168201915b5050505050815260200160028201548152505091505092915050565b6112d0823361286e565b6112d9826129cc565b73ffffffffffffffffffffffffffffffffffffffff811661135957604080518082018252601c81527f5a65726f20416464726573732043616e6e6f742042652041646d696e00000000602082015290517f08c379a0000000000000000000000000000000000000000000000000000000008152610a3e9190600401614760565b611361612a5b565b5f8381526001919091016020908152604080832073ffffffffffffffffffffffffffffffffffffffff8516808552600490910190925280832080547fffffffffffffffffffffffffffffffffffffffffffffffffffffffffffffff0016905551909184917febc594f3b2a99e6227cfcc8bd404d054b6cc3dad7f287e1944cb88681a05c14c9190a35050565b5f6113f8843361286e565b611401846129cc565b5f61140a612a88565b5f868152602082815260408083207fffffffff000000000000000000000000000000000000000000000000000000008916845282529182902080548351808501909452601884527f43616c6c696e672066756e6374696f6e206e6f742073657400000000000000009284019290925292935060ff166114b6576040517f08c379a0000000000000000000000000000000000000000000000000000000008152600401610a3e9190614760565b50835181600101805490501115604051806080016040528060468152602001614eff6046913990611514576040517f08c379a0000000000000000000000000000000000000000000000000000000008152600401610a3e9190614760565b505f5b60018201548110156115ed5781600101818154811061153857611538614b2b565b905f5260205f2090602091828204019190069054906101000a900460ff16600781111561156757611567613fea565b85828151811061157957611579614b2b565b6020026020010151600781111561159257611592613fea565b146040518060600160405280603c8152602001614f67603c9139906115e4576040517f08c379a0000000000000000000000000000000000000000000000000000000008152600401610a3e9190614760565b50600101611517565b5083516001820154101561167a5760018101545b8451811015611678578160010185828151811061162057611620614b2b565b60209081029190910181015182546001810184555f9384529282902091830490910180549192909160ff601f9092166101000a91820219169083600781111561166b5761166b613fea565b0217905550600101611601565b505b6040517fffffffff0000000000000000000000000000000000000000000000000000000086169087907fe71d4b3e2c5b7fa564a42ed19ae98cb606291c8d4d431a6058c189304b4df40d905f90a35092949350505050565b6040805160808101825260608082525f6020830152918101829052818101919091526116fc612b3c565b5f848152602091825260408082207fffffffff000000000000000000000000000000000000000000000000000000008616835290925281902081516080810190925280548290829061174d90614bfc565b80601f016020809104026020016040519081016040528092919081815260200182805461177990614bfc565b80156117c45780601f1061179b576101008083540402835291602001916117c4565b820191905f5260205f20905b8154815290600101906020018083116117a757829003601f168201915b5050509183525050600182015460e01b7fffffffff0000000000000000000000000000000000000000000000000000000016602082015260028201805460409092019161181090614bfc565b80601f016020809104026020016040519081016040528092919081815260200182805461183c90614bfc565b80156118875780601f1061185e57610100808354040283529160200191611887565b820191905f5260205f20905b81548152906001019060200180831161186a57829003601f168201915b505050505081526020016003820180546118a090614bfc565b80601f01602080910402602001604051908101604052809291908181526020018280546118cc90614bfc565b80156119175780601f106118ee57610100808354040283529160200191611917565b820191905f5260205f20905b8154815290600101906020018083116118fa57829003601f168201915b505050505081525050905092915050565b5f611933873361286e565b61193c876129cc565b611944612a5b565b5f888152600191909101602052604090205460ff166119c257604080518082018252601581527f506f6c69637920646f6573206e6f742065786973740000000000000000000000602082015290517f08c379a0000000000000000000000000000000000000000000000000000000008152610a3e9190600401614760565b6119cc8787612b69565b15611a3657604080518082018252601f81527f63616c6c696e672066756e6374696f6e20616c72656164792065786973747300602082015290517f08c379a0000000000000000000000000000000000000000000000000000000008152610a3e9190600401614760565b611a41878787612bb4565b611a4e8787868686612d04565b6040517fffffffff0000000000000000000000000000000000000000000000000000000087169088907fe186f48ef756b0f5068a64ecfb81451f9b4fc2058e0ff0483fee68200d8e513e905f90a3509395945050505050565b5f611ab2863361286e565b611abb866129cc565b611acb6060860160408701614c47565b15611b3557604080518082018252600c81527f496e76616c696420747970650000000000000000000000000000000000000000602082015290517f08c379a0000000000000000000000000000000000000000000000000000000008152610a3e9190600401614760565b6006611b476040870160208801614c60565b6007811115611b5857611b58613fea565b1480611b8457506007611b716040870160208801614c60565b6007811115611b8257611b82613fea565b145b8015611ba057505f826005811115611b9e57611b9e613fea565b145b15611c0a57604080518082018252600c81527f496e76616c696420747970650000000000000000000000000000000000000000602082015290517f08c379a0000000000000000000000000000000000000000000000000000000008152610a3e9190600401614760565b611c1b611c1686614c79565b612eb7565b5f611c2587613112565b9050611c32878288613144565b611c4c87828787611c4660808c018c614c84565b89613164565b604051819088907f1ea0bdfd9680c9b8e4038e41083d7800dca81e6f55a15ce48d858ebb70693d2a905f90a39695505050505050565b60605f611c8d612b0f565b5f86815260018201602090815260408083208884529091529020549091506301000000900460ff166005816007811115611cc957611cc9613fea565b1480611ce657506001816007811115611ce457611ce4613fea565b145b15611d17578380519060200120604051602001611d0591815260200190565b60405160208183030381529060405293505b5f8681526002830160209081526040808320888452909152908190209051611d40908690614ce5565b90815260200160405180910390208054611d5990614bfc565b80601f0160208091040260200160405190810160405280929190818152602001828054611d8590614bfc565b8015611dd05780601f10611da757610100808354040283529160200191611dd0565b820191905f5260205f20905b815481529060010190602001808311611db357829003601f168201915b5050505050925050509392505050565b611dea823361286e565b611df3826129cc565b611dfb612b0f565b5f838152600191820160209081526040808320858452909152812080547fffffffffffffffffffffffffffffffffffffffffffffffffffffffff0000000016815591611e4990830182613c63565b600282015f9055505080827ed9d817df2d853a886f2cbe7a671a676890264711abbb9d2c3ee79fb1bb653a60405160405180910390a35050565b611e8d873361286e565b611e96876129cc565b611ea0878761338a565b611ef057604051806060016040528060228152602001614f45602291396040517f08c379a0000000000000000000000000000000000000000000000000000000008152600401610a3e9190614760565b5f5b83811015611f5d57611f558888611f0889614c79565b888886818110611f1a57611f1a614b2b565b9050602002810190611f2c9190614c84565b888888818110611f3e57611f3e614b2b565b9050602002810190611f509190614c84565b6133b4565b600101611ef2565b50604051869088907f7d0cd6a27b5d0487bca14f5b3852217db2c9951f3ad91646fe09e0c19abcef50905f90a350505050505050565b60408051606080820183525f808352602083015291810191909152611fb6612a88565b5f848152602091825260408082207fffffffff000000000000000000000000000000000000000000000000000000008087168452908452918190208151606081018352815460ff811615158252610100900460e01b90931683850152600181018054835181870281018701855281815294959294938601939283018282801561191757602002820191905f5260205f20905f905b82829054906101000a900460ff16600781111561206957612069613fea565b81526020600192830181810494850194909303909202910180841161204a579050505050505081525050905092915050565b5f6120a68a3361286e565b6120af8a6129cc565b886040015161211d57604080518082018252600c81527f496e76616c696420747970650000000000000000000000000000000000000000602082015290517f08c379a0000000000000000000000000000000000000000000000000000000008152610a3e9190600401614760565b60068960200151600781111561213557612135613fea565b1480612156575060078960200151600781111561215457612154613fea565b145b801561217257505f82600581111561217057612170613fea565b145b156121dc57604080518082018252600c81527f496e76616c696420747970650000000000000000000000000000000000000000602082015290517f08c379a0000000000000000000000000000000000000000000000000000000008152610a3e9190600401614760565b6121e589612eb7565b84831461223857604051806060016040528060318152602001614ece603191396040517f08c379a0000000000000000000000000000000000000000000000000000000008152600401610a3e9190614760565b5f612241612b0f565b5f8c81526020919091526040902054905061225b8b613112565b905061271081106040518060400160405280601481526020017f4d617820747261636b6572732072656163686564000000000000000000000000815250906122d0576040517f08c379a0000000000000000000000000000000000000000000000000000000008152600401610a3e9190614760565b50600160408b018190528a5260a08a018190525f6122ec612b0f565b5f8d8152600182016020908152604080832086845282529091208d5181549015157fffffffffffffffffffffffffffffffffffffffffffffffffffffffffffffff00821681178355928f01519394508e93919283917fffffffffffffffffffffffffffffffffffffffffffffffffffffffffffff00ff9091167fffffffffffffffffffffffffffffffffffffffffffffffffffffffffffff00009091161761010083600781111561239f5761239f613fea565b02179055506040820151815490151562010000027fffffffffffffffffffffffffffffffffffffffffffffffffffffffffff00ffff82168117835560608401519183917fffffffffffffffffffffffffffffffffffffffffffffffffffffffff00ffffff167fffffffffffffffffffffffffffffffffffffffffffffffffffffffff0000ffff90911617630100000083600781111561244057612440613fea565b0217905550608082015160018201906124599082614d44565b5060a091909101516002909101555f5b878110156124b5576124ad8d848e8c8c8681811061248957612489614b2b565b905060200281019061249b9190614c84565b8c8c88818110611f3e57611f3e614b2b565b600101612469565b506124c78c838c8c8c8c8c8c8c61343e565b509a9950505050505050505050565b60605f6124e1612a88565b90505f6124ec612a5b565b5f85815260019190910160209081526040918290206002018054835181840281018401909452808452909183018282801561258557602002820191905f5260205f20905f905b82829054906101000a900460e01b7bffffffffffffffffffffffffffffffffffffffffffffffffffffffff1916815260200190600401906020826003010492830192600103820291508084116125325790505b505050505090505f815190505f8167ffffffffffffffff8111156125ab576125ab61426f565b6040519080825280602002602001820160405280156125f757816020015b60408051606080820183525f8083526020830152918101919091528152602001906001900390816125c95790505b5090505f805b838110156127a4575f888152602087905260408120865190919087908490811061262957612629614b2b565b6020908102919091018101517fffffffff000000000000000000000000000000000000000000000000000000001682528101919091526040015f205460ff161561279c575f888152602087905260408120865190919087908490811061269157612691614b2b565b6020908102919091018101517fffffffff0000000000000000000000000000000000000000000000000000000090811683528282019390935260409182015f208251606081018452815460ff811615158252610100900460e01b909416848301526001810180548451818502810185018652818152929486019383018282801561276757602002820191905f5260205f20905f905b82829054906101000a900460ff16600781111561274557612745613fea565b8152602060019283018181049485019490930390920291018084116127265790505b50505050508152505083838151811061278257612782614b2b565b6020026020010181905250818061279890614b85565b9250505b6001016125fd565b50909695505050505050565b6127ba833361286e565b6127c3836129cc565b6127cd838361338a565b61281d57604051806060016040528060228152602001614f45602291396040517f08c379a0000000000000000000000000000000000000000000000000000000008152600401610a3e9190614760565b5f612826612b0f565b905061283c81858561283786614c79565b61364c565b604051839085907f7d0cd6a27b5d0487bca14f5b3852217db2c9951f3ad91646fe09e0c19abcef50905f90a350505050565b6040516024810183905273ffffffffffffffffffffffffffffffffffffffff821660448201525f90819061293c907f901cee110000000000000000000000000000000000000000000000000000000090606401604080517fffffffffffffffffffffffffffffffffffffffffffffffffffffffffffffffe08184030181529190526020810180517bffffffffffffffffffffffffffffffffffffffffffffffffffffffff167f901cee11000000000000000000000000000000000000000000000000000000001790526138d9565b915091505f82156129c557600482511061295b5750602081015161295e565b505f5b806129c5576040517f08c379a000000000000000000000000000000000000000000000000000000000815260206004820152601860248201527f4e6f7420417574686f72697a656420546f20506f6c69637900000000000000006044820152606401610a3e565b5050505050565b6129d4612a5b565b5f8281526001919091016020526040902060030154610100900460ff1615612a58576040517f08c379a000000000000000000000000000000000000000000000000000000000815260206004820152601f60248201527f4e6f7420616c6c6f77656420666f722063656d656e74656420706f6c696379006044820152606401610a3e565b50565b5f80610e0f60017ff9dbd639dd2ea165d77dd4c51dec420100d51ceacf023b1c40faa045ba8f9a65614bbc565b5f80610e0f60017fdc82e9666de28bef254c770aa394fdb200d98373b70390c27adec32819f8f266614bbc565b5f80610e0f60017f5c91f63a4ffcbd372b8ec622fd1fcaaa601b66330afdb30e5c292dd9123f20b0614bbc565b5f80610e0f60017fc6d0732f7ed4c7ec3d1a6580f5e91e95dcc3d159872b5f4e9d9b8e65d3b720f2614bbc565b5f80610e0f60017f438102ff677bc3f21830c58117a05d6b953b31e3ea339da3f17957cd3941a690614bbc565b5f80610e0f60017fb88f46389dea4b934f6c24412aa4a67e6afeeee9cd7e06827b5b8f09c0e7d7ea614bbc565b5f612b72612a88565b5f938452602090815260408085207fffffffff000000000000000000000000000000000000000000000000000000009490941685529290525090205460ff1690565b60408051602081019091525f90527fffffffff0000000000000000000000000000000000000000000000000000000082167fc5d246010000000000000000000000000000000000000000000000000000000003612c7057604080518082018252601e81527f46756e6374696f6e207369676e61747572652069732072657175697265640000602082015290517f08c379a0000000000000000000000000000000000000000000000000000000008152610a3e9190600401614760565b612c798161399a565b5f612c82612a88565b5f858152602082815260408083207fffffffff00000000000000000000000000000000000000000000000000000000881684528252909120805460017fffffffffffffffffffffffffffffffffffffffffffffffffffffff000000000090911661010060e089901c02178117825585519394506129c593910191850190613c9a565b6040805160208082019092525f90528351908401207f3a2db9fe7908dcc36d81824d2338fc3f1aff49ac357dd8c4840527fba27a5b9001612da457604080518082018252601081527f4e616d6520697320726571756972656400000000000000000000000000000000602082015290517f08c379a0000000000000000000000000000000000000000000000000000000008152610a3e9190600401614760565b5f612dad612b3c565b5f878152602082815260408083207fffffffff000000000000000000000000000000000000000000000000000000008a1684529091529020909150612df28582614d44565b505f868152602082815260408083207fffffffff000000000000000000000000000000000000000000000000000000008916845290915290206001810180547fffffffffffffffffffffffffffffffffffffffffffffffffffffffff000000001660e088901c179055600201612e688482614d44565b505f868152602082815260408083207fffffffff00000000000000000000000000000000000000000000000000000000891684529091529020600301612eae8382614d44565b50505050505050565b600181602001516007811115612ecf57612ecf613fea565b1480612ef05750600281602001516007811115612eee57612eee613fea565b145b80612f105750600381602001516007811115612f0e57612f0e613fea565b145b80612f305750600581602001516007811115612f2e57612f2e613fea565b145b80612f4f57505f81602001516007811115612f4d57612f4d613fea565b145b80612f6f5750600681602001516007811115612f6d57612f6d613fea565b145b80612f8f5750600781602001516007811115612f8d57612f8d613fea565b145b6040518060400160405280600c81526020017f496e76616c69642074797065000000000000000000000000000000000000000081525090612ffd576040517f08c379a0000000000000000000000000000000000000000000000000000000008152600401610a3e9190614760565b50806040015115612a585760018160600151600781111561302057613020613fea565b1480613041575060028160600151600781111561303f5761303f613fea565b145b80613061575060038160600151600781111561305f5761305f613fea565b145b80613081575060058160600151600781111561307f5761307f613fea565b145b806130a057505f8160600151600781111561309e5761309e613fea565b145b6040518060400160405280601881526020017f496e76616c696420747261636b6572206b6579207479706500000000000000008152509061310e576040517f08c379a0000000000000000000000000000000000000000000000000000000008152600401610a3e9190614760565b5050565b5f5f61311c612b0f565b5f84815260208290526040812080549293509161313890614b85565b91829055509392505050565b5f61314d612b0f565b905061315e81858561283786614c79565b50505050565b604080516020810182525f9052517fc5d2460186f7233c927e7db2dcc703c0e500b653ca82273b7bfad8045d85a470906131a19087908790614e5b565b604051809103902014156040518060400160405280601081526020017f4e616d652069732072657175697265640000000000000000000000000000000081525090613219576040517f08c379a0000000000000000000000000000000000000000000000000000000008152600401610a3e9190614760565b50613222613c25565b85858080601f0160208091040260200160405190810160405280939291908181526020018383808284375f92019190915250505090825250604080516020601f86018190048102820181019092528481529085908590819084018382808284375f920191909152505050506020820152608081018260058111156132a8576132a8613fea565b908160058111156132bb576132bb613fea565b905250806132c7612ae2565b5f8a8152602091825260408082208b835290925220815181906132ea9082614d44565b50602082015160018201906132ff9082614d44565b506040820151805161331b916002840191602090910190613d49565b5060608201518051613337916003840191602090910190613d49565b5060808201516004820180547fffffffffffffffffffffffffffffffffffffffffffffffffffffffffffffff0016600183600581111561337957613379613fea565b021790555050505050505050505050565b5f613393612b0f565b5f938452600101602090815260408085209385529290525090205460ff1690565b5f6133bd612b0f565b90506134348189898989898080601f0160208091040260200160405190810160405280939291908181526020018383808284375f9201919091525050604080516020601f8d018190048102820181019092528b815292508b91508a90819084018382808284375f92019190915250613a4d92505050565b5050505050505050565b604080516020810182525f9052517fc5d2460186f7233c927e7db2dcc703c0e500b653ca82273b7bfad8045d85a4709061347b9089908990614e5b565b604051809103902014156040518060400160405280601081526020017f4e616d6520697320726571756972656400000000000000000000000000000000815250906134f3576040517f08c379a0000000000000000000000000000000000000000000000000000000008152600401610a3e9190614760565b506134fc613c25565b87878080601f0160208091040260200160405190810160405280939291908181526020018383808284375f9201919091525050509082525061353e8587614e6a565b604082015261354d8385614e6a565b60608201526080810182600581111561356857613568613fea565b9081600581111561357b5761357b613fea565b90525080613587612ae2565b5f8c8152602091825260408082208d835290925220815181906135aa9082614d44565b50602082015160018201906135bf9082614d44565b50604082015180516135db916002840191602090910190613d49565b50606082015180516135f7916003840191602090910190613d49565b5060808201516004820180547fffffffffffffffffffffffffffffffffffffffffffffffffffffffffffffff0016600183600581111561363957613639613fea565b0217905550505050505050505050505050565b60408051808201909152601481527f4d617820747261636b6572732072656163686564000000000000000000000000602082015261271083106136bc576040517f08c379a0000000000000000000000000000000000000000000000000000000008152600401610a3e9190614760565b5060018082525f604083015260a08201839052816020015160078111156136e5576136e5613fea565b1480613706575060058160200151600781111561370457613704613fea565b145b1561375d5760808101518051602091820120604051613729920190815260200190565b604080517fffffffffffffffffffffffffffffffffffffffffffffffffffffffffffffffe081840301815291905260808201525b5f83815260018501602090815260408083208584528252909120825181549015157fffffffffffffffffffffffffffffffffffffffffffffffffffffffffffffff00821681178355928401518493909183917fffffffffffffffffffffffffffffffffffffffffffffffffffffffffffff00ff167fffffffffffffffffffffffffffffffffffffffffffffffffffffffffffff00009091161761010083600781111561380b5761380b613fea565b02179055506040820151815490151562010000027fffffffffffffffffffffffffffffffffffffffffffffffffffffffffff00ffff82168117835560608401519183917fffffffffffffffffffffffffffffffffffffffffffffffffffffffff00ffffff167fffffffffffffffffffffffffffffffffffffffffffffffffffffffff0000ffff9091161763010000008360078111156138ac576138ac613fea565b0217905550608082015160018201906138c59082614d44565b5060a0820151816002015590505050505050565b5f60605f6138e5613b67565b7fffffffff0000000000000000000000000000000000000000000000000000000086165f908152602082905260409081902054905191925073ffffffffffffffffffffffffffffffffffffffff16908190613941908790614ce5565b5f60405180830381855af49150503d805f8114613979576040519150601f19603f3d011682016040523d82523d5f602084013e61397e565b606091505b5090945092508361399157825160208401fd5b50509250929050565b5f5b815181101561310e57600860ff168282815181106139bc576139bc614b2b565b602002602001015160078111156139d5576139d5613fea565b106040518060400160405280600c81526020017f496e76616c69642074797065000000000000000000000000000000000000000081525090613a44576040517f08c379a0000000000000000000000000000000000000000000000000000000008152600401610a3e9190614760565b5060010161399c565b600583606001516007811115613a6557613a65613fea565b1480613a865750600183606001516007811115613a8457613a84613fea565b145b15613ab7578180519060200120604051602001613aa591815260200190565b60405160208183030381529060405291505b600183602001516007811115613acf57613acf613fea565b1480613af05750600583602001516007811115613aee57613aee613fea565b145b15613b21578080519060200120604051602001613b0f91815260200190565b60405160208183030381529060405290505b5f8581526002870160209081526040808320878452909152908190209051829190613b4d908590614ce5565b90815260200160405180910390209081612eae9190614d44565b5f80610e0f60017fbe498a3b14fd79a48c3c9af86ff14271ed497d09071013334028d28e7791db20614bbc565b5080545f8255601f0160209004905f5260205f2090810190612a589190613d99565b5080545f8255905f5260205f2090810190612a589190613d99565b5080545f8255905f5260205f2090810190612a589190613dad565b5080545f8255905f5260205f2090810190612a589190613dc9565b5080545f8255600602905f5260205f2090810190612a589190613e00565b6040518060a00160405280606081526020016060815260200160608152602001606081526020015f6005811115613c5e57613c5e613fea565b905290565b508054613c6f90614bfc565b5f825580601f10613c7e575050565b601f0160209004905f5260205f2090810190612a589190613d99565b828054828255905f5260205f2090601f01602090048101928215613d39579160200282015f5b83821115613d0b57835183826101000a81548160ff02191690836007811115613ceb57613ceb613fea565b021790555092602001926001016020815f01049283019260010302613cc0565b8015613d375782816101000a81549060ff02191690556001016020815f01049283019260010302613d0b565b505b50613d45929150613d99565b5090565b828054828255905f5260205f20908101928215613d8d579160200282015b82811115613d8d5782518290613d7d9082614d44565b5091602001919060010190613d67565b50613d45929150613dad565b5b80821115613d45575f8155600101613d9a565b80821115613d45575f613dc08282613c63565b50600101613dad565b5b80821115613d455780547fffffffffffffffffffffffffffff000000000000000000000000000000000000168155600101613dca565b80821115613d455780547fffffffffffffffffffffffffffffffffffffffffffffffffffffffff000000001681555f613e3c6001830182613c63565b600282015f9055600382015f613e529190613c63565b613e5f600483015f613bb6565b505f6005820155600601613e00565b80357fffffffff0000000000000000000000000000000000000000000000000000000081168114613e9d575f5ffd5b919050565b5f5f60408385031215613eb3575f5ffd5b82359150613ec360208401613e6e565b90509250929050565b5f5f60408385031215613edd575f5ffd5b82359150602083013573ffffffffffffffffffffffffffffffffffffffff81168114613f07575f5ffd5b809150509250929050565b5f5f60408385031215613f23575f5ffd5b50508035926020909101359150565b5f81518084528060208401602086015e5f6020828601015260207fffffffffffffffffffffffffffffffffffffffffffffffffffffffffffffffe0601f83011685010191505092915050565b5f82825180855260208501945060208160051b830101602085015f5b838110156127a4577fffffffffffffffffffffffffffffffffffffffffffffffffffffffffffffffe0858403018852613fd4838351613f32565b6020988901989093509190910190600101613f9a565b7f4e487b71000000000000000000000000000000000000000000000000000000005f52602160045260245ffd5b602081525f825160a0602084015261403260c0840182613f32565b905060208401517fffffffffffffffffffffffffffffffffffffffffffffffffffffffffffffffe084830301604085015261406d8282613f32565b91505060408401517fffffffffffffffffffffffffffffffffffffffffffffffffffffffffffffffe08483030160608501526140a98282613f7e565b91505060608401517fffffffffffffffffffffffffffffffffffffffffffffffffffffffffffffffe08483030160808501526140e58282613f7e565b9150506080840151600681106140fd576140fd613fea565b60a0939093019290925250919050565b5f6020828403121561411d575f5ffd5b5035919050565b6008811061413457614134613fea565b9052565b8051151582525f60208201516141516020850182614124565b5060408201511515604084015260608201516141706060850182614124565b50608082015160c0608085015261418a60c0850182613f32565b60a093840151949093019390935250919050565b5f602082016020835280845180835260408501915060408160051b8601019250602086015f5b82811015614213577fffffffffffffffffffffffffffffffffffffffffffffffffffffffffffffffc08786030184526141fe858351614138565b945060209384019391909101906001016141c4565b50929695505050505050565b602080825282518282018190525f918401906040840190835b818110156110bc578351835260209384019390920191600101614238565b602081525f6142686020830184614138565b9392505050565b7f4e487b71000000000000000000000000000000000000000000000000000000005f52604160045260245ffd5b60405160c0810167ffffffffffffffff811182821017156142bf576142bf61426f565b60405290565b604051601f82017fffffffffffffffffffffffffffffffffffffffffffffffffffffffffffffffe016810167ffffffffffffffff8111828210171561430c5761430c61426f565b604052919050565b5f67ffffffffffffffff82111561432d5761432d61426f565b5060051b60200190565b803560088110613e9d575f5ffd5b5f82601f830112614354575f5ffd5b813561436761436282614314565b6142c5565b8082825260208201915060208360051b860101925085831115614388575f5ffd5b602085015b838110156143ac5761439e81614337565b83526020928301920161438d565b5095945050505050565b5f5f5f606084860312156143c8575f5ffd5b833592506143d860208501613e6e565b9150604084013567ffffffffffffffff8111156143f3575f5ffd5b6143ff86828701614345565b9150509250925092565b602081525f82516080602084015261442460a0840182613f32565b90507fffffffff00000000000000000000000000000000000000000000000000000000602085015116604084015260408401517fffffffffffffffffffffffffffffffffffffffffffffffffffffffffffffffe084830301606085015261448b8282613f32565b91505060608401517fffffffffffffffffffffffffffffffffffffffffffffffffffffffffffffffe08483030160808501526144c78282613f32565b95945050505050565b5f82601f8301126144df575f5ffd5b8135602083015f5f67ffffffffffffffff8411156144ff576144ff61426f565b50601f83017fffffffffffffffffffffffffffffffffffffffffffffffffffffffffffffffe016602001614532816142c5565b915050828152858383011115614546575f5ffd5b828260208301375f92810160200192909252509392505050565b5f5f5f5f5f5f60c08789031215614575575f5ffd5b8635955061458560208801613e6e565b9450604087013567ffffffffffffffff8111156145a0575f5ffd5b6145ac89828a01614345565b945050606087013567ffffffffffffffff8111156145c8575f5ffd5b6145d489828a016144d0565b935050608087013567ffffffffffffffff8111156145f0575f5ffd5b6145fc89828a016144d0565b92505060a087013567ffffffffffffffff811115614618575f5ffd5b61462489828a016144d0565b9150509295509295509295565b5f60c08284031215614641575f5ffd5b50919050565b5f5f83601f840112614657575f5ffd5b50813567ffffffffffffffff81111561466e575f5ffd5b602083019150836020828501011115614685575f5ffd5b9250929050565b803560068110613e9d575f5ffd5b5f5f5f5f5f608086880312156146ae575f5ffd5b85359450602086013567ffffffffffffffff8111156146cb575f5ffd5b6146d788828901614631565b945050604086013567ffffffffffffffff8111156146f3575f5ffd5b6146ff88828901614647565b909450925061471290506060870161468c565b90509295509295909350565b5f5f5f60608486031215614730575f5ffd5b8335925060208401359150604084013567ffffffffffffffff811115614754575f5ffd5b6143ff868287016144d0565b602081525f6142686020830184613f32565b5f5f83601f840112614782575f5ffd5b50813567ffffffffffffffff811115614799575f5ffd5b6020830191508360208260051b8501011115614685575f5ffd5b5f5f5f5f5f5f5f60a0888a0312156147c9575f5ffd5b8735965060208801359550604088013567ffffffffffffffff8111156147ed575f5ffd5b6147f98a828b01614631565b955050606088013567ffffffffffffffff811115614815575f5ffd5b6148218a828b01614772565b909550935050608088013567ffffffffffffffff811115614840575f5ffd5b61484c8a828b01614772565b989b979a50959850939692959293505050565b8051151582526020808201517fffffffff000000000000000000000000000000000000000000000000000000001681840152604080830151606091850182905280519185018290525f920190829060808601905b808310156143ac576148c6828551614124565b6020820191506020840193506001830192506148b3565b602081525f614268602083018461485f565b80358015158114613e9d575f5ffd5b5f60c0828403121561490e575f5ffd5b61491661429c565b9050614921826148ef565b815261492f60208301614337565b6020820152614940604083016148ef565b604082015261495160608301614337565b6060820152608082013567ffffffffffffffff81111561496f575f5ffd5b61497b848285016144d0565b60808301525060a09182013591810191909152919050565b5f5f5f5f5f5f5f5f5f60c08a8c0312156149ab575f5ffd5b8935985060208a013567ffffffffffffffff8111156149c8575f5ffd5b6149d48c828d016148fe565b98505060408a013567ffffffffffffffff8111156149f0575f5ffd5b6149fc8c828d01614647565b90985096505060608a013567ffffffffffffffff811115614a1b575f5ffd5b614a278c828d01614772565b90965094505060808a013567ffffffffffffffff811115614a46575f5ffd5b614a528c828d01614772565b9094509250614a65905060a08b0161468c565b90509295985092959850929598565b5f602082016020835280845180835260408501915060408160051b8601019250602086015f5b82811015614213577fffffffffffffffffffffffffffffffffffffffffffffffffffffffffffffffc0878603018452614ad485835161485f565b94506020938401939190910190600101614a9a565b5f5f5f60608486031215614afb575f5ffd5b8335925060208401359150604084013567ffffffffffffffff811115614b1f575f5ffd5b6143ff86828701614631565b7f4e487b71000000000000000000000000000000000000000000000000000000005f52603260045260245ffd5b7f4e487b71000000000000000000000000000000000000000000000000000000005f52601160045260245ffd5b5f7fffffffffffffffffffffffffffffffffffffffffffffffffffffffffffffffff8203614bb557614bb5614b58565b5060010190565b81810381811115610e0f57610e0f614b58565b7f4e487b71000000000000000000000000000000000000000000000000000000005f52603160045260245ffd5b600181811c90821680614c1057607f821691505b602082108103614641577f4e487b71000000000000000000000000000000000000000000000000000000005f52602260045260245ffd5b5f60208284031215614c57575f5ffd5b614268826148ef565b5f60208284031215614c70575f5ffd5b61426882614337565b5f610e0f36836148fe565b5f5f83357fffffffffffffffffffffffffffffffffffffffffffffffffffffffffffffffe1843603018112614cb7575f5ffd5b83018035915067ffffffffffffffff821115614cd1575f5ffd5b602001915036819003821315614685575f5ffd5b5f82518060208501845e5f920191825250919050565b601f821115614d3f57805f5260205f20601f840160051c81016020851015614d205750805b601f840160051c820191505b818110156129c5575f8155600101614d2c565b505050565b815167ffffffffffffffff811115614d5e57614d5e61426f565b614d7281614d6c8454614bfc565b84614cfb565b6020601f821160018114614dc3575f8315614d8d5750848201515b7fffffffffffffffffffffffffffffffffffffffffffffffffffffffffffffffff600385901b1c1916600184901b1784556129c5565b5f848152602081207fffffffffffffffffffffffffffffffffffffffffffffffffffffffffffffffe08516915b82811015614e105787850151825560209485019460019092019101614df0565b5084821015614e4c57868401517fffffffffffffffffffffffffffffffffffffffffffffffffffffffffffffffff600387901b60f8161c191681555b50505050600190811b01905550565b818382375f9101908152919050565b5f614e7761436284614314565b8381526020810190600585901b840136811115614e92575f5ffd5b845b818110156110bc57803567ffffffffffffffff811115614eb2575f5ffd5b614ebe368289016144d0565b85525060209384019301614e9456fe547261636b6572206b65797320616e642076616c756573206d7573742068617665207468652073616d65206c656e6774684e657720706172616d65746572207479706573206d757374206265206f662067726561746572206f7220657175616c206c656e67746820746f20746865206f726967696e616c547261636b6572207265666572656e63656420696e2072756c65206e6f74207365744e657720706172616d65746572207479706573206d757374206265206f66207468652073616d65207479706520617320746865206f726967696e616ca2646970667358221220ea6f12b37260306eb138a68c01674e579449e8535c6cd7931e557110f25f6c3d64736f6c634300081c0033","linkReferences":{}},"methodIdentifiers":{"addClosedPolicySubscriber(uint256,address)":"2711fe6b","createCallingFunction(uint256,bytes4,uint8[],string,string,string)":"948af1b6","createMappedTracker(uint256,(bool,uint8,bool,uint8,bytes,uint256),string,bytes[],bytes[],uint8)":"f1073d99","createTracker(uint256,(bool,uint8,bool,uint8,bytes,uint256),string,uint8)":"965d884c","deleteCallingFunction(uint256,bytes4)":"05be2787","deleteTracker(uint256,uint256)":"a82c9e07","getAllCallingFunctions(uint256)":"f3e7dfc3","getAllTrackers(uint256)":"56f3b05f","getCallingFunction(uint256,bytes4)":"d28b84c5","getCallingFunctionMetadata(uint256,bytes4)":"7b7fe810","getMappedTrackerValue(uint256,uint256,bytes)":"9f9fa719","getTracker(uint256,uint256)":"72a340d7","getTrackerMetadata(uint256,uint256)":"3bf07314","getTrackerToRuleIds(uint256,uint256)":"6355ed0b","isClosedPolicySubscriber(uint256,address)":"4c957ad9","removeClosedPolicySubscriber(uint256,address)":"7374c994","updateCallingFunction(uint256,bytes4,uint8[])":"784dfa46","updateTracker(uint256,uint256,(bool,uint8,bool,uint8,bytes,uint256))":"febf8f92","updateTracker(uint256,uint256,(bool,uint8,bool,uint8,bytes,uint256),bytes[],bytes[])":"b4d19449"},"id":90}