{"abi":[{"type":"function","name":"addAdminToPermissionList","inputs":[{"name":"foriegnCallAddress","type":"address","internalType":"address"},{"name":"policyAdminsToAdd","type":"address","internalType":"address"},{"name":"selector","type":"bytes4","internalType":"bytes4"}],"outputs":[],"stateMutability":"nonpayable"},{"type":"function","name":"createForeignCall","inputs":[{"name":"_policyId","type":"uint256","internalType":"uint256"},{"name":"_foreignCall","type":"tuple","internalType":"struct ForeignCall","components":[{"name":"set","type":"bool","internalType":"bool"},{"name":"foreignCallAddress","type":"address","internalType":"address"},{"name":"signature","type":"bytes4","internalType":"bytes4"},{"name":"returnType","type":"uint8","internalType":"enum ParamTypes"},{"name":"foreignCallIndex","type":"uint256","internalType":"uint256"},{"name":"parameterTypes","type":"uint8[]","internalType":"enum ParamTypes[]"},{"name":"encodedIndices","type":"tuple[]","internalType":"struct ForeignCallEncodedIndex[]","components":[{"name":"eType","type":"uint8","internalType":"enum EncodedIndexType"},{"name":"index","type":"uint256","internalType":"uint256"}]},{"name":"mappedTrackerKeyIndices","type":"tuple[]","internalType":"struct ForeignCallEncodedIndex[]","components":[{"name":"eType","type":"uint8","internalType":"enum EncodedIndexType"},{"name":"index","type":"uint256","internalType":"uint256"}]},{"name":"callingFunctionSelector","type":"bytes4","internalType":"bytes4"}]},{"name":"foreignCallName","type":"string","internalType":"string"},{"name":"foreignCallSignature","type":"string","internalType":"string"}],"outputs":[{"name":"","type":"uint256","internalType":"uint256"}],"stateMutability":"nonpayable"},{"type":"function","name":"deleteForeignCall","inputs":[{"name":"policyId","type":"uint256","internalType":"uint256"},{"name":"foreignCallId","type":"uint256","internalType":"uint256"}],"outputs":[],"stateMutability":"nonpayable"},{"type":"function","name":"getAllForeignCalls","inputs":[{"name":"policyId","type":"uint256","internalType":"uint256"}],"outputs":[{"name":"","type":"tuple[]","internalType":"struct ForeignCall[]","components":[{"name":"set","type":"bool","internalType":"bool"},{"name":"foreignCallAddress","type":"address","internalType":"address"},{"name":"signature","type":"bytes4","internalType":"bytes4"},{"name":"returnType","type":"uint8","internalType":"enum ParamTypes"},{"name":"foreignCallIndex","type":"uint256","internalType":"uint256"},{"name":"parameterTypes","type":"uint8[]","internalType":"enum ParamTypes[]"},{"name":"encodedIndices","type":"tuple[]","internalType":"struct ForeignCallEncodedIndex[]","components":[{"name":"eType","type":"uint8","internalType":"enum EncodedIndexType"},{"name":"index","type":"uint256","internalType":"uint256"}]},{"name":"mappedTrackerKeyIndices","type":"tuple[]","internalType":"struct ForeignCallEncodedIndex[]","components":[{"name":"eType","type":"uint8","internalType":"enum EncodedIndexType"},{"name":"index","type":"uint256","internalType":"uint256"}]},{"name":"callingFunctionSelector","type":"bytes4","internalType":"bytes4"}]}],"stateMutability":"view"},{"type":"function","name":"getAllPermissionedFCs","inputs":[],"outputs":[{"name":"","type":"tuple","internalType":"struct PermissionedForeignCallStorage","components":[{"name":"permissionedForeignCallAddresses","type":"address[]","internalType":"address[]"},{"name":"permissionedForeignCallSignatures","type":"bytes4[]","internalType":"bytes4[]"}]}],"stateMutability":"pure"},{"type":"function","name":"getForeignCall","inputs":[{"name":"policyId","type":"uint256","internalType":"uint256"},{"name":"foreignCallId","type":"uint256","internalType":"uint256"}],"outputs":[{"name":"","type":"tuple","internalType":"struct ForeignCall","components":[{"name":"set","type":"bool","internalType":"bool"},{"name":"foreignCallAddress","type":"address","internalType":"address"},{"name":"signature","type":"bytes4","internalType":"bytes4"},{"name":"returnType","type":"uint8","internalType":"enum ParamTypes"},{"name":"foreignCallIndex","type":"uint256","internalType":"uint256"},{"name":"parameterTypes","type":"uint8[]","internalType":"enum ParamTypes[]"},{"name":"encodedIndices","type":"tuple[]","internalType":"struct ForeignCallEncodedIndex[]","components":[{"name":"eType","type":"uint8","internalType":"enum EncodedIndexType"},{"name":"index","type":"uint256","internalType":"uint256"}]},{"name":"mappedTrackerKeyIndices","type":"tuple[]","internalType":"struct ForeignCallEncodedIndex[]","components":[{"name":"eType","type":"uint8","internalType":"enum EncodedIndexType"},{"name":"index","type":"uint256","internalType":"uint256"}]},{"name":"callingFunctionSelector","type":"bytes4","internalType":"bytes4"}]}],"stateMutability":"view"},{"type":"function","name":"getForeignCallMetadata","inputs":[{"name":"policyId","type":"uint256","internalType":"uint256"},{"name":"foreignCallId","type":"uint256","internalType":"uint256"}],"outputs":[{"name":"","type":"tuple","internalType":"struct ForeignCallMetadataStruct","components":[{"name":"name","type":"string","internalType":"string"},{"name":"foreignCallSignature","type":"string","internalType":"string"}]}],"stateMutability":"view"},{"type":"function","name":"getForeignCallPermissionList","inputs":[{"name":"foriegnCallAddress","type":"address","internalType":"address"},{"name":"selector","type":"bytes4","internalType":"bytes4"}],"outputs":[{"name":"","type":"address[]","internalType":"address[]"}],"stateMutability":"view"},{"type":"function","name":"removeAllFromPermissionList","inputs":[{"name":"foriegnCallAddress","type":"address","internalType":"address"},{"name":"selector","type":"bytes4","internalType":"bytes4"}],"outputs":[],"stateMutability":"nonpayable"},{"type":"function","name":"removeForeignCallPermissions","inputs":[{"name":"_foriegnCallAddress","type":"address","internalType":"address"},{"name":"_selector","type":"bytes4","internalType":"bytes4"}],"outputs":[],"stateMutability":"nonpayable"},{"type":"function","name":"removeFromPermissionList","inputs":[{"name":"_foriegnCallAddress","type":"address","internalType":"address"},{"name":"_selector","type":"bytes4","internalType":"bytes4"},{"name":"policyAdminToRemove","type":"address","internalType":"address"}],"outputs":[],"stateMutability":"nonpayable"},{"type":"function","name":"updateForeignCall","inputs":[{"name":"policyId","type":"uint256","internalType":"uint256"},{"name":"foreignCallId","type":"uint256","internalType":"uint256"},{"name":"foreignCall","type":"tuple","internalType":"struct ForeignCall","components":[{"name":"set","type":"bool","internalType":"bool"},{"name":"foreignCallAddress","type":"address","internalType":"address"},{"name":"signature","type":"bytes4","internalType":"bytes4"},{"name":"returnType","type":"uint8","internalType":"enum ParamTypes"},{"name":"foreignCallIndex","type":"uint256","internalType":"uint256"},{"name":"parameterTypes","type":"uint8[]","internalType":"enum ParamTypes[]"},{"name":"encodedIndices","type":"tuple[]","internalType":"struct ForeignCallEncodedIndex[]","components":[{"name":"eType","type":"uint8","internalType":"enum EncodedIndexType"},{"name":"index","type":"uint256","internalType":"uint256"}]},{"name":"mappedTrackerKeyIndices","type":"tuple[]","internalType":"struct ForeignCallEncodedIndex[]","components":[{"name":"eType","type":"uint8","internalType":"enum EncodedIndexType"},{"name":"index","type":"uint256","internalType":"uint256"}]},{"name":"callingFunctionSelector","type":"bytes4","internalType":"bytes4"}]}],"outputs":[{"name":"fc","type":"tuple","internalType":"struct ForeignCall","components":[{"name":"set","type":"bool","internalType":"bool"},{"name":"foreignCallAddress","type":"address","internalType":"address"},{"name":"signature","type":"bytes4","internalType":"bytes4"},{"name":"returnType","type":"uint8","internalType":"enum ParamTypes"},{"name":"foreignCallIndex","type":"uint256","internalType":"uint256"},{"name":"parameterTypes","type":"uint8[]","internalType":"enum ParamTypes[]"},{"name":"encodedIndices","type":"tuple[]","internalType":"struct ForeignCallEncodedIndex[]","components":[{"name":"eType","type":"uint8","internalType":"enum EncodedIndexType"},{"name":"index","type":"uint256","internalType":"uint256"}]},{"name":"mappedTrackerKeyIndices","type":"tuple[]","internalType":"struct ForeignCallEncodedIndex[]","components":[{"name":"eType","type":"uint8","internalType":"enum EncodedIndexType"},{"name":"index","type":"uint256","internalType":"uint256"}]},{"name":"callingFunctionSelector","type":"bytes4","internalType":"bytes4"}]}],"stateMutability":"nonpayable"},{"type":"function","name":"updatePermissionList","inputs":[{"name":"foriegnCallAddress","type":"address","internalType":"address"},{"name":"selector","type":"bytes4","internalType":"bytes4"},{"name":"policyAdminsToAdd","type":"address[]","internalType":"address[]"}],"outputs":[],"stateMutability":"nonpayable"},{"type":"event","name":"AdminAddedToForeignCallPermissions","inputs":[{"name":"foreignCallContract","type":"address","indexed":true,"internalType":"address"},{"name":"selector","type":"bytes4","indexed":true,"internalType":"bytes4"},{"name":"adminAddress","type":"address","indexed":true,"internalType":"address"}],"anonymous":false},{"type":"event","name":"ForeignCallCreated","inputs":[{"name":"policyId","type":"uint256","indexed":true,"internalType":"uint256"},{"name":"foreignCallId","type":"uint256","indexed":true,"internalType":"uint256"}],"anonymous":false},{"type":"event","name":"ForeignCallDeleted","inputs":[{"name":"policyId","type":"uint256","indexed":true,"internalType":"uint256"},{"name":"foreignCallId","type":"uint256","indexed":true,"internalType":"uint256"}],"anonymous":false},{"type":"event","name":"ForeignCallPermissionsListReset","inputs":[{"name":"foreignCallContract","type":"address","indexed":true,"internalType":"address"},{"name":"selector","type":"bytes4","indexed":true,"internalType":"bytes4"}],"anonymous":false},{"type":"event","name":"ForeignCallPermissionsListUpdate","inputs":[{"name":"foreignCallContract","type":"address","indexed":true,"internalType":"address"},{"name":"selector","type":"bytes4","indexed":true,"internalType":"bytes4"},{"name":"adminAddresses","type":"address[]","indexed":true,"internalType":"address[]"}],"anonymous":false},{"type":"event","name":"ForeignCallPermissionsRemoved","inputs":[{"name":"foreignCallContract","type":"address","indexed":true,"internalType":"address"},{"name":"selector","type":"bytes4","indexed":true,"internalType":"bytes4"}],"anonymous":false},{"type":"event","name":"ForeignCallUpdated","inputs":[{"name":"policyId","type":"uint256","indexed":true,"internalType":"uint256"},{"name":"foreignCallId","type":"uint256","indexed":true,"internalType":"uint256"}],"anonymous":false}],"bytecode":{"object":"0x6080604052348015600e575f5ffd5b506143278061001c5f395ff3fe608060405234801561000f575f5ffd5b50600436106100da575f3560e01c8063a3937e9911610088578063e06e2b0011610063578063e06e2b00146101cb578063ef3ea06c146101de578063f0e9d744146101f1578063f69187ee14610204575f5ffd5b8063a3937e9914610185578063d82260c8146101a5578063da7d5d28146101b8575f5ffd5b8063391460f4116100b8578063391460f41461012f5780638f4700371461015057806392ee33ae14610165575f5ffd5b8063028206ac146100de5780630d5d9cb0146100f357806338d0cc0814610106575b5f5ffd5b6100f16100ec366004612d05565b610224565b005b6100f1610101366004612e39565b610511565b610119610114366004612f15565b6108c8565b604051610126919061313f565b60405180910390f35b61014261013d36600461319d565b6109fd565b604051908152602001610126565b610158610ac4565b6040516101269190613286565b610178610173366004613331565b610be9565b6040516101269190613368565b61019861019336600461337a565b610cae565b6040516101269190613391565b6100f16101b3366004613412565b6110cc565b6101196101c6366004613412565b6111af565b6100f16101d9366004613432565b6114cf565b6100f16101ec366004613331565b611640565b6100f16101ff366004613331565b61180d565b610217610212366004613412565b611d4e565b60405161012691906134bb565b61022f833384611eb0565b5f610238612022565b73ffffffffffffffffffffffffffffffffffffffff8581165f908152600392909201602090815260408084207fffffffff000000000000000000000000000000000000000000000000000000008816855282528084209286168452919052812080547fffffffffffffffffffffffffffffffffffffffffffffffffffffffffffffff0016921515929092179091556102ce612022565b73ffffffffffffffffffffffffffffffffffffffff85165f908152600491909101602090815260408083207fffffffff0000000000000000000000000000000000000000000000000000000087168452909152812091505b8154811015610491578273ffffffffffffffffffffffffffffffffffffffff168282815481106103585761035861351a565b5f9182526020909120015473ffffffffffffffffffffffffffffffffffffffff1603610489578154829061038e90600190613574565b8154811061039e5761039e61351a565b905f5260205f20015f9054906101000a900473ffffffffffffffffffffffffffffffffffffffff168282815481106103d8576103d861351a565b905f5260205f20015f6101000a81548173ffffffffffffffffffffffffffffffffffffffff021916908373ffffffffffffffffffffffffffffffffffffffff1602179055508180548061042d5761042d613587565b5f8281526020902081017fffffffffffffffffffffffffffffffffffffffffffffffffffffffffffffffff90810180547fffffffffffffffffffffffff0000000000000000000000000000000000000000169055019055610491565b600101610326565b50806040516104a091906135b4565b604051908190038120907fffffffff0000000000000000000000000000000000000000000000000000000085169073ffffffffffffffffffffffffffffffffffffffff8716907fb58e00a4bda1b49dca44b68b8c6d7350e8afef69a6f7f9241c971d2116b239a0905f90a450505050565b61051c833384611eb0565b5f6105278484610be9565b9050610531612022565b73ffffffffffffffffffffffffffffffffffffffff85165f908152600491909101602090815260408083207fffffffff0000000000000000000000000000000000000000000000000000000087168452909152812061058f91612bec565b5f5b8151811015610673575f6105a3612022565b73ffffffffffffffffffffffffffffffffffffffff87165f908152600391909101602090815260408083207fffffffff00000000000000000000000000000000000000000000000000000000891684529091528120845190919085908590811061060f5761060f61351a565b60209081029190910181015173ffffffffffffffffffffffffffffffffffffffff1682528101919091526040015f2080547fffffffffffffffffffffffffffffffffffffffffffffffffffffffffffffff0016911515919091179055600101610591565b505f5b82518110156108b957610687612022565b73ffffffffffffffffffffffffffffffffffffffff86165f908152600491909101602090815260408083207fffffffff0000000000000000000000000000000000000000000000000000000088168452909152902083518490839081106106f0576106f061351a565b6020908102919091018101518254600180820185555f9485529290932090920180547fffffffffffffffffffffffff00000000000000000000000000000000000000001673ffffffffffffffffffffffffffffffffffffffff9093169290921790915561075b612022565b73ffffffffffffffffffffffffffffffffffffffff87165f908152600391909101602090815260408083207fffffffff0000000000000000000000000000000000000000000000000000000089168452909152812085519091908690859081106107c7576107c761351a565b602002602001015173ffffffffffffffffffffffffffffffffffffffff1673ffffffffffffffffffffffffffffffffffffffff1681526020019081526020015f205f6101000a81548160ff0219169083151502179055508281815181106108305761083061351a565b602002602001015173ffffffffffffffffffffffffffffffffffffffff16847bffffffffffffffffffffffffffffffffffffffffffffffffffffffff19168673ffffffffffffffffffffffffffffffffffffffff167f2a60b6a2eb5984d2479df172f3d9b813931c413ee94ceb51971dc6fd45f6ac5260405160405180910390a4600101610676565b50816040516104a09190613603565b60408051610120810182525f8082526020820181905291810182905260608082018390526080820183905260a0820181905260c0820181905260e0820152610100810191909152610919843361204f565b610922846121b0565b61092c8484612242565b61098557604051806060016040528060278152602001614254602791396040517f08c379a000000000000000000000000000000000000000000000000000000000815260040161097c9190613643565b60405180910390fd5b6109ad6109986040840160208501613655565b6109a86060850160408601613670565b61226c565b6109b6826137b3565b6080810184905290506109ca848385612394565b604051839085907f82132283659aa079ae6d599fbbe109c1bfb961fc5bbbb0a98a343b4ea6dc3e00905f90a39392505050565b5f610a08873361204f565b610a11876121b0565b610a34610a246040880160208901613655565b6109a86060890160408a01613670565b5f610a3e8861290e565b9050610a4b888883612940565b610a8d8882888888888080601f0160208091040260200160405190810160405280939291908181526020018383808284375f9201919091525061296992505050565b604051819089907f9006068daf408b7e36a22c789f04c4ba9c6c638a6cf8438c2250583384f2192f905f90a3979650505050505050565b6040805180820190915260608082526020820152610ae0612a77565b6040805182546060602082028301810184529282018181529193928492918491840182828015610b4457602002820191905f5260205f20905b815473ffffffffffffffffffffffffffffffffffffffff168152600190910190602001808311610b19575b5050505050815260200160018201805480602002602001604051908101604052809291908181526020018280548015610bdb57602002820191905f5260205f20905f905b82829054906101000a900460e01b7bffffffffffffffffffffffffffffffffffffffffffffffffffffffff191681526020019060040190602082600301049283019260010382029150808411610b885790505b505050505081525050905090565b6060610bf3612022565b73ffffffffffffffffffffffffffffffffffffffff84165f908152600491909101602090815260408083207fffffffff000000000000000000000000000000000000000000000000000000008616845282529182902080548351818402810184019094528084529091830182828015610ca057602002820191905f5260205f20905b815473ffffffffffffffffffffffffffffffffffffffff168152600190910190602001808311610c75575b505050505090505b92915050565b60605f610cb9612022565b5f848152602091909152604081205491508167ffffffffffffffff811115610ce357610ce3612d4d565b604051908082528060200260200182016040528015610d7657816020015b60408051610120810182525f808252602080830182905292820181905260608083018290526080830182905260a0830181905260c0830181905260e083015261010082015282527fffffffffffffffffffffffffffffffffffffffffffffffffffffffffffffffff909201910181610d015790505b5090505f805b8381116110c257610d8b612022565b5f8781526001919091016020908152604080832084845290915290205460ff16156110b057610db8612022565b5f87815260019190910160209081526040808320848452825291829020825161012081018452815460ff8082161515835273ffffffffffffffffffffffffffffffffffffffff610100830416948301949094527fffffffff000000000000000000000000000000000000000000000000000000007501000000000000000000000000000000000000000000820460e01b169482019490945292909160608401917901000000000000000000000000000000000000000000000000009004166007811115610e8757610e87612f61565b6007811115610e9857610e98612f61565b81526020016001820154815260200160028201805480602002602001604051908101604052809291908181526020018280548015610f2257602002820191905f5260205f20905f905b82829054906101000a900460ff166007811115610f0057610f00612f61565b815260206001928301818104948501949093039092029101808411610ee15790505b5050505050815260200160038201805480602002602001604051908101604052809291908181526020015f905b82821015610fb6575f8481526020902060408051808201909152600284029091018054829060ff166004811115610f8857610f88612f61565b6004811115610f9957610f99612f61565b815260200160018201548152505081526020019060010190610f4f565b50505050815260200160048201805480602002602001604051908101604052809291908181526020015f905b82821015611049575f8481526020902060408051808201909152600284029091018054829060ff16600481111561101b5761101b612f61565b600481111561102c5761102c612f61565b815260200160018201548152505081526020019060010190610fe2565b505050908252506005919091015460e01b7fffffffff000000000000000000000000000000000000000000000000000000001660209091015283518490849081106110965761109661351a565b602002602001018190525081806110ac906138ae565b9250505b806110ba816138ae565b915050610d7c565b5090949350505050565b6110d6823361204f565b6110df826121b0565b6110e7612022565b5f838152600191820160209081526040808320858452909152812080547fffffffffffff000000000000000000000000000000000000000000000000000016815591820181905561113b6002830182612c07565b611148600383015f612c29565b611155600483015f612c29565b5060050180547fffffffffffffffffffffffffffffffffffffffffffffffffffffffff00000000169055604051819083907f19d0bd0cc4d63f9108c93b0abfd7408498ecbc73713f6bb3a2862d9b9d1983d8905f90a35050565b60408051610120810182525f8082526020820181905291810182905260608082018390526080820183905260a0820181905260c0820181905260e08201526101008101919091526111fe612022565b5f84815260019190910160209081526040808320858452825291829020825161012081018452815460ff8082161515835273ffffffffffffffffffffffffffffffffffffffff610100830416948301949094527fffffffff000000000000000000000000000000000000000000000000000000007501000000000000000000000000000000000000000000820460e01b1694820194909452929091606084019179010000000000000000000000000000000000000000000000000090041660078111156112cd576112cd612f61565b60078111156112de576112de612f61565b8152602001600182015481526020016002820180548060200260200160405190810160405280929190818152602001828054801561136857602002820191905f5260205f20905f905b82829054906101000a900460ff16600781111561134657611346612f61565b8152602060019283018181049485019490930390920291018084116113275790505b5050505050815260200160038201805480602002602001604051908101604052809291908181526020015f905b828210156113fc575f8481526020902060408051808201909152600284029091018054829060ff1660048111156113ce576113ce612f61565b60048111156113df576113df612f61565b815260200160018201548152505081526020019060010190611395565b50505050815260200160048201805480602002602001604051908101604052809291908181526020015f905b8282101561148f575f8481526020902060408051808201909152600284029091018054829060ff16600481111561146157611461612f61565b600481111561147257611472612f61565b815260200160018201548152505081526020019060010190611428565b505050908252506005919091015460e01b7fffffffff00000000000000000000000000000000000000000000000000000000166020909101529392505050565b6114da833383611eb0565b6114e2612022565b73ffffffffffffffffffffffffffffffffffffffff8481165f908152600492909201602090815260408084207fffffffff000000000000000000000000000000000000000000000000000000008616855282528320805460018082018355918552919093200180547fffffffffffffffffffffffff00000000000000000000000000000000000000001691851691909117905561157d612022565b73ffffffffffffffffffffffffffffffffffffffff8581165f818152600393909301602090815260408085207fffffffff0000000000000000000000000000000000000000000000000000000088168087529083528186209489168087529490925280852080547fffffffffffffffffffffffffffffffffffffffffffffffffffffffffffffff001696151596909617909555935191939290917f2a60b6a2eb5984d2479df172f3d9b813931c413ee94ceb51971dc6fd45f6ac529190a4505050565b61164b823383611eb0565b5f6116568383610be9565b9050611660612022565b73ffffffffffffffffffffffffffffffffffffffff84165f908152600491909101602090815260408083207fffffffff000000000000000000000000000000000000000000000000000000008616845290915281206116be91612bec565b60015b81518110156117a3575f6116d3612022565b73ffffffffffffffffffffffffffffffffffffffff86165f908152600391909101602090815260408083207fffffffff00000000000000000000000000000000000000000000000000000000881684529091528120845190919085908590811061173f5761173f61351a565b60209081029190910181015173ffffffffffffffffffffffffffffffffffffffff1682528101919091526040015f2080547fffffffffffffffffffffffffffffffffffffffffffffffffffffffffffffff00169115159190911790556001016116c1565b506040517fffffffff0000000000000000000000000000000000000000000000000000000083169073ffffffffffffffffffffffffffffffffffffffff8516907f3f0cfd5b586b18663b4d413737df6af01f6a9f7f74a51ef9e3df464352121fb2905f90a3505050565b611818823383611eb0565b5f6118238383610be9565b905061182d612022565b73ffffffffffffffffffffffffffffffffffffffff84165f908152600491909101602090815260408083207fffffffff0000000000000000000000000000000000000000000000000000000086168452909152812061188b91612bec565b5f5b815181101561196f575f61189f612022565b73ffffffffffffffffffffffffffffffffffffffff86165f908152600391909101602090815260408083207fffffffff00000000000000000000000000000000000000000000000000000000881684529091528120845190919085908590811061190b5761190b61351a565b60209081029190910181015173ffffffffffffffffffffffffffffffffffffffff1682528101919091526040015f2080547fffffffffffffffffffffffffffffffffffffffffffffffffffffffffffffff001691151591909117905560010161188d565b505f611979612022565b73ffffffffffffffffffffffffffffffffffffffff85165f908152600291909101602090815260408083207fffffffff0000000000000000000000000000000000000000000000000000000087168452909152812080547fffffffffffffffffffffffffffffffffffffffffffffffffffffffffffffff001692151592909217909155611a04612a77565b90505f611a0f612a77565b60010190505f5b8254811015611ce2578573ffffffffffffffffffffffffffffffffffffffff16838281548110611a4857611a4861351a565b5f9182526020909120015473ffffffffffffffffffffffffffffffffffffffff16148015611ae55750847bffffffffffffffffffffffffffffffffffffffffffffffffffffffff1916828281548110611aa357611aa361351a565b905f5260205f2090600891828204019190066004029054906101000a900460e01b7bffffffffffffffffffffffffffffffffffffffffffffffffffffffff1916145b15611cda5782548390611afa90600190613574565b81548110611b0a57611b0a61351a565b905f5260205f20015f9054906101000a900473ffffffffffffffffffffffffffffffffffffffff16838281548110611b4457611b4461351a565b5f91825260209091200180547fffffffffffffffffffffffff00000000000000000000000000000000000000001673ffffffffffffffffffffffffffffffffffffffff9290921691909117905581548290611ba190600190613574565b81548110611bb157611bb161351a565b905f5260205f2090600891828204019190066004029054906101000a900460e01b828281548110611be457611be461351a565b905f5260205f2090600891828204019190066004026101000a81548163ffffffff021916908360e01c021790555082805480611c2257611c22613587565b5f8281526020902081017fffffffffffffffffffffffffffffffffffffffffffffffffffffffffffffffff90810180547fffffffffffffffffffffffff00000000000000000000000000000000000000001690550190558154829080611c8a57611c8a613587565b5f8281526020902060087fffffffffffffffffffffffffffffffffffffffffffffffffffffffffffffffff90920191820401805463ffffffff600460078516026101000a02191690559055611ce2565b600101611a16565b506040517fffffffff0000000000000000000000000000000000000000000000000000000085169073ffffffffffffffffffffffffffffffffffffffff8716907f89401d05a96381d33c99e34b1cb3c4011ab9d4b136ad7de38b94a9084b3809d5905f90a35050505050565b6040805180820190915260608082526020820152611d6a612aa4565b5f848152602091825260408082208583529092528190208151808301909252805482908290611d98906138e5565b80601f0160208091040260200160405190810160405280929190818152602001828054611dc4906138e5565b8015611e0f5780601f10611de657610100808354040283529160200191611e0f565b820191905f5260205f20905b815481529060010190602001808311611df257829003601f168201915b50505050508152602001600182018054611e28906138e5565b80601f0160208091040260200160405190810160405280929190818152602001828054611e54906138e5565b8015611e9f5780601f10611e7657610100808354040283529160200191611e9f565b820191905f5260205f20905b815481529060010190602001808311611e8257829003601f168201915b505050505081525050905092915050565b60405173ffffffffffffffffffffffffffffffffffffffff8085166024830152831660448201527fffffffff00000000000000000000000000000000000000000000000000000000821660648201525f908190611fa7907f41a2b7ae0000000000000000000000000000000000000000000000000000000090608401604080517fffffffffffffffffffffffffffffffffffffffffffffffffffffffffffffffe08184030181529190526020810180517bffffffffffffffffffffffffffffffffffffffffffffffffffffffff167f41a2b7ae00000000000000000000000000000000000000000000000000000000179052612ad1565b915091505f821561201a576004825110611fc657506020810151611fc9565b505f5b8061201a576040518060600160405280602481526020016142a6602491396040517f08c379a000000000000000000000000000000000000000000000000000000000815260040161097c9190613643565b505050505050565b5f80610ca860017f1f3305601ed940efccf797d76856e5fe70659a8a6905d64c9f236321df91e718613574565b6040516024810183905273ffffffffffffffffffffffffffffffffffffffff821660448201525f90819061211d907f901cee110000000000000000000000000000000000000000000000000000000090606401604080517fffffffffffffffffffffffffffffffffffffffffffffffffffffffffffffffe08184030181529190526020810180517bffffffffffffffffffffffffffffffffffffffffffffffffffffffff167f901cee1100000000000000000000000000000000000000000000000000000000179052612ad1565b915091505f82156121a957600482511061213c5750602081015161213f565b505f5b806121a957604080518082018252601881527f4e6f7420417574686f72697a656420546f20506f6c6963790000000000000000602082015290517f08c379a000000000000000000000000000000000000000000000000000000000815261097c9190600401613643565b5050505050565b6121b8612b92565b5f8281526001919091016020526040902060030154610100900460ff161561223f57604080518082018252601f81527f4e6f7420616c6c6f77656420666f722063656d656e74656420706f6c69637900602082015290517f08c379a000000000000000000000000000000000000000000000000000000000815261097c9190600401613643565b50565b5f61224b612022565b5f938452600101602090815260408085209385529290525090205460ff1690565b612274612022565b73ffffffffffffffffffffffffffffffffffffffff83165f908152600291909101602090815260408083207fffffffff000000000000000000000000000000000000000000000000000000008516845290915290205460ff16801561233f57506122dc612022565b73ffffffffffffffffffffffffffffffffffffffff83165f908152600391909101602090815260408083207fffffffff0000000000000000000000000000000000000000000000000000000085168452825280832033845290915290205460ff16155b1561239057604051806060016040528060218152602001614209602191396040517f08c379a000000000000000000000000000000000000000000000000000000000815260040161097c9190613643565b5050565b6123a160c0830183613930565b90506123b060a0840184613994565b9050146123bf576123bf6139f8565b5f6123d06040840160208501613655565b73ffffffffffffffffffffffffffffffffffffffff160361245057604080518082018252601b81527f5a65726f2041646472657373204973204e6f7420416c6c6f7765640000000000602082015290517f08c379a000000000000000000000000000000000000000000000000000000000815261097c9190600401613643565b306124616040840160208501613655565b73ffffffffffffffffffffffffffffffffffffffff16036124c8576040518060600160405280602881526020016142ca602891396040517f08c379a000000000000000000000000000000000000000000000000000000000815260040161097c9190613643565b604080516020810182525f90527fc5d2460100000000000000000000000000000000000000000000000000000000906125079060608501908501613670565b7fffffffff00000000000000000000000000000000000000000000000000000000160361259357604080518082018252601e81527f46756e6374696f6e207369676e61747572652069732072657175697265640000602082015290517f08c379a000000000000000000000000000000000000000000000000000000000815261097c9190600401613643565b61271082608001351080156125a9575061271081105b6040518060400160405280601981526020017f4d617820666f726569676e2063616c6c7320726561636865640000000000000081525090612617576040517f08c379a000000000000000000000000000000000000000000000000000000000815260040161097c9190613643565b5061271061262860a0840184613994565b9050106040518060600160405280602481526020016141e5602491399061267c576040517f08c379a000000000000000000000000000000000000000000000000000000000815260040161097c9190613643565b505f805b61268d60c0850185613930565b90508110156127f45760046126a560c0860186613930565b838181106126b5576126b561351a565b6126cb9260206040909202019081019150613a25565b60048111156126dc576126dc612f61565b036127ec576126ee60e0850185613930565b905082106040518060600160405280602b815260200161427b602b913990612743576040517f08c379a000000000000000000000000000000000000000000000000000000000815260040161097c9190613643565b50600461275360e0860186613930565b848181106127635761276361351a565b6127799260206040909202019081019150613a25565b600481111561278a5761278a612f61565b14156040518060600160405280602a815260200161422a602a9139906127dd576040517f08c379a000000000000000000000000000000000000000000000000000000000815260040161097c9190613643565b50816127e8816138ae565b9250505b600101612680565b5061280260e0840184613930565b905081146040518060600160405280602b815260200161427b602b913990612857576040517f08c379a000000000000000000000000000000000000000000000000000000000815260040161097c9190613643565b5082612861612022565b5f8681526001919091016020908152604080832086845290915290206128878282613db5565b9050506001612894612022565b5f86815260019190910160209081526040808320868452909152902080547fffffffffffffffffffffffffffffffffffffffffffffffffffffffffffffff0016911515919091179055816128e6612022565b5f95865260019081016020908152604080882095885294905292909420909101929092555050565b5f5f612918612022565b5f848152602082905260408120805492935091612934906138ae565b91829055509392505050565b5f612949612022565b9050612956848484612394565b5f93845260205260409092209190915550565b604080516020810182525f9052517fc5d2460186f7233c927e7db2dcc703c0e500b653ca82273b7bfad8045d85a470906129a69085908590613f5b565b604051809103902014156040518060400160405280601081526020017f4e616d652069732072657175697265640000000000000000000000000000000081525090612a1e576040517f08c379a000000000000000000000000000000000000000000000000000000000815260040161097c9190613643565b508282612a29612aa4565b5f888152602091825260408082208983529092522091612a4a919083613fa1565b5080612a54612aa4565b5f87815260209182526040808220888352909252206001019061201a90826140b7565b5f80610ca860017f3c401fd2932622880eb0dc8877cc070591b51eaaa3bb9dfbc1718d869b7a12b3613574565b5f80610ca860017f680281604e63223dcddb1c0e3af179db8bd5c81752348dc75dc7ed88d927353c613574565b5f60605f612add612bbf565b7fffffffff0000000000000000000000000000000000000000000000000000000086165f908152602082905260409081902054905191925073ffffffffffffffffffffffffffffffffffffffff16908190612b399087906141ce565b5f60405180830381855af49150503d805f8114612b71576040519150601f19603f3d011682016040523d82523d5f602084013e612b76565b606091505b50909450925083612b8957825160208401fd5b50509250929050565b5f80610ca860017ff9dbd639dd2ea165d77dd4c51dec420100d51ceacf023b1c40faa045ba8f9a65613574565b5f80610ca860017fbe498a3b14fd79a48c3c9af86ff14271ed497d09071013334028d28e7791db20613574565b5080545f8255905f5260205f209081019061223f9190612c47565b5080545f8255601f0160209004905f5260205f209081019061223f9190612c47565b5080545f8255600202905f5260205f209081019061223f9190612c5f565b5b80821115612c5b575f8155600101612c48565b5090565b5b80821115612c5b5780547fffffffffffffffffffffffffffffffffffffffffffffffffffffffffffffff001681555f6001820155600201612c60565b73ffffffffffffffffffffffffffffffffffffffff8116811461223f575f5ffd5b8035612cc881612c9c565b919050565b7fffffffff000000000000000000000000000000000000000000000000000000008116811461223f575f5ffd5b8035612cc881612ccd565b5f5f5f60608486031215612d17575f5ffd5b8335612d2281612c9c565b92506020840135612d3281612ccd565b91506040840135612d4281612c9c565b809150509250925092565b7f4e487b71000000000000000000000000000000000000000000000000000000005f52604160045260245ffd5b6040805190810167ffffffffffffffff81118282101715612d9d57612d9d612d4d565b60405290565b604051610120810167ffffffffffffffff81118282101715612d9d57612d9d612d4d565b604051601f82017fffffffffffffffffffffffffffffffffffffffffffffffffffffffffffffffe016810167ffffffffffffffff81118282101715612e0e57612e0e612d4d565b604052919050565b5f67ffffffffffffffff821115612e2f57612e2f612d4d565b5060051b60200190565b5f5f5f60608486031215612e4b575f5ffd5b8335612e5681612c9c565b92506020840135612e6681612ccd565b9150604084013567ffffffffffffffff811115612e81575f5ffd5b8401601f81018613612e91575f5ffd5b8035612ea4612e9f82612e16565b612dc7565b8082825260208201915060208360051b850101925088831115612ec5575f5ffd5b6020840193505b82841015612ef0578335612edf81612c9c565b825260209384019390910190612ecc565b809450505050509250925092565b5f6101208284031215612f0f575f5ffd5b50919050565b5f5f5f60608486031215612f27575f5ffd5b8335925060208401359150604084013567ffffffffffffffff811115612f4b575f5ffd5b612f5786828701612efe565b9150509250925092565b7f4e487b71000000000000000000000000000000000000000000000000000000005f52602160045260245ffd5b60088110612f9e57612f9e612f61565b9052565b5f8151808452602084019350602083015f5b82811015612fda57612fc7868351612f8e565b6020958601959190910190600101612fb4565b5093949350505050565b5f8151808452602084019350602083015f5b82811015612fda57815180516005811061301257613012612f61565b8752602090810151818801526040909601959190910190600101612ff6565b8051151582525f602082015161305f602085018273ffffffffffffffffffffffffffffffffffffffff169052565b50604082015161309360408501827fffffffff00000000000000000000000000000000000000000000000000000000169052565b5060608201516130a66060850182612f8e565b506080820151608084015260a082015161012060a08501526130cc610120850182612fa2565b905060c083015184820360c08601526130e58282612fe4565b91505060e083015184820360e08601526130ff8282612fe4565b9150506101008301516131376101008601827fffffffff00000000000000000000000000000000000000000000000000000000169052565b509392505050565b602081525f6131516020830184613031565b9392505050565b5f5f83601f840112613168575f5ffd5b50813567ffffffffffffffff81111561317f575f5ffd5b602083019150836020828501011115613196575f5ffd5b9250929050565b5f5f5f5f5f5f608087890312156131b2575f5ffd5b86359550602087013567ffffffffffffffff8111156131cf575f5ffd5b6131db89828a01612efe565b955050604087013567ffffffffffffffff8111156131f7575f5ffd5b61320389828a01613158565b909550935050606087013567ffffffffffffffff811115613222575f5ffd5b61322e89828a01613158565b979a9699509497509295939492505050565b5f8151808452602084019350602083015f5b82811015612fda57815173ffffffffffffffffffffffffffffffffffffffff16865260209586019590910190600101613252565b602081525f8251604060208401526132a16060840182613240565b6020858101517fffffffffffffffffffffffffffffffffffffffffffffffffffffffffffffffe0868403016040870152805180845290820193505f92909101905b80831015613327577fffffffff0000000000000000000000000000000000000000000000000000000084511682526020820191506020840193506001830192506132e2565b5095945050505050565b5f5f60408385031215613342575f5ffd5b823561334d81612c9c565b9150602083013561335d81612ccd565b809150509250929050565b602081525f6131516020830184613240565b5f6020828403121561338a575f5ffd5b5035919050565b5f602082016020835280845180835260408501915060408160051b8601019250602086015f5b82811015613406577fffffffffffffffffffffffffffffffffffffffffffffffffffffffffffffffc08786030184526133f1858351613031565b945060209384019391909101906001016133b7565b50929695505050505050565b5f5f60408385031215613423575f5ffd5b50508035926020909101359150565b5f5f5f60608486031215613444575f5ffd5b833561344f81612c9c565b9250602084013561345f81612c9c565b91506040840135612d4281612ccd565b5f81518084528060208401602086015e5f6020828601015260207fffffffffffffffffffffffffffffffffffffffffffffffffffffffffffffffe0601f83011685010191505092915050565b602081525f8251604060208401526134d6606084018261346f565b905060208401517fffffffffffffffffffffffffffffffffffffffffffffffffffffffffffffffe0848303016040850152613511828261346f565b95945050505050565b7f4e487b71000000000000000000000000000000000000000000000000000000005f52603260045260245ffd5b7f4e487b71000000000000000000000000000000000000000000000000000000005f52601160045260245ffd5b81810381811115610ca857610ca8613547565b7f4e487b71000000000000000000000000000000000000000000000000000000005f52603160045260245ffd5b5f818354839150845f5260205f205f5b828110156135f857815473ffffffffffffffffffffffffffffffffffffffff168452602090930192600191820191016135c4565b509195945050505050565b81515f90829060208501835b828110156135f857815173ffffffffffffffffffffffffffffffffffffffff1684526020938401939091019060010161360f565b602081525f613151602083018461346f565b5f60208284031215613665575f5ffd5b813561315181612c9c565b5f60208284031215613680575f5ffd5b813561315181612ccd565b801515811461223f575f5ffd5b8035612cc88161368b565b6008811061223f575f5ffd5b8035612cc8816136a3565b5f82601f8301126136c9575f5ffd5b81356136d7612e9f82612e16565b8082825260208201915060208360051b8601019250858311156136f8575f5ffd5b602085015b83811015613327578035613710816136a3565b8352602092830192016136fd565b6005811061223f575f5ffd5b5f82601f830112613739575f5ffd5b8135613747612e9f82612e16565b8082825260208201915060208360061b860101925085831115613768575f5ffd5b602085015b838110156133275760408188031215613784575f5ffd5b61378c612d7a565b81356137978161371e565b815260208281013581830152908452929092019160400161376d565b5f61012082360312156137c4575f5ffd5b6137cc612da3565b6137d583613698565b81526137e360208401612cbd565b60208201526137f460408401612cfa565b6040820152613805606084016136af565b60608201526080838101359082015260a083013567ffffffffffffffff81111561382d575f5ffd5b613839368286016136ba565b60a08301525060c083013567ffffffffffffffff811115613858575f5ffd5b6138643682860161372a565b60c08301525060e083013567ffffffffffffffff811115613883575f5ffd5b61388f3682860161372a565b60e0830152506138a26101008401612cfa565b61010082015292915050565b5f7fffffffffffffffffffffffffffffffffffffffffffffffffffffffffffffffff82036138de576138de613547565b5060010190565b600181811c908216806138f957607f821691505b602082108103612f0f577f4e487b71000000000000000000000000000000000000000000000000000000005f52602260045260245ffd5b5f5f83357fffffffffffffffffffffffffffffffffffffffffffffffffffffffffffffffe1843603018112613963575f5ffd5b83018035915067ffffffffffffffff82111561397d575f5ffd5b6020019150600681901b3603821315613196575f5ffd5b5f5f83357fffffffffffffffffffffffffffffffffffffffffffffffffffffffffffffffe18436030181126139c7575f5ffd5b83018035915067ffffffffffffffff8211156139e1575f5ffd5b6020019150600581901b3603821315613196575f5ffd5b7f4e487b71000000000000000000000000000000000000000000000000000000005f52600160045260245ffd5b5f60208284031215613a35575f5ffd5b81356131518161371e565b5f8135610ca881612c9c565b5f8135610ca881612ccd565b5f8135610ca8816136a3565b60088210613a7457613a74612f61565b805479ff000000000000000000000000000000000000000000000000008360c81b167fffffffffffff00ffffffffffffffffffffffffffffffffffffffffffffffffff8216178255505050565b5b81811015612390575f8155600101613ac2565b68010000000000000000821115613aee57613aee612d4d565b805482825580831015613b7b57815f5260205f20601f840160051c8101601f85168015613b68577fffffffffffffffffffffffffffffffffffffffffffffffffffffffffffffffff820180547fffffffffffffffffffffffffffffffffffffffffffffffffffffffffffffffff8360200360031b1c168155505b506121a9601f840160051c830182613ac1565b505050565b67ffffffffffffffff831115613b9857613b98612d4d565b613ba28382613ad5565b5f8181526020902082908460051c5f5b81811015613c07575f5f5b6020811015613bfa57613be9613bd287613a58565b60ff908116600384901b90811b91901b1984161790565b602096909601959150600101613bbd565b5083820155600101613bb2565b507fffffffffffffffffffffffffffffffffffffffffffffffffffffffffffffffe08616808703818814613c63575f5f5b82811015613c5d57613c4c613bd288613a58565b602097909701969150600101613c38565b50848401555b5050505050505050565b8135613c788161371e565b60058110613c8857613c88612f61565b81547fffffffffffffffffffffffffffffffffffffffffffffffffffffffffffffff001660ff9190911617815560209190910135600190910155565b68010000000000000000831115613cdd57613cdd612d4d565b805483825580841015613d81577f7fffffffffffffffffffffffffffffffffffffffffffffffffffffffffffffff81168114613d1b57613d1b613547565b7f7fffffffffffffffffffffffffffffffffffffffffffffffffffffffffffffff84168414613d4c57613d4c613547565b815f5260205f208160011b81018560011b820191505b80821015613d7e575f82555f6001830155600282019150613d62565b50505b505f8181526020812083915b8581101561201a57613d9f8383613c6d565b6040929092019160029190910190600101613d8d565b8135613dc08161368b565b7fffffffffffffffffffffffffffffffffffffffffffffffffffffffffffffff0082541660ff82151516811783555050613e45613dff60208401613a40565b82547fffffffffffffffffffffff0000000000000000000000000000000000000000ff1660089190911b74ffffffffffffffffffffffffffffffffffffffff0016178255565b613ea2613e5460408401613a4c565b8280547fffffffffffffff00000000ffffffffffffffffffffffffffffffffffffffffff1660389290921c78ffffffff00000000000000000000000000000000000000000016919091179055565b613eb7613eb160608401613a58565b82613a64565b60808201356001820155613ece60a0830183613994565b613edc818360028601613b80565b5050613eeb60c0830183613930565b613ef9818360038601613cc4565b5050613f0860e0830183613930565b613f16818360048601613cc4565b5050612390613f286101008401613a4c565b600583018160e01c7fffffffffffffffffffffffffffffffffffffffffffffffffffffffff000000008254161781555050565b818382375f9101908152919050565b601f821115613b7b57805f5260205f20601f840160051c81016020851015613f8f5750805b6121a9601f850160051c830182613ac1565b67ffffffffffffffff831115613fb957613fb9612d4d565b613fcd83613fc783546138e5565b83613f6a565b5f601f84116001811461401d575f8515613fe75750838201355b7fffffffffffffffffffffffffffffffffffffffffffffffffffffffffffffffff600387901b1c1916600186901b1783556121a9565b5f838152602081207fffffffffffffffffffffffffffffffffffffffffffffffffffffffffffffffe08716915b8281101561406a578685013582556020948501946001909201910161404a565b50868210156140a5577fffffffffffffffffffffffffffffffffffffffffffffffffffffffffffffffff60f88860031b161c19848701351681555b505060018560011b0183555050505050565b815167ffffffffffffffff8111156140d1576140d1612d4d565b6140e5816140df84546138e5565b84613f6a565b6020601f821160018114614136575f83156141005750848201515b7fffffffffffffffffffffffffffffffffffffffffffffffffffffffffffffffff600385901b1c1916600184901b1784556121a9565b5f848152602081207fffffffffffffffffffffffffffffffffffffffffffffffffffffffffffffffe08516915b828110156141835787850151825560209485019460019092019101614163565b50848210156141bf57868401517fffffffffffffffffffffffffffffffffffffffffffffffffffffffffffffffff600387901b60f8161c191681555b50505050600190811b01905550565b5f82518060208501845e5f92019182525091905056fe4d617820666f726569676e20706172616d6574657220747970657320726561636865642e4e6f74205065726d697373696f6e656420466f7220466f726569676e2043616c6c4d617070656420747261636b6572206b65792063616e6e6f7420626520646f75626c65206e6573746564466f726569676e2043616c6c207265666572656e63656420696e2072756c65206e6f74207365744d617070656420747261636b6572206b657920696e6469636573206c656e677468206d69736d617463682e4e6f7420416e20417574686f72697a656420466f726569676e2043616c6c2041646d696e41646472657373206e6f7420616c6c6f77656420746f206265206120666f726569676e2063616c6ca2646970667358221220bf9d1db56b637d8e1cde5dc18e44daa2b6081abb6564f40a9883cf8ea52d6d3264736f6c634300081c0033","linkReferences":{}},"methodIdentifiers":{"addAdminToPermissionList(address,address,bytes4)":"e06e2b00","createForeignCall(uint256,(bool,address,bytes4,uint8,uint256,uint8[],(uint8,uint256)[],(uint8,uint256)[],bytes4),string,string)":"391460f4","deleteForeignCall(uint256,uint256)":"d82260c8","getAllForeignCalls(uint256)":"a3937e99","getAllPermissionedFCs()":"8f470037","getForeignCall(uint256,uint256)":"da7d5d28","getForeignCallMetadata(uint256,uint256)":"f69187ee","getForeignCallPermissionList(address,bytes4)":"92ee33ae","removeAllFromPermissionList(address,bytes4)":"ef3ea06c","removeForeignCallPermissions(address,bytes4)":"f0e9d744","removeFromPermissionList(address,bytes4,address)":"028206ac","updateForeignCall(uint256,uint256,(bool,address,bytes4,uint8,uint256,uint8[],(uint8,uint256)[],(uint8,uint256)[],bytes4))":"38d0cc08","updatePermissionList(address,bytes4,address[])":"0d5d9cb0"},"id":79}