{"abi":[{"type":"function","name":"addClosedPolicySubscriber","inputs":[{"name":"policyId","type":"uint256","internalType":"uint256"},{"name":"subscriber","type":"address","internalType":"address"}],"outputs":[],"stateMutability":"nonpayable"},{"type":"function","name":"createCallingFunction","inputs":[{"name":"policyId","type":"uint256","internalType":"uint256"},{"name":"functionSignature","type":"bytes4","internalType":"bytes4"},{"name":"pTypes","type":"uint8[]","internalType":"enum ParamTypes[]"},{"name":"callingFunctionName","type":"string","internalType":"string"},{"name":"encodedValues","type":"string","internalType":"string"}],"outputs":[{"name":"","type":"bytes4","internalType":"bytes4"}],"stateMutability":"nonpayable"},{"type":"function","name":"createMappedTracker","inputs":[{"name":"policyId","type":"uint256","internalType":"uint256"},{"name":"tracker","type":"tuple","internalType":"struct Trackers","components":[{"name":"set","type":"bool","internalType":"bool"},{"name":"pType","type":"uint8","internalType":"enum ParamTypes"},{"name":"mapped","type":"bool","internalType":"bool"},{"name":"trackerKeyType","type":"uint8","internalType":"enum ParamTypes"},{"name":"trackerValue","type":"bytes","internalType":"bytes"},{"name":"trackerIndex","type":"uint256","internalType":"uint256"}]},{"name":"trackerName","type":"string","internalType":"string"},{"name":"trackerKeys","type":"bytes[]","internalType":"bytes[]"},{"name":"trackerValues","type":"bytes[]","internalType":"bytes[]"},{"name":"arrayType","type":"uint8","internalType":"enum TrackerArrayTypes"}],"outputs":[{"name":"","type":"uint256","internalType":"uint256"}],"stateMutability":"nonpayable"},{"type":"function","name":"createTracker","inputs":[{"name":"policyId","type":"uint256","internalType":"uint256"},{"name":"tracker","type":"tuple","internalType":"struct Trackers","components":[{"name":"set","type":"bool","internalType":"bool"},{"name":"pType","type":"uint8","internalType":"enum ParamTypes"},{"name":"mapped","type":"bool","internalType":"bool"},{"name":"trackerKeyType","type":"uint8","internalType":"enum ParamTypes"},{"name":"trackerValue","type":"bytes","internalType":"bytes"},{"name":"trackerIndex","type":"uint256","internalType":"uint256"}]},{"name":"trackerName","type":"string","internalType":"string"},{"name":"arrayType","type":"uint8","internalType":"enum TrackerArrayTypes"}],"outputs":[{"name":"","type":"uint256","internalType":"uint256"}],"stateMutability":"nonpayable"},{"type":"function","name":"deleteCallingFunction","inputs":[{"name":"policyId","type":"uint256","internalType":"uint256"},{"name":"sig","type":"bytes4","internalType":"bytes4"}],"outputs":[],"stateMutability":"nonpayable"},{"type":"function","name":"deleteTracker","inputs":[{"name":"policyId","type":"uint256","internalType":"uint256"},{"name":"trackerIndex","type":"uint256","internalType":"uint256"}],"outputs":[],"stateMutability":"nonpayable"},{"type":"function","name":"getAllCallingFunctions","inputs":[{"name":"policyId","type":"uint256","internalType":"uint256"}],"outputs":[{"name":"","type":"tuple[]","internalType":"struct CallingFunctionStorageSet[]","components":[{"name":"set","type":"bool","internalType":"bool"},{"name":"signature","type":"bytes4","internalType":"bytes4"},{"name":"parameterTypes","type":"uint8[]","internalType":"enum ParamTypes[]"}]}],"stateMutability":"view"},{"type":"function","name":"getAllTrackers","inputs":[{"name":"policyId","type":"uint256","internalType":"uint256"}],"outputs":[{"name":"","type":"tuple[]","internalType":"struct Trackers[]","components":[{"name":"set","type":"bool","internalType":"bool"},{"name":"pType","type":"uint8","internalType":"enum ParamTypes"},{"name":"mapped","type":"bool","internalType":"bool"},{"name":"trackerKeyType","type":"uint8","internalType":"enum ParamTypes"},{"name":"trackerValue","type":"bytes","internalType":"bytes"},{"name":"trackerIndex","type":"uint256","internalType":"uint256"}]}],"stateMutability":"view"},{"type":"function","name":"getCallingFunction","inputs":[{"name":"policyId","type":"uint256","internalType":"uint256"},{"name":"sig","type":"bytes4","internalType":"bytes4"}],"outputs":[{"name":"","type":"tuple","internalType":"struct CallingFunctionStorageSet","components":[{"name":"set","type":"bool","internalType":"bool"},{"name":"signature","type":"bytes4","internalType":"bytes4"},{"name":"parameterTypes","type":"uint8[]","internalType":"enum ParamTypes[]"}]}],"stateMutability":"view"},{"type":"function","name":"getCallingFunctionMetadata","inputs":[{"name":"policyId","type":"uint256","internalType":"uint256"},{"name":"sig","type":"bytes4","internalType":"bytes4"}],"outputs":[{"name":"","type":"tuple","internalType":"struct CallingFunctionHashMapping","components":[{"name":"callingFunction","type":"string","internalType":"string"},{"name":"signature","type":"bytes4","internalType":"bytes4"},{"name":"encodedValues","type":"string","internalType":"string"}]}],"stateMutability":"view"},{"type":"function","name":"getMappedTrackerValue","inputs":[{"name":"policyId","type":"uint256","internalType":"uint256"},{"name":"index","type":"uint256","internalType":"uint256"},{"name":"trackerKey","type":"bytes","internalType":"bytes"}],"outputs":[{"name":"","type":"bytes","internalType":"bytes"}],"stateMutability":"view"},{"type":"function","name":"getTracker","inputs":[{"name":"policyId","type":"uint256","internalType":"uint256"},{"name":"index","type":"uint256","internalType":"uint256"}],"outputs":[{"name":"","type":"tuple","internalType":"struct Trackers","components":[{"name":"set","type":"bool","internalType":"bool"},{"name":"pType","type":"uint8","internalType":"enum ParamTypes"},{"name":"mapped","type":"bool","internalType":"bool"},{"name":"trackerKeyType","type":"uint8","internalType":"enum ParamTypes"},{"name":"trackerValue","type":"bytes","internalType":"bytes"},{"name":"trackerIndex","type":"uint256","internalType":"uint256"}]}],"stateMutability":"view"},{"type":"function","name":"getTrackerMetadata","inputs":[{"name":"policyId","type":"uint256","internalType":"uint256"},{"name":"trackerId","type":"uint256","internalType":"uint256"}],"outputs":[{"name":"","type":"tuple","internalType":"struct TrackerMetadataStruct","components":[{"name":"trackerName","type":"string","internalType":"string"},{"name":"initialValue","type":"bytes","internalType":"bytes"},{"name":"initialKeys","type":"bytes[]","internalType":"bytes[]"},{"name":"initialValues","type":"bytes[]","internalType":"bytes[]"},{"name":"arrayType","type":"uint8","internalType":"enum TrackerArrayTypes"}]}],"stateMutability":"view"},{"type":"function","name":"getTrackerToRuleIds","inputs":[{"name":"policyId","type":"uint256","internalType":"uint256"},{"name":"trackerIndex","type":"uint256","internalType":"uint256"}],"outputs":[{"name":"","type":"uint256[]","internalType":"uint256[]"}],"stateMutability":"view"},{"type":"function","name":"isClosedPolicySubscriber","inputs":[{"name":"policyId","type":"uint256","internalType":"uint256"},{"name":"subscriber","type":"address","internalType":"address"}],"outputs":[{"name":"","type":"bool","internalType":"bool"}],"stateMutability":"view"},{"type":"function","name":"removeClosedPolicySubscriber","inputs":[{"name":"policyId","type":"uint256","internalType":"uint256"},{"name":"subscriber","type":"address","internalType":"address"}],"outputs":[],"stateMutability":"nonpayable"},{"type":"function","name":"updateCallingFunction","inputs":[{"name":"policyId","type":"uint256","internalType":"uint256"},{"name":"functionSignature","type":"bytes4","internalType":"bytes4"},{"name":"pTypes","type":"uint8[]","internalType":"enum ParamTypes[]"}],"outputs":[{"name":"","type":"bytes4","internalType":"bytes4"}],"stateMutability":"nonpayable"},{"type":"function","name":"updateTracker","inputs":[{"name":"_policyId","type":"uint256","internalType":"uint256"},{"name":"_trackerIndex","type":"uint256","internalType":"uint256"},{"name":"_tracker","type":"tuple","internalType":"struct Trackers","components":[{"name":"set","type":"bool","internalType":"bool"},{"name":"pType","type":"uint8","internalType":"enum ParamTypes"},{"name":"mapped","type":"bool","internalType":"bool"},{"name":"trackerKeyType","type":"uint8","internalType":"enum ParamTypes"},{"name":"trackerValue","type":"bytes","internalType":"bytes"},{"name":"trackerIndex","type":"uint256","internalType":"uint256"}]},{"name":"_trackerKey","type":"bytes","internalType":"bytes"},{"name":"_trackerValue","type":"bytes","internalType":"bytes"}],"outputs":[],"stateMutability":"nonpayable"},{"type":"function","name":"updateTracker","inputs":[{"name":"policyId","type":"uint256","internalType":"uint256"},{"name":"trackerIndex","type":"uint256","internalType":"uint256"},{"name":"tracker","type":"tuple","internalType":"struct Trackers","components":[{"name":"set","type":"bool","internalType":"bool"},{"name":"pType","type":"uint8","internalType":"enum ParamTypes"},{"name":"mapped","type":"bool","internalType":"bool"},{"name":"trackerKeyType","type":"uint8","internalType":"enum ParamTypes"},{"name":"trackerValue","type":"bytes","internalType":"bytes"},{"name":"trackerIndex","type":"uint256","internalType":"uint256"}]}],"outputs":[],"stateMutability":"nonpayable"},{"type":"event","name":"AssociatedRuleDeleted","inputs":[{"name":"policyId","type":"uint256","indexed":true,"internalType":"uint256"},{"name":"callingFunctionSelector","type":"bytes4","indexed":true,"internalType":"bytes4"}],"anonymous":false},{"type":"event","name":"CallingFunctionCreated","inputs":[{"name":"policyId","type":"uint256","indexed":true,"internalType":"uint256"},{"name":"callingFunctionSelector","type":"bytes4","indexed":true,"internalType":"bytes4"}],"anonymous":false},{"type":"event","name":"CallingFunctionDeleted","inputs":[{"name":"policyId","type":"uint256","indexed":true,"internalType":"uint256"},{"name":"callingFunctionSelector","type":"bytes4","indexed":true,"internalType":"bytes4"}],"anonymous":false},{"type":"event","name":"CallingFunctionUpdated","inputs":[{"name":"policyId","type":"uint256","indexed":true,"internalType":"uint256"},{"name":"callingFunctionSelector","type":"bytes4","indexed":true,"internalType":"bytes4"}],"anonymous":false},{"type":"event","name":"PolicySubsciberAdded","inputs":[{"name":"policyId","type":"uint256","indexed":true,"internalType":"uint256"},{"name":"subscriber","type":"address","indexed":true,"internalType":"address"}],"anonymous":false},{"type":"event","name":"PolicySubsciberRemoved","inputs":[{"name":"policyId","type":"uint256","indexed":true,"internalType":"uint256"},{"name":"subscriber","type":"address","indexed":true,"internalType":"address"}],"anonymous":false},{"type":"event","name":"TrackerCreated","inputs":[{"name":"policyId","type":"uint256","indexed":true,"internalType":"uint256"},{"name":"trackerId","type":"uint256","indexed":true,"internalType":"uint256"}],"anonymous":false},{"type":"event","name":"TrackerDeleted","inputs":[{"name":"policyId","type":"uint256","indexed":true,"internalType":"uint256"},{"name":"trackerId","type":"uint256","indexed":true,"internalType":"uint256"}],"anonymous":false},{"type":"event","name":"TrackerUpdated","inputs":[{"name":"policyId","type":"uint256","indexed":true,"internalType":"uint256"},{"name":"trackerId","type":"uint256","indexed":true,"internalType":"uint256"}],"anonymous":false}],"bytecode":{"object":"0x6080604052348015600e575f5ffd5b50614edb8061001c5f395ff3fe608060405234801561000f575f5ffd5b5060043610610149575f3560e01c80637b7fe810116100c7578063d28b84c51161007d578063f3e7dfc311610063578063f3e7dfc314610332578063f479c99414610352578063febf8f9214610365575f5ffd5b8063d28b84c5146102ff578063f1073d991461031f575f5ffd5b80639f9fa719116100ad5780639f9fa719146102b9578063a82c9e07146102d9578063b0955878146102ec575f5ffd5b80637b7fe81014610278578063965d884c14610298575f5ffd5b806356f3b05f1161011c57806372a340d71161010257806372a340d7146102015780637374c99414610221578063784dfa4614610234575f5ffd5b806356f3b05f146101c15780636355ed0b146101e1575f5ffd5b806305be27871461014d5780632711fe6b146101625780633bf07314146101755780634c957ad91461019e575b5f5ffd5b61016061015b366004613e18565b610378565b005b610160610170366004613e42565b6109a2565b610188610183366004613e88565b610ada565b6040516101959190613f8d565b60405180910390f35b6101b16101ac366004613e42565b610e0c565b6040519015158152602001610195565b6101d46101cf366004614083565b610e52565b6040516101959190614114565b6101f46101ef366004613e88565b6110be565b6040516101959190614195565b61021461020f366004613e88565b611136565b60405161019591906141cc565b61016061022f366004613e42565b6112bd565b61024761024236600461432c565b6113e4565b6040517fffffffff000000000000000000000000000000000000000000000000000000009091168152602001610195565b61028b610286366004613e18565b6116c9565b604051610195919061437f565b6102ab6102a6366004614473565b611888565b604051908152602001610195565b6102cc6102c7366004614587565b611a5b565b60405161019591906145c9565b6101606102e7366004613e88565b611bb9565b6102476102fa3660046145db565b611c5c565b61031261030d366004613e18565b611dd9565b6040516101959190614701565b6102ab61032d366004614754565b611ee1565b610345610340366004614083565b612149565b6040516101959190614835565b6101606103603660046148aa565b612423565b610160610373366004614956565b61254e565b610382823361260c565b61038b8261276a565b5f6103946127f9565b5f8481526001919091016020526040902090506103af612826565b5f848152602091825260408082207fffffffff000000000000000000000000000000000000000000000000000000008616835290925290812080547fffffffffffffffffffffffffffffffffffffffffffffffffffffff00000000001681559061041c6001830182613b14565b50507fffffffff0000000000000000000000000000000000000000000000000000000082165f90815260018201602090815260408083208054825181850281018501909352808352919290919083018282801561049657602002820191905f5260205f20905b815481526020019060010190808311610482575b509394505f93505050505b815181101561078f575f8282815181106104bd576104bd614998565b602002602001015190505f5f90505f8560010160010180548060200260200160405190810160405280929190818152602001828054801561055c57602002820191905f5260205f20905f905b82829054906101000a900460e01b7bffffffffffffffffffffffffffffffffffffffffffffffffffffffff1916815260200190600401906020826003010492830192600103820291508084116105095790505b509394505f93505050505b815181108015610575575082155b15610667575f82828151811061058d5761058d614998565b60200260200101519050887bffffffffffffffffffffffffffffffffffffffffffffffffffffffff1916817bffffffffffffffffffffffffffffffffffffffffffffffffffffffff1916036105e25750610655565b7fffffffff0000000000000000000000000000000000000000000000000000000081165f9081526001890160205260408120905b8154811015610651578682828154811061063257610632614998565b905f5260205f200154036106495760019550610651565b600101610616565b5050505b8061065f816149f2565b915050610567565b508161078457610675612853565b5f898152600191820160209081526040808320878452909152812080547fffffffffffffffffffffffffffffffffffffffffffffffffffffffffffffff00168155918201816106c48282613b36565b600182015f6106d38282613b36565b6106e0600183015f613b14565b6106ed600283015f613b51565b506106fd9050600483015f613b6c565b61070a600583015f613b6c565b610717600683015f613b6c565b610724600783015f613b87565b610731600883015f613b87565b50506040517fffffffff000000000000000000000000000000000000000000000000000000008a1692508a91507f871ab12e2607c810d166f513320768d10b6754400a5ec777b382a4d2faf0058f905f90a35b5050506001016104a1565b507fffffffff0000000000000000000000000000000000000000000000000000000083165f90815260018301602052604081206107cb91613b36565b5f5b600283015481101561094d57837bffffffffffffffffffffffffffffffffffffffffffffffffffffffff191683600101600101828154811061081157610811614998565b905f5260205f2090600891828204019190066004029054906101000a900460e01b7bffffffffffffffffffffffffffffffffffffffffffffffffffffffff1916036109455760028301805461086890600190614a29565b8154811061087857610878614998565b905f5260205f2090600891828204019190066004029054906101000a900460e01b8360010160010182815481106108b1576108b1614998565b905f5260205f2090600891828204019190066004026101000a81548163ffffffff021916908360e01c0217905550826001016001018054806108f5576108f5614a3c565b5f8281526020902060087fffffffffffffffffffffffffffffffffffffffffffffffffffffffffffffffff90920191820401805463ffffffff600460078516026101000a0219169055905561094d565b6001016107cd565b506040517fffffffff0000000000000000000000000000000000000000000000000000000084169085907f5a2f4ffcbb6125bac40b498c2d16b904bba6ea8752f82b39f00be8243b96ff58905f90a350505050565b6109ac823361260c565b6109b58261276a565b73ffffffffffffffffffffffffffffffffffffffff8116610a3e57604080518082018252601c81527f5a65726f20416464726573732043616e6e6f742042652041646d696e00000000602082015290517f08c379a0000000000000000000000000000000000000000000000000000000008152610a3591906004016145c9565b60405180910390fd5b6001610a486127f9565b5f8481526001919091016020908152604080832073ffffffffffffffffffffffffffffffffffffffff8616808552600490910190925280832080547fffffffffffffffffffffffffffffffffffffffffffffffffffffffffffffff001694151594909417909355915184917f790a3138425334d31f4463869c596f58d51e891ecb665b5090fa0ae9ed8b6fd291a35050565b610ae2613ba5565b610aea612880565b5f84815260209182526040808220858352909252819020815160a08101909252805482908290610b1990614a69565b80601f0160208091040260200160405190810160405280929190818152602001828054610b4590614a69565b8015610b905780601f10610b6757610100808354040283529160200191610b90565b820191905f5260205f20905b815481529060010190602001808311610b7357829003601f168201915b50505050508152602001600182018054610ba990614a69565b80601f0160208091040260200160405190810160405280929190818152602001828054610bd590614a69565b8015610c205780601f10610bf757610100808354040283529160200191610c20565b820191905f5260205f20905b815481529060010190602001808311610c0357829003601f168201915b5050505050815260200160028201805480602002602001604051908101604052809291908181526020015f905b82821015610cf5578382905f5260205f20018054610c6a90614a69565b80601f0160208091040260200160405190810160405280929190818152602001828054610c9690614a69565b8015610ce15780601f10610cb857610100808354040283529160200191610ce1565b820191905f5260205f20905b815481529060010190602001808311610cc457829003601f168201915b505050505081526020019060010190610c4d565b50505050815260200160038201805480602002602001604051908101604052809291908181526020015f905b82821015610dc9578382905f5260205f20018054610d3e90614a69565b80601f0160208091040260200160405190810160405280929190818152602001828054610d6a90614a69565b8015610db55780601f10610d8c57610100808354040283529160200191610db5565b820191905f5260205f20905b815481529060010190602001808311610d9857829003601f168201915b505050505081526020019060010190610d21565b50505090825250600482015460209091019060ff166005811115610def57610def613f60565b6005811115610e0057610e00613f60565b90525090505b92915050565b5f610e156127f9565b5f9384526001016020908152604080852073ffffffffffffffffffffffffffffffffffffffff949094168552600490930190525090205460ff1690565b60605f610e5d6128ad565b5f848152602082905260408120549192508167ffffffffffffffff811115610e8757610e876141e5565b604051908082528060200260200182016040528015610f0357816020015b6040805160c0810182525f80825260208083018290529282018190526060808301829052608083015260a082015282527fffffffffffffffffffffffffffffffffffffffffffffffffffffffffffffffff909201910181610ea55790505b5090505f60015b8381116110b3575f878152600186016020908152604080832084845290915290205460ff16156110a1575f8781526001860160209081526040808320848452825291829020825160c08101909352805460ff808216151585529192840191610100909104166007811115610f8057610f80613f60565b6007811115610f9157610f91613f60565b8152815460ff6201000082048116151560208401526040909201916301000000909104166007811115610fc657610fc6613f60565b6007811115610fd757610fd7613f60565b8152602001600182018054610feb90614a69565b80601f016020809104026020016040519081016040528092919081815260200182805461101790614a69565b80156110625780601f1061103957610100808354040283529160200191611062565b820191905f5260205f20905b81548152906001019060200180831161104557829003601f168201915b5050505050815260200160028201548152505083838151811061108757611087614998565b6020026020010181905250818061109d906149f2565b9250505b806110ab816149f2565b915050610f0a565b509095945050505050565b60605f6110c96128ad565b5f8581526003820160209081526040808320878452825291829020805483518184028101840190945280845293945091929083018282801561112857602002820191905f5260205f20905b815481526020019060010190808311611114575b505050505091505092915050565b6040805160c0810182525f808252602082018190529181018290526060808201839052608082015260a081018290529061116e6128ad565b5f8581526001820160209081526040808320878452825291829020825160c08101909352805460ff80821615158552949550929390929184019161010090041660078111156111bf576111bf613f60565b60078111156111d0576111d0613f60565b8152815460ff620100008204811615156020840152604090920191630100000090910416600781111561120557611205613f60565b600781111561121657611216613f60565b815260200160018201805461122a90614a69565b80601f016020809104026020016040519081016040528092919081815260200182805461125690614a69565b80156112a15780601f10611278576101008083540402835291602001916112a1565b820191905f5260205f20905b81548152906001019060200180831161128457829003601f168201915b5050505050815260200160028201548152505091505092915050565b6112c7823361260c565b6112d08261276a565b73ffffffffffffffffffffffffffffffffffffffff811661135057604080518082018252601c81527f5a65726f20416464726573732043616e6e6f742042652041646d696e00000000602082015290517f08c379a0000000000000000000000000000000000000000000000000000000008152610a3591906004016145c9565b6113586127f9565b5f8381526001919091016020908152604080832073ffffffffffffffffffffffffffffffffffffffff8516808552600490910190925280832080547fffffffffffffffffffffffffffffffffffffffffffffffffffffffffffffff0016905551909184917febc594f3b2a99e6227cfcc8bd404d054b6cc3dad7f287e1944cb88681a05c14c9190a35050565b5f6113ef843361260c565b6113f88461276a565b5f611401612826565b5f868152602082815260408083207fffffffff000000000000000000000000000000000000000000000000000000008916845282529182902080548351808501909452601884527f43616c6c696e672066756e6374696f6e206e6f742073657400000000000000009284019290925292935060ff166114ad576040517f08c379a0000000000000000000000000000000000000000000000000000000008152600401610a3591906145c9565b50835181600101805490501115604051806080016040528060468152602001614e02604691399061150b576040517f08c379a0000000000000000000000000000000000000000000000000000000008152600401610a3591906145c9565b505f5b60018201548110156115e45781600101818154811061152f5761152f614998565b905f5260205f2090602091828204019190069054906101000a900460ff16600781111561155e5761155e613f60565b85828151811061157057611570614998565b6020026020010151600781111561158957611589613f60565b146040518060600160405280603c8152602001614e6a603c9139906115db576040517f08c379a0000000000000000000000000000000000000000000000000000000008152600401610a3591906145c9565b5060010161150e565b508351600182015410156116715760018101545b845181101561166f578160010185828151811061161757611617614998565b60209081029190910181015182546001810184555f9384529282902091830490910180549192909160ff601f9092166101000a91820219169083600781111561166257611662613f60565b02179055506001016115f8565b505b6040517fffffffff0000000000000000000000000000000000000000000000000000000086169087907fe71d4b3e2c5b7fa564a42ed19ae98cb606291c8d4d431a6058c189304b4df40d905f90a35092949350505050565b60408051606080820183528082525f6020830152918101919091526116ec6128da565b5f848152602091825260408082207fffffffff000000000000000000000000000000000000000000000000000000008616835290925281902081516060810190925280548290829061173d90614a69565b80601f016020809104026020016040519081016040528092919081815260200182805461176990614a69565b80156117b45780601f1061178b576101008083540402835291602001916117b4565b820191905f5260205f20905b81548152906001019060200180831161179757829003601f168201915b5050509183525050600182015460e01b7fffffffff0000000000000000000000000000000000000000000000000000000016602082015260028201805460409092019161180090614a69565b80601f016020809104026020016040519081016040528092919081815260200182805461182c90614a69565b80156118775780601f1061184e57610100808354040283529160200191611877565b820191905f5260205f20905b81548152906001019060200180831161185a57829003601f168201915b505050505081525050905092915050565b5f611893863361260c565b61189c8661276a565b6118ac6060860160408701614ac3565b1561191657604080518082018252600c81527f496e76616c696420747970650000000000000000000000000000000000000000602082015290517f08c379a0000000000000000000000000000000000000000000000000000000008152610a3591906004016145c9565b60066119286040870160208801614adc565b600781111561193957611939613f60565b1480611965575060076119526040870160208801614adc565b600781111561196357611963613f60565b145b801561198157505f82600581111561197f5761197f613f60565b145b156119eb57604080518082018252600c81527f496e76616c696420747970650000000000000000000000000000000000000000602082015290517f08c379a0000000000000000000000000000000000000000000000000000000008152610a3591906004016145c9565b6119f485612907565b5f6119fe87612bf1565b9050611a0b878288612c23565b611a2587828787611a1f60808c018c614af5565b89612c43565b604051819088907f1ea0bdfd9680c9b8e4038e41083d7800dca81e6f55a15ce48d858ebb70693d2a905f90a39695505050505050565b60605f611a666128ad565b5f86815260018201602090815260408083208884529091529020549091506301000000900460ff166005816007811115611aa257611aa2613f60565b1480611abf57506001816007811115611abd57611abd613f60565b145b15611af0578380519060200120604051602001611ade91815260200190565b60405160208183030381529060405293505b5f8681526002830160209081526040808320888452909152908190209051611b19908690614b56565b90815260200160405180910390208054611b3290614a69565b80601f0160208091040260200160405190810160405280929190818152602001828054611b5e90614a69565b8015611ba95780601f10611b8057610100808354040283529160200191611ba9565b820191905f5260205f20905b815481529060010190602001808311611b8c57829003601f168201915b5050505050925050509392505050565b611bc3823361260c565b611bcc8261276a565b611bd46128ad565b5f838152600191820160209081526040808320858452909152812080547fffffffffffffffffffffffffffffffffffffffffffffffffffffffff0000000016815591611c2290830182613be3565b600282015f9055505080827ed9d817df2d853a886f2cbe7a671a676890264711abbb9d2c3ee79fb1bb653a60405160405180910390a35050565b5f611c67863361260c565b611c708661276a565b611c786127f9565b5f878152600191909101602052604090205460ff16611cf657604080518082018252601581527f506f6c69637920646f6573206e6f742065786973740000000000000000000000602082015290517f08c379a0000000000000000000000000000000000000000000000000000000008152610a3591906004016145c9565b611d008686612e69565b15611d6a57604080518082018252601f81527f63616c6c696e672066756e6374696f6e20616c72656164792065786973747300602082015290517f08c379a0000000000000000000000000000000000000000000000000000000008152610a3591906004016145c9565b611d75868686612eb4565b611d8186868585613004565b6040517fffffffff0000000000000000000000000000000000000000000000000000000086169087907fe186f48ef756b0f5068a64ecfb81451f9b4fc2058e0ff0483fee68200d8e513e905f90a35092949350505050565b60408051606080820183525f808352602083015291810191909152611dfc612826565b5f848152602091825260408082207fffffffff000000000000000000000000000000000000000000000000000000008087168452908452918190208151606081018352815460ff811615158252610100900460e01b90931683850152600181018054835181870281018701855281815294959294938601939283018282801561187757602002820191905f5260205f20905f905b82829054906101000a900460ff166007811115611eaf57611eaf613f60565b815260206001928301818104948501949093039092029101808411611e90579050505050505081525050905092915050565b5f611eec8a3361260c565b611ef58a61276a565b611f0560608a0160408b01614ac3565b611f6e57604080518082018252600c81527f496e76616c696420747970650000000000000000000000000000000000000000602082015290517f08c379a0000000000000000000000000000000000000000000000000000000008152610a3591906004016145c9565b6006611f8060408b0160208c01614adc565b6007811115611f9157611f91613f60565b1480611fbd57506007611faa60408b0160208c01614adc565b6007811115611fbb57611fbb613f60565b145b8015611fd957505f826005811115611fd757611fd7613f60565b145b1561204357604080518082018252600c81527f496e76616c696420747970650000000000000000000000000000000000000000602082015290517f08c379a0000000000000000000000000000000000000000000000000000000008152610a3591906004016145c9565b61204c89612907565b84831461209f57604051806060016040528060318152602001614dd1603191396040517f08c379a0000000000000000000000000000000000000000000000000000000008152600401610a3591906145c9565b5f6120a86128ad565b5f8c8152602091909152604090205490506120c28b612bf1565b90505f5b86811015612129576121218c838d8b8b868181106120e6576120e6614998565b90506020028101906120f89190614af5565b8b8b8881811061210a5761210a614998565b905060200281019061211c9190614af5565b613170565b6001016120c6565b5061213b8b828b8b8b8b8b8b8b613194565b9a9950505050505050505050565b60605f612154612826565b90505f61215f6127f9565b5f8581526001919091016020908152604091829020600201805483518184028101840190945280845290918301828280156121f857602002820191905f5260205f20905f905b82829054906101000a900460e01b7bffffffffffffffffffffffffffffffffffffffffffffffffffffffff1916815260200190600401906020826003010492830192600103820291508084116121a55790505b505050505090505f815190505f8167ffffffffffffffff81111561221e5761221e6141e5565b60405190808252806020026020018201604052801561226a57816020015b60408051606080820183525f80835260208301529181019190915281526020019060019003908161223c5790505b5090505f805b83811015612417575f888152602087905260408120865190919087908490811061229c5761229c614998565b6020908102919091018101517fffffffff000000000000000000000000000000000000000000000000000000001682528101919091526040015f205460ff161561240f575f888152602087905260408120865190919087908490811061230457612304614998565b6020908102919091018101517fffffffff0000000000000000000000000000000000000000000000000000000090811683528282019390935260409182015f208251606081018452815460ff811615158252610100900460e01b90941684830152600181018054845181850281018501865281815292948601938301828280156123da57602002820191905f5260205f20905f905b82829054906101000a900460ff1660078111156123b8576123b8613f60565b8152602060019283018181049485019490930390920291018084116123995790505b5050505050815250508383815181106123f5576123f5614998565b6020026020010181905250818061240b906149f2565b9250505b600101612270565b50909695505050505050565b61242d873361260c565b6124368761276a565b5f61243f6128ad565b905061244b88886133a2565b61249b57604051806060016040528060228152602001614e48602291396040517f08c379a0000000000000000000000000000000000000000000000000000000008152600401610a3591906145c9565b6125188189896124aa8a614b6c565b89898080601f0160208091040260200160405190810160405280939291908181526020018383808284375f9201919091525050604080516020601f8d018190048102820181019092528b815292508b91508a90819084018382808284375f920191909152506133cc92505050565b604051879089907f7d0cd6a27b5d0487bca14f5b3852217db2c9951f3ad91646fe09e0c19abcef50905f90a35050505050505050565b612558833361260c565b6125618361276a565b61256b83836133a2565b6125bb57604051806060016040528060228152602001614e48602291396040517f08c379a0000000000000000000000000000000000000000000000000000000008152600401610a3591906145c9565b5f6125c46128ad565b90506125da8185856125d586614b6c565b6136e6565b604051839085907f7d0cd6a27b5d0487bca14f5b3852217db2c9951f3ad91646fe09e0c19abcef50905f90a350505050565b6040516024810183905273ffffffffffffffffffffffffffffffffffffffff821660448201525f9081906126da907f901cee110000000000000000000000000000000000000000000000000000000090606401604080517fffffffffffffffffffffffffffffffffffffffffffffffffffffffffffffffe08184030181529190526020810180517bffffffffffffffffffffffffffffffffffffffffffffffffffffffff167f901cee1100000000000000000000000000000000000000000000000000000000179052613973565b915091505f82156127635760048251106126f9575060208101516126fc565b505f5b80612763576040517f08c379a000000000000000000000000000000000000000000000000000000000815260206004820152601860248201527f4e6f7420417574686f72697a656420546f20506f6c69637900000000000000006044820152606401610a35565b5050505050565b6127726127f9565b5f8281526001919091016020526040902060030154610100900460ff16156127f6576040517f08c379a000000000000000000000000000000000000000000000000000000000815260206004820152601f60248201527f4e6f7420616c6c6f77656420666f722063656d656e74656420706f6c696379006044820152606401610a35565b50565b5f80610e0660017ff9dbd639dd2ea165d77dd4c51dec420100d51ceacf023b1c40faa045ba8f9a65614a29565b5f80610e0660017fdc82e9666de28bef254c770aa394fdb200d98373b70390c27adec32819f8f266614a29565b5f80610e0660017f5c91f63a4ffcbd372b8ec622fd1fcaaa601b66330afdb30e5c292dd9123f20b0614a29565b5f80610e0660017fc6d0732f7ed4c7ec3d1a6580f5e91e95dcc3d159872b5f4e9d9b8e65d3b720f2614a29565b5f80610e0660017f438102ff677bc3f21830c58117a05d6b953b31e3ea339da3f17957cd3941a690614a29565b5f80610e0660017fb88f46389dea4b934f6c24412aa4a67e6afeeee9cd7e06827b5b8f09c0e7d7ea614a29565b60016129196040830160208401614adc565b600781111561292a5761292a613f60565b1480612956575060026129436040830160208401614adc565b600781111561295457612954613f60565b145b806129815750600361296e6040830160208401614adc565b600781111561297f5761297f613f60565b145b806129ac575060056129996040830160208401614adc565b60078111156129aa576129aa613f60565b145b806129d657505f6129c36040830160208401614adc565b60078111156129d4576129d4613f60565b145b80612a01575060066129ee6040830160208401614adc565b60078111156129ff576129ff613f60565b145b80612a2c57506007612a196040830160208401614adc565b6007811115612a2a57612a2a613f60565b145b6040518060400160405280600c81526020017f496e76616c69642074797065000000000000000000000000000000000000000081525090612a9a576040517f08c379a0000000000000000000000000000000000000000000000000000000008152600401610a3591906145c9565b50612aab6060820160408301614ac3565b156127f6576001612ac26080830160608401614adc565b6007811115612ad357612ad3613f60565b1480612aff57506002612aec6080830160608401614adc565b6007811115612afd57612afd613f60565b145b80612b2a57506003612b176080830160608401614adc565b6007811115612b2857612b28613f60565b145b80612b5557506005612b426080830160608401614adc565b6007811115612b5357612b53613f60565b145b80612b7f57505f612b6c6080830160608401614adc565b6007811115612b7d57612b7d613f60565b145b6040518060400160405280601881526020017f496e76616c696420747261636b6572206b65792074797065000000000000000081525090612bed576040517f08c379a0000000000000000000000000000000000000000000000000000000008152600401610a3591906145c9565b5050565b5f5f612bfb6128ad565b5f848152602082905260408120805492935091612c17906149f2565b91829055509392505050565b5f612c2c6128ad565b9050612c3d8185856125d586614b6c565b50505050565b604080516020810182525f9052517fc5d2460186f7233c927e7db2dcc703c0e500b653ca82273b7bfad8045d85a47090612c809087908790614bfe565b604051809103902014156040518060400160405280601081526020017f4e616d652069732072657175697265640000000000000000000000000000000081525090612cf8576040517f08c379a0000000000000000000000000000000000000000000000000000000008152600401610a3591906145c9565b50612d01613ba5565b85858080601f0160208091040260200160405190810160405280939291908181526020018383808284375f92019190915250505090825250604080516020601f86018190048102820181019092528481529085908590819084018382808284375f92019190915250505050602082015260808101826005811115612d8757612d87613f60565b90816005811115612d9a57612d9a613f60565b90525080612da6612880565b5f8a8152602091825260408082208b83529092522081518190612dc99082614c56565b5060208201516001820190612dde9082614c56565b5060408201518051612dfa916002840191602090910190613c1a565b5060608201518051612e16916003840191602090910190613c1a565b5060808201516004820180547fffffffffffffffffffffffffffffffffffffffffffffffffffffffffffffff00166001836005811115612e5857612e58613f60565b021790555050505050505050505050565b5f612e72612826565b5f938452602090815260408085207fffffffff000000000000000000000000000000000000000000000000000000009490941685529290525090205460ff1690565b60408051602081019091525f90527fffffffff0000000000000000000000000000000000000000000000000000000082167fc5d246010000000000000000000000000000000000000000000000000000000003612f7057604080518082018252601e81527f46756e6374696f6e207369676e61747572652069732072657175697265640000602082015290517f08c379a0000000000000000000000000000000000000000000000000000000008152610a3591906004016145c9565b612f7981613a34565b5f612f82612826565b5f858152602082815260408083207fffffffff00000000000000000000000000000000000000000000000000000000881684528252909120805460017fffffffffffffffffffffffffffffffffffffffffffffffffffffff000000000090911661010060e089901c021781178255855193945061276393910191850190613c6e565b6040805160208082019092525f90528251908301207f3a2db9fe7908dcc36d81824d2338fc3f1aff49ac357dd8c4840527fba27a5b90016130a457604080518082018252601081527f4e616d6520697320726571756972656400000000000000000000000000000000602082015290517f08c379a0000000000000000000000000000000000000000000000000000000008152610a3591906004016145c9565b5f6130ad6128da565b5f868152602082815260408083207fffffffff000000000000000000000000000000000000000000000000000000008916845290915290209091506130f28482614c56565b505f858152602082815260408083207fffffffff000000000000000000000000000000000000000000000000000000008816845290915290206001810180547fffffffffffffffffffffffffffffffffffffffffffffffffffffffff000000001660e087901c1790556002016131688382614c56565b505050505050565b5f6131796128ad565b905061318a8189896124aa8a614b6c565b5050505050505050565b604080516020810182525f9052517fc5d2460186f7233c927e7db2dcc703c0e500b653ca82273b7bfad8045d85a470906131d19089908990614bfe565b604051809103902014156040518060400160405280601081526020017f4e616d652069732072657175697265640000000000000000000000000000000081525090613249576040517f08c379a0000000000000000000000000000000000000000000000000000000008152600401610a3591906145c9565b50613252613ba5565b87878080601f0160208091040260200160405190810160405280939291908181526020018383808284375f920191909152505050908252506132948587614d6d565b60408201526132a38385614d6d565b6060820152608081018260058111156132be576132be613f60565b908160058111156132d1576132d1613f60565b905250806132dd612880565b5f8c8152602091825260408082208d835290925220815181906133009082614c56565b50602082015160018201906133159082614c56565b5060408201518051613331916002840191602090910190613c1a565b506060820151805161334d916003840191602090910190613c1a565b5060808201516004820180547fffffffffffffffffffffffffffffffffffffffffffffffffffffffffffffff0016600183600581111561338f5761338f613f60565b0217905550505050505050505050505050565b5f6133ab6128ad565b5f938452600101602090815260408085209385529290525090205460ff1690565b60408051808201909152601481527f4d617820747261636b65727320726561636865640000000000000000000000006020820152612710851061343c576040517f08c379a0000000000000000000000000000000000000000000000000000000008152600401610a3591906145c9565b506001604080850182905281855260a085018690525f878152918801602090815281832087845281529120845181549015157fffffffffffffffffffffffffffffffffffffffffffffffffffffffffffffff00821681178355928601518693909183917fffffffffffffffffffffffffffffffffffffffffffffffffffffffffffff00ff167fffffffffffffffffffffffffffffffffffffffffffffffffffffffffffff0000909116176101008360078111156134fb576134fb613f60565b02179055506040820151815490151562010000027fffffffffffffffffffffffffffffffffffffffffffffffffffffffffff00ffff82168117835560608401519183917fffffffffffffffffffffffffffffffffffffffffffffffffffffffff00ffffff167fffffffffffffffffffffffffffffffffffffffffffffffffffffffff0000ffff90911617630100000083600781111561359c5761359c613f60565b0217905550608082015160018201906135b59082614c56565b5060a091909101516002909101556005836060015160078111156135db576135db613f60565b14806135fc57506001836060015160078111156135fa576135fa613f60565b145b1561362d57818051906020012060405160200161361b91815260200190565b60405160208183030381529060405291505b60018360200151600781111561364557613645613f60565b1480613666575060058360200151600781111561366457613664613f60565b145b1561369757808051906020012060405160200161368591815260200190565b60405160208183030381529060405290505b5f85815260028701602090815260408083208784529091529081902090518291906136c3908590614b56565b908152602001604051809103902090816136dd9190614c56565b50505050505050565b60408051808201909152601481527f4d617820747261636b657273207265616368656400000000000000000000000060208201526127108310613756576040517f08c379a0000000000000000000000000000000000000000000000000000000008152600401610a3591906145c9565b5060018082525f604083015260a082018390528160200151600781111561377f5761377f613f60565b14806137a0575060058160200151600781111561379e5761379e613f60565b145b156137f757608081015180516020918201206040516137c3920190815260200190565b604080517fffffffffffffffffffffffffffffffffffffffffffffffffffffffffffffffe081840301815291905260808201525b5f83815260018501602090815260408083208584528252909120825181549015157fffffffffffffffffffffffffffffffffffffffffffffffffffffffffffffff00821681178355928401518493909183917fffffffffffffffffffffffffffffffffffffffffffffffffffffffffffff00ff167fffffffffffffffffffffffffffffffffffffffffffffffffffffffffffff0000909116176101008360078111156138a5576138a5613f60565b02179055506040820151815490151562010000027fffffffffffffffffffffffffffffffffffffffffffffffffffffffffff00ffff82168117835560608401519183917fffffffffffffffffffffffffffffffffffffffffffffffffffffffff00ffffff167fffffffffffffffffffffffffffffffffffffffffffffffffffffffff0000ffff90911617630100000083600781111561394657613946613f60565b02179055506080820151600182019061395f9082614c56565b5060a0820151816002015590505050505050565b5f60605f61397f613ae7565b7fffffffff0000000000000000000000000000000000000000000000000000000086165f908152602082905260409081902054905191925073ffffffffffffffffffffffffffffffffffffffff169081906139db908790614b56565b5f60405180830381855af49150503d805f8114613a13576040519150601f19603f3d011682016040523d82523d5f602084013e613a18565b606091505b50909450925083613a2b57825160208401fd5b50509250929050565b5f5b8151811015612bed57600860ff16828281518110613a5657613a56614998565b60200260200101516007811115613a6f57613a6f613f60565b106040518060400160405280600c81526020017f496e76616c69642074797065000000000000000000000000000000000000000081525090613ade576040517f08c379a0000000000000000000000000000000000000000000000000000000008152600401610a3591906145c9565b50600101613a36565b5f80610e0660017fbe498a3b14fd79a48c3c9af86ff14271ed497d09071013334028d28e7791db20614a29565b5080545f8255601f0160209004905f5260205f20908101906127f69190613d15565b5080545f8255905f5260205f20908101906127f69190613d15565b5080545f8255905f5260205f20908101906127f69190613d29565b5080545f8255905f5260205f20908101906127f69190613d45565b5080545f8255600502905f5260205f20908101906127f69190613d7c565b6040518060a00160405280606081526020016060815260200160608152602001606081526020015f6005811115613bde57613bde613f60565b905290565b508054613bef90614a69565b5f825580601f10613bfe575050565b601f0160209004905f5260205f20908101906127f69190613d15565b828054828255905f5260205f20908101928215613c5e579160200282015b82811115613c5e5782518290613c4e9082614c56565b5091602001919060010190613c38565b50613c6a929150613d29565b5090565b828054828255905f5260205f2090601f01602090048101928215613d0d579160200282015f5b83821115613cdf57835183826101000a81548160ff02191690836007811115613cbf57613cbf613f60565b021790555092602001926001016020815f01049283019260010302613c94565b8015613d0b5782816101000a81549060ff02191690556001016020815f01049283019260010302613cdf565b505b50613c6a9291505b5b80821115613c6a575f8155600101613d16565b80821115613c6a575f613d3c8282613be3565b50600101613d29565b5b80821115613c6a5780547fffffffffffffffffffffffffffff000000000000000000000000000000000000168155600101613d46565b80821115613c6a5780547fffffffffffffffffffffffffffffffffffffffffffffffffffffffff000000001681555f613db86001830182613be3565b600282015f9055600382015f613dce9190613be3565b613ddb600483015f613b36565b50600501613d7c565b80357fffffffff0000000000000000000000000000000000000000000000000000000081168114613e13575f5ffd5b919050565b5f5f60408385031215613e29575f5ffd5b82359150613e3960208401613de4565b90509250929050565b5f5f60408385031215613e53575f5ffd5b82359150602083013573ffffffffffffffffffffffffffffffffffffffff81168114613e7d575f5ffd5b809150509250929050565b5f5f60408385031215613e99575f5ffd5b50508035926020909101359150565b5f81518084528060208401602086015e5f6020828601015260207fffffffffffffffffffffffffffffffffffffffffffffffffffffffffffffffe0601f83011685010191505092915050565b5f82825180855260208501945060208160051b830101602085015f5b83811015612417577fffffffffffffffffffffffffffffffffffffffffffffffffffffffffffffffe0858403018852613f4a838351613ea8565b6020988901989093509190910190600101613f10565b7f4e487b71000000000000000000000000000000000000000000000000000000005f52602160045260245ffd5b602081525f825160a06020840152613fa860c0840182613ea8565b905060208401517fffffffffffffffffffffffffffffffffffffffffffffffffffffffffffffffe0848303016040850152613fe38282613ea8565b91505060408401517fffffffffffffffffffffffffffffffffffffffffffffffffffffffffffffffe084830301606085015261401f8282613ef4565b91505060608401517fffffffffffffffffffffffffffffffffffffffffffffffffffffffffffffffe084830301608085015261405b8282613ef4565b91505060808401516006811061407357614073613f60565b60a0939093019290925250919050565b5f60208284031215614093575f5ffd5b5035919050565b600881106140aa576140aa613f60565b9052565b8051151582525f60208201516140c7602085018261409a565b5060408201511515604084015260608201516140e6606085018261409a565b50608082015160c0608085015261410060c0850182613ea8565b60a093840151949093019390935250919050565b5f602082016020835280845180835260408501915060408160051b8601019250602086015f5b82811015614189577fffffffffffffffffffffffffffffffffffffffffffffffffffffffffffffffc08786030184526141748583516140ae565b9450602093840193919091019060010161413a565b50929695505050505050565b602080825282518282018190525f918401906040840190835b818110156110b35783518352602093840193909201916001016141ae565b602081525f6141de60208301846140ae565b9392505050565b7f4e487b71000000000000000000000000000000000000000000000000000000005f52604160045260245ffd5b60405160c0810167ffffffffffffffff81118282101715614235576142356141e5565b60405290565b604051601f82017fffffffffffffffffffffffffffffffffffffffffffffffffffffffffffffffe016810167ffffffffffffffff81118282101715614282576142826141e5565b604052919050565b5f67ffffffffffffffff8211156142a3576142a36141e5565b5060051b60200190565b803560088110613e13575f5ffd5b5f82601f8301126142ca575f5ffd5b81356142dd6142d88261428a565b61423b565b8082825260208201915060208360051b8601019250858311156142fe575f5ffd5b602085015b8381101561432257614314816142ad565b835260209283019201614303565b5095945050505050565b5f5f5f6060848603121561433e575f5ffd5b8335925061434e60208501613de4565b9150604084013567ffffffffffffffff811115614369575f5ffd5b614375868287016142bb565b9150509250925092565b602081525f82516060602084015261439a6080840182613ea8565b90507fffffffff00000000000000000000000000000000000000000000000000000000602085015116604084015260408401517fffffffffffffffffffffffffffffffffffffffffffffffffffffffffffffffe08483030160608501526144018282613ea8565b95945050505050565b5f60c0828403121561441a575f5ffd5b50919050565b5f5f83601f840112614430575f5ffd5b50813567ffffffffffffffff811115614447575f5ffd5b60208301915083602082850101111561445e575f5ffd5b9250929050565b803560068110613e13575f5ffd5b5f5f5f5f5f60808688031215614487575f5ffd5b85359450602086013567ffffffffffffffff8111156144a4575f5ffd5b6144b08882890161440a565b945050604086013567ffffffffffffffff8111156144cc575f5ffd5b6144d888828901614420565b90945092506144eb905060608701614465565b90509295509295909350565b5f82601f830112614506575f5ffd5b8135602083015f5f67ffffffffffffffff841115614526576145266141e5565b50601f83017fffffffffffffffffffffffffffffffffffffffffffffffffffffffffffffffe0166020016145598161423b565b91505082815285838301111561456d575f5ffd5b828260208301375f92810160200192909252509392505050565b5f5f5f60608486031215614599575f5ffd5b8335925060208401359150604084013567ffffffffffffffff8111156145bd575f5ffd5b614375868287016144f7565b602081525f6141de6020830184613ea8565b5f5f5f5f5f60a086880312156145ef575f5ffd5b853594506145ff60208701613de4565b9350604086013567ffffffffffffffff81111561461a575f5ffd5b614626888289016142bb565b935050606086013567ffffffffffffffff811115614642575f5ffd5b61464e888289016144f7565b925050608086013567ffffffffffffffff81111561466a575f5ffd5b614676888289016144f7565b9150509295509295909350565b8051151582526020808201517fffffffff000000000000000000000000000000000000000000000000000000001681840152604080830151606091850182905280519185018290525f920190829060808601905b80831015614322576146ea82855161409a565b6020820191506020840193506001830192506146d7565b602081525f6141de6020830184614683565b5f5f83601f840112614723575f5ffd5b50813567ffffffffffffffff81111561473a575f5ffd5b6020830191508360208260051b850101111561445e575f5ffd5b5f5f5f5f5f5f5f5f5f60c08a8c03121561476c575f5ffd5b8935985060208a013567ffffffffffffffff811115614789575f5ffd5b6147958c828d0161440a565b98505060408a013567ffffffffffffffff8111156147b1575f5ffd5b6147bd8c828d01614420565b90985096505060608a013567ffffffffffffffff8111156147dc575f5ffd5b6147e88c828d01614713565b90965094505060808a013567ffffffffffffffff811115614807575f5ffd5b6148138c828d01614713565b9094509250614826905060a08b01614465565b90509295985092959850929598565b5f602082016020835280845180835260408501915060408160051b8601019250602086015f5b82811015614189577fffffffffffffffffffffffffffffffffffffffffffffffffffffffffffffffc0878603018452614895858351614683565b9450602093840193919091019060010161485b565b5f5f5f5f5f5f5f60a0888a0312156148c0575f5ffd5b8735965060208801359550604088013567ffffffffffffffff8111156148e4575f5ffd5b6148f08a828b0161440a565b955050606088013567ffffffffffffffff81111561490c575f5ffd5b6149188a828b01614420565b909550935050608088013567ffffffffffffffff811115614937575f5ffd5b6149438a828b01614420565b989b979a50959850939692959293505050565b5f5f5f60608486031215614968575f5ffd5b8335925060208401359150604084013567ffffffffffffffff81111561498c575f5ffd5b6143758682870161440a565b7f4e487b71000000000000000000000000000000000000000000000000000000005f52603260045260245ffd5b7f4e487b71000000000000000000000000000000000000000000000000000000005f52601160045260245ffd5b5f7fffffffffffffffffffffffffffffffffffffffffffffffffffffffffffffffff8203614a2257614a226149c5565b5060010190565b81810381811115610e0657610e066149c5565b7f4e487b71000000000000000000000000000000000000000000000000000000005f52603160045260245ffd5b600181811c90821680614a7d57607f821691505b60208210810361441a577f4e487b71000000000000000000000000000000000000000000000000000000005f52602260045260245ffd5b80358015158114613e13575f5ffd5b5f60208284031215614ad3575f5ffd5b6141de82614ab4565b5f60208284031215614aec575f5ffd5b6141de826142ad565b5f5f83357fffffffffffffffffffffffffffffffffffffffffffffffffffffffffffffffe1843603018112614b28575f5ffd5b83018035915067ffffffffffffffff821115614b42575f5ffd5b60200191503681900382131561445e575f5ffd5b5f82518060208501845e5f920191825250919050565b5f60c08236031215614b7c575f5ffd5b614b84614212565b614b8d83614ab4565b8152614b9b602084016142ad565b6020820152614bac60408401614ab4565b6040820152614bbd606084016142ad565b6060820152608083013567ffffffffffffffff811115614bdb575f5ffd5b614be7368286016144f7565b60808301525060a092830135928101929092525090565b818382375f9101908152919050565b601f821115614c5157805f5260205f20601f840160051c81016020851015614c325750805b601f840160051c820191505b81811015612763575f8155600101614c3e565b505050565b815167ffffffffffffffff811115614c7057614c706141e5565b614c8481614c7e8454614a69565b84614c0d565b6020601f821160018114614cd5575f8315614c9f5750848201515b7fffffffffffffffffffffffffffffffffffffffffffffffffffffffffffffffff600385901b1c1916600184901b178455612763565b5f848152602081207fffffffffffffffffffffffffffffffffffffffffffffffffffffffffffffffe08516915b82811015614d225787850151825560209485019460019092019101614d02565b5084821015614d5e57868401517fffffffffffffffffffffffffffffffffffffffffffffffffffffffffffffffff600387901b60f8161c191681555b50505050600190811b01905550565b5f614d7a6142d88461428a565b8381526020810190600585901b840136811115614d95575f5ffd5b845b818110156110b357803567ffffffffffffffff811115614db5575f5ffd5b614dc1368289016144f7565b85525060209384019301614d9756fe547261636b6572206b65797320616e642076616c756573206d7573742068617665207468652073616d65206c656e6774684e657720706172616d65746572207479706573206d757374206265206f662067726561746572206f7220657175616c206c656e67746820746f20746865206f726967696e616c547261636b6572207265666572656e63656420696e2072756c65206e6f74207365744e657720706172616d65746572207479706573206d757374206265206f66207468652073616d65207479706520617320746865206f726967696e616ca26469706673582212207064a2b01b89f9710f42790c47712df879763b7092adf5d84c67165bf2b7e5d064736f6c634300081c0033","linkReferences":{}},"methodIdentifiers":{"addClosedPolicySubscriber(uint256,address)":"2711fe6b","createCallingFunction(uint256,bytes4,uint8[],string,string)":"b0955878","createMappedTracker(uint256,(bool,uint8,bool,uint8,bytes,uint256),string,bytes[],bytes[],uint8)":"f1073d99","createTracker(uint256,(bool,uint8,bool,uint8,bytes,uint256),string,uint8)":"965d884c","deleteCallingFunction(uint256,bytes4)":"05be2787","deleteTracker(uint256,uint256)":"a82c9e07","getAllCallingFunctions(uint256)":"f3e7dfc3","getAllTrackers(uint256)":"56f3b05f","getCallingFunction(uint256,bytes4)":"d28b84c5","getCallingFunctionMetadata(uint256,bytes4)":"7b7fe810","getMappedTrackerValue(uint256,uint256,bytes)":"9f9fa719","getTracker(uint256,uint256)":"72a340d7","getTrackerMetadata(uint256,uint256)":"3bf07314","getTrackerToRuleIds(uint256,uint256)":"6355ed0b","isClosedPolicySubscriber(uint256,address)":"4c957ad9","removeClosedPolicySubscriber(uint256,address)":"7374c994","updateCallingFunction(uint256,bytes4,uint8[])":"784dfa46","updateTracker(uint256,uint256,(bool,uint8,bool,uint8,bytes,uint256))":"febf8f92","updateTracker(uint256,uint256,(bool,uint8,bool,uint8,bytes,uint256),bytes,bytes)":"f479c994"},"id":78}