{"abi":[{"type":"function","name":"createRule","inputs":[{"name":"policyId","type":"uint256","internalType":"uint256"},{"name":"rule","type":"tuple","internalType":"struct Rule","components":[{"name":"instructionSet","type":"uint256[]","internalType":"uint256[]"},{"name":"rawData","type":"tuple","internalType":"struct RawData","components":[{"name":"instructionSetIndex","type":"uint256[]","internalType":"uint256[]"},{"name":"argumentTypes","type":"uint8[]","internalType":"enum ParamTypes[]"},{"name":"dataValues","type":"bytes[]","internalType":"bytes[]"}]},{"name":"placeHolders","type":"tuple[]","internalType":"struct Placeholder[]","components":[{"name":"pType","type":"uint8","internalType":"enum ParamTypes"},{"name":"typeSpecificIndex","type":"uint128","internalType":"uint128"},{"name":"flags","type":"uint8","internalType":"uint8"}]},{"name":"positiveEffectPlaceHolders","type":"tuple[]","internalType":"struct Placeholder[]","components":[{"name":"pType","type":"uint8","internalType":"enum ParamTypes"},{"name":"typeSpecificIndex","type":"uint128","internalType":"uint128"},{"name":"flags","type":"uint8","internalType":"uint8"}]},{"name":"negativeEffectPlaceHolders","type":"tuple[]","internalType":"struct Placeholder[]","components":[{"name":"pType","type":"uint8","internalType":"enum ParamTypes"},{"name":"typeSpecificIndex","type":"uint128","internalType":"uint128"},{"name":"flags","type":"uint8","internalType":"uint8"}]},{"name":"posEffects","type":"tuple[]","internalType":"struct Effect[]","components":[{"name":"valid","type":"bool","internalType":"bool"},{"name":"dynamicParam","type":"bool","internalType":"bool"},{"name":"effectType","type":"uint8","internalType":"enum EffectTypes"},{"name":"pType","type":"uint8","internalType":"enum ParamTypes"},{"name":"param","type":"bytes","internalType":"bytes"},{"name":"text","type":"bytes32","internalType":"bytes32"},{"name":"errorMessage","type":"string","internalType":"string"},{"name":"instructionSet","type":"uint256[]","internalType":"uint256[]"}]},{"name":"negEffects","type":"tuple[]","internalType":"struct Effect[]","components":[{"name":"valid","type":"bool","internalType":"bool"},{"name":"dynamicParam","type":"bool","internalType":"bool"},{"name":"effectType","type":"uint8","internalType":"enum EffectTypes"},{"name":"pType","type":"uint8","internalType":"enum ParamTypes"},{"name":"param","type":"bytes","internalType":"bytes"},{"name":"text","type":"bytes32","internalType":"bytes32"},{"name":"errorMessage","type":"string","internalType":"string"},{"name":"instructionSet","type":"uint256[]","internalType":"uint256[]"}]}]},{"name":"ruleName","type":"string","internalType":"string"},{"name":"ruleDescription","type":"string","internalType":"string"}],"outputs":[{"name":"","type":"uint256","internalType":"uint256"}],"stateMutability":"nonpayable"},{"type":"function","name":"deleteRule","inputs":[{"name":"policyId","type":"uint256","internalType":"uint256"},{"name":"ruleId","type":"uint256","internalType":"uint256"}],"outputs":[],"stateMutability":"nonpayable"},{"type":"function","name":"getAllRules","inputs":[{"name":"policyId","type":"uint256","internalType":"uint256"}],"outputs":[{"name":"","type":"tuple[][]","internalType":"struct Rule[][]","components":[{"name":"instructionSet","type":"uint256[]","internalType":"uint256[]"},{"name":"rawData","type":"tuple","internalType":"struct RawData","components":[{"name":"instructionSetIndex","type":"uint256[]","internalType":"uint256[]"},{"name":"argumentTypes","type":"uint8[]","internalType":"enum ParamTypes[]"},{"name":"dataValues","type":"bytes[]","internalType":"bytes[]"}]},{"name":"placeHolders","type":"tuple[]","internalType":"struct Placeholder[]","components":[{"name":"pType","type":"uint8","internalType":"enum ParamTypes"},{"name":"typeSpecificIndex","type":"uint128","internalType":"uint128"},{"name":"flags","type":"uint8","internalType":"uint8"}]},{"name":"positiveEffectPlaceHolders","type":"tuple[]","internalType":"struct Placeholder[]","components":[{"name":"pType","type":"uint8","internalType":"enum ParamTypes"},{"name":"typeSpecificIndex","type":"uint128","internalType":"uint128"},{"name":"flags","type":"uint8","internalType":"uint8"}]},{"name":"negativeEffectPlaceHolders","type":"tuple[]","internalType":"struct Placeholder[]","components":[{"name":"pType","type":"uint8","internalType":"enum ParamTypes"},{"name":"typeSpecificIndex","type":"uint128","internalType":"uint128"},{"name":"flags","type":"uint8","internalType":"uint8"}]},{"name":"posEffects","type":"tuple[]","internalType":"struct Effect[]","components":[{"name":"valid","type":"bool","internalType":"bool"},{"name":"dynamicParam","type":"bool","internalType":"bool"},{"name":"effectType","type":"uint8","internalType":"enum EffectTypes"},{"name":"pType","type":"uint8","internalType":"enum ParamTypes"},{"name":"param","type":"bytes","internalType":"bytes"},{"name":"text","type":"bytes32","internalType":"bytes32"},{"name":"errorMessage","type":"string","internalType":"string"},{"name":"instructionSet","type":"uint256[]","internalType":"uint256[]"}]},{"name":"negEffects","type":"tuple[]","internalType":"struct Effect[]","components":[{"name":"valid","type":"bool","internalType":"bool"},{"name":"dynamicParam","type":"bool","internalType":"bool"},{"name":"effectType","type":"uint8","internalType":"enum EffectTypes"},{"name":"pType","type":"uint8","internalType":"enum ParamTypes"},{"name":"param","type":"bytes","internalType":"bytes"},{"name":"text","type":"bytes32","internalType":"bytes32"},{"name":"errorMessage","type":"string","internalType":"string"},{"name":"instructionSet","type":"uint256[]","internalType":"uint256[]"}]}]}],"stateMutability":"view"},{"type":"function","name":"getMaxLoopSize","inputs":[],"outputs":[{"name":"","type":"uint256","internalType":"uint256"}],"stateMutability":"pure"},{"type":"function","name":"getMemorySize","inputs":[],"outputs":[{"name":"","type":"uint256","internalType":"uint256"}],"stateMutability":"pure"},{"type":"function","name":"getOpsSize1","inputs":[],"outputs":[{"name":"","type":"uint256","internalType":"uint256"}],"stateMutability":"pure"},{"type":"function","name":"getOpsSizeUpTo2","inputs":[],"outputs":[{"name":"","type":"uint256","internalType":"uint256"}],"stateMutability":"pure"},{"type":"function","name":"getOpsSizeUpTo3","inputs":[],"outputs":[{"name":"","type":"uint256","internalType":"uint256"}],"stateMutability":"pure"},{"type":"function","name":"getOpsTotalSize","inputs":[],"outputs":[{"name":"","type":"uint256","internalType":"uint256"}],"stateMutability":"pure"},{"type":"function","name":"getRule","inputs":[{"name":"policyId","type":"uint256","internalType":"uint256"},{"name":"ruleId","type":"uint256","internalType":"uint256"}],"outputs":[{"name":"","type":"tuple","internalType":"struct RuleStorageSet","components":[{"name":"set","type":"bool","internalType":"bool"},{"name":"rule","type":"tuple","internalType":"struct Rule","components":[{"name":"instructionSet","type":"uint256[]","internalType":"uint256[]"},{"name":"rawData","type":"tuple","internalType":"struct RawData","components":[{"name":"instructionSetIndex","type":"uint256[]","internalType":"uint256[]"},{"name":"argumentTypes","type":"uint8[]","internalType":"enum ParamTypes[]"},{"name":"dataValues","type":"bytes[]","internalType":"bytes[]"}]},{"name":"placeHolders","type":"tuple[]","internalType":"struct Placeholder[]","components":[{"name":"pType","type":"uint8","internalType":"enum ParamTypes"},{"name":"typeSpecificIndex","type":"uint128","internalType":"uint128"},{"name":"flags","type":"uint8","internalType":"uint8"}]},{"name":"positiveEffectPlaceHolders","type":"tuple[]","internalType":"struct Placeholder[]","components":[{"name":"pType","type":"uint8","internalType":"enum ParamTypes"},{"name":"typeSpecificIndex","type":"uint128","internalType":"uint128"},{"name":"flags","type":"uint8","internalType":"uint8"}]},{"name":"negativeEffectPlaceHolders","type":"tuple[]","internalType":"struct Placeholder[]","components":[{"name":"pType","type":"uint8","internalType":"enum ParamTypes"},{"name":"typeSpecificIndex","type":"uint128","internalType":"uint128"},{"name":"flags","type":"uint8","internalType":"uint8"}]},{"name":"posEffects","type":"tuple[]","internalType":"struct Effect[]","components":[{"name":"valid","type":"bool","internalType":"bool"},{"name":"dynamicParam","type":"bool","internalType":"bool"},{"name":"effectType","type":"uint8","internalType":"enum EffectTypes"},{"name":"pType","type":"uint8","internalType":"enum ParamTypes"},{"name":"param","type":"bytes","internalType":"bytes"},{"name":"text","type":"bytes32","internalType":"bytes32"},{"name":"errorMessage","type":"string","internalType":"string"},{"name":"instructionSet","type":"uint256[]","internalType":"uint256[]"}]},{"name":"negEffects","type":"tuple[]","internalType":"struct Effect[]","components":[{"name":"valid","type":"bool","internalType":"bool"},{"name":"dynamicParam","type":"bool","internalType":"bool"},{"name":"effectType","type":"uint8","internalType":"enum EffectTypes"},{"name":"pType","type":"uint8","internalType":"enum ParamTypes"},{"name":"param","type":"bytes","internalType":"bytes"},{"name":"text","type":"bytes32","internalType":"bytes32"},{"name":"errorMessage","type":"string","internalType":"string"},{"name":"instructionSet","type":"uint256[]","internalType":"uint256[]"}]}]}]}],"stateMutability":"view"},{"type":"function","name":"getRuleMetadata","inputs":[{"name":"policyId","type":"uint256","internalType":"uint256"},{"name":"ruleId","type":"uint256","internalType":"uint256"}],"outputs":[{"name":"","type":"tuple","internalType":"struct RuleMetadata","components":[{"name":"ruleName","type":"string","internalType":"string"},{"name":"ruleDescription","type":"string","internalType":"string"}]}],"stateMutability":"view"},{"type":"function","name":"updateRule","inputs":[{"name":"policyId","type":"uint256","internalType":"uint256"},{"name":"ruleId","type":"uint256","internalType":"uint256"},{"name":"rule","type":"tuple","internalType":"struct Rule","components":[{"name":"instructionSet","type":"uint256[]","internalType":"uint256[]"},{"name":"rawData","type":"tuple","internalType":"struct RawData","components":[{"name":"instructionSetIndex","type":"uint256[]","internalType":"uint256[]"},{"name":"argumentTypes","type":"uint8[]","internalType":"enum ParamTypes[]"},{"name":"dataValues","type":"bytes[]","internalType":"bytes[]"}]},{"name":"placeHolders","type":"tuple[]","internalType":"struct Placeholder[]","components":[{"name":"pType","type":"uint8","internalType":"enum ParamTypes"},{"name":"typeSpecificIndex","type":"uint128","internalType":"uint128"},{"name":"flags","type":"uint8","internalType":"uint8"}]},{"name":"positiveEffectPlaceHolders","type":"tuple[]","internalType":"struct Placeholder[]","components":[{"name":"pType","type":"uint8","internalType":"enum ParamTypes"},{"name":"typeSpecificIndex","type":"uint128","internalType":"uint128"},{"name":"flags","type":"uint8","internalType":"uint8"}]},{"name":"negativeEffectPlaceHolders","type":"tuple[]","internalType":"struct Placeholder[]","components":[{"name":"pType","type":"uint8","internalType":"enum ParamTypes"},{"name":"typeSpecificIndex","type":"uint128","internalType":"uint128"},{"name":"flags","type":"uint8","internalType":"uint8"}]},{"name":"posEffects","type":"tuple[]","internalType":"struct Effect[]","components":[{"name":"valid","type":"bool","internalType":"bool"},{"name":"dynamicParam","type":"bool","internalType":"bool"},{"name":"effectType","type":"uint8","internalType":"enum EffectTypes"},{"name":"pType","type":"uint8","internalType":"enum ParamTypes"},{"name":"param","type":"bytes","internalType":"bytes"},{"name":"text","type":"bytes32","internalType":"bytes32"},{"name":"errorMessage","type":"string","internalType":"string"},{"name":"instructionSet","type":"uint256[]","internalType":"uint256[]"}]},{"name":"negEffects","type":"tuple[]","internalType":"struct Effect[]","components":[{"name":"valid","type":"bool","internalType":"bool"},{"name":"dynamicParam","type":"bool","internalType":"bool"},{"name":"effectType","type":"uint8","internalType":"enum EffectTypes"},{"name":"pType","type":"uint8","internalType":"enum ParamTypes"},{"name":"param","type":"bytes","internalType":"bytes"},{"name":"text","type":"bytes32","internalType":"bytes32"},{"name":"errorMessage","type":"string","internalType":"string"},{"name":"instructionSet","type":"uint256[]","internalType":"uint256[]"}]}]},{"name":"ruleName","type":"string","internalType":"string"},{"name":"ruleDescription","type":"string","internalType":"string"}],"outputs":[{"name":"","type":"uint256","internalType":"uint256"}],"stateMutability":"nonpayable"},{"type":"event","name":"RuleCreated","inputs":[{"name":"policyId","type":"uint256","indexed":true,"internalType":"uint256"},{"name":"ruleId","type":"uint256","indexed":true,"internalType":"uint256"}],"anonymous":false},{"type":"event","name":"RuleDeleted","inputs":[{"name":"policyId","type":"uint256","indexed":true,"internalType":"uint256"},{"name":"ruleId","type":"uint256","indexed":true,"internalType":"uint256"}],"anonymous":false},{"type":"event","name":"RuleUpdated","inputs":[{"name":"policyId","type":"uint256","indexed":true,"internalType":"uint256"},{"name":"ruleId","type":"uint256","indexed":true,"internalType":"uint256"}],"anonymous":false}],"bytecode":{"object":"0x6080604052348015600e575f5ffd5b506157788061001c5f395ff3fe608060405234801561000f575f5ffd5b50600436106100cf575f3560e01c806359c8075b1161007d578063a31c8ebb11610058578063a31c8ebb1461018d578063bef087a3146101a2578063d951e134146101a9575f5ffd5b806359c8075b146101535780636d279ef81461015a57806372e1c3081461017a575f5ffd5b8063266fc8a5116100ad578063266fc8a51461012557806349fd266d1461014557806354daa6811461014c575f5ffd5b806312602c40146100d35780631809418e146100fc578063230d49071461011d575b5f5ffd5b6100e66100e13660046141c4565b6101b0565b6040516100f39190614230565b60405180910390f35b61010f61010a3660046142ea565b61036f565b6040519081526020016100f3565b61271061010f565b61013861013336600461438d565b610440565b6040516100f39190614737565b600361010f565b601161010f565b605a61010f565b61016d6101683660046141c4565b6110e1565b6040516100f3919061481c565b61010f61018836600461484a565b611ac1565b6101a061019b3660046141c4565b611bf9565b005b601261010f565b601361010f565b6040805180820190915260608082526020820152825f03610220576040518060600160405280603481526020016156ed603491396040517f08c379a000000000000000000000000000000000000000000000000000000000815260040161021791906148f6565b60405180910390fd5b6102286120f0565b5f8481526020918252604080822085835290925281902081518083019092528054829082906102569061490f565b80601f01602080910402602001604051908101604052809291908181526020018280546102829061490f565b80156102cd5780601f106102a4576101008083540402835291602001916102cd565b820191905f5260205f20905b8154815290600101906020018083116102b057829003601f168201915b505050505081526020016001820180546102e69061490f565b80601f01602080910402602001604051908101604052809291908181526020018280546103129061490f565b801561035d5780601f106103345761010080835404028352916020019161035d565b820191905f5260205f20905b81548152906001019060200180831161034057829003601f168201915b50505050508152505090505b92915050565b5f865f036103c3576040518060600160405280603481526020016156ed603491396040517f08c379a000000000000000000000000000000000000000000000000000000000815260040161021791906148f6565b6103cd873361211d565b6103d7868861227e565b6103e087612476565b5f6103e9612508565b90505f6103f6828a612535565b9050610408828a838b8b8b8b8b61255b565b60405181908a907fcadd4461b462556a5a12f6e182d719fd2bbfaaa0a6fcf6a16cf7ecf648076921905f90a398975050505050505050565b6060815f03610495576040518060600160405280603481526020016156ed603491396040517f08c379a000000000000000000000000000000000000000000000000000000000815260040161021791906148f6565b5f61049e612580565b6001015f8481526020019081526020015f2060010190505f8160010180548060200260200160405190810160405280929190818152602001828054801561054357602002820191905f5260205f20905f905b82829054906101000a900460e01b7bffffffffffffffffffffffffffffffffffffffffffffffffffffffff1916815260200190600401906020826003010492830192600103820291508084116104f05790505b505050505090505f815167ffffffffffffffff8111156105655761056561495a565b60405190808252806020026020018201604052801561059857816020015b60608152602001906001900390816105835790505b5090505f5b82518110156110d8575f845f015f8584815181106105bd576105bd614987565b60200260200101517bffffffffffffffffffffffffffffffffffffffffffffffffffffffff19167bffffffffffffffffffffffffffffffffffffffffffffffffffffffff191681526020019081526020015f2080548060200260200160405190810160405280929190818152602001828054801561065857602002820191905f5260205f20905b815481526020019060010190808311610644575b50505050509050805167ffffffffffffffff8111156106795761067961495a565b6040519080825280602002602001820160405280156106b257816020015b61069f613f65565b8152602001906001900390816106975790505b508383815181106106c5576106c5614987565b60209081029190910101525f5b81518110156110ce576106fe888383815181106106f1576106f1614987565b60200260200101516125ad565b156110c65761070b612508565b6001015f8981526020019081526020015f205f83838151811061073057610730614987565b602002602001015181526020019081526020015f206001016040518060e00160405290815f820180548060200260200160405190810160405280929190818152602001828054801561079f57602002820191905f5260205f20905b81548152602001906001019080831161078b575b50505050508152602001600182016040518060600160405290815f820180548060200260200160405190810160405280929190818152602001828054801561080457602002820191905f5260205f20905b8154815260200190600101908083116107f0575b505050505081526020016001820180548060200260200160405190810160405280929190818152602001828054801561088957602002820191905f5260205f20905f905b82829054906101000a900460ff166007811115610867576108676143de565b8152602060019283018181049485019490930390920291018084116108485790505b5050505050815260200160028201805480602002602001604051908101604052809291908181526020015f905b8282101561095e578382905f5260205f200180546108d39061490f565b80601f01602080910402602001604051908101604052809291908181526020018280546108ff9061490f565b801561094a5780601f106109215761010080835404028352916020019161094a565b820191905f5260205f20905b81548152906001019060200180831161092d57829003601f168201915b5050505050815260200190600101906108b6565b5050505081525050815260200160048201805480602002602001604051908101604052809291908181526020015f905b82821015610a2b575f8481526020902060408051606081019091529083018054829060ff1660078111156109c4576109c46143de565b60078111156109d5576109d56143de565b8152905461010081046fffffffffffffffffffffffffffffffff166020808401919091527101000000000000000000000000000000000090910460ff16604090920191909152908252600192909201910161098e565b50505050815260200160058201805480602002602001604051908101604052809291908181526020015f905b82821015610af4575f8481526020902060408051606081019091529083018054829060ff166007811115610a8d57610a8d6143de565b6007811115610a9e57610a9e6143de565b8152905461010081046fffffffffffffffffffffffffffffffff166020808401919091527101000000000000000000000000000000000090910460ff166040909201919091529082526001929092019101610a57565b50505050815260200160068201805480602002602001604051908101604052809291908181526020015f905b82821015610bbd575f8481526020902060408051606081019091529083018054829060ff166007811115610b5657610b566143de565b6007811115610b6757610b676143de565b8152905461010081046fffffffffffffffffffffffffffffffff166020808401919091527101000000000000000000000000000000000090910460ff166040909201919091529082526001929092019101610b20565b50505050815260200160078201805480602002602001604051908101604052809291908181526020015f905b82821015610e22575f84815260209081902060408051610100808201835260058702909301805460ff808216151584529481048516151595830195909552909390929184019162010000909104166002811115610c4857610c486143de565b6002811115610c5957610c596143de565b815281546020909101906301000000900460ff166007811115610c7e57610c7e6143de565b6007811115610c8f57610c8f6143de565b8152602001600182018054610ca39061490f565b80601f0160208091040260200160405190810160405280929190818152602001828054610ccf9061490f565b8015610d1a5780601f10610cf157610100808354040283529160200191610d1a565b820191905f5260205f20905b815481529060010190602001808311610cfd57829003601f168201915b5050505050815260200160028201548152602001600382018054610d3d9061490f565b80601f0160208091040260200160405190810160405280929190818152602001828054610d699061490f565b8015610db45780601f10610d8b57610100808354040283529160200191610db4565b820191905f5260205f20905b815481529060010190602001808311610d9757829003601f168201915b5050505050815260200160048201805480602002602001604051908101604052809291908181526020018280548015610e0a57602002820191905f5260205f20905b815481526020019060010190808311610df6575b50505050508152505081526020019060010190610be9565b50505050815260200160088201805480602002602001604051908101604052809291908181526020015f905b82821015611087575f84815260209081902060408051610100808201835260058702909301805460ff808216151584529481048516151595830195909552909390929184019162010000909104166002811115610ead57610ead6143de565b6002811115610ebe57610ebe6143de565b815281546020909101906301000000900460ff166007811115610ee357610ee36143de565b6007811115610ef457610ef46143de565b8152602001600182018054610f089061490f565b80601f0160208091040260200160405190810160405280929190818152602001828054610f349061490f565b8015610f7f5780601f10610f5657610100808354040283529160200191610f7f565b820191905f5260205f20905b815481529060010190602001808311610f6257829003601f168201915b5050505050815260200160028201548152602001600382018054610fa29061490f565b80601f0160208091040260200160405190810160405280929190818152602001828054610fce9061490f565b80156110195780601f10610ff057610100808354040283529160200191611019565b820191905f5260205f20905b815481529060010190602001808311610ffc57829003601f168201915b505050505081526020016004820180548060200260200160405190810160405280929190818152602001828054801561106f57602002820191905f5260205f20905b81548152602001906001019080831161105b575b50505050508152505081526020019060010190610e4e565b50505050815250508484815181106110a1576110a1614987565b602002602001015182815181106110ba576110ba614987565b60200260200101819052505b6001016106d2565b505060010161059d565b50949350505050565b6110e9613fc4565b825f0361113c576040518060600160405280603481526020016156ed603491396040517f08c379a000000000000000000000000000000000000000000000000000000000815260040161021791906148f6565b611144612508565b5f84815260019182016020908152604080832086845282529182902082518084018452815460ff1615158152835194820180546101008186028801810190965260e08701818152929693959487019491928492909184918401828280156111c857602002820191905f5260205f20905b8154815260200190600101908083116111b4575b50505050508152602001600182016040518060600160405290815f820180548060200260200160405190810160405280929190818152602001828054801561122d57602002820191905f5260205f20905b815481526020019060010190808311611219575b50505050508152602001600182018054806020026020016040519081016040528092919081815260200182805480156112b257602002820191905f5260205f20905f905b82829054906101000a900460ff166007811115611290576112906143de565b8152602060019283018181049485019490930390920291018084116112715790505b5050505050815260200160028201805480602002602001604051908101604052809291908181526020015f905b82821015611387578382905f5260205f200180546112fc9061490f565b80601f01602080910402602001604051908101604052809291908181526020018280546113289061490f565b80156113735780601f1061134a57610100808354040283529160200191611373565b820191905f5260205f20905b81548152906001019060200180831161135657829003601f168201915b5050505050815260200190600101906112df565b5050505081525050815260200160048201805480602002602001604051908101604052809291908181526020015f905b82821015611454575f8481526020902060408051606081019091529083018054829060ff1660078111156113ed576113ed6143de565b60078111156113fe576113fe6143de565b8152905461010081046fffffffffffffffffffffffffffffffff166020808401919091527101000000000000000000000000000000000090910460ff1660409092019190915290825260019290920191016113b7565b50505050815260200160058201805480602002602001604051908101604052809291908181526020015f905b8282101561151d575f8481526020902060408051606081019091529083018054829060ff1660078111156114b6576114b66143de565b60078111156114c7576114c76143de565b8152905461010081046fffffffffffffffffffffffffffffffff166020808401919091527101000000000000000000000000000000000090910460ff166040909201919091529082526001929092019101611480565b50505050815260200160068201805480602002602001604051908101604052809291908181526020015f905b828210156115e6575f8481526020902060408051606081019091529083018054829060ff16600781111561157f5761157f6143de565b6007811115611590576115906143de565b8152905461010081046fffffffffffffffffffffffffffffffff166020808401919091527101000000000000000000000000000000000090910460ff166040909201919091529082526001929092019101611549565b50505050815260200160078201805480602002602001604051908101604052809291908181526020015f905b8282101561184b575f84815260209081902060408051610100808201835260058702909301805460ff808216151584529481048516151595830195909552909390929184019162010000909104166002811115611671576116716143de565b6002811115611682576116826143de565b815281546020909101906301000000900460ff1660078111156116a7576116a76143de565b60078111156116b8576116b86143de565b81526020016001820180546116cc9061490f565b80601f01602080910402602001604051908101604052809291908181526020018280546116f89061490f565b80156117435780601f1061171a57610100808354040283529160200191611743565b820191905f5260205f20905b81548152906001019060200180831161172657829003601f168201915b50505050508152602001600282015481526020016003820180546117669061490f565b80601f01602080910402602001604051908101604052809291908181526020018280546117929061490f565b80156117dd5780601f106117b4576101008083540402835291602001916117dd565b820191905f5260205f20905b8154815290600101906020018083116117c057829003601f168201915b505050505081526020016004820180548060200260200160405190810160405280929190818152602001828054801561183357602002820191905f5260205f20905b81548152602001906001019080831161181f575b50505050508152505081526020019060010190611612565b50505050815260200160088201805480602002602001604051908101604052809291908181526020015f905b82821015611ab0575f84815260209081902060408051610100808201835260058702909301805460ff8082161515845294810485161515958301959095529093909291840191620100009091041660028111156118d6576118d66143de565b60028111156118e7576118e76143de565b815281546020909101906301000000900460ff16600781111561190c5761190c6143de565b600781111561191d5761191d6143de565b81526020016001820180546119319061490f565b80601f016020809104026020016040519081016040528092919081815260200182805461195d9061490f565b80156119a85780601f1061197f576101008083540402835291602001916119a8565b820191905f5260205f20905b81548152906001019060200180831161198b57829003601f168201915b50505050508152602001600282015481526020016003820180546119cb9061490f565b80601f01602080910402602001604051908101604052809291908181526020018280546119f79061490f565b8015611a425780601f10611a1957610100808354040283529160200191611a42565b820191905f5260205f20905b815481529060010190602001808311611a2557829003601f168201915b5050505050815260200160048201805480602002602001604051908101604052809291908181526020018280548015611a9857602002820191905f5260205f20905b815481526020019060010190808311611a84575b50505050508152505081526020019060010190611877565b505050915250509052509392505050565b5f875f03611b15576040518060600160405280603481526020016156ed603491396040517f08c379a000000000000000000000000000000000000000000000000000000000815260040161021791906148f6565b611b1f883361211d565b611b29868961227e565b611b3388886125ad565b611b9c57604080518082018252600c81527f52756c65206e6f74207365740000000000000000000000000000000000000000602082015290517f08c379a000000000000000000000000000000000000000000000000000000000815261021791906004016148f6565b611ba588612476565b5f611bae612508565b9050611bc0818a8a8a8a8a8a8a61255b565b60405188908a907fe91f86fd53c89629ca0bc01d0f219a6cd6730e5252f179944d1f3c9b5def1b07905f90a35095979650505050505050565b815f03611c4c576040518060600160405280603481526020016156ed603491396040517f08c379a000000000000000000000000000000000000000000000000000000000815260040161021791906148f6565b611c54612508565b5f8381526001919091016020908152604080832084845290915290205460ff16611cdd57604080518082018252600c81527f496e76616c69642052756c650000000000000000000000000000000000000000602082015290517f08c379a000000000000000000000000000000000000000000000000000000000815261021791906004016148f6565b611ce7823361211d565b611cf082612476565b5f611cf9612580565b5f848152600191909101602090815260409182902060020180548351818402810184019094528084529091830182828015611d9257602002820191905f5260205f20905f905b82829054906101000a900460e01b7bffffffffffffffffffffffffffffffffffffffffffffffffffffffff191681526020019060040190602082600301049283019260010382029150808411611d3f5790505b509394505f93505050505b8151811015611fec575f611daf612580565b5f8681526001918201602052604081208551920191859085908110611dd657611dd6614987565b60200260200101517bffffffffffffffffffffffffffffffffffffffffffffffffffffffff19167bffffffffffffffffffffffffffffffffffffffffffffffffffffffff191681526020019081526020015f20805480602002602001604051908101604052809291908181526020018280548015611e7157602002820191905f5260205f20905b815481526020019060010190808311611e5d575b505050505090505f60018251611e8791906149e1565b67ffffffffffffffff811115611e9f57611e9f61495a565b604051908082528060200260200182016040528015611ec8578160200160208202803683370190505b5090505f805b8351811015611f455786848281518110611eea57611eea614987565b60200260200101510315611f3d57838181518110611f0a57611f0a614987565b6020026020010151838381518110611f2457611f24614987565b602090810291909101015281611f39816149f4565b9250505b600101611ece565b5081611f4f612580565b5f8981526001918201602052604081208851920191889088908110611f7657611f76614987565b60200260200101517bffffffffffffffffffffffffffffffffffffffffffffffffffffffff19167bffffffffffffffffffffffffffffffffffffffffffffffffffffffff191681526020019081526020015f209080519060200190611fdc929190613fe4565b505060019092019150611d9d9050565b50611ff783836125d7565b611fff612508565b5f848152600191820160209081526040808320868452909152812080547fffffffffffffffffffffffffffffffffffffffffffffffffffffffffffffff001681559182018161204e828261402d565b600182015f61205d828261402d565b61206a600183015f614048565b612077600283015f61406a565b506120879050600483015f614085565b612094600583015f614085565b6120a1600683015f614085565b6120ae600783015f6140a0565b6120bb600883015f6140a0565b50506040518492508591507f371b8107ab385e638477ce677851ddf910d57c3afc1bab409674a9e251cfb020905f90a3505050565b5f8061036960017fcd216e8e6f9888257c83a443dde6c2ee001ac067ce7d1a099cdea0655718c76e6149e1565b6040516024810183905273ffffffffffffffffffffffffffffffffffffffff821660448201525f9081906121eb907f901cee110000000000000000000000000000000000000000000000000000000090606401604080517fffffffffffffffffffffffffffffffffffffffffffffffffffffffffffffffe08184030181529190526020810180517bffffffffffffffffffffffffffffffffffffffffffffffffffffffff167f901cee11000000000000000000000000000000000000000000000000000000001790526130ea565b915091505f821561227757600482511061220a5750602081015161220d565b505f5b8061227757604080518082018252601881527f4e6f7420417574686f72697a656420546f20506f6c6963790000000000000000602082015290517f08c379a000000000000000000000000000000000000000000000000000000000815261021791906004016148f6565b5050505050565b6122888280614a2b565b90505f036122f557604080518082018252601581527f456d70747920496e737472756374696f6e205365740000000000000000000000602082015290517f08c379a000000000000000000000000000000000000000000000000000000000815261021791906004016148f6565b6123086123028380614a2b565b836131ab565b5f5b6123176020840184614a8f565b612325906020810190614a2b565b905081101561237e5761237661233e6020850185614a8f565b61234c906020810190614a2b565b8381811061235c5761235c614987565b90506020020160208101906123719190614ad7565b613565565b60010161230a565b5061239461238f6040840184614af2565b6135e4565b6123a461238f6060840184614af2565b6123b461238f6080840184614af2565b5f6123c260a0840184614a2b565b905011806123dd57505f6123d960c0840184614a2b565b9050115b6040518060400160405280601d81526020017f4d7573742068617665206174206c65617374206f6e65206566666563740000008152509061244b576040517f08c379a000000000000000000000000000000000000000000000000000000000815260040161021791906148f6565b5061246261245c60a0840184614a2b565b83613695565b61247261245c60c0840184614a2b565b5050565b61247e612580565b5f8281526001919091016020526040902060030154610100900460ff161561250557604080518082018252601f81527f4e6f7420616c6c6f77656420666f722063656d656e74656420706f6c69637900602082015290517f08c379a000000000000000000000000000000000000000000000000000000000815261021791906004016148f6565b50565b5f8061036960017f5c91f63a4ffcbd372b8ec622fd1fcaaa601b66330afdb30e5c292dd9123f20b06149e1565b5f8181526020839052604081208054829061254f906149f4565b91829055509392505050565b6125678888888861375d565b5061257687878686868661384c565b5050505050505050565b5f8061036960017ff9dbd639dd2ea165d77dd4c51dec420100d51ceacf023b1c40faa045ba8f9a656149e1565b5f6125b6612508565b5f938452600101602090815260408085209385529290525090205460ff1690565b5f6125e061389e565b90505f6125eb612508565b5f85815260019190910160209081526040808320868452825280832060050180548251818502810185019093528083529193909284015b828210156126bf575f8481526020902060408051606081019091529083018054829060ff166007811115612658576126586143de565b6007811115612669576126696143de565b8152905461010081046fffffffffffffffffffffffffffffffff166020808401919091527101000000000000000000000000000000000090910460ff166040909201919091529082526001929092019101612622565b5050505090505f6126ce612508565b5f86815260019190910160209081526040808320878452825280832060060180548251818502810185019093528083529193909284015b828210156127a2575f8481526020902060408051606081019091529083018054829060ff16600781111561273b5761273b6143de565b600781111561274c5761274c6143de565b8152905461010081046fffffffffffffffffffffffffffffffff166020808401919091527101000000000000000000000000000000000090910460ff166040909201919091529082526001929092019101612705565b5050505090505f6127b1612508565b5f87815260019190910160209081526040808320888452825280832060070180548251818502810185019093528083529193909284015b82821015612885575f8481526020902060408051606081019091529083018054829060ff16600781111561281e5761281e6143de565b600781111561282f5761282f6143de565b8152905461010081046fffffffffffffffffffffffffffffffff166020808401919091527101000000000000000000000000000000000090910460ff1660409092019190915290825260019290920191016127e8565b509293505f925050505b8351811015612b5f576128bf8482815181106128ad576128ad614987565b60200260200101516040015160021690565b15612b57575f5b856003015f8981526020019081526020015f205f8684815181106128ec576128ec614987565b6020026020010151602001516fffffffffffffffffffffffffffffffff1681526020019081526020015f2080549050811015612b55575f8881526003870160205260408120865189929088908690811061294857612948614987565b6020026020010151602001516fffffffffffffffffffffffffffffffff1681526020019081526020015f20828154811061298457612984614987565b905f5260205f20015403612b4357856003015f8981526020019081526020015f205f8684815181106129b8576129b8614987565b6020026020010151602001516fffffffffffffffffffffffffffffffff1681526020019081526020015f206001876003015f8b81526020019081526020015f205f888681518110612a0b57612a0b614987565b6020026020010151602001516fffffffffffffffffffffffffffffffff1681526020019081526020015f2080549050612a4491906149e1565b81548110612a5457612a54614987565b905f5260205f200154866003015f8a81526020019081526020015f205f878581518110612a8357612a83614987565b6020026020010151602001516fffffffffffffffffffffffffffffffff1681526020019081526020015f208281548110612abf57612abf614987565b905f5260205f200181905550856003015f8981526020019081526020015f205f868481518110612af157612af1614987565b6020026020010151602001516fffffffffffffffffffffffffffffffff1681526020019081526020015f20805480612b2b57612b2b614b55565b600190038181905f5260205f20015f90559055612b55565b80612b4d816149f4565b9150506128c6565b505b60010161288f565b505f5b8251811015612e2057612b808382815181106128ad576128ad614987565b15612e18575f5b856003015f8981526020019081526020015f205f858481518110612bad57612bad614987565b6020026020010151602001516fffffffffffffffffffffffffffffffff1681526020019081526020015f2080549050811015612e16575f88815260038701602052604081208551899290879086908110612c0957612c09614987565b6020026020010151602001516fffffffffffffffffffffffffffffffff1681526020019081526020015f208281548110612c4557612c45614987565b905f5260205f20015403612e0457856003015f8981526020019081526020015f205f858481518110612c7957612c79614987565b6020026020010151602001516fffffffffffffffffffffffffffffffff1681526020019081526020015f206001876003015f8b81526020019081526020015f205f878681518110612ccc57612ccc614987565b6020026020010151602001516fffffffffffffffffffffffffffffffff1681526020019081526020015f2080549050612d0591906149e1565b81548110612d1557612d15614987565b905f5260205f200154866003015f8a81526020019081526020015f205f868581518110612d4457612d44614987565b6020026020010151602001516fffffffffffffffffffffffffffffffff1681526020019081526020015f208281548110612d8057612d80614987565b905f5260205f200181905550856003015f8981526020019081526020015f205f858481518110612db257612db2614987565b6020026020010151602001516fffffffffffffffffffffffffffffffff1681526020019081526020015f20805480612dec57612dec614b55565b600190038181905f5260205f20015f90559055612e16565b80612e0e816149f4565b915050612b87565b505b600101612b62565b505f5b81518110156130e157612e418282815181106128ad576128ad614987565b156130d9575f5b856003015f8981526020019081526020015f205f848481518110612e6e57612e6e614987565b6020026020010151602001516fffffffffffffffffffffffffffffffff1681526020019081526020015f20805490508110156130d7575f88815260038701602052604081208451899290869086908110612eca57612eca614987565b6020026020010151602001516fffffffffffffffffffffffffffffffff1681526020019081526020015f208281548110612f0657612f06614987565b905f5260205f200154036130c557856003015f8981526020019081526020015f205f848481518110612f3a57612f3a614987565b6020026020010151602001516fffffffffffffffffffffffffffffffff1681526020019081526020015f206001876003015f8b81526020019081526020015f205f868681518110612f8d57612f8d614987565b6020026020010151602001516fffffffffffffffffffffffffffffffff1681526020019081526020015f2080549050612fc691906149e1565b81548110612fd657612fd6614987565b905f5260205f200154866003015f8a81526020019081526020015f205f85858151811061300557613005614987565b6020026020010151602001516fffffffffffffffffffffffffffffffff1681526020019081526020015f20828154811061304157613041614987565b905f5260205f200181905550856003015f8981526020019081526020015f205f84848151811061307357613073614987565b6020026020010151602001516fffffffffffffffffffffffffffffffff1681526020019081526020015f208054806130ad576130ad614b55565b600190038181905f5260205f20015f905590556130d7565b806130cf816149f4565b915050612e48565b505b600101612e23565b50505050505050565b5f60605f6130f66138cb565b7fffffffff0000000000000000000000000000000000000000000000000000000086165f908152602082905260409081902054905191925073ffffffffffffffffffffffffffffffffffffffff16908190613152908790614b82565b5f60405180830381855af49150503d805f811461318a576040519150601f19603f3d011682016040523d82523d5f602084013e61318f565b606091505b509094509250836131a257825160208401fd5b50509250929050565b5f80808080805b87811015613481575f8989838181106131cd576131cd614987565b905060200201359050851561338857826131e6816149f4565b9350506131f2846138f8565b61326957605a81111561326457604080518082018252600f81527f4d656d6f7279204f766572666c6f770000000000000000000000000000000000602082015290517f08c379a000000000000000000000000000000000000000000000000000000000815261021791906004016148f6565b613364565b8260010361336457600284036132e85761271081111561326457604080518082018252600f81527f4d656d6f7279204f766572666c6f770000000000000000000000000000000000602082015290517f08c379a000000000000000000000000000000000000000000000000000000000815261021791906004016148f6565b5f6132f161389e565b5f8a8152600182016020908152604080832086845290915290205490915060ff1661336257604051806060016040528060228152602001615721602291396040517f08c379a000000000000000000000000000000000000000000000000000000000815260040161021791906148f6565b505b600187111561337d5761337687614b98565b965061346d565b5f95505f965061346d565b613391856149f4565b9450601381111561340157604080518082018252601381527f496e76616c696420496e737472756374696f6e00000000000000000000000000602082015290517f08c379a000000000000000000000000000000000000000000000000000000000815261021791906004016148f6565b8061340f575060010161346f565b6003811015613421576001965061344a565b6011811015613433576002965061344a565b6012811015613445576003965061344a565b600496505b600195505f925089898381811061346357613463614987565b9050602002013593505b505b80613479816149f4565b9150506131b2565b505f85118061348d5750835b156134f757604080518082018252601781527f496e76616c696420496e737472756374696f6e20536574000000000000000000602082015290517f08c379a000000000000000000000000000000000000000000000000000000000815261021791906004016148f6565b605a83111561257657604080518082018252601981527f496e737472756374696f6e2053657420546f6f204c6172676500000000000000602082015290517f08c379a000000000000000000000000000000000000000000000000000000000815261021791906004016148f6565b60088082600781111561357a5761357a6143de565b1061247257604080518082018252601281527f496e76616c696420506172616d20547970650000000000000000000000000000602082015290517f08c379a000000000000000000000000000000000000000000000000000000000815261021791906004016148f6565b61271081111561365357604080518082018252600f81527f4d656d6f7279204f766572666c6f770000000000000000000000000000000000602082015290517f08c379a000000000000000000000000000000000000000000000000000000000815261021791906004016148f6565b5f5b818110156136905761368883838381811061367257613672614987565b6123719260206060909202019081019150614ad7565b600101613655565b505050565b5f5b82811015613757576136dc8484838181106136b4576136b4614987565b90506020028101906136c69190614bcc565b6136d7906060810190604001614c0a565b613920565b6137148484838181106136f1576136f1614987565b90506020028101906137039190614bcc565b612371906080810190606001614ad7565b61374f84848381811061372957613729614987565b905060200281019061373b9190614bcc565b6137499060e0810190614a2b565b846131ab565b600101613697565b50505050565b5f613766612580565b5f858152600191909101602052604090205460ff166137e457604080518082018252601581527f506f6c69637920646f6573206e6f742065786973740000000000000000000000602082015290517f08c379a000000000000000000000000000000000000000000000000000000000815261021791906004016148f6565b5f84815260018681016020908152604080842087855290915290912080547fffffffffffffffffffffffffffffffffffffffffffffffffffffffffffffff00168217815583910161383582826155ef565b90505061384385858561399f565b50909392505050565b5f6138556120f0565b5f888152602082815260408083208a84529091529020909150613879858783614e61565b505f878152602082815260408083208984529091529020600101612576838583614e61565b5f8061036960017f438102ff677bc3f21830c58117a05d6b953b31e3ea339da3f17957cd3941a6906149e1565b5f8061036960017fbe498a3b14fd79a48c3c9af86ff14271ed497d09071013334028d28e7791db206149e1565b5f60048214806139085750600282145b806139135750601282145b8061036957505060111490565b600380826002811115613935576139356143de565b1061247257604080518082018252601381527f496e76616c696420456666656374205479706500000000000000000000000000602082015290517f08c379a000000000000000000000000000000000000000000000000000000000815261021791906004016148f6565b5f6139a861389e565b5f8481526001860160209081526040808320868452825280832060050180548251818502810185019093528083529495509293909291849084015b82821015613a80575f8481526020902060408051606081019091529083018054829060ff166007811115613a1957613a196143de565b6007811115613a2a57613a2a6143de565b8152905461010081046fffffffffffffffffffffffffffffffff166020808401919091527101000000000000000000000000000000000090910460ff1660409092019190915290825260019290920191016139e3565b5050505f868152600188016020908152604080832088845282528083206006018054825181850281018501909352808352959650929490935090849084015b82821015613b5c575f8481526020902060408051606081019091529083018054829060ff166007811115613af557613af56143de565b6007811115613b0657613b066143de565b8152905461010081046fffffffffffffffffffffffffffffffff166020808401919091527101000000000000000000000000000000000090910460ff166040909201919091529082526001929092019101613abf565b5050505f878152600189016020908152604080832089845282528083206007018054825181850281018501909352808352959650929490935090849084015b82821015613c38575f8481526020902060408051606081019091529083018054829060ff166007811115613bd157613bd16143de565b6007811115613be257613be26143de565b8152905461010081046fffffffffffffffffffffffffffffffff166020808401919091527101000000000000000000000000000000000090910460ff166040909201919091529082526001929092019101613b9b565b509293505f925050505b8351811015613d4957613c608482815181106128ad576128ad614987565b15613d41575f848281518110613c7857613c78614987565b60209081029190910181015101516fffffffffffffffffffffffffffffffff1690505f805b5f8a81526003890160209081526040808320868452909152902054811015613d0d575f8a81526003890160209081526040808320868452909152902080548a919083908110613cee57613cee614987565b905f5260205f20015403613d055760019150613d0d565b600101613c9d565b5080613d3e575f89815260038801602090815260408083208584528252822080546001810182559083529120018890555b50505b600101613c42565b505f805b8351811015613e5257613d6b8482815181106128ad576128ad614987565b15613e4a57838181518110613d8257613d82614987565b60209081029190910181015101516fffffffffffffffffffffffffffffffff1691505f805b5f8a81526003890160209081526040808320878452909152902054811015613e17575f8a81526003890160209081526040808320878452909152902080548a919083908110613df857613df8614987565b905f5260205f20015403613e0f5760019150613e17565b600101613da7565b5080613e48575f89815260038801602090815260408083208684528252822080546001810182559083529120018890555b505b600101613d4d565b505f5b8251811015613f5a57613e738382815181106128ad576128ad614987565b15613f5257828181518110613e8a57613e8a614987565b60209081029190910181015101516fffffffffffffffffffffffffffffffff1691505f805b5f8a81526003890160209081526040808320878452909152902054811015613f4f575f8a81526003890160209081526040808320878452909152902080548a919083908110613f0057613f00614987565b905f5260205f20015403613f175760019150613f4f565b81613f47575f8a815260038901602090815260408083208784528252822080546001810182559083529120018990555b600101613eaf565b50505b600101613e55565b505050505050505050565b6040518060e0016040528060608152602001613f9b60405180606001604052806060815260200160608152602001606081525090565b815260200160608152602001606081526020016060815260200160608152602001606081525090565b60405180604001604052805f15158152602001613fdf613f65565b905290565b828054828255905f5260205f2090810192821561401d579160200282015b8281111561401d578251825591602001919060010190614002565b506140299291506140be565b5090565b5080545f8255905f5260205f209081019061250591906140be565b5080545f8255601f0160209004905f5260205f209081019061250591906140be565b5080545f8255905f5260205f209081019061250591906140d2565b5080545f8255905f5260205f209081019061250591906140ee565b5080545f8255600502905f5260205f20908101906125059190614125565b5b80821115614029575f81556001016140bf565b80821115614029575f6140e5828261418d565b506001016140d2565b5b808211156140295780547fffffffffffffffffffffffffffff0000000000000000000000000000000000001681556001016140ef565b808211156140295780547fffffffffffffffffffffffffffffffffffffffffffffffffffffffff000000001681555f614161600183018261418d565b600282015f9055600382015f614177919061418d565b614184600483015f61402d565b50600501614125565b5080546141999061490f565b5f825580601f106141a8575050565b601f0160209004905f5260205f209081019061250591906140be565b5f5f604083850312156141d5575f5ffd5b50508035926020909101359150565b5f81518084528060208401602086015e5f6020828601015260207fffffffffffffffffffffffffffffffffffffffffffffffffffffffffffffffe0601f83011685010191505092915050565b602081525f82516040602084015261424b60608401826141e4565b905060208401517fffffffffffffffffffffffffffffffffffffffffffffffffffffffffffffffe084830301604085015261428682826141e4565b95945050505050565b5f60e0828403121561429f575f5ffd5b50919050565b5f5f83601f8401126142b5575f5ffd5b50813567ffffffffffffffff8111156142cc575f5ffd5b6020830191508360208285010111156142e3575f5ffd5b9250929050565b5f5f5f5f5f5f608087890312156142ff575f5ffd5b86359550602087013567ffffffffffffffff81111561431c575f5ffd5b61432889828a0161428f565b955050604087013567ffffffffffffffff811115614344575f5ffd5b61435089828a016142a5565b909550935050606087013567ffffffffffffffff81111561436f575f5ffd5b61437b89828a016142a5565b979a9699509497509295939492505050565b5f6020828403121561439d575f5ffd5b5035919050565b5f8151808452602084019350602083015f5b828110156143d45781518652602095860195909101906001016143b6565b5093949350505050565b7f4e487b71000000000000000000000000000000000000000000000000000000005f52602160045260245ffd5b6008811061441b5761441b6143de565b9052565b5f81516060845261443360608501826143a4565b60208481015186830387830152805180845290820193505f92909101905b8083101561447b5761446482855161440b565b602082019150602084019350600183019250614451565b50604085015192508581036040870152809150825180825260208201925060208160051b8301016020850194505f5b828110156144f9577fffffffffffffffffffffffffffffffffffffffffffffffffffffffffffffffe08483030185526144e48287516141e4565b602096870196959095019491506001016144aa565b50979650505050505050565b5f8151808452602084019350602083015f5b828110156143d457815161452c87825161440b565b6fffffffffffffffffffffffffffffffff602082015116602088015260ff604082015116604088015250606086019550602082019150600181019050614517565b6003811061441b5761441b6143de565b5f82825180855260208501945060208160051b830101602085015f5b8381101561467c578483037fffffffffffffffffffffffffffffffffffffffffffffffffffffffffffffffe0018852815180511515845260208101516145e3602086018215159052565b5060408101516145f6604086018261456d565b506060810151614609606086018261440b565b50608081015161010060808601526146256101008601826141e4565b905060a082015160a086015260c082015185820360c087015261464882826141e4565b91505060e0820151915084810360e086015261466481836143a4565b60209a8b019a90955093909301925050600101614599565b50909695505050505050565b5f815160e0845261469c60e08501826143a4565b9050602083015184820360208601526146b5828261441f565b915050604083015184820360408601526146cf8282614505565b915050606083015184820360608601526146e98282614505565b915050608083015184820360808601526147038282614505565b91505060a083015184820360a086015261471d828261457d565b91505060c083015184820360c0860152614286828261457d565b5f602082016020835280845180835260408501915060408160051b8601019250602086015f5b82811015614810578685037fffffffffffffffffffffffffffffffffffffffffffffffffffffffffffffffc0018452815180518087526020918201918088019190600582901b8901015f5b828110156147f7577fffffffffffffffffffffffffffffffffffffffffffffffffffffffffffffffe08a83030184526147e2828651614688565b602095860195949094019391506001016147a8565b509750505060209485019492909201915060010161475d565b50929695505050505050565b602081528151151560208201525f60208301516040808401526148426060840182614688565b949350505050565b5f5f5f5f5f5f5f60a0888a031215614860575f5ffd5b8735965060208801359550604088013567ffffffffffffffff811115614884575f5ffd5b6148908a828b0161428f565b955050606088013567ffffffffffffffff8111156148ac575f5ffd5b6148b88a828b016142a5565b909550935050608088013567ffffffffffffffff8111156148d7575f5ffd5b6148e38a828b016142a5565b989b979a50959850939692959293505050565b602081525f61490860208301846141e4565b9392505050565b600181811c9082168061492357607f821691505b60208210810361429f577f4e487b71000000000000000000000000000000000000000000000000000000005f52602260045260245ffd5b7f4e487b71000000000000000000000000000000000000000000000000000000005f52604160045260245ffd5b7f4e487b71000000000000000000000000000000000000000000000000000000005f52603260045260245ffd5b7f4e487b71000000000000000000000000000000000000000000000000000000005f52601160045260245ffd5b81810381811115610369576103696149b4565b5f7fffffffffffffffffffffffffffffffffffffffffffffffffffffffffffffffff8203614a2457614a246149b4565b5060010190565b5f5f83357fffffffffffffffffffffffffffffffffffffffffffffffffffffffffffffffe1843603018112614a5e575f5ffd5b83018035915067ffffffffffffffff821115614a78575f5ffd5b6020019150600581901b36038213156142e3575f5ffd5b5f82357fffffffffffffffffffffffffffffffffffffffffffffffffffffffffffffffa1833603018112614ac1575f5ffd5b9190910192915050565b60088110612505575f5ffd5b5f60208284031215614ae7575f5ffd5b813561490881614acb565b5f5f83357fffffffffffffffffffffffffffffffffffffffffffffffffffffffffffffffe1843603018112614b25575f5ffd5b83018035915067ffffffffffffffff821115614b3f575f5ffd5b60200191506060810236038213156142e3575f5ffd5b7f4e487b71000000000000000000000000000000000000000000000000000000005f52603160045260245ffd5b5f82518060208501845e5f920191825250919050565b5f81614ba657614ba66149b4565b507fffffffffffffffffffffffffffffffffffffffffffffffffffffffffffffffff0190565b5f82357fffffffffffffffffffffffffffffffffffffffffffffffffffffffffffffff01833603018112614ac1575f5ffd5b60038110612505575f5ffd5b5f60208284031215614c1a575f5ffd5b813561490881614bfe565b5b81811015612472575f8155600101614c26565b68010000000000000000821115614c5257614c5261495a565b80548282558083101561369057815f5260205f20613757828201858301614c25565b67ffffffffffffffff831115614c8c57614c8c61495a565b614c968382614c39565b81815f5260205f205f5b85811015614cbc57823582820155602090920191600101614ca0565b505050505050565b68010000000000000000821115614cdd57614cdd61495a565b80548282558083101561369057815f5260205f20601f840160051c8101601f85168015614d57577fffffffffffffffffffffffffffffffffffffffffffffffffffffffffffffffff820180547fffffffffffffffffffffffffffffffffffffffffffffffffffffffffffffffff8360200360031b1c168155505b50612277601f840160051c830182614c25565b5f813561036981614acb565b5f5f83357fffffffffffffffffffffffffffffffffffffffffffffffffffffffffffffffe1843603018112614da9575f5ffd5b83018035915067ffffffffffffffff821115614dc3575f5ffd5b6020019150368190038213156142e3575f5ffd5b8054614de29061490f565b801561247257601f811160018114614dfb5750505f9055565b5f83815260209020614e18601f840160051c820160018301614c25565b505f8381526020812081855555505050565b601f82111561369057805f5260205f20601f840160051c81016020851015614e4f5750805b612277601f850160051c830182614c25565b67ffffffffffffffff831115614e7957614e7961495a565b614e8d83614e87835461490f565b83614e2a565b5f601f841160018114614edd575f8515614ea75750838201355b7fffffffffffffffffffffffffffffffffffffffffffffffffffffffffffffffff600387901b1c1916600186901b178355612277565b5f838152602081207fffffffffffffffffffffffffffffffffffffffffffffffffffffffffffffffe08716915b82811015614f2a5786850135825560209485019460019092019101614f0a565b5086821015614f65577fffffffffffffffffffffffffffffffffffffffffffffffffffffffffffffffff60f88860031b161c19848701351681555b505060018560011b0183555050505050565b68010000000000000000831115614f9057614f9061495a565b805483825580841015614fcb575f828152602090208481019082015b80821015614fc857614fbd82614dd7565b600182019150614fac565b50505b505f8181526020812083915b85811015614cbc57614fe98386614d76565b614ff4818386614e61565b50506020929092019160019182019101614fd7565b6150138283614a2b565b67ffffffffffffffff81111561502b5761502b61495a565b6150358184614c39565b825f5260205f205f5b8281101561505a5783358282015560209093019260010161503e565b505050506001810161506f6020840184614a2b565b67ffffffffffffffff8111156150875761508761495a565b6150918184614cc4565b5f8381526020902092508060051c5f5b818110156150f6575f5f5b60208110156150e9576150d86150c187614d6a565b60ff908116600384901b90811b91901b1984161790565b6020969096019591506001016150ac565b50858201556001016150a1565b507fffffffffffffffffffffffffffffffffffffffffffffffffffffffffffffffe08216808303818414615152575f5f5b8281101561514c5761513b6150c188614d6a565b602097909701969150600101615127565b50868401555b5050505050506151656040830183614a2b565b613757818360028601614f77565b813561517e81614acb565b6008811061518e5761518e6143de565b815460ff82169150817fffffffffffffffffffffffffffffffffffffffffffffffffffffffffffffff00821617835560208401356fffffffffffffffffffffffffffffffff811681146151df575f5ffd5b70ffffffffffffffffffffffffffffffff008160081b16837fffffffffffffffffffffffffffffff0000000000000000000000000000000000841617178455505050604082013560ff81168114615234575f5ffd5b81547fffffffffffffffffffffffffffff00ffffffffffffffffffffffffffffffffff1660889190911b71ff00000000000000000000000000000000001617905550565b680100000000000000008311156152915761529161495a565b8054838255808410156152c6575f828152602090208481019082015b808210156152c3575f82556001820191506152ad565b50505b505f8181526020812083915b85811015614cbc576152e48383615173565b60609290920191600191820191016152d2565b80545f8255801561247257815f5260205f2061369082820182614c25565b5f81358015158114610369575f5ffd5b5f813561036981614bfe565b60038210615341576153416143de565b805462ff00008360101b167fffffffffffffffffffffffffffffffffffffffffffffffffffffffffff00ffff8216178255505050565b60088210615387576153876143de565b805463ff0000008360181b167fffffffffffffffffffffffffffffffffffffffffffffffffffffffff00ffffff8216178255505050565b6153c782615315565b15157fffffffffffffffffffffffffffffffffffffffffffffffffffffffffffffff0082541660ff821681178355505061543d61540660208401615315565b8280547fffffffffffffffffffffffffffffffffffffffffffffffffffffffffffff00ff1691151560081b61ff0016919091179055565b61545261544c60408401615325565b82615331565b61546761546160608401614d6a565b82615377565b6154746080830183614d76565b615482818360018601614e61565b505060a0820135600282015561549b60c0830183614d76565b6154a9818360038601614e61565b50506154b860e0830183614a2b565b613757818360048601614c74565b680100000000000000008311156154df576154df61495a565b8054838255808410156155b25780600502600581048214615502576155026149b4565b84600502600581048614615518576155186149b4565b5f8481526020902091820191015b818110156155af575f815561553d60018201614dd7565b5f60028201556003810180546155529061490f565b801561559957601f81116001811461556c575f8355615597565b5f83815260209020615589601f840160051c820160018301614c25565b505f83815260208120818555555b505b50506155a7600482016152f7565b600501615526565b50505b505f8181526020812083915b85811015614cbc576155d96155d38487614bcc565b836153be565b60209290920191600591909101906001016155be565b6155f98283614a2b565b67ffffffffffffffff8111156156115761561161495a565b61561b8184614c39565b825f5260205f205f5b8281101561564057833582820155602090930192600101615624565b5050505061565d6156546020840184614a8f565b60018301615009565b61566a6040830183614af2565b615678818360048601615278565b50506156876060830183614af2565b615695818360058601615278565b50506156a46080830183614af2565b6156b2818360068601615278565b50506156c160a0830183614a2b565b6156cf8183600786016154c6565b50506156de60c0830183614a2b565b6137578183600886016154c656fe506f6c6963792049442063616e6e6f7420626520302e2043726561746520706f6c696379206265666f7265207570646174696e67547261636b6572207265666572656e63656420696e2072756c65206e6f7420736574a264697066735822122099640a936e98f58f9a4049422fb0537542e42e28a10b19ce19a54f83f121a3b864736f6c634300081c0033","linkReferences":{}},"methodIdentifiers":{"createRule(uint256,(uint256[],(uint256[],uint8[],bytes[]),(uint8,uint128,uint8)[],(uint8,uint128,uint8)[],(uint8,uint128,uint8)[],(bool,bool,uint8,uint8,bytes,bytes32,string,uint256[])[],(bool,bool,uint8,uint8,bytes,bytes32,string,uint256[])[]),string,string)":"1809418e","deleteRule(uint256,uint256)":"a31c8ebb","getAllRules(uint256)":"266fc8a5","getMaxLoopSize()":"230d4907","getMemorySize()":"59c8075b","getOpsSize1()":"49fd266d","getOpsSizeUpTo2()":"54daa681","getOpsSizeUpTo3()":"bef087a3","getOpsTotalSize()":"d951e134","getRule(uint256,uint256)":"6d279ef8","getRuleMetadata(uint256,uint256)":"12602c40","updateRule(uint256,uint256,(uint256[],(uint256[],uint8[],bytes[]),(uint8,uint128,uint8)[],(uint8,uint128,uint8)[],(uint8,uint128,uint8)[],(bool,bool,uint8,uint8,bytes,bytes32,string,uint256[])[],(bool,bool,uint8,uint8,bytes,bytes32,string,uint256[])[]),string,string)":"72e1c308"},"id":84}